{
  "address": "0x62cbf359492fDc1F4d851c8854212E706B3E36E2",
  "abi": [
    {
      "inputs": [
        {
          "internalType": "address",
          "name": "_dispatcher",
          "type": "address"
        },
        {
          "internalType": "address",
          "name": "_authUserExecutedSharesRequestorLib",
          "type": "address"
        }
      ],
      "stateMutability": "nonpayable",
      "type": "constructor"
    },
    {
      "anonymous": false,
      "inputs": [
        {
          "indexed": true,
          "internalType": "address",
          "name": "comptrollerProxy",
          "type": "address"
        },
        {
          "indexed": false,
          "internalType": "address",
          "name": "sharesRequestorProxy",
          "type": "address"
        }
      ],
      "name": "SharesRequestorProxyDeployed",
      "type": "event"
    },
    {
      "inputs": [
        {
          "internalType": "address",
          "name": "_comptrollerProxy",
          "type": "address"
        }
      ],
      "name": "deploySharesRequestorProxy",
      "outputs": [
        {
          "internalType": "address",
          "name": "sharesRequestorProxy_",
          "type": "address"
        }
      ],
      "stateMutability": "nonpayable",
      "type": "function"
    },
    {
      "inputs": [],
      "name": "getAuthUserExecutedSharesRequestorLib",
      "outputs": [
        {
          "internalType": "address",
          "name": "authUserExecutedSharesRequestorLib_",
          "type": "address"
        }
      ],
      "stateMutability": "view",
      "type": "function"
    },
    {
      "inputs": [],
      "name": "getDispatcher",
      "outputs": [
        {
          "internalType": "address",
          "name": "dispatcher_",
          "type": "address"
        }
      ],
      "stateMutability": "view",
      "type": "function"
    },
    {
      "inputs": [
        {
          "internalType": "address",
          "name": "_comptrollerProxy",
          "type": "address"
        }
      ],
      "name": "getSharesRequestorProxyForComptrollerProxy",
      "outputs": [
        {
          "internalType": "address",
          "name": "sharesRequestorProxy_",
          "type": "address"
        }
      ],
      "stateMutability": "view",
      "type": "function"
    }
  ],
  "transactionHash": "0x61c306757a17be4fd42b774281e0cf0dce63c35191ea04d1f5b5c77893fccaa0",
  "args": [
    "0x9BD80A5f7C927d6E5086eC08a3866c7C40079F8B",
    "0xb580e8a1cD79046858db7808a0D1d1acfb4C234c"
  ],
  "solcInputHash": "d9ca3c6c6b3274b287f1d69a6e9ab10d",
  "bytecode": "0x60c060405234801561001057600080fd5b50604051610a34380380610a348339818101604052604081101561003357600080fd5b5080516020909101516001600160601b0319606091821b811660805291901b1660a05260805160601c60a05160601c6109ab610089600039806101f7528061059052508061041e528061054e52506109ab6000f3fe608060405234801561001057600080fd5b506004361061004c5760003560e01c80631c38b88f146100515780636b16d3d714610093578063cbc50d7f1461009b578063ebb3d589146100c1575b600080fd5b6100776004803603602081101561006757600080fd5b50356001600160a01b03166100c9565b604080516001600160a01b039092168252519081900360200190f35b61007761054c565b610077600480360360208110156100b157600080fd5b50356001600160a01b0316610570565b61007761058e565b600080826001600160a01b031663c98091876040518163ffffffff1660e01b815260040160206040518083038186803b15801561010557600080fd5b505afa158015610119573d6000803e3d6000fd5b505050506040513d602081101561012f57600080fd5b505160408051630b4a7c6960e31b815290519192506001600160a01b038086169290841691635a53e348916004808301926020929190829003018186803b15801561017957600080fd5b505afa15801561018d573d6000803e3d6000fd5b505050506040513d60208110156101a357600080fd5b50516001600160a01b0316146101ea5760405162461bcd60e51b81526004018080602001828103825260438152602001806109336043913960600191505060405180910390fd5b60006001600160a01b03167f00000000000000000000000000000000000000000000000000000000000000006001600160a01b0316633d7c74f8836040518263ffffffff1660e01b815260040180826001600160a01b0316815260200191505060206040518083038186803b15801561026257600080fd5b505afa158015610276573d6000803e3d6000fd5b505050506040513d602081101561028c57600080fd5b50516001600160a01b031614156102d45760405162461bcd60e51b815260040180806020018281038252602e815260200180610905602e913960400191505060405180910390fd5b806001600160a01b031663893d20e86040518163ffffffff1660e01b815260040160206040518083038186803b15801561030d57600080fd5b505afa158015610321573d6000803e3d6000fd5b505050506040513d602081101561033757600080fd5b50516001600160a01b0316331461037f5760405162461bcd60e51b81526004018080602001828103825260348152602001806108a16034913960400191505060405180910390fd5b6001600160a01b0383811660009081526020819052604090205416156103d65760405162461bcd60e51b81526004018080602001828103825260308152602001806108d56030913960400191505060405180910390fd5b604080516001600160a01b03851660248083019190915282518083039091018152604490910182526020810180516001600160e01b031663066ad14f60e21b179052905181907f000000000000000000000000000000000000000000000000000000000000000090610447906105b2565b8080602001836001600160a01b03168152602001828103825284818151815260200191508051906020019080838360005b83811015610490578181015183820152602001610478565b50505050905090810190601f1680156104bd5780820380516001836020036101000a031916815260200191505b509350505050604051809103906000f0801580156104df573d6000803e3d6000fd5b506001600160a01b038581166000818152602081815260409182902080546001600160a01b03191694861694851790558151938452905193965090927fad30e3c9886ad5e435954f4659b95971deaeac5f66660faae080ad3245b0b8969281900390910190a25050919050565b7f000000000000000000000000000000000000000000000000000000000000000090565b6001600160a01b039081166000908152602081905260409020541690565b7f000000000000000000000000000000000000000000000000000000000000000090565b6102e1806105c08339019056fe608060405234801561001057600080fd5b506040516102e13803806102e18339818101604052604081101561003357600080fd5b810190808051604051939291908464010000000082111561005357600080fd5b90830190602082018581111561006857600080fd5b825164010000000081118282018810171561008257600080fd5b82525081516020918201929091019080838360005b838110156100af578181015183820152602001610097565b50505050905090810190601f1680156100dc5780820380516001836020036101000a031916815260200191505b50604052602001805190602001909291905050508181807f360894a13ba1a3210667c828492db98dca3e2076cc3735a920a3ca505d382bbc5560006060826001600160a01b0316846040518082805190602001908083835b602083106101535780518252601f199092019160209182019101610134565b6001836020036101000a038019825116818451168082178552505050505050905001915050600060405180830381855af49150503d80600081146101b3576040519150601f19603f3d011682016040523d82523d6000602084013e6101b8565b606091505b50915091508181906102485760405162461bcd60e51b81526004018080602001828103825283818151815260200191508051906020019080838360005b8381101561020d5781810151838201526020016101f5565b50505050905090810190601f16801561023a5780820380516001836020036101000a031916815260200191505b509250505060405180910390fd5b5050505050505060848061025d6000396000f3fe60806040527f360894a13ba1a3210667c828492db98dca3e2076cc3735a920a3ca505d382bbc543660008037600080366000846127105a03f43d806000803e818015604957816000f35b816000fdfea2646970667358221220c95d1a3af94c9deb4da2bc2572d7ae5e6e96a6324b07be0ad2c9f5a910926bc064736f6c634300060c00336465706c6f79536861726573526571756573746f7250726f78793a204f6e6c792066756e64206f776e65722063616c6c61626c656465706c6f79536861726573526571756573746f7250726f78793a2050726f787920616c7265616479206578697374736465706c6f79536861726573526571756573746f7250726f78793a204e6f7420612067656e75696e652066756e646465706c6f79536861726573526571756573746f7250726f78793a20496e76616c6964205661756c7450726f787920666f7220436f6d7074726f6c6c657250726f7879a26469706673582212204f2d5f7ceacb3147c5712172a6345349bb880a9338eaf83fc941c6b85683eccb64736f6c634300060c0033",
  "devdoc": {
    "author": "Enzyme Council <security@enzyme.finance>",
    "kind": "dev",
    "methods": {
      "deploySharesRequestorProxy(address)": {
        "params": {
          "_comptrollerProxy": "The ComptrollerProxy for which to deploy the shares requestor proxy"
        },
        "returns": {
          "sharesRequestorProxy_": "The address of the newly-deployed shares requestor proxy"
        }
      },
      "getAuthUserExecutedSharesRequestorLib()": {
        "returns": {
          "authUserExecutedSharesRequestorLib_": "The `AUTH_USER_EXECUTED_SHARES_REQUESTOR_LIB` variable value"
        }
      },
      "getDispatcher()": {
        "returns": {
          "dispatcher_": "The `DISPATCHER` variable value"
        }
      },
      "getSharesRequestorProxyForComptrollerProxy(address)": {
        "params": {
          "_comptrollerProxy": "The ComptrollerProxy for which to get the associated AuthUserExecutedSharesRequestorProxy"
        },
        "returns": {
          "sharesRequestorProxy_": "The associated AuthUserExecutedSharesRequestorProxy address"
        }
      }
    },
    "title": "AuthUserExecutedSharesRequestorFactory Contract",
    "version": 1
  },
  "userdoc": {
    "kind": "user",
    "methods": {
      "deploySharesRequestorProxy(address)": {
        "notice": "Deploys a shares requestor proxy instance for a given ComptrollerProxy instance"
      },
      "getAuthUserExecutedSharesRequestorLib()": {
        "notice": "Gets the value of the `AUTH_USER_EXECUTED_SHARES_REQUESTOR_LIB` variable"
      },
      "getDispatcher()": {
        "notice": "Gets the value of the `DISPATCHER` variable"
      },
      "getSharesRequestorProxyForComptrollerProxy(address)": {
        "notice": "Gets the AuthUserExecutedSharesRequestorProxy associated with the given ComptrollerProxy"
      }
    },
    "notice": "Deploys and maintains a record of AuthUserExecutedSharesRequestorProxy instances",
    "version": 1
  },
  "storageLayout": {
    "storage": [
      {
        "astId": 45197,
        "contract": "contracts/release/peripheral/shares-requestors/AuthUserExecutedSharesRequestorFactory.sol:AuthUserExecutedSharesRequestorFactory",
        "label": "comptrollerProxyToSharesRequestorProxy",
        "offset": 0,
        "slot": "0",
        "type": "t_mapping(t_address,t_address)"
      }
    ],
    "types": {
      "t_address": {
        "encoding": "inplace",
        "label": "address",
        "numberOfBytes": "20"
      },
      "t_mapping(t_address,t_address)": {
        "encoding": "mapping",
        "key": "t_address",
        "label": "mapping(address => address)",
        "numberOfBytes": "32",
        "value": "t_address"
      }
    }
  }
}