{
  "address": "0xBA016e06360F44a26B9F8D1b9622Ad1Ba9aD7Be8",
  "abi": [
    {
      "inputs": [
        {
          "internalType": "address",
          "name": "_fundDeployer",
          "type": "address"
        },
        {
          "internalType": "address",
          "name": "_weth",
          "type": "address"
        },
        {
          "internalType": "address",
          "name": "_ceth",
          "type": "address"
        },
        {
          "internalType": "address[]",
          "name": "cERC20Tokens",
          "type": "address[]"
        }
      ],
      "stateMutability": "nonpayable",
      "type": "constructor"
    },
    {
      "anonymous": false,
      "inputs": [
        {
          "indexed": true,
          "internalType": "address",
          "name": "cToken",
          "type": "address"
        },
        {
          "indexed": true,
          "internalType": "address",
          "name": "token",
          "type": "address"
        }
      ],
      "name": "CTokenAdded",
      "type": "event"
    },
    {
      "inputs": [
        {
          "internalType": "address[]",
          "name": "_cTokens",
          "type": "address[]"
        }
      ],
      "name": "addCTokens",
      "outputs": [],
      "stateMutability": "nonpayable",
      "type": "function"
    },
    {
      "inputs": [
        {
          "internalType": "address",
          "name": "_derivative",
          "type": "address"
        },
        {
          "internalType": "uint256",
          "name": "_derivativeAmount",
          "type": "uint256"
        }
      ],
      "name": "calcUnderlyingValues",
      "outputs": [
        {
          "internalType": "address[]",
          "name": "underlyings_",
          "type": "address[]"
        },
        {
          "internalType": "uint256[]",
          "name": "underlyingAmounts_",
          "type": "uint256[]"
        }
      ],
      "stateMutability": "nonpayable",
      "type": "function"
    },
    {
      "inputs": [],
      "name": "getFundDeployer",
      "outputs": [
        {
          "internalType": "address",
          "name": "fundDeployer_",
          "type": "address"
        }
      ],
      "stateMutability": "view",
      "type": "function"
    },
    {
      "inputs": [],
      "name": "getOwner",
      "outputs": [
        {
          "internalType": "address",
          "name": "owner_",
          "type": "address"
        }
      ],
      "stateMutability": "view",
      "type": "function"
    },
    {
      "inputs": [
        {
          "internalType": "address",
          "name": "_cToken",
          "type": "address"
        }
      ],
      "name": "getTokenFromCToken",
      "outputs": [
        {
          "internalType": "address",
          "name": "token_",
          "type": "address"
        }
      ],
      "stateMutability": "view",
      "type": "function"
    },
    {
      "inputs": [
        {
          "internalType": "address",
          "name": "_asset",
          "type": "address"
        }
      ],
      "name": "isSupportedAsset",
      "outputs": [
        {
          "internalType": "bool",
          "name": "isSupported_",
          "type": "bool"
        }
      ],
      "stateMutability": "view",
      "type": "function"
    }
  ],
  "transactionHash": "0x9f1e4dd8919ee22e1e196e92f5d562d53b84d4d96e56c7330c346f5bed19152b",
  "args": [
    "0x2242500548Cb2818c242C87FE956106d5Ebb6874",
    "0xbb4CdB9CBd36B01bD1cBaEBF2De08d9173bc095c",
    "0x0000000000000000000000000000000000000000",
    []
  ],
  "solcInputHash": "d9ca3c6c6b3274b287f1d69a6e9ab10d",
  "bytecode": "0x60a060405234801561001057600080fd5b50604051610cb3380380610cb38339818101604052608081101561003357600080fd5b81516020830151604080850151606086018051925194969395919493918201928464010000000082111561006657600080fd5b90830190602082018581111561007b57600080fd5b825186602082028301116401000000008211171561009857600080fd5b82525081516020918201928201910280838360005b838110156100c55781810151838201526020016100ad565b5050505091909101604081815260608a901b6001600160601b0319166080526001600160a01b038881166000818152602081905292832080546001600160a01b031916928c1692831790559096509450600080516020610c9383398151915293509150a38051156101395761013981610142565b50505050610366565b6000815111610198576040805162461bcd60e51b815260206004820152601c60248201527f5f5f61646443546f6b656e733a20456d707479205f63546f6b656e7300000000604482015290519081900360640190fd5b60005b81518110156103625760006001600160a01b03166000808484815181106101be57fe5b6020908102919091018101516001600160a01b03908116835290820192909252604001600020541614610238576040805162461bcd60e51b815260206004820152601f60248201527f5f5f61646443546f6b656e733a2056616c756520616c72656164792073657400604482015290519081900360640190fd5b600082828151811061024657fe5b60200260200101516001600160a01b0316636f307dc36040518163ffffffff1660e01b8152600401602060405180830381600087803b15801561028857600080fd5b505af115801561029c573d6000803e3d6000fd5b505050506040513d60208110156102b257600080fd5b50518351909150819060009081908690869081106102cc57fe5b60200260200101516001600160a01b03166001600160a01b0316815260200190815260200160002060006101000a8154816001600160a01b0302191690836001600160a01b03160217905550806001600160a01b031683838151811061032e57fe5b60200260200101516001600160a01b0316600080516020610c9383398151915260405160405180910390a35060010161019b565b5050565b60805160601c61090b610388600039806104785280610502525061090b6000f3fe608060405234801561001057600080fd5b50600436106100625760003560e01c80631d249354146100675780634cae3ad7146100d9578063727212f61461011b578063893d20e8146101e057806397c0ac87146101e85780639be918e6146101f0575b600080fd5b6100d76004803603602081101561007d57600080fd5b81019060208101813564010000000081111561009857600080fd5b8201836020820111156100aa57600080fd5b803590602001918460208302840111640100000000831117156100cc57600080fd5b50909250905061022a565b005b6100ff600480360360208110156100ef57600080fd5b50356001600160a01b03166102c1565b604080516001600160a01b039092168252519081900360200190f35b6101476004803603604081101561013157600080fd5b506001600160a01b0381351690602001356102df565b604051808060200180602001838103835285818151815260200191508051906020019060200280838360005b8381101561018b578181015183820152602001610173565b50505050905001838103825284818151815260200191508051906020019060200280838360005b838110156101ca5781810151838201526020016101b2565b5050505090500194505050505060405180910390f35b6100ff610474565b6100ff610500565b6102166004803603602081101561020657600080fd5b50356001600160a01b0316610524565b604080519115158252519081900360200190f35b610232610474565b6001600160a01b0316336001600160a01b0316146102815760405162461bcd60e51b81526004018080602001828103825260498152602001806108406049913960600191505060405180910390fd5b6102bd82828080602002602001604051908101604052809392919081815260200183836020028082843760009201919091525061054492505050565b5050565b6001600160a01b039081166000908152602081905260409020541690565b604080516001808252818301909252606091829190602080830190803683375050506001600160a01b0385811660009081526020819052604081205483519395509091169184919061032d57fe5b60200260200101906001600160a01b031690816001600160a01b03168152505060006001600160a01b03168260008151811061036557fe5b60200260200101516001600160a01b031614156103b35760405162461bcd60e51b815260040180806020018281038252602c8152602001806108aa602c913960400191505060405180910390fd5b6040805160018082528183019092529060208083019080368337019050509050610454670de0b6b3a764000061044e866001600160a01b031663182df0f56040518163ffffffff1660e01b815260040160206040518083038186803b15801561041b57600080fd5b505afa15801561042f573d6000803e3d6000fd5b505050506040513d602081101561044557600080fd5b50518690610776565b906107d8565b8160008151811061046157fe5b6020026020010181815250509250929050565b60007f00000000000000000000000000000000000000000000000000000000000000006001600160a01b031663893d20e86040518163ffffffff1660e01b815260040160206040518083038186803b1580156104cf57600080fd5b505afa1580156104e3573d6000803e3d6000fd5b505050506040513d60208110156104f957600080fd5b5051905090565b7f000000000000000000000000000000000000000000000000000000000000000090565b6001600160a01b0390811660009081526020819052604090205416151590565b600081511161059a576040805162461bcd60e51b815260206004820152601c60248201527f5f5f61646443546f6b656e733a20456d707479205f63546f6b656e7300000000604482015290519081900360640190fd5b60005b81518110156102bd5760006001600160a01b03166000808484815181106105c057fe5b6020908102919091018101516001600160a01b0390811683529082019290925260400160002054161461063a576040805162461bcd60e51b815260206004820152601f60248201527f5f5f61646443546f6b656e733a2056616c756520616c72656164792073657400604482015290519081900360640190fd5b600082828151811061064857fe5b60200260200101516001600160a01b0316636f307dc36040518163ffffffff1660e01b8152600401602060405180830381600087803b15801561068a57600080fd5b505af115801561069e573d6000803e3d6000fd5b505050506040513d60208110156106b457600080fd5b50518351909150819060009081908690869081106106ce57fe5b60200260200101516001600160a01b03166001600160a01b0316815260200190815260200160002060006101000a8154816001600160a01b0302191690836001600160a01b03160217905550806001600160a01b031683838151811061073057fe5b60200260200101516001600160a01b03167f7acf7482a03de3fea14ab9eb8fa6f7524bb1a61a24898d2337379a5cf7421d7e60405160405180910390a35060010161059d565b600082610785575060006107d2565b8282028284828161079257fe5b04146107cf5760405162461bcd60e51b81526004018080602001828103825260218152602001806108896021913960400191505060405180910390fd5b90505b92915050565b600080821161082e576040805162461bcd60e51b815260206004820152601a60248201527f536166654d6174683a206469766973696f6e206279207a65726f000000000000604482015290519081900360640190fd5b81838161083757fe5b04939250505056fe6f6e6c7946756e644465706c6f7965724f776e65723a204f6e6c79207468652046756e644465706c6f796572206f776e65722063616e2063616c6c20746869732066756e6374696f6e536166654d6174683a206d756c7469706c69636174696f6e206f766572666c6f7763616c63556e6465726c79696e6756616c7565733a20556e737570706f727465642064657269766174697665a26469706673582212200b9c4b11369989411b3ab62003d3e82d47737a9141ce48b28ea70dab67df8a5364736f6c634300060c00337acf7482a03de3fea14ab9eb8fa6f7524bb1a61a24898d2337379a5cf7421d7e",
  "devdoc": {
    "author": "Enzyme Council <security@enzyme.finance>",
    "kind": "dev",
    "methods": {
      "addCTokens(address[])": {
        "details": "Only allows CERC20 tokens. CEther is set in the constructor.",
        "params": {
          "_cTokens": "cTokens to add"
        }
      },
      "calcUnderlyingValues(address,uint256)": {
        "params": {
          "_derivative": "The derivative to convert",
          "_derivativeAmount": "The amount of the derivative to convert"
        },
        "returns": {
          "underlyingAmounts_": "The amount of each underlying asset for the equivalent derivative amount",
          "underlyings_": "The underlying assets for the _derivative"
        }
      },
      "getFundDeployer()": {
        "returns": {
          "fundDeployer_": "The `FUND_DEPLOYER` variable value"
        }
      },
      "getOwner()": {
        "details": "Ownership is deferred to the owner of the FundDeployer contract",
        "returns": {
          "owner_": "The owner"
        }
      },
      "getTokenFromCToken(address)": {
        "params": {
          "_cToken": "The cToken for which to get the underlying asset"
        },
        "returns": {
          "token_": "The underlying token"
        }
      },
      "isSupportedAsset(address)": {
        "params": {
          "_asset": "The asset to check"
        },
        "returns": {
          "isSupported_": "True if the asset is supported"
        }
      }
    },
    "title": "CompoundPriceFeed Contract",
    "version": 1
  },
  "userdoc": {
    "kind": "user",
    "methods": {
      "addCTokens(address[])": {
        "notice": "Adds cTokens to the price feed"
      },
      "calcUnderlyingValues(address,uint256)": {
        "notice": "Converts a given amount of a derivative to its underlying asset values"
      },
      "getFundDeployer()": {
        "notice": "Gets the `FUND_DEPLOYER` variable"
      },
      "getOwner()": {
        "notice": "Gets the owner of this contract"
      },
      "getTokenFromCToken(address)": {
        "notice": "Returns the underlying asset of a given cToken"
      },
      "isSupportedAsset(address)": {
        "notice": "Checks if an asset is supported by the price feed"
      }
    },
    "notice": "Price source oracle for Compound Tokens (cTokens)",
    "version": 1
  },
  "storageLayout": {
    "storage": [
      {
        "astId": 38662,
        "contract": "contracts/release/infrastructure/price-feeds/derivatives/feeds/CompoundPriceFeed.sol:CompoundPriceFeed",
        "label": "cTokenToToken",
        "offset": 0,
        "slot": "0",
        "type": "t_mapping(t_address,t_address)"
      }
    ],
    "types": {
      "t_address": {
        "encoding": "inplace",
        "label": "address",
        "numberOfBytes": "20"
      },
      "t_mapping(t_address,t_address)": {
        "encoding": "mapping",
        "key": "t_address",
        "label": "mapping(address => address)",
        "numberOfBytes": "32",
        "value": "t_address"
      }
    }
  }
}