{
  "address": "0x3bD6548BDd3b8b90c2b186B1a51cefd1B32ffA82",
  "abi": [
    {
      "inputs": [
        {
          "internalType": "address",
          "name": "_feeManager",
          "type": "address"
        },
        {
          "internalType": "address",
          "name": "_weth",
          "type": "address"
        }
      ],
      "stateMutability": "nonpayable",
      "type": "constructor"
    },
    {
      "inputs": [
        {
          "internalType": "address",
          "name": "_who",
          "type": "address"
        }
      ],
      "name": "accountHasMaxWethAllowance",
      "outputs": [
        {
          "internalType": "bool",
          "name": "hasMaxWethAllowance_",
          "type": "bool"
        }
      ],
      "stateMutability": "view",
      "type": "function"
    },
    {
      "inputs": [
        {
          "internalType": "address",
          "name": "_comptrollerProxy",
          "type": "address"
        }
      ],
      "name": "calcNetShareValueForFund",
      "outputs": [
        {
          "internalType": "uint256",
          "name": "netShareValue_",
          "type": "uint256"
        },
        {
          "internalType": "bool",
          "name": "isValid_",
          "type": "bool"
        }
      ],
      "stateMutability": "nonpayable",
      "type": "function"
    },
    {
      "inputs": [
        {
          "internalType": "address",
          "name": "_comptrollerProxy",
          "type": "address"
        },
        {
          "internalType": "address",
          "name": "_denominationAsset",
          "type": "address"
        },
        {
          "internalType": "address",
          "name": "_buyer",
          "type": "address"
        },
        {
          "internalType": "uint256",
          "name": "_minSharesQuantity",
          "type": "uint256"
        },
        {
          "internalType": "address",
          "name": "_exchange",
          "type": "address"
        },
        {
          "internalType": "address",
          "name": "_exchangeApproveTarget",
          "type": "address"
        },
        {
          "internalType": "bytes",
          "name": "_exchangeData",
          "type": "bytes"
        },
        {
          "internalType": "uint256",
          "name": "_minInvestmentAmount",
          "type": "uint256"
        }
      ],
      "name": "exchangeAndBuyShares",
      "outputs": [
        {
          "internalType": "uint256",
          "name": "sharesReceivedAmount_",
          "type": "uint256"
        }
      ],
      "stateMutability": "payable",
      "type": "function"
    },
    {
      "inputs": [
        {
          "internalType": "address",
          "name": "_comptrollerProxy",
          "type": "address"
        }
      ],
      "name": "getContinuousFeesForFund",
      "outputs": [
        {
          "internalType": "address[]",
          "name": "continuousFees_",
          "type": "address[]"
        }
      ],
      "stateMutability": "view",
      "type": "function"
    },
    {
      "inputs": [],
      "name": "getFeeManager",
      "outputs": [
        {
          "internalType": "address",
          "name": "feeManager_",
          "type": "address"
        }
      ],
      "stateMutability": "view",
      "type": "function"
    },
    {
      "inputs": [],
      "name": "getWethToken",
      "outputs": [
        {
          "internalType": "address",
          "name": "wethToken_",
          "type": "address"
        }
      ],
      "stateMutability": "view",
      "type": "function"
    },
    {
      "inputs": [
        {
          "internalType": "address",
          "name": "_comptrollerProxy",
          "type": "address"
        },
        {
          "internalType": "address[]",
          "name": "_fees",
          "type": "address[]"
        }
      ],
      "name": "invokeContinuousFeeHookAndPayoutSharesOutstandingForFund",
      "outputs": [],
      "stateMutability": "nonpayable",
      "type": "function"
    },
    {
      "stateMutability": "payable",
      "type": "receive"
    }
  ],
  "transactionHash": "0xfb83b507edeff51ac4e34a38dbf3708f75f7d13ca3b5758d70c9abe299901fb2",
  "args": [
    "0x2173c42AbEa9174d69741D9144A1adf2F437e8D1",
    "0xbb4CdB9CBd36B01bD1cBaEBF2De08d9173bc095c"
  ],
  "solcInputHash": "d9ca3c6c6b3274b287f1d69a6e9ab10d",
  "bytecode": "0x60c060405234801561001057600080fd5b506040516117423803806117428339818101604052604081101561003357600080fd5b5080516020909101516001600160601b0319606092831b8116608052911b1660a05260805160601c60a05160601c6116976100ab6000398061078b52806107b152806108255280610a515280610af25280610e5c525080610327528061067f5280610c505280610ce15280610e2052506116976000f3fe6080604052600436106100745760003560e01c8063504f36e01161004e578063504f36e01461018057806396761bd814610238578063ace7cc9c1461027f578063f2d638261461030c5761007b565b80630efe6880146100805780631053507a146101035780634c252f911461014f5761007b565b3661007b57005b600080fd5b34801561008c57600080fd5b506100b3600480360360208110156100a357600080fd5b50356001600160a01b0316610321565b60408051602080825283518183015283519192839290830191858101910280838360005b838110156100ef5781810151838201526020016100d7565b505050509050019250505060405180910390f35b34801561010f57600080fd5b506101366004803603602081101561012657600080fd5b50356001600160a01b0316610667565b6040805192835290151560208301528051918290030190f35b34801561015b57600080fd5b50610164610789565b604080516001600160a01b039092168252519081900360200190f35b610226600480360361010081101561019757600080fd5b6001600160a01b03823581169260208101358216926040820135831692606083013592608081013582169260a08201359092169181019060e0810160c0820135600160201b8111156101e857600080fd5b8201836020820111156101fa57600080fd5b803590602001918460018302840111600160201b8311171561021b57600080fd5b9193509150356107ad565b60408051918252519081900360200190f35b34801561024457600080fd5b5061026b6004803603602081101561025b57600080fd5b50356001600160a01b0316610c1a565b604080519115158252519081900360200190f35b34801561028b57600080fd5b5061030a600480360360408110156102a257600080fd5b6001600160a01b038235169190810190604081016020820135600160201b8111156102cc57600080fd5b8201836020820111156102de57600080fd5b803590602001918460208302840111600160201b831117156102ff57600080fd5b509092509050610c38565b005b34801561031857600080fd5b50610164610e1e565b606060007f000000000000000000000000000000000000000000000000000000000000000090506060816001600160a01b031663a9f3b42f856040518263ffffffff1660e01b815260040180826001600160a01b0316815260200191505060006040518083038186803b15801561039757600080fd5b505afa1580156103ab573d6000803e3d6000fd5b505050506040513d6000823e601f3d908101601f1916820160405260208110156103d457600080fd5b8101908080516040519392919084600160201b8211156103f357600080fd5b90830190602082018581111561040857600080fd5b82518660208202830111600160201b8211171561042457600080fd5b82525081516020918201928201910280838360005b83811015610451578181015183820152602001610439565b50505050905001604052505050905060006060825167ffffffffffffffff8111801561047c57600080fd5b506040519080825280602002602001820160405280156104a6578160200160208202803683370190505b50905060005b835181101561058957846001600160a01b031663ec7c39e98583815181106104d057fe5b602002602001015160006040518363ffffffff1660e01b815260040180836001600160a01b0316815260200182600581111561050857fe5b81526020019250505060206040518083038186803b15801561052957600080fd5b505afa15801561053d573d6000803e3d6000fd5b505050506040513d602081101561055357600080fd5b505115610581578280600101935050600182828151811061057057fe5b911515602092830291909101909101525b6001016104ac565b50816105aa5750506040805160008152602081019091529250610662915050565b8167ffffffffffffffff811180156105c157600080fd5b506040519080825280602002602001820160405280156105eb578160200160208202803683370190505b5094506000805b845181101561065b5782818151811061060757fe5b6020026020010151156106535784818151811061062057fe5b602002602001015187838151811061063457fe5b6001600160a01b03909216602092830291909101909101526001909101905b6001016105f2565b5050505050505b919050565b604080516339bf70d160e01b81526001600160a01b037f00000000000000000000000000000000000000000000000000000000000000008116600483015260006024830181905260606044840152606483018190529251839285928316916339bf70d19160a480820192879290919082900301818387803b1580156106eb57600080fd5b505af11580156106ff573d6000803e3d6000fd5b50505050806001600160a01b031663b417061260006040518263ffffffff1660e01b81526004018082151581526020019150506040805180830381600087803b15801561074b57600080fd5b505af115801561075f573d6000803e3d6000fd5b505050506040513d604081101561077557600080fd5b508051602090910151909350915050915091565b7f000000000000000000000000000000000000000000000000000000000000000090565b60007f00000000000000000000000000000000000000000000000000000000000000006001600160a01b031663d0e30db0346040518263ffffffff1660e01b81526004016000604051808303818588803b15801561080a57600080fd5b505af115801561081e573d6000803e3d6000fd5b50505050507f00000000000000000000000000000000000000000000000000000000000000006001600160a01b0316896001600160a01b03161415610879576108668a610e42565b6108728a89348a610eac565b9050610c0d565b61088285610e42565b60006060876001600160a01b03168686604051808383808284376040519201945060009350909150508083038183865af19150503d80600081146108e2576040519150601f19603f3d011682016040523d82523d6000602084013e6108e7565b606091505b50915091508181906109775760405162461bcd60e51b81526004018080602001828103825283818151815260200191508051906020019080838360005b8381101561093c578181015183820152602001610924565b50505050905090810190601f1680156109695780820380516001836020036101000a031916815260200191505b509250505060405180910390fd5b5060008b6001600160a01b03166370a08231306040518263ffffffff1660e01b815260040180826001600160a01b0316815260200191505060206040518083038186803b1580156109c757600080fd5b505afa1580156109db573d6000803e3d6000fd5b505050506040513d60208110156109f157600080fd5b5051905084811015610a345760405162461bcd60e51b81526004018080602001828103825260328152602001806115d06032913960400191505060405180910390fd5b610a3f8c8e8361116c565b610a4b8d8c838d610eac565b935060007f00000000000000000000000000000000000000000000000000000000000000006001600160a01b03166370a08231306040518263ffffffff1660e01b815260040180826001600160a01b0316815260200191505060206040518083038186803b158015610abc57600080fd5b505afa158015610ad0573d6000803e3d6000fd5b505050506040513d6020811015610ae657600080fd5b505190508015610c08577f00000000000000000000000000000000000000000000000000000000000000006001600160a01b0316632e1a7d4d826040518263ffffffff1660e01b815260040180828152602001915050600060405180830381600087803b158015610b5657600080fd5b505af1158015610b6a573d6000803e3d6000fd5b5050604051339250839150600081818185875af1925050503d8060008114610bae576040519150601f19603f3d011682016040523d82523d6000602084013e610bb3565b606091505b5090945092508284610c065760405162461bcd60e51b815260206004820181815283516024840152835190928392604490910191908501908083836000831561093c578181015183820152602001610924565b505b505050505b9998505050505050505050565b6001600160a01b031660009081526020819052604090205460ff1690565b604080516339bf70d160e01b81526001600160a01b037f000000000000000000000000000000000000000000000000000000000000000081166004830152600060248301819052606060448401526064830181905292518693918416926339bf70d19260a480830193919282900301818387803b158015610cb857600080fd5b505af1158015610ccc573d6000803e3d6000fd5b50505050806001600160a01b03166339bf70d17f00000000000000000000000000000000000000000000000000000000000000006001868660405160200180806020018281038252848482818152602001925060200280828437600081840152601f19601f82011690508083019250505093505050506040516020818303038152906040526040518463ffffffff1660e01b815260040180846001600160a01b0316815260200183815260200180602001828103825283818151815260200191508051906020019080838360005b83811015610db2578181015183820152602001610d9a565b50505050905090810190601f168015610ddf5780820380516001836020036101000a031916815260200191505b50945050505050600060405180830381600087803b158015610e0057600080fd5b505af1158015610e14573d6000803e3d6000fd5b5050505050505050565b7f000000000000000000000000000000000000000000000000000000000000000090565b610e4b81610c1a565b610ea957610e856001600160a01b037f00000000000000000000000000000000000000000000000000000000000000001682600019611209565b6001600160a01b0381166000908152602081905260409020805460ff191660011790555b50565b60408051600180825281830190925260009160609190602080830190803683370190505090508481600081518110610ee057fe5b6001600160a01b0392909216602092830291909101909101526040805160018082528183019092526060918160200160208202803683370190505090508481600081518110610f2b57fe5b60209081029190910101526040805160018082528183019092526060918160200160208202803683370190505090508481600081518110610f6857fe5b602002602001018181525050876001600160a01b031663f9f585dd8484846040518463ffffffff1660e01b815260040180806020018060200180602001848103845287818151815260200191508051906020019060200280838360005b83811015610fdd578181015183820152602001610fc5565b50505050905001848103835286818151815260200191508051906020019060200280838360005b8381101561101c578181015183820152602001611004565b50505050905001848103825285818151815260200191508051906020019060200280838360005b8381101561105b578181015183820152602001611043565b505050509050019650505050505050600060405180830381600087803b15801561108457600080fd5b505af1158015611098573d6000803e3d6000fd5b505050506040513d6000823e601f3d908101601f1916820160405260208110156110c157600080fd5b8101908080516040519392919084600160201b8211156110e057600080fd5b9083019060208201858111156110f557600080fd5b82518660208202830111600160201b8211171561111157600080fd5b82525081516020918201928201910280838360005b8381101561113e578181015183820152602001611126565b5050505090500160405250505060008151811061115757fe5b60200260200101519350505050949350505050565b60408051636eb1769f60e11b81523060048201526001600160a01b0384811660248301529151839286169163dd62ed3e916044808301926020929190829003018186803b1580156111bc57600080fd5b505afa1580156111d0573d6000803e3d6000fd5b505050506040513d60208110156111e657600080fd5b50511015611204576112046001600160a01b03841683600019611209565b505050565b80158061128f575060408051636eb1769f60e11b81523060048201526001600160a01b03848116602483015291519185169163dd62ed3e91604480820192602092909190829003018186803b15801561126157600080fd5b505afa158015611275573d6000803e3d6000fd5b505050506040513d602081101561128b57600080fd5b5051155b6112ca5760405162461bcd60e51b815260040180806020018281038252603681526020018061162c6036913960400191505060405180910390fd5b604080516001600160a01b038416602482015260448082018490528251808303909101815260649091019091526020810180516001600160e01b031663095ea7b360e01b179052611204908490606061136c826040518060400160405280602081526020017f5361666545524332303a206c6f772d6c6576656c2063616c6c206661696c6564815250856001600160a01b03166113c89092919063ffffffff16565b8051909150156112045780806020019051602081101561138b57600080fd5b50516112045760405162461bcd60e51b815260040180806020018281038252602a815260200180611602602a913960400191505060405180910390fd5b60606113d784846000856113e1565b90505b9392505050565b6060824710156114225760405162461bcd60e51b81526004018080602001828103825260268152602001806115aa6026913960400191505060405180910390fd5b61142b8561153d565b61147c576040805162461bcd60e51b815260206004820152601d60248201527f416464726573733a2063616c6c20746f206e6f6e2d636f6e7472616374000000604482015290519081900360640190fd5b60006060866001600160a01b031685876040518082805190602001908083835b602083106114bb5780518252601f19909201916020918201910161149c565b6001836020036101000a03801982511681845116808217855250505050505090500191505060006040518083038185875af1925050503d806000811461151d576040519150601f19603f3d011682016040523d82523d6000602084013e611522565b606091505b5091509150611532828286611543565b979650505050505050565b3b151590565b606083156115525750816113da565b8251156115625782518084602001fd5b60405162461bcd60e51b815260206004820181815284516024840152845185939192839260440191908501908083836000831561093c57818101518382015260200161092456fe416464726573733a20696e73756666696369656e742062616c616e636520666f722063616c6c65786368616e6765416e644275795368617265733a205f6d696e496e766573746d656e74416d6f756e74206e6f74206d65745361666545524332303a204552433230206f7065726174696f6e20646964206e6f7420737563636565645361666545524332303a20617070726f76652066726f6d206e6f6e2d7a65726f20746f206e6f6e2d7a65726f20616c6c6f77616e6365a264697066735822122035d5d8990a80ed82fe3b6437f4aae53b25e6df86ea8bb656f644d8f3cd80027264736f6c634300060c0033",
  "devdoc": {
    "author": "Enzyme Council <security@enzyme.finance>",
    "kind": "dev",
    "methods": {
      "accountHasMaxWethAllowance(address)": {
        "params": {
          "_who": "The account to check"
        },
        "returns": {
          "hasMaxWethAllowance_": "True if the account has the max allowance"
        }
      },
      "calcNetShareValueForFund(address)": {
        "details": "Accounts for fees outstanding. This is a convenience function for external consumption that can be used to determine the cost of purchasing shares at any given point in time. It essentially just bundles settling all fees that implement the Continuous hook and then looking up the gross share value.",
        "params": {
          "_comptrollerProxy": "The ComptrollerProxy of the fund"
        },
        "returns": {
          "isValid_": "True if the conversion rates to derive the value are all valid",
          "netShareValue_": "The amount of the denomination asset per share"
        }
      },
      "exchangeAndBuyShares(address,address,address,uint256,address,address,bytes,uint256)": {
        "details": "Use a reasonable _minInvestmentAmount always, in case the exchange does not perform as expected (low incoming asset amount, blend of assets, etc). If the fund's denomination asset is WETH, _exchange, _exchangeApproveTarget, _exchangeData, and _minInvestmentAmount will be ignored.",
        "params": {
          "_buyer": "The account for which to buy shares",
          "_comptrollerProxy": "The ComptrollerProxy of the fund",
          "_exchange": "The exchange on which to execute the swap to the denomination asset",
          "_exchangeApproveTarget": "The address that should be given an allowance of WETH for the given _exchange",
          "_exchangeData": "The data with which to call the exchange to execute the swap to the denomination asset",
          "_minInvestmentAmount": "The minimum amount of the denomination asset to receive in the trade for investment (not necessary for WETH)",
          "_minSharesQuantity": "The minimum quantity of shares to buy with the sent ETH"
        },
        "returns": {
          "sharesReceivedAmount_": "The actual amount of shares received"
        }
      },
      "getContinuousFeesForFund(address)": {
        "params": {
          "_comptrollerProxy": "The ComptrollerProxy of the fund"
        },
        "returns": {
          "continuousFees_": "The fees that implement the `Continuous` fee hook"
        }
      },
      "getFeeManager()": {
        "returns": {
          "feeManager_": "The `FEE_MANAGER` variable value"
        }
      },
      "getWethToken()": {
        "returns": {
          "wethToken_": "The `WETH_TOKEN` variable value"
        }
      },
      "invokeContinuousFeeHookAndPayoutSharesOutstandingForFund(address,address[])": {
        "details": "This is just a wrapper to execute two callOnExtension() actions atomically, in sequence. The caller must pass in the fees that they want to run this logic on.",
        "params": {
          "_comptrollerProxy": "The ComptrollerProxy of the fund",
          "_fees": "The fees for which to run these actions"
        }
      }
    },
    "title": "FundActionsWrapper Contract",
    "version": 1
  },
  "userdoc": {
    "kind": "user",
    "methods": {
      "accountHasMaxWethAllowance(address)": {
        "notice": "Checks whether an account has the max allowance for WETH"
      },
      "calcNetShareValueForFund(address)": {
        "notice": "Calculates the net value of 1 unit of shares in the fund's denomination asset"
      },
      "exchangeAndBuyShares(address,address,address,uint256,address,address,bytes,uint256)": {
        "notice": "Exchanges ETH into a fund's denomination asset and then buys shares"
      },
      "getContinuousFeesForFund(address)": {
        "notice": "Gets all fees that implement the `Continuous` fee hook for a fund"
      },
      "getFeeManager()": {
        "notice": "Gets the `FEE_MANAGER` variable"
      },
      "getWethToken()": {
        "notice": "Gets the `WETH_TOKEN` variable"
      },
      "invokeContinuousFeeHookAndPayoutSharesOutstandingForFund(address,address[])": {
        "notice": "Invokes the Continuous fee hook on all specified fees, and then attempts to payout any shares outstanding on those fees"
      }
    },
    "notice": "Logic related to wrapping fund actions, not necessary in the core protocol",
    "version": 1
  },
  "storageLayout": {
    "storage": [
      {
        "astId": 44632,
        "contract": "contracts/release/peripheral/FundActionsWrapper.sol:FundActionsWrapper",
        "label": "accountToHasMaxWethAllowance",
        "offset": 0,
        "slot": "0",
        "type": "t_mapping(t_address,t_bool)"
      }
    ],
    "types": {
      "t_address": {
        "encoding": "inplace",
        "label": "address",
        "numberOfBytes": "20"
      },
      "t_bool": {
        "encoding": "inplace",
        "label": "bool",
        "numberOfBytes": "1"
      },
      "t_mapping(t_address,t_bool)": {
        "encoding": "mapping",
        "key": "t_address",
        "label": "mapping(address => bool)",
        "numberOfBytes": "32",
        "value": "t_bool"
      }
    }
  }
}