{
  "address": "0xFB7a74E241e2F912aC3ce316eeD2846848B52e4f",
  "abi": [
    {
      "inputs": [
        {
          "internalType": "address",
          "name": "_fundDeployer",
          "type": "address"
        },
        {
          "internalType": "address",
          "name": "_derivativePriceFeed",
          "type": "address"
        },
        {
          "internalType": "address",
          "name": "_primitivePriceFeed",
          "type": "address"
        },
        {
          "internalType": "address",
          "name": "_valueInterpreter",
          "type": "address"
        },
        {
          "internalType": "address",
          "name": "_factory",
          "type": "address"
        },
        {
          "internalType": "address[]",
          "name": "_poolTokens",
          "type": "address[]"
        }
      ],
      "stateMutability": "nonpayable",
      "type": "constructor"
    },
    {
      "anonymous": false,
      "inputs": [
        {
          "indexed": true,
          "internalType": "address",
          "name": "poolToken",
          "type": "address"
        },
        {
          "indexed": false,
          "internalType": "address",
          "name": "token0",
          "type": "address"
        },
        {
          "indexed": false,
          "internalType": "address",
          "name": "token1",
          "type": "address"
        }
      ],
      "name": "PoolTokenAdded",
      "type": "event"
    },
    {
      "inputs": [
        {
          "internalType": "address[]",
          "name": "_poolTokens",
          "type": "address[]"
        }
      ],
      "name": "addPoolTokens",
      "outputs": [],
      "stateMutability": "nonpayable",
      "type": "function"
    },
    {
      "inputs": [
        {
          "internalType": "address",
          "name": "_derivative",
          "type": "address"
        },
        {
          "internalType": "uint256",
          "name": "_derivativeAmount",
          "type": "uint256"
        }
      ],
      "name": "calcUnderlyingValues",
      "outputs": [
        {
          "internalType": "address[]",
          "name": "underlyings_",
          "type": "address[]"
        },
        {
          "internalType": "uint256[]",
          "name": "underlyingAmounts_",
          "type": "uint256[]"
        }
      ],
      "stateMutability": "nonpayable",
      "type": "function"
    },
    {
      "inputs": [],
      "name": "getDerivativePriceFeed",
      "outputs": [
        {
          "internalType": "address",
          "name": "derivativePriceFeed_",
          "type": "address"
        }
      ],
      "stateMutability": "view",
      "type": "function"
    },
    {
      "inputs": [],
      "name": "getFactory",
      "outputs": [
        {
          "internalType": "address",
          "name": "factory_",
          "type": "address"
        }
      ],
      "stateMutability": "view",
      "type": "function"
    },
    {
      "inputs": [],
      "name": "getFundDeployer",
      "outputs": [
        {
          "internalType": "address",
          "name": "fundDeployer_",
          "type": "address"
        }
      ],
      "stateMutability": "view",
      "type": "function"
    },
    {
      "inputs": [],
      "name": "getOwner",
      "outputs": [
        {
          "internalType": "address",
          "name": "owner_",
          "type": "address"
        }
      ],
      "stateMutability": "view",
      "type": "function"
    },
    {
      "inputs": [
        {
          "internalType": "address",
          "name": "_poolToken",
          "type": "address"
        }
      ],
      "name": "getPoolTokenInfo",
      "outputs": [
        {
          "components": [
            {
              "internalType": "address",
              "name": "token0",
              "type": "address"
            },
            {
              "internalType": "address",
              "name": "token1",
              "type": "address"
            },
            {
              "internalType": "uint8",
              "name": "token0Decimals",
              "type": "uint8"
            },
            {
              "internalType": "uint8",
              "name": "token1Decimals",
              "type": "uint8"
            }
          ],
          "internalType": "struct UniswapV2PoolPriceFeed.PoolTokenInfo",
          "name": "poolTokenInfo_",
          "type": "tuple"
        }
      ],
      "stateMutability": "view",
      "type": "function"
    },
    {
      "inputs": [
        {
          "internalType": "address",
          "name": "_poolToken",
          "type": "address"
        }
      ],
      "name": "getPoolTokenUnderlyings",
      "outputs": [
        {
          "internalType": "address",
          "name": "token0_",
          "type": "address"
        },
        {
          "internalType": "address",
          "name": "token1_",
          "type": "address"
        }
      ],
      "stateMutability": "view",
      "type": "function"
    },
    {
      "inputs": [],
      "name": "getPrimitivePriceFeed",
      "outputs": [
        {
          "internalType": "address",
          "name": "primitivePriceFeed_",
          "type": "address"
        }
      ],
      "stateMutability": "view",
      "type": "function"
    },
    {
      "inputs": [],
      "name": "getValueInterpreter",
      "outputs": [
        {
          "internalType": "address",
          "name": "valueInterpreter_",
          "type": "address"
        }
      ],
      "stateMutability": "view",
      "type": "function"
    },
    {
      "inputs": [
        {
          "internalType": "address",
          "name": "_asset",
          "type": "address"
        }
      ],
      "name": "isSupportedAsset",
      "outputs": [
        {
          "internalType": "bool",
          "name": "isSupported_",
          "type": "bool"
        }
      ],
      "stateMutability": "view",
      "type": "function"
    }
  ],
  "transactionHash": "0x918c9626c97918f2de86b2cc8bfbeff02b3a55e5d6195598b6f294de1a44d698",
  "args": [
    "0x2242500548Cb2818c242C87FE956106d5Ebb6874",
    "0x172cCea04A1FDe352FDC68f429AddF982AA41104",
    "0xf0C09B3c132bf813F4997D35e648d2241A27A05A",
    "0x15E8C436E7Ea6a3ea7AAEFE84993D3eb1895A713",
    "0xcA143Ce32Fe78f1f7019d7d551a6402fC5350c73",
    [
      "0x168b273278f3a8d302de5e879aa30690b7e6c28f",
      "0x2354ef4df11afacb85a5c7f98b624072eccddbb1",
      "0x7efaef62fddcca950418312c6c91aef321375a00",
      "0xadbba1ef326a33fdb754f14e62a96d5278b942bd",
      "0xf6f5ce9a91dd4fae2d2ed92e25f2a4dc8564f174",
      "0xc7c3ccce4fa25700fd5574da7e200ae28bbd36a3",
      "0x824eb9faDFb377394430d2744fa7C42916DE3eCe",
      "0x7fbd09099838dd0b70068f07a9021d69d9b4813a",
      "0xd8e2f8b6db204c405543953ef6359912fe3a88d6",
      "0x014608E87AF97a054C9a49f81E1473076D51d9a3",
      "0xEc6557348085Aa57C72514D67070dC863C0a5A8c",
      "0xd99c7f6c65857ac913a8f880a4cb84032ab2fc5b",
      "0x16b9a82891338f9ba80e2d6970fdda79d1eb0dae"
    ]
  ],
  "solcInputHash": "d9ca3c6c6b3274b287f1d69a6e9ab10d",
  "bytecode": "0x6101206040523480156200001257600080fd5b506040516200287a3803806200287a83398101604081905262000035916200085d565b6001600160601b0319606087811b821660805286811b821660a05283811b821660c05285811b821660e05284901b16610100526200007581868662000081565b50505050505062000b39565b60005b8351811015620004a15760006001600160a01b0316848281518110620000a657fe5b60200260200101516001600160a01b03161415620000e15760405162461bcd60e51b8152600401620000d89062000a70565b60405180910390fd5b60006001600160a01b0316600080868481518110620000fc57fe5b6020908102919091018101516001600160a01b03908116835290820192909252604001600020541614620001445760405162461bcd60e51b8152600401620000d89062000a5e565b60008482815181106200015357fe5b602002602001015190506000816001600160a01b0316630dfe16816040518163ffffffff1660e01b815260040160206040518083038186803b1580156200019957600080fd5b505afa158015620001ae573d6000803e3d6000fd5b505050506040513d601f19601f82011682018060405250810190620001d491906200083c565b90506000826001600160a01b031663d21220a76040518163ffffffff1660e01b815260040160206040518083038186803b1580156200021257600080fd5b505afa15801562000227573d6000803e3d6000fd5b505050506040513d601f19601f820116820180604052508101906200024d91906200083c565b90506200025d86868484620004a7565b6200027c5760405162461bcd60e51b8152600401620000d89062000a82565b6040518060800160405280836001600160a01b03168152602001826001600160a01b03168152602001836001600160a01b031663313ce5676040518163ffffffff1660e01b815260040160206040518083038186803b158015620002df57600080fd5b505afa158015620002f4573d6000803e3d6000fd5b505050506040513d601f19601f820116820180604052508101906200031a91906200092a565b60ff168152602001826001600160a01b031663313ce5676040518163ffffffff1660e01b815260040160206040518083038186803b1580156200035c57600080fd5b505afa15801562000371573d6000803e3d6000fd5b505050506040513d601f19601f820116820180604052508101906200039791906200092a565b60ff16815250600080898781518110620003ad57fe5b6020908102919091018101516001600160a01b039081168352828201939093526040918201600020845181546001600160a01b03199081169186169190911782559185015160019091018054938601516060909601519390921693169290921760ff60a01b1916600160a01b60ff948516021760ff60a81b1916600160a81b939091169290920291909117905586518790859081106200044957fe5b60200260200101516001600160a01b03167f2d64d749034284f79591001c60e51eeab7a396decc5296df21e417306e9d92bf83836040516200048d92919062000a38565b60405180910390a250505060010162000084565b50505050565b604051634df48c7360e11b8152600090859085906001600160a01b03821690639be918e690620004dc90889060040162000a28565b60206040518083038186803b158015620004f557600080fd5b505afa1580156200050a573d6000803e3d6000fd5b505050506040513d601f19601f8201168201806040525081019062000530919062000909565b156200065957604051634df48c7360e11b81526001600160a01b03821690639be918e6906200056490879060040162000a28565b60206040518083038186803b1580156200057d57600080fd5b505afa15801562000592573d6000803e3d6000fd5b505050506040513d601f19601f82011682018060405250810190620005b8919062000909565b80620006415750604051634df48c7360e11b81526001600160a01b03831690639be918e690620005ed90879060040162000a28565b60206040518083038186803b1580156200060657600080fd5b505afa1580156200061b573d6000803e3d6000fd5b505050506040513d601f19601f8201168201806040525081019062000641919062000909565b1562000653576001925050506200077e565b62000777565b604051634df48c7360e11b81526001600160a01b03831690639be918e6906200068790889060040162000a28565b60206040518083038186803b158015620006a057600080fd5b505afa158015620006b5573d6000803e3d6000fd5b505050506040513d601f19601f82011682018060405250810190620006db919062000909565b8015620007655750604051634df48c7360e11b81526001600160a01b03821690639be918e6906200071190879060040162000a28565b60206040518083038186803b1580156200072a57600080fd5b505afa1580156200073f573d6000803e3d6000fd5b505050506040513d601f19601f8201168201806040525081019062000765919062000909565b1562000777576001925050506200077e565b6000925050505b949350505050565b8051620007938162000b09565b92915050565b600082601f830112620007ab57600080fd5b8151620007c2620007bc8262000abb565b62000a94565b91508181835260208401935060208101905083856020840282011115620007e857600080fd5b60005b8381101562000818578162000801888262000786565b8452506020928301929190910190600101620007eb565b5050505092915050565b8051620007938162000b23565b8051620007938162000b2e565b6000602082840312156200084f57600080fd5b60006200077e848462000786565b60008060008060008060c087890312156200087757600080fd5b600062000885898962000786565b96505060206200089889828a0162000786565b9550506040620008ab89828a0162000786565b9450506060620008be89828a0162000786565b9350506080620008d189828a0162000786565b92505060a08701516001600160401b03811115620008ee57600080fd5b620008fc89828a0162000799565b9150509295509295509295565b6000602082840312156200091c57600080fd5b60006200077e848462000822565b6000602082840312156200093d57600080fd5b60006200077e84846200082f565b620009568162000ae5565b82525050565b60006200096b60228362000adc565b7f5f5f616464506f6f6c546f6b656e733a2056616c756520616c72656164792073815261195d60f21b602082015260400192915050565b6000620009b160208362000adc565b7f5f5f616464506f6f6c546f6b656e733a20456d70747920706f6f6c546f6b656e815260200192915050565b6000620009ec60278362000adc565b7f5f5f616464506f6f6c546f6b656e733a20556e737570706f7274656420706f6f81526636103a37b5b2b760c91b602082015260400192915050565b602081016200079382846200094b565b6040810162000a4882856200094b565b62000a5760208301846200094b565b9392505050565b6020808252810162000793816200095c565b602080825281016200079381620009a2565b602080825281016200079381620009dd565b6040518181016001600160401b038111828210171562000ab357600080fd5b604052919050565b60006001600160401b0382111562000ad257600080fd5b5060209081020190565b90815260200190565b6000620007938262000af7565b151590565b6001600160a01b031690565b60ff1690565b62000b148162000ae5565b811462000b2057600080fd5b50565b62000b148162000af2565b62000b148162000b03565b60805160601c60a05160601c60c05160601c60e05160601c6101005160601c611ccf62000bab6000398061051e5280610afd5280610baf52508061028f52806102bd5280610a4052508061045d52806105425250806101b7528061026c52508061056852806105fe5250611ccf6000f3fe608060405234801561001057600080fd5b50600436106100a95760003560e01c8063727212f611610071578063727212f61461012a578063875fb4b31461014b57806388cc58e414610153578063893d20e81461015b57806397c0ac87146101635780639be918e61461016b576100a9565b806301b453e5146100ae5780632d98a99b146100d857806332db4ed5146100ed57806349be72f31461010257806367e0e0761461010a575b600080fd5b6100c16100bc366004611575565b61018b565b6040516100cf929190611ae4565b60405180910390f35b6100e06101b5565b6040516100cf9190611ad6565b6101006100fb3660046115eb565b6101d9565b005b6100e06102bb565b61011d610118366004611575565b6102df565b6040516100cf9190611bfa565b61013d6101383660046115b1565b610347565b6040516100cf929190611b27565b6100e061051c565b6100e0610540565b6100e0610564565b6100e06105fc565b61017e610179366004611575565b610620565b6040516100cf9190611b4c565b6001600160a01b039081166000908152602081905260409020805460019091015490821692911690565b7f000000000000000000000000000000000000000000000000000000000000000090565b6101e1610564565b6001600160a01b0316336001600160a01b03161461021a5760405162461bcd60e51b815260040161021190611b6a565b60405180910390fd5b806102375760405162461bcd60e51b815260040161021190611bca565b6102b78282808060200260200160405190810160405280939291908181526020018383602002808284376000920191909152507f000000000000000000000000000000000000000000000000000000000000000092507f000000000000000000000000000000000000000000000000000000000000000091506106409050565b5050565b7f000000000000000000000000000000000000000000000000000000000000000090565b6102e76114b4565b506001600160a01b038082166000908152602081815260409182902082516080810184528154851681526001909101549384169181019190915260ff600160a01b8404811692820192909252600160a81b9092041660608201525b919050565b6060806103526114b4565b506001600160a01b038481166000908152602081815260409182902082516080810184528154851681526001909101549384168183015260ff600160a01b8504811682850152600160a81b909404909316606080850191909152825160028082529181018452929091830190803683370190505092508060000151836000815181106103da57fe5b60200260200101906001600160a01b031690816001600160a01b03168152505080602001518360018151811061040c57fe5b60200260200101906001600160a01b031690816001600160a01b03168152505060008061045183600001518460200151856040015160ff16866060015160ff16610a39565b915091506000806104847f00000000000000000000000000000000000000000000000000000000000000008a8686610c67565b604080516002808252606082019092529294509092508160200160208202803683370190505095506104c8670de0b6b3a76400006104c28a85610c97565b90610cda565b866000815181106104d557fe5b60209081029190910101526104f6670de0b6b3a76400006104c28a84610c97565b8660018151811061050357fe5b60200260200101818152505050505050505b9250929050565b7f000000000000000000000000000000000000000000000000000000000000000090565b7f000000000000000000000000000000000000000000000000000000000000000090565b60007f00000000000000000000000000000000000000000000000000000000000000006001600160a01b031663893d20e86040518163ffffffff1660e01b815260040160206040518083038186803b1580156105bf57600080fd5b505afa1580156105d3573d6000803e3d6000fd5b505050506040513d601f19601f820116820180604052508101906105f79190611593565b905090565b7f000000000000000000000000000000000000000000000000000000000000000090565b6001600160a01b0390811660009081526020819052604090205416151590565b60005b8351811015610a335760006001600160a01b031684828151811061066357fe5b60200260200101516001600160a01b031614156106925760405162461bcd60e51b815260040161021190611bda565b60006001600160a01b03166000808684815181106106ac57fe5b6020908102919091018101516001600160a01b039081168352908201929092526040016000205416146106f15760405162461bcd60e51b815260040161021190611b5a565b60008482815181106106ff57fe5b602002602001015190506000816001600160a01b0316630dfe16816040518163ffffffff1660e01b815260040160206040518083038186803b15801561074457600080fd5b505afa158015610758573d6000803e3d6000fd5b505050506040513d601f19601f8201168201806040525081019061077c9190611593565b90506000826001600160a01b031663d21220a76040518163ffffffff1660e01b815260040160206040518083038186803b1580156107b957600080fd5b505afa1580156107cd573d6000803e3d6000fd5b505050506040513d601f19601f820116820180604052508101906107f19190611593565b90506107ff86868484610d0c565b61081b5760405162461bcd60e51b815260040161021190611bea565b6040518060800160405280836001600160a01b03168152602001826001600160a01b03168152602001836001600160a01b031663313ce5676040518163ffffffff1660e01b815260040160206040518083038186803b15801561087d57600080fd5b505afa158015610891573d6000803e3d6000fd5b505050506040513d601f19601f820116820180604052508101906108b591906116e6565b60ff168152602001826001600160a01b031663313ce5676040518163ffffffff1660e01b815260040160206040518083038186803b1580156108f657600080fd5b505afa15801561090a573d6000803e3d6000fd5b505050506040513d601f19601f8201168201806040525081019061092e91906116e6565b60ff1681525060008089878151811061094357fe5b6020908102919091018101516001600160a01b039081168352828201939093526040918201600020845181546001600160a01b03199081169186169190911782559185015160019091018054938601516060909601519390921693169290921760ff60a01b1916600160a01b60ff948516021760ff60a81b1916600160a81b939091169290920291909117905586518790859081106109de57fe5b60200260200101516001600160a01b03167f2d64d749034284f79591001c60e51eeab7a396decc5296df21e417306e9d92bf8383604051610a20929190611ae4565b60405180910390a2505050600101610643565b50505050565b60008060007f00000000000000000000000000000000000000000000000000000000000000006001600160a01b0316639be918e6886040518263ffffffff1660e01b8152600401610a8a9190611ad6565b60206040518083038186803b158015610aa257600080fd5b505afa158015610ab6573d6000803e3d6000fd5b505050506040513d601f19601f82011682018060405250810190610ada919061162d565b15610b9157604051632633f08360e11b8152600a85900a92506001600160a01b037f00000000000000000000000000000000000000000000000000000000000000001690634c67e10690610b3690899086908c90600401611aff565b6040805180830381600087803b158015610b4f57600080fd5b505af1158015610b63573d6000803e3d6000fd5b505050506040513d601f19601f82011682018060405250810190610b8791906116b6565b9093509050610c3f565b604051632633f08360e11b8152600a86900a93506001600160a01b037f00000000000000000000000000000000000000000000000000000000000000001690634c67e10690610be8908a9087908b90600401611aff565b6040805180830381600087803b158015610c0157600080fd5b505af1158015610c15573d6000803e3d6000fd5b505050506040513d601f19601f82011682018060405250810190610c3991906116b6565b90925090505b80610c5c5760405162461bcd60e51b815260040161021190611bba565b505b94509492505050565b600080600080610c78878787610fc5565b91509150610c88888884846110d4565b93509350505094509492505050565b600082610ca657506000610cd4565b82820282848281610cb357fe5b0414610cd15760405162461bcd60e51b815260040161021190611baa565b90505b92915050565b6000808211610cfb5760405162461bcd60e51b815260040161021190611b9a565b818381610d0457fe5b049392505050565b604051634df48c7360e11b8152600090859085906001600160a01b03821690639be918e690610d3f908890600401611ad6565b60206040518083038186803b158015610d5757600080fd5b505afa158015610d6b573d6000803e3d6000fd5b505050506040513d601f19601f82011682018060405250810190610d8f919061162d565b15610ea757604051634df48c7360e11b81526001600160a01b03821690639be918e690610dc0908790600401611ad6565b60206040518083038186803b158015610dd857600080fd5b505afa158015610dec573d6000803e3d6000fd5b505050506040513d601f19601f82011682018060405250810190610e10919061162d565b80610e925750604051634df48c7360e11b81526001600160a01b03831690639be918e690610e42908790600401611ad6565b60206040518083038186803b158015610e5a57600080fd5b505afa158015610e6e573d6000803e3d6000fd5b505050506040513d601f19601f82011682018060405250810190610e92919061162d565b15610ea257600192505050610fbd565b610fb6565b604051634df48c7360e11b81526001600160a01b03831690639be918e690610ed3908890600401611ad6565b60206040518083038186803b158015610eeb57600080fd5b505afa158015610eff573d6000803e3d6000fd5b505050506040513d601f19601f82011682018060405250810190610f23919061162d565b8015610fa65750604051634df48c7360e11b81526001600160a01b03821690639be918e690610f56908790600401611ad6565b60206040518083038186803b158015610f6e57600080fd5b505afa158015610f82573d6000803e3d6000fd5b505050506040513d601f19601f82011682018060405250810190610fa6919061162d565b15610fb657600192505050610fbd565b6000925050505b949350505050565b600080846001600160a01b0316630902f1ac6040518163ffffffff1660e01b815260040160606040518083038186803b15801561100157600080fd5b505afa158015611015573d6000803e3d6000fd5b505050506040513d601f19601f82011682018060405250810190611039919061164b565b506001600160701b03918216935016905060008061105986868686611301565b91509150806000141561106d5750506110cc565b81156110a05760006110808286866113cc565b905061108c8583611416565b9450611098848261143b565b9350506110c9565b60006110ad8285876113cc565b90506110b98483611416565b93506110c5858261143b565b9450505b50505b935093915050565b60008060008590506000816001600160a01b03166318160ddd6040518163ffffffff1660e01b815260040160206040518083038186803b15801561111757600080fd5b505afa15801561112b573d6000803e3d6000fd5b505050506040513d601f19601f8201168201806040525081019061114f9190611698565b905060006001600160a01b0316886001600160a01b031663017e7e586040518163ffffffff1660e01b815260040160206040518083038186803b15801561119557600080fd5b505afa1580156111a9573d6000803e3d6000fd5b505050506040513d601f19601f820116820180604052508101906111cd9190611593565b6001600160a01b0316146112d5576000826001600160a01b0316637464fc3d6040518163ffffffff1660e01b815260040160206040518083038186803b15801561121657600080fd5b505afa15801561122a573d6000803e3d6000fd5b505050506040513d601f19601f8201168201806040525081019061124e9190611698565b905080156112d357600061126a6112658989610c97565b611463565b9050600061127783611463565b9050808211156112d0576000611297611290848461143b565b8690610c97565b905060006112b0836112aa866005610c97565b90611416565b905060006112be8383610cda565b90506112ca8782611416565b96505050505b50505b505b6112eb816104c288670de0b6b3a7640000610c97565b610c88826104c288670de0b6b3a7640000610c97565b60008085611313846104c28789610c97565b109150600080831561136457611349611265611331896103e5610c97565b6104c26103e86113438d818d8d610c97565b90610c97565b915061135d6103e56104c2886103e8610c97565b905061139f565b6113886112656113768a6103e5610c97565b6104c26103e86113438c818d8d610c97565b915061139c6103e56104c2876103e8610c97565b90505b808210156113b557600080935093505050610c5e565b6113bf828261143b565b9250505094509492505050565b6000806113db856103e5610c97565b905060006113e98285610c97565b905060006113fd836112aa886103e8610c97565b90506114098282610cda565b93505050505b9392505050565b600082820183811015610cd15760405162461bcd60e51b815260040161021190611b7a565b60008282111561145d5760405162461bcd60e51b815260040161021190611b8a565b50900390565b600060038211156114a6575080600160028204015b818110156114a05780915060028182858161148f57fe5b04018161149857fe5b049050611478565b50610342565b811561034257506001919050565b60408051608081018252600080825260208201819052918101829052606081019190915290565b8035610cd481611c55565b8051610cd481611c55565b60008083601f84011261150357600080fd5b50813567ffffffffffffffff81111561151b57600080fd5b60208301915083602082028301111561051557600080fd5b8051610cd481611c6c565b8051610cd481611c75565b8035610cd481611c7e565b8051610cd481611c7e565b8051610cd481611c87565b8051610cd481611c90565b60006020828403121561158757600080fd5b6000610fbd84846114db565b6000602082840312156115a557600080fd5b6000610fbd84846114e6565b600080604083850312156115c457600080fd5b60006115d085856114db565b92505060206115e185828601611549565b9150509250929050565b600080602083850312156115fe57600080fd5b823567ffffffffffffffff81111561161557600080fd5b611621858286016114f1565b92509250509250929050565b60006020828403121561163f57600080fd5b6000610fbd8484611533565b60008060006060848603121561166057600080fd5b600061166c868661153e565b935050602061167d8682870161153e565b925050604061168e8682870161155f565b9150509250925092565b6000602082840312156116aa57600080fd5b6000610fbd8484611554565b600080604083850312156116c957600080fd5b60006116d58585611554565b92505060206115e185828601611533565b6000602082840312156116f857600080fd5b6000610fbd848461156a565b60006117108383611724565b505060200190565b60006117108383611ac4565b61172d81611c1b565b82525050565b600061173e82611c0e565b6117488185611c12565b935061175383611c08565b8060005b8381101561178157815161176b8882611704565b975061177683611c08565b925050600101611757565b509495945050505050565b600061179782611c0e565b6117a18185611c12565b93506117ac83611c08565b8060005b838110156117815781516117c48882611718565b97506117cf83611c08565b9250506001016117b0565b61172d81611c26565b60006117f0602283611c12565b7f5f5f616464506f6f6c546f6b656e733a2056616c756520616c72656164792073815261195d60f21b602082015260400192915050565b6000611834604983611c12565b7f6f6e6c7946756e644465706c6f7965724f776e65723a204f6e6c79207468652081527f46756e644465706c6f796572206f776e65722063616e2063616c6c207468697360208201526810333ab731ba34b7b760b91b604082015260600192915050565b60006118a5601b83611c12565b7f536166654d6174683a206164646974696f6e206f766572666c6f770000000000815260200192915050565b60006118de601e83611c12565b7f536166654d6174683a207375627472616374696f6e206f766572666c6f770000815260200192915050565b6000611917601a83611c12565b7f536166654d6174683a206469766973696f6e206279207a65726f000000000000815260200192915050565b6000611950602183611c12565b7f536166654d6174683a206d756c7469706c69636174696f6e206f766572666c6f8152607760f81b602082015260400192915050565b6000611993601f83611c12565b7f5f5f63616c6354727573746564526174653a20496e76616c6964207261746500815260200192915050565b60006119cc602083611c12565b7f616464506f6f6c546f6b656e733a20456d707479205f706f6f6c546f6b656e73815260200192915050565b6000611a05602083611c12565b7f5f5f616464506f6f6c546f6b656e733a20456d70747920706f6f6c546f6b656e815260200192915050565b6000611a3e602783611c12565b7f5f5f616464506f6f6c546f6b656e733a20556e737570706f7274656420706f6f81526636103a37b5b2b760c91b602082015260400192915050565b80516080830190611a8b8482611724565b506020820151611a9e6020850182611724565b506040820151611ab16040850182611acd565b506060820151610a336060850182611acd565b61172d81611c43565b61172d81611c4f565b60208101610cd48284611724565b60408101611af28285611724565b61140f6020830184611724565b60608101611b0d8286611724565b611b1a6020830185611ac4565b610fbd6040830184611724565b60408082528101611b388185611733565b90508181036020830152610fbd818461178c565b60208101610cd482846117da565b60208082528101610cd4816117e3565b60208082528101610cd481611827565b60208082528101610cd481611898565b60208082528101610cd4816118d1565b60208082528101610cd48161190a565b60208082528101610cd481611943565b60208082528101610cd481611986565b60208082528101610cd4816119bf565b60208082528101610cd4816119f8565b60208082528101610cd481611a31565b60808101610cd48284611a7a565b60200190565b5190565b90815260200190565b6000610cd482611c37565b151590565b6001600160701b031690565b6001600160a01b031690565b90565b63ffffffff1690565b60ff1690565b611c5e81611c1b565b8114611c6957600080fd5b50565b611c5e81611c26565b611c5e81611c2b565b611c5e81611c43565b611c5e81611c46565b611c5e81611c4f56fea26469706673582212202b700d6616b126d16d38f042fe9aecf23e83bb220c40b9c3c3c96df836b25f3d64736f6c634300060c0033",
  "devdoc": {
    "author": "Enzyme Council <security@enzyme.finance>",
    "kind": "dev",
    "methods": {
      "addPoolTokens(address[])": {
        "params": {
          "_poolTokens": "Uniswap pool tokens to add"
        }
      },
      "calcUnderlyingValues(address,uint256)": {
        "params": {
          "_derivative": "The derivative to convert",
          "_derivativeAmount": "The amount of the derivative to convert"
        },
        "returns": {
          "underlyingAmounts_": "The amount of each underlying asset for the equivalent derivative amount",
          "underlyings_": "The underlying assets for the _derivative"
        }
      },
      "getDerivativePriceFeed()": {
        "returns": {
          "derivativePriceFeed_": "The `DERIVATIVE_PRICE_FEED` variable value"
        }
      },
      "getFactory()": {
        "returns": {
          "factory_": "The `FACTORY` variable value"
        }
      },
      "getFundDeployer()": {
        "returns": {
          "fundDeployer_": "The `FUND_DEPLOYER` variable value"
        }
      },
      "getOwner()": {
        "details": "Ownership is deferred to the owner of the FundDeployer contract",
        "returns": {
          "owner_": "The owner"
        }
      },
      "getPoolTokenInfo(address)": {
        "params": {
          "_poolToken": "The pool token for which to get the `PoolTokenInfo`"
        },
        "returns": {
          "poolTokenInfo_": "The `PoolTokenInfo` value"
        }
      },
      "getPoolTokenUnderlyings(address)": {
        "params": {
          "_poolToken": "The pool token for which to get its underlyings"
        },
        "returns": {
          "token0_": "The UniswapV2Pair.token0 value",
          "token1_": "The UniswapV2Pair.token1 value"
        }
      },
      "getPrimitivePriceFeed()": {
        "returns": {
          "primitivePriceFeed_": "The `PRIMITIVE_PRICE_FEED` variable value"
        }
      },
      "getValueInterpreter()": {
        "returns": {
          "valueInterpreter_": "The `VALUE_INTERPRETER` variable value"
        }
      },
      "isSupportedAsset(address)": {
        "params": {
          "_asset": "The asset to check"
        },
        "returns": {
          "isSupported_": "True if the asset is supported"
        }
      }
    },
    "title": "UniswapV2PoolPriceFeed Contract",
    "version": 1
  },
  "userdoc": {
    "kind": "user",
    "methods": {
      "addPoolTokens(address[])": {
        "notice": "Adds Uniswap pool tokens to the price feed"
      },
      "calcUnderlyingValues(address,uint256)": {
        "notice": "Converts a given amount of a derivative to its underlying asset values"
      },
      "getDerivativePriceFeed()": {
        "notice": "Gets the `DERIVATIVE_PRICE_FEED` variable value"
      },
      "getFactory()": {
        "notice": "Gets the `FACTORY` variable value"
      },
      "getFundDeployer()": {
        "notice": "Gets the `FUND_DEPLOYER` variable"
      },
      "getOwner()": {
        "notice": "Gets the owner of this contract"
      },
      "getPoolTokenInfo(address)": {
        "notice": "Gets the `PoolTokenInfo` for a given pool token"
      },
      "getPoolTokenUnderlyings(address)": {
        "notice": "Gets the underlyings for a given pool token"
      },
      "getPrimitivePriceFeed()": {
        "notice": "Gets the `PRIMITIVE_PRICE_FEED` variable value"
      },
      "getValueInterpreter()": {
        "notice": "Gets the `VALUE_INTERPRETER` variable value"
      },
      "isSupportedAsset(address)": {
        "notice": "Checks if an asset is supported by the price feed"
      }
    },
    "notice": "Price feed for Uniswap lending pool tokens",
    "version": 1
  },
  "storageLayout": {
    "storage": [
      {
        "astId": 40082,
        "contract": "contracts/release/infrastructure/price-feeds/derivatives/feeds/UniswapV2PoolPriceFeed.sol:UniswapV2PoolPriceFeed",
        "label": "poolTokenToInfo",
        "offset": 0,
        "slot": "0",
        "type": "t_mapping(t_address,t_struct(PoolTokenInfo)40065_storage)"
      }
    ],
    "types": {
      "t_address": {
        "encoding": "inplace",
        "label": "address",
        "numberOfBytes": "20"
      },
      "t_mapping(t_address,t_struct(PoolTokenInfo)40065_storage)": {
        "encoding": "mapping",
        "key": "t_address",
        "label": "mapping(address => struct UniswapV2PoolPriceFeed.PoolTokenInfo)",
        "numberOfBytes": "32",
        "value": "t_struct(PoolTokenInfo)40065_storage"
      },
      "t_struct(PoolTokenInfo)40065_storage": {
        "encoding": "inplace",
        "label": "struct UniswapV2PoolPriceFeed.PoolTokenInfo",
        "members": [
          {
            "astId": 40058,
            "contract": "contracts/release/infrastructure/price-feeds/derivatives/feeds/UniswapV2PoolPriceFeed.sol:UniswapV2PoolPriceFeed",
            "label": "token0",
            "offset": 0,
            "slot": "0",
            "type": "t_address"
          },
          {
            "astId": 40060,
            "contract": "contracts/release/infrastructure/price-feeds/derivatives/feeds/UniswapV2PoolPriceFeed.sol:UniswapV2PoolPriceFeed",
            "label": "token1",
            "offset": 0,
            "slot": "1",
            "type": "t_address"
          },
          {
            "astId": 40062,
            "contract": "contracts/release/infrastructure/price-feeds/derivatives/feeds/UniswapV2PoolPriceFeed.sol:UniswapV2PoolPriceFeed",
            "label": "token0Decimals",
            "offset": 20,
            "slot": "1",
            "type": "t_uint8"
          },
          {
            "astId": 40064,
            "contract": "contracts/release/infrastructure/price-feeds/derivatives/feeds/UniswapV2PoolPriceFeed.sol:UniswapV2PoolPriceFeed",
            "label": "token1Decimals",
            "offset": 21,
            "slot": "1",
            "type": "t_uint8"
          }
        ],
        "numberOfBytes": "64"
      },
      "t_uint8": {
        "encoding": "inplace",
        "label": "uint8",
        "numberOfBytes": "1"
      }
    }
  }
}