{
  "address": "0xdc684787Cb903e8AfD4AB9683057387447021b93",
  "abi": [
    {
      "inputs": [
        {
          "internalType": "address",
          "name": "_integrationManager",
          "type": "address"
        },
        {
          "internalType": "address",
          "name": "_lendingPoolAddressProvider",
          "type": "address"
        },
        {
          "internalType": "address",
          "name": "_aavePriceFeed",
          "type": "address"
        }
      ],
      "stateMutability": "nonpayable",
      "type": "constructor"
    },
    {
      "inputs": [],
      "name": "ADD_TRACKED_ASSETS_SELECTOR",
      "outputs": [
        {
          "internalType": "bytes4",
          "name": "",
          "type": "bytes4"
        }
      ],
      "stateMutability": "view",
      "type": "function"
    },
    {
      "inputs": [],
      "name": "APPROVE_ASSETS_SELECTOR",
      "outputs": [
        {
          "internalType": "bytes4",
          "name": "",
          "type": "bytes4"
        }
      ],
      "stateMutability": "view",
      "type": "function"
    },
    {
      "inputs": [],
      "name": "CLAIM_REWARDS_AND_REINVEST_SELECTOR",
      "outputs": [
        {
          "internalType": "bytes4",
          "name": "",
          "type": "bytes4"
        }
      ],
      "stateMutability": "view",
      "type": "function"
    },
    {
      "inputs": [],
      "name": "CLAIM_REWARDS_AND_SWAP_SELECTOR",
      "outputs": [
        {
          "internalType": "bytes4",
          "name": "",
          "type": "bytes4"
        }
      ],
      "stateMutability": "view",
      "type": "function"
    },
    {
      "inputs": [],
      "name": "CLAIM_REWARDS_SELECTOR",
      "outputs": [
        {
          "internalType": "bytes4",
          "name": "",
          "type": "bytes4"
        }
      ],
      "stateMutability": "view",
      "type": "function"
    },
    {
      "inputs": [],
      "name": "LEND_AND_STAKE_SELECTOR",
      "outputs": [
        {
          "internalType": "bytes4",
          "name": "",
          "type": "bytes4"
        }
      ],
      "stateMutability": "view",
      "type": "function"
    },
    {
      "inputs": [],
      "name": "LEND_SELECTOR",
      "outputs": [
        {
          "internalType": "bytes4",
          "name": "",
          "type": "bytes4"
        }
      ],
      "stateMutability": "view",
      "type": "function"
    },
    {
      "inputs": [],
      "name": "REDEEM_SELECTOR",
      "outputs": [
        {
          "internalType": "bytes4",
          "name": "",
          "type": "bytes4"
        }
      ],
      "stateMutability": "view",
      "type": "function"
    },
    {
      "inputs": [],
      "name": "REMOVE_TRACKED_ASSETS_SELECTOR",
      "outputs": [
        {
          "internalType": "bytes4",
          "name": "",
          "type": "bytes4"
        }
      ],
      "stateMutability": "view",
      "type": "function"
    },
    {
      "inputs": [],
      "name": "STAKE_SELECTOR",
      "outputs": [
        {
          "internalType": "bytes4",
          "name": "",
          "type": "bytes4"
        }
      ],
      "stateMutability": "view",
      "type": "function"
    },
    {
      "inputs": [],
      "name": "TAKE_ORDER_SELECTOR",
      "outputs": [
        {
          "internalType": "bytes4",
          "name": "",
          "type": "bytes4"
        }
      ],
      "stateMutability": "view",
      "type": "function"
    },
    {
      "inputs": [],
      "name": "UNSTAKE_AND_REDEEM_SELECTOR",
      "outputs": [
        {
          "internalType": "bytes4",
          "name": "",
          "type": "bytes4"
        }
      ],
      "stateMutability": "view",
      "type": "function"
    },
    {
      "inputs": [],
      "name": "UNSTAKE_SELECTOR",
      "outputs": [
        {
          "internalType": "bytes4",
          "name": "",
          "type": "bytes4"
        }
      ],
      "stateMutability": "view",
      "type": "function"
    },
    {
      "inputs": [],
      "name": "getAavePriceFeed",
      "outputs": [
        {
          "internalType": "address",
          "name": "aavePriceFeed_",
          "type": "address"
        }
      ],
      "stateMutability": "view",
      "type": "function"
    },
    {
      "inputs": [],
      "name": "getIntegrationManager",
      "outputs": [
        {
          "internalType": "address",
          "name": "integrationManager_",
          "type": "address"
        }
      ],
      "stateMutability": "view",
      "type": "function"
    },
    {
      "inputs": [],
      "name": "getLendingPoolAddressProvider",
      "outputs": [
        {
          "internalType": "address",
          "name": "lendingPoolAddressProvider_",
          "type": "address"
        }
      ],
      "stateMutability": "view",
      "type": "function"
    },
    {
      "inputs": [],
      "name": "getReferralCode",
      "outputs": [
        {
          "internalType": "uint16",
          "name": "referralCode_",
          "type": "uint16"
        }
      ],
      "stateMutability": "pure",
      "type": "function"
    },
    {
      "inputs": [],
      "name": "identifier",
      "outputs": [
        {
          "internalType": "string",
          "name": "identifier_",
          "type": "string"
        }
      ],
      "stateMutability": "pure",
      "type": "function"
    },
    {
      "inputs": [
        {
          "internalType": "address",
          "name": "_vaultProxy",
          "type": "address"
        },
        {
          "internalType": "bytes",
          "name": "",
          "type": "bytes"
        },
        {
          "internalType": "bytes",
          "name": "_encodedAssetTransferArgs",
          "type": "bytes"
        }
      ],
      "name": "lend",
      "outputs": [],
      "stateMutability": "nonpayable",
      "type": "function"
    },
    {
      "inputs": [
        {
          "internalType": "bytes4",
          "name": "_selector",
          "type": "bytes4"
        },
        {
          "internalType": "bytes",
          "name": "_encodedCallArgs",
          "type": "bytes"
        }
      ],
      "name": "parseAssetsForMethod",
      "outputs": [
        {
          "internalType": "enum IIntegrationManager.SpendAssetsHandleType",
          "name": "spendAssetsHandleType_",
          "type": "uint8"
        },
        {
          "internalType": "address[]",
          "name": "spendAssets_",
          "type": "address[]"
        },
        {
          "internalType": "uint256[]",
          "name": "spendAssetAmounts_",
          "type": "uint256[]"
        },
        {
          "internalType": "address[]",
          "name": "incomingAssets_",
          "type": "address[]"
        },
        {
          "internalType": "uint256[]",
          "name": "minIncomingAssetAmounts_",
          "type": "uint256[]"
        }
      ],
      "stateMutability": "view",
      "type": "function"
    },
    {
      "inputs": [
        {
          "internalType": "address",
          "name": "_vaultProxy",
          "type": "address"
        },
        {
          "internalType": "bytes",
          "name": "",
          "type": "bytes"
        },
        {
          "internalType": "bytes",
          "name": "_encodedAssetTransferArgs",
          "type": "bytes"
        }
      ],
      "name": "redeem",
      "outputs": [],
      "stateMutability": "nonpayable",
      "type": "function"
    }
  ],
  "transactionHash": "0x7c32ba9e1837251f877f4794d09fe4dd7f8db4bddb5e0e7f717f5c3db958c353",
  "args": [
    "0x1274889924af224C68a08567F24cCcF23Dc94505",
    "0x0000000000000000000000000000000000000000",
    "0x9F38b0e14266F64E77E7f64BEA1e092Ff21a4C40"
  ],
  "linkedData": {
    "type": "ADAPTER"
  },
  "solcInputHash": "d126f4cb4e28eb2318e549d67a96b976",
  "bytecode": "0x60e060405234801561001057600080fd5b50604051611bc0380380611bc08339818101604052606081101561003357600080fd5b50805160208201516040909201516001600160601b0319606092831b811660805292821b831660c052901b1660a05260805160601c60a05160601c60c05160601c611b0b6100b5600039806106ba5280610f30528061118e5250806109755280610bc552806110da5250806106125280610e4d52806111465250611b0b6000f3fe608060405234801561001057600080fd5b50600436106101375760003560e01c80637ae68ada116100b8578063e27a06b51161007c578063e27a06b5146105b3578063e4d90478146105bb578063e7c45690146105c3578063f0753994146105cb578063f13fd783146105d3578063f7d882b5146105db57610137565b80637ae68ada14610492578063863e5ad0146104b1578063b23228cf146104b9578063c29fa9dd146104c1578063d4e5b16e1461058f57610137565b806340da225d116100ff57806340da225d1461024957806340f8cfcf146102515780635ca62b3c1461025957806376cc7ac6146102615780637998a1c41461041557610137565b8063080456c11461013c578063099f751514610161578063131461c014610231578063257cb1a3146102395780633ffc159114610241575b600080fd5b6101446105e3565b604080516001600160e01b03199092168252519081900360200190f35b61022f6004803603606081101561017757600080fd5b6001600160a01b038235169190810190604081016020820135600160201b8111156101a157600080fd5b8201836020820111156101b357600080fd5b803590602001918460018302840111600160201b831117156101d457600080fd5b919390929091602081019035600160201b8111156101f157600080fd5b82018360208201111561020357600080fd5b803590602001918460018302840111600160201b8311171561022457600080fd5b509092509050610607565b005b610144610833565b610144610857565b61014461087b565b61014461089f565b6101446108c3565b6101446108e7565b6102e06004803603604081101561027757600080fd5b6001600160e01b03198235169190810190604081016020820135600160201b8111156102a257600080fd5b8201836020820111156102b457600080fd5b803590602001918460018302840111600160201b831117156102d557600080fd5b50909250905061090b565b604051808660038111156102f057fe5b815260200180602001806020018060200180602001858103855289818151815260200191508051906020019060200280838360005b8381101561033d578181015183820152602001610325565b50505050905001858103845288818151815260200191508051906020019060200280838360005b8381101561037c578181015183820152602001610364565b50505050905001858103835287818151815260200191508051906020019060200280838360005b838110156103bb5781810151838201526020016103a3565b50505050905001858103825286818151815260200191508051906020019060200280838360005b838110156103fa5781810151838201526020016103e2565b50505050905001995050505050505050505060405180910390f35b61041d610dd7565b6040805160208082528351818301528351919283929083019185019080838360005b8381101561045757818101518382015260200161043f565b50505050905090810190601f1680156104845780820380516001836020036101000a031916815260200191505b509250505060405180910390f35b61049a610df5565b6040805161ffff9092168252519081900360200190f35b610144610dfa565b610144610e1e565b61022f600480360360608110156104d757600080fd5b6001600160a01b038235169190810190604081016020820135600160201b81111561050157600080fd5b82018360208201111561051357600080fd5b803590602001918460018302840111600160201b8311171561053457600080fd5b919390929091602081019035600160201b81111561055157600080fd5b82018360208201111561056357600080fd5b803590602001918460018302840111600160201b8311171561058457600080fd5b509092509050610e42565b6105976110d8565b604080516001600160a01b039092168252519081900360200190f35b6101446110fc565b610144611120565b610597611144565b610144611168565b61059761118c565b6101446111b0565b7f8334eb99be0145865eba9889fca2ee920288090caefff4cc776038e20ad9259a81565b336001600160a01b037f0000000000000000000000000000000000000000000000000000000000000000161461066e5760405162461bcd60e51b8152600401808060200182810382526032815260200180611a1c6032913960400191505060405180910390fd5b6060806106b084848080601f0160208091040260200160405190810160405280939291908181526020018383808284376000920191909152506111d492505050565b50925092505060007f00000000000000000000000000000000000000000000000000000000000000006001600160a01b0316630261bf8b6040518163ffffffff1660e01b815260040160206040518083038186803b15801561071157600080fd5b505afa158015610725573d6000803e3d6000fd5b505050506040513d602081101561073b57600080fd5b5051835190915061077490849060009061075157fe5b6020026020010151828460008151811061076757fe5b602002602001015161139c565b806001600160a01b031663e8eda9df8460008151811061079057fe5b6020026020010151846000815181106107a557fe5b60200260200101518b609e6040518563ffffffff1660e01b815260040180856001600160a01b03168152602001848152602001836001600160a01b031681526020018261ffff168152602001945050505050600060405180830381600087803b15801561081157600080fd5b505af1158015610825573d6000803e3d6000fd5b505050505050505050505050565b7f29fa046e79524c3c5ac4c01df692c35e217802b2b13b21121b76cf0ef02b138c81565b7f099f75155f0e997bf83a7993a71d5e7e7540bd386fe1e84643a09ce6b412521981565b7ffa7dd04da627f433da73c4355ead9c75682a67a8fc84d3f6170ef0922f402d2481565b7fb9dfbaccbe5cd2a84fdcf1d15f23ef25d23086f5afbaa99516065ed4a5bbc7a381565b7ff658eb804cc1da8af5599b584aaf3d55407a3c721c42641a6a5270e963d782c381565b7fdfd5ee0f6067928bf85a7c4430811282840bc99332dda3dab462c02bf95b67cc81565b600060608080806001600160e01b0319881663099f751560e01b1415610b625760008061096d89898080601f01602080910402602001604051908101604052809392919081815260200183838082843760009201919091525061143992505050565b9150915060007f00000000000000000000000000000000000000000000000000000000000000006001600160a01b03166366adb867846040518263ffffffff1660e01b815260040180826001600160a01b0316815260200191505060206040518083038186803b1580156109e057600080fd5b505afa1580156109f4573d6000803e3d6000fd5b505050506040513d6020811015610a0a57600080fd5b505190506001600160a01b038116610a535760405162461bcd60e51b8152600401808060200182810382526028815260200180611a4e6028913960400191505060405180910390fd5b60408051600180825281830190925290602080830190803683370190505096508087600081518110610a8157fe5b6001600160a01b03929092166020928302919091018201526040805160018082528183019092529182810190803683370190505095508186600081518110610ac557fe5b6020908102919091010152604080516001808252818301909252908160200160208202803683370190505094508285600081518110610b0057fe5b6001600160a01b0392909216602092830291909101820152604080516001808252818301909252918281019080368337019050509350610b41826002611464565b84600081518110610b4e57fe5b602002602001018181525050505050610dc8565b6001600160e01b0319881663c29fa9dd60e01b1415610d9157600080610bbd89898080601f01602080910402602001604051908101604052809392919081815260200183838082843760009201919091525061143992505050565b9150915060007f00000000000000000000000000000000000000000000000000000000000000006001600160a01b03166366adb867846040518263ffffffff1660e01b815260040180826001600160a01b0316815260200191505060206040518083038186803b158015610c3057600080fd5b505afa158015610c44573d6000803e3d6000fd5b505050506040513d6020811015610c5a57600080fd5b505190506001600160a01b038116610ca35760405162461bcd60e51b8152600401808060200182810382526028815260200180611a4e6028913960400191505060405180910390fd5b60408051600180825281830190925290602080830190803683370190505096508287600081518110610cd157fe5b6001600160a01b03929092166020928302919091018201526040805160018082528183019092529182810190803683370190505095508186600081518110610d1557fe5b6020908102919091010152604080516001808252818301909252908160200160208202803683370190505094508085600081518110610d5057fe5b6001600160a01b0392909216602092830291909101820152604080516001808252818301909252918281019080368337019050509350610b41826003611464565b60405162461bcd60e51b81526004018080602001828103825260278152602001806119cf6027913960400191505060405180910390fd5b60029450939792965093509350565b6040805180820190915260048152634141564560e01b602082015290565b609e90565b7f03e38a2bd7063d45c897edeafc330e71657502dd86434d3c37a489caf116af6981565b7f68e30677f607df46e87da13e15b637784cfa62374b653f35ab43d10361a2f83081565b336001600160a01b037f00000000000000000000000000000000000000000000000000000000000000001614610ea95760405162461bcd60e51b8152600401808060200182810382526032815260200180611a1c6032913960400191505060405180910390fd5b8482828080601f01602080910402602001604051908101604052809392919081815260200183838082843760009201919091525050604080516020601f8801819004810282018101909252868152606093508392508291610f25919089908990819084018382808284376000920191909152506111d492505050565b9350935093505060007f00000000000000000000000000000000000000000000000000000000000000006001600160a01b0316630261bf8b6040518163ffffffff1660e01b815260040160206040518083038186803b158015610f8757600080fd5b505afa158015610f9b573d6000803e3d6000fd5b505050506040513d6020811015610fb157600080fd5b50518351909150600090610fe29060029086908490610fcc57fe5b602002602001015161146490919063ffffffff16565b905061100385600081518110610ff457fe5b6020026020010151838361139c565b816001600160a01b03166369328dec8460008151811061101f57fe5b6020026020010151838f6040518463ffffffff1660e01b815260040180846001600160a01b03168152602001838152602001826001600160a01b031681526020019350505050602060405180830381600087803b15801561107f57600080fd5b505af1158015611093573d6000803e3d6000fd5b505050506040513d60208110156110a957600080fd5b50606095506110bf94508693506111d492505050565b50509150506110ce83826114c1565b5050505050505050565b7f000000000000000000000000000000000000000000000000000000000000000090565b7f848f3a590fb2f9795d1a275009c54c26c53833277c96b90e0ddd01753a1d590681565b7f3377e18acf9e83665eacd6af109261424fca32a298e2fc2e6095ba563fb8390e81565b7f000000000000000000000000000000000000000000000000000000000000000090565b7f1d51f49b5273d9ddbb643dc349fab8d36dbb470209c2ea71033bea49dd311c2781565b7f000000000000000000000000000000000000000000000000000000000000000090565b7fc29fa9dde84204c2908778afd0613d802d31cf046179b88f6d2b4a4e507ea2d581565b600060608060608480602001905160808110156111f057600080fd5b815160208301805160405192949293830192919084600160201b82111561121657600080fd5b90830190602082018581111561122b57600080fd5b82518660208202830111600160201b8211171561124757600080fd5b82525081516020918201928201910280838360005b8381101561127457818101518382015260200161125c565b5050505090500160405260200180516040519392919084600160201b82111561129c57600080fd5b9083019060208201858111156112b157600080fd5b82518660208202830111600160201b821117156112cd57600080fd5b82525081516020918201928201910280838360005b838110156112fa5781810151838201526020016112e2565b5050505090500160405260200180516040519392919084600160201b82111561132257600080fd5b90830190602082018581111561133757600080fd5b82518660208202830111600160201b8211171561135357600080fd5b82525081516020918201928201910280838360005b83811015611380578181015183820152602001611368565b5050505090500160405250505093509350935093509193509193565b60408051636eb1769f60e11b81523060048201526001600160a01b0384811660248301529151839286169163dd62ed3e916044808301926020929190829003018186803b1580156113ec57600080fd5b505afa158015611400573d6000803e3d6000fd5b505050506040513d602081101561141657600080fd5b50511015611434576114346001600160a01b0384168360001961159d565b505050565b60008082806020019051604081101561145157600080fd5b5080516020909101519092509050915091565b6000828211156114bb576040805162461bcd60e51b815260206004820152601e60248201527f536166654d6174683a207375627472616374696f6e206f766572666c6f770000604482015290519081900360640190fd5b50900390565b60005b81518110156114345760008282815181106114db57fe5b60200260200101516001600160a01b03166370a08231306040518263ffffffff1660e01b815260040180826001600160a01b0316815260200191505060206040518083038186803b15801561152f57600080fd5b505afa158015611543573d6000803e3d6000fd5b505050506040513d602081101561155957600080fd5b50519050801561159457611594848285858151811061157457fe5b60200260200101516001600160a01b03166116b09092919063ffffffff16565b506001016114c4565b801580611623575060408051636eb1769f60e11b81523060048201526001600160a01b03848116602483015291519185169163dd62ed3e91604480820192602092909190829003018186803b1580156115f557600080fd5b505afa158015611609573d6000803e3d6000fd5b505050506040513d602081101561161f57600080fd5b5051155b61165e5760405162461bcd60e51b8152600401808060200182810382526036815260200180611aa06036913960400191505060405180910390fd5b604080516001600160a01b038416602482015260448082018490528251808303909101815260649091019091526020810180516001600160e01b031663095ea7b360e01b1790526114349084906116fe565b604080516001600160a01b038416602482015260448082018490528251808303909101815260649091019091526020810180516001600160e01b031663a9059cbb60e01b1790526114349084905b6060611753826040518060400160405280602081526020017f5361666545524332303a206c6f772d6c6576656c2063616c6c206661696c6564815250856001600160a01b03166117af9092919063ffffffff16565b8051909150156114345780806020019051602081101561177257600080fd5b50516114345760405162461bcd60e51b815260040180806020018281038252602a815260200180611a76602a913960400191505060405180910390fd5b60606117be84846000856117c8565b90505b9392505050565b6060824710156118095760405162461bcd60e51b81526004018080602001828103825260268152602001806119f66026913960400191505060405180910390fd5b61181285611924565b611863576040805162461bcd60e51b815260206004820152601d60248201527f416464726573733a2063616c6c20746f206e6f6e2d636f6e7472616374000000604482015290519081900360640190fd5b60006060866001600160a01b031685876040518082805190602001908083835b602083106118a25780518252601f199092019160209182019101611883565b6001836020036101000a03801982511681845116808217855250505050505090500191505060006040518083038185875af1925050503d8060008114611904576040519150601f19603f3d011682016040523d82523d6000602084013e611909565b606091505b509150915061191982828661192a565b979650505050505050565b3b151590565b606083156119395750816117c1565b8251156119495782518084602001fd5b8160405162461bcd60e51b81526004018080602001828103825283818151815260200191508051906020019080838360005b8381101561199357818101518382015260200161197b565b50505050905090810190601f1680156119c05780820380516001836020036101000a031916815260200191505b509250505060405180910390fdfe7061727365417373657473466f724d6574686f643a205f73656c6563746f7220696e76616c6964416464726573733a20696e73756666696369656e742062616c616e636520666f722063616c6c4f6e6c792074686520496e746567726174696f6e4d616e616765722063616e2063616c6c20746869732066756e6374696f6e7061727365417373657473466f724d6574686f643a20556e737570706f727465642061546f6b656e5361666545524332303a204552433230206f7065726174696f6e20646964206e6f7420737563636565645361666545524332303a20617070726f76652066726f6d206e6f6e2d7a65726f20746f206e6f6e2d7a65726f20616c6c6f77616e6365a264697066735822122091e10919b304916d0794bf683633c860d2976b1597f003c87e13a2ecf387194c64736f6c634300060c0033",
  "devdoc": {
    "author": "Enzyme Council <security@enzyme.finance>",
    "details": "When lending and redeeming, a small `ROUNDING_BUFFER` is subtracted from the expected `aToken` values. This is a workaround for problematic quirks in `aToken` balance rounding (due to RayMath and rebasing logic), which sometimes leads to tx failures due to strict validation in the IntegrationManager of the incoming and outgoing asset amounts used in the tx. Due to this workaround, an `aToken` value <= the `ROUNDING_BUFFER` is not usable in this adapter, which is fine because those values would not make sense (gas-wise) to lend or redeem.",
    "kind": "dev",
    "methods": {
      "getAavePriceFeed()": {
        "returns": {
          "aavePriceFeed_": "The `AAVE_PRICE_FEED` variable value"
        }
      },
      "getIntegrationManager()": {
        "returns": {
          "integrationManager_": "The `INTEGRATION_MANAGER` variable value"
        }
      },
      "getLendingPoolAddressProvider()": {
        "returns": {
          "lendingPoolAddressProvider_": "The `LENDING_POOL_ADDRESS_PROVIDER` variable value"
        }
      },
      "getReferralCode()": {
        "returns": {
          "referralCode_": "The `REFERRAL_CODE` variable value"
        }
      },
      "identifier()": {
        "returns": {
          "identifier_": "An identifier string"
        }
      },
      "lend(address,bytes,bytes)": {
        "params": {
          "_encodedAssetTransferArgs": "Encoded args for expected assets to spend and receive",
          "_vaultProxy": "The VaultProxy of the calling fund"
        }
      },
      "parseAssetsForMethod(bytes4,bytes)": {
        "params": {
          "_encodedCallArgs": "The encoded parameters for the callOnIntegration",
          "_selector": "The function selector for the callOnIntegration"
        },
        "returns": {
          "incomingAssets_": "The assets to receive in the call",
          "minIncomingAssetAmounts_": "The min asset amounts to receive in the call",
          "spendAssetAmounts_": "The max asset amounts to spend in the call",
          "spendAssetsHandleType_": "A type that dictates how to handle granting the adapter access to spend assets (`None` by default)",
          "spendAssets_": "The assets to spend in the call"
        }
      },
      "redeem(address,bytes,bytes)": {
        "params": {
          "_encodedAssetTransferArgs": "Encoded args for expected assets to spend and receive",
          "_vaultProxy": "The VaultProxy of the calling fund"
        }
      }
    },
    "title": "AaveAdapter Contract",
    "version": 1
  },
  "userdoc": {
    "kind": "user",
    "methods": {
      "getAavePriceFeed()": {
        "notice": "Gets the `AAVE_PRICE_FEED` variable"
      },
      "getIntegrationManager()": {
        "notice": "Gets the `INTEGRATION_MANAGER` variable"
      },
      "getLendingPoolAddressProvider()": {
        "notice": "Gets the `LENDING_POOL_ADDRESS_PROVIDER` variable"
      },
      "getReferralCode()": {
        "notice": "Gets the `REFERRAL_CODE` variable"
      },
      "identifier()": {
        "notice": "Provides a constant string identifier for an adapter"
      },
      "lend(address,bytes,bytes)": {
        "notice": "Lends an amount of a token to AAVE"
      },
      "parseAssetsForMethod(bytes4,bytes)": {
        "notice": "Parses the expected assets to receive from a call on integration"
      },
      "redeem(address,bytes,bytes)": {
        "notice": "Redeems an amount of aTokens from AAVE"
      }
    },
    "notice": "Adapter for Aave Lending <https://aave.com/>",
    "version": 1
  },
  "storageLayout": {
    "storage": [],
    "types": null
  }
}