{
  "address": "0xE3383e7a69d6ba89980daC777d93A54BB3059033",
  "abi": [
    {
      "inputs": [
        {
          "internalType": "address",
          "name": "_integrationManager",
          "type": "address"
        },
        {
          "internalType": "address",
          "name": "_ibethToken",
          "type": "address"
        },
        {
          "internalType": "address",
          "name": "_wethToken",
          "type": "address"
        }
      ],
      "stateMutability": "nonpayable",
      "type": "constructor"
    },
    {
      "inputs": [],
      "name": "ADD_TRACKED_ASSETS_SELECTOR",
      "outputs": [
        {
          "internalType": "bytes4",
          "name": "",
          "type": "bytes4"
        }
      ],
      "stateMutability": "view",
      "type": "function"
    },
    {
      "inputs": [],
      "name": "APPROVE_ASSETS_SELECTOR",
      "outputs": [
        {
          "internalType": "bytes4",
          "name": "",
          "type": "bytes4"
        }
      ],
      "stateMutability": "view",
      "type": "function"
    },
    {
      "inputs": [],
      "name": "CLAIM_REWARDS_AND_REINVEST_SELECTOR",
      "outputs": [
        {
          "internalType": "bytes4",
          "name": "",
          "type": "bytes4"
        }
      ],
      "stateMutability": "view",
      "type": "function"
    },
    {
      "inputs": [],
      "name": "CLAIM_REWARDS_AND_SWAP_SELECTOR",
      "outputs": [
        {
          "internalType": "bytes4",
          "name": "",
          "type": "bytes4"
        }
      ],
      "stateMutability": "view",
      "type": "function"
    },
    {
      "inputs": [],
      "name": "CLAIM_REWARDS_SELECTOR",
      "outputs": [
        {
          "internalType": "bytes4",
          "name": "",
          "type": "bytes4"
        }
      ],
      "stateMutability": "view",
      "type": "function"
    },
    {
      "inputs": [],
      "name": "LEND_AND_STAKE_SELECTOR",
      "outputs": [
        {
          "internalType": "bytes4",
          "name": "",
          "type": "bytes4"
        }
      ],
      "stateMutability": "view",
      "type": "function"
    },
    {
      "inputs": [],
      "name": "LEND_SELECTOR",
      "outputs": [
        {
          "internalType": "bytes4",
          "name": "",
          "type": "bytes4"
        }
      ],
      "stateMutability": "view",
      "type": "function"
    },
    {
      "inputs": [],
      "name": "REDEEM_SELECTOR",
      "outputs": [
        {
          "internalType": "bytes4",
          "name": "",
          "type": "bytes4"
        }
      ],
      "stateMutability": "view",
      "type": "function"
    },
    {
      "inputs": [],
      "name": "REMOVE_TRACKED_ASSETS_SELECTOR",
      "outputs": [
        {
          "internalType": "bytes4",
          "name": "",
          "type": "bytes4"
        }
      ],
      "stateMutability": "view",
      "type": "function"
    },
    {
      "inputs": [],
      "name": "STAKE_SELECTOR",
      "outputs": [
        {
          "internalType": "bytes4",
          "name": "",
          "type": "bytes4"
        }
      ],
      "stateMutability": "view",
      "type": "function"
    },
    {
      "inputs": [],
      "name": "TAKE_ORDER_SELECTOR",
      "outputs": [
        {
          "internalType": "bytes4",
          "name": "",
          "type": "bytes4"
        }
      ],
      "stateMutability": "view",
      "type": "function"
    },
    {
      "inputs": [],
      "name": "UNSTAKE_AND_REDEEM_SELECTOR",
      "outputs": [
        {
          "internalType": "bytes4",
          "name": "",
          "type": "bytes4"
        }
      ],
      "stateMutability": "view",
      "type": "function"
    },
    {
      "inputs": [],
      "name": "UNSTAKE_SELECTOR",
      "outputs": [
        {
          "internalType": "bytes4",
          "name": "",
          "type": "bytes4"
        }
      ],
      "stateMutability": "view",
      "type": "function"
    },
    {
      "inputs": [],
      "name": "getIbethToken",
      "outputs": [
        {
          "internalType": "address",
          "name": "ibethToken_",
          "type": "address"
        }
      ],
      "stateMutability": "view",
      "type": "function"
    },
    {
      "inputs": [],
      "name": "getIntegrationManager",
      "outputs": [
        {
          "internalType": "address",
          "name": "integrationManager_",
          "type": "address"
        }
      ],
      "stateMutability": "view",
      "type": "function"
    },
    {
      "inputs": [],
      "name": "getWethToken",
      "outputs": [
        {
          "internalType": "address",
          "name": "wethToken_",
          "type": "address"
        }
      ],
      "stateMutability": "view",
      "type": "function"
    },
    {
      "inputs": [],
      "name": "identifier",
      "outputs": [
        {
          "internalType": "string",
          "name": "identifier_",
          "type": "string"
        }
      ],
      "stateMutability": "pure",
      "type": "function"
    },
    {
      "inputs": [
        {
          "internalType": "address",
          "name": "_vaultProxy",
          "type": "address"
        },
        {
          "internalType": "bytes",
          "name": "_encodedCallArgs",
          "type": "bytes"
        },
        {
          "internalType": "bytes",
          "name": "_encodedAssetTransferArgs",
          "type": "bytes"
        }
      ],
      "name": "lend",
      "outputs": [],
      "stateMutability": "nonpayable",
      "type": "function"
    },
    {
      "inputs": [
        {
          "internalType": "bytes4",
          "name": "_selector",
          "type": "bytes4"
        },
        {
          "internalType": "bytes",
          "name": "_encodedCallArgs",
          "type": "bytes"
        }
      ],
      "name": "parseAssetsForMethod",
      "outputs": [
        {
          "internalType": "enum IIntegrationManager.SpendAssetsHandleType",
          "name": "spendAssetsHandleType_",
          "type": "uint8"
        },
        {
          "internalType": "address[]",
          "name": "spendAssets_",
          "type": "address[]"
        },
        {
          "internalType": "uint256[]",
          "name": "spendAssetAmounts_",
          "type": "uint256[]"
        },
        {
          "internalType": "address[]",
          "name": "incomingAssets_",
          "type": "address[]"
        },
        {
          "internalType": "uint256[]",
          "name": "minIncomingAssetAmounts_",
          "type": "uint256[]"
        }
      ],
      "stateMutability": "view",
      "type": "function"
    },
    {
      "inputs": [
        {
          "internalType": "address",
          "name": "_vaultProxy",
          "type": "address"
        },
        {
          "internalType": "bytes",
          "name": "_encodedCallArgs",
          "type": "bytes"
        },
        {
          "internalType": "bytes",
          "name": "_encodedAssetTransferArgs",
          "type": "bytes"
        }
      ],
      "name": "redeem",
      "outputs": [],
      "stateMutability": "nonpayable",
      "type": "function"
    },
    {
      "stateMutability": "payable",
      "type": "receive"
    }
  ],
  "transactionHash": "0x54c12d8214c50967cdadfbc7d1d5d859e0804c6381e34afd2efee721c1bd03c0",
  "args": [
    "0x1274889924af224C68a08567F24cCcF23Dc94505",
    "0x0000000000000000000000000000000000000000",
    "0xbb4CdB9CBd36B01bD1cBaEBF2De08d9173bc095c"
  ],
  "linkedData": {
    "type": "ADAPTER"
  },
  "solcInputHash": "d126f4cb4e28eb2318e549d67a96b976",
  "bytecode": "0x60e060405234801561001057600080fd5b506040516119023803806119028339818101604052606081101561003357600080fd5b50805160208201516040909201516001600160601b0319606092831b811660805292821b831660a052901b1660c05260805160601c60a05160601c60c05160601c6118396100c96000398061084c5280610a1e5280610b115280610d545280610fed5250806108ca5280610a665280610bb05280610cb55280610f6f5250806106ea5280610e42528061109a52506118396000f3fe6080604052600436106101235760003560e01c806376cc7ac6116100a0578063e27a06b511610064578063e27a06b514610652578063e4d9047814610667578063e7c456901461067c578063f075399414610691578063f7d882b5146106a65761012a565b806376cc7ac6146103025780637998a1c4146104c3578063863e5ad01461054d578063b23228cf14610562578063c29fa9dd146105775761012a565b806340da225d116100e757806340da225d1461027d57806340f8cfcf146102925780634c252f91146102a75780635ca62b3c146102d85780636ea61149146102ed5761012a565b8063080456c11461012f578063099f751514610161578063131461c01461023e578063257cb1a3146102535780633ffc1591146102685761012a565b3661012a57005b600080fd5b34801561013b57600080fd5b506101446106bb565b604080516001600160e01b03199092168252519081900360200190f35b34801561016d57600080fd5b5061023c6004803603606081101561018457600080fd5b6001600160a01b038235169190810190604081016020820135600160201b8111156101ae57600080fd5b8201836020820111156101c057600080fd5b803590602001918460018302840111600160201b831117156101e157600080fd5b919390929091602081019035600160201b8111156101fe57600080fd5b82018360208201111561021057600080fd5b803590602001918460018302840111600160201b8311171561023157600080fd5b5090925090506106df565b005b34801561024a57600080fd5b50610144610968565b34801561025f57600080fd5b5061014461098c565b34801561027457600080fd5b506101446109b0565b34801561028957600080fd5b506101446109d4565b34801561029e57600080fd5b506101446109f8565b3480156102b357600080fd5b506102bc610a1c565b604080516001600160a01b039092168252519081900360200190f35b3480156102e457600080fd5b50610144610a40565b3480156102f957600080fd5b506102bc610a64565b34801561030e57600080fd5b5061038e6004803603604081101561032557600080fd5b6001600160e01b03198235169190810190604081016020820135600160201b81111561035057600080fd5b82018360208201111561036257600080fd5b803590602001918460018302840111600160201b8311171561038357600080fd5b509092509050610a88565b6040518086600381111561039e57fe5b815260200180602001806020018060200180602001858103855289818151815260200191508051906020019060200280838360005b838110156103eb5781810151838201526020016103d3565b50505050905001858103845288818151815260200191508051906020019060200280838360005b8381101561042a578181015183820152602001610412565b50505050905001858103835287818151815260200191508051906020019060200280838360005b83811015610469578181015183820152602001610451565b50505050905001858103825286818151815260200191508051906020019060200280838360005b838110156104a8578181015183820152602001610490565b50505050905001995050505050505050505060405180910390f35b3480156104cf57600080fd5b506104d8610dc6565b6040805160208082528351818301528351919283929083019185019080838360005b838110156105125781810151838201526020016104fa565b50505050905090810190601f16801561053f5780820380516001836020036101000a031916815260200191505b509250505060405180910390f35b34801561055957600080fd5b50610144610def565b34801561056e57600080fd5b50610144610e13565b34801561058357600080fd5b5061023c6004803603606081101561059a57600080fd5b6001600160a01b038235169190810190604081016020820135600160201b8111156105c457600080fd5b8201836020820111156105d657600080fd5b803590602001918460018302840111600160201b831117156105f757600080fd5b919390929091602081019035600160201b81111561061457600080fd5b82018360208201111561062657600080fd5b803590602001918460018302840111600160201b8311171561064757600080fd5b509092509050610e37565b34801561065e57600080fd5b50610144611050565b34801561067357600080fd5b50610144611074565b34801561068857600080fd5b506102bc611098565b34801561069d57600080fd5b506101446110bc565b3480156106b257600080fd5b506101446110e0565b7f8334eb99be0145865eba9889fca2ee920288090caefff4cc776038e20ad9259a81565b336001600160a01b037f000000000000000000000000000000000000000000000000000000000000000016146107465760405162461bcd60e51b81526004018080602001828103825260328152602001806117a86032913960400191505060405180910390fd5b8482828080601f01602080910402602001604051908101604052809392919081815260200183838082843760009201829052509250606091508190508061078c85611104565b9296509094509250905060018460038111156107a457fe5b14156108065760005b8351811015610804576107fc87308584815181106107c757fe5b60200260200101518785815181106107db57fe5b60200260200101516001600160a01b03166112cc909392919063ffffffff16565b6001016107ad565b505b60006108478b8b8080601f01602080910402602001604051908101604052809392919081815260200183838082843760009201919091525061132c92505050565b5090507f00000000000000000000000000000000000000000000000000000000000000006001600160a01b0316632e1a7d4d826040518263ffffffff1660e01b815260040180828152602001915050600060405180830381600087803b1580156108b057600080fd5b505af11580156108c4573d6000803e3d6000fd5b505050507f00000000000000000000000000000000000000000000000000000000000000006001600160a01b031663d0e30db0306001600160a01b0316316040518263ffffffff1660e01b81526004016000604051808303818588803b15801561092d57600080fd5b505af1158015610941573d6000803e3d6000fd5b5050505050506109518682611357565b61095b8684611357565b5050505050505050505050565b7f29fa046e79524c3c5ac4c01df692c35e217802b2b13b21121b76cf0ef02b138c81565b7f099f75155f0e997bf83a7993a71d5e7e7540bd386fe1e84643a09ce6b412521981565b7ffa7dd04da627f433da73c4355ead9c75682a67a8fc84d3f6170ef0922f402d2481565b7fb9dfbaccbe5cd2a84fdcf1d15f23ef25d23086f5afbaa99516065ed4a5bbc7a381565b7ff658eb804cc1da8af5599b584aaf3d55407a3c721c42641a6a5270e963d782c381565b7f000000000000000000000000000000000000000000000000000000000000000090565b7fdfd5ee0f6067928bf85a7c4430811282840bc99332dda3dab462c02bf95b67cc81565b7f000000000000000000000000000000000000000000000000000000000000000090565b600060608080806001600160e01b0319881663099f751560e01b1415610c3357600080610aea89898080601f01602080910402602001604051908101604052809392919081815260200183838082843760009201919091525061132c92505050565b604080516001808252818301909252929450909250602080830190803683370190505095507f000000000000000000000000000000000000000000000000000000000000000086600081518110610b3d57fe5b6001600160a01b03929092166020928302919091018201526040805160018082528183019092529182810190803683370190505094508185600081518110610b8157fe5b6020908102919091010152604080516001808252818301909252908160200160208202803683370190505093507f000000000000000000000000000000000000000000000000000000000000000084600081518110610bdc57fe5b6001600160a01b03929092166020928302919091018201526040805160018082528183019092529182810190803683370190505092508083600081518110610c2057fe5b6020026020010181815250505050610db7565b6001600160e01b0319881663c29fa9dd60e01b1415610d8057600080610c8e89898080601f01602080910402602001604051908101604052809392919081815260200183838082843760009201919091525061132c92505050565b604080516001808252818301909252929450909250602080830190803683370190505095507f000000000000000000000000000000000000000000000000000000000000000086600081518110610ce157fe5b6001600160a01b03929092166020928302919091018201526040805160018082528183019092529182810190803683370190505094508185600081518110610d2557fe5b6020908102919091010152604080516001808252818301909252908160200160208202803683370190505093507f000000000000000000000000000000000000000000000000000000000000000084600081518110610bdc57fe5b60405162461bcd60e51b815260040180806020018281038252602781526020018061175b6027913960400191505060405180910390fd5b60029450939792965093509350565b60408051808201909152600f81526e414c5048415f484f4d4f52415f563160881b602082015290565b7f03e38a2bd7063d45c897edeafc330e71657502dd86434d3c37a489caf116af6981565b7f68e30677f607df46e87da13e15b637784cfa62374b653f35ab43d10361a2f83081565b336001600160a01b037f00000000000000000000000000000000000000000000000000000000000000001614610e9e5760405162461bcd60e51b81526004018080602001828103825260328152602001806117a86032913960400191505060405180910390fd5b8482828080601f016020809104026020016040519081016040528093929190818152602001838380828437600092018290525092506060915081905080610ee485611104565b929650909450925090506001846003811115610efc57fe5b1415610f295760005b8351811015610f2757610f1f87308584815181106107c757fe5b600101610f05565b505b6000610f6a8b8b8080601f01602080910402602001604051908101604052809392919081815260200183838082843760009201919091525061132c92505050565b5090507f00000000000000000000000000000000000000000000000000000000000000006001600160a01b0316632e1a7d4d826040518263ffffffff1660e01b815260040180828152602001915050600060405180830381600087803b158015610fd357600080fd5b505af1158015610fe7573d6000803e3d6000fd5b505050507f00000000000000000000000000000000000000000000000000000000000000006001600160a01b031663d0e30db0306001600160a01b0316316040518263ffffffff1660e01b81526004016000604051808303818588803b15801561092d57600080fd5b7f848f3a590fb2f9795d1a275009c54c26c53833277c96b90e0ddd01753a1d590681565b7f3377e18acf9e83665eacd6af109261424fca32a298e2fc2e6095ba563fb8390e81565b7f000000000000000000000000000000000000000000000000000000000000000090565b7f1d51f49b5273d9ddbb643dc349fab8d36dbb470209c2ea71033bea49dd311c2781565b7fc29fa9dde84204c2908778afd0613d802d31cf046179b88f6d2b4a4e507ea2d581565b6000606080606084806020019051608081101561112057600080fd5b815160208301805160405192949293830192919084600160201b82111561114657600080fd5b90830190602082018581111561115b57600080fd5b82518660208202830111600160201b8211171561117757600080fd5b82525081516020918201928201910280838360005b838110156111a457818101518382015260200161118c565b5050505090500160405260200180516040519392919084600160201b8211156111cc57600080fd5b9083019060208201858111156111e157600080fd5b82518660208202830111600160201b821117156111fd57600080fd5b82525081516020918201928201910280838360005b8381101561122a578181015183820152602001611212565b5050505090500160405260200180516040519392919084600160201b82111561125257600080fd5b90830190602082018581111561126757600080fd5b82518660208202830111600160201b8211171561128357600080fd5b82525081516020918201928201910280838360005b838110156112b0578181015183820152602001611298565b5050505090500160405250505093509350935093509193509193565b604080516001600160a01b0380861660248301528416604482015260648082018490528251808303909101815260849091019091526020810180516001600160e01b03166323b872dd60e01b179052611326908590611438565b50505050565b60008082806020019051604081101561134457600080fd5b5080516020909101519092509050915091565b60005b815181101561143357600082828151811061137157fe5b60200260200101516001600160a01b03166370a08231306040518263ffffffff1660e01b815260040180826001600160a01b0316815260200191505060206040518083038186803b1580156113c557600080fd5b505afa1580156113d9573d6000803e3d6000fd5b505050506040513d60208110156113ef57600080fd5b50519050801561142a5761142a848285858151811061140a57fe5b60200260200101516001600160a01b03166114e99092919063ffffffff16565b5060010161135a565b505050565b606061148d826040518060400160405280602081526020017f5361666545524332303a206c6f772d6c6576656c2063616c6c206661696c6564815250856001600160a01b031661153b9092919063ffffffff16565b805190915015611433578080602001905160208110156114ac57600080fd5b50516114335760405162461bcd60e51b815260040180806020018281038252602a8152602001806117da602a913960400191505060405180910390fd5b604080516001600160a01b038416602482015260448082018490528251808303909101815260649091019091526020810180516001600160e01b031663a9059cbb60e01b179052611433908490611438565b606061154a8484600085611554565b90505b9392505050565b6060824710156115955760405162461bcd60e51b81526004018080602001828103825260268152602001806117826026913960400191505060405180910390fd5b61159e856116b0565b6115ef576040805162461bcd60e51b815260206004820152601d60248201527f416464726573733a2063616c6c20746f206e6f6e2d636f6e7472616374000000604482015290519081900360640190fd5b60006060866001600160a01b031685876040518082805190602001908083835b6020831061162e5780518252601f19909201916020918201910161160f565b6001836020036101000a03801982511681845116808217855250505050505090500191505060006040518083038185875af1925050503d8060008114611690576040519150601f19603f3d011682016040523d82523d6000602084013e611695565b606091505b50915091506116a58282866116b6565b979650505050505050565b3b151590565b606083156116c557508161154d565b8251156116d55782518084602001fd5b8160405162461bcd60e51b81526004018080602001828103825283818151815260200191508051906020019080838360005b8381101561171f578181015183820152602001611707565b50505050905090810190601f16801561174c5780820380516001836020036101000a031916815260200191505b509250505060405180910390fdfe7061727365417373657473466f724d6574686f643a205f73656c6563746f7220696e76616c6964416464726573733a20696e73756666696369656e742062616c616e636520666f722063616c6c4f6e6c792074686520496e746567726174696f6e4d616e616765722063616e2063616c6c20746869732066756e6374696f6e5361666545524332303a204552433230206f7065726174696f6e20646964206e6f742073756363656564a2646970667358221220258bfc91b5032f037424ba2fcbb027db481f38016f83e5e06e9b08f50432157264736f6c634300060c0033",
  "devdoc": {
    "author": "Enzyme Council <security@enzyme.finance>",
    "kind": "dev",
    "methods": {
      "getIbethToken()": {
        "returns": {
          "ibethToken_": "The `IBETH_TOKEN` variable value"
        }
      },
      "getIntegrationManager()": {
        "returns": {
          "integrationManager_": "The `INTEGRATION_MANAGER` variable value"
        }
      },
      "getWethToken()": {
        "returns": {
          "wethToken_": "The `WETH_TOKEN` variable value"
        }
      },
      "identifier()": {
        "returns": {
          "identifier_": "An identifier string"
        }
      },
      "lend(address,bytes,bytes)": {
        "params": {
          "_encodedAssetTransferArgs": "Encoded args for expected assets to spend and receive",
          "_encodedCallArgs": "Encoded order parameters",
          "_vaultProxy": "The VaultProxy of the calling fund"
        }
      },
      "parseAssetsForMethod(bytes4,bytes)": {
        "params": {
          "_encodedCallArgs": "The encoded parameters for the callOnIntegration",
          "_selector": "The function selector for the callOnIntegration"
        },
        "returns": {
          "incomingAssets_": "The assets to receive in the call",
          "minIncomingAssetAmounts_": "The min asset amounts to receive in the call",
          "spendAssetAmounts_": "The max asset amounts to spend in the call",
          "spendAssetsHandleType_": "A type that dictates how to handle granting the adapter access to spend assets (`None` by default)",
          "spendAssets_": "The assets to spend in the call"
        }
      },
      "redeem(address,bytes,bytes)": {
        "params": {
          "_encodedAssetTransferArgs": "Encoded args for expected assets to spend and receive",
          "_encodedCallArgs": "Encoded order parameters",
          "_vaultProxy": "The VaultProxy of the calling fund"
        }
      }
    },
    "title": "AlphaHomoraV1Adapter Contract",
    "version": 1
  },
  "userdoc": {
    "kind": "user",
    "methods": {
      "getIbethToken()": {
        "notice": "Gets the `IBETH_TOKEN` variable"
      },
      "getIntegrationManager()": {
        "notice": "Gets the `INTEGRATION_MANAGER` variable"
      },
      "getWethToken()": {
        "notice": "Gets the `WETH_TOKEN` variable"
      },
      "identifier()": {
        "notice": "Provides a constant string identifier for an adapter"
      },
      "lend(address,bytes,bytes)": {
        "notice": "Lends WETH for ibETH"
      },
      "parseAssetsForMethod(bytes4,bytes)": {
        "notice": "Parses the expected assets to receive from a call on integration"
      },
      "redeem(address,bytes,bytes)": {
        "notice": "Redeems ibETH for WETH"
      }
    },
    "notice": "Adapter for Alpha Homora v1 <https://alphafinance.io/>",
    "version": 1
  },
  "storageLayout": {
    "storage": [],
    "types": null
  }
}