{
  "address": "0x29071c9b17a5f380C8486815a075f737Eb2c0b93",
  "abi": [
    {
      "inputs": [
        {
          "internalType": "address",
          "name": "_integrationManager",
          "type": "address"
        },
        {
          "internalType": "address",
          "name": "_addressProvider",
          "type": "address"
        },
        {
          "internalType": "address",
          "name": "_wethToken",
          "type": "address"
        }
      ],
      "stateMutability": "nonpayable",
      "type": "constructor"
    },
    {
      "inputs": [],
      "name": "ADD_TRACKED_ASSETS_SELECTOR",
      "outputs": [
        {
          "internalType": "bytes4",
          "name": "",
          "type": "bytes4"
        }
      ],
      "stateMutability": "view",
      "type": "function"
    },
    {
      "inputs": [],
      "name": "APPROVE_ASSETS_SELECTOR",
      "outputs": [
        {
          "internalType": "bytes4",
          "name": "",
          "type": "bytes4"
        }
      ],
      "stateMutability": "view",
      "type": "function"
    },
    {
      "inputs": [],
      "name": "CLAIM_REWARDS_AND_REINVEST_SELECTOR",
      "outputs": [
        {
          "internalType": "bytes4",
          "name": "",
          "type": "bytes4"
        }
      ],
      "stateMutability": "view",
      "type": "function"
    },
    {
      "inputs": [],
      "name": "CLAIM_REWARDS_AND_SWAP_SELECTOR",
      "outputs": [
        {
          "internalType": "bytes4",
          "name": "",
          "type": "bytes4"
        }
      ],
      "stateMutability": "view",
      "type": "function"
    },
    {
      "inputs": [],
      "name": "CLAIM_REWARDS_SELECTOR",
      "outputs": [
        {
          "internalType": "bytes4",
          "name": "",
          "type": "bytes4"
        }
      ],
      "stateMutability": "view",
      "type": "function"
    },
    {
      "inputs": [],
      "name": "LEND_AND_STAKE_SELECTOR",
      "outputs": [
        {
          "internalType": "bytes4",
          "name": "",
          "type": "bytes4"
        }
      ],
      "stateMutability": "view",
      "type": "function"
    },
    {
      "inputs": [],
      "name": "LEND_SELECTOR",
      "outputs": [
        {
          "internalType": "bytes4",
          "name": "",
          "type": "bytes4"
        }
      ],
      "stateMutability": "view",
      "type": "function"
    },
    {
      "inputs": [],
      "name": "REDEEM_SELECTOR",
      "outputs": [
        {
          "internalType": "bytes4",
          "name": "",
          "type": "bytes4"
        }
      ],
      "stateMutability": "view",
      "type": "function"
    },
    {
      "inputs": [],
      "name": "REMOVE_TRACKED_ASSETS_SELECTOR",
      "outputs": [
        {
          "internalType": "bytes4",
          "name": "",
          "type": "bytes4"
        }
      ],
      "stateMutability": "view",
      "type": "function"
    },
    {
      "inputs": [],
      "name": "STAKE_SELECTOR",
      "outputs": [
        {
          "internalType": "bytes4",
          "name": "",
          "type": "bytes4"
        }
      ],
      "stateMutability": "view",
      "type": "function"
    },
    {
      "inputs": [],
      "name": "TAKE_ORDER_SELECTOR",
      "outputs": [
        {
          "internalType": "bytes4",
          "name": "",
          "type": "bytes4"
        }
      ],
      "stateMutability": "view",
      "type": "function"
    },
    {
      "inputs": [],
      "name": "UNSTAKE_AND_REDEEM_SELECTOR",
      "outputs": [
        {
          "internalType": "bytes4",
          "name": "",
          "type": "bytes4"
        }
      ],
      "stateMutability": "view",
      "type": "function"
    },
    {
      "inputs": [],
      "name": "UNSTAKE_SELECTOR",
      "outputs": [
        {
          "internalType": "bytes4",
          "name": "",
          "type": "bytes4"
        }
      ],
      "stateMutability": "view",
      "type": "function"
    },
    {
      "inputs": [],
      "name": "getAddressProvider",
      "outputs": [
        {
          "internalType": "address",
          "name": "addressProvider_",
          "type": "address"
        }
      ],
      "stateMutability": "view",
      "type": "function"
    },
    {
      "inputs": [],
      "name": "getIntegrationManager",
      "outputs": [
        {
          "internalType": "address",
          "name": "integrationManager_",
          "type": "address"
        }
      ],
      "stateMutability": "view",
      "type": "function"
    },
    {
      "inputs": [],
      "name": "getWethToken",
      "outputs": [
        {
          "internalType": "address",
          "name": "wethToken_",
          "type": "address"
        }
      ],
      "stateMutability": "view",
      "type": "function"
    },
    {
      "inputs": [],
      "name": "identifier",
      "outputs": [
        {
          "internalType": "string",
          "name": "identifier_",
          "type": "string"
        }
      ],
      "stateMutability": "pure",
      "type": "function"
    },
    {
      "inputs": [
        {
          "internalType": "bytes4",
          "name": "_selector",
          "type": "bytes4"
        },
        {
          "internalType": "bytes",
          "name": "_encodedCallArgs",
          "type": "bytes"
        }
      ],
      "name": "parseAssetsForMethod",
      "outputs": [
        {
          "internalType": "enum IIntegrationManager.SpendAssetsHandleType",
          "name": "spendAssetsHandleType_",
          "type": "uint8"
        },
        {
          "internalType": "address[]",
          "name": "spendAssets_",
          "type": "address[]"
        },
        {
          "internalType": "uint256[]",
          "name": "spendAssetAmounts_",
          "type": "uint256[]"
        },
        {
          "internalType": "address[]",
          "name": "incomingAssets_",
          "type": "address[]"
        },
        {
          "internalType": "uint256[]",
          "name": "minIncomingAssetAmounts_",
          "type": "uint256[]"
        }
      ],
      "stateMutability": "view",
      "type": "function"
    },
    {
      "inputs": [
        {
          "internalType": "address",
          "name": "_vaultProxy",
          "type": "address"
        },
        {
          "internalType": "bytes",
          "name": "_encodedCallArgs",
          "type": "bytes"
        },
        {
          "internalType": "bytes",
          "name": "",
          "type": "bytes"
        }
      ],
      "name": "takeOrder",
      "outputs": [],
      "stateMutability": "nonpayable",
      "type": "function"
    },
    {
      "stateMutability": "payable",
      "type": "receive"
    }
  ],
  "transactionHash": "0x1e866799c59639dcd6475196db07d0b504c744cf500ef067e445bb3fd91bed37",
  "args": [
    "0x1274889924af224C68a08567F24cCcF23Dc94505",
    "0x0000000000000000000000000000000000000000",
    "0xbb4CdB9CBd36B01bD1cBaEBF2De08d9173bc095c"
  ],
  "linkedData": {
    "type": "ADAPTER"
  },
  "solcInputHash": "d126f4cb4e28eb2318e549d67a96b976",
  "bytecode": "0x60e060405234801561001057600080fd5b5060405161168d38038061168d8339818101604052606081101561003357600080fd5b50805160208201516040909201516001600160601b0319606092831b811660805292821b831660a052901b1660c05260805160601c60a05160601c60c05160601c6115d36100ba6000398061081e5280610bf35280610c2d5280610d625280610e685280610ede5250806106975280610b895250806105e65280610b1d52506115d36000f3fe6080604052600436106101185760003560e01c806376cc7ac6116100a0578063e4d9047811610064578063e4d9047814610572578063e7c4569014610587578063f07539941461059c578063f7d882b5146105b1578063f8c68934146105c65761011f565b806376cc7ac6146102e65780637998a1c4146104a9578063863e5ad014610533578063b23228cf14610548578063e27a06b51461055d5761011f565b80633ffc1591116100e75780633ffc15911461026157806340da225d1461027657806340f8cfcf1461028b5780634c252f91146102a05780635ca62b3c146102d15761011f565b806303e38a2b14610124578063080456c114610205578063131461c014610237578063257cb1a31461024c5761011f565b3661011f57005b600080fd5b34801561013057600080fd5b506102036004803603606081101561014757600080fd5b6001600160a01b03823516919081019060408101602082013564010000000081111561017257600080fd5b82018360208201111561018457600080fd5b803590602001918460018302840111640100000000831117156101a657600080fd5b9193909290916020810190356401000000008111156101c457600080fd5b8201836020820111156101d657600080fd5b803590602001918460018302840111640100000000831117156101f857600080fd5b5090925090506105db565b005b34801561021157600080fd5b5061021a610744565b604080516001600160e01b03199092168252519081900360200190f35b34801561024357600080fd5b5061021a610768565b34801561025857600080fd5b5061021a61078c565b34801561026d57600080fd5b5061021a6107b0565b34801561028257600080fd5b5061021a6107d4565b34801561029757600080fd5b5061021a6107f8565b3480156102ac57600080fd5b506102b561081c565b604080516001600160a01b039092168252519081900360200190f35b3480156102dd57600080fd5b5061021a610840565b3480156102f257600080fd5b506103746004803603604081101561030957600080fd5b6001600160e01b0319823516919081019060408101602082013564010000000081111561033557600080fd5b82018360208201111561034757600080fd5b8035906020019184600183028401116401000000008311171561036957600080fd5b509092509050610864565b6040518086600381111561038457fe5b815260200180602001806020018060200180602001858103855289818151815260200191508051906020019060200280838360005b838110156103d15781810151838201526020016103b9565b50505050905001858103845288818151815260200191508051906020019060200280838360005b838110156104105781810151838201526020016103f8565b50505050905001858103835287818151815260200191508051906020019060200280838360005b8381101561044f578181015183820152602001610437565b50505050905001858103825286818151815260200191508051906020019060200280838360005b8381101561048e578181015183820152602001610476565b50505050905001995050505050505050505060405180910390f35b3480156104b557600080fd5b506104be610a63565b6040805160208082528351818301528351919283929083019185019080838360005b838110156104f85781810151838201526020016104e0565b50505050905090810190601f1680156105255780820380516001836020036101000a031916815260200191505b509250505060405180910390f35b34801561053f57600080fd5b5061021a610a8b565b34801561055457600080fd5b5061021a610aaf565b34801561056957600080fd5b5061021a610ad3565b34801561057e57600080fd5b5061021a610af7565b34801561059357600080fd5b506102b5610b1b565b3480156105a857600080fd5b5061021a610b3f565b3480156105bd57600080fd5b5061021a610b63565b3480156105d257600080fd5b506102b5610b87565b336001600160a01b037f000000000000000000000000000000000000000000000000000000000000000016146106425760405162461bcd60e51b81526004018080602001828103825260328152602001806114de6032913960400191505060405180910390fd5b600080600080600061068989898080601f016020809104026020016040519081016040528093929190818152602001838380828437600092019190915250610bab92505050565b9450945094509450945060007f00000000000000000000000000000000000000000000000000000000000000006001600160a01b031663493f4f7460026040518263ffffffff1660e01b81526004018082815260200191505060206040518083038186803b1580156106fa57600080fd5b505afa15801561070e573d6000803e3d6000fd5b505050506040513d602081101561072457600080fd5b505190506107378b828888888888610bf1565b5050505050505050505050565b7f8334eb99be0145865eba9889fca2ee920288090caefff4cc776038e20ad9259a81565b7f29fa046e79524c3c5ac4c01df692c35e217802b2b13b21121b76cf0ef02b138c81565b7f099f75155f0e997bf83a7993a71d5e7e7540bd386fe1e84643a09ce6b412521981565b7ffa7dd04da627f433da73c4355ead9c75682a67a8fc84d3f6170ef0922f402d2481565b7fb9dfbaccbe5cd2a84fdcf1d15f23ef25d23086f5afbaa99516065ed4a5bbc7a381565b7ff658eb804cc1da8af5599b584aaf3d55407a3c721c42641a6a5270e963d782c381565b7f000000000000000000000000000000000000000000000000000000000000000090565b7fdfd5ee0f6067928bf85a7c4430811282840bc99332dda3dab462c02bf95b67cc81565b600060608080806001600160e01b031988166303e38a2b60e01b146108ba5760405162461bcd60e51b81526004018080602001828103825260278152602001806114916027913960400191505060405180910390fd5b60008060008060006109018c8c8080601f016020809104026020016040519081016040528093929190818152602001838380828437600092019190915250610bab92505050565b9398509196509450925090506001600160a01b0385166109525760405162461bcd60e51b815260040180806020018281038252602e815260200180611510602e913960400191505060405180910390fd5b6040805160018082528183019092529060208083019080368337019050509850838960008151811061098057fe5b6001600160a01b039290921660209283029190910182015260408051600180825281830190925291828101908036833701905050975082886000815181106109c457fe5b60209081029190910101526040805160018082528183019092529081602001602082028036833701905050965081876000815181106109ff57fe5b6001600160a01b03929092166020928302919091018201526040805160018082528183019092529182810190803683370190505095508086600081518110610a4357fe5b602002602001018181525050600299505050505050939792965093509350565b60408051808201909152600e81526d43555256455f45584348414e474560901b602082015290565b7f03e38a2bd7063d45c897edeafc330e71657502dd86434d3c37a489caf116af6981565b7f68e30677f607df46e87da13e15b637784cfa62374b653f35ab43d10361a2f83081565b7f848f3a590fb2f9795d1a275009c54c26c53833277c96b90e0ddd01753a1d590681565b7f3377e18acf9e83665eacd6af109261424fca32a298e2fc2e6095ba563fb8390e81565b7f000000000000000000000000000000000000000000000000000000000000000090565b7f1d51f49b5273d9ddbb643dc349fab8d36dbb470209c2ea71033bea49dd311c2781565b7fc29fa9dde84204c2908778afd0613d802d31cf046179b88f6d2b4a4e507ea2d581565b7f000000000000000000000000000000000000000000000000000000000000000090565b60008060008060008580602001905160a0811015610bc857600080fd5b508051602082015160408301516060840151608090940151929a91995097509195509350915050565b7f00000000000000000000000000000000000000000000000000000000000000006001600160a01b0316846001600160a01b03161415610d60577f00000000000000000000000000000000000000000000000000000000000000006001600160a01b0316632e1a7d4d846040518263ffffffff1660e01b815260040180828152602001915050600060405180830381600087803b158015610c9157600080fd5b505af1158015610ca5573d6000803e3d6000fd5b505060408051631a4c1ca360e01b81526001600160a01b03898116600483015273eeeeeeeeeeeeeeeeeeeeeeeeeeeeeeeeeeeeeeee6024830152868116604483015260648201889052608482018690528b811660a48301529151918a169350631a4c1ca39250869160c480830192602092919082900301818588803b158015610d2d57600080fd5b505af1158015610d41573d6000803e3d6000fd5b50505050506040513d6020811015610d5857600080fd5b50610fb99050565b7f00000000000000000000000000000000000000000000000000000000000000006001600160a01b0316826001600160a01b03161415610f0f57610da5848785610fc2565b60408051631a4c1ca360e01b81526001600160a01b038781166004830152868116602483015273eeeeeeeeeeeeeeeeeeeeeeeeeeeeeeeeeeeeeeee604483015260648201869052608482018490523060a4830152915191881691631a4c1ca39160c4808201926020929091908290030181600087803b158015610e2757600080fd5b505af1158015610e3b573d6000803e3d6000fd5b505050506040513d6020811015610e5157600080fd5b505060408051630d0e30db60e41b815290513031917f00000000000000000000000000000000000000000000000000000000000000006001600160a01b03169163d0e30db0918491600480830192600092919082900301818588803b158015610eb957600080fd5b505af1158015610ecd573d6000803e3d6000fd5b50610f099350506001600160a01b037f00000000000000000000000000000000000000000000000000000000000000001691508a90508361105f565b50610fb9565b610f1a848785610fc2565b60408051631a4c1ca360e01b81526001600160a01b03878116600483015286811660248301528481166044830152606482018690526084820184905289811660a4830152915191881691631a4c1ca39160c4808201926020929091908290030181600087803b158015610f8c57600080fd5b505af1158015610fa0573d6000803e3d6000fd5b505050506040513d6020811015610fb657600080fd5b50505b50505050505050565b60408051636eb1769f60e11b81523060048201526001600160a01b0384811660248301529151839286169163dd62ed3e916044808301926020929190829003018186803b15801561101257600080fd5b505afa158015611026573d6000803e3d6000fd5b505050506040513d602081101561103c57600080fd5b5051101561105a5761105a6001600160a01b038416836000196110b1565b505050565b604080516001600160a01b038416602482015260448082018490528251808303909101815260649091019091526020810180516001600160e01b031663a9059cbb60e01b17905261105a9084906111c0565b801580611137575060408051636eb1769f60e11b81523060048201526001600160a01b03848116602483015291519185169163dd62ed3e91604480820192602092909190829003018186803b15801561110957600080fd5b505afa15801561111d573d6000803e3d6000fd5b505050506040513d602081101561113357600080fd5b5051155b6111725760405162461bcd60e51b81526004018080602001828103825260368152602001806115686036913960400191505060405180910390fd5b604080516001600160a01b038416602482015260448082018490528251808303909101815260649091019091526020810180516001600160e01b031663095ea7b360e01b17905261105a9084905b6060611215826040518060400160405280602081526020017f5361666545524332303a206c6f772d6c6576656c2063616c6c206661696c6564815250856001600160a01b03166112719092919063ffffffff16565b80519091501561105a5780806020019051602081101561123457600080fd5b505161105a5760405162461bcd60e51b815260040180806020018281038252602a81526020018061153e602a913960400191505060405180910390fd5b6060611280848460008561128a565b90505b9392505050565b6060824710156112cb5760405162461bcd60e51b81526004018080602001828103825260268152602001806114b86026913960400191505060405180910390fd5b6112d4856113e6565b611325576040805162461bcd60e51b815260206004820152601d60248201527f416464726573733a2063616c6c20746f206e6f6e2d636f6e7472616374000000604482015290519081900360640190fd5b60006060866001600160a01b031685876040518082805190602001908083835b602083106113645780518252601f199092019160209182019101611345565b6001836020036101000a03801982511681845116808217855250505050505090500191505060006040518083038185875af1925050503d80600081146113c6576040519150601f19603f3d011682016040523d82523d6000602084013e6113cb565b606091505b50915091506113db8282866113ec565b979650505050505050565b3b151590565b606083156113fb575081611283565b82511561140b5782518084602001fd5b8160405162461bcd60e51b81526004018080602001828103825283818151815260200191508051906020019080838360005b8381101561145557818101518382015260200161143d565b50505050905090810190601f1680156114825780820380516001836020036101000a031916815260200191505b509250505060405180910390fdfe7061727365417373657473466f724d6574686f643a205f73656c6563746f7220696e76616c6964416464726573733a20696e73756666696369656e742062616c616e636520666f722063616c6c4f6e6c792074686520496e746567726174696f6e4d616e616765722063616e2063616c6c20746869732066756e6374696f6e7061727365417373657473466f724d6574686f643a204e6f20706f6f6c20616464726573732070726f76696465645361666545524332303a204552433230206f7065726174696f6e20646964206e6f7420737563636565645361666545524332303a20617070726f76652066726f6d206e6f6e2d7a65726f20746f206e6f6e2d7a65726f20616c6c6f77616e6365a2646970667358221220f7189b4320c63c5b6aae4530d0d7bf0780b052a6c09dcdf4e542fb87dff91fb664736f6c634300060c0033",
  "devdoc": {
    "author": "Enzyme Council <security@enzyme.finance>",
    "kind": "dev",
    "methods": {
      "getAddressProvider()": {
        "returns": {
          "addressProvider_": "The `ADDRESS_PROVIDER` variable value"
        }
      },
      "getIntegrationManager()": {
        "returns": {
          "integrationManager_": "The `INTEGRATION_MANAGER` variable value"
        }
      },
      "getWethToken()": {
        "returns": {
          "wethToken_": "The `WETH_TOKEN` variable value"
        }
      },
      "identifier()": {
        "returns": {
          "identifier_": "The identifer string"
        }
      },
      "parseAssetsForMethod(bytes4,bytes)": {
        "params": {
          "_encodedCallArgs": "The encoded parameters for the callOnIntegration",
          "_selector": "The function selector for the callOnIntegration"
        },
        "returns": {
          "incomingAssets_": "The assets to receive in the call",
          "minIncomingAssetAmounts_": "The min asset amounts to receive in the call",
          "spendAssetAmounts_": "The max asset amounts to spend in the call",
          "spendAssetsHandleType_": "A type that dictates how to handle granting the adapter access to spend assets (`None` by default)",
          "spendAssets_": "The assets to spend in the call"
        }
      },
      "takeOrder(address,bytes,bytes)": {
        "params": {
          "_encodedCallArgs": "Encoded order parameters",
          "_vaultProxy": "The VaultProxy of the calling fund"
        }
      }
    },
    "title": "CurveExchangeAdapter Contract",
    "version": 1
  },
  "userdoc": {
    "kind": "user",
    "methods": {
      "getAddressProvider()": {
        "notice": "Gets the `ADDRESS_PROVIDER` variable"
      },
      "getIntegrationManager()": {
        "notice": "Gets the `INTEGRATION_MANAGER` variable"
      },
      "getWethToken()": {
        "notice": "Gets the `WETH_TOKEN` variable"
      },
      "identifier()": {
        "notice": "Provides a constant string identifier for an adapter"
      },
      "parseAssetsForMethod(bytes4,bytes)": {
        "notice": "Parses the expected assets to receive from a call on integration"
      },
      "takeOrder(address,bytes,bytes)": {
        "notice": "Trades assets on Curve"
      }
    },
    "notice": "Adapter for swapping assets on Curve <https://www.curve.fi/>",
    "version": 1
  },
  "storageLayout": {
    "storage": [],
    "types": null
  }
}