{
  "address": "0xF53Dd941e8eda63B26d7F1843C633C78ff0c1a84",
  "abi": [
    {
      "inputs": [
        {
          "internalType": "address",
          "name": "_integrationManager",
          "type": "address"
        },
        {
          "internalType": "address",
          "name": "_idlePriceFeed",
          "type": "address"
        },
        {
          "internalType": "address",
          "name": "_wethToken",
          "type": "address"
        },
        {
          "internalType": "address",
          "name": "_uniswapV2Router2",
          "type": "address"
        }
      ],
      "stateMutability": "nonpayable",
      "type": "constructor"
    },
    {
      "inputs": [],
      "name": "ADD_TRACKED_ASSETS_SELECTOR",
      "outputs": [
        {
          "internalType": "bytes4",
          "name": "",
          "type": "bytes4"
        }
      ],
      "stateMutability": "view",
      "type": "function"
    },
    {
      "inputs": [],
      "name": "APPROVE_ASSETS_SELECTOR",
      "outputs": [
        {
          "internalType": "bytes4",
          "name": "",
          "type": "bytes4"
        }
      ],
      "stateMutability": "view",
      "type": "function"
    },
    {
      "inputs": [],
      "name": "CLAIM_REWARDS_AND_REINVEST_SELECTOR",
      "outputs": [
        {
          "internalType": "bytes4",
          "name": "",
          "type": "bytes4"
        }
      ],
      "stateMutability": "view",
      "type": "function"
    },
    {
      "inputs": [],
      "name": "CLAIM_REWARDS_AND_SWAP_SELECTOR",
      "outputs": [
        {
          "internalType": "bytes4",
          "name": "",
          "type": "bytes4"
        }
      ],
      "stateMutability": "view",
      "type": "function"
    },
    {
      "inputs": [],
      "name": "CLAIM_REWARDS_SELECTOR",
      "outputs": [
        {
          "internalType": "bytes4",
          "name": "",
          "type": "bytes4"
        }
      ],
      "stateMutability": "view",
      "type": "function"
    },
    {
      "inputs": [],
      "name": "LEND_AND_STAKE_SELECTOR",
      "outputs": [
        {
          "internalType": "bytes4",
          "name": "",
          "type": "bytes4"
        }
      ],
      "stateMutability": "view",
      "type": "function"
    },
    {
      "inputs": [],
      "name": "LEND_SELECTOR",
      "outputs": [
        {
          "internalType": "bytes4",
          "name": "",
          "type": "bytes4"
        }
      ],
      "stateMutability": "view",
      "type": "function"
    },
    {
      "inputs": [],
      "name": "REDEEM_SELECTOR",
      "outputs": [
        {
          "internalType": "bytes4",
          "name": "",
          "type": "bytes4"
        }
      ],
      "stateMutability": "view",
      "type": "function"
    },
    {
      "inputs": [],
      "name": "REMOVE_TRACKED_ASSETS_SELECTOR",
      "outputs": [
        {
          "internalType": "bytes4",
          "name": "",
          "type": "bytes4"
        }
      ],
      "stateMutability": "view",
      "type": "function"
    },
    {
      "inputs": [],
      "name": "STAKE_SELECTOR",
      "outputs": [
        {
          "internalType": "bytes4",
          "name": "",
          "type": "bytes4"
        }
      ],
      "stateMutability": "view",
      "type": "function"
    },
    {
      "inputs": [],
      "name": "TAKE_ORDER_SELECTOR",
      "outputs": [
        {
          "internalType": "bytes4",
          "name": "",
          "type": "bytes4"
        }
      ],
      "stateMutability": "view",
      "type": "function"
    },
    {
      "inputs": [],
      "name": "UNSTAKE_AND_REDEEM_SELECTOR",
      "outputs": [
        {
          "internalType": "bytes4",
          "name": "",
          "type": "bytes4"
        }
      ],
      "stateMutability": "view",
      "type": "function"
    },
    {
      "inputs": [],
      "name": "UNSTAKE_SELECTOR",
      "outputs": [
        {
          "internalType": "bytes4",
          "name": "",
          "type": "bytes4"
        }
      ],
      "stateMutability": "view",
      "type": "function"
    },
    {
      "inputs": [
        {
          "internalType": "address",
          "name": "",
          "type": "address"
        },
        {
          "internalType": "bytes",
          "name": "",
          "type": "bytes"
        },
        {
          "internalType": "bytes",
          "name": "",
          "type": "bytes"
        }
      ],
      "name": "approveAssets",
      "outputs": [],
      "stateMutability": "nonpayable",
      "type": "function"
    },
    {
      "inputs": [
        {
          "internalType": "address",
          "name": "_vaultProxy",
          "type": "address"
        },
        {
          "internalType": "bytes",
          "name": "_encodedCallArgs",
          "type": "bytes"
        },
        {
          "internalType": "bytes",
          "name": "_encodedAssetTransferArgs",
          "type": "bytes"
        }
      ],
      "name": "claimRewards",
      "outputs": [],
      "stateMutability": "nonpayable",
      "type": "function"
    },
    {
      "inputs": [
        {
          "internalType": "address",
          "name": "_vaultProxy",
          "type": "address"
        },
        {
          "internalType": "bytes",
          "name": "_encodedCallArgs",
          "type": "bytes"
        },
        {
          "internalType": "bytes",
          "name": "_encodedAssetTransferArgs",
          "type": "bytes"
        }
      ],
      "name": "claimRewardsAndReinvest",
      "outputs": [],
      "stateMutability": "nonpayable",
      "type": "function"
    },
    {
      "inputs": [
        {
          "internalType": "address",
          "name": "_vaultProxy",
          "type": "address"
        },
        {
          "internalType": "bytes",
          "name": "_encodedCallArgs",
          "type": "bytes"
        },
        {
          "internalType": "bytes",
          "name": "_encodedAssetTransferArgs",
          "type": "bytes"
        }
      ],
      "name": "claimRewardsAndSwap",
      "outputs": [],
      "stateMutability": "nonpayable",
      "type": "function"
    },
    {
      "inputs": [],
      "name": "getIdlePriceFeed",
      "outputs": [
        {
          "internalType": "address",
          "name": "idlePriceFeed_",
          "type": "address"
        }
      ],
      "stateMutability": "view",
      "type": "function"
    },
    {
      "inputs": [],
      "name": "getIntegrationManager",
      "outputs": [
        {
          "internalType": "address",
          "name": "integrationManager_",
          "type": "address"
        }
      ],
      "stateMutability": "view",
      "type": "function"
    },
    {
      "inputs": [],
      "name": "getUniswapV2Router2",
      "outputs": [
        {
          "internalType": "address",
          "name": "router_",
          "type": "address"
        }
      ],
      "stateMutability": "view",
      "type": "function"
    },
    {
      "inputs": [],
      "name": "getWethToken",
      "outputs": [
        {
          "internalType": "address",
          "name": "wethToken_",
          "type": "address"
        }
      ],
      "stateMutability": "view",
      "type": "function"
    },
    {
      "inputs": [],
      "name": "identifier",
      "outputs": [
        {
          "internalType": "string",
          "name": "identifier_",
          "type": "string"
        }
      ],
      "stateMutability": "pure",
      "type": "function"
    },
    {
      "inputs": [
        {
          "internalType": "address",
          "name": "_vaultProxy",
          "type": "address"
        },
        {
          "internalType": "bytes",
          "name": "",
          "type": "bytes"
        },
        {
          "internalType": "bytes",
          "name": "_encodedAssetTransferArgs",
          "type": "bytes"
        }
      ],
      "name": "lend",
      "outputs": [],
      "stateMutability": "nonpayable",
      "type": "function"
    },
    {
      "inputs": [
        {
          "internalType": "bytes4",
          "name": "_selector",
          "type": "bytes4"
        },
        {
          "internalType": "bytes",
          "name": "_encodedCallArgs",
          "type": "bytes"
        }
      ],
      "name": "parseAssetsForMethod",
      "outputs": [
        {
          "internalType": "enum IIntegrationManager.SpendAssetsHandleType",
          "name": "spendAssetsHandleType_",
          "type": "uint8"
        },
        {
          "internalType": "address[]",
          "name": "spendAssets_",
          "type": "address[]"
        },
        {
          "internalType": "uint256[]",
          "name": "spendAssetAmounts_",
          "type": "uint256[]"
        },
        {
          "internalType": "address[]",
          "name": "incomingAssets_",
          "type": "address[]"
        },
        {
          "internalType": "uint256[]",
          "name": "minIncomingAssetAmounts_",
          "type": "uint256[]"
        }
      ],
      "stateMutability": "view",
      "type": "function"
    },
    {
      "inputs": [
        {
          "internalType": "address",
          "name": "_vaultProxy",
          "type": "address"
        },
        {
          "internalType": "bytes",
          "name": "_encodedCallArgs",
          "type": "bytes"
        },
        {
          "internalType": "bytes",
          "name": "_encodedAssetTransferArgs",
          "type": "bytes"
        }
      ],
      "name": "redeem",
      "outputs": [],
      "stateMutability": "nonpayable",
      "type": "function"
    }
  ],
  "transactionHash": "0x4ff37163cdafd94ebbb8f3dad2855d72e2e771b76f031d4c22612f06a79d1b1b",
  "args": [
    "0x1274889924af224C68a08567F24cCcF23Dc94505",
    "0xC8c236A25ffD12Eb8800B85cfc98f16892Bf4D1c",
    "0xbb4CdB9CBd36B01bD1cBaEBF2De08d9173bc095c",
    "0x10ED43C718714eb63d5aA57B78B54704E256024E"
  ],
  "linkedData": {
    "type": "ADAPTER"
  },
  "solcInputHash": "d126f4cb4e28eb2318e549d67a96b976",
  "bytecode": "0x61010060405234801561001157600080fd5b506040516137233803806137238339818101604052608081101561003457600080fd5b508051602082015160408301516060938401516001600160601b031993851b8416608052841b831660a05290831b821660c05290911b1660e05260805160601c60a05160601c60c05160601c60e05160601c6136426100e160003980610be45280610cc052806112b6525080610e7452806127125250806111435280612b095280612b3052508061096f5280610aeb5280610ec55280610fce528061117052806113c352506136426000f3fe608060405234801561001057600080fd5b50600436106101735760003560e01c80637998a1c4116100de578063d1ded40811610097578063e4d9047811610071578063e4d9047814610920578063e7c4569014610928578063f075399414610930578063f7d882b51461093857610173565b8063d1ded40814610842578063dfd5ee0f1461084a578063e27a06b51461091857610173565b80637998a1c414610611578063863e5ad01461068e578063a21f9a2c14610696578063b23228cf1461069e578063b9dfbacc146106a6578063c29fa9dd1461077457610173565b80633ffc1591116101305780633ffc15911461041957806340da225d1461042157806340f8cfcf146104295780634c252f91146104315780635ca62b3c1461045557806376cc7ac61461045d57610173565b8063080456c114610178578063099f75151461019d578063131461c01461026d5780631d51f49b14610275578063257cb1a3146103435780633377e18a1461034b575b600080fd5b610180610940565b604080516001600160e01b03199092168252519081900360200190f35b61026b600480360360608110156101b357600080fd5b6001600160a01b038235169190810190604081016020820135600160201b8111156101dd57600080fd5b8201836020820111156101ef57600080fd5b803590602001918460018302840111600160201b8311171561021057600080fd5b919390929091602081019035600160201b81111561022d57600080fd5b82018360208201111561023f57600080fd5b803590602001918460018302840111600160201b8311171561026057600080fd5b509092509050610964565b005b610180610abc565b61026b6004803603606081101561028b57600080fd5b6001600160a01b038235169190810190604081016020820135600160201b8111156102b557600080fd5b8201836020820111156102c757600080fd5b803590602001918460018302840111600160201b831117156102e857600080fd5b919390929091602081019035600160201b81111561030557600080fd5b82018360208201111561031757600080fd5b803590602001918460018302840111600160201b8311171561033857600080fd5b509092509050610ae0565b610180610c27565b61026b6004803603606081101561036157600080fd5b6001600160a01b038235169190810190604081016020820135600160201b81111561038b57600080fd5b82018360208201111561039d57600080fd5b803590602001918460018302840111600160201b831117156103be57600080fd5b919390929091602081019035600160201b8111156103db57600080fd5b8201836020820111156103ed57600080fd5b803590602001918460018302840111600160201b8311171561040e57600080fd5b509092509050610c4b565b610180610c52565b610180610c76565b610180610c9a565b610439610cbe565b604080516001600160a01b039092168252519081900360200190f35b610180610ce2565b6104dc6004803603604081101561047357600080fd5b6001600160e01b03198235169190810190604081016020820135600160201b81111561049e57600080fd5b8201836020820111156104b057600080fd5b803590602001918460018302840111600160201b831117156104d157600080fd5b509092509050610d06565b604051808660038111156104ec57fe5b815260200180602001806020018060200180602001858103855289818151815260200191508051906020019060200280838360005b83811015610539578181015183820152602001610521565b50505050905001858103845288818151815260200191508051906020019060200280838360005b83811015610578578181015183820152602001610560565b50505050905001858103835287818151815260200191508051906020019060200280838360005b838110156105b757818101518382015260200161059f565b50505050905001858103825286818151815260200191508051906020019060200280838360005b838110156105f65781810151838201526020016105de565b50505050905001995050505050505050505060405180910390f35b610619610e30565b6040805160208082528351818301528351919283929083019185019080838360005b8381101561065357818101518382015260200161063b565b50505050905090810190601f1680156106805780820380516001836020036101000a031916815260200191505b509250505060405180910390f35b610180610e4e565b610439610e72565b610180610e96565b61026b600480360360608110156106bc57600080fd5b6001600160a01b038235169190810190604081016020820135600160201b8111156106e657600080fd5b8201836020820111156106f857600080fd5b803590602001918460018302840111600160201b8311171561071957600080fd5b919390929091602081019035600160201b81111561073657600080fd5b82018360208201111561074857600080fd5b803590602001918460018302840111600160201b8311171561076957600080fd5b509092509050610eba565b61026b6004803603606081101561078a57600080fd5b6001600160a01b038235169190810190604081016020820135600160201b8111156107b457600080fd5b8201836020820111156107c657600080fd5b803590602001918460018302840111600160201b831117156107e757600080fd5b919390929091602081019035600160201b81111561080457600080fd5b82018360208201111561081657600080fd5b803590602001918460018302840111600160201b8311171561083757600080fd5b509092509050610fc3565b610439611141565b61026b6004803603606081101561086057600080fd5b6001600160a01b038235169190810190604081016020820135600160201b81111561088a57600080fd5b82018360208201111561089c57600080fd5b803590602001918460018302840111600160201b831117156108bd57600080fd5b919390929091602081019035600160201b8111156108da57600080fd5b8201836020820111156108ec57600080fd5b803590602001918460018302840111600160201b8311171561090d57600080fd5b509092509050611165565b610180611379565b61018061139d565b6104396113c1565b6101806113e5565b610180611409565b7f8334eb99be0145865eba9889fca2ee920288090caefff4cc776038e20ad9259a81565b336001600160a01b037f000000000000000000000000000000000000000000000000000000000000000016146109cb5760405162461bcd60e51b815260040180806020018281038252603281526020018061347f6032913960400191505060405180910390fd5b8482828080601f01602080910402602001604051908101604052809392919081815260200183838082843760009201919091525050604080516020601f8801819004810282018101909252868152606093508392508291610a479190899089908190840183828082843760009201919091525061142d92505050565b93509350935050610a9581600081518110610a5e57fe5b602002602001015184600081518110610a7357fe5b602002602001015184600081518110610a8857fe5b60200260200101516115f5565b5050506060610aa38261142d565b9350505050610ab28382611694565b5050505050505050565b7f29fa046e79524c3c5ac4c01df692c35e217802b2b13b21121b76cf0ef02b138c81565b336001600160a01b037f00000000000000000000000000000000000000000000000000000000000000001614610b475760405162461bcd60e51b815260040180806020018281038252603281526020018061347f6032913960400191505060405180910390fd5b8482828080601f0160208091040260200160405190810160405280939291908181526020018383808284376000920182905250604080516020601f8c018190048102820181019092528a8152919450849350839250610bc191908b908b908190840183828082843760009201919091525061177592505050565b9450509350935050606080610bd78c86856117bb565b91509150610c088c8383877f00000000000000000000000000000000000000000000000000000000000000006117fb565b50505050506060610c188261142d565b5050915050610ab28382611694565b7f099f75155f0e997bf83a7993a71d5e7e7540bd386fe1e84643a09ce6b412521981565b5050505050565b7ffa7dd04da627f433da73c4355ead9c75682a67a8fc84d3f6170ef0922f402d2481565b7fb9dfbaccbe5cd2a84fdcf1d15f23ef25d23086f5afbaa99516065ed4a5bbc7a381565b7ff658eb804cc1da8af5599b584aaf3d55407a3c721c42641a6a5270e963d782c381565b7f000000000000000000000000000000000000000000000000000000000000000090565b7fdfd5ee0f6067928bf85a7c4430811282840bc99332dda3dab462c02bf95b67cc81565b600060608080806001600160e01b031988166319bbf0c560e11b1415610d3f57610d308787611a6f565b94509450945094509450610e25565b6001600160e01b03198816632e77eeb360e21b1415610d6257610d308787611c46565b6001600160e01b0319881663dfd5ee0f60e01b1415610d8557610d308787611d01565b6001600160e01b03198816631d51f49b60e01b1415610da857610d308787611df2565b6001600160e01b0319881663099f751560e01b1415610dcb57610d308787611f41565b6001600160e01b0319881663c29fa9dd60e01b1415610dee57610d3087876120d6565b60405162461bcd60e51b81526004018080602001828103825260278152602001806134326027913960400191505060405180910390fd5b939792965093509350565b60408051808201909152600481526349444c4560e01b602082015290565b7f03e38a2bd7063d45c897edeafc330e71657502dd86434d3c37a489caf116af6981565b7f000000000000000000000000000000000000000000000000000000000000000090565b7f68e30677f607df46e87da13e15b637784cfa62374b653f35ab43d10361a2f83081565b336001600160a01b037f00000000000000000000000000000000000000000000000000000000000000001614610f215760405162461bcd60e51b815260040180806020018281038252603281526020018061347f6032913960400191505060405180910390fd5b8482828080601f0160208091040260200160405190810160405280939291908181526020018383808284376000920182905250604080516020601f8c018190048102820181019092528a8152919450610f989350909150899089908190840183828082843760009201919091525061222792505050565b915050610fa481612252565b610fb688610fb1836122c3565b6124cb565b50506060610c188261142d565b336001600160a01b037f0000000000000000000000000000000000000000000000000000000000000000161461102a5760405162461bcd60e51b815260040180806020018281038252603281526020018061347f6032913960400191505060405180910390fd5b8482828080601f0160208091040260200160405190810160405280939291908181526020018383808284376000920182905250604080516020601f8c018190048102820181019092528a81529194506110a19350909150899089908190840183828082843760009201919091525061262792505050565b5050905061112781826001600160a01b03166370a08231306040518263ffffffff1660e01b815260040180826001600160a01b0316815260200191505060206040518083038186803b1580156110f657600080fd5b505afa15801561110a573d6000803e3d6000fd5b505050506040513d602081101561112057600080fd5b505161265b565b61113488610fb1836122c3565b50506060610aa38261142d565b7f000000000000000000000000000000000000000000000000000000000000000090565b336001600160a01b037f000000000000000000000000000000000000000000000000000000000000000016146111cc5760405162461bcd60e51b815260040180806020018281038252603281526020018061347f6032913960400191505060405180910390fd5b8482828080601f0160208091040260200160405190810160405280939291908181526020018383808284376000920182905250604080516020601f8c018190048102820181019092528a815291945084935061124392508a908a90819084018382808284376000920191909152506126d192505050565b93505092505060006112548361270e565b90506001600160a01b03811661129b5760405162461bcd60e51b815260040180806020018281038252602e8152602001806134b1602e913960400191505060405180910390fd5b6060806112a98c86866117bb565b915091506112da308383867f00000000000000000000000000000000000000000000000000000000000000006117fb565b6000836001600160a01b03166370a08231306040518263ffffffff1660e01b815260040180826001600160a01b0316815260200191505060206040518083038186803b15801561132957600080fd5b505afa15801561133d573d6000803e3d6000fd5b505050506040513d602081101561135357600080fd5b505190508015611368576113688685836115f5565b5050505050506060610c188261142d565b7f848f3a590fb2f9795d1a275009c54c26c53833277c96b90e0ddd01753a1d590681565b7f3377e18acf9e83665eacd6af109261424fca32a298e2fc2e6095ba563fb8390e81565b7f000000000000000000000000000000000000000000000000000000000000000090565b7f1d51f49b5273d9ddbb643dc349fab8d36dbb470209c2ea71033bea49dd311c2781565b7fc29fa9dde84204c2908778afd0613d802d31cf046179b88f6d2b4a4e507ea2d581565b6000606080606084806020019051608081101561144957600080fd5b815160208301805160405192949293830192919084600160201b82111561146f57600080fd5b90830190602082018581111561148457600080fd5b82518660208202830111600160201b821117156114a057600080fd5b82525081516020918201928201910280838360005b838110156114cd5781810151838201526020016114b5565b5050505090500160405260200180516040519392919084600160201b8211156114f557600080fd5b90830190602082018581111561150a57600080fd5b82518660208202830111600160201b8211171561152657600080fd5b82525081516020918201928201910280838360005b8381101561155357818101518382015260200161153b565b5050505090500160405260200180516040519392919084600160201b82111561157b57600080fd5b90830190602082018581111561159057600080fd5b82518660208202830111600160201b821117156115ac57600080fd5b82525081516020918201928201910280838360005b838110156115d95781810151838201526020016115c1565b5050505090500160405250505093509350935093509193509193565b6116008284836127af565b60408051632befabbf60e01b81526004810183905260016024820152731ad1fc9964c551f456238dd88d6a38344b5319d7604482015290516001600160a01b03851691632befabbf9160648083019260209291908290030181600087803b15801561166a57600080fd5b505af115801561167e573d6000803e3d6000fd5b505050506040513d6020811015610c4b57600080fd5b60005b81518110156117705760008282815181106116ae57fe5b60200260200101516001600160a01b03166370a08231306040518263ffffffff1660e01b815260040180826001600160a01b0316815260200191505060206040518083038186803b15801561170257600080fd5b505afa158015611716573d6000803e3d6000fd5b505050506040513d602081101561172c57600080fd5b50519050801561176757611767848285858151811061174757fe5b60200260200101516001600160a01b03166128479092919063ffffffff16565b50600101611697565b505050565b60008060008060008580602001905160a081101561179257600080fd5b508051602082015160408301516060840151608090940151929a91995097509195509350915050565b6060806117c784612252565b6117d0846122c3565b915082156117e4576117e28583612899565b505b816117ef30846129ef565b91509150935093915050565b60006001600160a01b03821615806118245750826001600160a01b0316826001600160a01b0316145b905060005b8551811015611a665784818151811061183e57fe5b602002602001015160001480611879575060006001600160a01b031686828151811061186657fe5b60200260200101516001600160a01b0316145b806118a85750836001600160a01b031686828151811061189557fe5b60200260200101516001600160a01b0316145b156118b257611a5e565b606082806118e45750836001600160a01b03168783815181106118d157fe5b60200260200101516001600160a01b0316145b1561197d57604080516002808252606082018352909160208301908036833701905050905086828151811061191557fe5b60200260200101518160008151811061192a57fe5b60200260200101906001600160a01b031690816001600160a01b031681525050848160018151811061195857fe5b60200260200101906001600160a01b031690816001600160a01b031681525050611a3c565b6040805160038082526080820190925290602082016060803683370190505090508682815181106119aa57fe5b6020026020010151816000815181106119bf57fe5b60200260200101906001600160a01b031690816001600160a01b03168152505083816001815181106119ed57fe5b60200260200101906001600160a01b031690816001600160a01b0316815250508481600281518110611a1b57fe5b60200260200101906001600160a01b031690816001600160a01b0316815250505b611a5c88878481518110611a4c57fe5b6020026020010151600184612aef565b505b600101611829565b50505050505050565b60006060806060806000611ab888888080601f016020809104026020016040519081016040528093929190818152602001838380828437600092019190915250612cd092505050565b909650945090506000611aca8261270e565b6001600160a01b03161415611b105760405162461bcd60e51b81526004018080602001828103825260348152602001806135796034913960400191505060405180910390fd5b8351855114611b505760405162461bcd60e51b815260040180806020018281038252602d8152602001806133a7602d913960400191505060405180910390fd5b6060611b5b826122c3565b905060005b8651811015611bee576000868281518110611b7757fe5b60200260200101511115611be657611bab878281518110611b9457fe5b602002602001015183612e0e90919063ffffffff16565b611be65760405162461bcd60e51b81526004018080602001828103825260338152602001806133ff6033913960400191505060405180910390fd5b600101611b60565b50600186866000805b50604051908082528060200260200182016040528015611c21578160200160208202803683370190505b50604080516000815260208101909152939d929c50909a509850909650945050505050565b6000606080606080600080611c9089898080601f01602080910402602001604051908101604052809392919081815260200183838082843760009201919091525061222792505050565b90925090506000611ca08261270e565b6001600160a01b03161415611ce65760405162461bcd60e51b81526004018080602001828103825260338152602001806134df6033913960400191505060405180910390fd5b611cf08282612e64565b909650945060028686600080611bf7565b60006060806060806000806000611d4d8a8a8080601f0160208091040260200160405190810160405280939291908181526020018383808284376000920191909152506126d192505050565b50925092509250611d5e8383612e64565b604080516001808252818301909252929950909750602080830190803683370190505094508185600081518110611d9157fe5b6001600160a01b03929092166020928302919091018201526040805160018082528183019092529182810190803683370190505093508084600081518110611dd557fe5b602002602001018181525050600297505050509295509295909350565b6000606080606080600080600080611e3f8b8b8080601f01602080910402602001604051908101604052809392919081815260200183838082843760009201919091525061177592505050565b50935093509350935060006001600160a01b0316611e5c8461270e565b6001600160a01b03161415611ea25760405162461bcd60e51b815260040180806020018281038252603a81526020018061353f603a913960400191505060405180910390fd5b611eac8484612e64565b604080516001808252818301909252929a50909850602080830190803683370190505095508186600081518110611edf57fe5b6001600160a01b03929092166020928302919091018201526040805160018082528183019092529182810190803683370190505094508085600081518110611f2357fe5b60200260200101818152505060029850505050509295509295909350565b60006060806060806000806000611f8d8a8a8080601f01602080910402602001604051908101604052809392919081815260200183838082843760009201919091525061262792505050565b9250925092506000611f9e8461270e565b90506001600160a01b038116611fe55760405162461bcd60e51b815260040180806020018281038252602b8152602001806133d4602b913960400191505060405180910390fd5b6040805160018082528183019092529060208083019080368337019050509750808860008151811061201357fe5b6001600160a01b0392909216602092830291909101820152604080516001808252818301909252918281019080368337019050509650828760008151811061205757fe5b602090810291909101015260408051600180825281830190925290816020016020820280368337019050509550838660008151811061209257fe5b6001600160a01b03929092166020928302919091018201526040805160018082528183019092529182810190803683370190505094508185600081518110611f2357fe5b600060608060608060008060006121228a8a8080601f01602080910402602001604051908101604052809392919081815260200183838082843760009201919091525061262792505050565b92509250925060006121338461270e565b90506001600160a01b03811661217a5760405162461bcd60e51b815260040180806020018281038252602d815260200180613512602d913960400191505060405180910390fd5b604080516001808252818301909252906020808301908036833701905050975083886000815181106121a857fe5b6001600160a01b039290921660209283029190910182015260408051600180825281830190925291828101908036833701905050965082876000815181106121ec57fe5b602090810291909101015260408051600180825281830190925290816020016020820280368337019050509550808660008151811061209257fe5b60008082806020019051604081101561223f57600080fd5b5080516020909101519092509050915091565b806001600160a01b0316638b30b51660006040518263ffffffff1660e01b815260040180828152602001915050602060405180830381600087803b15801561229957600080fd5b505af11580156122ad573d6000803e3d6000fd5b505050506040513d602081101561177057600080fd5b604080516350b28af760e01b8152600060048201819052915160609284926001600160a01b038416926350b28af792602480840193919291829003018186803b15801561230f57600080fd5b505afa158015612323573d6000803e3d6000fd5b505050506040513d6000823e601f3d908101601f19168201604052602081101561234c57600080fd5b8101908080516040519392919084600160201b82111561236b57600080fd5b90830190602082018581111561238057600080fd5b82518660208202830111600160201b8211171561239c57600080fd5b82525081516020918201928201910280838360005b838110156123c95781810151838201526020016123b1565b505050509050016040525050505167ffffffffffffffff811180156123ed57600080fd5b50604051908082528060200260200182016040528015612417578160200160208202803683370190505b50915060005b82518110156124c457816001600160a01b031663746daa4e826040518263ffffffff1660e01b81526004018082815260200191505060206040518083038186803b15801561246a57600080fd5b505afa15801561247e573d6000803e3d6000fd5b505050506040513d602081101561249457600080fd5b505183518490839081106124a457fe5b6001600160a01b039092166020928302919091019091015260010161241d565b5050919050565b6060815167ffffffffffffffff811180156124e557600080fd5b5060405190808252806020026020018201604052801561250f578160200160208202803683370190505b50905060005b825181101561261f57600083828151811061252c57fe5b60200260200101519050806001600160a01b03166370a08231306040518263ffffffff1660e01b815260040180826001600160a01b0316815260200191505060206040518083038186803b15801561258357600080fd5b505afa158015612597573d6000803e3d6000fd5b505050506040513d60208110156125ad57600080fd5b505183518490849081106125bd57fe5b60200260200101818152505060008383815181106125d757fe5b6020026020010151111561261657612616858484815181106125f557fe5b6020026020010151836001600160a01b03166128479092919063ffffffff16565b50600101612515565b505b92915050565b600080600083806020019051606081101561264157600080fd5b508051602082015160409092015190969195509350915050565b816001600160a01b0316638b30b516826040518263ffffffff1660e01b815260040180828152602001915050602060405180830381600087803b1580156126a157600080fd5b505af11580156126b5573d6000803e3d6000fd5b505050506040513d60208110156126cb57600080fd5b50505050565b6000806000808480602001905160808110156126ec57600080fd5b5080516020820151604083015160609093015191989097509195509350915050565b60007f00000000000000000000000000000000000000000000000000000000000000006001600160a01b03166366adb867836040518263ffffffff1660e01b815260040180826001600160a01b0316815260200191505060206040518083038186803b15801561277d57600080fd5b505afa158015612791573d6000803e3d6000fd5b505050506040513d60208110156127a757600080fd5b505192915050565b60408051636eb1769f60e11b81523060048201526001600160a01b0384811660248301529151839286169163dd62ed3e916044808301926020929190829003018186803b1580156127ff57600080fd5b505afa158015612813573d6000803e3d6000fd5b505050506040513d602081101561282957600080fd5b50511015611770576117706001600160a01b03841683600019612f66565b604080516001600160a01b038416602482015260448082018490528251808303909101815260649091019091526020810180516001600160e01b031663a9059cbb60e01b179052611770908490613075565b6060815167ffffffffffffffff811180156128b357600080fd5b506040519080825280602002602001820160405280156128dd578160200160208202803683370190505b50905060005b825181101561261f5760008382815181106128fa57fe5b60200260200101519050806001600160a01b03166370a08231866040518263ffffffff1660e01b815260040180826001600160a01b0316815260200191505060206040518083038186803b15801561295157600080fd5b505afa158015612965573d6000803e3d6000fd5b505050506040513d602081101561297b57600080fd5b5051835184908490811061298b57fe5b60200260200101818152505060008383815181106129a557fe5b602002602001015111156129e6576129e685308585815181106129c457fe5b6020026020010151846001600160a01b0316613126909392919063ffffffff16565b506001016128e3565b6060815167ffffffffffffffff81118015612a0957600080fd5b50604051908082528060200260200182016040528015612a33578160200160208202803683370190505b50905060005b825181101561261f57828181518110612a4e57fe5b60200260200101516001600160a01b03166370a08231856040518263ffffffff1660e01b815260040180826001600160a01b0316815260200191505060206040518083038186803b158015612aa257600080fd5b505afa158015612ab6573d6000803e3d6000fd5b505050506040513d6020811015612acc57600080fd5b50518251839083908110612adc57fe5b6020908102919091010152600101612a39565b612b2e81600081518110612aff57fe5b60200260200101517f0000000000000000000000000000000000000000000000000000000000000000856127af565b7f00000000000000000000000000000000000000000000000000000000000000006001600160a01b03166338ed173984848488612b69613180565b6040518663ffffffff1660e01b81526004018086815260200185815260200180602001846001600160a01b03168152602001838152602001828103825285818151815260200191508051906020019060200280838360005b83811015612bd9578181015183820152602001612bc1565b505050509050019650505050505050600060405180830381600087803b158015612c0257600080fd5b505af1158015612c16573d6000803e3d6000fd5b505050506040513d6000823e601f3d908101601f191682016040526020811015612c3f57600080fd5b8101908080516040519392919084600160201b821115612c5e57600080fd5b908301906020820185811115612c7357600080fd5b82518660208202830111600160201b82111715612c8f57600080fd5b82525081516020918201928201910280838360005b83811015612cbc578181015183820152602001612ca4565b505050509050016040525050505050505050565b6000606080838060200190516060811015612cea57600080fd5b815160208301805160405192949293830192919084600160201b821115612d1057600080fd5b908301906020820185811115612d2557600080fd5b82518660208202830111600160201b82111715612d4157600080fd5b82525081516020918201928201910280838360005b83811015612d6e578181015183820152602001612d56565b5050505090500160405260200180516040519392919084600160201b821115612d9657600080fd5b908301906020820185811115612dab57600080fd5b82518660208202830111600160201b82111715612dc757600080fd5b82525081516020918201928201910280838360005b83811015612df4578181015183820152602001612ddc565b505050509050016040525050509250925092509193909250565b6000805b8351811015612e5a57838181518110612e2757fe5b60200260200101516001600160a01b0316836001600160a01b03161415612e52576001915050612621565b600101612e12565b5060009392505050565b604080516001808252818301909252606091829190602080830190803683370190505091508282600081518110612e9757fe5b6001600160a01b0392909216602092830291909101820152604080516001808252818301909252918281019080368337019050509050826001600160a01b03166370a08231856040518263ffffffff1660e01b815260040180826001600160a01b0316815260200191505060206040518083038186803b158015612f1a57600080fd5b505afa158015612f2e573d6000803e3d6000fd5b505050506040513d6020811015612f4457600080fd5b505181518290600090612f5357fe5b6020026020010181815250509250929050565b801580612fec575060408051636eb1769f60e11b81523060048201526001600160a01b03848116602483015291519185169163dd62ed3e91604480820192602092909190829003018186803b158015612fbe57600080fd5b505afa158015612fd2573d6000803e3d6000fd5b505050506040513d6020811015612fe857600080fd5b5051155b6130275760405162461bcd60e51b81526004018080602001828103825260368152602001806135d76036913960400191505060405180910390fd5b604080516001600160a01b038416602482015260448082018490528251808303909101815260649091019091526020810180516001600160e01b031663095ea7b360e01b1790526117709084905b60606130ca826040518060400160405280602081526020017f5361666545524332303a206c6f772d6c6576656c2063616c6c206661696c6564815250856001600160a01b03166131879092919063ffffffff16565b805190915015611770578080602001905160208110156130e957600080fd5b50516117705760405162461bcd60e51b815260040180806020018281038252602a8152602001806135ad602a913960400191505060405180910390fd5b604080516001600160a01b0380861660248301528416604482015260648082018490528251808303909101815260849091019091526020810180516001600160e01b03166323b872dd60e01b1790526126cb908590613075565b6001420190565b606061319684846000856131a0565b90505b9392505050565b6060824710156131e15760405162461bcd60e51b81526004018080602001828103825260268152602001806134596026913960400191505060405180910390fd5b6131ea856132fc565b61323b576040805162461bcd60e51b815260206004820152601d60248201527f416464726573733a2063616c6c20746f206e6f6e2d636f6e7472616374000000604482015290519081900360640190fd5b60006060866001600160a01b031685876040518082805190602001908083835b6020831061327a5780518252601f19909201916020918201910161325b565b6001836020036101000a03801982511681845116808217855250505050505090500191505060006040518083038185875af1925050503d80600081146132dc576040519150601f19603f3d011682016040523d82523d6000602084013e6132e1565b606091505b50915091506132f1828286613302565b979650505050505050565b3b151590565b60608315613311575081613199565b8251156133215782518084602001fd5b8160405162461bcd60e51b81526004018080602001828103825283818151815260200191508051906020019080838360005b8381101561336b578181015183820152602001613353565b50505050905090810190601f1680156133985780820380516001836020036101000a031916815260200191505b509250505060405180910390fdfe5f5f7061727365417373657473466f72417070726f76654173736574733a20556e657175616c206172726179735f5f7061727365417373657473466f724c656e643a20556e737570706f727465642069646c65546f6b656e5f5f7061727365417373657473466f72417070726f76654173736574733a20496e76616c69642072657761726420746f6b656e7061727365417373657473466f724d6574686f643a205f73656c6563746f7220696e76616c6964416464726573733a20696e73756666696369656e742062616c616e636520666f722063616c6c4f6e6c792074686520496e746567726174696f6e4d616e616765722063616e2063616c6c20746869732066756e6374696f6e636c61696d52657761726473416e645265696e766573743a20556e737570706f727465642069646c65546f6b656e5f5f7061727365417373657473466f72436c61696d526577617264733a20556e737570706f727465642069646c65546f6b656e5f5f7061727365417373657473466f7252656465656d3a20556e737570706f727465642069646c65546f6b656e5f5f7061727365417373657473466f72436c61696d52657761726473416e64537761703a20556e737570706f727465642069646c65546f6b656e5f5f7061727365417373657473466f72417070726f76654173736574733a20556e737570706f727465642069646c65546f6b656e5361666545524332303a204552433230206f7065726174696f6e20646964206e6f7420737563636565645361666545524332303a20617070726f76652066726f6d206e6f6e2d7a65726f20746f206e6f6e2d7a65726f20616c6c6f77616e6365a26469706673582212201d7ff279d2e20081e51559916c6064fd3d9ce62155936999a3dc3623a3bf883664736f6c634300060c0033",
  "devdoc": {
    "author": "Enzyme Council <security@enzyme.finance>",
    "details": "There are some idiosyncrasies of reward accrual and claiming in IdleTokens that are handled by this adapter: - Rewards accrue to the IdleToken holder, but the accrued amount is passed to the recipient of a transfer. - Claiming rewards cannot be done on behalf of a holder, but must be done directly. - Claiming rewards occurs automatically upon redeeming, but there are situations when it is difficult to know whether to expect incoming rewards (e.g., after a user mints idleTokens and then redeems before any other user has interacted with the protocol, then getGovTokensAmounts() will return 0 balances). Because of this difficulty - and in keeping with how other adapters treat claimed rewards - this adapter does not report claimed rewards as incomingAssets.",
    "kind": "dev",
    "methods": {
      "approveAssets(address,bytes,bytes)": {
        "details": "No logic necessary. Exists only to grant adapter with necessary approvals from the vault, which takes place in the IntegrationManager."
      },
      "claimRewards(address,bytes,bytes)": {
        "params": {
          "_encodedAssetTransferArgs": "Encoded args for expected assets to spend and receive",
          "_encodedCallArgs": "The encoded parameters for the callOnIntegration",
          "_vaultProxy": "The VaultProxy of the calling fund"
        }
      },
      "claimRewardsAndReinvest(address,bytes,bytes)": {
        "details": "The `useFullBalances` option indicates whether to use only the newly claimed balances of rewards tokens, or whether to use the full balances of these assets in the vault. If full asset balances are to be used, then this requires the adapter to be granted an allowance of each reward token by the vault. For supported assets (e.g., COMP), this must be done via the `approveAssets()` function in this adapter. For unsupported assets (e.g., IDLE), this must be done via `ComptrollerProxy.vaultCallOnContract()`, if allowed.",
        "params": {
          "_encodedAssetTransferArgs": "Encoded args for expected assets to spend and receive",
          "_encodedCallArgs": "Encoded order parameters",
          "_vaultProxy": "The VaultProxy of the calling fund"
        }
      },
      "claimRewardsAndSwap(address,bytes,bytes)": {
        "details": "The `useFullBalances` option indicates whether to use only the newly claimed balances of rewards tokens, or whether to use the full balances of these assets in the vault. If full asset balances are to be used, then this requires the adapter to be granted an allowance of each reward token by the vault. For supported assets (e.g., COMP), this must be done via the `approveAssets()` function in this adapter. For unsupported assets (e.g., IDLE), this must be done via `ComptrollerProxy.vaultCallOnContract()`, if allowed.",
        "params": {
          "_encodedAssetTransferArgs": "Encoded args for expected assets to spend and receive",
          "_encodedCallArgs": "Encoded order parameters",
          "_vaultProxy": "The VaultProxy of the calling fund"
        }
      },
      "getIdlePriceFeed()": {
        "returns": {
          "idlePriceFeed_": "The `IDLE_PRICE_FEED` variable value"
        }
      },
      "getIntegrationManager()": {
        "returns": {
          "integrationManager_": "The `INTEGRATION_MANAGER` variable value"
        }
      },
      "getUniswapV2Router2()": {
        "returns": {
          "router_": "The `UNISWAP_V2_ROUTER2` variable value"
        }
      },
      "getWethToken()": {
        "returns": {
          "wethToken_": "The `WETH_TOKEN` variable value"
        }
      },
      "identifier()": {
        "returns": {
          "identifier_": "An identifier string"
        }
      },
      "lend(address,bytes,bytes)": {
        "params": {
          "_encodedAssetTransferArgs": "Encoded args for expected assets to spend and receive",
          "_vaultProxy": "The VaultProxy of the calling fund"
        }
      },
      "parseAssetsForMethod(bytes4,bytes)": {
        "params": {
          "_encodedCallArgs": "The encoded parameters for the callOnIntegration",
          "_selector": "The function selector for the callOnIntegration"
        },
        "returns": {
          "incomingAssets_": "The assets to receive in the call",
          "minIncomingAssetAmounts_": "The min asset amounts to receive in the call",
          "spendAssetAmounts_": "The max asset amounts to spend in the call",
          "spendAssetsHandleType_": "A type that dictates how to handle granting the adapter access to spend assets (`None` by default)",
          "spendAssets_": "The assets to spend in the call"
        }
      },
      "redeem(address,bytes,bytes)": {
        "details": "This will also pay out any due gov token rewards. We use the full IdleToken balance of the current contract rather than the user input for the corner case of a prior balance existing in the current contract, which would throw off the per-user avg price of the IdleToken used by Idle, and would leave the initial token balance in the current contract post-tx.",
        "params": {
          "_encodedAssetTransferArgs": "Encoded args for expected assets to spend and receive",
          "_encodedCallArgs": "The encoded parameters for the callOnIntegration",
          "_vaultProxy": "The VaultProxy of the calling fund"
        }
      }
    },
    "title": "IdleAdapter Contract",
    "version": 1
  },
  "userdoc": {
    "kind": "user",
    "methods": {
      "approveAssets(address,bytes,bytes)": {
        "notice": "Approves assets from the vault to be used by this contract."
      },
      "claimRewards(address,bytes,bytes)": {
        "notice": "Claims rewards for a givenIdleToken"
      },
      "claimRewardsAndReinvest(address,bytes,bytes)": {
        "notice": "Claims rewards and then compounds the rewards tokens back into the idleToken"
      },
      "claimRewardsAndSwap(address,bytes,bytes)": {
        "notice": "Claims rewards and then swaps the rewards tokens to the specified asset via UniswapV2"
      },
      "getIdlePriceFeed()": {
        "notice": "Gets the `IDLE_PRICE_FEED` variable"
      },
      "getIntegrationManager()": {
        "notice": "Gets the `INTEGRATION_MANAGER` variable"
      },
      "getUniswapV2Router2()": {
        "notice": "Gets the `UNISWAP_V2_ROUTER2` variable"
      },
      "getWethToken()": {
        "notice": "Gets the `WETH_TOKEN` variable"
      },
      "identifier()": {
        "notice": "Provides a constant string identifier for an adapter"
      },
      "lend(address,bytes,bytes)": {
        "notice": "Lends an amount of a token for idleToken"
      },
      "parseAssetsForMethod(bytes4,bytes)": {
        "notice": "Parses the expected assets to receive from a call on integration"
      },
      "redeem(address,bytes,bytes)": {
        "notice": "Redeems an amount of idleToken for its underlying asset"
      }
    },
    "notice": "Adapter for Idle Lending <https://idle.finance/>",
    "version": 1
  },
  "storageLayout": {
    "storage": [],
    "types": null
  }
}