{
  "address": "0x2B3189e520608b6BBf7666442eF52B185EefcD5c",
  "abi": [
    {
      "inputs": [
        {
          "internalType": "address",
          "name": "_fundDeployer",
          "type": "address"
        },
        {
          "internalType": "address",
          "name": "_policyManager",
          "type": "address"
        },
        {
          "internalType": "address",
          "name": "_derivativePriceFeed",
          "type": "address"
        },
        {
          "internalType": "address",
          "name": "_primitivePriceFeed",
          "type": "address"
        }
      ],
      "stateMutability": "nonpayable",
      "type": "constructor"
    },
    {
      "anonymous": false,
      "inputs": [
        {
          "indexed": true,
          "internalType": "address",
          "name": "adapter",
          "type": "address"
        },
        {
          "indexed": true,
          "internalType": "string",
          "name": "identifier",
          "type": "string"
        }
      ],
      "name": "AdapterDeregistered",
      "type": "event"
    },
    {
      "anonymous": false,
      "inputs": [
        {
          "indexed": true,
          "internalType": "address",
          "name": "adapter",
          "type": "address"
        },
        {
          "indexed": true,
          "internalType": "string",
          "name": "identifier",
          "type": "string"
        }
      ],
      "name": "AdapterRegistered",
      "type": "event"
    },
    {
      "anonymous": false,
      "inputs": [
        {
          "indexed": true,
          "internalType": "address",
          "name": "comptrollerProxy",
          "type": "address"
        },
        {
          "indexed": true,
          "internalType": "address",
          "name": "account",
          "type": "address"
        }
      ],
      "name": "AuthUserAddedForFund",
      "type": "event"
    },
    {
      "anonymous": false,
      "inputs": [
        {
          "indexed": true,
          "internalType": "address",
          "name": "comptrollerProxy",
          "type": "address"
        },
        {
          "indexed": true,
          "internalType": "address",
          "name": "account",
          "type": "address"
        }
      ],
      "name": "AuthUserRemovedForFund",
      "type": "event"
    },
    {
      "anonymous": false,
      "inputs": [
        {
          "indexed": true,
          "internalType": "address",
          "name": "comptrollerProxy",
          "type": "address"
        },
        {
          "indexed": false,
          "internalType": "address",
          "name": "vaultProxy",
          "type": "address"
        },
        {
          "indexed": false,
          "internalType": "address",
          "name": "caller",
          "type": "address"
        },
        {
          "indexed": true,
          "internalType": "address",
          "name": "adapter",
          "type": "address"
        },
        {
          "indexed": true,
          "internalType": "bytes4",
          "name": "selector",
          "type": "bytes4"
        },
        {
          "indexed": false,
          "internalType": "bytes",
          "name": "integrationData",
          "type": "bytes"
        },
        {
          "indexed": false,
          "internalType": "address[]",
          "name": "incomingAssets",
          "type": "address[]"
        },
        {
          "indexed": false,
          "internalType": "uint256[]",
          "name": "incomingAssetAmounts",
          "type": "uint256[]"
        },
        {
          "indexed": false,
          "internalType": "address[]",
          "name": "outgoingAssets",
          "type": "address[]"
        },
        {
          "indexed": false,
          "internalType": "uint256[]",
          "name": "outgoingAssetAmounts",
          "type": "uint256[]"
        }
      ],
      "name": "CallOnIntegrationExecutedForFund",
      "type": "event"
    },
    {
      "inputs": [
        {
          "internalType": "bool",
          "name": "",
          "type": "bool"
        }
      ],
      "name": "activateForFund",
      "outputs": [],
      "stateMutability": "nonpayable",
      "type": "function"
    },
    {
      "inputs": [
        {
          "internalType": "address",
          "name": "_adapter",
          "type": "address"
        }
      ],
      "name": "adapterIsRegistered",
      "outputs": [
        {
          "internalType": "bool",
          "name": "isRegistered_",
          "type": "bool"
        }
      ],
      "stateMutability": "view",
      "type": "function"
    },
    {
      "inputs": [
        {
          "internalType": "address",
          "name": "_comptrollerProxy",
          "type": "address"
        },
        {
          "internalType": "address",
          "name": "_who",
          "type": "address"
        }
      ],
      "name": "addAuthUserForFund",
      "outputs": [],
      "stateMutability": "nonpayable",
      "type": "function"
    },
    {
      "inputs": [],
      "name": "deactivateForFund",
      "outputs": [],
      "stateMutability": "nonpayable",
      "type": "function"
    },
    {
      "inputs": [
        {
          "internalType": "address[]",
          "name": "_adapters",
          "type": "address[]"
        }
      ],
      "name": "deregisterAdapters",
      "outputs": [],
      "stateMutability": "nonpayable",
      "type": "function"
    },
    {
      "inputs": [],
      "name": "getDerivativePriceFeed",
      "outputs": [
        {
          "internalType": "address",
          "name": "derivativePriceFeed_",
          "type": "address"
        }
      ],
      "stateMutability": "view",
      "type": "function"
    },
    {
      "inputs": [],
      "name": "getFundDeployer",
      "outputs": [
        {
          "internalType": "address",
          "name": "fundDeployer_",
          "type": "address"
        }
      ],
      "stateMutability": "view",
      "type": "function"
    },
    {
      "inputs": [],
      "name": "getOwner",
      "outputs": [
        {
          "internalType": "address",
          "name": "owner_",
          "type": "address"
        }
      ],
      "stateMutability": "view",
      "type": "function"
    },
    {
      "inputs": [],
      "name": "getPolicyManager",
      "outputs": [
        {
          "internalType": "address",
          "name": "policyManager_",
          "type": "address"
        }
      ],
      "stateMutability": "view",
      "type": "function"
    },
    {
      "inputs": [],
      "name": "getPrimitivePriceFeed",
      "outputs": [
        {
          "internalType": "address",
          "name": "primitivePriceFeed_",
          "type": "address"
        }
      ],
      "stateMutability": "view",
      "type": "function"
    },
    {
      "inputs": [],
      "name": "getRegisteredAdapters",
      "outputs": [
        {
          "internalType": "address[]",
          "name": "registeredAdaptersArray_",
          "type": "address[]"
        }
      ],
      "stateMutability": "view",
      "type": "function"
    },
    {
      "inputs": [
        {
          "internalType": "address",
          "name": "_comptrollerProxy",
          "type": "address"
        }
      ],
      "name": "getVaultProxyForFund",
      "outputs": [
        {
          "internalType": "address",
          "name": "vaultProxy_",
          "type": "address"
        }
      ],
      "stateMutability": "view",
      "type": "function"
    },
    {
      "inputs": [
        {
          "internalType": "address",
          "name": "_comptrollerProxy",
          "type": "address"
        },
        {
          "internalType": "address",
          "name": "_who",
          "type": "address"
        }
      ],
      "name": "isAuthUserForFund",
      "outputs": [
        {
          "internalType": "bool",
          "name": "isAuthUser_",
          "type": "bool"
        }
      ],
      "stateMutability": "view",
      "type": "function"
    },
    {
      "inputs": [
        {
          "internalType": "address",
          "name": "_caller",
          "type": "address"
        },
        {
          "internalType": "uint256",
          "name": "_actionId",
          "type": "uint256"
        },
        {
          "internalType": "bytes",
          "name": "_callArgs",
          "type": "bytes"
        }
      ],
      "name": "receiveCallFromComptroller",
      "outputs": [],
      "stateMutability": "nonpayable",
      "type": "function"
    },
    {
      "inputs": [
        {
          "internalType": "address[]",
          "name": "_adapters",
          "type": "address[]"
        }
      ],
      "name": "registerAdapters",
      "outputs": [],
      "stateMutability": "nonpayable",
      "type": "function"
    },
    {
      "inputs": [
        {
          "internalType": "address",
          "name": "_comptrollerProxy",
          "type": "address"
        },
        {
          "internalType": "address",
          "name": "_who",
          "type": "address"
        }
      ],
      "name": "removeAuthUserForFund",
      "outputs": [],
      "stateMutability": "nonpayable",
      "type": "function"
    },
    {
      "inputs": [
        {
          "internalType": "bytes",
          "name": "",
          "type": "bytes"
        }
      ],
      "name": "setConfigForFund",
      "outputs": [],
      "stateMutability": "nonpayable",
      "type": "function"
    }
  ],
  "transactionHash": "0x77c453c2db3b40176f82439baa63a6766099e095831769b7a96980fd3d797a12",
  "args": [
    "0x734ceE454CE959387170bfc301e3C77fF8305383",
    "0xeAAB8407Ada116cd8D2aF1B779438C40BeD69e81",
    "0x69Cdc223827cCa7be21Ae082BBAfC1bd62222182",
    "0x993cC884478d1cf0938e51f2bBa89C94891Bac40"
  ],
  "solcInputHash": "d9ca3c6c6b3274b287f1d69a6e9ab10d",
  "bytecode": "0x61010060405234801561001157600080fd5b5060405161445f38038061445f8339818101604052608081101561003457600080fd5b508051602082015160408301516060938401516001600160601b031993851b841660805290841b831660a05290831b821660c05290911b1660e05260805160601c60a05160601c60c05160601c60e05160601c6143966100c96000398061074c5280612163525080610f565280611ade5280611d1552508061070752806122025250806107f25280610c0752506143966000f3fe608060405234801561001057600080fd5b506004361061010b5760003560e01c8063893d20e8116100a2578063a7f3b0a411610071578063a7f3b0a414610388578063bd8e959a146103f6578063d44ad6cb146103fe578063e6c41ec914610406578063ecbed100146104345761010b565b8063893d20e81461029c57806389cbe1d0146102a4578063972b3de11461031257806397c0ac87146103805761010b565b806349be72f3116100de57806349be72f314610221578063501cc76114610229578063742695311461025757806380d570631461027d5761010b565b80631bee801e1461011057806321121528146101955780632d98a99b146101d757806346790346146101fb575b600080fd5b6101936004803603606081101561012657600080fd5b6001600160a01b0382351691602081013591810190606081016040820135600160201b81111561015557600080fd5b82018360208201111561016757600080fd5b803590602001918460018302840111600160201b8311171561018857600080fd5b50909250905061048c565b005b6101c3600480360360408110156101ab57600080fd5b506001600160a01b0381358116916020013516610641565b604080519115158252519081900360200190f35b6101df610705565b604080516001600160a01b039092168252519081900360200190f35b6101df6004803603602081101561021157600080fd5b50356001600160a01b0316610729565b6101df61074a565b6101936004803603604081101561023f57600080fd5b506001600160a01b038135811691602001351661076e565b6101c36004803603602081101561026d57600080fd5b50356001600160a01b03166107d4565b6101936004803603602081101561029357600080fd5b503515156107e1565b6101df6107ee565b610193600480360360208110156102ba57600080fd5b810190602081018135600160201b8111156102d457600080fd5b8201836020820111156102e657600080fd5b803590602001918460018302840111600160201b8311171561030757600080fd5b5090925090506107ea565b6101936004803603602081101561032857600080fd5b810190602081018135600160201b81111561034257600080fd5b82018360208201111561035457600080fd5b803590602001918460208302840111600160201b8311171561037557600080fd5b50909250905061087a565b6101df610c05565b6101936004803603602081101561039e57600080fd5b810190602081018135600160201b8111156103b857600080fd5b8201836020820111156103ca57600080fd5b803590602001918460208302840111600160201b831117156103eb57600080fd5b509092509050610c29565b610193610f35565b6101df610f54565b6101936004803603604081101561041c57600080fd5b506001600160a01b0381358116916020013516610f78565b61043c610fe1565b60408051602080825283518183015283519192839290830191858101910280838360005b83811015610478578181015183820152602001610460565b505050509050019250505060405180910390f35b336000908152602081905260409020546001600160a01b0316806104e15760405162461bcd60e51b815260040180806020018281038252602e815260200180613d7d602e913960400191505060405180910390fd5b6104eb3386610641565b6105265760405162461bcd60e51b815260040180806020018281038252603281526020018061432f6032913960400191505060405180910390fd5b836105715761056c858285858080601f01602080910402602001604051908101604052809392919081815260200183838082843760009201919091525061107792505050565b61063a565b83600114156105ba5761056c8184848080601f0160208091040260200160405190810160405280939291908181526020018383808284376000920191909152506110d892505050565b83600214156106035761056c8184848080601f0160208091040260200160405190810160405280939291908181526020018383808284376000920191909152506112d192505050565b60405162461bcd60e51b815260040180806020018281038252602d815260200180613fa9602d913960400191505060405180910390fd5b5050505050565b6001600160a01b03808316600090815260036020908152604080832093851683529290529081205460ff16806106fc57506001600160a01b0380841660009081526020818152604091829020548251631127a41d60e31b8152925193169263893d20e8926004808201939291829003018186803b1580156106c157600080fd5b505afa1580156106d5573d6000803e3d6000fd5b505050506040513d60208110156106eb57600080fd5b50516001600160a01b038381169116145b90505b92915050565b7f000000000000000000000000000000000000000000000000000000000000000090565b6001600160a01b03808216600090815260208190526040902054165b919050565b7f000000000000000000000000000000000000000000000000000000000000000090565b61077a8282600061153a565b6001600160a01b03808316600081815260036020908152604080832094861680845294909152808220805460ff19169055517fba8783abf5207a89d51b58dcb44670608cf37909d412fca4e5a1639b09d741589190a35050565b60006106ff60018361177a565b6107ea3361178f565b5050565b60007f00000000000000000000000000000000000000000000000000000000000000006001600160a01b031663893d20e86040518163ffffffff1660e01b815260040160206040518083038186803b15801561084957600080fd5b505afa15801561085d573d6000803e3d6000fd5b505050506040513d602081101561087357600080fd5b5051905090565b6108826107ee565b6001600160a01b0316336001600160a01b0316146108d15760405162461bcd60e51b8152600401808060200182810382526049815260200180613ea86049913960600191505060405180910390fd5b8061090d5760405162461bcd60e51b815260040180806020018281038252602b815260200180613f7e602b913960400191505060405180910390fd5b60005b81811015610c0057600083838381811061092657fe5b905060200201356001600160a01b03166001600160a01b0316141561097c5760405162461bcd60e51b8152600401808060200182810382526029815260200180613e7f6029913960400191505060405180910390fd5b6109a083838381811061098b57fe5b905060200201356001600160a01b03166107d4565b156109dc5760405162461bcd60e51b815260040180806020018281038252602c81526020018061413f602c913960400191505060405180910390fd5b610a0b8383838181106109eb57fe5b905060200201356001600160a01b0316600161197490919063ffffffff16565b50828282818110610a1857fe5b905060200201356001600160a01b03166001600160a01b0316637998a1c46040518163ffffffff1660e01b815260040160006040518083038186803b158015610a6057600080fd5b505afa158015610a74573d6000803e3d6000fd5b505050506040513d6000823e601f3d908101601f191682016040526020811015610a9d57600080fd5b8101908080516040519392919084600160201b821115610abc57600080fd5b908301906020820185811115610ad157600080fd5b8251600160201b811182820188101715610aea57600080fd5b82525081516020918201929091019080838360005b83811015610b17578181015183820152602001610aff565b50505050905090810190601f168015610b445780820380516001836020036101000a031916815260200191505b506040525050506040518082805190602001908083835b60208310610b7a5780518252601f199092019160209182019101610b5b565b6001836020036101000a0380198251168184511680821785525050505050509050019150506040518091039020838383818110610bb357fe5b905060200201356001600160a01b03166001600160a01b03167f1e4247fdab5708a9838dfa7049b607d56751d7e44584c555c3ca8883b992806560405160405180910390a3600101610910565b505050565b7f000000000000000000000000000000000000000000000000000000000000000090565b610c316107ee565b6001600160a01b0316336001600160a01b031614610c805760405162461bcd60e51b8152600401808060200182810382526049815260200180613ea86049913960600191505060405180910390fd5b80610cbc5760405162461bcd60e51b815260040180806020018281038252602d815260200180613f1d602d913960400191505060405180910390fd5b60005b81811015610c0057610cd683838381811061098b57fe5b610d115760405162461bcd60e51b815260040180806020018281038252602d815260200180614231602d913960400191505060405180910390fd5b610d40838383818110610d2057fe5b905060200201356001600160a01b0316600161198990919063ffffffff16565b50828282818110610d4d57fe5b905060200201356001600160a01b03166001600160a01b0316637998a1c46040518163ffffffff1660e01b815260040160006040518083038186803b158015610d9557600080fd5b505afa158015610da9573d6000803e3d6000fd5b505050506040513d6000823e601f3d908101601f191682016040526020811015610dd257600080fd5b8101908080516040519392919084600160201b821115610df157600080fd5b908301906020820185811115610e0657600080fd5b8251600160201b811182820188101715610e1f57600080fd5b82525081516020918201929091019080838360005b83811015610e4c578181015183820152602001610e34565b50505050905090810190601f168015610e795780820380516001836020036101000a031916815260200191505b506040525050506040518082805190602001908083835b60208310610eaf5780518252601f199092019160209182019101610e90565b6001836020036101000a0380198251168184511680821785525050505050509050019150506040518091039020838383818110610ee857fe5b905060200201356001600160a01b03166001600160a01b03167f82e6bc7d4d025a3153d55a40772ee04910b5eb018594e8e4747755898c12bcf460405160405180910390a3600101610cbf565b33600090815260208190526040902080546001600160a01b0319169055565b7f000000000000000000000000000000000000000000000000000000000000000090565b610f848282600161153a565b6001600160a01b03808316600081815260036020908152604080832094861680845294909152808220805460ff19166001179055517f7f92357681033cc9a5f4128ee1e66a08f1589a20b741353202780c556791c1279190a35050565b6060610fed600161199e565b67ffffffffffffffff8111801561100357600080fd5b5060405190808252806020026020018201604052801561102d578160200160208202803683370190505b50905060005b8151811015611073576110476001826119a9565b82828151811061105357fe5b6001600160a01b0390921660209283029190910190910152600101611033565b5090565b6000806060611085846119b5565b9250925092506110958383611a95565b6060806060806110a58989611bb8565b93509350935093506110bb878786868686611d13565b6110cc898b89898989898989611f66565b50505050505050505050565b60608180602001905160208110156110ef57600080fd5b8101908080516040519392919084600160201b82111561110e57600080fd5b90830190602082018581111561112357600080fd5b82518660208202830111600160201b8211171561113f57600080fd5b82525081516020918201928201910280838360005b8381101561116c578181015183820152602001611154565b50505050905001604052505050905060005b81518110156112cb576111a382828151811061119657fe5b602002602001015161215f565b6111de5760405162461bcd60e51b81526004018080602001828103825260308152602001806142cd6030913960400191505060405180910390fd5b8181815181106111ea57fe5b60200260200101516001600160a01b03166370a08231856040518263ffffffff1660e01b815260040180826001600160a01b0316815260200191505060206040518083038186803b15801561123e57600080fd5b505afa158015611252573d6000803e3d6000fd5b505050506040513d602081101561126857600080fd5b5051156112a65760405162461bcd60e51b8152600401808060200182810382526032815260200180613dab6032913960400191505060405180910390fd5b6112c3338383815181106112b657fe5b602002602001015161229f565b60010161117e565b50505050565b60608180602001905160208110156112e857600080fd5b8101908080516040519392919084600160201b82111561130757600080fd5b90830190602082018581111561131c57600080fd5b82518660208202830111600160201b8211171561133857600080fd5b82525081516020918201928201910280838360005b8381101561136557818101518382015260200161134d565b5050505090500160405250505090506000336001600160a01b031663e269c3d66040518163ffffffff1660e01b815260040160206040518083038186803b1580156113af57600080fd5b505afa1580156113c3573d6000803e3d6000fd5b505050506040513d60208110156113d957600080fd5b5051905060005b825181101561063a57816001600160a01b03168382815181106113ff57fe5b60200260200101516001600160a01b0316141561144d5760405162461bcd60e51b81526004018080602001828103825260428152602001806141ef6042913960600191505060405180910390fd5b82818151811061145957fe5b60200260200101516001600160a01b03166370a08231866040518263ffffffff1660e01b815260040180826001600160a01b0316815260200191505060206040518083038186803b1580156114ad57600080fd5b505afa1580156114c1573d6000803e3d6000fd5b505050506040513d60208110156114d757600080fd5b5051156115155760405162461bcd60e51b81526004018080602001828103825260358152602001806140dd6035913960400191505060405180910390fd5b6115323384838151811061152557fe5b6020026020010151612371565b6001016113e0565b6001600160a01b03838116600090815260208190526040902054166115905760405162461bcd60e51b815260040180806020018281038252603281526020018061416b6032913960400191505060405180910390fd5b6001600160a01b03808416600090815260208181526040808320548151631127a41d60e31b815291519394169263893d20e892600480840193919291829003018186803b1580156115e057600080fd5b505afa1580156115f4573d6000803e3d6000fd5b505050506040513d602081101561160a57600080fd5b50519050336001600160a01b038216146116555760405162461bcd60e51b8152600401808060200182810382526041815260200180613e3e6041913960600191505060405180910390fd5b806001600160a01b0316836001600160a01b031614156116a65760405162461bcd60e51b8152600401808060200182810382526034815260200180613f4a6034913960400191505060405180910390fd5b8115611716576001600160a01b0380851660009081526003602090815260408083209387168352929052205460ff16156117115760405162461bcd60e51b815260040180806020018281038252603c8152602001806140a1603c913960400191505060405180910390fd5b6112cb565b6001600160a01b0380851660009081526003602090815260408083209387168352929052205460ff166112cb5760405162461bcd60e51b8152600401808060200182810382526038815260200180613e066038913960400191505060405180910390fd5b60006106fc836001600160a01b0384166123bc565b6001600160a01b03818116600090815260208190526040812054909116156117e85760405162461bcd60e51b8152600401808060200182810382526025815260200180613d086025913960400191505060405180910390fd5b816001600160a01b031663c98091876040518163ffffffff1660e01b815260040160206040518083038186803b15801561182157600080fd5b505afa158015611835573d6000803e3d6000fd5b505050506040513d602081101561184b57600080fd5b505190506001600160a01b0381166118945760405162461bcd60e51b815260040180806020018281038252602c815260200180613ef1602c913960400191505060405180910390fd5b806001600160a01b0316635a53e3486040518163ffffffff1660e01b815260040160206040518083038186803b1580156118cd57600080fd5b505afa1580156118e1573d6000803e3d6000fd5b505050506040513d60208110156118f757600080fd5b50516001600160a01b038381169116146119425760405162461bcd60e51b815260040180806020018281038252603581526020018061406c6035913960400191505060405180910390fd5b6001600160a01b03918216600090815260208190526040902080546001600160a01b0319169282169290921790915590565b60006106fc836001600160a01b0384166123d4565b60006106fc836001600160a01b03841661241e565b60006106ff826124e4565b60006106fc83836124e8565b60008060608380602001905160608110156119cf57600080fd5b81516020830151604080850180519151939592948301929184600160201b8211156119f957600080fd5b908301906020820185811115611a0e57600080fd5b8251600160201b811182820188101715611a2757600080fd5b82525081516020918201929091019080838360005b83811015611a54578181015183820152602001611a3c565b50505050905090810190601f168015611a815780820380516001836020036101000a031916815260200191505b506040525050509250925092509193909250565b604080516001600160a01b0384811660208301526001600160e01b03198416828401528251808303840181526060830193849052630442bad560e01b90935233606483018181527f000000000000000000000000000000000000000000000000000000000000000090921693630442bad593919260049260840183815260200180602001828103825283818151815260200191508051906020019080838360005b83811015611b4e578181015183820152602001611b36565b50505050905090810190601f168015611b7b5780820380516001836020036101000a031916815260200191505b50945050505050600060405180830381600087803b158015611b9c57600080fd5b505af1158015611bb0573d6000803e3d6000fd5b505050505050565b606080606080606080606060006060806060611bd48d8d61254c565b9650965096509650965096509650611ce98d8d8686868c60405160200180856003811115611bfe57fe5b8152602001806020018060200180602001848103845287818151815260200191508051906020019060200280838360005b83811015611c47578181015183820152602001611c2f565b50505050905001848103835286818151815260200191508051906020019060200280838360005b83811015611c86578181015183820152602001611c6e565b50505050905001848103825285818151815260200191508051906020019060200280838360005b83811015611cc5578181015183820152602001611cad565b50505050905001975050505050505050604051602081830303815290604052612f22565b611cf98d88888888888888613192565b929d50909b50995097505050505050505092959194509250565b7f00000000000000000000000000000000000000000000000000000000000000006001600160a01b0316630442bad533600589898989898960405160200180876001600160a01b03168152602001866001600160e01b031916815260200180602001806020018060200180602001858103855289818151815260200191508051906020019060200280838360005b83811015611db9578181015183820152602001611da1565b50505050905001858103845288818151815260200191508051906020019060200280838360005b83811015611df8578181015183820152602001611de0565b50505050905001858103835287818151815260200191508051906020019060200280838360005b83811015611e37578181015183820152602001611e1f565b50505050905001858103825286818151815260200191508051906020019060200280838360005b83811015611e76578181015183820152602001611e5e565b505050509050019a50505050505050505050506040516020818303038152906040526040518463ffffffff1660e01b815260040180846001600160a01b03168152602001836005811115611ec657fe5b815260200180602001828103825283818151815260200191508051906020019080838360005b83811015611f04578181015183820152602001611eec565b50505050905090810190601f168015611f315780820380516001836020036101000a031916815260200191505b50945050505050600060405180830381600087803b158015611f5257600080fd5b505af11580156110cc573d6000803e3d6000fd5b856001600160e01b031916876001600160a01b0316336001600160a01b03167f72a42ea24876d542424742125bf664f755114a3dbf2b409ab609100c4d4612368c8c8a8a8a8a8a60405180886001600160a01b03168152602001876001600160a01b03168152602001806020018060200180602001806020018060200186810386528b818151815260200191508051906020019080838360005b83811015612018578181015183820152602001612000565b50505050905090810190601f1680156120455780820380516001836020036101000a031916815260200191505b5086810385528a5181528a51602091820191808d01910280838360005b8381101561207a578181015183820152602001612062565b50505050905001868103845289818151815260200191508051906020019060200280838360005b838110156120b95781810151838201526020016120a1565b50505050905001868103835288818151815260200191508051906020019060200280838360005b838110156120f85781810151838201526020016120e0565b50505050905001868103825287818151815260200191508051906020019060200280838360005b8381101561213757818101518382015260200161211f565b505050509050019c5050505050505050505050505060405180910390a4505050505050505050565b60007f00000000000000000000000000000000000000000000000000000000000000006001600160a01b0316639be918e6836040518263ffffffff1660e01b815260040180826001600160a01b0316815260200191505060206040518083038186803b1580156121ce57600080fd5b505afa1580156121e2573d6000803e3d6000fd5b505050506040513d60208110156121f857600080fd5b5051806106ff57507f00000000000000000000000000000000000000000000000000000000000000006001600160a01b0316639be918e6836040518263ffffffff1660e01b815260040180826001600160a01b0316815260200191505060206040518083038186803b15801561226d57600080fd5b505afa158015612281573d6000803e3d6000fd5b505050506040513d602081101561229757600080fd5b505192915050565b604080516001600160a01b0383811660208084019190915283518084039091018152828401938490526310acd06d60e01b9093528416916310acd06d916006919060440180835b815260200180602001828103825283818151815260200191508051906020019080838360005b8381101561232457818101518382015260200161230c565b50505050905090810190601f1680156123515780820380516001836020036101000a031916815260200191505b509350505050600060405180830381600087803b158015611b9c57600080fd5b604080516001600160a01b0383811660208084019190915283518084039091018152828401938490526310acd06d60e01b9093528416916310acd06d916007919060440180836122e6565b60009081526001919091016020526040902054151590565b60006123e083836123bc565b612416575081546001818101845560008481526020808220909301849055845484825282860190935260409020919091556106ff565b5060006106ff565b600081815260018301602052604081205480156124da578354600019808301919081019060009087908390811061245157fe5b906000526020600020015490508087600001848154811061246e57fe5b60009182526020808320909101929092558281526001898101909252604090209084019055865487908061249e57fe5b600190038181906000526020600020016000905590558660010160008781526020019081526020016000206000905560019450505050506106ff565b60009150506106ff565b5490565b8154600090821061252a5760405162461bcd60e51b8152600401808060200182810382526022815260200180613ce66022913960400191505060405180910390fd5b82600001828154811061253957fe5b9060005260206000200154905092915050565b60608060606000606080606060008060606125668b6119b5565b925092509250612575836107d4565b6125b05760405162461bcd60e51b815260040180806020018281038252602c8152602001806141c3602c913960400191505060405180910390fd5b60408051633b663d6360e11b81526001600160e01b0319841660048201908152602482019283528351604483015283516001600160a01b038716936376cc7ac6938793879390929160640190602085019080838360005b8381101561261f578181015183820152602001612607565b50505050905090810190601f16801561264c5780820380516001836020036101000a031916815260200191505b50935050505060006040518083038186803b15801561266a57600080fd5b505afa15801561267e573d6000803e3d6000fd5b505050506040513d6000823e601f3d908101601f1916820160405260a08110156126a757600080fd5b815160208301805160405192949293830192919084600160201b8211156126cd57600080fd5b9083019060208201858111156126e257600080fd5b82518660208202830111600160201b821117156126fe57600080fd5b82525081516020918201928201910280838360005b8381101561272b578181015183820152602001612713565b5050505090500160405260200180516040519392919084600160201b82111561275357600080fd5b90830190602082018581111561276857600080fd5b82518660208202830111600160201b8211171561278457600080fd5b82525081516020918201928201910280838360005b838110156127b1578181015183820152602001612799565b5050505090500160405260200180516040519392919084600160201b8211156127d957600080fd5b9083019060208201858111156127ee57600080fd5b82518660208202830111600160201b8211171561280a57600080fd5b82525081516020918201928201910280838360005b8381101561283757818101518382015260200161281f565b5050505090500160405260200180516040519392919084600160201b82111561285f57600080fd5b90830190602082018581111561287457600080fd5b82518660208202830111600160201b8211171561289057600080fd5b82525081516020918201928201910280838360005b838110156128bd5781810151838201526020016128a5565b50505050905001604052505050809c50819e50829950839a50849b505050505050845186511461291e5760405162461bcd60e51b815260040180806020018281038252602c815260200180614040602c913960400191505060405180910390fd5b87518a511461295e5760405162461bcd60e51b815260040180806020018281038252602f81526020018061425e602f913960400191505060405180910390fd5b612967866131d6565b6129a25760405162461bcd60e51b815260040180806020018281038252602681526020018061419d6026913960400191505060405180910390fd5b6129ab8a6131d6565b6129e65760405162461bcd60e51b8152600401808060200182810382526029815260200180613ddd6029913960400191505060405180910390fd5b89518c9067ffffffffffffffff81118015612a0057600080fd5b50604051908082528060200260200182016040528015612a2a578160200160208202803683370190505b50995060005b8b51811015612c7a5760006001600160a01b03168c8281518110612a5057fe5b60200260200101516001600160a01b03161415612a9e5760405162461bcd60e51b815260040180806020018281038252602d815260200180613fd6602d913960400191505060405180910390fd5b60008a8281518110612aac57fe5b602002602001015111612af05760405162461bcd60e51b81526004018080602001828103825260328152602001806142fd6032913960400191505060405180910390fd5b612aff8c828151811061119657fe5b612b3a5760405162461bcd60e51b815260040180806020018281038252602e815260200180613d4f602e913960400191505060405180910390fd5b816001600160a01b031663797ed3398d8381518110612b5557fe5b60200260200101516040518263ffffffff1660e01b815260040180826001600160a01b0316815260200191505060206040518083038186803b158015612b9a57600080fd5b505afa158015612bae573d6000803e3d6000fd5b505050506040513d6020811015612bc457600080fd5b505115612c72578b8181518110612bd757fe5b60200260200101516001600160a01b03166370a082318f6040518263ffffffff1660e01b815260040180826001600160a01b0316815260200191505060206040518083038186803b158015612c2b57600080fd5b505afa158015612c3f573d6000803e3d6000fd5b505050506040513d6020811015612c5557600080fd5b50518b518c9083908110612c6557fe5b6020026020010181815250505b600101612a30565b50865167ffffffffffffffff81118015612c9357600080fd5b50604051908082528060200260200182016040528015612cbd578160200160208202803683370190505b50945060005b8751811015612f115760006001600160a01b0316888281518110612ce357fe5b60200260200101516001600160a01b03161415612d315760405162461bcd60e51b8152600401808060200182810382526022815260200180613d2d6022913960400191505060405180910390fd5b6000878281518110612d3f57fe5b602002602001015111612d835760405162461bcd60e51b815260040180806020018281038252602d815260200180614112602d913960400191505060405180910390fd5b612da9888281518110612d9257fe5b60200260200101518d61326a90919063ffffffff16565b612e5457878181518110612db957fe5b60200260200101516001600160a01b03166370a082318f6040518263ffffffff1660e01b815260040180826001600160a01b0316815260200191505060206040518083038186803b158015612e0d57600080fd5b505afa158015612e21573d6000803e3d6000fd5b505050506040513d6020811015612e3757600080fd5b50518651879083908110612e4757fe5b6020026020010181815250505b6001896003811115612e6257fe5b1415612e9f57612e9a33898381518110612e7857fe5b6020026020010151878a8581518110612e8d57fe5b60200260200101516132c0565b612f09565b6002896003811115612ead57fe5b1415612ee557612e9a33898381518110612ec357fe5b6020026020010151878a8581518110612ed857fe5b60200260200101516133bc565b6003896003811115612ef357fe5b1415612f0957612f093389838151811061152557fe5b600101612cc3565b505050505092959891949750929550565b6000806060612f30856119b5565b92509250925060006060846001600160a01b03168489858960405160240180846001600160a01b031681526020018060200180602001838103835285818151815260200191508051906020019080838360005b83811015612f9b578181015183820152602001612f83565b50505050905090810190601f168015612fc85780820380516001836020036101000a031916815260200191505b50838103825284518152845160209182019186019080838360005b83811015612ffb578181015183820152602001612fe3565b50505050905090810190601f1680156130285780820380516001836020036101000a031916815260200191505b5060408051601f198184030181529181526020820180516001600160e01b03166001600160e01b0319909a16999099178952518151919890975087965094509250829150849050835b602083106130905780518252601f199092019160209182019101613071565b6001836020036101000a0380198251168184511680821785525050505050509050019150506000604051808303816000865af19150503d80600081146130f2576040519150601f19603f3d011682016040523d82523d6000602084013e6130f7565b606091505b50915091508181906131875760405162461bcd60e51b81526004018080602001828103825283818151815260200191508051906020019080838360005b8381101561314c578181015183820152602001613134565b50505050905090810190601f1680156131795780820380516001836020036101000a031916815260200191505b509250505060405180910390fd5b505050505050505050565b6060806060806060806131a88e8b8b8b8b613413565b929650909450925090506131c08e8e8e8e868661396c565b9096509450505098509850985098945050505050565b600060018251116131e957506001610745565b815160005b8181101561326057600181015b828110156132575784818151811061320f57fe5b60200260200101516001600160a01b031685838151811061322c57fe5b60200260200101516001600160a01b0316141561324f5760009350505050610745565b6001016131fb565b506001016131ee565b5060019392505050565b6000805b83518110156132b65783818151811061328357fe5b60200260200101516001600160a01b0316836001600160a01b031614156132ae5760019150506106ff565b60010161326e565b5060009392505050565b604080516001600160a01b0385811660208301528481168284015260608083018590528351808403909101815260808301938490526310acd06d60e01b9093528616916310acd06d916004919060840180835b815260200180602001828103825283818151815260200191508051906020019080838360005b83811015613351578181015183820152602001613339565b50505050905090810190601f16801561337e5780820380516001836020036101000a031916815260200191505b509350505050600060405180830381600087803b15801561339e57600080fd5b505af11580156133b2573d6000803e3d6000fd5b5050505050505050565b604080516001600160a01b0385811660208301528481168284015260608083018590528351808403909101815260808301938490526310acd06d60e01b9093528616916310acd06d91600591906084018083613313565b6060806060806060875167ffffffffffffffff8111801561343357600080fd5b5060405190808252806020026020018201604052801561345d578160200160208202803683370190505b50905060008060005b8a5181101561355a5788818151811061347b57fe5b60200260200101516000141561349057613552565b60038c600381111561349e57fe5b14156134af57600190920191613552565b6134cc8d8c83815181106134bf57fe5b6020026020010151613bac565b8482815181106134d857fe5b6020026020010181815250508881815181106134f057fe5b602002602001015184828151811061350457fe5b6020026020010151101561351d57600190920191613552565b88818151811061352957fe5b602002602001015184828151811061353d57fe5b60200260200101511115613552576001909101905b600101613466565b508167ffffffffffffffff8111801561357257600080fd5b5060405190808252806020026020018201604052801561359c578160200160208202803683370190505b5096508167ffffffffffffffff811180156135b657600080fd5b506040519080825280602002602001820160405280156135e0578160200160208202803683370190505b5095508067ffffffffffffffff811180156135fa57600080fd5b50604051908082528060200260200182016040528015613624578160200160208202803683370190505b5094508067ffffffffffffffff8111801561363e57600080fd5b50604051908082528060200260200182016040528015613668578160200160208202803683370190505b50935060008060005b8c5181101561395a578a818151811061368657fe5b60200260200101516000141561369b57613952565b60038e60038111156136a957fe5b1415613725578c81815181106136bb57fe5b60200260200101518a84815181106136cf57fe5b60200260200101906001600160a01b031690816001600160a01b0316815250508a81815181106136fb57fe5b602002602001015189848151811061370f57fe5b6020908102919091010152600190920191613952565b8a818151811061373157fe5b602002602001015186828151811061374557fe5b602002602001015110156138aa5785818151811061375f57fe5b6020026020010151600014156137b05761377f338e838151811061152557fe5b8a818151811061378b57fe5b602002602001015189848151811061379f57fe5b602002602001018181525050613802565b6137e98682815181106137bf57fe5b60200260200101518c83815181106137d357fe5b6020026020010151613c2e90919063ffffffff16565b8984815181106137f557fe5b6020026020010181815250505b8b818151811061380e57fe5b602002602001015189848151811061382257fe5b602002602001015111156138675760405162461bcd60e51b815260040180806020018281038252603d815260200180614003603d913960400191505060405180910390fd5b8c818151811061387357fe5b60200260200101518a848151811061388757fe5b6001600160a01b0390921660209283029190910190910152600190920191613952565b8a81815181106138b657fe5b60200260200101518682815181106138ca57fe5b60200260200101511115613952576138fb8b82815181106138e757fe5b60200260200101518783815181106137d357fe5b87838151811061390757fe5b6020026020010181815250508c818151811061391f57fe5b602002602001015188838151811061393357fe5b6001600160a01b03909216602092830291909101909101526001909101905b600101613671565b50505050505095509550955095915050565b606080600061398685518951613c8b90919063ffffffff16565b90508067ffffffffffffffff8111801561399f57600080fd5b506040519080825280602002602001820160405280156139c9578160200160208202803683370190505b5092508067ffffffffffffffff811180156139e357600080fd5b50604051908082528060200260200182016040528015613a0d578160200160208202803683370190505b50915060005b8851811015613b10576000613a4b898381518110613a2d57fe5b6020026020010151613a458d8d86815181106134bf57fe5b90613c2e565b9050878281518110613a5957fe5b6020026020010151811015613a9f5760405162461bcd60e51b815260040180806020018281038252604081526020018061428d6040913960400191505060405180910390fd5b613aaf338b84815181106112b657fe5b898281518110613abb57fe5b6020026020010151858381518110613acf57fe5b60200260200101906001600160a01b031690816001600160a01b03168152505080848381518110613afc57fe5b602090810291909101015250600101613a13565b50845115613ba057875160005b8651811015613b9d57868181518110613b3257fe5b6020026020010151858381518110613b4657fe5b60200260200101906001600160a01b031690816001600160a01b031681525050858181518110613b7257fe5b6020026020010151848381518110613b8657fe5b602090810291909101015260019182019101613b1d565b50505b50965096945050505050565b6000816001600160a01b03166370a08231846040518263ffffffff1660e01b815260040180826001600160a01b0316815260200191505060206040518083038186803b158015613bfb57600080fd5b505afa158015613c0f573d6000803e3d6000fd5b505050506040513d6020811015613c2557600080fd5b50519392505050565b600082821115613c85576040805162461bcd60e51b815260206004820152601e60248201527f536166654d6174683a207375627472616374696f6e206f766572666c6f770000604482015290519081900360640190fd5b50900390565b6000828201838110156106fc576040805162461bcd60e51b815260206004820152601b60248201527f536166654d6174683a206164646974696f6e206f766572666c6f770000000000604482015290519081900360640190fdfe456e756d657261626c655365743a20696e646578206f7574206f6620626f756e64735f5f73657456616c6964617465645661756c7450726f78793a20416c7265616479207365745f5f70726550726f63657373436f493a20456d707479207370656e642061737365745f5f70726550726f63657373436f493a204e6f6e2d72656365697661626c6520696e636f6d696e672061737365747265636569766543616c6c46726f6d436f6d7074726f6c6c65723a2046756e64206973206e6f74206163746976655f5f6164645a65726f42616c616e6365547261636b65644173736574733a2042616c616e6365206973206e6f74207a65726f5f5f70726550726f63657373436f493a204475706c696361746520696e636f6d696e672061737365745f5f76616c696461746553657441757468557365723a204163636f756e74206973206e6f7420616e20617574686f72697a656420757365725f5f76616c696461746553657441757468557365723a204f6e6c79207468652066756e64206f776e65722063616e2063616c6c20746869732066756e6374696f6e726567697374657241646170746572733a20416461707465722063616e6e6f7420626520656d7074796f6e6c7946756e644465706c6f7965724f776e65723a204f6e6c79207468652046756e644465706c6f796572206f776e65722063616e2063616c6c20746869732066756e6374696f6e5f5f73657456616c6964617465645661756c7450726f78793a204d697373696e67207661756c7450726f78796465726567697374657241646170746572733a205f61646170746572732063616e6e6f7420626520656d7074795f5f76616c696461746553657441757468557365723a2043616e6e6f742073657420666f72207468652066756e64206f776e6572726567697374657241646170746572733a205f61646170746572732063616e6e6f7420626520656d7074797265636569766543616c6c46726f6d436f6d7074726f6c6c65723a20496e76616c6964205f616374696f6e49645f5f70726550726f63657373436f493a20456d70747920696e636f6d696e6720617373657420616464726573735f5f7265636f6e63696c65436f495370656e644173736574733a205370656e7420616d6f756e742067726561746572207468616e2065787065637465645f5f70726550726f63657373436f493a205370656e64206173736574732061727261797320756e657175616c5f5f73657456616c6964617465645661756c7450726f78793a204e6f7420746865205661756c7450726f7879206163636573736f725f5f76616c696461746553657441757468557365723a204163636f756e7420697320616c726561647920616e20617574686f72697a656420757365725f5f72656d6f76655a65726f42616c616e6365547261636b65644173736574733a2042616c616e6365206973206e6f74207a65726f5f5f70726550726f63657373436f493a20456d707479206d6178207370656e6420617373657420616d6f756e74726567697374657241646170746572733a204164617074657220616c726561647920726567697374657265645f5f76616c696461746553657441757468557365723a2046756e6420686173206e6f74206265656e206163746976617465645f5f70726550726f63657373436f493a204475706c6963617465207370656e6420617373657463616c6c4f6e496e746567726174696f6e3a2041646170746572206973206e6f7420726567697374657265645f5f72656d6f76655a65726f42616c616e6365547261636b65644173736574733a2043616e6e6f742072656d6f76652064656e6f6d696e6174696f6e2061737365746465726567697374657241646170746572733a2041646170746572206973206e6f7420726567697374657265645f5f70726550726f63657373436f493a20496e636f6d696e67206173736574732061727261797320756e657175616c5f5f7265636f6e63696c65436f494173736574733a20526563656976656420696e636f6d696e67206173736574206c657373207468616e2065787065637465645f5f6164645a65726f42616c616e6365547261636b65644173736574733a20556e737570706f727465642061737365745f5f70726550726f63657373436f493a206d696e496e636f6d696e674173736574416d6f756e74206d757374206265203e307265636569766543616c6c46726f6d436f6d7074726f6c6c65723a204e6f7420616e20617574686f72697a65642075736572a2646970667358221220da604304a7dd16a483560c9978a9e2242e79dd7f2761e4cb0165c53be022888c64736f6c634300060c0033",
  "devdoc": {
    "author": "Enzyme Council <security@enzyme.finance>",
    "kind": "dev",
    "methods": {
      "adapterIsRegistered(address)": {
        "params": {
          "_adapter": "The adapter to check"
        },
        "returns": {
          "isRegistered_": "True if the adapter is registered"
        }
      },
      "addAuthUserForFund(address,address)": {
        "params": {
          "_comptrollerProxy": "The ComptrollerProxy of the fund",
          "_who": "The user to authorize"
        }
      },
      "deregisterAdapters(address[])": {
        "params": {
          "_adapters": "Addresses of adapters to be deregistered"
        }
      },
      "getDerivativePriceFeed()": {
        "returns": {
          "derivativePriceFeed_": "The `DERIVATIVE_PRICE_FEED` variable value"
        }
      },
      "getFundDeployer()": {
        "returns": {
          "fundDeployer_": "The `FUND_DEPLOYER` variable value"
        }
      },
      "getOwner()": {
        "details": "Ownership is deferred to the owner of the FundDeployer contract",
        "returns": {
          "owner_": "The owner"
        }
      },
      "getPolicyManager()": {
        "returns": {
          "policyManager_": "The `POLICY_MANAGER` variable value"
        }
      },
      "getPrimitivePriceFeed()": {
        "returns": {
          "primitivePriceFeed_": "The `PRIMITIVE_PRICE_FEED` variable value"
        }
      },
      "getRegisteredAdapters()": {
        "returns": {
          "registeredAdaptersArray_": "A list of all registered integration adapters"
        }
      },
      "getVaultProxyForFund(address)": {
        "params": {
          "_comptrollerProxy": "The ComptrollerProxy of the fund"
        },
        "returns": {
          "vaultProxy_": "The VaultProxy of the fund"
        }
      },
      "isAuthUserForFund(address,address)": {
        "params": {
          "_comptrollerProxy": "The ComptrollerProxy of the fund",
          "_who": "The account to check"
        },
        "returns": {
          "isAuthUser_": "True if the account is an authorized user or the fund owner"
        }
      },
      "receiveCallFromComptroller(address,uint256,bytes)": {
        "params": {
          "_actionId": "An ID representing the desired action",
          "_callArgs": "The encoded args for the action",
          "_caller": "The user who called for this action"
        }
      },
      "registerAdapters(address[])": {
        "params": {
          "_adapters": "Addresses of adapters to be registered"
        }
      },
      "removeAuthUserForFund(address,address)": {
        "params": {
          "_comptrollerProxy": "The ComptrollerProxy of the fund",
          "_who": "The authorized user to remove"
        }
      },
      "setConfigForFund(bytes)": {
        "details": "Unimplemented by default, may be overridden."
      }
    },
    "title": "IntegrationManager",
    "version": 1
  },
  "userdoc": {
    "kind": "user",
    "methods": {
      "activateForFund(bool)": {
        "notice": "Activates the extension by storing the VaultProxy"
      },
      "adapterIsRegistered(address)": {
        "notice": "Checks if an integration adapter is registered"
      },
      "addAuthUserForFund(address,address)": {
        "notice": "Authorizes a user to act on behalf of a fund via the IntegrationManager"
      },
      "deactivateForFund()": {
        "notice": "Deactivate the extension by destroying storage"
      },
      "deregisterAdapters(address[])": {
        "notice": "Remove integration adapters from the list of registered adapters"
      },
      "getDerivativePriceFeed()": {
        "notice": "Gets the `DERIVATIVE_PRICE_FEED` variable"
      },
      "getFundDeployer()": {
        "notice": "Gets the `FUND_DEPLOYER` variable"
      },
      "getOwner()": {
        "notice": "Gets the owner of this contract"
      },
      "getPolicyManager()": {
        "notice": "Gets the `POLICY_MANAGER` variable"
      },
      "getPrimitivePriceFeed()": {
        "notice": "Gets the `PRIMITIVE_PRICE_FEED` variable"
      },
      "getRegisteredAdapters()": {
        "notice": "Gets all registered integration adapters"
      },
      "getVaultProxyForFund(address)": {
        "notice": "Gets the verified VaultProxy for a given ComptrollerProxy"
      },
      "isAuthUserForFund(address,address)": {
        "notice": "Checks whether an account is an authorized IntegrationManager user for a given fund"
      },
      "receiveCallFromComptroller(address,uint256,bytes)": {
        "notice": "Receives a dispatched `callOnExtension` from a fund's ComptrollerProxy"
      },
      "registerAdapters(address[])": {
        "notice": "Add integration adapters to the list of registered adapters"
      },
      "removeAuthUserForFund(address,address)": {
        "notice": "Removes an authorized user from the IntegrationManager for the given fund"
      },
      "setConfigForFund(bytes)": {
        "notice": "Allows extension to run logic during fund configuration"
      }
    },
    "notice": "Extension to handle DeFi integration actions for funds",
    "version": 1
  },
  "storageLayout": {
    "storage": [
      {
        "astId": 37618,
        "contract": "contracts/release/extensions/integration-manager/IntegrationManager.sol:IntegrationManager",
        "label": "comptrollerProxyToVaultProxy",
        "offset": 0,
        "slot": "0",
        "type": "t_mapping(t_address,t_address)"
      },
      {
        "astId": 16651,
        "contract": "contracts/release/extensions/integration-manager/IntegrationManager.sol:IntegrationManager",
        "label": "registeredAdapters",
        "offset": 0,
        "slot": "1",
        "type": "t_struct(AddressSet)2091_storage"
      },
      {
        "astId": 16657,
        "contract": "contracts/release/extensions/integration-manager/IntegrationManager.sol:IntegrationManager",
        "label": "comptrollerProxyToAcctToIsAuthUser",
        "offset": 0,
        "slot": "3",
        "type": "t_mapping(t_address,t_mapping(t_address,t_bool))"
      }
    ],
    "types": {
      "t_address": {
        "encoding": "inplace",
        "label": "address",
        "numberOfBytes": "20"
      },
      "t_array(t_bytes32)dyn_storage": {
        "base": "t_bytes32",
        "encoding": "dynamic_array",
        "label": "bytes32[]",
        "numberOfBytes": "32"
      },
      "t_bool": {
        "encoding": "inplace",
        "label": "bool",
        "numberOfBytes": "1"
      },
      "t_bytes32": {
        "encoding": "inplace",
        "label": "bytes32",
        "numberOfBytes": "32"
      },
      "t_mapping(t_address,t_address)": {
        "encoding": "mapping",
        "key": "t_address",
        "label": "mapping(address => address)",
        "numberOfBytes": "32",
        "value": "t_address"
      },
      "t_mapping(t_address,t_bool)": {
        "encoding": "mapping",
        "key": "t_address",
        "label": "mapping(address => bool)",
        "numberOfBytes": "32",
        "value": "t_bool"
      },
      "t_mapping(t_address,t_mapping(t_address,t_bool))": {
        "encoding": "mapping",
        "key": "t_address",
        "label": "mapping(address => mapping(address => bool))",
        "numberOfBytes": "32",
        "value": "t_mapping(t_address,t_bool)"
      },
      "t_mapping(t_bytes32,t_uint256)": {
        "encoding": "mapping",
        "key": "t_bytes32",
        "label": "mapping(bytes32 => uint256)",
        "numberOfBytes": "32",
        "value": "t_uint256"
      },
      "t_struct(AddressSet)2091_storage": {
        "encoding": "inplace",
        "label": "struct EnumerableSet.AddressSet",
        "members": [
          {
            "astId": 2090,
            "contract": "contracts/release/extensions/integration-manager/IntegrationManager.sol:IntegrationManager",
            "label": "_inner",
            "offset": 0,
            "slot": "0",
            "type": "t_struct(Set)1826_storage"
          }
        ],
        "numberOfBytes": "64"
      },
      "t_struct(Set)1826_storage": {
        "encoding": "inplace",
        "label": "struct EnumerableSet.Set",
        "members": [
          {
            "astId": 1821,
            "contract": "contracts/release/extensions/integration-manager/IntegrationManager.sol:IntegrationManager",
            "label": "_values",
            "offset": 0,
            "slot": "0",
            "type": "t_array(t_bytes32)dyn_storage"
          },
          {
            "astId": 1825,
            "contract": "contracts/release/extensions/integration-manager/IntegrationManager.sol:IntegrationManager",
            "label": "_indexes",
            "offset": 0,
            "slot": "1",
            "type": "t_mapping(t_bytes32,t_uint256)"
          }
        ],
        "numberOfBytes": "64"
      },
      "t_uint256": {
        "encoding": "inplace",
        "label": "uint256",
        "numberOfBytes": "32"
      }
    }
  }
}