{
  "address": "0xCAceC2732784751A46925ad63AA362e85603EAeE",
  "abi": [
    {
      "inputs": [
        {
          "internalType": "address",
          "name": "_feeManager",
          "type": "address"
        }
      ],
      "stateMutability": "nonpayable",
      "type": "constructor"
    },
    {
      "anonymous": false,
      "inputs": [
        {
          "indexed": true,
          "internalType": "address",
          "name": "comptrollerProxy",
          "type": "address"
        },
        {
          "indexed": false,
          "internalType": "uint256",
          "name": "highWaterMark",
          "type": "uint256"
        }
      ],
      "name": "ActivatedForFund",
      "type": "event"
    },
    {
      "anonymous": false,
      "inputs": [
        {
          "indexed": true,
          "internalType": "address",
          "name": "comptrollerProxy",
          "type": "address"
        },
        {
          "indexed": false,
          "internalType": "uint256",
          "name": "rate",
          "type": "uint256"
        },
        {
          "indexed": false,
          "internalType": "uint256",
          "name": "period",
          "type": "uint256"
        }
      ],
      "name": "FundSettingsAdded",
      "type": "event"
    },
    {
      "anonymous": false,
      "inputs": [
        {
          "indexed": true,
          "internalType": "address",
          "name": "comptrollerProxy",
          "type": "address"
        },
        {
          "indexed": false,
          "internalType": "uint256",
          "name": "prevSharePrice",
          "type": "uint256"
        },
        {
          "indexed": false,
          "internalType": "uint256",
          "name": "nextSharePrice",
          "type": "uint256"
        }
      ],
      "name": "LastSharePriceUpdated",
      "type": "event"
    },
    {
      "anonymous": false,
      "inputs": [
        {
          "indexed": true,
          "internalType": "address",
          "name": "comptrollerProxy",
          "type": "address"
        },
        {
          "indexed": false,
          "internalType": "uint256",
          "name": "prevHighWaterMark",
          "type": "uint256"
        },
        {
          "indexed": false,
          "internalType": "uint256",
          "name": "nextHighWaterMark",
          "type": "uint256"
        },
        {
          "indexed": false,
          "internalType": "uint256",
          "name": "aggregateValueDue",
          "type": "uint256"
        }
      ],
      "name": "PaidOut",
      "type": "event"
    },
    {
      "anonymous": false,
      "inputs": [
        {
          "indexed": true,
          "internalType": "address",
          "name": "comptrollerProxy",
          "type": "address"
        },
        {
          "indexed": false,
          "internalType": "uint256",
          "name": "prevAggregateValueDue",
          "type": "uint256"
        },
        {
          "indexed": false,
          "internalType": "uint256",
          "name": "nextAggregateValueDue",
          "type": "uint256"
        },
        {
          "indexed": false,
          "internalType": "int256",
          "name": "sharesOutstandingDiff",
          "type": "int256"
        }
      ],
      "name": "PerformanceUpdated",
      "type": "event"
    },
    {
      "inputs": [
        {
          "internalType": "address",
          "name": "_comptrollerProxy",
          "type": "address"
        },
        {
          "internalType": "address",
          "name": "",
          "type": "address"
        }
      ],
      "name": "activateForFund",
      "outputs": [],
      "stateMutability": "nonpayable",
      "type": "function"
    },
    {
      "inputs": [
        {
          "internalType": "address",
          "name": "_comptrollerProxy",
          "type": "address"
        },
        {
          "internalType": "bytes",
          "name": "_settingsData",
          "type": "bytes"
        }
      ],
      "name": "addFundSettings",
      "outputs": [],
      "stateMutability": "nonpayable",
      "type": "function"
    },
    {
      "inputs": [
        {
          "internalType": "address",
          "name": "_comptrollerProxy",
          "type": "address"
        }
      ],
      "name": "getFeeInfoForFund",
      "outputs": [
        {
          "components": [
            {
              "internalType": "uint256",
              "name": "rate",
              "type": "uint256"
            },
            {
              "internalType": "uint256",
              "name": "period",
              "type": "uint256"
            },
            {
              "internalType": "uint256",
              "name": "activated",
              "type": "uint256"
            },
            {
              "internalType": "uint256",
              "name": "lastPaid",
              "type": "uint256"
            },
            {
              "internalType": "uint256",
              "name": "highWaterMark",
              "type": "uint256"
            },
            {
              "internalType": "uint256",
              "name": "lastSharePrice",
              "type": "uint256"
            },
            {
              "internalType": "uint256",
              "name": "aggregateValueDue",
              "type": "uint256"
            }
          ],
          "internalType": "struct PerformanceFee.FeeInfo",
          "name": "feeInfo_",
          "type": "tuple"
        }
      ],
      "stateMutability": "view",
      "type": "function"
    },
    {
      "inputs": [],
      "name": "getFeeManager",
      "outputs": [
        {
          "internalType": "address",
          "name": "feeManager_",
          "type": "address"
        }
      ],
      "stateMutability": "view",
      "type": "function"
    },
    {
      "inputs": [],
      "name": "identifier",
      "outputs": [
        {
          "internalType": "string",
          "name": "identifier_",
          "type": "string"
        }
      ],
      "stateMutability": "pure",
      "type": "function"
    },
    {
      "inputs": [],
      "name": "implementedHooks",
      "outputs": [
        {
          "internalType": "enum IFeeManager.FeeHook[]",
          "name": "implementedHooksForSettle_",
          "type": "uint8[]"
        },
        {
          "internalType": "enum IFeeManager.FeeHook[]",
          "name": "implementedHooksForUpdate_",
          "type": "uint8[]"
        },
        {
          "internalType": "bool",
          "name": "usesGavOnSettle_",
          "type": "bool"
        },
        {
          "internalType": "bool",
          "name": "usesGavOnUpdate_",
          "type": "bool"
        }
      ],
      "stateMutability": "view",
      "type": "function"
    },
    {
      "inputs": [
        {
          "internalType": "address",
          "name": "_comptrollerProxy",
          "type": "address"
        },
        {
          "internalType": "address",
          "name": "",
          "type": "address"
        }
      ],
      "name": "payout",
      "outputs": [
        {
          "internalType": "bool",
          "name": "isPayable_",
          "type": "bool"
        }
      ],
      "stateMutability": "nonpayable",
      "type": "function"
    },
    {
      "inputs": [
        {
          "internalType": "address",
          "name": "_comptrollerProxy",
          "type": "address"
        }
      ],
      "name": "payoutAllowed",
      "outputs": [
        {
          "internalType": "bool",
          "name": "payoutAllowed_",
          "type": "bool"
        }
      ],
      "stateMutability": "view",
      "type": "function"
    },
    {
      "inputs": [
        {
          "internalType": "address",
          "name": "_comptrollerProxy",
          "type": "address"
        },
        {
          "internalType": "address",
          "name": "_vaultProxy",
          "type": "address"
        },
        {
          "internalType": "enum IFeeManager.FeeHook",
          "name": "",
          "type": "uint8"
        },
        {
          "internalType": "bytes",
          "name": "",
          "type": "bytes"
        },
        {
          "internalType": "uint256",
          "name": "_gav",
          "type": "uint256"
        }
      ],
      "name": "settle",
      "outputs": [
        {
          "internalType": "enum IFeeManager.SettlementType",
          "name": "settlementType_",
          "type": "uint8"
        },
        {
          "internalType": "address",
          "name": "",
          "type": "address"
        },
        {
          "internalType": "uint256",
          "name": "sharesDue_",
          "type": "uint256"
        }
      ],
      "stateMutability": "nonpayable",
      "type": "function"
    },
    {
      "inputs": [
        {
          "internalType": "address",
          "name": "_comptrollerProxy",
          "type": "address"
        },
        {
          "internalType": "address",
          "name": "_vaultProxy",
          "type": "address"
        },
        {
          "internalType": "enum IFeeManager.FeeHook",
          "name": "_hook",
          "type": "uint8"
        },
        {
          "internalType": "bytes",
          "name": "_settlementData",
          "type": "bytes"
        },
        {
          "internalType": "uint256",
          "name": "_gav",
          "type": "uint256"
        }
      ],
      "name": "update",
      "outputs": [],
      "stateMutability": "nonpayable",
      "type": "function"
    }
  ],
  "transactionHash": "0xc574952d32b431a9fc1d84a7f19d6bb0573f4d449f06d9b4a7348d2727c88218",
  "args": [
    "0x654D14511f12cEB9252b8F0BdDDE98968f80EfF2"
  ],
  "linkedData": {
    "type": "FEE"
  },
  "solcInputHash": "d9ca3c6c6b3274b287f1d69a6e9ab10d",
  "bytecode": "0x60a06040523480156200001157600080fd5b5060405162001e2338038062001e2383398101604081905262000034916200005d565b60601b6001600160601b031916608052620000b2565b8051620000578162000098565b92915050565b6000602082840312156200007057600080fd5b60006200007e84846200004a565b949350505050565b60006001600160a01b03821662000057565b620000a38162000086565b8114620000af57600080fd5b50565b60805160601c611d35620000ee6000398061026b52806103cc52806104e85280610632528061077c5280610a0852806110cf5250611d356000f3fe608060405234801561001057600080fd5b506004361061009e5760003560e01c80637998a1c4116100665780637998a1c414610129578063877fd4731461013e578063b78b48131461015e578063cbf54bb214610171578063f2d63826146101895761009e565b806305be5783146100a35780630f5f6b4f146100cc578063233faf5f146100e15780633146d058146100f457806341892d7e14610107575b600080fd5b6100b66100b13660046113bc565b61019e565b6040516100c39190611ada565b60405180910390f35b6100df6100da3660046114f2565b610260565b005b6100df6100ef366004611462565b6103c1565b6100df610102366004611432565b6104dd565b61011a610115366004611462565b610623565b6040516100c393929190611ae8565b6101316106d8565b6040516100c39190611b10565b61015161014c3660046113bc565b6106fd565b6040516100c39190611be1565b6100b661016c366004611432565b61076f565b61017961087e565b6040516100c39493929190611a99565b610191610a06565b6040516100c39190611a70565b60006101a86112e9565b506001600160a01b038216600090815260208181526040808320815160e08101835281548152600182015493810184905260028201549281018390526003820154606082015260048201546080820152600582015460a082015260069091015460c0820152929061021a904290610a2a565b905081811015610230576000935050505061025b565b600082828161023b57fe5b069050600061024a4283610a2a565b905080856060015110955050505050505b919050565b336001600160a01b037f000000000000000000000000000000000000000000000000000000000000000016146102b15760405162461bcd60e51b81526004016102a890611b61565b60405180910390fd5b6000806102c083850185611596565b91509150600082116102e45760405162461bcd60e51b81526004016102a890611ba1565b600081116103045760405162461bcd60e51b81526004016102a890611b21565b6040805160e08101825283815260208082018481526000838501818152606085018281526080860183815260a0870184815260c088018581526001600160a01b038f168087529786905294899020975188559451600188015591516002870155516003860155516004850155905160058401555160069092019190915590517f9f856f74192181b265e61298e386477299c53e0cb24be55a84416f2af4ba4a61906103b29085908590611bfd565b60405180910390a25050505050565b336001600160a01b037f000000000000000000000000000000000000000000000000000000000000000016146104095760405162461bcd60e51b81526004016102a890611b61565b6001600160a01b038616600090815260208181526040808320600501548151601f87018490048402810184019092528582529291610469918a918a918a918a908a90819084018382808284376000920191909152508a9250610a52915050565b90508181141561047a5750506104d5565b6001600160a01b03881660008181526020819052604090819020600501839055517f040fdaa9ed9dd9e4588f1f96145d5517471e7b518fb5d56d8504eb839f50b653906104ca9085908590611bfd565b60405180910390a250505b505050505050565b336001600160a01b037f000000000000000000000000000000000000000000000000000000000000000016146105255760405162461bcd60e51b81526004016102a890611b61565b6001600160a01b0382166000818152602081905260408082209051635a0b830960e11b81529092829163b417061290610562908490600401611ada565b6040805180830381600087803b15801561057b57600080fd5b505af115801561058f573d6000803e3d6000fd5b505050506040513d601f19601f820116820180604052508101906105b39190611566565b91509150806105d45760405162461bcd60e51b81526004016102a890611b71565b60048301829055600583018290554260028401556040516001600160a01b038616907f67286096839b70891eb51e1532e51d6a709d69c808d1b7e24abcb24a39167d05906103b2908590611bef565b60008080336001600160a01b037f0000000000000000000000000000000000000000000000000000000000000000161461066f5760405162461bcd60e51b81526004016102a890611b61565b83610682575060009150819050806106cc565b600061068f8a8a87610d04565b9050806106a7576000806000935093509350506106cc565b60008113156106bf57600493506000925090506106cc565b6005935060009250820390505b96509650969350505050565b60408051808201909152600b81526a504552464f524d414e434560a81b602082015290565b6107056112e9565b506001600160a01b031660009081526020818152604091829020825160e081018452815481526001820154928101929092526002810154928201929092526003820154606082015260048201546080820152600582015460a082015260069091015460c082015290565b6000336001600160a01b037f000000000000000000000000000000000000000000000000000000000000000016146107b95760405162461bcd60e51b81526004016102a890611b61565b6107c28361019e565b6107ce57506000610878565b6001600160a01b038316600090815260208190526040812042600382015560048101546005820154919290916108049083610f17565b6006840154909150801561081a57600060068501555b8282111561082a57600484018290555b866001600160a01b03167f807c2c73192f2d30961a7d01ec8dc57115a4cd9f9bd0434331beacb916c6a8cc84848460405161086793929190611c18565b60405180910390a260019450505050505b92915050565b6040805160038082526080820190925260609182916000918291906020820185803683370190505093506000846000815181106108b757fe5b602002602001019060058111156108ca57fe5b908160058111156108d757fe5b815250506001846001815181106108ea57fe5b602002602001019060058111156108fd57fe5b9081600581111561090a57fe5b8152505060058460028151811061091d57fe5b6020026020010190600581111561093057fe5b9081600581111561093d57fe5b90525060408051600380825260808201909252906020820160608036833701905050925060008360008151811061097057fe5b6020026020010190600581111561098357fe5b9081600581111561099057fe5b815250506004836001815181106109a357fe5b602002602001019060058111156109b657fe5b908160058111156109c357fe5b815250506005836002815181106109d657fe5b602002602001019060058111156109e957fe5b908160058111156109f657fe5b9052506001915081905090919293565b7f000000000000000000000000000000000000000000000000000000000000000090565b600082821115610a4c5760405162461bcd60e51b81526004016102a890611b41565b50900390565b600080866001600160a01b031663e269c3d66040518163ffffffff1660e01b815260040160206040518083038186803b158015610a8e57600080fd5b505afa158015610aa2573d6000803e3d6000fd5b505050506040513d601f19601f82011682018060405250810190610ac691906113da565b6001600160a01b031663313ce5676040518163ffffffff1660e01b815260040160206040518083038186803b158015610afe57600080fd5b505afa158015610b12573d6000803e3d6000fd5b505050506040513d601f19601f82011682018060405250810190610b3691906115c6565b60ff16600a0a905082610b4a579050610cfb565b60008690506000816001600160a01b03166318160ddd6040518163ffffffff1660e01b815260040160206040518083038186803b158015610b8a57600080fd5b505afa158015610b9e573d6000803e3d6000fd5b505050506040513d601f19601f82011682018060405250810190610bc29190611548565b90506000610c4c836001600160a01b03166370a082318b6040518263ffffffff1660e01b8152600401610bf59190611a70565b60206040518083038186803b158015610c0d57600080fd5b505afa158015610c21573d6000803e3d6000fd5b505050506040513d601f19601f82011682018060405250810190610c459190611548565b8390610a2a565b905080610c5f5783945050505050610cfb565b856005896005811115610c6e57fe5b1415610cdd576000610c7f89610f2d565b9150610c8d90508382610a2a565b925082610ca257859650505050505050610cfb565b6000610cb885610cb28b85610f4d565b90610f87565b9050610cc48382610a2a565b925082610cda5786975050505050505050610cfb565b50505b610cf382610cb283670de0b6b3a7640000610f4d565b955050505050505b95945050505050565b6000808390506000816001600160a01b03166318160ddd6040518163ffffffff1660e01b815260040160206040518083038186803b158015610d4557600080fd5b505afa158015610d59573d6000803e3d6000fd5b505050506040513d601f19601f82011682018060405250810190610d7d9190611548565b905080610d8f57600092505050610f10565b6040516370a0823160e01b81526000906001600160a01b038416906370a0823190610dbe908990600401611a70565b60206040518083038186803b158015610dd657600080fd5b505afa158015610dea573d6000803e3d6000fd5b505050506040513d601f19601f82011682018060405250810190610e0e9190611548565b905081811415610e245760009350505050610f10565b6001600160a01b0387166000908152602081815260408083206006810154825160e081018452825481526001830154948101949094526002820154928401929092526003810154606084015260048101546080840152600581015460a084015260c08301829052929091610ea0908b908790879086908d610fb9565b9750905081811415610ebb5760009650505050505050610f10565b808360060181905550896001600160a01b03167f74a80d6cce2a8c3a25bdba0cd5533d238d76eb996790fb2d4544372cc7f4e35683838a604051610f0193929190611c18565b60405180910390a25050505050505b9392505050565b6000818310610f27575081610878565b50919050565b60008082806020019051810190610f4491906113f8565b91509150915091565b600082610f5c57506000610878565b82820282848281610f6957fe5b0414610f105760405162461bcd60e51b81526004016102a890611b91565b6000808211610fa85760405162461bcd60e51b81526004016102a890611b51565b818381610fb157fe5b049392505050565b60008080610fc78888610a2a565b90506000610fe182610cb287670de0b6b3a7640000610f4d565b60a087015190915080821415611000578760009450945050505061102a565b6110168383838b8b600001518c60800151611035565b94506110248b8488886110ae565b93505050505b965096945050505050565b600080611071670de0b6b3a764000061106b8a611065611055888c610f17565b61105f898e610f17565b9061117e565b906111c4565b9061122f565b9050600061108b670de0b6b3a764000061106b84886111c4565b90506110a1600061109c8884611293565b6112d9565b9998505050505050505050565b6000806110c86110be8585610a2a565b610cb28588610f4d565b90506111727f00000000000000000000000000000000000000000000000000000000000000006001600160a01b031663aa051c2c88306040518363ffffffff1660e01b815260040161111b929190611a7e565b60206040518083038186803b15801561113357600080fd5b505afa158015611147573d6000803e3d6000fd5b505050506040513d601f19601f8201168201806040525081019061116b9190611548565b829061117e565b9150505b949350505050565b60008183038183128015906111935750838113155b806111a857506000831280156111a857508381135b610f105760405162461bcd60e51b81526004016102a890611bc1565b6000826111d357506000610878565b826000191480156111e75750600160ff1b82145b156112045760405162461bcd60e51b81526004016102a890611bb1565b8282028284828161121157fe5b0514610f105760405162461bcd60e51b81526004016102a890611bb1565b60008161124e5760405162461bcd60e51b81526004016102a890611bd1565b816000191480156112625750600160ff1b83145b1561127f5760405162461bcd60e51b81526004016102a890611b81565b600082848161128a57fe5b05949350505050565b60008282018183128015906112a85750838112155b806112bd57506000831280156112bd57508381125b610f105760405162461bcd60e51b81526004016102a890611b31565b6000818312610f27575081610878565b6040518060e00160405280600081526020016000815260200160008152602001600081526020016000815260200160008152602001600081525090565b803561087881611cc3565b805161087881611cc3565b805161087881611cd7565b60008083601f84011261135957600080fd5b50813567ffffffffffffffff81111561137157600080fd5b60208301915083600182028301111561138957600080fd5b9250929050565b803561087881611ce0565b803561087881611ced565b805161087881611ced565b805161087881611cf6565b6000602082840312156113ce57600080fd5b60006111768484611326565b6000602082840312156113ec57600080fd5b60006111768484611331565b6000806040838503121561140b57600080fd5b60006114178585611331565b9250506020611428858286016113a6565b9150509250929050565b6000806040838503121561144557600080fd5b60006114518585611326565b925050602061142885828601611326565b60008060008060008060a0878903121561147b57600080fd5b60006114878989611326565b965050602061149889828a01611326565b95505060406114a989828a01611390565b945050606087013567ffffffffffffffff8111156114c657600080fd5b6114d289828a01611347565b935093505060806114e589828a0161139b565b9150509295509295509295565b60008060006040848603121561150757600080fd5b60006115138686611326565b935050602084013567ffffffffffffffff81111561153057600080fd5b61153c86828701611347565b92509250509250925092565b60006020828403121561155a57600080fd5b600061117684846113a6565b6000806040838503121561157957600080fd5b600061158585856113a6565b92505060206114288582860161133c565b600080604083850312156115a957600080fd5b60006115b5858561139b565b92505060206114288582860161139b565b6000602082840312156115d857600080fd5b600061117684846113b1565b60006115f08383611669565b505060200190565b61160181611c46565b82525050565b600061161282611c39565b61161c8185611c3d565b935061162783611c33565b8060005b8381101561165557815161163f88826115e4565b975061164a83611c33565b92505060010161162b565b509495945050505050565b61160181611c51565b61160181611c75565b61160181611c60565b600061168682611c39565b6116908185611c3d565b93506116a0818560208601611c80565b6116a981611cac565b9093019392505050565b60006116c0603183611c3d565b7f61646446756e6453657474696e67733a20666565506572696f64206d75737420815270062652067726561746572207468616e203607c1b602082015260400192915050565b6000611713602183611c3d565b7f5369676e6564536166654d6174683a206164646974696f6e206f766572666c6f8152607760f81b602082015260400192915050565b6000611756601e83611c3d565b7f536166654d6174683a207375627472616374696f6e206f766572666c6f770000815260200192915050565b600061178f601a83611c3d565b7f536166654d6174683a206469766973696f6e206279207a65726f000000000000815260200192915050565b60006117c8602583611c3d565b7f4f6e6c7920746865204665654d616e6765722063616e206d616b6520746869738152640818d85b1b60da1b602082015260400192915050565b600061180f602483611c3d565b7f6163746976617465466f7246756e643a20496e76616c696420736861726520708152637269636560e01b602082015260400192915050565b6000611855602183611c3d565b7f5369676e6564536166654d6174683a206469766973696f6e206f766572666c6f8152607760f81b602082015260400192915050565b6000611898602183611c3d565b7f536166654d6174683a206d756c7469706c69636174696f6e206f766572666c6f8152607760f81b602082015260400192915050565b60006118db602f83611c3d565b7f61646446756e6453657474696e67733a2066656552617465206d75737420626581526e02067726561746572207468616e203608c1b602082015260400192915050565b600061192c602783611c3d565b7f5369676e6564536166654d6174683a206d756c7469706c69636174696f6e206f815266766572666c6f7760c81b602082015260400192915050565b6000611975602483611c3d565b7f5369676e6564536166654d6174683a207375627472616374696f6e206f766572815263666c6f7760e01b602082015260400192915050565b60006119bb602083611c3d565b7f5369676e6564536166654d6174683a206469766973696f6e206279207a65726f815260200192915050565b805160e08301906119f88482611672565b506020820151611a0b6020850182611672565b506040820151611a1e6040850182611672565b506060820151611a316060850182611672565b506080820151611a446080850182611672565b5060a0820151611a5760a0850182611672565b5060c0820151611a6a60c0850182611672565b50505050565b6020810161087882846115f8565b60408101611a8c82856115f8565b610f1060208301846115f8565b60808082528101611aaa8187611607565b90508181036020830152611abe8186611607565b9050611acd6040830185611660565b610cfb6060830184611660565b602081016108788284611660565b60608101611af68286611669565b611b0360208301856115f8565b6111766040830184611672565b60208082528101610f10818461167b565b60208082528101610878816116b3565b6020808252810161087881611706565b6020808252810161087881611749565b6020808252810161087881611782565b60208082528101610878816117bb565b6020808252810161087881611802565b6020808252810161087881611848565b602080825281016108788161188b565b60208082528101610878816118ce565b602080825281016108788161191f565b6020808252810161087881611968565b60208082528101610878816119ae565b60e0810161087882846119e7565b602081016108788284611672565b60408101611c0b8285611672565b610f106020830184611672565b60608101611c268286611672565b611b036020830185611672565b60200190565b5190565b90815260200190565b600061087882611c63565b151590565b8061025b81611cb6565b90565b6001600160a01b031690565b60ff1690565b600061087882611c56565b60005b83811015611c9b578181015183820152602001611c83565b83811115611a6a5750506000910152565b601f01601f191690565b60068110611cc057fe5b50565b611ccc81611c46565b8114611cc057600080fd5b611ccc81611c51565b60068110611cc057600080fd5b611ccc81611c60565b611ccc81611c6f56fea26469706673582212201c2ea9fcc4cf660279f436dd6c6211d1bccfbe01a481ffdf56d364528a8d2e3164736f6c634300060c0033",
  "devdoc": {
    "author": "Enzyme Council <security@enzyme.finance>",
    "details": "This contract assumes that all shares in the VaultProxy are shares outstanding, which is fine for this release. Even if they are not, they are still shares that are only claimable by the fund owner.",
    "kind": "dev",
    "methods": {
      "activateForFund(address,address)": {
        "params": {
          "_comptrollerProxy": "The ComptrollerProxy of the fund"
        }
      },
      "addFundSettings(address,bytes)": {
        "details": "`highWaterMark`, `lastSharePrice`, and `activated` are set during activation",
        "params": {
          "_comptrollerProxy": "The ComptrollerProxy of the fund",
          "_settingsData": "Encoded settings to apply to the policy for the fund"
        }
      },
      "getFeeInfoForFund(address)": {
        "params": {
          "_comptrollerProxy": "The ComptrollerProxy contract of the fund"
        },
        "returns": {
          "feeInfo_": "The feeInfo"
        }
      },
      "getFeeManager()": {
        "returns": {
          "feeManager_": "The `FEE_MANAGER` variable value"
        }
      },
      "identifier()": {
        "returns": {
          "identifier_": "The identifier string"
        }
      },
      "implementedHooks()": {
        "details": "Used only during fee registration",
        "returns": {
          "implementedHooksForSettle_": "The hooks during which settle() is implemented",
          "implementedHooksForUpdate_": "The hooks during which update() is implemented",
          "usesGavOnSettle_": "True if GAV is used during the settle() implementation",
          "usesGavOnUpdate_": "True if GAV is used during the update() implementation"
        }
      },
      "payout(address,address)": {
        "params": {
          "_comptrollerProxy": "The ComptrollerProxy of the fund"
        },
        "returns": {
          "isPayable_": "True if shares outstanding can be paid out"
        }
      },
      "payoutAllowed(address)": {
        "details": "Payout is allowed if fees have not yet been settled in a crystallization period, and at least 1 crystallization period has passed since activation",
        "params": {
          "_comptrollerProxy": "The ComptrollerProxy of the fund"
        },
        "returns": {
          "payoutAllowed_": "True if the fee payment is due"
        }
      },
      "settle(address,address,uint8,bytes,uint256)": {
        "params": {
          "_comptrollerProxy": "The ComptrollerProxy of the fund",
          "_gav": "The GAV of the fund",
          "_vaultProxy": "The VaultProxy of the fund"
        },
        "returns": {
          "_1": "(unused) The payer of shares due",
          "settlementType_": "The type of settlement",
          "sharesDue_": "The amount of shares due"
        }
      },
      "update(address,address,uint8,bytes,uint256)": {
        "params": {
          "_comptrollerProxy": "The ComptrollerProxy of the fund",
          "_gav": "The GAV of the fund",
          "_hook": "The FeeHook being executed",
          "_settlementData": "Encoded args to use in calculating the settlement",
          "_vaultProxy": "The VaultProxy of the fund"
        }
      }
    },
    "title": "PerformanceFee Contract",
    "version": 1
  },
  "userdoc": {
    "kind": "user",
    "methods": {
      "activateForFund(address,address)": {
        "notice": "Activates the fee for a fund"
      },
      "addFundSettings(address,bytes)": {
        "notice": "Add the initial fee settings for a fund"
      },
      "getFeeInfoForFund(address)": {
        "notice": "Gets the feeInfo for a given fund"
      },
      "getFeeManager()": {
        "notice": "Gets the `FEE_MANAGER` variable"
      },
      "identifier()": {
        "notice": "Provides a constant string identifier for a fee"
      },
      "implementedHooks()": {
        "notice": "Gets the hooks that are implemented by the fee"
      },
      "payout(address,address)": {
        "notice": "Checks whether the shares outstanding for the fee can be paid out, and updates the info for the fee's last payout"
      },
      "payoutAllowed(address)": {
        "notice": "Checks whether the shares outstanding can be paid out"
      },
      "settle(address,address,uint8,bytes,uint256)": {
        "notice": "Settles the fee and calculates shares due"
      },
      "update(address,address,uint8,bytes,uint256)": {
        "notice": "Updates the fee state after all fees have finished settle()"
      }
    },
    "notice": "A performance-based fee with configurable rate and crystallization period, using a high watermark",
    "version": 1
  },
  "storageLayout": {
    "storage": [
      {
        "astId": 15147,
        "contract": "contracts/release/extensions/fee-manager/fees/PerformanceFee.sol:PerformanceFee",
        "label": "comptrollerProxyToFeeInfo",
        "offset": 0,
        "slot": "0",
        "type": "t_mapping(t_address,t_struct(FeeInfo)15133_storage)"
      }
    ],
    "types": {
      "t_address": {
        "encoding": "inplace",
        "label": "address",
        "numberOfBytes": "20"
      },
      "t_mapping(t_address,t_struct(FeeInfo)15133_storage)": {
        "encoding": "mapping",
        "key": "t_address",
        "label": "mapping(address => struct PerformanceFee.FeeInfo)",
        "numberOfBytes": "32",
        "value": "t_struct(FeeInfo)15133_storage"
      },
      "t_struct(FeeInfo)15133_storage": {
        "encoding": "inplace",
        "label": "struct PerformanceFee.FeeInfo",
        "members": [
          {
            "astId": 15120,
            "contract": "contracts/release/extensions/fee-manager/fees/PerformanceFee.sol:PerformanceFee",
            "label": "rate",
            "offset": 0,
            "slot": "0",
            "type": "t_uint256"
          },
          {
            "astId": 15122,
            "contract": "contracts/release/extensions/fee-manager/fees/PerformanceFee.sol:PerformanceFee",
            "label": "period",
            "offset": 0,
            "slot": "1",
            "type": "t_uint256"
          },
          {
            "astId": 15124,
            "contract": "contracts/release/extensions/fee-manager/fees/PerformanceFee.sol:PerformanceFee",
            "label": "activated",
            "offset": 0,
            "slot": "2",
            "type": "t_uint256"
          },
          {
            "astId": 15126,
            "contract": "contracts/release/extensions/fee-manager/fees/PerformanceFee.sol:PerformanceFee",
            "label": "lastPaid",
            "offset": 0,
            "slot": "3",
            "type": "t_uint256"
          },
          {
            "astId": 15128,
            "contract": "contracts/release/extensions/fee-manager/fees/PerformanceFee.sol:PerformanceFee",
            "label": "highWaterMark",
            "offset": 0,
            "slot": "4",
            "type": "t_uint256"
          },
          {
            "astId": 15130,
            "contract": "contracts/release/extensions/fee-manager/fees/PerformanceFee.sol:PerformanceFee",
            "label": "lastSharePrice",
            "offset": 0,
            "slot": "5",
            "type": "t_uint256"
          },
          {
            "astId": 15132,
            "contract": "contracts/release/extensions/fee-manager/fees/PerformanceFee.sol:PerformanceFee",
            "label": "aggregateValueDue",
            "offset": 0,
            "slot": "6",
            "type": "t_uint256"
          }
        ],
        "numberOfBytes": "224"
      },
      "t_uint256": {
        "encoding": "inplace",
        "label": "uint256",
        "numberOfBytes": "32"
      }
    }
  }
}