{
  "address": "0x197F846d2AC50C99C5a3caACeCb39c97556E2EcB",
  "abi": [
    {
      "inputs": [
        {
          "internalType": "address",
          "name": "_integrationManager",
          "type": "address"
        },
        {
          "internalType": "address",
          "name": "_router",
          "type": "address"
        },
        {
          "internalType": "address",
          "name": "_factory",
          "type": "address"
        }
      ],
      "stateMutability": "nonpayable",
      "type": "constructor"
    },
    {
      "inputs": [],
      "name": "ADD_TRACKED_ASSETS_SELECTOR",
      "outputs": [
        {
          "internalType": "bytes4",
          "name": "",
          "type": "bytes4"
        }
      ],
      "stateMutability": "view",
      "type": "function"
    },
    {
      "inputs": [],
      "name": "APPROVE_ASSETS_SELECTOR",
      "outputs": [
        {
          "internalType": "bytes4",
          "name": "",
          "type": "bytes4"
        }
      ],
      "stateMutability": "view",
      "type": "function"
    },
    {
      "inputs": [],
      "name": "CLAIM_REWARDS_AND_REINVEST_SELECTOR",
      "outputs": [
        {
          "internalType": "bytes4",
          "name": "",
          "type": "bytes4"
        }
      ],
      "stateMutability": "view",
      "type": "function"
    },
    {
      "inputs": [],
      "name": "CLAIM_REWARDS_AND_SWAP_SELECTOR",
      "outputs": [
        {
          "internalType": "bytes4",
          "name": "",
          "type": "bytes4"
        }
      ],
      "stateMutability": "view",
      "type": "function"
    },
    {
      "inputs": [],
      "name": "CLAIM_REWARDS_SELECTOR",
      "outputs": [
        {
          "internalType": "bytes4",
          "name": "",
          "type": "bytes4"
        }
      ],
      "stateMutability": "view",
      "type": "function"
    },
    {
      "inputs": [],
      "name": "LEND_AND_STAKE_SELECTOR",
      "outputs": [
        {
          "internalType": "bytes4",
          "name": "",
          "type": "bytes4"
        }
      ],
      "stateMutability": "view",
      "type": "function"
    },
    {
      "inputs": [],
      "name": "LEND_SELECTOR",
      "outputs": [
        {
          "internalType": "bytes4",
          "name": "",
          "type": "bytes4"
        }
      ],
      "stateMutability": "view",
      "type": "function"
    },
    {
      "inputs": [],
      "name": "REDEEM_SELECTOR",
      "outputs": [
        {
          "internalType": "bytes4",
          "name": "",
          "type": "bytes4"
        }
      ],
      "stateMutability": "view",
      "type": "function"
    },
    {
      "inputs": [],
      "name": "REMOVE_TRACKED_ASSETS_SELECTOR",
      "outputs": [
        {
          "internalType": "bytes4",
          "name": "",
          "type": "bytes4"
        }
      ],
      "stateMutability": "view",
      "type": "function"
    },
    {
      "inputs": [],
      "name": "STAKE_SELECTOR",
      "outputs": [
        {
          "internalType": "bytes4",
          "name": "",
          "type": "bytes4"
        }
      ],
      "stateMutability": "view",
      "type": "function"
    },
    {
      "inputs": [],
      "name": "TAKE_ORDER_SELECTOR",
      "outputs": [
        {
          "internalType": "bytes4",
          "name": "",
          "type": "bytes4"
        }
      ],
      "stateMutability": "view",
      "type": "function"
    },
    {
      "inputs": [],
      "name": "UNSTAKE_AND_REDEEM_SELECTOR",
      "outputs": [
        {
          "internalType": "bytes4",
          "name": "",
          "type": "bytes4"
        }
      ],
      "stateMutability": "view",
      "type": "function"
    },
    {
      "inputs": [],
      "name": "UNSTAKE_SELECTOR",
      "outputs": [
        {
          "internalType": "bytes4",
          "name": "",
          "type": "bytes4"
        }
      ],
      "stateMutability": "view",
      "type": "function"
    },
    {
      "inputs": [],
      "name": "getFactory",
      "outputs": [
        {
          "internalType": "address",
          "name": "factory_",
          "type": "address"
        }
      ],
      "stateMutability": "view",
      "type": "function"
    },
    {
      "inputs": [],
      "name": "getIntegrationManager",
      "outputs": [
        {
          "internalType": "address",
          "name": "integrationManager_",
          "type": "address"
        }
      ],
      "stateMutability": "view",
      "type": "function"
    },
    {
      "inputs": [],
      "name": "getRouter",
      "outputs": [
        {
          "internalType": "address",
          "name": "router_",
          "type": "address"
        }
      ],
      "stateMutability": "view",
      "type": "function"
    },
    {
      "inputs": [],
      "name": "identifier",
      "outputs": [
        {
          "internalType": "string",
          "name": "identifier_",
          "type": "string"
        }
      ],
      "stateMutability": "pure",
      "type": "function"
    },
    {
      "inputs": [
        {
          "internalType": "address",
          "name": "_vaultProxy",
          "type": "address"
        },
        {
          "internalType": "bytes",
          "name": "_encodedCallArgs",
          "type": "bytes"
        },
        {
          "internalType": "bytes",
          "name": "_encodedAssetTransferArgs",
          "type": "bytes"
        }
      ],
      "name": "lend",
      "outputs": [],
      "stateMutability": "nonpayable",
      "type": "function"
    },
    {
      "inputs": [
        {
          "internalType": "bytes4",
          "name": "_selector",
          "type": "bytes4"
        },
        {
          "internalType": "bytes",
          "name": "_encodedCallArgs",
          "type": "bytes"
        }
      ],
      "name": "parseAssetsForMethod",
      "outputs": [
        {
          "internalType": "enum IIntegrationManager.SpendAssetsHandleType",
          "name": "spendAssetsHandleType_",
          "type": "uint8"
        },
        {
          "internalType": "address[]",
          "name": "spendAssets_",
          "type": "address[]"
        },
        {
          "internalType": "uint256[]",
          "name": "spendAssetAmounts_",
          "type": "uint256[]"
        },
        {
          "internalType": "address[]",
          "name": "incomingAssets_",
          "type": "address[]"
        },
        {
          "internalType": "uint256[]",
          "name": "minIncomingAssetAmounts_",
          "type": "uint256[]"
        }
      ],
      "stateMutability": "view",
      "type": "function"
    },
    {
      "inputs": [
        {
          "internalType": "address",
          "name": "_vaultProxy",
          "type": "address"
        },
        {
          "internalType": "bytes",
          "name": "_encodedCallArgs",
          "type": "bytes"
        },
        {
          "internalType": "bytes",
          "name": "_encodedAssetTransferArgs",
          "type": "bytes"
        }
      ],
      "name": "redeem",
      "outputs": [],
      "stateMutability": "nonpayable",
      "type": "function"
    },
    {
      "inputs": [
        {
          "internalType": "address",
          "name": "_vaultProxy",
          "type": "address"
        },
        {
          "internalType": "bytes",
          "name": "_encodedCallArgs",
          "type": "bytes"
        },
        {
          "internalType": "bytes",
          "name": "_encodedAssetTransferArgs",
          "type": "bytes"
        }
      ],
      "name": "takeOrder",
      "outputs": [],
      "stateMutability": "nonpayable",
      "type": "function"
    }
  ],
  "transactionHash": "0xec501ba41f7c4603b560dfb7fecdab3987bfd7d4a9bf9f5c5abc5a0b5f4f4c75",
  "args": [
    "0x2B3189e520608b6BBf7666442eF52B185EefcD5c",
    "0x10ED43C718714eb63d5aA57B78B54704E256024E",
    "0xcA143Ce32Fe78f1f7019d7d551a6402fC5350c73"
  ],
  "linkedData": {
    "type": "ADAPTER"
  },
  "solcInputHash": "d9ca3c6c6b3274b287f1d69a6e9ab10d",
  "bytecode": "0x60e060405234801561001057600080fd5b5060405161249c38038061249c8339818101604052606081101561003357600080fd5b50805160208201516040909201516001600160601b0319606092831b811660805290821b811660a05291901b1660c05260805160601c60a05160601c60c05160601c6123c86100d4600039806111d352806117b152806117e05280611aad5280611ad85280611b075280611c385280611c67525080610c7b5280610e1152806111af52508061069d52806108625280611224528061144952506123c86000f3fe608060405234801561001057600080fd5b50600436106101375760003560e01c80637998a1c4116100b8578063c29fa9dd1161007c578063c29fa9dd1461059c578063e27a06b51461066a578063e4d9047814610672578063e7c456901461067a578063f075399414610682578063f7d882b51461068a57610137565b80637998a1c4146104e3578063863e5ad01461056057806388cc58e414610568578063b0f479a11461058c578063b23228cf1461059457610137565b80633ffc1591116100ff5780633ffc15911461030f57806340da225d1461031757806340f8cfcf1461031f5780635ca62b3c1461032757806376cc7ac61461032f57610137565b806303e38a2b1461013c578063080456c11461020c578063099f751514610231578063131461c0146102ff578063257cb1a314610307575b600080fd5b61020a6004803603606081101561015257600080fd5b6001600160a01b038235169190810190604081016020820135600160201b81111561017c57600080fd5b82018360208201111561018e57600080fd5b803590602001918460018302840111600160201b831117156101af57600080fd5b919390929091602081019035600160201b8111156101cc57600080fd5b8201836020820111156101de57600080fd5b803590602001918460018302840111600160201b831117156101ff57600080fd5b509092509050610692565b005b610214610833565b604080516001600160e01b03199092168252519081900360200190f35b61020a6004803603606081101561024757600080fd5b6001600160a01b038235169190810190604081016020820135600160201b81111561027157600080fd5b82018360208201111561028357600080fd5b803590602001918460018302840111600160201b831117156102a457600080fd5b919390929091602081019035600160201b8111156102c157600080fd5b8201836020820111156102d357600080fd5b803590602001918460018302840111600160201b831117156102f457600080fd5b509092509050610857565b6102146109e1565b610214610a05565b610214610a29565b610214610a4d565b610214610a71565b610214610a95565b6103ae6004803603604081101561034557600080fd5b6001600160e01b03198235169190810190604081016020820135600160201b81111561037057600080fd5b82018360208201111561038257600080fd5b803590602001918460018302840111600160201b831117156103a357600080fd5b509092509050610ab9565b604051808660038111156103be57fe5b815260200180602001806020018060200180602001858103855289818151815260200191508051906020019060200280838360005b8381101561040b5781810151838201526020016103f3565b50505050905001858103845288818151815260200191508051906020019060200280838360005b8381101561044a578181015183820152602001610432565b50505050905001858103835287818151815260200191508051906020019060200280838360005b83811015610489578181015183820152602001610471565b50505050905001858103825286818151815260200191508051906020019060200280838360005b838110156104c85781810151838201526020016104b0565b50505050905001995050505050505050505060405180910390f35b6104eb611165565b6040805160208082528351818301528351919283929083019185019080838360005b8381101561052557818101518382015260200161050d565b50505050905090810190601f1680156105525780820380516001836020036101000a031916815260200191505b509250505060405180910390f35b610214611189565b6105706111ad565b604080516001600160a01b039092168252519081900360200190f35b6105706111d1565b6102146111f5565b61020a600480360360608110156105b257600080fd5b6001600160a01b038235169190810190604081016020820135600160201b8111156105dc57600080fd5b8201836020820111156105ee57600080fd5b803590602001918460018302840111600160201b8311171561060f57600080fd5b919390929091602081019035600160201b81111561062c57600080fd5b82018360208201111561063e57600080fd5b803590602001918460018302840111600160201b8311171561065f57600080fd5b509092509050611219565b6102146113ff565b610214611423565b610570611447565b61021461146b565b61021461148f565b336001600160a01b037f000000000000000000000000000000000000000000000000000000000000000016146106f95760405162461bcd60e51b81526004018080602001828103825260328152602001806123016032913960400191505060405180910390fd5b8482828080601f01602080910402602001604051908101604052809392919081815260200183838082843760009201829052509250606091508190508061073f856114b3565b92965090945092509050600184600381111561075757fe5b14156107b95760005b83518110156107b7576107af873085848151811061077a57fe5b602002602001015187858151811061078e57fe5b60200260200101516001600160a01b031661167b909392919063ffffffff16565b600101610760565b505b60606000806107fd8d8d8080601f0160208091040260200160405190810160405280939291908181526020018383808284376000920191909152506116db92505050565b92509250925061080f8e838386611797565b50505061081c868261197b565b610826868461197b565b5050505050505050505050565b7f8334eb99be0145865eba9889fca2ee920288090caefff4cc776038e20ad9259a81565b336001600160a01b037f000000000000000000000000000000000000000000000000000000000000000016146108be5760405162461bcd60e51b81526004018080602001828103825260328152602001806123016032913960400191505060405180910390fd5b8482828080601f016020809104026020016040519081016040528093929190818152602001838380828437600092018290525092506060915081905080610904856114b3565b92965090945092509050600184600381111561091c57fe5b14156109495760005b83518110156109475761093f873085848151811061077a57fe5b600101610925565b505b61095161226d565b61095961226d565b61096161226d565b6109a08d8d8080601f016020809104026020016040519081016040528093929190818152602001838380828437600092019190915250611a5c92505050565b509194509250905061080f8e846000602002015185600160200201518560006020020151866001602002015186600060200201518760016020020151611aa7565b7f29fa046e79524c3c5ac4c01df692c35e217802b2b13b21121b76cf0ef02b138c81565b7f099f75155f0e997bf83a7993a71d5e7e7540bd386fe1e84643a09ce6b412521981565b7ffa7dd04da627f433da73c4355ead9c75682a67a8fc84d3f6170ef0922f402d2481565b7fb9dfbaccbe5cd2a84fdcf1d15f23ef25d23086f5afbaa99516065ed4a5bbc7a381565b7ff658eb804cc1da8af5599b584aaf3d55407a3c721c42641a6a5270e963d782c381565b7fdfd5ee0f6067928bf85a7c4430811282840bc99332dda3dab462c02bf95b67cc81565b600060608080806001600160e01b0319881663099f751560e01b1415610d5057610ae161226d565b610ae961226d565b6000610b2a8a8a8080601f016020809104026020016040519081016040528093929190818152602001838380828437600092019190915250611a5c92505050565b93505092509250600267ffffffffffffffff81118015610b4957600080fd5b50604051908082528060200260200182016040528015610b73578160200160208202803683370190505b509650826000602002015187600081518110610b8b57fe5b6001600160a01b0392909216602092830291909101820152830151875188906001908110610bb557fe5b6001600160a01b039290921660209283029190910182015260408051600280825260608201835290929091908301908036833750508351825192985091889150600090610bfe57fe5b6020908102919091010152816001602002015186600181518110610c1e57fe5b602090810291909101015260408051600180825281830190925290816020016020820280368337505084516020808701516040805163e6a4390560e01b81526001600160a01b0394851660048201529184166024830152519499507f00000000000000000000000000000000000000000000000000000000000000009092169363e6a439059350604480840193829003018186803b158015610cbf57600080fd5b505afa158015610cd3573d6000803e3d6000fd5b505050506040513d6020811015610ce957600080fd5b505185518690600090610cf857fe5b6001600160a01b03929092166020928302919091018201526040805160018082528183019092529182810190803683370190505093508084600081518110610d3c57fe5b602002602001018181525050505050611156565b6001600160e01b0319881663c29fa9dd60e01b1415610fa3576000610d7361226d565b610d7b61226d565b610dba8a8a8080601f016020809104026020016040519081016040528093929190818152602001838380828437600092019190915250611bf592505050565b604080516001808252818301909252939650919450925060208083019080368337505083516020808601516040805163e6a4390560e01b81526001600160a01b039485166004820152918416602483015251949b507f00000000000000000000000000000000000000000000000000000000000000009092169363e6a439059350604480840193829003018186803b158015610e5557600080fd5b505afa158015610e69573d6000803e3d6000fd5b505050506040513d6020811015610e7f57600080fd5b505187518890600090610e8e57fe5b6001600160a01b03929092166020928302919091018201526040805160018082528183019092529182810190803683370190505095508286600081518110610ed257fe5b6020908102919091010152604080516002808252606082019092529081602001602082028036833750508351825192975091879150600090610f1057fe5b6001600160a01b0392909216602092830291909101820152820151855186906001908110610f3a57fe5b6001600160a01b039290921660209283029190910182015260408051600280825260608201835290929091908301908036833750508251825192965091869150600090610f8357fe5b6020908102919091010152806001602002015184600181518110610d3c57fe5b6001600160e01b031988166303e38a2b60e01b141561111f5760606000806110008a8a8080601f0160208091040260200160405190810160405280939291908181526020018383808284376000920191909152506116db92505050565b9250925092506002835110156110475760405162461bcd60e51b815260040180806020018281038252602881526020018061228c6028913960400191505060405180910390fd5b60408051600180825281830190925290602080830190803683370190505096508260008151811061107457fe5b60200260200101518760008151811061108957fe5b6001600160a01b039290921660209283029190910182015260408051600180825281830190925291828101908036833701905050955081866000815181106110cd57fe5b6020908102919091010152604080516001808252818301909252908160200160208202803683370190505094508260018451038151811061110a57fe5b602002602001015185600081518110610cf857fe5b60405162461bcd60e51b81526004018080602001828103825260278152602001806122b46027913960400191505060405180910390fd5b60029450939792965093509350565b60408051808201909152600a8152692aa724a9aba0a82fab1960b11b602082015290565b7f03e38a2bd7063d45c897edeafc330e71657502dd86434d3c37a489caf116af6981565b7f000000000000000000000000000000000000000000000000000000000000000090565b7f000000000000000000000000000000000000000000000000000000000000000090565b7f68e30677f607df46e87da13e15b637784cfa62374b653f35ab43d10361a2f83081565b336001600160a01b037f000000000000000000000000000000000000000000000000000000000000000016146112805760405162461bcd60e51b81526004018080602001828103825260328152602001806123016032913960400191505060405180910390fd5b8482828080601f0160208091040260200160405190810160405280939291908181526020018383808284376000920182905250925060609150819050806112c6856114b3565b9296509094509250905060018460038111156112de57fe5b141561130b5760005b835181101561130957611301873085848151811061077a57fe5b6001016112e7565b505b600061131561226d565b61131d61226d565b61135c8d8d8080601f016020809104026020016040519081016040528093929190818152602001838380828437600092019190915250611bf592505050565b92509250925060606113a38c8c8080601f0160208091040260200160405190810160405280939291908181526020018383808284376000920191909152506114b392505050565b50509150506113f18f826000815181106113b957fe5b602002602001015186866000600281106113cf57fe5b6020020151876001602002015187600060200201518860016020020151611c32565b5050505061081c868261197b565b7f848f3a590fb2f9795d1a275009c54c26c53833277c96b90e0ddd01753a1d590681565b7f3377e18acf9e83665eacd6af109261424fca32a298e2fc2e6095ba563fb8390e81565b7f000000000000000000000000000000000000000000000000000000000000000090565b7f1d51f49b5273d9ddbb643dc349fab8d36dbb470209c2ea71033bea49dd311c2781565b7fc29fa9dde84204c2908778afd0613d802d31cf046179b88f6d2b4a4e507ea2d581565b600060608060608480602001905160808110156114cf57600080fd5b815160208301805160405192949293830192919084600160201b8211156114f557600080fd5b90830190602082018581111561150a57600080fd5b82518660208202830111600160201b8211171561152657600080fd5b82525081516020918201928201910280838360005b8381101561155357818101518382015260200161153b565b5050505090500160405260200180516040519392919084600160201b82111561157b57600080fd5b90830190602082018581111561159057600080fd5b82518660208202830111600160201b821117156115ac57600080fd5b82525081516020918201928201910280838360005b838110156115d95781810151838201526020016115c1565b5050505090500160405260200180516040519392919084600160201b82111561160157600080fd5b90830190602082018581111561161657600080fd5b82518660208202830111600160201b8211171561163257600080fd5b82525081516020918201928201910280838360005b8381101561165f578181015183820152602001611647565b5050505090500160405250505093509350935093509193509193565b604080516001600160a01b0380861660248301528416604482015260648082018490528251808303909101815260849091019091526020810180516001600160e01b03166323b872dd60e01b1790526116d5908590611d41565b50505050565b60606000808380602001905160608110156116f557600080fd5b8101908080516040519392919084600160201b82111561171457600080fd5b90830190602082018581111561172957600080fd5b82518660208202830111600160201b8211171561174557600080fd5b82525081516020918201928201910280838360005b8381101561177257818101518382015260200161175a565b5050505091909101604090815260208301519201519499919850939650945050505050565b6117d6816000815181106117a757fe5b60200260200101517f000000000000000000000000000000000000000000000000000000000000000085611df2565b6001600160a01b037f0000000000000000000000000000000000000000000000000000000000000000166338ed173984848488611814426001611e8a565b6040518663ffffffff1660e01b81526004018086815260200185815260200180602001846001600160a01b03168152602001838152602001828103825285818151815260200191508051906020019060200280838360005b8381101561188457818101518382015260200161186c565b505050509050019650505050505050600060405180830381600087803b1580156118ad57600080fd5b505af11580156118c1573d6000803e3d6000fd5b505050506040513d6000823e601f3d908101601f1916820160405260208110156118ea57600080fd5b8101908080516040519392919084600160201b82111561190957600080fd5b90830190602082018581111561191e57600080fd5b82518660208202830111600160201b8211171561193a57600080fd5b82525081516020918201928201910280838360005b8381101561196757818101518382015260200161194f565b505050509050016040525050505050505050565b60005b8151811015611a5757600082828151811061199557fe5b60200260200101516001600160a01b03166370a08231306040518263ffffffff1660e01b815260040180826001600160a01b0316815260200191505060206040518083038186803b1580156119e957600080fd5b505afa1580156119fd573d6000803e3d6000fd5b505050506040513d6020811015611a1357600080fd5b505190508015611a4e57611a4e8482858581518110611a2e57fe5b60200260200101516001600160a01b0316611eeb9092919063ffffffff16565b5060010161197e565b505050565b611a6461226d565b611a6c61226d565b611a7461226d565b60008480602001905160e0811015611a8b57600080fd5b5060c08101519096604088019650608088019550909350915050565b611ad2867f000000000000000000000000000000000000000000000000000000000000000086611df2565b611afd857f000000000000000000000000000000000000000000000000000000000000000085611df2565b6001600160a01b037f00000000000000000000000000000000000000000000000000000000000000001663e8e337008787878787878e611b3e426001611e8a565b6040518963ffffffff1660e01b815260040180896001600160a01b03168152602001886001600160a01b03168152602001878152602001868152602001858152602001848152602001836001600160a01b0316815260200182815260200198505050505050505050606060405180830381600087803b158015611bc057600080fd5b505af1158015611bd4573d6000803e3d6000fd5b505050506040513d6060811015611bea57600080fd5b505050505050505050565b6000611bff61226d565b611c0761226d565b8380602001905160a0811015611c1c57600080fd5b5080519560208201955060609091019350915050565b611c5d867f000000000000000000000000000000000000000000000000000000000000000087611df2565b6001600160a01b037f00000000000000000000000000000000000000000000000000000000000000001663baa2abde85858886868d611c9d426001611e8a565b6040518863ffffffff1660e01b815260040180886001600160a01b03168152602001876001600160a01b03168152602001868152602001858152602001848152602001836001600160a01b031681526020018281526020019750505050505050506040805180830381600087803b158015611d1757600080fd5b505af1158015611d2b573d6000803e3d6000fd5b505050506040513d6040811015611bea57600080fd5b6060611d96826040518060400160405280602081526020017f5361666545524332303a206c6f772d6c6576656c2063616c6c206661696c6564815250856001600160a01b0316611f3d9092919063ffffffff16565b805190915015611a5757808060200190516020811015611db557600080fd5b5051611a575760405162461bcd60e51b815260040180806020018281038252602a815260200180612333602a913960400191505060405180910390fd5b60408051636eb1769f60e11b81523060048201526001600160a01b0384811660248301529151839286169163dd62ed3e916044808301926020929190829003018186803b158015611e4257600080fd5b505afa158015611e56573d6000803e3d6000fd5b505050506040513d6020811015611e6c57600080fd5b50511015611a5757611a576001600160a01b03841683600019611f54565b600082820183811015611ee4576040805162461bcd60e51b815260206004820152601b60248201527f536166654d6174683a206164646974696f6e206f766572666c6f770000000000604482015290519081900360640190fd5b9392505050565b604080516001600160a01b038416602482015260448082018490528251808303909101815260649091019091526020810180516001600160e01b031663a9059cbb60e01b179052611a57908490611d41565b6060611f4c8484600085612067565b949350505050565b801580611fda575060408051636eb1769f60e11b81523060048201526001600160a01b03848116602483015291519185169163dd62ed3e91604480820192602092909190829003018186803b158015611fac57600080fd5b505afa158015611fc0573d6000803e3d6000fd5b505050506040513d6020811015611fd657600080fd5b5051155b6120155760405162461bcd60e51b815260040180806020018281038252603681526020018061235d6036913960400191505060405180910390fd5b604080516001600160a01b038416602482015260448082018490528251808303909101815260649091019091526020810180516001600160e01b031663095ea7b360e01b179052611a57908490611d41565b6060824710156120a85760405162461bcd60e51b81526004018080602001828103825260268152602001806122db6026913960400191505060405180910390fd5b6120b1856121c3565b612102576040805162461bcd60e51b815260206004820152601d60248201527f416464726573733a2063616c6c20746f206e6f6e2d636f6e7472616374000000604482015290519081900360640190fd5b60006060866001600160a01b031685876040518082805190602001908083835b602083106121415780518252601f199092019160209182019101612122565b6001836020036101000a03801982511681845116808217855250505050505090500191505060006040518083038185875af1925050503d80600081146121a3576040519150601f19603f3d011682016040523d82523d6000602084013e6121a8565b606091505b50915091506121b88282866121c9565b979650505050505050565b3b151590565b606083156121d8575081611ee4565b8251156121e85782518084602001fd5b8160405162461bcd60e51b81526004018080602001828103825283818151815260200191508051906020019080838360005b8381101561223257818101518382015260200161221a565b50505050905090810190601f16801561225f5780820380516001836020036101000a031916815260200191505b509250505060405180910390fd5b6040518060400160405280600290602082028036833750919291505056fe7061727365417373657473466f724d6574686f643a205f70617468206d757374206265203e3d20327061727365417373657473466f724d6574686f643a205f73656c6563746f7220696e76616c6964416464726573733a20696e73756666696369656e742062616c616e636520666f722063616c6c4f6e6c792074686520496e746567726174696f6e4d616e616765722063616e2063616c6c20746869732066756e6374696f6e5361666545524332303a204552433230206f7065726174696f6e20646964206e6f7420737563636565645361666545524332303a20617070726f76652066726f6d206e6f6e2d7a65726f20746f206e6f6e2d7a65726f20616c6c6f77616e6365a2646970667358221220a694625ee71d8d86face7f2bd4163cf62f453412fad3a4b2929457359b72af9464736f6c634300060c0033",
  "devdoc": {
    "author": "Enzyme Council <security@enzyme.finance>",
    "kind": "dev",
    "methods": {
      "getFactory()": {
        "returns": {
          "factory_": "The `FACTORY` variable value"
        }
      },
      "getIntegrationManager()": {
        "returns": {
          "integrationManager_": "The `INTEGRATION_MANAGER` variable value"
        }
      },
      "getRouter()": {
        "returns": {
          "router_": "The `ROUTER` variable value"
        }
      },
      "identifier()": {
        "returns": {
          "identifier_": "The identifer string"
        }
      },
      "lend(address,bytes,bytes)": {
        "params": {
          "_encodedAssetTransferArgs": "Encoded args for expected assets to spend and receive",
          "_encodedCallArgs": "Encoded order parameters",
          "_vaultProxy": "The VaultProxy of the calling fund"
        }
      },
      "parseAssetsForMethod(bytes4,bytes)": {
        "params": {
          "_encodedCallArgs": "The encoded parameters for the callOnIntegration",
          "_selector": "The function selector for the callOnIntegration"
        },
        "returns": {
          "incomingAssets_": "The assets to receive in the call",
          "minIncomingAssetAmounts_": "The min asset amounts to receive in the call",
          "spendAssetAmounts_": "The max asset amounts to spend in the call",
          "spendAssetsHandleType_": "A type that dictates how to handle granting the adapter access to spend assets (`None` by default)",
          "spendAssets_": "The assets to spend in the call"
        }
      },
      "redeem(address,bytes,bytes)": {
        "params": {
          "_encodedAssetTransferArgs": "Encoded args for expected assets to spend and receive",
          "_encodedCallArgs": "Encoded order parameters",
          "_vaultProxy": "The VaultProxy of the calling fund"
        }
      },
      "takeOrder(address,bytes,bytes)": {
        "params": {
          "_encodedAssetTransferArgs": "Encoded args for expected assets to spend and receive",
          "_encodedCallArgs": "Encoded order parameters",
          "_vaultProxy": "The VaultProxy of the calling fund"
        }
      }
    },
    "title": "UniswapV2Adapter Contract",
    "version": 1
  },
  "userdoc": {
    "kind": "user",
    "methods": {
      "getFactory()": {
        "notice": "Gets the `FACTORY` variable"
      },
      "getIntegrationManager()": {
        "notice": "Gets the `INTEGRATION_MANAGER` variable"
      },
      "getRouter()": {
        "notice": "Gets the `ROUTER` variable"
      },
      "identifier()": {
        "notice": "Provides a constant string identifier for an adapter"
      },
      "lend(address,bytes,bytes)": {
        "notice": "Lends assets for pool tokens on Uniswap"
      },
      "parseAssetsForMethod(bytes4,bytes)": {
        "notice": "Parses the expected assets to receive from a call on integration"
      },
      "redeem(address,bytes,bytes)": {
        "notice": "Redeems pool tokens on Uniswap"
      },
      "takeOrder(address,bytes,bytes)": {
        "notice": "Trades assets on Uniswap"
      }
    },
    "notice": "Adapter for interacting with Uniswap v2",
    "version": 1
  },
  "storageLayout": {
    "storage": [],
    "types": null
  }
}