{
  "address": "0x5642D3380320aC106816b921c998758D61a224f2",
  "abi": [
    {
      "inputs": [
        {
          "internalType": "address",
          "name": "_fundDeployer",
          "type": "address"
        },
        {
          "internalType": "address[]",
          "name": "_derivatives",
          "type": "address[]"
        },
        {
          "internalType": "address[]",
          "name": "_priceFeeds",
          "type": "address[]"
        }
      ],
      "stateMutability": "nonpayable",
      "type": "constructor"
    },
    {
      "anonymous": false,
      "inputs": [
        {
          "indexed": true,
          "internalType": "address",
          "name": "derivative",
          "type": "address"
        },
        {
          "indexed": false,
          "internalType": "address",
          "name": "priceFeed",
          "type": "address"
        }
      ],
      "name": "DerivativeAdded",
      "type": "event"
    },
    {
      "anonymous": false,
      "inputs": [
        {
          "indexed": true,
          "internalType": "address",
          "name": "derivative",
          "type": "address"
        }
      ],
      "name": "DerivativeRemoved",
      "type": "event"
    },
    {
      "anonymous": false,
      "inputs": [
        {
          "indexed": true,
          "internalType": "address",
          "name": "derivative",
          "type": "address"
        },
        {
          "indexed": false,
          "internalType": "address",
          "name": "prevPriceFeed",
          "type": "address"
        },
        {
          "indexed": false,
          "internalType": "address",
          "name": "nextPriceFeed",
          "type": "address"
        }
      ],
      "name": "DerivativeUpdated",
      "type": "event"
    },
    {
      "inputs": [
        {
          "internalType": "address[]",
          "name": "_derivatives",
          "type": "address[]"
        },
        {
          "internalType": "address[]",
          "name": "_priceFeeds",
          "type": "address[]"
        }
      ],
      "name": "addDerivatives",
      "outputs": [],
      "stateMutability": "nonpayable",
      "type": "function"
    },
    {
      "inputs": [
        {
          "internalType": "address",
          "name": "_derivative",
          "type": "address"
        },
        {
          "internalType": "uint256",
          "name": "_derivativeAmount",
          "type": "uint256"
        }
      ],
      "name": "calcUnderlyingValues",
      "outputs": [
        {
          "internalType": "address[]",
          "name": "underlyings_",
          "type": "address[]"
        },
        {
          "internalType": "uint256[]",
          "name": "underlyingAmounts_",
          "type": "uint256[]"
        }
      ],
      "stateMutability": "nonpayable",
      "type": "function"
    },
    {
      "inputs": [],
      "name": "getDeployTimestamp",
      "outputs": [
        {
          "internalType": "uint256",
          "name": "",
          "type": "uint256"
        }
      ],
      "stateMutability": "view",
      "type": "function"
    },
    {
      "inputs": [],
      "name": "getFundDeployer",
      "outputs": [
        {
          "internalType": "address",
          "name": "fundDeployer_",
          "type": "address"
        }
      ],
      "stateMutability": "view",
      "type": "function"
    },
    {
      "inputs": [],
      "name": "getOwner",
      "outputs": [
        {
          "internalType": "address",
          "name": "owner_",
          "type": "address"
        }
      ],
      "stateMutability": "view",
      "type": "function"
    },
    {
      "inputs": [
        {
          "internalType": "address",
          "name": "_derivative",
          "type": "address"
        }
      ],
      "name": "getPriceFeedForDerivative",
      "outputs": [
        {
          "internalType": "address",
          "name": "priceFeed_",
          "type": "address"
        }
      ],
      "stateMutability": "view",
      "type": "function"
    },
    {
      "inputs": [
        {
          "internalType": "address",
          "name": "_asset",
          "type": "address"
        }
      ],
      "name": "isSupportedAsset",
      "outputs": [
        {
          "internalType": "bool",
          "name": "isSupported_",
          "type": "bool"
        }
      ],
      "stateMutability": "view",
      "type": "function"
    },
    {
      "inputs": [
        {
          "internalType": "address[]",
          "name": "_derivatives",
          "type": "address[]"
        }
      ],
      "name": "removeDerivatives",
      "outputs": [],
      "stateMutability": "nonpayable",
      "type": "function"
    },
    {
      "inputs": [
        {
          "internalType": "address[]",
          "name": "_derivatives",
          "type": "address[]"
        },
        {
          "internalType": "address[]",
          "name": "_priceFeeds",
          "type": "address[]"
        }
      ],
      "name": "updateDerivatives",
      "outputs": [],
      "stateMutability": "nonpayable",
      "type": "function"
    }
  ],
  "transactionHash": "0xe0fa1eaf1931d4f3ce43855db28c11a62897346d531c5c16529a063e2bd3a79b",
  "args": [
    "0x217912B16c8A00C2D9F2fDFCA94127ca37cFe948",
    [
      "0x67B66C99D3Eb37Fa76Aa3Ed1ff33E8e39F0b9c7A",
      "0x123151402076fc819B7564510989e475c9cD93CA",
      "0x4ddc2d193948926d02f9b1fe9e1daa0718270ed5",
      "0xae7ab96520de3a18e5e111b5eaab095312d7fe84",
      "0xdfe66b14d37c77f4e9b180ceb433d1b164f0281d",
      "0xffc97d72e13e01096502cb8eb52dee56f74dad7b",
      "0x272f97b7a56a387ae942350bbc7df5700f8a4576",
      "0xa361718326c15715591c299427c62086f69923d9",
      "0x8dae6cb04688c62d939ed9b68d32bc62e49970b1",
      "0x028171bca77440897b824ca71d1c56cac55b68a3",
      "0xac6df26a590f08dcc95d5a4705ae8abbc88509ef",
      "0x39c6b3e42d6a679d7d776778fe880bc9487c2eda",
      "0xa06bc25b5805d5f8d82847d191cb4af5a3e873e0",
      "0xa685a61171bb30d4072b338c80cb7b2c865c873e",
      "0xc713e5e149d5d0715dcd1c156a020976e7e56b88",
      "0xcc12abe4ff81c9378d670de1b57f8e0dd228d77a",
      "0x35f6b052c598d933d69a4eec4d04c73a191fe6c2",
      "0x6c5024cd4f8a59110119c56f8933403a539555eb",
      "0xb9d7cb55f463405cdfbe4e90a6d2df01c2b92bf1",
      "0xbcca60bb61934080951369a648fb03df4f96263c",
      "0x3ed3b47dd13ec9a98b44e6204a523e766b225811",
      "0x9ff58f4ffb29fa2266ab25e75e2a8b3503311656",
      "0x030ba81f1c18d280636f32af80b9aad02cf0854e",
      "0x5165d24277cd063f5ac44efd447b27025e888f37",
      "0xdf7ff54aacacbff42dfe29dd6144a69b629f8c9e",
      "0x6c8c6b02e7b2be14d4fa6022dfd6d75921d90e4e",
      "0x70e36f6bf80a52b3b46b3af8e106cc0ed743e8e4",
      "0x5d3a536e4d6dbd6114cc1ead35777bab948e3643",
      "0x35a18000230da775cac24873d00ff85bccded550",
      "0x39aa39c021dfbae8fac545936693ac917d5e7563",
      "0xf650c3d88d12db855b8bf7d11be6c55a4e07dcc9",
      "0xc11b1268c1a384e55c48c2391d8d480264a3a7f4",
      "0xb3319f5d18bc0d84dd1b4825dcde5d5f7266d407",
      "0xFd2a8fA60Abd58Efe3EeE34dd494cD491dC14900",
      "0x194eBd173F6cDacE046C53eACcE9B953F28411d1",
      "0xA3D87FffcE63B53E0d54fAa1cc983B7eB0b74A9c",
      "0x06325440D014e39736583c165C2963BA99fAf14E",
      "0xd662908ADA2Ea1916B3318327A97eB18aD588b5d",
      "0x90Bb609649E0451E5aD952683D64BD2d1f245840",
      "0x3C0FFFF15EA30C35d7A85B85c0782D6c94e1d238",
      "0x182B723a58739a9c974cFDB385ceaDb237453c28",
      "0x3fe7940616e5bc47b0775a0dccf6237893353bb4",
      "0xf52cdcd458bf455aed77751743180ec4a595fd3f",
      "0x5274891bec421b39d23760c04a6755ecb444797c",
      "0xf34842d05a1c888ca02769a633df37177415c2f8",
      "0x8c81121b15197fa0eeaee1dc75533419dcfd3151",
      "0xc8e6ca6e96a326dc448307a5fde90a0b21fd7f80",
      "0xa14ea0e11121e6e951e87c66afe460a00bcd6a16",
      "0x3391bc034f2935ef0e1e41619445f998b2680d35",
      "0x28fac5334c9f7262b3a3fe707e250e01053e07b5",
      "0x176c674ee533c6139b0dc8b458d72a93dcb3e705",
      "0x8a8079c7149b8a1611e5c5d978dca3be16545f83",
      "0xafd870f32ce54efdbf677466b612bf8ad164454b",
      "0xd6014ea05bde904448b743833ddf07c3c7837481",
      "0x336213e1ddfc69f4701fc3f86f4ef4a160c1159d",
      "0x6345728b1cce16e6f8c509950b5c84fff88530d9",
      "0xcb98f42221b2c251a4e74a1609722ee09f0cc08e",
      "0x14d10003807ac60d07bb0ba82caeac8d2087c157",
      "0x46a97629c9c1f58de6ec18c7f536e7e6d6a6ecde",
      "0xf4eebdd0704021ef2a6bbe993fdf93030cd784b4",
      "0xd50c1746d835d2770dda3703b69187bffeb14126",
      "0xa9859874e1743a32409f75bb11549892138bba1e",
      "0x2d7ac061fc3db53c39fe1607fb8cec1b2c162b01",
      "0x79da1431150c9b82d2e5dfc1c68b33216846851e",
      "0xa5a5df41883cdc00c4ccc6e8097130535399d9a3",
      "0x0fed38108bdb8e62ef7b5680e8e0726e2f29e0de",
      "0xc5807183a9661a533cb08cbc297594a0b864dc12",
      "0x36a00ff9072570ef4b9292117850b8fe08d96cce",
      "0x4adf728e2df4945082cdd6053869f51278fae196",
      "0x27269b3e45a4d3e79a3d6bfee0c8fb13d0d711a6",
      "0x8deef89058090ac5655a99eeb451a4f9183d1678",
      "0x592244301cea952d6dab2fdc1fe6bd9e53917306",
      "0xcd39b5434a0a92cf47d1f567a7df84be356814f0",
      "0x7537aae01f3b218dae75e10d952473823f961b87",
      "0xd2df355c19471c8bd7d8a3aa27ff4e26a21b4076",
      "0xe36e2d3c7c34281fa3bc737950a68571736880a1",
      "0x9cf7e61853ea30a41b02169391b393b901eac457",
      "0xf48e200eaf9906362bb1442fca31e0835773b8b4",
      "0x36a2422a863d5b950882190ff5433e513413343a",
      "0x617aecb6137b5108d1e7d4918e3725c8cebdb848",
      "0xfe18be6b3bd88a2d2a7f928d00292e7a9963cfc6",
      "0xeabacd844a196d7faf3ce596edebf9900341b420",
      "0x0f83287ff768d1c1e17a42f44d644d7f22e8ee1d",
      "0xeb029507d3e043dd6c87f2917c4e82b902c35618",
      "0xd38aeb759891882e78e957c80656572503d8c1b1",
      "0xfe33ae95a9f0da8a845af33516edc240dcd711d6",
      "0xe1afe1fd76fd88f78cbf599ea1846231b8ba3b6b",
      "0x1715ac0743102bf5cd58efbb6cf2dc2685d967b6",
      "0x88c8cf3a212c0369698d13fe98fcb76620389841",
      "0x22602469d704bffb0936c7a7cfcd18f7aa269375",
      "0x5e74c9036fb86bd7ecdcb084a0673efc32ea31cb",
      "0xd71ecff9342a5ced620049e616c5035f1db98620",
      "0xf50b5e535f62a56a9bd2d8e2434204e726c027fa",
      "0x23348160d7f5aca21195df2b70f28fce2b0be9fc",
      "0x97fe22e7341a0cd8db6f6c021a24dc8f4dad855f",
      "0xc63b8ecce56ab9c46184ec6ab85e4771fea4c8ad",
      "0xf6b1c627e95bfc3c1b4c9b825a032ff0fbf3e07d",
      "0xbbc455cb4f1b9e4bfc4b73970d360c8f032efee6",
      "0xc14103c2141e842e228fbac594579e798616ce7a",
      "0x5a7e3c07604eb515c16b36cd51906a65f021f609",
      "0x757de3ac6b830a931ef178c6634c5c551773155c",
      "0x6d16cf3ec5f763d4d99cb0b0b110eefd93b11b56",
      "0xd31533e8d0f3df62060e94b3f1318137bb6e3525",
      "0x0352557b007a4aae1511c114409b932f06f9e2f4",
      "0xf2e08356588ec5cd9e437552da87c0076b4970b0",
      "0x918da91ccbc32b7a6a0cc4ecd5987bbab6e31e6d",
      "0x30635297e450b930f8693297eba160d9e6c8ebcf",
      "0x6a22e5e94388464181578aa7a6b869e00fe27846",
      "0x261efcdd24cea98652b9700800a13dfbca4103ff",
      "0x5299d6f7472dcc137d7f3c4bcfbbb514babf341a",
      "0xa2b0fde6d710e201d0d608e924a484d1a5fed57c",
      "0x2e59005c5c0f0a4d77cca82653d48b46322ee5cd",
      "0x992058b7db08f9734d84485bfbc243c4ee6954a7",
      "0xdCD90C7f6324cfa40d7169ef80b12031770B4325",
      "0x19D3364A399d251E894aC732651be8B0E4e85001",
      "0x5f18C75AbDAe578b483E5F43f12a39cF75b973a9"
    ],
    [
      "0xc4Cd70d98EfB9cc6c10935803712b95E4518BF00",
      "0x94841425485917067Cef962c5308704b9d2dB076",
      "0xb553EA9f4FBE85827DCB886Da40639521aa25483",
      "0x7b132c6FadF8EB36cCcda7D2E732FA0a8685ef22",
      "0x5073B1666E9f9BD9E3CE589fA02e85684d1F3e93",
      "0x2D0cBa63370d9E6e196ab13546a4fC6151e27A42",
      "0x2D0cBa63370d9E6e196ab13546a4fC6151e27A42",
      "0x2D0cBa63370d9E6e196ab13546a4fC6151e27A42",
      "0x2D0cBa63370d9E6e196ab13546a4fC6151e27A42",
      "0x2D0cBa63370d9E6e196ab13546a4fC6151e27A42",
      "0x2D0cBa63370d9E6e196ab13546a4fC6151e27A42",
      "0x2D0cBa63370d9E6e196ab13546a4fC6151e27A42",
      "0x2D0cBa63370d9E6e196ab13546a4fC6151e27A42",
      "0x2D0cBa63370d9E6e196ab13546a4fC6151e27A42",
      "0x2D0cBa63370d9E6e196ab13546a4fC6151e27A42",
      "0x2D0cBa63370d9E6e196ab13546a4fC6151e27A42",
      "0x2D0cBa63370d9E6e196ab13546a4fC6151e27A42",
      "0x2D0cBa63370d9E6e196ab13546a4fC6151e27A42",
      "0x2D0cBa63370d9E6e196ab13546a4fC6151e27A42",
      "0x2D0cBa63370d9E6e196ab13546a4fC6151e27A42",
      "0x2D0cBa63370d9E6e196ab13546a4fC6151e27A42",
      "0x2D0cBa63370d9E6e196ab13546a4fC6151e27A42",
      "0x2D0cBa63370d9E6e196ab13546a4fC6151e27A42",
      "0x2D0cBa63370d9E6e196ab13546a4fC6151e27A42",
      "0x2D0cBa63370d9E6e196ab13546a4fC6151e27A42",
      "0xb553EA9f4FBE85827DCB886Da40639521aa25483",
      "0xb553EA9f4FBE85827DCB886Da40639521aa25483",
      "0xb553EA9f4FBE85827DCB886Da40639521aa25483",
      "0xb553EA9f4FBE85827DCB886Da40639521aa25483",
      "0xb553EA9f4FBE85827DCB886Da40639521aa25483",
      "0xb553EA9f4FBE85827DCB886Da40639521aa25483",
      "0xb553EA9f4FBE85827DCB886Da40639521aa25483",
      "0xb553EA9f4FBE85827DCB886Da40639521aa25483",
      "0x8F99659606bcE13cA21c40fb44452D65D03BA487",
      "0x8F99659606bcE13cA21c40fb44452D65D03BA487",
      "0x8F99659606bcE13cA21c40fb44452D65D03BA487",
      "0x8F99659606bcE13cA21c40fb44452D65D03BA487",
      "0x8F99659606bcE13cA21c40fb44452D65D03BA487",
      "0x8F99659606bcE13cA21c40fb44452D65D03BA487",
      "0x8F99659606bcE13cA21c40fb44452D65D03BA487",
      "0x8F99659606bcE13cA21c40fb44452D65D03BA487",
      "0x040Ce9d2a8F2Ff1b210790cED9dB8c3A6D023941",
      "0x040Ce9d2a8F2Ff1b210790cED9dB8c3A6D023941",
      "0x040Ce9d2a8F2Ff1b210790cED9dB8c3A6D023941",
      "0x040Ce9d2a8F2Ff1b210790cED9dB8c3A6D023941",
      "0x040Ce9d2a8F2Ff1b210790cED9dB8c3A6D023941",
      "0x040Ce9d2a8F2Ff1b210790cED9dB8c3A6D023941",
      "0x040Ce9d2a8F2Ff1b210790cED9dB8c3A6D023941",
      "0x040Ce9d2a8F2Ff1b210790cED9dB8c3A6D023941",
      "0x040Ce9d2a8F2Ff1b210790cED9dB8c3A6D023941",
      "0x0A887f7eD35383F3B7732962CC7eB7967647bf9F",
      "0x0A887f7eD35383F3B7732962CC7eB7967647bf9F",
      "0x0A887f7eD35383F3B7732962CC7eB7967647bf9F",
      "0x0A887f7eD35383F3B7732962CC7eB7967647bf9F",
      "0x0A887f7eD35383F3B7732962CC7eB7967647bf9F",
      "0x0A887f7eD35383F3B7732962CC7eB7967647bf9F",
      "0x0A887f7eD35383F3B7732962CC7eB7967647bf9F",
      "0x0A887f7eD35383F3B7732962CC7eB7967647bf9F",
      "0x0A887f7eD35383F3B7732962CC7eB7967647bf9F",
      "0x0A887f7eD35383F3B7732962CC7eB7967647bf9F",
      "0x0A887f7eD35383F3B7732962CC7eB7967647bf9F",
      "0x0A887f7eD35383F3B7732962CC7eB7967647bf9F",
      "0x0A887f7eD35383F3B7732962CC7eB7967647bf9F",
      "0x0A887f7eD35383F3B7732962CC7eB7967647bf9F",
      "0x0A887f7eD35383F3B7732962CC7eB7967647bf9F",
      "0x0A887f7eD35383F3B7732962CC7eB7967647bf9F",
      "0x0A887f7eD35383F3B7732962CC7eB7967647bf9F",
      "0x0A887f7eD35383F3B7732962CC7eB7967647bf9F",
      "0x0A887f7eD35383F3B7732962CC7eB7967647bf9F",
      "0x0A887f7eD35383F3B7732962CC7eB7967647bf9F",
      "0x0A887f7eD35383F3B7732962CC7eB7967647bf9F",
      "0x0A887f7eD35383F3B7732962CC7eB7967647bf9F",
      "0x0A887f7eD35383F3B7732962CC7eB7967647bf9F",
      "0x0A887f7eD35383F3B7732962CC7eB7967647bf9F",
      "0x0A887f7eD35383F3B7732962CC7eB7967647bf9F",
      "0x0A887f7eD35383F3B7732962CC7eB7967647bf9F",
      "0x0A887f7eD35383F3B7732962CC7eB7967647bf9F",
      "0x0A887f7eD35383F3B7732962CC7eB7967647bf9F",
      "0x0A887f7eD35383F3B7732962CC7eB7967647bf9F",
      "0x0A887f7eD35383F3B7732962CC7eB7967647bf9F",
      "0x0A887f7eD35383F3B7732962CC7eB7967647bf9F",
      "0x0A887f7eD35383F3B7732962CC7eB7967647bf9F",
      "0x0A887f7eD35383F3B7732962CC7eB7967647bf9F",
      "0x0A887f7eD35383F3B7732962CC7eB7967647bf9F",
      "0x0A887f7eD35383F3B7732962CC7eB7967647bf9F",
      "0x0A887f7eD35383F3B7732962CC7eB7967647bf9F",
      "0x0A887f7eD35383F3B7732962CC7eB7967647bf9F",
      "0x0A887f7eD35383F3B7732962CC7eB7967647bf9F",
      "0x0A887f7eD35383F3B7732962CC7eB7967647bf9F",
      "0x0A887f7eD35383F3B7732962CC7eB7967647bf9F",
      "0x0A887f7eD35383F3B7732962CC7eB7967647bf9F",
      "0x0A887f7eD35383F3B7732962CC7eB7967647bf9F",
      "0x0A887f7eD35383F3B7732962CC7eB7967647bf9F",
      "0x0A887f7eD35383F3B7732962CC7eB7967647bf9F",
      "0x0A887f7eD35383F3B7732962CC7eB7967647bf9F",
      "0x0A887f7eD35383F3B7732962CC7eB7967647bf9F",
      "0x0A887f7eD35383F3B7732962CC7eB7967647bf9F",
      "0x0A887f7eD35383F3B7732962CC7eB7967647bf9F",
      "0x0A887f7eD35383F3B7732962CC7eB7967647bf9F",
      "0x0A887f7eD35383F3B7732962CC7eB7967647bf9F",
      "0x0A887f7eD35383F3B7732962CC7eB7967647bf9F",
      "0x0A887f7eD35383F3B7732962CC7eB7967647bf9F",
      "0x0A887f7eD35383F3B7732962CC7eB7967647bf9F",
      "0x0A887f7eD35383F3B7732962CC7eB7967647bf9F",
      "0x0A887f7eD35383F3B7732962CC7eB7967647bf9F",
      "0x0A887f7eD35383F3B7732962CC7eB7967647bf9F",
      "0x0A887f7eD35383F3B7732962CC7eB7967647bf9F",
      "0x0A887f7eD35383F3B7732962CC7eB7967647bf9F",
      "0x0A887f7eD35383F3B7732962CC7eB7967647bf9F",
      "0x0A887f7eD35383F3B7732962CC7eB7967647bf9F",
      "0x0A887f7eD35383F3B7732962CC7eB7967647bf9F",
      "0x0A887f7eD35383F3B7732962CC7eB7967647bf9F",
      "0x0A887f7eD35383F3B7732962CC7eB7967647bf9F",
      "0xCe0e9a5F4DbDf83E5E212E1E8340b946Ae249c79",
      "0xCe0e9a5F4DbDf83E5E212E1E8340b946Ae249c79",
      "0xCe0e9a5F4DbDf83E5E212E1E8340b946Ae249c79"
    ]
  ],
  "solcInputHash": "34b1516e615d6cbcdbaf9542624efee9",
  "bytecode": "0x60c06040523480156200001157600080fd5b50604051620018df380380620018df833981810160405260608110156200003757600080fd5b8151602083018051604051929492938301929190846401000000008211156200005f57600080fd5b9083019060208201858111156200007557600080fd5b82518660208202830111640100000000821117156200009357600080fd5b82525081516020918201928201910280838360005b83811015620000c2578181015183820152602001620000a8565b5050505090500160405260200180516040519392919084640100000000821115620000ec57600080fd5b9083019060208201858111156200010257600080fd5b82518660208202830111640100000000821117156200012057600080fd5b82525081516020918201928201910280838360005b838110156200014f57818101518382015260200162000135565b50505050919091016040525050506001600160601b0319606085901b16608052504260a052815115620001885762000188828262000191565b505050620004ec565b8051825114620001d35760405162461bcd60e51b81526004018080602001828103825260448152602001806200186b6044913960600191505060405180910390fd5b60005b82518110156200039c5760006001600160a01b0316600080858481518110620001fb57fe5b6020908102919091018101516001600160a01b0390811683529082019290925260400160002054161462000276576040805162461bcd60e51b815260206004820152601f60248201527f5f5f61646444657269766174697665733a20416c726561647920616464656400604482015290519081900360640190fd5b620002b08382815181106200028757fe5b60200260200101518383815181106200029c57fe5b6020026020010151620003a160201b60201c565b818181518110620002bd57fe5b6020026020010151600080858481518110620002d557fe5b60200260200101516001600160a01b03166001600160a01b0316815260200190815260200160002060006101000a8154816001600160a01b0302191690836001600160a01b031602179055508281815181106200032e57fe5b60200260200101516001600160a01b03167faa4ae250fb435bb4b31ed0b95822bc179fc6c5dd0c727c3ffe08d444025efd988383815181106200036d57fe5b602002602001015160405180826001600160a01b0316815260200191505060405180910390a2600101620001d6565b505050565b6001600160a01b038216620003e85760405162461bcd60e51b8152600401808060200182810382526030815260200180620018af6030913960400191505060405180910390fd5b6001600160a01b0381166200042f5760405162461bcd60e51b815260040180806020018281038252602f81526020018062001807602f913960400191505060405180910390fd5b806001600160a01b0316639be918e6836040518263ffffffff1660e01b815260040180826001600160a01b0316815260200191505060206040518083038186803b1580156200047d57600080fd5b505afa15801562000492573d6000803e3d6000fd5b505050506040513d6020811015620004a957600080fd5b5051620004e85760405162461bcd60e51b8152600401808060200182810382526035815260200180620018366035913960400191505060405180910390fd5b5050565b60805160601c60a0516112ef62000518600039806104f7525080610747528061098452506112ef6000f3fe608060405234801561001057600080fd5b50600436106100935760003560e01c8063893d20e811610066578063893d20e8146102795780638f72b1361461028157806397c0ac87146102ef5780639be918e6146102f7578063b3d3af3b1461033157610093565b806339cbb63c146100985780634f30470d1461015857806368e81c6d14610172578063727212f6146101b4575b600080fd5b610156600480360360408110156100ae57600080fd5b810190602081018135600160201b8111156100c857600080fd5b8201836020820111156100da57600080fd5b803590602001918460208302840111600160201b831117156100fb57600080fd5b919390929091602081019035600160201b81111561011857600080fd5b82018360208201111561012a57600080fd5b803590602001918460208302840111600160201b8311171561014b57600080fd5b5090925090506103ef565b005b6101606104f5565b60408051918252519081900360200190f35b6101986004803603602081101561018857600080fd5b50356001600160a01b0316610519565b604080516001600160a01b039092168252519081900360200190f35b6101e0600480360360408110156101ca57600080fd5b506001600160a01b038135169060200135610537565b604051808060200180602001838103835285818151815260200191508051906020019060200280838360005b8381101561022457818101518382015260200161020c565b50505050905001838103825284818151815260200191508051906020019060200280838360005b8381101561026357818101518382015260200161024b565b5050505090500194505050505060405180910390f35b610198610743565b6101566004803603602081101561029757600080fd5b810190602081018135600160201b8111156102b157600080fd5b8201836020820111156102c357600080fd5b803590602001918460208302840111600160201b831117156102e457600080fd5b5090925090506107cf565b610198610982565b61031d6004803603602081101561030d57600080fd5b50356001600160a01b03166109a6565b604080519115158252519081900360200190f35b6101566004803603604081101561034757600080fd5b810190602081018135600160201b81111561036157600080fd5b82018360208201111561037357600080fd5b803590602001918460208302840111600160201b8311171561039457600080fd5b919390929091602081019035600160201b8111156103b157600080fd5b8201836020820111156103c357600080fd5b803590602001918460208302840111600160201b831117156103e457600080fd5b5090925090506109c6565b6103f7610743565b6001600160a01b0316336001600160a01b0316146104465760405162461bcd60e51b81526004018080602001828103825260498152602001806110c06049913960600191505060405180910390fd5b826104825760405162461bcd60e51b815260040180806020018281038252602c81526020018061115c602c913960400191505060405180910390fd5b6104ef84848080602002602001604051908101604052809392919081815260200183836020028082843760009201919091525050604080516020808802828101820190935287825290935087925086918291850190849080828437600092019190915250610ce492505050565b50505050565b7f000000000000000000000000000000000000000000000000000000000000000090565b6001600160a01b039081166000908152602081905260409020541690565b6001600160a01b03808316600090815260208190526040902054606091829116806105935760405162461bcd60e51b81526004018080602001828103825260328152602001806110636032913960400191505060405180910390fd5b806001600160a01b031663727212f686866040518363ffffffff1660e01b815260040180836001600160a01b0316815260200182815260200192505050600060405180830381600087803b1580156105ea57600080fd5b505af11580156105fe573d6000803e3d6000fd5b505050506040513d6000823e601f3d908101601f19168201604090815281101561062757600080fd5b8101908080516040519392919084600160201b82111561064657600080fd5b90830190602082018581111561065b57600080fd5b82518660208202830111600160201b8211171561067757600080fd5b82525081516020918201928201910280838360005b838110156106a457818101518382015260200161068c565b5050505090500160405260200180516040519392919084600160201b8211156106cc57600080fd5b9083019060208201858111156106e157600080fd5b82518660208202830111600160201b821117156106fd57600080fd5b82525081516020918201928201910280838360005b8381101561072a578181015183820152602001610712565b5050505090500160405250505092509250509250929050565b60007f00000000000000000000000000000000000000000000000000000000000000006001600160a01b031663893d20e86040518163ffffffff1660e01b815260040160206040518083038186803b15801561079e57600080fd5b505afa1580156107b2573d6000803e3d6000fd5b505050506040513d60208110156107c857600080fd5b5051905090565b6107d7610743565b6001600160a01b0316336001600160a01b0316146108265760405162461bcd60e51b81526004018080602001828103825260498152602001806110c06049913960600191505060405180910390fd5b806108625760405162461bcd60e51b815260040180806020018281038252602f815260200180611109602f913960400191505060405180910390fd5b60005b8181101561097d576000808085858581811061087d57fe5b6001600160a01b03602091820293909301358316845283019390935260409091016000205416919091141590506108e55760405162461bcd60e51b815260040180806020018281038252602b8152602001806111e6602b913960400191505060405180910390fd5b6000808484848181106108f457fe5b602090810292909201356001600160a01b031683525081019190915260400160002080546001600160a01b031916905582828281811061093057fe5b905060200201356001600160a01b03166001600160a01b03167fc15eb25d807b570f4567baf6e97c7b26d58a7d0512dc85e8db15375a056b860460405160405180910390a2600101610865565b505050565b7f000000000000000000000000000000000000000000000000000000000000000090565b6001600160a01b0390811660009081526020819052604090205416151590565b6109ce610743565b6001600160a01b0316336001600160a01b031614610a1d5760405162461bcd60e51b81526004018080602001828103825260498152602001806110c06049913960600191505060405180910390fd5b82610a595760405162461bcd60e51b815260040180806020018281038252602f815260200180611188602f913960400191505060405180910390fd5b828114610a975760405162461bcd60e51b815260040180806020018281038252604581526020018061101e6045913960600191505060405180910390fd5b60005b83811015610cdd576000806000878785818110610ab357fe5b6001600160a01b0360209182029390930135831684528301939093526040909101600020541691505080610b185760405162461bcd60e51b815260040180806020018281038252602b815260200180611095602b913960400191505060405180910390fd5b806001600160a01b0316848484818110610b2e57fe5b905060200201356001600160a01b03166001600160a01b03161415610b845760405162461bcd60e51b81526004018080602001828103825260248152602001806111386024913960400191505060405180910390fd5b610bc4868684818110610b9357fe5b905060200201356001600160a01b0316858585818110610baf57fe5b905060200201356001600160a01b0316610edb565b838383818110610bd057fe5b905060200201356001600160a01b0316600080888886818110610bef57fe5b905060200201356001600160a01b03166001600160a01b03166001600160a01b0316815260200190815260200160002060006101000a8154816001600160a01b0302191690836001600160a01b03160217905550858583818110610c4f57fe5b905060200201356001600160a01b03166001600160a01b03167f762002460c0dd59494a8c0d47d7fe01c1cf898b972a2d174272f2e258c29e9a782868686818110610c9657fe5b905060200201356001600160a01b031660405180836001600160a01b03168152602001826001600160a01b031681526020019250505060405180910390a250600101610a9a565b5050505050565b8051825114610d245760405162461bcd60e51b81526004018080602001828103825260448152602001806112466044913960600191505060405180910390fd5b60005b825181101561097d5760006001600160a01b0316600080858481518110610d4a57fe5b6020908102919091018101516001600160a01b03908116835290820192909252604001600020541614610dc4576040805162461bcd60e51b815260206004820152601f60248201527f5f5f61646444657269766174697665733a20416c726561647920616464656400604482015290519081900360640190fd5b610df4838281518110610dd357fe5b6020026020010151838381518110610de757fe5b6020026020010151610edb565b818181518110610e0057fe5b6020026020010151600080858481518110610e1757fe5b60200260200101516001600160a01b03166001600160a01b0316815260200190815260200160002060006101000a8154816001600160a01b0302191690836001600160a01b03160217905550828181518110610e6f57fe5b60200260200101516001600160a01b03167faa4ae250fb435bb4b31ed0b95822bc179fc6c5dd0c727c3ffe08d444025efd98838381518110610ead57fe5b602002602001015160405180826001600160a01b0316815260200191505060405180910390a2600101610d27565b6001600160a01b038216610f205760405162461bcd60e51b815260040180806020018281038252603081526020018061128a6030913960400191505060405180910390fd5b6001600160a01b038116610f655760405162461bcd60e51b815260040180806020018281038252602f8152602001806111b7602f913960400191505060405180910390fd5b806001600160a01b0316639be918e6836040518263ffffffff1660e01b815260040180826001600160a01b0316815260200191505060206040518083038186803b158015610fb257600080fd5b505afa158015610fc6573d6000803e3d6000fd5b505050506040513d6020811015610fdc57600080fd5b50516110195760405162461bcd60e51b81526004018080602001828103825260358152602001806112116035913960400191505060405180910390fd5b505056fe75706461746544657269766174697665733a20556e657175616c205f646572697661746976657320616e64205f70726963654665656473206172726179206c656e6774687363616c63556e6465726c79696e6756616c7565733a205f64657269766174697665206973206e6f7420737570706f7274656475706461746544657269766174697665733a2044657269766174697665206e6f74207965742061646465646f6e6c7946756e644465706c6f7965724f776e65723a204f6e6c79207468652046756e644465706c6f796572206f776e65722063616e2063616c6c20746869732066756e6374696f6e72656d6f766544657269766174697665733a205f64657269766174697665732063616e6e6f7420626520656d70747975706461746544657269766174697665733a2056616c756520616c72656164792073657461646444657269766174697665733a205f64657269766174697665732063616e6e6f7420626520656d70747975706461746544657269766174697665733a205f64657269766174697665732063616e6e6f7420626520656d7074795f5f76616c6964617465446572697661746976655072696365466565643a20456d707479205f70726963654665656472656d6f766544657269766174697665733a2044657269766174697665206e6f74207965742061646465645f5f76616c6964617465446572697661746976655072696365466565643a20556e737570706f7274656420646572697661746976655f5f61646444657269766174697665733a20556e657175616c205f646572697661746976657320616e64205f70726963654665656473206172726179206c656e677468735f5f76616c6964617465446572697661746976655072696365466565643a20456d707479205f64657269766174697665a26469706673582212206c4628d9aa96bfda11e7ed482f7f09a23b6f94ba0abb74a110500e43e945d91d64736f6c634300060c00335f5f76616c6964617465446572697661746976655072696365466565643a20456d707479205f7072696365466565645f5f76616c6964617465446572697661746976655072696365466565643a20556e737570706f7274656420646572697661746976655f5f61646444657269766174697665733a20556e657175616c205f646572697661746976657320616e64205f70726963654665656473206172726179206c656e677468735f5f76616c6964617465446572697661746976655072696365466565643a20456d707479205f64657269766174697665",
  "devdoc": {
    "author": "Enzyme Council <security@enzyme.finance>",
    "kind": "dev",
    "methods": {
      "addDerivatives(address[],address[])": {
        "params": {
          "_derivatives": "The derivatives to add",
          "_priceFeeds": "The ordered price feeds corresponding to the list of _derivatives"
        }
      },
      "calcUnderlyingValues(address,uint256)": {
        "params": {
          "_derivative": "The derivative for which to get the rates"
        },
        "returns": {
          "underlyingAmounts_": "The rates for the _derivative to the underlyings_",
          "underlyings_": "The underlying assets for the _derivative"
        }
      },
      "getFundDeployer()": {
        "returns": {
          "fundDeployer_": "The `FUND_DEPLOYER` variable value"
        }
      },
      "getOwner()": {
        "details": "Ownership is deferred to the owner of the FundDeployer contract",
        "returns": {
          "owner_": "The owner"
        }
      },
      "getPriceFeedForDerivative(address)": {
        "returns": {
          "priceFeed_": "The price feed contract address"
        }
      },
      "isSupportedAsset(address)": {
        "details": "This should be as low-cost and simple as possible",
        "params": {
          "_asset": "The asset to check"
        },
        "returns": {
          "isSupported_": "True if the asset is a supported derivative"
        }
      },
      "removeDerivatives(address[])": {
        "params": {
          "_derivatives": "The derivatives to remove"
        }
      },
      "updateDerivatives(address[],address[])": {
        "params": {
          "_derivatives": "The derivatives to update",
          "_priceFeeds": "The ordered price feeds corresponding to the list of _derivatives"
        }
      }
    },
    "title": "AggregatedDerivativePriceFeed Contract",
    "version": 1
  },
  "userdoc": {
    "kind": "user",
    "methods": {
      "addDerivatives(address[],address[])": {
        "notice": "Adds a list of derivatives with the given price feed values"
      },
      "calcUnderlyingValues(address,uint256)": {
        "notice": "Gets the rates for 1 unit of the derivative to its underlying assets"
      },
      "getFundDeployer()": {
        "notice": "Gets the `FUND_DEPLOYER` variable"
      },
      "getOwner()": {
        "notice": "Gets the owner of this contract"
      },
      "getPriceFeedForDerivative(address)": {
        "notice": "Gets the registered price feed for a given derivative"
      },
      "isSupportedAsset(address)": {
        "notice": "Checks whether an asset is a supported derivative"
      },
      "removeDerivatives(address[])": {
        "notice": "Removes a list of derivatives"
      },
      "updateDerivatives(address[],address[])": {
        "notice": "Updates a list of derivatives with the given price feed values"
      }
    },
    "notice": "Aggregates multiple derivative price feeds (e.g., Compound, Chai) and dispatches rate requests to the appropriate feed",
    "version": 1
  },
  "storageLayout": {
    "storage": [
      {
        "astId": 40057,
        "contract": "contracts/release/infrastructure/price-feeds/derivatives/AggregatedDerivativePriceFeed.sol:AggregatedDerivativePriceFeed",
        "label": "derivativeToPriceFeed",
        "offset": 0,
        "slot": "0",
        "type": "t_mapping(t_address,t_address)"
      }
    ],
    "types": {
      "t_address": {
        "encoding": "inplace",
        "label": "address",
        "numberOfBytes": "20"
      },
      "t_mapping(t_address,t_address)": {
        "encoding": "mapping",
        "key": "t_address",
        "label": "mapping(address => address)",
        "numberOfBytes": "32",
        "value": "t_address"
      }
    }
  }
}