{
  "address": "0x1910EE81d212Dc84A0Ad10BC36F159587bbe0da3",
  "abi": [
    {
      "inputs": [],
      "stateMutability": "nonpayable",
      "type": "constructor"
    },
    {
      "anonymous": false,
      "inputs": [
        {
          "indexed": false,
          "internalType": "address",
          "name": "dispatcher",
          "type": "address"
        },
        {
          "indexed": false,
          "internalType": "address",
          "name": "feeManager",
          "type": "address"
        }
      ],
      "name": "OperatorsSet",
      "type": "event"
    },
    {
      "inputs": [
        {
          "internalType": "address",
          "name": "_vault",
          "type": "address"
        }
      ],
      "name": "addTrackedVault",
      "outputs": [],
      "stateMutability": "nonpayable",
      "type": "function"
    },
    {
      "inputs": [],
      "name": "getDispatcher",
      "outputs": [
        {
          "internalType": "address",
          "name": "",
          "type": "address"
        }
      ],
      "stateMutability": "view",
      "type": "function"
    },
    {
      "inputs": [],
      "name": "getFeeManager",
      "outputs": [
        {
          "internalType": "address",
          "name": "",
          "type": "address"
        }
      ],
      "stateMutability": "view",
      "type": "function"
    },
    {
      "inputs": [],
      "name": "getOwner",
      "outputs": [
        {
          "internalType": "address",
          "name": "",
          "type": "address"
        }
      ],
      "stateMutability": "view",
      "type": "function"
    },
    {
      "inputs": [
        {
          "internalType": "uint256",
          "name": "_id",
          "type": "uint256"
        }
      ],
      "name": "getTrackedVault",
      "outputs": [
        {
          "internalType": "address",
          "name": "",
          "type": "address"
        }
      ],
      "stateMutability": "view",
      "type": "function"
    },
    {
      "inputs": [],
      "name": "getTrackedVaultsLength",
      "outputs": [
        {
          "internalType": "uint256",
          "name": "",
          "type": "uint256"
        }
      ],
      "stateMutability": "view",
      "type": "function"
    },
    {
      "inputs": [
        {
          "internalType": "address",
          "name": "_vault",
          "type": "address"
        }
      ],
      "name": "isTrackedVault",
      "outputs": [
        {
          "internalType": "bool",
          "name": "",
          "type": "bool"
        }
      ],
      "stateMutability": "view",
      "type": "function"
    },
    {
      "inputs": [],
      "name": "redeemAllShares",
      "outputs": [],
      "stateMutability": "nonpayable",
      "type": "function"
    },
    {
      "inputs": [
        {
          "internalType": "address[]",
          "name": "_vaults",
          "type": "address[]"
        }
      ],
      "name": "redeemShares",
      "outputs": [],
      "stateMutability": "nonpayable",
      "type": "function"
    },
    {
      "inputs": [
        {
          "internalType": "address",
          "name": "_vault",
          "type": "address"
        }
      ],
      "name": "removeTrackedVault",
      "outputs": [],
      "stateMutability": "nonpayable",
      "type": "function"
    },
    {
      "inputs": [
        {
          "internalType": "address",
          "name": "_dispatcher",
          "type": "address"
        },
        {
          "internalType": "address",
          "name": "_feeManager",
          "type": "address"
        }
      ],
      "name": "setOperators",
      "outputs": [],
      "stateMutability": "nonpayable",
      "type": "function"
    },
    {
      "inputs": [
        {
          "internalType": "address[]",
          "name": "_assets",
          "type": "address[]"
        },
        {
          "internalType": "address",
          "name": "_withdrawAddress",
          "type": "address"
        }
      ],
      "name": "withdrawERC20",
      "outputs": [],
      "stateMutability": "nonpayable",
      "type": "function"
    }
  ],
  "transactionHash": "0xa3920f2ccda061b3ab415ac780163a2130197a2031bb7170aeb49d16d66de705",
  "args": [],
  "solcInputHash": "34b1516e615d6cbcdbaf9542624efee9",
  "bytecode": "0x608060405234801561001057600080fd5b50600180546001600160a01b03191633179055610d2a806100326000396000f3fe608060405234801561001057600080fd5b50600436106100b45760003560e01c8063a54ef62711610071578063a54ef627146101e4578063d1ed376214610201578063dfa571f71461021b578063e0c122f814610249578063ebb3d589146102ea578063f2d63826146102f2576100b4565b80631297463d146100b9578063340ed32a146100c357806335c5c55e1461013a57806338ef0a1514610174578063893d20e81461019a5780639619abbf146101be575b600080fd5b6100c16102fa565b005b6100c1600480360360408110156100d957600080fd5b810190602081018135600160201b8111156100f357600080fd5b82018360208201111561010557600080fd5b803590602001918460208302840111600160201b8311171561012657600080fd5b9193509150356001600160a01b03166103bb565b6101606004803603602081101561015057600080fd5b50356001600160a01b0316610567565b604080519115158252519081900360200190f35b6100c16004803603602081101561018a57600080fd5b50356001600160a01b0316610585565b6101a261067f565b604080516001600160a01b039092168252519081900360200190f35b6100c1600480360360208110156101d457600080fd5b50356001600160a01b0316610724565b6101a2600480360360208110156101fa57600080fd5b50356108c4565b6102096108ee565b60408051918252519081900360200190f35b6100c16004803603604081101561023157600080fd5b506001600160a01b03813581169160200135166108f4565b6100c16004803603602081101561025f57600080fd5b810190602081018135600160201b81111561027957600080fd5b82018360208201111561028b57600080fd5b803590602001918460208302840111600160201b831117156102ac57600080fd5b9190808060200260200160405190810160405280939291908181526020018383602002808284376000920191909152509295506109bf945050505050565b6101a2610cd6565b6101a2610ce5565b61030261067f565b6001600160a01b0316336001600160a01b031614610356576040805162461bcd60e51b815260206004820152600c60248201526b155b985d5d1a1bdc9a5e995960a21b604482015290519081900360640190fd5b6103b960038054806020026020016040519081016040528092919081815260200182805480156103af57602002820191906000526020600020905b81546001600160a01b03168152600190910190602001808311610391575b50505050506109bf565b565b6103c361067f565b6001600160a01b0316336001600160a01b031614610417576040805162461bcd60e51b815260206004820152600c60248201526b155b985d5d1a1bdc9a5e995960a21b604482015290519081900360640190fd5b60005b8281101561056157600084848381811061043057fe5b905060200201356001600160a01b03166001600160a01b03166370a08231306040518263ffffffff1660e01b815260040180826001600160a01b0316815260200191505060206040518083038186803b15801561048c57600080fd5b505afa1580156104a0573d6000803e3d6000fd5b505050506040513d60208110156104b657600080fd5b505190508484838181106104c657fe5b905060200201356001600160a01b03166001600160a01b031663a9059cbb84836040518363ffffffff1660e01b815260040180836001600160a01b0316815260200182815260200192505050602060405180830381600087803b15801561052c57600080fd5b505af1158015610540573d6000803e3d6000fd5b505050506040513d602081101561055657600080fd5b50505060010161041a565b50505050565b6001600160a01b031660009081526004602052604090205460ff1690565b61058d61067f565b6001600160a01b0316336001600160a01b031614806105b657506000546001600160a01b031633145b6105f6576040805162461bcd60e51b815260206004820152600c60248201526b155b985d5d1a1bdc9a5e995960a21b604482015290519081900360640190fd5b6001600160a01b03811660009081526004602052604090205460ff1661067c576001600160a01b0381166000818152600460205260408120805460ff191660019081179091556003805491820181559091527fc2575a0e9e593c00f959f8c92f12db2869c3395a3b0502d05e2516446f71f85b0180546001600160a01b03191690911790555b50565b6002546000906001600160a01b03166106a457506001546001600160a01b0316610721565b600260009054906101000a90046001600160a01b03166001600160a01b031663893d20e86040518163ffffffff1660e01b815260040160206040518083038186803b1580156106f257600080fd5b505afa158015610706573d6000803e3d6000fd5b505050506040513d602081101561071c57600080fd5b505190505b90565b61072c61067f565b6001600160a01b0316336001600160a01b0316148061075557506000546001600160a01b031633145b610795576040805162461bcd60e51b815260206004820152600c60248201526b155b985d5d1a1bdc9a5e995960a21b604482015290519081900360640190fd5b6001600160a01b03811660009081526004602052604090205460ff161561067c576001600160a01b0381166000908152600460205260408120805460ff19169055600354905b818110156108bf57826001600160a01b0316600382815481106107fa57fe5b6000918252602090912001546001600160a01b031614156108b75760018203811015610885576003600183038154811061083057fe5b600091825260209091200154600380546001600160a01b03909216918390811061085657fe5b9060005260206000200160006101000a8154816001600160a01b0302191690836001600160a01b031602179055505b600380548061089057fe5b600082815260209020810160001990810180546001600160a01b03191690550190556108bf565b6001016107db565b505050565b6000600382815481106108d357fe5b6000918252602090912001546001600160a01b031692915050565b60035490565b6108fc61067f565b6001600160a01b0316336001600160a01b031614610950576040805162461bcd60e51b815260206004820152600c60248201526b155b985d5d1a1bdc9a5e995960a21b604482015290519081900360640190fd5b600280546001600160a01b038085166001600160a01b031992831681179093556000805491851691909216811790915560408051928352602083019190915280517f60d3fb5059e1dd358086eccefb4c9d535aa819a7db59dece5c0f85cfd58a26499281900390910190a15050565b6109c761067f565b6001600160a01b0316336001600160a01b031614610a1b576040805162461bcd60e51b815260206004820152600c60248201526b155b985d5d1a1bdc9a5e995960a21b604482015290519081900360640190fd5b60005b8151811015610cd2576000828281518110610a3557fe5b60200260200101516001600160a01b03166370a08231306040518263ffffffff1660e01b815260040180826001600160a01b0316815260200191505060206040518083038186803b158015610a8957600080fd5b505afa158015610a9d573d6000803e3d6000fd5b505050506040513d6020811015610ab357600080fd5b50518351909150600090849084908110610ac957fe5b60200260200101516001600160a01b0316635a53e3486040518163ffffffff1660e01b815260040160206040518083038186803b158015610b0957600080fd5b505afa158015610b1d573d6000803e3d6000fd5b505050506040513d6020811015610b3357600080fd5b505190508115610cc857806001600160a01b031663b460481d6040518163ffffffff1660e01b8152600401600060405180830381600087803b158015610b7857600080fd5b505af1158015610b8c573d6000803e3d6000fd5b505050506040513d6000823e601f3d908101601f191682016040908152811015610bb557600080fd5b8101908080516040519392919084600160201b821115610bd457600080fd5b908301906020820185811115610be957600080fd5b82518660208202830111600160201b82111715610c0557600080fd5b82525081516020918201928201910280838360005b83811015610c32578181015183820152602001610c1a565b5050505090500160405260200180516040519392919084600160201b821115610c5a57600080fd5b908301906020820185811115610c6f57600080fd5b82518660208202830111600160201b82111715610c8b57600080fd5b82525081516020918201928201910280838360005b83811015610cb8578181015183820152602001610ca0565b5050505090500160405250505050505b5050600101610a1e565b5050565b6002546001600160a01b031690565b6000546001600160a01b03169056fea26469706673582212201bf4e6a1a1d1012670f4ca4fadf7d3bedb1cf2632d26c1c0ffb50795426ec1f264736f6c634300060c0033",
  "devdoc": {
    "kind": "dev",
    "methods": {},
    "version": 1
  },
  "userdoc": {
    "kind": "user",
    "methods": {},
    "version": 1
  },
  "storageLayout": {
    "storage": [
      {
        "astId": 7604,
        "contract": "contracts/persistent/buyback-vault/BuybackVaultV1.sol:BuybackVaultV1",
        "label": "FEE_MANAGER",
        "offset": 0,
        "slot": "0",
        "type": "t_address"
      },
      {
        "astId": 7606,
        "contract": "contracts/persistent/buyback-vault/BuybackVaultV1.sol:BuybackVaultV1",
        "label": "OWNER",
        "offset": 0,
        "slot": "1",
        "type": "t_address"
      },
      {
        "astId": 7608,
        "contract": "contracts/persistent/buyback-vault/BuybackVaultV1.sol:BuybackVaultV1",
        "label": "DISPATCHER",
        "offset": 0,
        "slot": "2",
        "type": "t_address"
      },
      {
        "astId": 7611,
        "contract": "contracts/persistent/buyback-vault/BuybackVaultV1.sol:BuybackVaultV1",
        "label": "trackedVaults",
        "offset": 0,
        "slot": "3",
        "type": "t_array(t_address)dyn_storage"
      },
      {
        "astId": 7615,
        "contract": "contracts/persistent/buyback-vault/BuybackVaultV1.sol:BuybackVaultV1",
        "label": "trackedVaultBoolHashmap",
        "offset": 0,
        "slot": "4",
        "type": "t_mapping(t_address,t_bool)"
      }
    ],
    "types": {
      "t_address": {
        "encoding": "inplace",
        "label": "address",
        "numberOfBytes": "20"
      },
      "t_array(t_address)dyn_storage": {
        "base": "t_address",
        "encoding": "dynamic_array",
        "label": "address[]",
        "numberOfBytes": "32"
      },
      "t_bool": {
        "encoding": "inplace",
        "label": "bool",
        "numberOfBytes": "1"
      },
      "t_mapping(t_address,t_bool)": {
        "encoding": "mapping",
        "key": "t_address",
        "label": "mapping(address => bool)",
        "numberOfBytes": "32",
        "value": "t_bool"
      }
    }
  }
}