{
  "address": "0xb553EA9f4FBE85827DCB886Da40639521aa25483",
  "abi": [
    {
      "inputs": [
        {
          "internalType": "address",
          "name": "_fundDeployer",
          "type": "address"
        },
        {
          "internalType": "address",
          "name": "_weth",
          "type": "address"
        },
        {
          "internalType": "address",
          "name": "_ceth",
          "type": "address"
        },
        {
          "internalType": "address[]",
          "name": "cERC20Tokens",
          "type": "address[]"
        }
      ],
      "stateMutability": "nonpayable",
      "type": "constructor"
    },
    {
      "anonymous": false,
      "inputs": [
        {
          "indexed": true,
          "internalType": "address",
          "name": "cToken",
          "type": "address"
        },
        {
          "indexed": true,
          "internalType": "address",
          "name": "token",
          "type": "address"
        }
      ],
      "name": "CTokenAdded",
      "type": "event"
    },
    {
      "inputs": [
        {
          "internalType": "address[]",
          "name": "_cTokens",
          "type": "address[]"
        }
      ],
      "name": "addCTokens",
      "outputs": [],
      "stateMutability": "nonpayable",
      "type": "function"
    },
    {
      "inputs": [
        {
          "internalType": "address",
          "name": "_derivative",
          "type": "address"
        },
        {
          "internalType": "uint256",
          "name": "_derivativeAmount",
          "type": "uint256"
        }
      ],
      "name": "calcUnderlyingValues",
      "outputs": [
        {
          "internalType": "address[]",
          "name": "underlyings_",
          "type": "address[]"
        },
        {
          "internalType": "uint256[]",
          "name": "underlyingAmounts_",
          "type": "uint256[]"
        }
      ],
      "stateMutability": "nonpayable",
      "type": "function"
    },
    {
      "inputs": [],
      "name": "getDerivativePriceFeedDeployTimestamp",
      "outputs": [
        {
          "internalType": "uint256",
          "name": "",
          "type": "uint256"
        }
      ],
      "stateMutability": "view",
      "type": "function"
    },
    {
      "inputs": [],
      "name": "getFundDeployer",
      "outputs": [
        {
          "internalType": "address",
          "name": "fundDeployer_",
          "type": "address"
        }
      ],
      "stateMutability": "view",
      "type": "function"
    },
    {
      "inputs": [],
      "name": "getOwner",
      "outputs": [
        {
          "internalType": "address",
          "name": "owner_",
          "type": "address"
        }
      ],
      "stateMutability": "view",
      "type": "function"
    },
    {
      "inputs": [
        {
          "internalType": "address",
          "name": "_cToken",
          "type": "address"
        }
      ],
      "name": "getTokenFromCToken",
      "outputs": [
        {
          "internalType": "address",
          "name": "token_",
          "type": "address"
        }
      ],
      "stateMutability": "view",
      "type": "function"
    },
    {
      "inputs": [
        {
          "internalType": "address",
          "name": "_asset",
          "type": "address"
        }
      ],
      "name": "isSupportedAsset",
      "outputs": [
        {
          "internalType": "bool",
          "name": "isSupported_",
          "type": "bool"
        }
      ],
      "stateMutability": "view",
      "type": "function"
    }
  ],
  "transactionHash": "0x92ddd270c9ac2d060b893b36813195dcfa36d31129a067b91ba6b0f7b72b7b9c",
  "args": [
    "0x217912B16c8A00C2D9F2fDFCA94127ca37cFe948",
    "0xc02aaa39b223fe8d0a0e5c4f27ead9083c756cc2",
    "0x4ddc2d193948926d02f9b1fe9e1daa0718270ed5",
    [
      "0x6c8c6b02e7b2be14d4fa6022dfd6d75921d90e4e",
      "0x70e36f6bf80a52b3b46b3af8e106cc0ed743e8e4",
      "0x5d3a536e4d6dbd6114cc1ead35777bab948e3643",
      "0x35a18000230da775cac24873d00ff85bccded550",
      "0x39aa39c021dfbae8fac545936693ac917d5e7563",
      "0xf650c3d88d12db855b8bf7d11be6c55a4e07dcc9",
      "0xc11b1268c1a384e55c48c2391d8d480264a3a7f4",
      "0xb3319f5d18bc0d84dd1b4825dcde5d5f7266d407"
    ]
  ],
  "solcInputHash": "34b1516e615d6cbcdbaf9542624efee9",
  "bytecode": "0x60c060405234801561001057600080fd5b50604051610d19380380610d198339818101604052608081101561003357600080fd5b81516020830151604080850151606086018051925194969395919493918201928464010000000082111561006657600080fd5b90830190602082018581111561007b57600080fd5b825186602082028301116401000000008211171561009857600080fd5b82525081516020918201928201910280838360005b838110156100c55781810151838201526020016100ad565b5050505091909101604081815260608a901b6001600160601b0319166080524260a0526001600160a01b038881166000818152602081905292832080546001600160a01b031916928c1692831790559096509450600080516020610cf983398151915293509150a380511561013d5761013d81610146565b5050505061036a565b600081511161019c576040805162461bcd60e51b815260206004820152601c60248201527f5f5f61646443546f6b656e733a20456d707479205f63546f6b656e7300000000604482015290519081900360640190fd5b60005b81518110156103665760006001600160a01b03166000808484815181106101c257fe5b6020908102919091018101516001600160a01b0390811683529082019290925260400160002054161461023c576040805162461bcd60e51b815260206004820152601f60248201527f5f5f61646443546f6b656e733a2056616c756520616c72656164792073657400604482015290519081900360640190fd5b600082828151811061024a57fe5b60200260200101516001600160a01b0316636f307dc36040518163ffffffff1660e01b8152600401602060405180830381600087803b15801561028c57600080fd5b505af11580156102a0573d6000803e3d6000fd5b505050506040513d60208110156102b657600080fd5b50518351909150819060009081908690869081106102d057fe5b60200260200101516001600160a01b03166001600160a01b0316815260200190815260200160002060006101000a8154816001600160a01b0302191690836001600160a01b03160217905550806001600160a01b031683838151811061033257fe5b60200260200101516001600160a01b0316600080516020610cf983398151915260405160405180910390a35060010161019f565b5050565b60805160601c60a0516109646103956000398061057b5250806104ad528061053752506109646000f3fe608060405234801561001057600080fd5b506004361061007d5760003560e01c8063893d20e81161005b578063893d20e8146101fb57806397c0ac87146102035780639be918e61461020b578063ba4906b8146102455761007d565b80631d249354146100825780634cae3ad7146100f4578063727212f614610136575b600080fd5b6100f26004803603602081101561009857600080fd5b8101906020810181356401000000008111156100b357600080fd5b8201836020820111156100c557600080fd5b803590602001918460208302840111640100000000831117156100e757600080fd5b50909250905061025f565b005b61011a6004803603602081101561010a57600080fd5b50356001600160a01b03166102f6565b604080516001600160a01b039092168252519081900360200190f35b6101626004803603604081101561014c57600080fd5b506001600160a01b038135169060200135610314565b604051808060200180602001838103835285818151815260200191508051906020019060200280838360005b838110156101a657818101518382015260200161018e565b50505050905001838103825284818151815260200191508051906020019060200280838360005b838110156101e55781810151838201526020016101cd565b5050505090500194505050505060405180910390f35b61011a6104a9565b61011a610535565b6102316004803603602081101561022157600080fd5b50356001600160a01b0316610559565b604080519115158252519081900360200190f35b61024d610579565b60408051918252519081900360200190f35b6102676104a9565b6001600160a01b0316336001600160a01b0316146102b65760405162461bcd60e51b81526004018080602001828103825260498152602001806108996049913960600191505060405180910390fd5b6102f282828080602002602001604051908101604052809392919081815260200183836020028082843760009201919091525061059d92505050565b5050565b6001600160a01b039081166000908152602081905260409020541690565b604080516001808252818301909252606091829190602080830190803683375050506001600160a01b0385811660009081526020819052604081205483519395509091169184919061036257fe5b60200260200101906001600160a01b031690816001600160a01b03168152505060006001600160a01b03168260008151811061039a57fe5b60200260200101516001600160a01b031614156103e85760405162461bcd60e51b815260040180806020018281038252602c815260200180610903602c913960400191505060405180910390fd5b6040805160018082528183019092529060208083019080368337019050509050610489670de0b6b3a7640000610483866001600160a01b031663182df0f56040518163ffffffff1660e01b815260040160206040518083038186803b15801561045057600080fd5b505afa158015610464573d6000803e3d6000fd5b505050506040513d602081101561047a57600080fd5b505186906107cf565b90610831565b8160008151811061049657fe5b6020026020010181815250509250929050565b60007f00000000000000000000000000000000000000000000000000000000000000006001600160a01b031663893d20e86040518163ffffffff1660e01b815260040160206040518083038186803b15801561050457600080fd5b505afa158015610518573d6000803e3d6000fd5b505050506040513d602081101561052e57600080fd5b5051905090565b7f000000000000000000000000000000000000000000000000000000000000000090565b6001600160a01b0390811660009081526020819052604090205416151590565b7f000000000000000000000000000000000000000000000000000000000000000090565b60008151116105f3576040805162461bcd60e51b815260206004820152601c60248201527f5f5f61646443546f6b656e733a20456d707479205f63546f6b656e7300000000604482015290519081900360640190fd5b60005b81518110156102f25760006001600160a01b031660008084848151811061061957fe5b6020908102919091018101516001600160a01b03908116835290820192909252604001600020541614610693576040805162461bcd60e51b815260206004820152601f60248201527f5f5f61646443546f6b656e733a2056616c756520616c72656164792073657400604482015290519081900360640190fd5b60008282815181106106a157fe5b60200260200101516001600160a01b0316636f307dc36040518163ffffffff1660e01b8152600401602060405180830381600087803b1580156106e357600080fd5b505af11580156106f7573d6000803e3d6000fd5b505050506040513d602081101561070d57600080fd5b505183519091508190600090819086908690811061072757fe5b60200260200101516001600160a01b03166001600160a01b0316815260200190815260200160002060006101000a8154816001600160a01b0302191690836001600160a01b03160217905550806001600160a01b031683838151811061078957fe5b60200260200101516001600160a01b03167f7acf7482a03de3fea14ab9eb8fa6f7524bb1a61a24898d2337379a5cf7421d7e60405160405180910390a3506001016105f6565b6000826107de5750600061082b565b828202828482816107eb57fe5b04146108285760405162461bcd60e51b81526004018080602001828103825260218152602001806108e26021913960400191505060405180910390fd5b90505b92915050565b6000808211610887576040805162461bcd60e51b815260206004820152601a60248201527f536166654d6174683a206469766973696f6e206279207a65726f000000000000604482015290519081900360640190fd5b81838161089057fe5b04939250505056fe6f6e6c7946756e644465706c6f7965724f776e65723a204f6e6c79207468652046756e644465706c6f796572206f776e65722063616e2063616c6c20746869732066756e6374696f6e536166654d6174683a206d756c7469706c69636174696f6e206f766572666c6f7763616c63556e6465726c79696e6756616c7565733a20556e737570706f727465642064657269766174697665a264697066735822122097042cefac2ba80dbd55fe4e1e2718b9aab4032bd45eebe5c45db25293b602ee64736f6c634300060c00337acf7482a03de3fea14ab9eb8fa6f7524bb1a61a24898d2337379a5cf7421d7e",
  "devdoc": {
    "author": "Enzyme Council <security@enzyme.finance>",
    "kind": "dev",
    "methods": {
      "addCTokens(address[])": {
        "details": "Only allows CERC20 tokens. CEther is set in the constructor.",
        "params": {
          "_cTokens": "cTokens to add"
        }
      },
      "calcUnderlyingValues(address,uint256)": {
        "params": {
          "_derivative": "The derivative to convert",
          "_derivativeAmount": "The amount of the derivative to convert"
        },
        "returns": {
          "underlyingAmounts_": "The amount of each underlying asset for the equivalent derivative amount",
          "underlyings_": "The underlying assets for the _derivative"
        }
      },
      "getFundDeployer()": {
        "returns": {
          "fundDeployer_": "The `FUND_DEPLOYER` variable value"
        }
      },
      "getOwner()": {
        "details": "Ownership is deferred to the owner of the FundDeployer contract",
        "returns": {
          "owner_": "The owner"
        }
      },
      "getTokenFromCToken(address)": {
        "params": {
          "_cToken": "The cToken for which to get the underlying asset"
        },
        "returns": {
          "token_": "The underlying token"
        }
      },
      "isSupportedAsset(address)": {
        "params": {
          "_asset": "The asset to check"
        },
        "returns": {
          "isSupported_": "True if the asset is supported"
        }
      }
    },
    "title": "CompoundPriceFeed Contract",
    "version": 1
  },
  "userdoc": {
    "kind": "user",
    "methods": {
      "addCTokens(address[])": {
        "notice": "Adds cTokens to the price feed"
      },
      "calcUnderlyingValues(address,uint256)": {
        "notice": "Converts a given amount of a derivative to its underlying asset values"
      },
      "getFundDeployer()": {
        "notice": "Gets the `FUND_DEPLOYER` variable"
      },
      "getOwner()": {
        "notice": "Gets the owner of this contract"
      },
      "getTokenFromCToken(address)": {
        "notice": "Returns the underlying asset of a given cToken"
      },
      "isSupportedAsset(address)": {
        "notice": "Checks if an asset is supported by the price feed"
      }
    },
    "notice": "Price source oracle for Compound Tokens (cTokens)",
    "version": 1
  },
  "storageLayout": {
    "storage": [
      {
        "astId": 40746,
        "contract": "contracts/release/infrastructure/price-feeds/derivatives/feeds/CompoundPriceFeed.sol:CompoundPriceFeed",
        "label": "cTokenToToken",
        "offset": 0,
        "slot": "0",
        "type": "t_mapping(t_address,t_address)"
      }
    ],
    "types": {
      "t_address": {
        "encoding": "inplace",
        "label": "address",
        "numberOfBytes": "20"
      },
      "t_mapping(t_address,t_address)": {
        "encoding": "mapping",
        "key": "t_address",
        "label": "mapping(address => address)",
        "numberOfBytes": "32",
        "value": "t_address"
      }
    }
  }
}