{
  "address": "0xd8c701D092124C5532959ee5D582B69fC09e589e",
  "abi": [
    {
      "inputs": [
        {
          "internalType": "address",
          "name": "_dispatcher",
          "type": "address"
        },
        {
          "internalType": "address",
          "name": "_fundDeployer",
          "type": "address"
        },
        {
          "internalType": "address",
          "name": "_valueInterpreter",
          "type": "address"
        },
        {
          "internalType": "address",
          "name": "_feeManager",
          "type": "address"
        },
        {
          "internalType": "address",
          "name": "_integrationManager",
          "type": "address"
        },
        {
          "internalType": "address",
          "name": "_policyManager",
          "type": "address"
        },
        {
          "internalType": "address",
          "name": "_primitivePriceFeed",
          "type": "address"
        },
        {
          "internalType": "address",
          "name": "_synthetixPriceFeed",
          "type": "address"
        },
        {
          "internalType": "address",
          "name": "_synthetixAddressResolver",
          "type": "address"
        }
      ],
      "stateMutability": "nonpayable",
      "type": "constructor"
    },
    {
      "anonymous": false,
      "inputs": [
        {
          "indexed": false,
          "internalType": "uint256",
          "name": "sharesDue",
          "type": "uint256"
        }
      ],
      "name": "MigratedSharesDuePaid",
      "type": "event"
    },
    {
      "anonymous": false,
      "inputs": [
        {
          "indexed": true,
          "internalType": "bool",
          "name": "overridePause",
          "type": "bool"
        }
      ],
      "name": "OverridePauseSet",
      "type": "event"
    },
    {
      "anonymous": false,
      "inputs": [
        {
          "indexed": false,
          "internalType": "bytes",
          "name": "failureReturnData",
          "type": "bytes"
        },
        {
          "indexed": false,
          "internalType": "address",
          "name": "redeemer",
          "type": "address"
        },
        {
          "indexed": false,
          "internalType": "uint256",
          "name": "sharesQuantity",
          "type": "uint256"
        }
      ],
      "name": "PreRedeemSharesHookFailed",
      "type": "event"
    },
    {
      "anonymous": false,
      "inputs": [
        {
          "indexed": true,
          "internalType": "address",
          "name": "caller",
          "type": "address"
        },
        {
          "indexed": true,
          "internalType": "address",
          "name": "buyer",
          "type": "address"
        },
        {
          "indexed": false,
          "internalType": "uint256",
          "name": "investmentAmount",
          "type": "uint256"
        },
        {
          "indexed": false,
          "internalType": "uint256",
          "name": "sharesIssued",
          "type": "uint256"
        },
        {
          "indexed": false,
          "internalType": "uint256",
          "name": "sharesReceived",
          "type": "uint256"
        }
      ],
      "name": "SharesBought",
      "type": "event"
    },
    {
      "anonymous": false,
      "inputs": [
        {
          "indexed": true,
          "internalType": "address",
          "name": "redeemer",
          "type": "address"
        },
        {
          "indexed": false,
          "internalType": "uint256",
          "name": "sharesQuantity",
          "type": "uint256"
        },
        {
          "indexed": false,
          "internalType": "address[]",
          "name": "receivedAssets",
          "type": "address[]"
        },
        {
          "indexed": false,
          "internalType": "uint256[]",
          "name": "receivedAssetQuantities",
          "type": "uint256[]"
        }
      ],
      "name": "SharesRedeemed",
      "type": "event"
    },
    {
      "anonymous": false,
      "inputs": [
        {
          "indexed": false,
          "internalType": "address",
          "name": "vaultProxy",
          "type": "address"
        }
      ],
      "name": "VaultProxySet",
      "type": "event"
    },
    {
      "inputs": [
        {
          "internalType": "address",
          "name": "_vaultProxy",
          "type": "address"
        },
        {
          "internalType": "bool",
          "name": "_isMigration",
          "type": "bool"
        }
      ],
      "name": "activate",
      "outputs": [],
      "stateMutability": "nonpayable",
      "type": "function"
    },
    {
      "inputs": [
        {
          "internalType": "address[]",
          "name": "_buyers",
          "type": "address[]"
        },
        {
          "internalType": "uint256[]",
          "name": "_investmentAmounts",
          "type": "uint256[]"
        },
        {
          "internalType": "uint256[]",
          "name": "_minSharesQuantities",
          "type": "uint256[]"
        }
      ],
      "name": "buyShares",
      "outputs": [
        {
          "internalType": "uint256[]",
          "name": "sharesReceivedAmounts_",
          "type": "uint256[]"
        }
      ],
      "stateMutability": "nonpayable",
      "type": "function"
    },
    {
      "inputs": [
        {
          "internalType": "bool",
          "name": "_requireFinality",
          "type": "bool"
        }
      ],
      "name": "calcGav",
      "outputs": [
        {
          "internalType": "uint256",
          "name": "gav_",
          "type": "uint256"
        },
        {
          "internalType": "bool",
          "name": "isValid_",
          "type": "bool"
        }
      ],
      "stateMutability": "nonpayable",
      "type": "function"
    },
    {
      "inputs": [
        {
          "internalType": "bool",
          "name": "_requireFinality",
          "type": "bool"
        }
      ],
      "name": "calcGrossShareValue",
      "outputs": [
        {
          "internalType": "uint256",
          "name": "grossShareValue_",
          "type": "uint256"
        },
        {
          "internalType": "bool",
          "name": "isValid_",
          "type": "bool"
        }
      ],
      "stateMutability": "nonpayable",
      "type": "function"
    },
    {
      "inputs": [
        {
          "internalType": "address",
          "name": "_extension",
          "type": "address"
        },
        {
          "internalType": "uint256",
          "name": "_actionId",
          "type": "uint256"
        },
        {
          "internalType": "bytes",
          "name": "_callArgs",
          "type": "bytes"
        }
      ],
      "name": "callOnExtension",
      "outputs": [],
      "stateMutability": "nonpayable",
      "type": "function"
    },
    {
      "inputs": [
        {
          "internalType": "bytes",
          "name": "_feeManagerConfigData",
          "type": "bytes"
        },
        {
          "internalType": "bytes",
          "name": "_policyManagerConfigData",
          "type": "bytes"
        }
      ],
      "name": "configureExtensions",
      "outputs": [],
      "stateMutability": "nonpayable",
      "type": "function"
    },
    {
      "inputs": [],
      "name": "destruct",
      "outputs": [],
      "stateMutability": "nonpayable",
      "type": "function"
    },
    {
      "inputs": [],
      "name": "getDenominationAsset",
      "outputs": [
        {
          "internalType": "address",
          "name": "denominationAsset_",
          "type": "address"
        }
      ],
      "stateMutability": "view",
      "type": "function"
    },
    {
      "inputs": [],
      "name": "getLibRoutes",
      "outputs": [
        {
          "internalType": "address",
          "name": "dispatcher_",
          "type": "address"
        },
        {
          "internalType": "address",
          "name": "feeManager_",
          "type": "address"
        },
        {
          "internalType": "address",
          "name": "fundDeployer_",
          "type": "address"
        },
        {
          "internalType": "address",
          "name": "integrationManager_",
          "type": "address"
        },
        {
          "internalType": "address",
          "name": "policyManager_",
          "type": "address"
        },
        {
          "internalType": "address",
          "name": "primitivePriceFeed_",
          "type": "address"
        },
        {
          "internalType": "address",
          "name": "valueInterpreter_",
          "type": "address"
        }
      ],
      "stateMutability": "view",
      "type": "function"
    },
    {
      "inputs": [],
      "name": "getOverridePause",
      "outputs": [
        {
          "internalType": "bool",
          "name": "overridePause_",
          "type": "bool"
        }
      ],
      "stateMutability": "view",
      "type": "function"
    },
    {
      "inputs": [],
      "name": "getSharesActionTimelock",
      "outputs": [
        {
          "internalType": "uint256",
          "name": "sharesActionTimelock_",
          "type": "uint256"
        }
      ],
      "stateMutability": "view",
      "type": "function"
    },
    {
      "inputs": [],
      "name": "getSynthetixAddressResolver",
      "outputs": [
        {
          "internalType": "address",
          "name": "synthetixAddressResolver_",
          "type": "address"
        }
      ],
      "stateMutability": "view",
      "type": "function"
    },
    {
      "inputs": [],
      "name": "getSynthetixPriceFeed",
      "outputs": [
        {
          "internalType": "address",
          "name": "synthetixPriceFeed_",
          "type": "address"
        }
      ],
      "stateMutability": "view",
      "type": "function"
    },
    {
      "inputs": [],
      "name": "getVaultProxy",
      "outputs": [
        {
          "internalType": "address",
          "name": "vaultProxy_",
          "type": "address"
        }
      ],
      "stateMutability": "view",
      "type": "function"
    },
    {
      "inputs": [
        {
          "internalType": "address",
          "name": "_denominationAsset",
          "type": "address"
        },
        {
          "internalType": "uint256",
          "name": "_sharesActionTimelock",
          "type": "uint256"
        }
      ],
      "name": "init",
      "outputs": [],
      "stateMutability": "nonpayable",
      "type": "function"
    },
    {
      "inputs": [
        {
          "internalType": "enum IComptroller.VaultAction",
          "name": "_action",
          "type": "uint8"
        },
        {
          "internalType": "bytes",
          "name": "_actionData",
          "type": "bytes"
        }
      ],
      "name": "permissionedVaultAction",
      "outputs": [],
      "stateMutability": "nonpayable",
      "type": "function"
    },
    {
      "inputs": [],
      "name": "redeemShares",
      "outputs": [
        {
          "internalType": "address[]",
          "name": "payoutAssets_",
          "type": "address[]"
        },
        {
          "internalType": "uint256[]",
          "name": "payoutAmounts_",
          "type": "uint256[]"
        }
      ],
      "stateMutability": "nonpayable",
      "type": "function"
    },
    {
      "inputs": [
        {
          "internalType": "uint256",
          "name": "_sharesQuantity",
          "type": "uint256"
        },
        {
          "internalType": "address[]",
          "name": "_additionalAssets",
          "type": "address[]"
        },
        {
          "internalType": "address[]",
          "name": "_assetsToSkip",
          "type": "address[]"
        }
      ],
      "name": "redeemSharesDetailed",
      "outputs": [
        {
          "internalType": "address[]",
          "name": "payoutAssets_",
          "type": "address[]"
        },
        {
          "internalType": "uint256[]",
          "name": "payoutAmounts_",
          "type": "uint256[]"
        }
      ],
      "stateMutability": "nonpayable",
      "type": "function"
    },
    {
      "inputs": [
        {
          "internalType": "bool",
          "name": "_nextOverridePause",
          "type": "bool"
        }
      ],
      "name": "setOverridePause",
      "outputs": [],
      "stateMutability": "nonpayable",
      "type": "function"
    },
    {
      "inputs": [
        {
          "internalType": "address",
          "name": "_contract",
          "type": "address"
        },
        {
          "internalType": "bytes4",
          "name": "_selector",
          "type": "bytes4"
        },
        {
          "internalType": "bytes",
          "name": "_encodedArgs",
          "type": "bytes"
        }
      ],
      "name": "vaultCallOnContract",
      "outputs": [],
      "stateMutability": "nonpayable",
      "type": "function"
    }
  ],
  "transactionHash": "0xf9d93367db9e836345bdb19b7e1c23867d448a965b279f416aa0f3e6bb3f1880",
  "args": [
    "0xe819b666c7Cccec2e51806862bBB58615dcd84fA",
    "0x217912B16c8A00C2D9F2fDFCA94127ca37cFe948",
    "0xA0B9298aAe86f4BFdcB07cc6dCac40049bb8dFb0",
    "0x0546043FFf4533A8EEA5279034e1bF6362ec20D1",
    "0x4B37f5DCA5FB2D5548e9EcEe9f98d9Ac95f60774",
    "0x73A064974e0B97c251fDc0c0E627F2518dfAeBEd",
    "0x05993fB3AF1E99b09Fe0352982b38FBAC4f5CC1D",
    "0x0A887f7eD35383F3B7732962CC7eB7967647bf9F",
    "0x4E3b31eB0E5CB73641EE1E65E7dCEFe520bA3ef2"
  ],
  "solcInputHash": "34b1516e615d6cbcdbaf9542624efee9",
  "bytecode": "0x6101a060405234801561001157600080fd5b50604051620056bd380380620056bd833981810160405261012081101561003757600080fd5b5080516020820151604083015160608085015160808087015160a08089015160c0808b015160e0808d01516101009d8e01516001600160601b0319908b1b8116909852891b871690945299871b8516905293851b831690985294831b811690965292811b85166101205292831b84166101405290821b831661016052901b16610180526001805460ff60a01b1916600160a01b17905560805160601c60a05160601c60c05160601c60e05160601c6101005160601c6101205160601c6101405160601c6101605160601c6101805160601c6154c8620001f560003980611bad52806120c6525080610cb952806114e952806118795280611b6b52806138ca5280613ead52806149665280614bfd525080610d8f5280611b8c525080610c465280610f6c52806114695280611b4a52806127fd525080610bd35280610f4052806113e952806117c65280611b0852806128c85280613a4552806140285280614212528061437a528061483c5280614ad2525080610a9e5280611123528061172a5280611b295280611d1752806126b9525080611ae7528061235c5280612f0752508061156d52806136175250806116fd52806136ba52506154c86000f3fe608060405234801561001057600080fd5b506004361061012c5760003560e01c806396aed587116100ad578063d6ca66ce11610071578063d6ca66ce14610575578063e269c3d6146105c8578063e572ced1146105d0578063f513c9261461065d578063f9f585dd1461067c5761012c565b806396aed58714610453578063b417061214610511578063b460481d14610549578063c0a4c0a314610551578063c98091871461056d5761012c565b80636487b384116100f45780636487b3841461027c57806382d3a1dd146103da5780638d064eae14610408578063944eb7b81461042c57806396471b081461044b5761012c565b806310acd06d146101315780632b68b9c6146101ab578063399ae724146101b357806339bf70d1146101df5780634da471b714610262575b600080fd5b6101a96004803603604081101561014757600080fd5b60ff8235169190810190604081016020820135600160201b81111561016b57600080fd5b82018360208201111561017d57600080fd5b803590602001918460018302840111600160201b8311171561019e57600080fd5b5090925090506107da565b005b6101a9610a93565b6101a9600480360360408110156101c957600080fd5b506001600160a01b038135169060200135610d2f565b6101a9600480360360608110156101f557600080fd5b6001600160a01b0382351691602081013591810190606081016040820135600160201b81111561022457600080fd5b82018360208201111561023657600080fd5b803590602001918460018302840111600160201b8311171561025757600080fd5b509092509050610e9d565b61026a611092565b60408051918252519081900360200190f35b6103416004803603606081101561029257600080fd5b81359190810190604081016020820135600160201b8111156102b357600080fd5b8201836020820111156102c557600080fd5b803590602001918460208302840111600160201b831117156102e657600080fd5b919390929091602081019035600160201b81111561030357600080fd5b82018360208201111561031557600080fd5b803590602001918460208302840111600160201b8311171561033657600080fd5b509092509050611098565b604051808060200180602001838103835285818151815260200191508051906020019060200280838360005b8381101561038557818101518382015260200161036d565b50505050905001838103825284818151815260200191508051906020019060200280838360005b838110156103c45781810151838201526020016103ac565b5050505090500194505050505060405180910390f35b6101a9600480360360408110156103f057600080fd5b506001600160a01b0381351690602001351515611118565b61041061156b565b604080516001600160a01b039092168252519081900360200190f35b6101a96004803603602081101561044257600080fd5b5035151561158f565b6104106116fb565b6101a96004803603604081101561046957600080fd5b810190602081018135600160201b81111561048357600080fd5b82018360208201111561049557600080fd5b803590602001918460018302840111600160201b831117156104b657600080fd5b919390929091602081019035600160201b8111156104d357600080fd5b8201836020820111156104e557600080fd5b803590602001918460018302840111600160201b8311171561050657600080fd5b50909250905061171f565b6105306004803603602081101561052757600080fd5b50351515611905565b6040805192835290151560208301528051918290030190f35b610341611a1e565b610559611ac6565b604080519115158252519081900360200190f35b610410611ad6565b61057d611ae5565b604080516001600160a01b03988916815296881660208801529487168686015292861660608601529085166080850152841660a084015290921660c082015290519081900360e00190f35b610410611bd5565b6101a9600480360360608110156105e657600080fd5b6001600160a01b03823516916001600160e01b031960208201351691810190606081016040820135600160201b81111561061f57600080fd5b82018360208201111561063157600080fd5b803590602001918460018302840111600160201b8311171561065257600080fd5b509092509050611be4565b6105306004803603602081101561067357600080fd5b50351515611ef9565b61078a6004803603606081101561069257600080fd5b810190602081018135600160201b8111156106ac57600080fd5b8201836020820111156106be57600080fd5b803590602001918460208302840111600160201b831117156106df57600080fd5b919390929091602081019035600160201b8111156106fc57600080fd5b82018360208201111561070e57600080fd5b803590602001918460208302840111600160201b8311171561072f57600080fd5b919390929091602081019035600160201b81111561074c57600080fd5b82018360208201111561075e57600080fd5b803590602001918460208302840111600160201b8311171561077f57600080fd5b509092509050612211565b60408051602080825283518183015283519192839290830191858101910280838360005b838110156107c65781810151838201526020016107ae565b505050509050019250505060405180910390f35b6107e26126b3565b15610825576040805162461bcd60e51b815260206004820152600e60248201526d119d5b99081a5cc81c185d5cd95960921b604482015290519081900360640190fd5b60015461083a906001600160a01b0316612763565b61084433846127b3565b600683600781111561085257fe5b141561089c5761089782828080601f0160208091040260200160405190810160405280939291908181526020018383808284376000920191909152506129b192505050565b610a8e565b60048360078111156108aa57fe5b14156108ef5761089782828080601f016020809104026020016040519081016040528093929190818152602001838380828437600092019190915250612a1a92505050565b60018360078111156108fd57fe5b14156109425761089782828080601f016020809104026020016040519081016040528093929190818152602001838380828437600092019190915250612aa692505050565b600283600781111561095057fe5b14156109955761089782828080601f016020809104026020016040519081016040528093929190818152602001838380828437600092019190915250612b3d92505050565b60078360078111156109a357fe5b14156109e85761089782828080601f016020809104026020016040519081016040528093929190818152602001838380828437600092019190915250612bb792505050565b60038360078111156109f657fe5b1415610a3b5761089782828080601f016020809104026020016040519081016040528093929190818152602001838380828437600092019190915250612c3692505050565b6005836007811115610a4957fe5b1415610a8e57610a8e82828080601f016020809104026020016040519081016040528093929190818152602001838380828437600092019190915250612cc292505050565b505050565b336001600160a01b037f00000000000000000000000000000000000000000000000000000000000000001614610b0d576040805162461bcd60e51b815260206004820152601a6024820152794f6e6c792046756e644465706c6f7965722063616c6c61626c6560301b604482015290519081900360640190fd5b610b156126b3565b15610b58576040805162461bcd60e51b815260206004820152600e60248201526d119d5b99081a5cc81c185d5cd95960921b604482015290519081900360640190fd5b610b60612d4e565b6001805460ff60b01b1916600160b01b1790819055600160a01b900460ff1615610bd1576040805162461bcd60e51b815260206004820181905260248201527f64657374727563743a204f6e6c792064656c65676174652063616c6c61626c65604482015290519081900360640190fd5b7f00000000000000000000000000000000000000000000000000000000000000006001600160a01b031663bd8e959a6040518163ffffffff1660e01b8152600401600060405180830381600087803b158015610c2c57600080fd5b505af1158015610c40573d6000803e3d6000fd5b505050507f00000000000000000000000000000000000000000000000000000000000000006001600160a01b031663bd8e959a6040518163ffffffff1660e01b8152600401600060405180830381600087803b158015610c9f57600080fd5b505af1158015610cb3573d6000803e3d6000fd5b505050507f00000000000000000000000000000000000000000000000000000000000000006001600160a01b031663bd8e959a6040518163ffffffff1660e01b8152600401600060405180830381600087803b158015610d1257600080fd5b505af1158015610d26573d6000803e3d6000fd5b50600092505050ff5b6000546001600160a01b031615610d8d576040805162461bcd60e51b815260206004820152601960248201527f696e69743a20416c726561647920696e697469616c697a656400000000000000604482015290519081900360640190fd5b7f00000000000000000000000000000000000000000000000000000000000000006001600160a01b0316639be918e6836040518263ffffffff1660e01b815260040180826001600160a01b0316815260200191505060206040518083038186803b158015610dfa57600080fd5b505afa158015610e0e573d6000803e3d6000fd5b505050506040513d6020811015610e2457600080fd5b5051610e77576040805162461bcd60e51b815260206004820152601c60248201527f696e69743a204261642064656e6f6d696e6174696f6e20617373657400000000604482015290519081900360640190fd5b600080546001600160a01b0319166001600160a01b039390931692909217909155600255565b610ea56126b3565b15610ee8576040805162461bcd60e51b815260206004820152600e60248201526d119d5b99081a5cc81c185d5cd95960921b604482015290519081900360640190fd5b600154610efd906001600160a01b0316612763565b610f05612daf565b6001805460ff60b81b1916600160b81b179055610f20612d4e565b6001805460ff60b01b1916600160b01b1790556001600160a01b038481167f0000000000000000000000000000000000000000000000000000000000000000919091161480610fa057507f00000000000000000000000000000000000000000000000000000000000000006001600160a01b0316846001600160a01b0316145b610fdb5760405162461bcd60e51b81526004018080602001828103825260238152602001806153806023913960400191505060405180910390fd5b836001600160a01b0316631bee801e338585856040518563ffffffff1660e01b815260040180856001600160a01b03168152602001848152602001806020018281038252848482818152602001925080828437600081840152601f19601f82011690508083019250505095505050505050600060405180830381600087803b15801561106657600080fd5b505af115801561107a573d6000803e3d6000fd5b50506001805461ffff60b01b19169055505050505050565b60025490565b60608061110a338888888080602002602001604051908101604052809392919081815260200183836020028082843760009201919091525050604080516020808c0282810182019093528b82529093508b92508a918291850190849080828437600092019190915250612dfc92505050565b915091509550959350505050565b336001600160a01b037f00000000000000000000000000000000000000000000000000000000000000001614611192576040805162461bcd60e51b815260206004820152601a6024820152794f6e6c792046756e644465706c6f7965722063616c6c61626c6560301b604482015290519081900360640190fd5b600180546001600160a01b0384166001600160a01b0319909116811790915560408051918252517f5be181178e61e61e33f79c396c7194b8f3c80f77899da7bd96fe537411300bcb9181900360200190a18015611386576000826001600160a01b03166370a08231846040518263ffffffff1660e01b815260040180826001600160a01b0316815260200191505060206040518083038186803b15801561123857600080fd5b505afa15801561124c573d6000803e3d6000fd5b505050506040513d602081101561126257600080fd5b50519050801561138457826001600160a01b031663bfc77beb84856001600160a01b031663893d20e86040518163ffffffff1660e01b815260040160206040518083038186803b1580156112b557600080fd5b505afa1580156112c9573d6000803e3d6000fd5b505050506040513d60208110156112df57600080fd5b5051604080516001600160e01b031960e086901b1681526001600160a01b0393841660048201529290911660248301526044820185905251606480830192600092919082900301818387803b15801561133757600080fd5b505af115801561134b573d6000803e3d6000fd5b50506040805184815290517f8f9ec2c1cf1f95fcb5d89d3141949092850c5cfe04da4d9425dd840bf18cdc709350908190036020019150a15b505b60008054604080516327783b1760e11b81526001600160a01b039283166004820152905191851692634ef0762e9260248084019382900301818387803b1580156113cf57600080fd5b505af11580156113e3573d6000803e3d6000fd5b505050507f00000000000000000000000000000000000000000000000000000000000000006001600160a01b03166380d57063826040518263ffffffff1660e01b8152600401808215158152602001915050600060405180830381600087803b15801561144f57600080fd5b505af1158015611463573d6000803e3d6000fd5b505050507f00000000000000000000000000000000000000000000000000000000000000006001600160a01b03166380d57063826040518263ffffffff1660e01b8152600401808215158152602001915050600060405180830381600087803b1580156114cf57600080fd5b505af11580156114e3573d6000803e3d6000fd5b505050507f00000000000000000000000000000000000000000000000000000000000000006001600160a01b03166380d57063826040518263ffffffff1660e01b8152600401808215158152602001915050600060405180830381600087803b15801561154f57600080fd5b505af1158015611563573d6000803e3d6000fd5b505050505050565b7f000000000000000000000000000000000000000000000000000000000000000090565b600160009054906101000a90046001600160a01b03166001600160a01b031663893d20e86040518163ffffffff1660e01b815260040160206040518083038186803b1580156115dd57600080fd5b505afa1580156115f1573d6000803e3d6000fd5b505050506040513d602081101561160757600080fd5b50516001600160a01b03163314611660576040805162461bcd60e51b81526020600482015260186024820152774f6e6c792066756e64206f776e65722063616c6c61626c6560401b604482015290519081900360640190fd5b600160159054906101000a900460ff16151581151514156116b25760405162461bcd60e51b81526004018080602001828103825260238152602001806154236023913960400191505060405180910390fd5b6001805460ff60a81b1916600160a81b831515908102919091179091556040517fb59eda3d5fc7c642cf9caba744cbb07fd462d0754170bac672351ddbf8cda9dc90600090a250565b7f000000000000000000000000000000000000000000000000000000000000000090565b336001600160a01b037f00000000000000000000000000000000000000000000000000000000000000001614611799576040805162461bcd60e51b815260206004820152601a6024820152794f6e6c792046756e644465706c6f7965722063616c6c61626c6560301b604482015290519081900360640190fd5b821561184c5760405163089cbe1d60e41b8152602060048201908152602482018590526001600160a01b037f000000000000000000000000000000000000000000000000000000000000000016916389cbe1d09187918791908190604401848480828437600081840152601f19601f8201169050808301925050509350505050600060405180830381600087803b15801561183357600080fd5b505af1158015611847573d6000803e3d6000fd5b505050505b80156118ff5760405163089cbe1d60e41b8152602060048201908152602482018390526001600160a01b037f000000000000000000000000000000000000000000000000000000000000000016916389cbe1d09185918591908190604401848480828437600081840152601f19601f8201169050808301925050509350505050600060405180830381600087803b1580156118e657600080fd5b505af11580156118fa573d6000803e3d6000fd5b505050505b50505050565b600080600061191384611ef9565b8093508192505050611a1581600160009054906101000a90046001600160a01b03166001600160a01b03166318160ddd6040518163ffffffff1660e01b815260040160206040518083038186803b15801561196d57600080fd5b505afa158015611981573d6000803e3d6000fd5b505050506040513d602081101561199757600080fd5b50516000546040805163313ce56760e01b815290516001600160a01b039092169163313ce56791600480820192602092909190829003018186803b1580156119de57600080fd5b505afa1580156119f2573d6000803e3d6000fd5b505050506040513d6020811015611a0857600080fd5b505160ff16600a0a6135e4565b9250505b915091565b600154604080516370a0823160e01b8152336004820181905291516060938493611abe9390926001600160a01b03909216916370a0823191602480820192602092909190829003018186803b158015611a7657600080fd5b505afa158015611a8a573d6000803e3d6000fd5b505050506040513d6020811015611aa057600080fd5b50516040805160008082526020820190815281830190925290612dfc565b915091509091565b600154600160a81b900460ff1690565b6001546001600160a01b031690565b7f00000000000000000000000000000000000000000000000000000000000000007f00000000000000000000000000000000000000000000000000000000000000007f00000000000000000000000000000000000000000000000000000000000000007f00000000000000000000000000000000000000000000000000000000000000007f00000000000000000000000000000000000000000000000000000000000000007f00000000000000000000000000000000000000000000000000000000000000007f000000000000000000000000000000000000000000000000000000000000000090919293949596565b6000546001600160a01b031690565b611bec6126b3565b15611c2f576040805162461bcd60e51b815260206004820152600e60248201526d119d5b99081a5cc81c185d5cd95960921b604482015290519081900360640190fd5b600154611c44906001600160a01b0316612763565b600160009054906101000a90046001600160a01b03166001600160a01b031663893d20e86040518163ffffffff1660e01b815260040160206040518083038186803b158015611c9257600080fd5b505afa158015611ca6573d6000803e3d6000fd5b505050506040513d6020811015611cbc57600080fd5b50516001600160a01b03163314611d15576040805162461bcd60e51b81526020600482015260186024820152774f6e6c792066756e64206f776e65722063616c6c61626c6560401b604482015290519081900360640190fd5b7f00000000000000000000000000000000000000000000000000000000000000006001600160a01b031663dc77205385856040518363ffffffff1660e01b815260040180836001600160a01b03168152602001826001600160e01b03191681526020019250505060206040518083038186803b158015611d9457600080fd5b505afa158015611da8573d6000803e3d6000fd5b505050506040513d6020811015611dbe57600080fd5b5051611dfb5760405162461bcd60e51b81526004018080602001828103825260218152602001806152fa6021913960400191505060405180910390fd5b6001546040516001600160e01b03198516602082019081526001600160a01b039092169163a90cce4b9187918791879187916024018383808284378083019250505093505050506040516020818303038152906040526040518363ffffffff1660e01b815260040180836001600160a01b0316815260200180602001828103825283818151815260200191508051906020019080838360005b83811015611eac578181015183820152602001611e94565b50505050905090810190601f168015611ed95780820380516001836020036101000a031916815260200191505b509350505050600060405180830381600087803b1580156118e657600080fd5b6000806000600160009054906101000a90046001600160a01b031690506060816001600160a01b031663c4b973706040518163ffffffff1660e01b815260040160006040518083038186803b158015611f5157600080fd5b505afa158015611f65573d6000803e3d6000fd5b505050506040513d6000823e601f3d908101601f191682016040526020811015611f8e57600080fd5b8101908080516040519392919084600160201b821115611fad57600080fd5b908301906020820185811115611fc257600080fd5b82518660208202830111600160201b82111715611fde57600080fd5b82525081516020918201928201910280838360005b8381101561200b578181015183820152602001611ff3565b5050505090500160405250505090508051600014156120335760006001935093505050611a19565b6060815167ffffffffffffffff8111801561204d57600080fd5b50604051908082528060200260200182016040528015612077578160200160208202803683370190505b50905060005b82518110156120c3576120a48484838151811061209657fe5b602002602001015189613612565b8282815181106120b057fe5b602090810291909101015260010161207d565b507f00000000000000000000000000000000000000000000000000000000000000006001600160a01b031663ae6f52ad838360008054906101000a90046001600160a01b03166040518463ffffffff1660e01b8152600401808060200180602001846001600160a01b03168152602001838103835286818151815260200191508051906020019060200280838360005b8381101561216b578181015183820152602001612153565b50505050905001838103825285818151815260200191508051906020019060200280838360005b838110156121aa578181015183820152602001612192565b50505050905001955050505050506040805180830381600087803b1580156121d157600080fd5b505af11580156121e5573d6000803e3d6000fd5b505050506040513d60408110156121fb57600080fd5b5080516020909101519095509350505050915091565b606061221b6126b3565b1561225e576040805162461bcd60e51b815260206004820152600e60248201526d119d5b99081a5cc81c185d5cd95960921b604482015290519081900360640190fd5b612266612daf565b6001805460ff60b81b1916600160b81b179055612281612d4e565b6001805460ff60b01b1916600160b01b179055856122e6576040805162461bcd60e51b815260206004820152601860248201527f6275795368617265733a20456d707479205f6275796572730000000000000000604482015290519081900360640190fd5b85841480156122f457508582145b612345576040805162461bcd60e51b815260206004820152601960248201527f6275795368617265733a20556e657175616c2061727261797300000000000000604482015290519081900360640190fd5b6001546001600160a01b031661235a81612763565b7f00000000000000000000000000000000000000000000000000000000000000006001600160a01b031663d0449d3d826040518263ffffffff1660e01b815260040180826001600160a01b0316815260200191505060206040518083038186803b1580156123c757600080fd5b505afa1580156123db573d6000803e3d6000fd5b505050506040513d60208110156123f157600080fd5b505115612445576040805162461bcd60e51b815260206004820152601c60248201527f6275795368617265733a2050656e64696e67206d6967726174696f6e00000000604482015290519081900360640190fd5b6000806124526001611ef9565b91509150806124a1576040805162461bcd60e51b8152602060048201526016602482015275313abca9b430b932b99d1024b73b30b634b21023a0ab60511b604482015290519081900360640190fd5b6124e0338989808060200260200160405190810160405280939291908181526020018383602002808284376000920191909152508792506138c8915050565b60008060009054906101000a90046001600160a01b0316905060006125a484866001600160a01b03166318160ddd6040518163ffffffff1660e01b815260040160206040518083038186803b15801561253857600080fd5b505afa15801561254c573d6000803e3d6000fd5b505050506040513d602081101561256257600080fd5b50516040805163313ce56760e01b815290516001600160a01b0387169163313ce567916004808301926020929190829003018186803b1580156119de57600080fd5b90508a67ffffffffffffffff811180156125bd57600080fd5b506040519080825280602002602001820160405280156125e7578160200160208202803683370190505b50955060005b8b81101561268a576126438d8d8381811061260457fe5b905060200201356001600160a01b03168c8c8481811061262057fe5b905060200201358b8b8581811061263357fe5b9050602002013589868a89613b95565b87828151811061264f57fe5b6020026020010181815250506126808b8b8381811061266a57fe5b9050602002013586613e4890919063ffffffff16565b94506001016125ed565b50612696338786613eab565b50505050506001805461ffff60b01b191690559695505050505050565b600060027f00000000000000000000000000000000000000000000000000000000000000006001600160a01b031663a5fede1d6040518163ffffffff1660e01b815260040160206040518083038186803b15801561271057600080fd5b505afa158015612724573d6000803e3d6000fd5b505050506040513d602081101561273a57600080fd5b5051600281111561274757fe5b14801561275e5750600154600160a81b900460ff16155b905090565b6001600160a01b0381166127b0576040805162461bcd60e51b815260206004820152600f60248201526e46756e64206e6f742061637469766560881b604482015290519081900360640190fd5b50565b600154600160b01b900460ff166127fb5760405162461bcd60e51b81526004018080602001828103825260328152602001806153c46032913960400191505060405180910390fd5b7f00000000000000000000000000000000000000000000000000000000000000006001600160a01b0316826001600160a01b031614156128c657600481600781111561284357fe5b148061285a5750600681600781111561285857fe5b145b806128705750600781600781111561286e57fe5b145b806128865750600581600781111561288457fe5b145b6128c15760405162461bcd60e51b815260040180806020018281038252604181526020018061533f6041913960600191505060405180910390fd5b6129ad565b7f00000000000000000000000000000000000000000000000000000000000000006001600160a01b0316826001600160a01b0316141561297657600181600781111561290e57fe5b14806129255750600281600781111561292357fe5b145b8061293b5750600381600781111561293957fe5b145b6128c15760405162461bcd60e51b81526004018080602001828103825260398152602001806152666039913960400191505060405180910390fd5b60405162461bcd60e51b81526004018080602001828103825260328152602001806151ff6032913960400191505060405180910390fd5b5050565b60008180602001905160208110156129c857600080fd5b5051600154604080516327783b1760e11b81526001600160a01b0380851660048301529151939450911691634ef0762e9160248082019260009290919082900301818387803b15801561154f57600080fd5b6000806000838060200190516060811015612a3457600080fd5b508051602082015160409283015160015484516331bca92d60e21b81526001600160a01b0380861660048301528085166024830152604482018490529551949850929650909450929092169163c6f2a4b491606480830192600092919082900301818387803b1580156118e657600080fd5b600080828060200190516040811015612abe57600080fd5b50805160209091015160015460408051633b9e9f0160e21b81526001600160a01b038086166004830152602482018590529151949650929450169163ee7a7c049160448082019260009290919082900301818387803b158015612b2057600080fd5b505af1158015612b34573d6000803e3d6000fd5b50505050505050565b600080828060200190516040811015612b5557600080fd5b508051602090910151600154604080516329460cc560e11b81526001600160a01b038086166004830152602482018590529151949650929450169163528c198a9160448082019260009290919082900301818387803b158015612b2057600080fd5b6000818060200190516020811015612bce57600080fd5b50516000549091506001600160a01b038083169116146129ad5760015460408051631c3efc4d60e21b81526001600160a01b038481166004830152915191909216916370fbf13491602480830192600092919082900301818387803b15801561154f57600080fd5b6000806000838060200190516060811015612c5057600080fd5b5080516020820151604092830151600154845163bfc77beb60e01b81526001600160a01b0380861660048301528085166024830152604482018490529551949850929650909450929092169163bfc77beb91606480830192600092919082900301818387803b1580156118e657600080fd5b6000806000838060200190516060811015612cdc57600080fd5b508051602082015160409283015160015484516312575d4f60e21b81526001600160a01b0380861660048301528085166024830152604482018490529551949850929650909450929092169163495d753c91606480830192600092919082900301818387803b1580156118e657600080fd5b600154600160b01b900460ff1615612dad576040805162461bcd60e51b815260206004820152601860248201527f5661756c7420616374696f6e2072652d656e7472616e63650000000000000000604482015290519081900360640190fd5b565b600154600160b81b900460ff1615612dad576040805162461bcd60e51b815260206004820152600b60248201526a52652d656e7472616e636560a81b604482015290519081900360640190fd5b606080612e07612daf565b6001805460ff60b81b1916600160b81b17905584612e565760405162461bcd60e51b815260040180806020018281038252602a81526020018061529f602a913960400191505060405180910390fd5b612e5f846140aa565b612e9a5760405162461bcd60e51b81526004018080602001828103825260358152602001806152316035913960400191505060405180910390fd5b612ea3836140aa565b612ede5760405162461bcd60e51b81526004018080602001828103825260318152602001806152c96031913960400191505060405180910390fd5b6001546040805163d0449d3d60e01b81526001600160a01b0392831660048201819052915191927f0000000000000000000000000000000000000000000000000000000000000000169163d0449d3d91602480820192602092909190829003018186803b158015612f4e57600080fd5b505afa158015612f62573d6000803e3d6000fd5b505050506040513d6020811015612f7857600080fd5b5051612fa357612f8787614140565b6001600160a01b03871660009081526003602052604090204290555b85612fae88826141ba565b9650612fb86126b3565b612fc657612fc68888614327565b604080516370a0823160e01b81526001600160a01b038a81166004830152915184928316916370a08231916024808301926020929190829003018186803b15801561301057600080fd5b505afa158015613024573d6000803e3d6000fd5b505050506040513d602081101561303a57600080fd5b505188111561307a5760405162461bcd60e51b81526004018080602001828103825260238152602001806154706023913960400191505060405180910390fd5b613184836001600160a01b031663c4b973706040518163ffffffff1660e01b815260040160006040518083038186803b1580156130b657600080fd5b505afa1580156130ca573d6000803e3d6000fd5b505050506040513d6000823e601f3d908101601f1916820160405260208110156130f357600080fd5b8101908080516040519392919084600160201b82111561311257600080fd5b90830190602082018581111561312757600080fd5b82518660208202830111600160201b8211171561314357600080fd5b82525081516020918201928201910280838360005b83811015613170578181015183820152602001613158565b505050509050016040525050508888614549565b945060008551116131dc576040805162461bcd60e51b815260206004820181905260248201527f5f5f72656465656d5368617265733a204e6f207061796f757420617373657473604482015290519081900360640190fd5b6000816001600160a01b03166318160ddd6040518163ffffffff1660e01b815260040160206040518083038186803b15801561321757600080fd5b505afa15801561322b573d6000803e3d6000fd5b505050506040513d602081101561324157600080fd5b505160408051633b9e9f0160e21b81526001600160a01b038d81166004830152602482018d905291519293509086169163ee7a7c049160448082019260009290919082900301818387803b15801561329857600080fd5b505af11580156132ac573d6000803e3d6000fd5b50505050855167ffffffffffffffff811180156132c857600080fd5b506040519080825280602002602001820160405280156132f2578160200160208202803683370190505b50600080549196506001600160a01b03909116905b87518110156134f9576000613331878a848151811061332257fe5b60200260200101516001613612565b9050838c1415613400578088838151811061334857fe5b602002602001018181525050826001600160a01b031689838151811061336a57fe5b60200260200101516001600160a01b0316146133fb57866001600160a01b03166370fbf1348a848151811061339b57fe5b60200260200101516040518263ffffffff1660e01b815260040180826001600160a01b03168152602001915050600060405180830381600087803b1580156133e257600080fd5b505af11580156133f6573d6000803e3d6000fd5b505050505b61342d565b6134148461340e838f61473b565b90614794565b88838151811061342057fe5b6020026020010181815250505b600088838151811061343b57fe5b602002602001015111156134f057866001600160a01b031663495d753c8a848151811061346457fe5b60200260200101518f8b868151811061347957fe5b60200260200101516040518463ffffffff1660e01b815260040180846001600160a01b03168152602001836001600160a01b031681526020018281526020019350505050600060405180830381600087803b1580156134d757600080fd5b505af11580156134eb573d6000803e3d6000fd5b505050505b50600101613307565b508a6001600160a01b03167fce8be57c942668208b28e8687882422313992b50d7731f1467d6d5b881dee105858989604051808481526020018060200180602001838103835285818151815260200191508051906020019060200280838360005b8381101561357257818101518382015260200161355a565b50505050905001838103825284818151815260200191508051906020019060200280838360005b838110156135b1578181015183820152602001613599565b505050509050019550505050505060405180910390a250505050506001805460ff60b81b19169055909590945092505050565b6000826135f257508061360b565b6136088361340e86670de0b6b3a764000061473b565b90505b9392505050565b6000807f00000000000000000000000000000000000000000000000000000000000000006001600160a01b0316638d8c1985856040518263ffffffff1660e01b815260040180826001600160a01b0316815260200191505060206040518083038186803b15801561368257600080fd5b505afa158015613696573d6000803e3d6000fd5b505050506040513d60208110156136ac57600080fd5b5051905080156138465760007f00000000000000000000000000000000000000000000000000000000000000006001600160a01b031663dacb2d016040518163ffffffff1660e01b815260040180806822bc31b430b733b2b960b91b815250602001806020018281038252602d8152602001806153f6602d913960400191505060206040518083038186803b15801561374457600080fd5b505afa158015613758573d6000803e3d6000fd5b505050506040513d602081101561376e57600080fd5b5051604080516306c5a00b60e21b81526001600160a01b03898116600483015260248201869052915192935090831691631b16802c916044808201926060929091908290030181600087803b1580156137c657600080fd5b505af19250505080156137fa57506040513d60608110156137e657600080fd5b508051602082015160409092015190919060015b61384057831561383b5760405162461bcd60e51b815260040180806020018281038252602f8152602001806151d0602f913960400191505060405180910390fd5b613844565b5050505b505b836001600160a01b03166370a08231866040518263ffffffff1660e01b815260040180826001600160a01b0316815260200191505060206040518083038186803b15801561389357600080fd5b505afa1580156138a7573d6000803e3d6000fd5b505050506040513d60208110156138bd57600080fd5b505195945050505050565b7f00000000000000000000000000000000000000000000000000000000000000006001600160a01b0316630442bad530600086868660405160200180846001600160a01b0316815260200180602001838152602001828103825284818151815260200191508051906020019060200280838360005b8381101561395557818101518382015260200161393d565b505050509050019450505050506040516020818303038152906040526040518463ffffffff1660e01b815260040180846001600160a01b0316815260200183600581111561399f57fe5b815260200180602001828103825283818151815260200191508051906020019080838360005b838110156139dd5781810151838201526020016139c5565b50505050905090810190601f168015613a0a5780820380516001836020036101000a031916815260200191505b50945050505050600060405180830381600087803b158015613a2b57600080fd5b505af1158015613a3f573d6000803e3d6000fd5b505050507f00000000000000000000000000000000000000000000000000000000000000006001600160a01b0316637759c1646001858560405160200180836001600160a01b0316815260200180602001828103825283818151815260200191508051906020019060200280838360005b83811015613ac8578181015183820152602001613ab0565b505050509050019350505050604051602081830303815290604052846040518463ffffffff1660e01b815260040180846005811115613b0357fe5b815260200180602001838152602001828103825284818151815260200191508051906020019080838360005b83811015613b47578181015183820152602001613b2f565b50505050905090810190601f168015613b745780820380516001836020036101000a031916815260200191505b50945050505050600060405180830381600087803b158015612b2057600080fd5b600087613ba181614140565b60008811613be05760405162461bcd60e51b815260040180806020018281038252602481526020018061531b6024913960400191505060405180910390fd5b613bec898989876147fb565b6000613c048661340e8b670de0b6b3a764000061473b565b90506000876001600160a01b03166370a082318c6040518263ffffffff1660e01b815260040180826001600160a01b0316815260200191505060206040518083038186803b158015613c5557600080fd5b505afa158015613c69573d6000803e3d6000fd5b505050506040513d6020811015613c7f57600080fd5b5051604080516329460cc560e11b81526001600160a01b038e81166004830152602482018690529151929350908a169163528c198a9160448082019260009290919082900301818387803b158015613cd657600080fd5b505af1158015613cea573d6000803e3d6000fd5b50613d04925050506001600160a01b038616338a8d614a28565b613d108b8b8489614a82565b613d9381896001600160a01b03166370a082318e6040518263ffffffff1660e01b815260040180826001600160a01b0316815260200191505060206040518083038186803b158015613d6157600080fd5b505afa158015613d75573d6000803e3d6000fd5b505050506040513d6020811015613d8b57600080fd5b505190614cde565b935088841015613dd45760405162461bcd60e51b815260040180806020018281038252603181526020018061519f6031913960400191505060405180910390fd5b604080518b81526020810184905280820186905290516001600160a01b038d169133917f050bd6ef6b1b818f58ae43f028aa7318a580ca0c793eca2df0033c7ae63094589181900360600190a350506001600160a01b03166000908152600360205260409020429055979650505050505050565b600082820183811015613ea2576040805162461bcd60e51b815260206004820152601b60248201527f536166654d6174683a206164646974696f6e206f766572666c6f770000000000604482015290519081900360640190fd5b90505b92915050565b7f00000000000000000000000000000000000000000000000000000000000000006001600160a01b0316630442bad530600386868660405160200180846001600160a01b0316815260200180602001838152602001828103825284818151815260200191508051906020019060200280838360005b83811015613f38578181015183820152602001613f20565b505050509050019450505050506040516020818303038152906040526040518463ffffffff1660e01b815260040180846001600160a01b03168152602001836005811115613f8257fe5b815260200180602001828103825283818151815260200191508051906020019080838360005b83811015613fc0578181015183820152602001613fa8565b50505050905090810190601f168015613fed5780820380516001836020036101000a031916815260200191505b50945050505050600060405180830381600087803b15801561400e57600080fd5b505af1158015614022573d6000803e3d6000fd5b505050507f00000000000000000000000000000000000000000000000000000000000000006001600160a01b0316637759c1646004858560405160200180836001600160a01b03168152602001806020018281038252838181518152602001915080519060200190602002808383600083811015613ac8578181015183820152602001613ab0565b600060018251116140bd5750600161413b565b815160005b8181101561413457600181015b8281101561412b578481815181106140e357fe5b60200260200101516001600160a01b031685838151811061410057fe5b60200260200101516001600160a01b03161415614123576000935050505061413b565b6001016140cf565b506001016140c2565b5060019150505b919050565b6002546001600160a01b038216600090815260036020526040902054614167904290614cde565b10156127b0576040805162461bcd60e51b815260206004820152601860248201527f53686172657320616374696f6e2074696d656c6f636b65640000000000000000604482015290519081900360640190fd5b60006141c4612d4e565b6001805460ff60b01b1916600160b01b179055604080516001600160a01b03858116602083015281830185905282518083038401815260608301938490526384b6513d60e01b9093526000927f000000000000000000000000000000000000000000000000000000000000000091909116916384b6513d9160059185906064018084815260200180602001838152602001828103825284818151815260200191508051906020019080838360005b8381101561428a578181015183820152602001614272565b50505050905090810190601f1680156142b75780820380516001836020036101000a031916815260200191505b509450505050506040805180830381600087803b1580156142d757600080fd5b505af11580156142eb573d6000803e3d6000fd5b505050506040513d604081101561430157600080fd5b506020015190506143128382614cde565b6001805460ff60b01b19169055949350505050565b61432f612d4e565b6001805460ff60b01b1916600160b01b179055604080516001600160a01b0384811660208301528183018490528251808303840181526060830193849052631dd6705960e21b9093527f00000000000000000000000000000000000000000000000000000000000000001691637759c16491600591906000906064018084815260200180602001838152602001828103825284818151815260200191508051906020019080838360005b838110156143f15781810151838201526020016143d9565b50505050905090810190601f16801561441e5780820380516001836020036101000a031916815260200191505b50945050505050600060405180830381600087803b15801561443f57600080fd5b505af1925050508015614450575060015b614538573d80801561447e576040519150601f19603f3d011682016040523d82523d6000602084013e614483565b606091505b507fb3ea7e5141baf21804d12f5a635e83e0cb869c8b06b88648364769f85aa73fc28184846040518080602001846001600160a01b03168152602001838152602001828103825285818151815260200191508051906020019080838360005b838110156144fa5781810151838201526020016144e2565b50505050905090810190601f1680156145275780820380516001836020036101000a031916815260200191505b5094505050505060405180910390a1505b50506001805460ff60b01b19169055565b6060806145568584614d3b565b905083516000141561456957905061360b565b6060845167ffffffffffffffff8111801561458357600080fd5b506040519080825280602002602001820160405280156145ad578160200160208202803683370190505b5090506000805b8651811015614614576145e38782815181106145cc57fe5b602002602001015185614ec790919063ffffffff16565b61460c5760018382815181106145f557fe5b911515602092830291909101909101526001909101905b6001016145b4565b50806146255782935050505061360b565b82516146319082613e48565b67ffffffffffffffff8111801561464757600080fd5b50604051908082528060200260200182016040528015614671578160200160208202803683370190505b50935060005b83518110156146c05783818151811061468c57fe5b60200260200101518582815181106146a057fe5b6001600160a01b0390921660209283029190910190910152600101614677565b50825160005b875181101561472f578381815181106146db57fe5b602002602001015115614727578781815181106146f457fe5b602002602001015186838151811061470857fe5b6001600160a01b03909216602092830291909101909101526001909101905b6001016146c6565b50505050509392505050565b60008261474a57506000613ea5565b8282028284828161475757fe5b0414613ea25760405162461bcd60e51b81526004018080602001828103825260218152602001806153a36021913960400191505060405180910390fd5b60008082116147ea576040805162461bcd60e51b815260206004820152601a60248201527f536166654d6174683a206469766973696f6e206279207a65726f000000000000604482015290519081900360640190fd5b8183816147f357fe5b049392505050565b604080516001600160a01b0386811660208301528183018690526060808301869052835180840390910181526080830193849052631dd6705960e21b9093527f00000000000000000000000000000000000000000000000000000000000000001691637759c164916002919085906084018084815260200180602001838152602001828103825284818151815260200191508051906020019080838360005b838110156148b257818101518382015260200161489a565b50505050905090810190601f1680156148df5780820380516001836020036101000a031916815260200191505b50945050505050600060405180830381600087803b15801561490057600080fd5b505af1158015614914573d6000803e3d6000fd5b5050604080516001600160a01b0388811660208301528183018890526060820187905260808083018790528351808403909101815260a0830193849052630442bad560e01b9093523060a483018181527f00000000000000000000000000000000000000000000000000000000000000009092169550630442bad594509260019290919060c40183815260200180602001828103825283818151815260200191508051906020019080838360005b838110156149da5781810151838201526020016149c2565b50505050905090810190601f168015614a075780820380516001836020036101000a031916815260200191505b50945050505050600060405180830381600087803b1580156118e657600080fd5b604080516001600160a01b0380861660248301528416604482015260648082018490528251808303909101815260849091019091526020810180516001600160e01b03166323b872dd60e01b1790526118ff908590614f1d565b6000614a8e8285613e48565b604080516001600160a01b0388811660208301528183018890526060808301889052835180840390910181526080830193849052631dd6705960e21b9093529293507f000000000000000000000000000000000000000000000000000000000000000090921691637759c1649160039185906084018084815260200180602001838152602001828103825284818151815260200191508051906020019080838360005b83811015614b49578181015183820152602001614b31565b50505050905090810190601f168015614b765780820380516001836020036101000a031916815260200191505b50945050505050600060405180830381600087803b158015614b9757600080fd5b505af1158015614bab573d6000803e3d6000fd5b5050604080516001600160a01b0389811660208301528183018990526060820188905260808083018790528351808403909101815260a0830193849052630442bad560e01b9093523060a483018181527f00000000000000000000000000000000000000000000000000000000000000009092169550630442bad594509260029290919060c40183815260200180602001828103825283818151815260200191508051906020019080838360005b83811015614c71578181015183820152602001614c59565b50505050905090810190601f168015614c9e5780820380516001836020036101000a031916815260200191505b50945050505050600060405180830381600087803b158015614cbf57600080fd5b505af1158015614cd3573d6000803e3d6000fd5b505050505050505050565b600082821115614d35576040805162461bcd60e51b815260206004820152601e60248201527f536166654d6174683a207375627472616374696f6e206f766572666c6f770000604482015290519081900360640190fd5b50900390565b6060815160001415614d4e575081613ea5565b6060835167ffffffffffffffff81118015614d6857600080fd5b50604051908082528060200260200182016040528015614d92578160200160208202803683370190505b50845190915060005b8551811015614df457614dc185878381518110614db457fe5b6020026020010151614ec7565b15614dec576001838281518110614dd457fe5b91151560209283029190910190910152600019909101905b600101614d9b565b508451811415614e0657849250614ebf565b8015614ebf578067ffffffffffffffff81118015614e2357600080fd5b50604051908082528060200260200182016040528015614e4d578160200160208202803683370190505b5092506000805b8651811015614ebc57838181518110614e6957fe5b6020026020010151614eb457868181518110614e8157fe5b6020026020010151858381518110614e9557fe5b6001600160a01b03909216602092830291909101909101526001909101905b600101614e54565b50505b505092915050565b6000805b8351811015614f1357838181518110614ee057fe5b60200260200101516001600160a01b0316836001600160a01b03161415614f0b576001915050613ea5565b600101614ecb565b5060009392505050565b6060614f72826040518060400160405280602081526020017f5361666545524332303a206c6f772d6c6576656c2063616c6c206661696c6564815250856001600160a01b0316614fce9092919063ffffffff16565b805190915015610a8e57808060200190516020811015614f9157600080fd5b5051610a8e5760405162461bcd60e51b815260040180806020018281038252602a815260200180615446602a913960400191505060405180910390fd5b6060613608848460008585614fe2856150f4565b615033576040805162461bcd60e51b815260206004820152601d60248201527f416464726573733a2063616c6c20746f206e6f6e2d636f6e7472616374000000604482015290519081900360640190fd5b60006060866001600160a01b031685876040518082805190602001908083835b602083106150725780518252601f199092019160209182019101615053565b6001836020036101000a03801982511681845116808217855250505050505090500191505060006040518083038185875af1925050503d80600081146150d4576040519150601f19603f3d011682016040523d82523d6000602084013e6150d9565b606091505b50915091506150e98282866150fa565b979650505050505050565b3b151590565b6060831561510957508161360b565b8251156151195782518084602001fd5b8160405162461bcd60e51b81526004018080602001828103825283818151815260200191508051906020019080838360005b8381101561516357818101518382015260200161514b565b50505050905090810190601f1680156151905780820380516001836020036101000a031916815260200191505b509250505060405180910390fdfe5f5f6275795368617265733a20536861726573207265636569766564203c205f6d696e5368617265735175616e7469747966696e616c697a65416e64476574417373657442616c616e63653a2043616e6e6f7420736574746c652053796e74685f5f6173736572745065726d697373696f6e65645661756c74416374696f6e3a204e6f7420612076616c6964206163746f725f5f72656465656d5368617265733a205f6164646974696f6e616c41737365747320636f6e7461696e73206475706c6963617465735f5f6173736572745065726d697373696f6e65645661756c74416374696f6e3a204e6f742076616c696420666f72204665654d616e616765725f5f72656465656d5368617265733a205f7368617265735175616e74697479206d757374206265203e305f5f72656465656d5368617265733a205f617373657473546f536b697020636f6e7461696e73206475706c6963617465737661756c7443616c6c4f6e436f6e74726163743a20556e726567697374657265645f5f6275795368617265733a20456d707479205f696e766573746d656e74416d6f756e745f5f6173736572745065726d697373696f6e65645661756c74416374696f6e3a204e6f742076616c696420666f7220496e746567726174696f6e4d616e6167657263616c6c4f6e457874656e73696f6e3a205f657874656e73696f6e20696e76616c6964536166654d6174683a206d756c7469706c69636174696f6e206f766572666c6f775f5f6173736572745065726d697373696f6e65645661756c74416374696f6e3a204e6f20616374696f6e20616c6c6f77656466696e616c697a65416e64476574417373657442616c616e63653a204d697373696e672045786368616e6765727365744f7665727269646550617573653a2056616c756520616c7265616479207365745361666545524332303a204552433230206f7065726174696f6e20646964206e6f7420737563636565645f5f72656465656d5368617265733a20496e73756666696369656e7420736861726573a2646970667358221220845ec1b1f5c5e3dca30fa9a95967bb63bf947a3658f7c1a025353c43a6acf1f264736f6c634300060c0033",
  "devdoc": {
    "author": "Enzyme Council <security@enzyme.finance>",
    "kind": "dev",
    "methods": {
      "activate(address,bool)": {
        "details": "No need to assert anything beyond FundDeployer access.",
        "params": {
          "_isMigration": "True if a migrated fund is being activated",
          "_vaultProxy": "The VaultProxy to attach to the fund"
        }
      },
      "buyShares(address[],uint256[],uint256[])": {
        "details": "Param arrays have indexes corresponding to individual __buyShares() orders.",
        "params": {
          "_buyers": "The accounts for which to buy shares",
          "_investmentAmounts": "The amounts of the fund's denomination asset with which to buy shares for the corresponding _buyers",
          "_minSharesQuantities": "The minimum quantities of shares to buy with the corresponding _investmentAmounts"
        },
        "returns": {
          "sharesReceivedAmounts_": "The actual amounts of shares received by the corresponding _buyers"
        }
      },
      "calcGav(bool)": {
        "params": {
          "_requireFinality": "True if all assets must have exact final balances settled"
        },
        "returns": {
          "gav_": "The fund GAV",
          "isValid_": "True if the conversion rates used to derive the GAV are all valid"
        }
      },
      "calcGrossShareValue(bool)": {
        "details": "Does not account for any fees outstanding.",
        "params": {
          "_requireFinality": "True if all assets must have exact final balances settled"
        },
        "returns": {
          "grossShareValue_": "The amount of the denomination asset per share",
          "isValid_": "True if the conversion rates to derive the value are all valid"
        }
      },
      "callOnExtension(address,uint256,bytes)": {
        "details": "Used to route arbitrary calls, so that msg.sender is the ComptrollerProxy (for access control). Uses a mutex of sorts that allows \"permissioned vault actions\" during calls originating from this function.",
        "params": {
          "_actionId": "An ID representing the action to take on the extension (see extension)",
          "_callArgs": "The encoded data for the call",
          "_extension": "The Extension contract to call (e.g., FeeManager)"
        }
      },
      "configureExtensions(bytes,bytes)": {
        "details": "No need to assert anything beyond FundDeployer access. Called atomically with init(), but after ComptrollerLib has been deployed, giving access to its state and interface",
        "params": {
          "_feeManagerConfigData": "Encoded config for fees to enable",
          "_policyManagerConfigData": "Encoded config for policies to enable"
        }
      },
      "destruct()": {
        "details": "No need to assert anything beyond FundDeployer access. Calling onlyNotPaused here rather than in the FundDeployer allows the owner to potentially override the pause and rescue unpaid fees."
      },
      "getDenominationAsset()": {
        "returns": {
          "denominationAsset_": "The `denominationAsset` variable value"
        }
      },
      "getLibRoutes()": {
        "returns": {
          "dispatcher_": "The `DISPATCHER` variable value",
          "feeManager_": "The `FEE_MANAGER` variable value",
          "fundDeployer_": "The `FUND_DEPLOYER` variable value",
          "integrationManager_": "The `INTEGRATION_MANAGER` variable value",
          "policyManager_": "The `POLICY_MANAGER` variable value",
          "primitivePriceFeed_": "The `PRIMITIVE_PRICE_FEED` variable value",
          "valueInterpreter_": "The `VALUE_INTERPRETER` variable value"
        }
      },
      "getOverridePause()": {
        "returns": {
          "overridePause_": "The `overridePause` variable value"
        }
      },
      "getSharesActionTimelock()": {
        "returns": {
          "sharesActionTimelock_": "The `sharesActionTimelock` variable value"
        }
      },
      "getSynthetixAddressResolver()": {
        "returns": {
          "synthetixAddressResolver_": "The `SYNTHETIX_ADDRESS_RESOLVER` variable value"
        }
      },
      "getSynthetixPriceFeed()": {
        "returns": {
          "synthetixPriceFeed_": "The `SYNTHETIX_PRICE_FEED` variable value"
        }
      },
      "getVaultProxy()": {
        "returns": {
          "vaultProxy_": "The `vaultProxy` variable value"
        }
      },
      "init(address,uint256)": {
        "details": "Pseudo-constructor per proxy. No need to assert access because this is called atomically on deployment, and once it's called, it cannot be called again.",
        "params": {
          "_denominationAsset": "The asset in which the fund's value should be denominated",
          "_sharesActionTimelock": "The minimum number of seconds between any two \"shares actions\" (buying or selling shares) by the same user"
        }
      },
      "permissionedVaultAction(uint8,bytes)": {
        "params": {
          "_action": "The enum representing the VaultAction to perform on the VaultProxy",
          "_actionData": "The call data for the action to perform"
        }
      },
      "redeemShares()": {
        "details": "See __redeemShares() for further detail",
        "returns": {
          "payoutAmounts_": "The amount of each asset paid out to the redeemer",
          "payoutAssets_": "The assets paid out to the redeemer"
        }
      },
      "redeemSharesDetailed(uint256,address[],address[])": {
        "details": "Any claim to passed _assetsToSkip will be forfeited entirely. This should generally only be exercised if a bad asset is causing redemption to fail.",
        "params": {
          "_additionalAssets": "Additional (non-tracked) assets to claim",
          "_assetsToSkip": "Tracked assets to forfeit",
          "_sharesQuantity": "The quantity of shares to redeem"
        },
        "returns": {
          "payoutAmounts_": "The amount of each asset paid out to the redeemer",
          "payoutAssets_": "The assets paid out to the redeemer"
        }
      },
      "setOverridePause(bool)": {
        "params": {
          "_nextOverridePause": "True if the pause should be overrode"
        }
      },
      "vaultCallOnContract(address,bytes4,bytes)": {
        "params": {
          "_contract": "The contract to call",
          "_encodedArgs": "The encoded arguments for the call",
          "_selector": "The selector to call"
        }
      }
    },
    "title": "ComptrollerLib Contract",
    "version": 1
  },
  "userdoc": {
    "kind": "user",
    "methods": {
      "activate(address,bool)": {
        "notice": "Activates the fund by attaching a VaultProxy and activating all Extensions"
      },
      "buyShares(address[],uint256[],uint256[])": {
        "notice": "Buys shares in the fund for multiple sets of criteria"
      },
      "calcGav(bool)": {
        "notice": "Calculates the gross asset value (GAV) of the fund"
      },
      "calcGrossShareValue(bool)": {
        "notice": "Calculates the gross value of 1 unit of shares in the fund's denomination asset"
      },
      "callOnExtension(address,uint256,bytes)": {
        "notice": "Calls a specified action on an Extension"
      },
      "configureExtensions(bytes,bytes)": {
        "notice": "Configure the extensions of a fund"
      },
      "destruct()": {
        "notice": "Remove the config for a fund"
      },
      "getDenominationAsset()": {
        "notice": "Gets the `denominationAsset` variable"
      },
      "getLibRoutes()": {
        "notice": "Gets the routes for the various contracts used by all funds"
      },
      "getOverridePause()": {
        "notice": "Gets the `overridePause` variable"
      },
      "getSharesActionTimelock()": {
        "notice": "Gets the `sharesActionTimelock` variable"
      },
      "getSynthetixAddressResolver()": {
        "notice": "Gets the `SYNTHETIX_ADDRESS_RESOLVER` variable"
      },
      "getSynthetixPriceFeed()": {
        "notice": "Gets the `SYNTHETIX_PRICE_FEED` variable"
      },
      "getVaultProxy()": {
        "notice": "Gets the `vaultProxy` variable"
      },
      "init(address,uint256)": {
        "notice": "Initializes a fund with its core config"
      },
      "permissionedVaultAction(uint8,bytes)": {
        "notice": "Makes a permissioned, state-changing call on the VaultProxy contract"
      },
      "redeemShares()": {
        "notice": "Redeem all of the sender's shares for a proportionate slice of the fund's assets"
      },
      "redeemSharesDetailed(uint256,address[],address[])": {
        "notice": "Redeem a specified quantity of the sender's shares for a proportionate slice of the fund's assets, optionally specifying additional assets and assets to skip."
      },
      "setOverridePause(bool)": {
        "notice": "Sets or unsets an override on a release-wide pause"
      },
      "vaultCallOnContract(address,bytes4,bytes)": {
        "notice": "Makes an arbitrary call with the VaultProxy contract as the sender"
      }
    },
    "notice": "The core logic library shared by all funds",
    "version": 1
  },
  "storageLayout": {
    "storage": [
      {
        "astId": 11585,
        "contract": "contracts/release/core/fund/comptroller/ComptrollerLib.sol:ComptrollerLib",
        "label": "denominationAsset",
        "offset": 0,
        "slot": "0",
        "type": "t_address"
      },
      {
        "astId": 11587,
        "contract": "contracts/release/core/fund/comptroller/ComptrollerLib.sol:ComptrollerLib",
        "label": "vaultProxy",
        "offset": 0,
        "slot": "1",
        "type": "t_address"
      },
      {
        "astId": 11589,
        "contract": "contracts/release/core/fund/comptroller/ComptrollerLib.sol:ComptrollerLib",
        "label": "isLib",
        "offset": 20,
        "slot": "1",
        "type": "t_bool"
      },
      {
        "astId": 11591,
        "contract": "contracts/release/core/fund/comptroller/ComptrollerLib.sol:ComptrollerLib",
        "label": "overridePause",
        "offset": 21,
        "slot": "1",
        "type": "t_bool"
      },
      {
        "astId": 11593,
        "contract": "contracts/release/core/fund/comptroller/ComptrollerLib.sol:ComptrollerLib",
        "label": "permissionedVaultActionAllowed",
        "offset": 22,
        "slot": "1",
        "type": "t_bool"
      },
      {
        "astId": 11595,
        "contract": "contracts/release/core/fund/comptroller/ComptrollerLib.sol:ComptrollerLib",
        "label": "reentranceLocked",
        "offset": 23,
        "slot": "1",
        "type": "t_bool"
      },
      {
        "astId": 11597,
        "contract": "contracts/release/core/fund/comptroller/ComptrollerLib.sol:ComptrollerLib",
        "label": "sharesActionTimelock",
        "offset": 0,
        "slot": "2",
        "type": "t_uint256"
      },
      {
        "astId": 11601,
        "contract": "contracts/release/core/fund/comptroller/ComptrollerLib.sol:ComptrollerLib",
        "label": "acctToLastSharesAction",
        "offset": 0,
        "slot": "3",
        "type": "t_mapping(t_address,t_uint256)"
      }
    ],
    "types": {
      "t_address": {
        "encoding": "inplace",
        "label": "address",
        "numberOfBytes": "20"
      },
      "t_bool": {
        "encoding": "inplace",
        "label": "bool",
        "numberOfBytes": "1"
      },
      "t_mapping(t_address,t_uint256)": {
        "encoding": "mapping",
        "key": "t_address",
        "label": "mapping(address => uint256)",
        "numberOfBytes": "32",
        "value": "t_uint256"
      },
      "t_uint256": {
        "encoding": "inplace",
        "label": "uint256",
        "numberOfBytes": "32"
      }
    }
  }
}