{
  "address": "0x8F99659606bcE13cA21c40fb44452D65D03BA487",
  "abi": [
    {
      "inputs": [
        {
          "internalType": "address",
          "name": "_fundDeployer",
          "type": "address"
        },
        {
          "internalType": "address",
          "name": "_addressProvider",
          "type": "address"
        }
      ],
      "stateMutability": "nonpayable",
      "type": "constructor"
    },
    {
      "anonymous": false,
      "inputs": [
        {
          "indexed": true,
          "internalType": "address",
          "name": "derivative",
          "type": "address"
        },
        {
          "indexed": true,
          "internalType": "address",
          "name": "pool",
          "type": "address"
        },
        {
          "indexed": true,
          "internalType": "address",
          "name": "invariantProxyAsset",
          "type": "address"
        },
        {
          "indexed": false,
          "internalType": "uint256",
          "name": "invariantProxyAssetDecimals",
          "type": "uint256"
        }
      ],
      "name": "DerivativeAdded",
      "type": "event"
    },
    {
      "anonymous": false,
      "inputs": [
        {
          "indexed": true,
          "internalType": "address",
          "name": "derivative",
          "type": "address"
        }
      ],
      "name": "DerivativeRemoved",
      "type": "event"
    },
    {
      "inputs": [
        {
          "internalType": "address[]",
          "name": "_derivatives",
          "type": "address[]"
        },
        {
          "internalType": "address[]",
          "name": "_invariantProxyAssets",
          "type": "address[]"
        }
      ],
      "name": "addDerivatives",
      "outputs": [],
      "stateMutability": "nonpayable",
      "type": "function"
    },
    {
      "inputs": [
        {
          "internalType": "address",
          "name": "_derivative",
          "type": "address"
        },
        {
          "internalType": "uint256",
          "name": "_derivativeAmount",
          "type": "uint256"
        }
      ],
      "name": "calcUnderlyingValues",
      "outputs": [
        {
          "internalType": "address[]",
          "name": "underlyings_",
          "type": "address[]"
        },
        {
          "internalType": "uint256[]",
          "name": "underlyingAmounts_",
          "type": "uint256[]"
        }
      ],
      "stateMutability": "nonpayable",
      "type": "function"
    },
    {
      "inputs": [],
      "name": "getAddressProvider",
      "outputs": [
        {
          "internalType": "address",
          "name": "addressProvider_",
          "type": "address"
        }
      ],
      "stateMutability": "view",
      "type": "function"
    },
    {
      "inputs": [
        {
          "internalType": "address",
          "name": "_derivative",
          "type": "address"
        }
      ],
      "name": "getDerivativeInfo",
      "outputs": [
        {
          "components": [
            {
              "internalType": "address",
              "name": "pool",
              "type": "address"
            },
            {
              "internalType": "address",
              "name": "invariantProxyAsset",
              "type": "address"
            },
            {
              "internalType": "uint256",
              "name": "invariantProxyAssetDecimals",
              "type": "uint256"
            }
          ],
          "internalType": "struct CurvePriceFeed.DerivativeInfo",
          "name": "derivativeInfo_",
          "type": "tuple"
        }
      ],
      "stateMutability": "view",
      "type": "function"
    },
    {
      "inputs": [],
      "name": "getDerivativePriceFeedDeployTimestamp",
      "outputs": [
        {
          "internalType": "uint256",
          "name": "",
          "type": "uint256"
        }
      ],
      "stateMutability": "view",
      "type": "function"
    },
    {
      "inputs": [],
      "name": "getFundDeployer",
      "outputs": [
        {
          "internalType": "address",
          "name": "fundDeployer_",
          "type": "address"
        }
      ],
      "stateMutability": "view",
      "type": "function"
    },
    {
      "inputs": [],
      "name": "getOwner",
      "outputs": [
        {
          "internalType": "address",
          "name": "owner_",
          "type": "address"
        }
      ],
      "stateMutability": "view",
      "type": "function"
    },
    {
      "inputs": [
        {
          "internalType": "address",
          "name": "_asset",
          "type": "address"
        }
      ],
      "name": "isSupportedAsset",
      "outputs": [
        {
          "internalType": "bool",
          "name": "isSupported_",
          "type": "bool"
        }
      ],
      "stateMutability": "view",
      "type": "function"
    },
    {
      "inputs": [
        {
          "internalType": "address[]",
          "name": "_derivatives",
          "type": "address[]"
        }
      ],
      "name": "removeDerivatives",
      "outputs": [],
      "stateMutability": "nonpayable",
      "type": "function"
    }
  ],
  "transactionHash": "0x80f84550376fd9241174b397a00fa728adefbcd35f33df3096c5d4f9e164c748",
  "args": [
    "0x217912B16c8A00C2D9F2fDFCA94127ca37cFe948",
    "0x0000000022D53366457F9d5E68Ec105046FC4383"
  ],
  "solcInputHash": "34b1516e615d6cbcdbaf9542624efee9",
  "bytecode": "0x60e06040523480156200001157600080fd5b50604051620017953803806200179583398101604081905262000034916200006a565b6001600160601b0319606092831b81166080524260a052911b1660c052620000d5565b80516200006481620000bb565b92915050565b600080604083850312156200007e57600080fd5b60006200008c858562000057565b92505060206200009f8582860162000057565b9150509250929050565b60006001600160a01b03821662000064565b620000c681620000a9565b8114620000d257600080fd5b50565b60805160601c60a05160c05160601c61168362000112600039806102315280610ce8525080610cc4525080610a545280610c8052506116836000f3fe608060405234801561001057600080fd5b50600436106100935760003560e01c80638f72b136116100665780638f72b1361461010c57806397c0ac871461011f5780639be918e614610127578063ba4906b814610147578063f8c689341461015c57610093565b80630bad9a171461009857806339cbb63c146100c1578063727212f6146100d6578063893d20e8146100f7575b600080fd5b6100ab6100a6366004610e18565b610164565b6040516100b891906115d0565b60405180910390f35b6100d46100cf366004610ed8565b6101b0565b005b6100e96100e4366004610e5c565b6107f4565b6040516100b89291906114bd565b6100ff610a50565b6040516100b891906114af565b6100d461011a366004610e96565b610ae8565b6100ff610c7e565b61013a610135366004610e18565b610ca2565b6040516100b891906114e2565b61014f610cc2565b6040516100b891906115de565b6100ff610ce6565b61016c610d7f565b506001600160a01b03908116600090815260208181526040918290208251606081018452815485168152600182015490941691840191909152600201549082015290565b6101b8610a50565b6001600160a01b0316336001600160a01b0316146101f15760405162461bcd60e51b81526004016101e890611510565b60405180910390fd5b8261020e5760405162461bcd60e51b81526004016101e890611570565b82811461022d5760405162461bcd60e51b81526004016101e890611540565b60007f00000000000000000000000000000000000000000000000000000000000000006001600160a01b031663a262904b6040518163ffffffff1660e01b815260040160206040518083038186803b15801561028857600080fd5b505afa15801561029c573d6000803e3d6000fd5b505050506040513d601f19601f820116820180604052508101906102c09190610e3e565b905060005b848110156107ec5760008686838181106102db57fe5b90506020020160208101906102f09190610e18565b6001600160a01b031614156103175760405162461bcd60e51b81526004016101e8906115c0565b600084848381811061032557fe5b905060200201602081019061033a9190610e18565b6001600160a01b031614156103615760405162461bcd60e51b81526004016101e890611580565b61038586868381811061037057fe5b90506020020160208101906101359190610e18565b156103a25760405162461bcd60e51b81526004016101e890611530565b6000826001600160a01b031663bdf475c38888858181106103bf57fe5b90506020020160208101906103d49190610e18565b6040518263ffffffff1660e01b81526004016103f091906114af565b60206040518083038186803b15801561040857600080fd5b505afa15801561041c573d6000803e3d6000fd5b505050506040513d601f19601f820116820180604052508101906104409190610e3e565b90506001600160a01b03811661058457826001600160a01b031663bdf475c388888581811061046b57fe5b90506020020160208101906104809190610e18565b6001600160a01b03166382c630666040518163ffffffff1660e01b815260040160206040518083038186803b1580156104b857600080fd5b505afa1580156104cc573d6000803e3d6000fd5b505050506040513d601f19601f820116820180604052508101906104f09190610e3e565b6040518263ffffffff1660e01b815260040161050c91906114af565b60206040518083038186803b15801561052457600080fd5b505afa158015610538573d6000803e3d6000fd5b505050506040513d601f19601f8201168201806040525081019061055c9190610e3e565b90506001600160a01b0381166105845760405162461bcd60e51b81526004016101e890611520565b600085858481811061059257fe5b90506020020160208101906105a79190610e18565b6001600160a01b031663313ce5676040518163ffffffff1660e01b815260040160206040518083038186803b1580156105df57600080fd5b505afa1580156105f3573d6000803e3d6000fd5b505050506040513d601f19601f820116820180604052508101906106179190610f66565b60ff1690506040518060600160405280836001600160a01b0316815260200187878681811061064257fe5b90506020020160208101906106579190610e18565b6001600160a01b031681526020018290526000808a8a8781811061067757fe5b905060200201602081019061068c9190610e18565b6001600160a01b0390811682526020808301939093526040918201600020845181549083166001600160a01b031991821617825593850151600182018054919093169416939093179055919091015160029091015560606107158989868181106106f257fe5b90506020020160208101906107079190610e18565b670de0b6b3a76400006107f4565b91505060008160008151811061072757fe5b60200260200101511161074c5760405162461bcd60e51b81526004016101e8906115b0565b86868581811061075857fe5b905060200201602081019061076d9190610e18565b6001600160a01b0316836001600160a01b03168a8a8781811061078c57fe5b90506020020160208101906107a19190610e18565b6001600160a01b03167f609e0cbea48ceadc5f9f75d0320d1093fd97d101190895000da6d3e095ec5352856040516107d991906115de565b60405180910390a45050506001016102c5565b505050505050565b6060806107ff610d7f565b506001600160a01b03808516600090815260208181526040918290208251606081018452815485168082526001830154909516928101929092526002015491810191909152906108615760405162461bcd60e51b81526004016101e8906114f0565b604080516001808252818301909252906020808301908036833701905050925080602001518360008151811061089357fe5b6001600160a01b039290921660209283029190910182015260408051600180825281830190925291828101908036833701905050915080604001516012141561098557610967670de0b6b3a764000061096183600001516001600160a01b031663bb7b8b806040518163ffffffff1660e01b815260040160206040518083038186803b15801561092257600080fd5b505afa158015610936573d6000803e3d6000fd5b505050506040513d601f19601f8201168201806040525081019061095a9190610f48565b8790610d0a565b90610d4d565b8260008151811061097457fe5b602002602001018181525050610a47565b610a2d670de0b6b3a7640000610961670de0b6b3a76400006109618560400151600a0a610a2787600001516001600160a01b031663bb7b8b806040518163ffffffff1660e01b815260040160206040518083038186803b1580156109e857600080fd5b505afa1580156109fc573d6000803e3d6000fd5b505050506040513d601f19601f82011682018060405250810190610a209190610f48565b8b90610d0a565b90610d0a565b82600081518110610a3a57fe5b6020026020010181815250505b505b9250929050565b60007f00000000000000000000000000000000000000000000000000000000000000006001600160a01b031663893d20e86040518163ffffffff1660e01b815260040160206040518083038186803b158015610aab57600080fd5b505afa158015610abf573d6000803e3d6000fd5b505050506040513d601f19601f82011682018060405250810190610ae39190610e3e565b905090565b610af0610a50565b6001600160a01b0316336001600160a01b031614610b205760405162461bcd60e51b81526004016101e890611510565b80610b3d5760405162461bcd60e51b81526004016101e890611500565b60005b81811015610c79576000838383818110610b5657fe5b9050602002016020810190610b6b9190610e18565b6001600160a01b03161415610b925760405162461bcd60e51b81526004016101e890611590565b610ba183838381811061037057fe5b610bbd5760405162461bcd60e51b81526004016101e8906115a0565b600080848484818110610bcc57fe5b9050602002016020810190610be19190610e18565b6001600160a01b031681526020810191909152604001600090812080546001600160a01b03199081168255600182018054909116905560020155828282818110610c2757fe5b9050602002016020810190610c3c9190610e18565b6001600160a01b03167fc15eb25d807b570f4567baf6e97c7b26d58a7d0512dc85e8db15375a056b860460405160405180910390a2600101610b40565b505050565b7f000000000000000000000000000000000000000000000000000000000000000090565b6001600160a01b0390811660009081526020819052604090205416151590565b7f000000000000000000000000000000000000000000000000000000000000000090565b7f000000000000000000000000000000000000000000000000000000000000000090565b600082610d1957506000610d47565b82820282848281610d2657fe5b0414610d445760405162461bcd60e51b81526004016101e890611560565b90505b92915050565b6000808211610d6e5760405162461bcd60e51b81526004016101e890611550565b818381610d7757fe5b049392505050565b604080516060810182526000808252602082018190529181019190915290565b8035610d4781611624565b8051610d4781611624565b60008083601f840112610dc757600080fd5b50813567ffffffffffffffff811115610ddf57600080fd5b602083019150836020820283011115610a4957600080fd5b8035610d478161163b565b8051610d478161163b565b8051610d4781611644565b600060208284031215610e2a57600080fd5b6000610e368484610d9f565b949350505050565b600060208284031215610e5057600080fd5b6000610e368484610daa565b60008060408385031215610e6f57600080fd5b6000610e7b8585610d9f565b9250506020610e8c85828601610df7565b9150509250929050565b60008060208385031215610ea957600080fd5b823567ffffffffffffffff811115610ec057600080fd5b610ecc85828601610db5565b92509250509250929050565b60008060008060408587031215610eee57600080fd5b843567ffffffffffffffff811115610f0557600080fd5b610f1187828801610db5565b9450945050602085013567ffffffffffffffff811115610f3057600080fd5b610f3c87828801610db5565b95989497509550505050565b600060208284031215610f5a57600080fd5b6000610e368484610e02565b600060208284031215610f7857600080fd5b6000610e368484610e0d565b6000610f908383610fa4565b505060200190565b6000610f9083836114a6565b610fad816115ff565b82525050565b6000610fbe826115f2565b610fc881856115f6565b9350610fd3836115ec565b8060005b83811015611001578151610feb8882610f84565b9750610ff6836115ec565b925050600101610fd7565b509495945050505050565b6000611017826115f2565b61102181856115f6565b935061102c836115ec565b8060005b838110156110015781516110448882610f98565b975061104f836115ec565b925050600101611030565b610fad8161160a565b60006110706032836115f6565b7f63616c63556e6465726c79696e6756616c7565733a205f64657269766174697681527119481a5cc81b9bdd081cdd5c1c1bdc9d195960721b602082015260400192915050565b60006110c46025836115f6565b7f72656d6f766544657269766174697665733a20456d707479205f646572697661815264746976657360d81b602082015260400192915050565b600061110b6049836115f6565b7f6f6e6c7946756e644465706c6f7965724f776e65723a204f6e6c79207468652081527f46756e644465706c6f796572206f776e65722063616e2063616c6c207468697360208201526810333ab731ba34b7b760b91b604082015260600192915050565b600061117c603d836115f6565b7f61646444657269766174697665733a204e6f7420612076616c6964204c50207481527f6f6b656e206f72206c697175696469747920676175676520746f6b656e000000602082015260400192915050565b60006111db6021836115f6565b7f61646444657269766174697665733a2056616c756520616c72656164792073658152601d60fa1b602082015260400192915050565b600061121e601e836115f6565b7f61646444657269766174697665733a20556e657175616c206172726179730000815260200192915050565b6000611257601a836115f6565b7f536166654d6174683a206469766973696f6e206279207a65726f000000000000815260200192915050565b60006112906021836115f6565b7f536166654d6174683a206d756c7469706c69636174696f6e206f766572666c6f8152607760f81b602082015260400192915050565b60006112d36022836115f6565b7f61646444657269766174697665733a20456d707479205f646572697661746976815261657360f01b602082015260400192915050565b60006113176029836115f6565b7f61646444657269766174697665733a20456d70747920696e76617269616e74508152681c9bde1e505cdcd95d60ba1b602082015260400192915050565b60006113626023836115f6565b7f72656d6f766544657269766174697665733a20456d707479206465726976617481526269766560e81b602082015260400192915050565b60006113a76023836115f6565b7f72656d6f766544657269766174697665733a2056616c7565206973206e6f74208152621cd95d60ea1b602082015260400192915050565b60006113ec602f836115f6565b7f61646444657269766174697665733a20636f756c64206e6f742063616c63756c81526e6174652076616c696420707269636560881b602082015260400192915050565b600061143d6020836115f6565b7f61646444657269766174697665733a20456d7074792064657269766174697665815260200192915050565b8051606083019061147a8482610fa4565b50602082015161148d6020850182610fa4565b5060408201516114a060408501826114a6565b50505050565b610fad8161161b565b60208101610d478284610fa4565b604080825281016114ce8185610fb3565b90508181036020830152610e36818461100c565b60208101610d47828461105a565b60208082528101610d4781611063565b60208082528101610d47816110b7565b60208082528101610d47816110fe565b60208082528101610d478161116f565b60208082528101610d47816111ce565b60208082528101610d4781611211565b60208082528101610d478161124a565b60208082528101610d4781611283565b60208082528101610d47816112c6565b60208082528101610d478161130a565b60208082528101610d4781611355565b60208082528101610d478161139a565b60208082528101610d47816113df565b60208082528101610d4781611430565b60608101610d478284611469565b60208101610d4782846114a6565b60200190565b5190565b90815260200190565b6000610d478261160f565b151590565b6001600160a01b031690565b90565b60ff1690565b61162d816115ff565b811461163857600080fd5b50565b61162d8161161b565b61162d8161161e56fea264697066735822122017b6c4b3fa90a897e64d4627b2b7c14050dfec2fdc767348837c7d5cc7f632cb64736f6c634300060c0033",
  "devdoc": {
    "author": "Enzyme Council <security@enzyme.finance>",
    "kind": "dev",
    "methods": {
      "addDerivatives(address[],address[])": {
        "params": {
          "_derivatives": "Curve LP and/or liquidity gauge tokens to add",
          "_invariantProxyAssets": "The ordered assets that act as proxies to the pool invariants, corresponding to each item in _derivatives, e.g., WETH for ETH-based pools"
        }
      },
      "calcUnderlyingValues(address,uint256)": {
        "params": {
          "_derivative": "The derivative to convert",
          "_derivativeAmount": "The amount of the derivative to convert"
        },
        "returns": {
          "underlyingAmounts_": "The amount of each underlying asset for the equivalent derivative amount",
          "underlyings_": "The underlying assets for the _derivative"
        }
      },
      "getAddressProvider()": {
        "returns": {
          "addressProvider_": "The `ADDRESS_PROVIDER` variable value"
        }
      },
      "getDerivativeInfo(address)": {
        "params": {
          "_derivative": "The derivative for which to get the `DerivativeInfo`"
        },
        "returns": {
          "derivativeInfo_": "The `DerivativeInfo` value"
        }
      },
      "getFundDeployer()": {
        "returns": {
          "fundDeployer_": "The `FUND_DEPLOYER` variable value"
        }
      },
      "getOwner()": {
        "details": "Ownership is deferred to the owner of the FundDeployer contract",
        "returns": {
          "owner_": "The owner"
        }
      },
      "isSupportedAsset(address)": {
        "params": {
          "_asset": "The asset to check"
        },
        "returns": {
          "isSupported_": "True if the asset is supported"
        }
      },
      "removeDerivatives(address[])": {
        "params": {
          "_derivatives": "Curve LP and/or liquidity gauge tokens to add"
        }
      }
    },
    "title": "CurvePriceFeed Contract",
    "version": 1
  },
  "userdoc": {
    "kind": "user",
    "methods": {
      "addDerivatives(address[],address[])": {
        "notice": "Adds Curve LP and/or liquidity gauge tokens to the price feed"
      },
      "calcUnderlyingValues(address,uint256)": {
        "notice": "Converts a given amount of a derivative to its underlying asset values"
      },
      "getAddressProvider()": {
        "notice": "Gets the `ADDRESS_PROVIDER` variable"
      },
      "getDerivativeInfo(address)": {
        "notice": "Gets the `DerivativeInfo` for a given derivative"
      },
      "getFundDeployer()": {
        "notice": "Gets the `FUND_DEPLOYER` variable"
      },
      "getOwner()": {
        "notice": "Gets the owner of this contract"
      },
      "isSupportedAsset(address)": {
        "notice": "Checks if an asset is supported by the price feed"
      },
      "removeDerivatives(address[])": {
        "notice": "Removes Curve LP and/or liquidity gauge tokens from the price feed"
      }
    },
    "notice": "Price feed for Curve pool tokens",
    "version": 1
  },
  "storageLayout": {
    "storage": [
      {
        "astId": 41023,
        "contract": "contracts/release/infrastructure/price-feeds/derivatives/feeds/CurvePriceFeed.sol:CurvePriceFeed",
        "label": "derivativeToInfo",
        "offset": 0,
        "slot": "0",
        "type": "t_mapping(t_address,t_struct(DerivativeInfo)41012_storage)"
      }
    ],
    "types": {
      "t_address": {
        "encoding": "inplace",
        "label": "address",
        "numberOfBytes": "20"
      },
      "t_mapping(t_address,t_struct(DerivativeInfo)41012_storage)": {
        "encoding": "mapping",
        "key": "t_address",
        "label": "mapping(address => struct CurvePriceFeed.DerivativeInfo)",
        "numberOfBytes": "32",
        "value": "t_struct(DerivativeInfo)41012_storage"
      },
      "t_struct(DerivativeInfo)41012_storage": {
        "encoding": "inplace",
        "label": "struct CurvePriceFeed.DerivativeInfo",
        "members": [
          {
            "astId": 41007,
            "contract": "contracts/release/infrastructure/price-feeds/derivatives/feeds/CurvePriceFeed.sol:CurvePriceFeed",
            "label": "pool",
            "offset": 0,
            "slot": "0",
            "type": "t_address"
          },
          {
            "astId": 41009,
            "contract": "contracts/release/infrastructure/price-feeds/derivatives/feeds/CurvePriceFeed.sol:CurvePriceFeed",
            "label": "invariantProxyAsset",
            "offset": 0,
            "slot": "1",
            "type": "t_address"
          },
          {
            "astId": 41011,
            "contract": "contracts/release/infrastructure/price-feeds/derivatives/feeds/CurvePriceFeed.sol:CurvePriceFeed",
            "label": "invariantProxyAssetDecimals",
            "offset": 0,
            "slot": "2",
            "type": "t_uint256"
          }
        ],
        "numberOfBytes": "96"
      },
      "t_uint256": {
        "encoding": "inplace",
        "label": "uint256",
        "numberOfBytes": "32"
      }
    }
  }
}