{
  "address": "0xE5db4811b094bDb10cb99ce1B119a31d540604d7",
  "abi": [
    {
      "inputs": [
        {
          "internalType": "address",
          "name": "_integrationManager",
          "type": "address"
        },
        {
          "internalType": "address",
          "name": "_liquidityGaugeToken",
          "type": "address"
        },
        {
          "internalType": "address",
          "name": "_lpToken",
          "type": "address"
        },
        {
          "internalType": "address",
          "name": "_minter",
          "type": "address"
        },
        {
          "internalType": "address",
          "name": "_pool",
          "type": "address"
        },
        {
          "internalType": "address",
          "name": "_crvToken",
          "type": "address"
        },
        {
          "internalType": "address",
          "name": "_stethToken",
          "type": "address"
        },
        {
          "internalType": "address",
          "name": "_wethToken",
          "type": "address"
        },
        {
          "internalType": "address",
          "name": "_uniswapV2Router2",
          "type": "address"
        }
      ],
      "stateMutability": "nonpayable",
      "type": "constructor"
    },
    {
      "inputs": [],
      "name": "ADD_TRACKED_ASSETS_SELECTOR",
      "outputs": [
        {
          "internalType": "bytes4",
          "name": "",
          "type": "bytes4"
        }
      ],
      "stateMutability": "view",
      "type": "function"
    },
    {
      "inputs": [],
      "name": "APPROVE_ASSETS_SELECTOR",
      "outputs": [
        {
          "internalType": "bytes4",
          "name": "",
          "type": "bytes4"
        }
      ],
      "stateMutability": "view",
      "type": "function"
    },
    {
      "inputs": [],
      "name": "CLAIM_REWARDS_AND_REINVEST_SELECTOR",
      "outputs": [
        {
          "internalType": "bytes4",
          "name": "",
          "type": "bytes4"
        }
      ],
      "stateMutability": "view",
      "type": "function"
    },
    {
      "inputs": [],
      "name": "CLAIM_REWARDS_AND_SWAP_SELECTOR",
      "outputs": [
        {
          "internalType": "bytes4",
          "name": "",
          "type": "bytes4"
        }
      ],
      "stateMutability": "view",
      "type": "function"
    },
    {
      "inputs": [],
      "name": "CLAIM_REWARDS_SELECTOR",
      "outputs": [
        {
          "internalType": "bytes4",
          "name": "",
          "type": "bytes4"
        }
      ],
      "stateMutability": "view",
      "type": "function"
    },
    {
      "inputs": [],
      "name": "LEND_AND_STAKE_SELECTOR",
      "outputs": [
        {
          "internalType": "bytes4",
          "name": "",
          "type": "bytes4"
        }
      ],
      "stateMutability": "view",
      "type": "function"
    },
    {
      "inputs": [],
      "name": "LEND_SELECTOR",
      "outputs": [
        {
          "internalType": "bytes4",
          "name": "",
          "type": "bytes4"
        }
      ],
      "stateMutability": "view",
      "type": "function"
    },
    {
      "inputs": [],
      "name": "REDEEM_SELECTOR",
      "outputs": [
        {
          "internalType": "bytes4",
          "name": "",
          "type": "bytes4"
        }
      ],
      "stateMutability": "view",
      "type": "function"
    },
    {
      "inputs": [],
      "name": "REMOVE_TRACKED_ASSETS_SELECTOR",
      "outputs": [
        {
          "internalType": "bytes4",
          "name": "",
          "type": "bytes4"
        }
      ],
      "stateMutability": "view",
      "type": "function"
    },
    {
      "inputs": [],
      "name": "STAKE_SELECTOR",
      "outputs": [
        {
          "internalType": "bytes4",
          "name": "",
          "type": "bytes4"
        }
      ],
      "stateMutability": "view",
      "type": "function"
    },
    {
      "inputs": [],
      "name": "TAKE_ORDER_SELECTOR",
      "outputs": [
        {
          "internalType": "bytes4",
          "name": "",
          "type": "bytes4"
        }
      ],
      "stateMutability": "view",
      "type": "function"
    },
    {
      "inputs": [],
      "name": "UNSTAKE_AND_REDEEM_SELECTOR",
      "outputs": [
        {
          "internalType": "bytes4",
          "name": "",
          "type": "bytes4"
        }
      ],
      "stateMutability": "view",
      "type": "function"
    },
    {
      "inputs": [],
      "name": "UNSTAKE_SELECTOR",
      "outputs": [
        {
          "internalType": "bytes4",
          "name": "",
          "type": "bytes4"
        }
      ],
      "stateMutability": "view",
      "type": "function"
    },
    {
      "inputs": [
        {
          "internalType": "address",
          "name": "",
          "type": "address"
        },
        {
          "internalType": "bytes",
          "name": "",
          "type": "bytes"
        },
        {
          "internalType": "bytes",
          "name": "",
          "type": "bytes"
        }
      ],
      "name": "approveAssets",
      "outputs": [],
      "stateMutability": "nonpayable",
      "type": "function"
    },
    {
      "inputs": [
        {
          "internalType": "address",
          "name": "_vaultProxy",
          "type": "address"
        },
        {
          "internalType": "bytes",
          "name": "",
          "type": "bytes"
        },
        {
          "internalType": "bytes",
          "name": "",
          "type": "bytes"
        }
      ],
      "name": "claimRewards",
      "outputs": [],
      "stateMutability": "nonpayable",
      "type": "function"
    },
    {
      "inputs": [
        {
          "internalType": "address",
          "name": "_vaultProxy",
          "type": "address"
        },
        {
          "internalType": "bytes",
          "name": "_encodedCallArgs",
          "type": "bytes"
        },
        {
          "internalType": "bytes",
          "name": "_encodedAssetTransferArgs",
          "type": "bytes"
        }
      ],
      "name": "claimRewardsAndReinvest",
      "outputs": [],
      "stateMutability": "nonpayable",
      "type": "function"
    },
    {
      "inputs": [
        {
          "internalType": "address",
          "name": "_vaultProxy",
          "type": "address"
        },
        {
          "internalType": "bytes",
          "name": "_encodedCallArgs",
          "type": "bytes"
        },
        {
          "internalType": "bytes",
          "name": "",
          "type": "bytes"
        }
      ],
      "name": "claimRewardsAndSwap",
      "outputs": [],
      "stateMutability": "nonpayable",
      "type": "function"
    },
    {
      "inputs": [],
      "name": "getAdapterDeployTimestamp",
      "outputs": [
        {
          "internalType": "uint256",
          "name": "",
          "type": "uint256"
        }
      ],
      "stateMutability": "view",
      "type": "function"
    },
    {
      "inputs": [],
      "name": "getCurveGaugeV2RewardsHandlerCrvToken",
      "outputs": [
        {
          "internalType": "address",
          "name": "crvToken_",
          "type": "address"
        }
      ],
      "stateMutability": "view",
      "type": "function"
    },
    {
      "inputs": [],
      "name": "getCurveGaugeV2RewardsHandlerMinter",
      "outputs": [
        {
          "internalType": "address",
          "name": "minter_",
          "type": "address"
        }
      ],
      "stateMutability": "view",
      "type": "function"
    },
    {
      "inputs": [],
      "name": "getCurveStethLiquidityPool",
      "outputs": [
        {
          "internalType": "address",
          "name": "pool_",
          "type": "address"
        }
      ],
      "stateMutability": "view",
      "type": "function"
    },
    {
      "inputs": [],
      "name": "getCurveStethLiquidityWethToken",
      "outputs": [
        {
          "internalType": "address",
          "name": "wethToken_",
          "type": "address"
        }
      ],
      "stateMutability": "view",
      "type": "function"
    },
    {
      "inputs": [],
      "name": "getIntegrationManager",
      "outputs": [
        {
          "internalType": "address",
          "name": "integrationManager_",
          "type": "address"
        }
      ],
      "stateMutability": "view",
      "type": "function"
    },
    {
      "inputs": [],
      "name": "getLiquidityGaugeToken",
      "outputs": [
        {
          "internalType": "address",
          "name": "liquidityGaugeToken_",
          "type": "address"
        }
      ],
      "stateMutability": "view",
      "type": "function"
    },
    {
      "inputs": [],
      "name": "getLpToken",
      "outputs": [
        {
          "internalType": "address",
          "name": "lpToken_",
          "type": "address"
        }
      ],
      "stateMutability": "view",
      "type": "function"
    },
    {
      "inputs": [],
      "name": "getStethToken",
      "outputs": [
        {
          "internalType": "address",
          "name": "stethToken_",
          "type": "address"
        }
      ],
      "stateMutability": "view",
      "type": "function"
    },
    {
      "inputs": [],
      "name": "getUniswapV2Router2",
      "outputs": [
        {
          "internalType": "address",
          "name": "router_",
          "type": "address"
        }
      ],
      "stateMutability": "view",
      "type": "function"
    },
    {
      "inputs": [],
      "name": "identifier",
      "outputs": [
        {
          "internalType": "string",
          "name": "identifier_",
          "type": "string"
        }
      ],
      "stateMutability": "pure",
      "type": "function"
    },
    {
      "inputs": [
        {
          "internalType": "address",
          "name": "_vaultProxy",
          "type": "address"
        },
        {
          "internalType": "bytes",
          "name": "_encodedCallArgs",
          "type": "bytes"
        },
        {
          "internalType": "bytes",
          "name": "_encodedAssetTransferArgs",
          "type": "bytes"
        }
      ],
      "name": "lend",
      "outputs": [],
      "stateMutability": "nonpayable",
      "type": "function"
    },
    {
      "inputs": [
        {
          "internalType": "address",
          "name": "_vaultProxy",
          "type": "address"
        },
        {
          "internalType": "bytes",
          "name": "_encodedCallArgs",
          "type": "bytes"
        },
        {
          "internalType": "bytes",
          "name": "_encodedAssetTransferArgs",
          "type": "bytes"
        }
      ],
      "name": "lendAndStake",
      "outputs": [],
      "stateMutability": "nonpayable",
      "type": "function"
    },
    {
      "inputs": [
        {
          "internalType": "bytes4",
          "name": "_selector",
          "type": "bytes4"
        },
        {
          "internalType": "bytes",
          "name": "_encodedCallArgs",
          "type": "bytes"
        }
      ],
      "name": "parseAssetsForMethod",
      "outputs": [
        {
          "internalType": "enum IIntegrationManager.SpendAssetsHandleType",
          "name": "spendAssetsHandleType_",
          "type": "uint8"
        },
        {
          "internalType": "address[]",
          "name": "spendAssets_",
          "type": "address[]"
        },
        {
          "internalType": "uint256[]",
          "name": "spendAssetAmounts_",
          "type": "uint256[]"
        },
        {
          "internalType": "address[]",
          "name": "incomingAssets_",
          "type": "address[]"
        },
        {
          "internalType": "uint256[]",
          "name": "minIncomingAssetAmounts_",
          "type": "uint256[]"
        }
      ],
      "stateMutability": "view",
      "type": "function"
    },
    {
      "inputs": [
        {
          "internalType": "address",
          "name": "_vaultProxy",
          "type": "address"
        },
        {
          "internalType": "bytes",
          "name": "_encodedCallArgs",
          "type": "bytes"
        },
        {
          "internalType": "bytes",
          "name": "_encodedAssetTransferArgs",
          "type": "bytes"
        }
      ],
      "name": "redeem",
      "outputs": [],
      "stateMutability": "nonpayable",
      "type": "function"
    },
    {
      "inputs": [
        {
          "internalType": "address",
          "name": "_vaultProxy",
          "type": "address"
        },
        {
          "internalType": "bytes",
          "name": "_encodedCallArgs",
          "type": "bytes"
        },
        {
          "internalType": "bytes",
          "name": "_encodedAssetTransferArgs",
          "type": "bytes"
        }
      ],
      "name": "stake",
      "outputs": [],
      "stateMutability": "nonpayable",
      "type": "function"
    },
    {
      "inputs": [
        {
          "internalType": "address",
          "name": "_vaultProxy",
          "type": "address"
        },
        {
          "internalType": "bytes",
          "name": "_encodedCallArgs",
          "type": "bytes"
        },
        {
          "internalType": "bytes",
          "name": "_encodedAssetTransferArgs",
          "type": "bytes"
        }
      ],
      "name": "unstake",
      "outputs": [],
      "stateMutability": "nonpayable",
      "type": "function"
    },
    {
      "inputs": [
        {
          "internalType": "address",
          "name": "_vaultProxy",
          "type": "address"
        },
        {
          "internalType": "bytes",
          "name": "_encodedCallArgs",
          "type": "bytes"
        },
        {
          "internalType": "bytes",
          "name": "_encodedAssetTransferArgs",
          "type": "bytes"
        }
      ],
      "name": "unstakeAndRedeem",
      "outputs": [],
      "stateMutability": "nonpayable",
      "type": "function"
    },
    {
      "stateMutability": "payable",
      "type": "receive"
    }
  ],
  "transactionHash": "0x0e2935d939fe2b78d859db0d3a1de9f8397cd40dc3434d7d45d488ed493d92ff",
  "args": [
    "0x4B37f5DCA5FB2D5548e9EcEe9f98d9Ac95f60774",
    "0x182B723a58739a9c974cFDB385ceaDb237453c28",
    "0x06325440D014e39736583c165C2963BA99fAf14E",
    "0xd061D61a4d941c39E5453435B6345Dc261C2fcE0",
    "0xDC24316b9AE028F1497c275EB9192a3Ea0f67022",
    "0xd533a949740bb3306d119cc777fa900ba034cd52",
    "0xae7ab96520de3a18e5e111b5eaab095312d7fe84",
    "0xc02aaa39b223fe8d0a0e5c4f27ead9083c756cc2",
    "0x7a250d5630B4cF539739dF2C5dAcb4c659F2488D"
  ],
  "linkedData": {
    "type": "ADAPTER"
  },
  "solcInputHash": "34b1516e615d6cbcdbaf9542624efee9",
  "bytecode": "0x6101c06040523480156200001257600080fd5b50604051620054043803806200540483398181016040526101208110156200003957600080fd5b508051602080830151604084015160608086015160808088015160a0808a015160c0808c015160e0808e01516101009e8f01516001600160601b03198f8c1b811690995242909652848a1b881690935287891b8716905284881b8616909c529586901b9093166101205297989597949692959094919390929091908190869085908590620000e1906001600160a01b0384169085906000199062001fa162000147821b17901c565b505050606090811b6001600160601b03199081166101405289821b81166101605288821b8116610180529084901b166101a052620001386001600160a01b0388168960001962000147602090811b62001fa117901c565b5050505050505050506200055a565b801580620001d1575060408051636eb1769f60e11b81523060048201526001600160a01b03848116602483015291519185169163dd62ed3e91604480820192602092909190829003018186803b158015620001a157600080fd5b505afa158015620001b6573d6000803e3d6000fd5b505050506040513d6020811015620001cd57600080fd5b5051155b6200020e5760405162461bcd60e51b8152600401808060200182810382526036815260200180620053ce6036913960400191505060405180910390fd5b604080516001600160a01b038416602482015260448082018490528251808303909101815260649091019091526020810180516001600160e01b0390811663095ea7b360e01b17909152620002669185916200026b16565b505050565b6060620002c7826040518060400160405280602081526020017f5361666545524332303a206c6f772d6c6576656c2063616c6c206661696c6564815250856001600160a01b03166200032760201b620020b9179092919060201c565b8051909150156200026657808060200190516020811015620002e857600080fd5b5051620002665760405162461bcd60e51b815260040180806020018281038252602a815260200180620053a4602a913960400191505060405180910390fd5b606062000338848460008562000342565b90505b9392505050565b606082471015620003855760405162461bcd60e51b81526004018080602001828103825260268152602001806200537e6026913960400191505060405180910390fd5b6200039085620004aa565b620003e2576040805162461bcd60e51b815260206004820152601d60248201527f416464726573733a2063616c6c20746f206e6f6e2d636f6e7472616374000000604482015290519081900360640190fd5b60006060866001600160a01b031685876040518082805190602001908083835b60208310620004235780518252601f19909201916020918201910162000402565b6001836020036101000a03801982511681845116808217855250505050505090500191505060006040518083038185875af1925050503d806000811462000487576040519150601f19603f3d011682016040523d82523d6000602084013e6200048c565b606091505b5090925090506200049f828286620004b0565b979650505050505050565b3b151590565b60608315620004c15750816200033b565b825115620004d25782518084602001fd5b8160405162461bcd60e51b81526004018080602001828103825283818151815260200191508051906020019080838360005b838110156200051e57818101518382015260200162000504565b50505050905090810190601f1680156200054c5780820380516001836020036101000a031916815260200191505b509250505060405180910390fd5b60805160601c60a05160c05160601c60e05160601c6101005160601c6101205160601c6101405160601c6101605160601c6101805160601c6101a05160601c614cac620006d26000398061190a5280613f7752806140b652806141c8528061431c5250806112dd52806112fe52806117935280611d045280611d255280611f575280612d025280612eb75280612fc152806131f752508061115852806112bc5280611535528061158c52806118a452806119e05280611c095280611ce35280611f34528061292a5280612adc5280612e1252806130605280613158528061329c525080611afd5280613ae75280613b0e525080611433528061210e52806133d152806135de525080611080528061218d5280613313528061346952806134e5525080611e0e528061364552508061139c5280613e7e52508061192e525080610f4c52806110ad52806111d0528061148452806117c0528061197f5280611a105280611b2a5280611dea5280611e835250614cac6000f3fe6080604052600436106102085760003560e01c80637998a1c411610118578063d1ded408116100a0578063e7c456901161006f578063e7c4569014610dee578063f003eb8514610e03578063f075399414610e18578063f7d882b514610e2d578063fa7dd04d14610e425761020f565b8063d1ded40814610cd4578063dfd5ee0f14610ce9578063e27a06b514610dc4578063e4d9047814610dd95761020f565b806391199f0f116100e757806391199f0f14610acd578063a96de76b14610ae2578063b23228cf14610b09578063b9dfbacc14610b1e578063c29fa9dd14610bf95761020f565b80637998a1c41461093e5780638214f5a4146109c85780638334eb99146109dd578063863e5ad014610ab85761020f565b80633377e18a1161019b57806355e72cc51161016a57806355e72cc5146106635780635ca62b3c1461067857806368e306771461068d5780637240b2251461076857806376cc7ac61461077d5761020f565b80633377e18a146105495780633ffc15911461062457806340da225d1461063957806340f8cfcf1461064e5761020f565b80631d51f49b116101d75780631d51f49b14610369578063257cb1a31461044457806329fa046e14610459578063332d709f146105345761020f565b8063080456c114610214578063099f751514610246578063131461c0146103235780631c76b691146103385761020f565b3661020f57005b600080fd5b34801561022057600080fd5b50610229610f1d565b604080516001600160e01b03199092168252519081900360200190f35b34801561025257600080fd5b506103216004803603606081101561026957600080fd5b6001600160a01b038235169190810190604081016020820135600160201b81111561029357600080fd5b8201836020820111156102a557600080fd5b803590602001918460018302840111600160201b831117156102c657600080fd5b919390929091602081019035600160201b8111156102e357600080fd5b8201836020820111156102f557600080fd5b803590602001918460018302840111600160201b8311171561031657600080fd5b509092509050610f41565b005b34801561032f57600080fd5b5061022961105a565b34801561034457600080fd5b5061034d61107e565b604080516001600160a01b039092168252519081900360200190f35b34801561037557600080fd5b506103216004803603606081101561038c57600080fd5b6001600160a01b038235169190810190604081016020820135600160201b8111156103b657600080fd5b8201836020820111156103c857600080fd5b803590602001918460018302840111600160201b831117156103e957600080fd5b919390929091602081019035600160201b81111561040657600080fd5b82018360208201111561041857600080fd5b803590602001918460018302840111600160201b8311171561043957600080fd5b5090925090506110a2565b34801561045057600080fd5b506102296111a1565b34801561046557600080fd5b506103216004803603606081101561047c57600080fd5b6001600160a01b038235169190810190604081016020820135600160201b8111156104a657600080fd5b8201836020820111156104b857600080fd5b803590602001918460018302840111600160201b831117156104d957600080fd5b919390929091602081019035600160201b8111156104f657600080fd5b82018360208201111561050857600080fd5b803590602001918460018302840111600160201b8311171561052957600080fd5b5090925090506111c5565b34801561054057600080fd5b5061034d61139a565b34801561055557600080fd5b506103216004803603606081101561056c57600080fd5b6001600160a01b038235169190810190604081016020820135600160201b81111561059657600080fd5b8201836020820111156105a857600080fd5b803590602001918460018302840111600160201b831117156105c957600080fd5b919390929091602081019035600160201b8111156105e657600080fd5b8201836020820111156105f857600080fd5b803590602001918460018302840111600160201b8311171561061957600080fd5b5090925090506113be565b34801561063057600080fd5b506102296113c5565b34801561064557600080fd5b506102296113e9565b34801561065a57600080fd5b5061022961140d565b34801561066f57600080fd5b5061034d611431565b34801561068457600080fd5b50610229611455565b34801561069957600080fd5b50610321600480360360608110156106b057600080fd5b6001600160a01b038235169190810190604081016020820135600160201b8111156106da57600080fd5b8201836020820111156106ec57600080fd5b803590602001918460018302840111600160201b8311171561070d57600080fd5b919390929091602081019035600160201b81111561072a57600080fd5b82018360208201111561073c57600080fd5b803590602001918460018302840111600160201b8311171561075d57600080fd5b509092509050611479565b34801561077457600080fd5b5061034d61158a565b34801561078957600080fd5b50610809600480360360408110156107a057600080fd5b6001600160e01b03198235169190810190604081016020820135600160201b8111156107cb57600080fd5b8201836020820111156107dd57600080fd5b803590602001918460018302840111600160201b831117156107fe57600080fd5b5090925090506115ae565b6040518086600381111561081957fe5b815260200180602001806020018060200180602001858103855289818151815260200191508051906020019060200280838360005b8381101561086657818101518382015260200161084e565b50505050905001858103845288818151815260200191508051906020019060200280838360005b838110156108a557818101518382015260200161088d565b50505050905001858103835287818151815260200191508051906020019060200280838360005b838110156108e45781810151838201526020016108cc565b50505050905001858103825286818151815260200191508051906020019060200280838360005b8381101561092357818101518382015260200161090b565b50505050905001995050505050505050505060405180910390f35b34801561094a57600080fd5b50610953611762565b6040805160208082528351818301528351919283929083019185019080838360005b8381101561098d578181015183820152602001610975565b50505050905090810190601f1680156109ba5780820380516001836020036101000a031916815260200191505b509250505060405180910390f35b3480156109d457600080fd5b5061034d611791565b3480156109e957600080fd5b5061032160048036036060811015610a0057600080fd5b6001600160a01b038235169190810190604081016020820135600160201b811115610a2a57600080fd5b820183602082011115610a3c57600080fd5b803590602001918460018302840111600160201b83111715610a5d57600080fd5b919390929091602081019035600160201b811115610a7a57600080fd5b820183602082011115610a8c57600080fd5b803590602001918460018302840111600160201b83111715610aad57600080fd5b5090925090506117b5565b348015610ac457600080fd5b506102296118e4565b348015610ad957600080fd5b5061034d611908565b348015610aee57600080fd5b50610af761192c565b60408051918252519081900360200190f35b348015610b1557600080fd5b50610229611950565b348015610b2a57600080fd5b5061032160048036036060811015610b4157600080fd5b6001600160a01b038235169190810190604081016020820135600160201b811115610b6b57600080fd5b820183602082011115610b7d57600080fd5b803590602001918460018302840111600160201b83111715610b9e57600080fd5b919390929091602081019035600160201b811115610bbb57600080fd5b820183602082011115610bcd57600080fd5b803590602001918460018302840111600160201b83111715610bee57600080fd5b509092509050611974565b348015610c0557600080fd5b5061032160048036036060811015610c1c57600080fd5b6001600160a01b038235169190810190604081016020820135600160201b811115610c4657600080fd5b820183602082011115610c5857600080fd5b803590602001918460018302840111600160201b83111715610c7957600080fd5b919390929091602081019035600160201b811115610c9657600080fd5b820183602082011115610ca857600080fd5b803590602001918460018302840111600160201b83111715610cc957600080fd5b509092509050611a05565b348015610ce057600080fd5b5061034d611afb565b348015610cf557600080fd5b5061032160048036036060811015610d0c57600080fd5b6001600160a01b038235169190810190604081016020820135600160201b811115610d3657600080fd5b820183602082011115610d4857600080fd5b803590602001918460018302840111600160201b83111715610d6957600080fd5b919390929091602081019035600160201b811115610d8657600080fd5b820183602082011115610d9857600080fd5b803590602001918460018302840111600160201b83111715610db957600080fd5b509092509050611b1f565b348015610dd057600080fd5b50610229611da0565b348015610de557600080fd5b50610229611dc4565b348015610dfa57600080fd5b5061034d611de8565b348015610e0f57600080fd5b5061034d611e0c565b348015610e2457600080fd5b50610229611e30565b348015610e3957600080fd5b50610229611e54565b348015610e4e57600080fd5b5061032160048036036060811015610e6557600080fd5b6001600160a01b038235169190810190604081016020820135600160201b811115610e8f57600080fd5b820183602082011115610ea157600080fd5b803590602001918460018302840111600160201b83111715610ec257600080fd5b919390929091602081019035600160201b811115610edf57600080fd5b820183602082011115610ef157600080fd5b803590602001918460018302840111600160201b83111715610f1257600080fd5b509092509050611e78565b7f8334eb99be0145865eba9889fca2ee920288090caefff4cc776038e20ad9259a81565b336001600160a01b037f00000000000000000000000000000000000000000000000000000000000000001614610fa85760405162461bcd60e51b8152600401808060200182810382526032815260200180614b526032913960400191505060405180910390fd5b8482828080601f0160208091040260200160405190810160405280939291908181526020018383808284376000920182905250604080516020601f8c018190048102820181019092528a815291945084935083925061102291908b908b90819084018382808284376000920191909152506120d292505050565b925092509250611033838383612106565b50505060606110418261225d565b93505050506110508382612425565b5050505050505050565b7f29fa046e79524c3c5ac4c01df692c35e217802b2b13b21121b76cf0ef02b138c81565b7f000000000000000000000000000000000000000000000000000000000000000090565b336001600160a01b037f000000000000000000000000000000000000000000000000000000000000000016146111095760405162461bcd60e51b8152600401808060200182810382526032815260200180614b526032913960400191505060405180910390fd5b60008061114b86868080601f0160208091040260200160405190810160405280939291908181526020018383808284376000920191909152506120d292505050565b509150915060608061117e7f00000000000000000000000000000000000000000000000000000000000000008a86612501565b9150915061119689838386611191611431565b612534565b505050505050505050565b7f099f75155f0e997bf83a7993a71d5e7e7540bd386fe1e84643a09ce6b412521981565b336001600160a01b037f0000000000000000000000000000000000000000000000000000000000000000161461122c5760405162461bcd60e51b8152600401808060200182810382526032815260200180614b526032913960400191505060405180910390fd5b8482828080601f0160208091040260200160405190810160405280939291908181526020018383808284376000920182905250604080516020601f8c018190048102820181019092528a81529194508493508392506112a691908b908b90819084018382808284376000920191909152506120d292505050565b9250925092506112b7838383612106565b6110337f00000000000000000000000000000000000000000000000000000000000000007f00000000000000000000000000000000000000000000000000000000000000007f00000000000000000000000000000000000000000000000000000000000000006001600160a01b03166370a08231306040518263ffffffff1660e01b815260040180826001600160a01b0316815260200191505060206040518083038186803b15801561136957600080fd5b505afa15801561137d573d6000803e3d6000fd5b505050506040513d602081101561139357600080fd5b50516127a8565b7f000000000000000000000000000000000000000000000000000000000000000090565b5050505050565b7ffa7dd04da627f433da73c4355ead9c75682a67a8fc84d3f6170ef0922f402d2481565b7fb9dfbaccbe5cd2a84fdcf1d15f23ef25d23086f5afbaa99516065ed4a5bbc7a381565b7ff658eb804cc1da8af5599b584aaf3d55407a3c721c42641a6a5270e963d782c381565b7f000000000000000000000000000000000000000000000000000000000000000090565b7fdfd5ee0f6067928bf85a7c4430811282840bc99332dda3dab462c02bf95b67cc81565b336001600160a01b037f000000000000000000000000000000000000000000000000000000000000000016146114e05760405162461bcd60e51b8152600401808060200182810382526032815260200180614b526032913960400191505060405180910390fd5b8482828080601f01602080910402602001604051908101604052809392919081815260200183838082843760009201919091525050604080516020601f8a0181900481028201810190925288815261157f93507f0000000000000000000000000000000000000000000000000000000000000000925061157a918a908a908190840183828082843760009201919091525061281592505050565b612834565b60606110418261225d565b7f000000000000000000000000000000000000000000000000000000000000000090565b600060608080806001600160e01b031988166319bbf0c560e11b14156115e7576115d88787612896565b94509450945094509450611757565b6001600160e01b03198816632e77eeb360e21b1415611608576115d8612a0c565b6001600160e01b0319881663dfd5ee0f60e01b141561162b576115d88787612a6c565b6001600160e01b03198816631d51f49b60e01b141561164e576115d88787612b83565b6001600160e01b0319881663099f751560e01b1415611671576115d88787612c7f565b6001600160e01b031988166314fd023760e11b1415611694576115d88787612d8f565b6001600160e01b0319881663c29fa9dd60e01b14156116b7576115d88787612e3e565b6001600160e01b0319881663fa7dd04d60e01b14156116da576115d88787612f54565b6001600160e01b031988166368e3067760e01b14156116fd576115d887876130eb565b6001600160e01b03198816638334eb9960e01b1415611720576115d88787613223565b60405162461bcd60e51b8152600401808060200182810382526027815260200180614b056027913960400191505060405180910390fd5b939792965093509350565b604080518082019091526015815274086aaa4ac8abe9892a2aa928892a8b2bea6a88aa89605b1b602082015290565b7f000000000000000000000000000000000000000000000000000000000000000090565b336001600160a01b037f0000000000000000000000000000000000000000000000000000000000000000161461181c5760405162461bcd60e51b8152600401808060200182810382526032815260200180614b526032913960400191505060405180910390fd5b8482828080601f0160208091040260200160405190810160405280939291908181526020018383808284376000920182905250604080516020601f8c018190048102820181019092528a81529194508493508392508291611897918c908c90819084018382808284376000920191909152506132c892505050565b93509350935093506118c97f000000000000000000000000000000000000000000000000000000000000000085612834565b6118d584848484613305565b5050505060606110418261225d565b7f03e38a2bd7063d45c897edeafc330e71657502dd86434d3c37a489caf116af6981565b7f000000000000000000000000000000000000000000000000000000000000000090565b7f000000000000000000000000000000000000000000000000000000000000000090565b7f68e30677f607df46e87da13e15b637784cfa62374b653f35ab43d10361a2f83081565b336001600160a01b037f000000000000000000000000000000000000000000000000000000000000000016146119db5760405162461bcd60e51b8152600401808060200182810382526032815260200180614b526032913960400191505060405180910390fd5b6113be7f000000000000000000000000000000000000000000000000000000000000000086613643565b336001600160a01b037f00000000000000000000000000000000000000000000000000000000000000001614611a6c5760405162461bcd60e51b8152600401808060200182810382526032815260200180614b526032913960400191505060405180910390fd5b8482828080601f0160208091040260200160405190810160405280939291908181526020018383808284376000920182905250604080516020601f8c018190048102820181019092528a81529194508493508392508291611ae7918c908c90819084018382808284376000920191909152506132c892505050565b93509350935093506118d584848484613305565b7f000000000000000000000000000000000000000000000000000000000000000090565b336001600160a01b037f00000000000000000000000000000000000000000000000000000000000000001614611b865760405162461bcd60e51b8152600401808060200182810382526032815260200180614b526032913960400191505060405180910390fd5b8482828080601f0160208091040260200160405190810160405280939291908181526020018383808284376000920182905250604080516020601f8c018190048102820181019092528a8152919450849350611bfd92508a908a90819084018382808284376000920191909152506136e992505050565b91509150606080611c2f7f00000000000000000000000000000000000000000000000000000000000000008c86612501565b91509150611c48308383611c41611431565b6000612534565b6000611c52611431565b6001600160a01b03166370a08231306040518263ffffffff1660e01b815260040180826001600160a01b0316815260200191505060206040518083038186803b158015611c9e57600080fd5b505afa158015611cb2573d6000803e3d6000fd5b505050506040513d6020811015611cc857600080fd5b505190508015611d9057611cde81600086612106565b611d907f00000000000000000000000000000000000000000000000000000000000000007f00000000000000000000000000000000000000000000000000000000000000007f00000000000000000000000000000000000000000000000000000000000000006001600160a01b03166370a08231306040518263ffffffff1660e01b815260040180826001600160a01b0316815260200191505060206040518083038186803b15801561136957600080fd5b505050505060606110418261225d565b7f848f3a590fb2f9795d1a275009c54c26c53833277c96b90e0ddd01753a1d590681565b7f3377e18acf9e83665eacd6af109261424fca32a298e2fc2e6095ba563fb8390e81565b7f000000000000000000000000000000000000000000000000000000000000000090565b7f000000000000000000000000000000000000000000000000000000000000000090565b7f1d51f49b5273d9ddbb643dc349fab8d36dbb470209c2ea71033bea49dd311c2781565b7fc29fa9dde84204c2908778afd0613d802d31cf046179b88f6d2b4a4e507ea2d581565b336001600160a01b037f00000000000000000000000000000000000000000000000000000000000000001614611edf5760405162461bcd60e51b8152600401808060200182810382526032815260200180614b526032913960400191505060405180910390fd5b8482828080601f01602080910402602001604051908101604052809392919081815260200183838082843760009201919091525050604080516020601f8a0181900481028201810190925288815261157f93507f000000000000000000000000000000000000000000000000000000000000000092507f000000000000000000000000000000000000000000000000000000000000000091611f9c91908b908b908190840183828082843760009201919091525061281592505050565b6127a8565b801580612027575060408051636eb1769f60e11b81523060048201526001600160a01b03848116602483015291519185169163dd62ed3e91604480820192602092909190829003018186803b158015611ff957600080fd5b505afa15801561200d573d6000803e3d6000fd5b505050506040513d602081101561202357600080fd5b5051155b6120625760405162461bcd60e51b8152600401808060200182810382526036815260200180614c416036913960400191505060405180910390fd5b604080516001600160a01b038416602482015260448082018490528251808303909101815260649091019091526020810180516001600160e01b031663095ea7b360e01b1790526120b4908490613714565b505050565b60606120c884846000856137c5565b90505b9392505050565b60008060008380602001905160608110156120ec57600080fd5b508051602082015160409092015190969195509350915050565b821561218b577f00000000000000000000000000000000000000000000000000000000000000006001600160a01b0316632e1a7d4d846040518263ffffffff1660e01b815260040180828152602001915050600060405180830381600087803b15801561217257600080fd5b505af1158015612186573d6000803e3d6000fd5b505050505b7f00000000000000000000000000000000000000000000000000000000000000006001600160a01b0316630b4c7e4d84604051806040016040528087815260200186815250846040518463ffffffff1660e01b81526004018083600260200280838360005b838110156122085781810151838201526020016121f0565b50505050905001828152602001925050506020604051808303818588803b15801561223257600080fd5b505af1158015612246573d6000803e3d6000fd5b50505050506040513d60208110156113be57600080fd5b6000606080606084806020019051608081101561227957600080fd5b815160208301805160405192949293830192919084600160201b82111561229f57600080fd5b9083019060208201858111156122b457600080fd5b82518660208202830111600160201b821117156122d057600080fd5b82525081516020918201928201910280838360005b838110156122fd5781810151838201526020016122e5565b5050505090500160405260200180516040519392919084600160201b82111561232557600080fd5b90830190602082018581111561233a57600080fd5b82518660208202830111600160201b8211171561235657600080fd5b82525081516020918201928201910280838360005b8381101561238357818101518382015260200161236b565b5050505090500160405260200180516040519392919084600160201b8211156123ab57600080fd5b9083019060208201858111156123c057600080fd5b82518660208202830111600160201b821117156123dc57600080fd5b82525081516020918201928201910280838360005b838110156124095781810151838201526020016123f1565b5050505090500160405250505093509350935093509193509193565b60005b81518110156120b457600082828151811061243f57fe5b60200260200101516001600160a01b03166370a08231306040518263ffffffff1660e01b815260040180826001600160a01b0316815260200191505060206040518083038186803b15801561249357600080fd5b505afa1580156124a7573d6000803e3d6000fd5b505050506040513d60208110156124bd57600080fd5b5051905080156124f8576124f884828585815181106124d857fe5b60200260200101516001600160a01b03166139219092919063ffffffff16565b50600101612428565b606080821561251d576125148585613973565b9150915061252c565b612527858561399f565b915091505b935093915050565b60006001600160a01b038216158061255d5750826001600160a01b0316826001600160a01b0316145b905060005b855181101561279f5784818151811061257757fe5b6020026020010151600014806125b2575060006001600160a01b031686828151811061259f57fe5b60200260200101516001600160a01b0316145b806125e15750836001600160a01b03168682815181106125ce57fe5b60200260200101516001600160a01b0316145b156125eb57612797565b6060828061261d5750836001600160a01b031687838151811061260a57fe5b60200260200101516001600160a01b0316145b156126b657604080516002808252606082018352909160208301908036833701905050905086828151811061264e57fe5b60200260200101518160008151811061266357fe5b60200260200101906001600160a01b031690816001600160a01b031681525050848160018151811061269157fe5b60200260200101906001600160a01b031690816001600160a01b031681525050612775565b6040805160038082526080820190925290602082016060803683370190505090508682815181106126e357fe5b6020026020010151816000815181106126f857fe5b60200260200101906001600160a01b031690816001600160a01b031681525050838160018151811061272657fe5b60200260200101906001600160a01b031690816001600160a01b031681525050848160028151811061275457fe5b60200260200101906001600160a01b031690816001600160a01b0316815250505b6127958887848151811061278557fe5b6020026020010151600184613acd565b505b600101612562565b50505050505050565b6127b3828483613cae565b60408051636e553f6560e01b81526004810183905230602482015290516001600160a01b03851691636e553f6591604480830192600092919082900301818387803b15801561280157600080fd5b505af115801561279f573d6000803e3d6000fd5b600081806020019051602081101561282c57600080fd5b505192915050565b816001600160a01b0316632e1a7d4d826040518263ffffffff1660e01b815260040180828152602001915050600060405180830381600087803b15801561287a57600080fd5b505af115801561288e573d6000803e3d6000fd5b505050505050565b60006060806060806128dd87878080601f016020809104026020016040519081016040528093929190818152602001838380828437600092019190915250613d4692505050565b80518251929650909450146129235760405162461bcd60e51b815260040180806020018281038252602d815260200180614aa5602d913960400191505060405180910390fd5b606061294e7f0000000000000000000000000000000000000000000000000000000000000000613e77565b905060005b85518110156129e157600085828151811061296a57fe5b602002602001015111156129d95761299e86828151811061298757fe5b602002602001015183613eb290919063ffffffff16565b6129d95760405162461bcd60e51b8152600401808060200182810382526033815260200180614ad26033913960400191505060405180910390fd5b600101612953565b5050604080516000808252602082019081528183019092526001999598509396509294509192915050565b600060608080808480604051908082528060200260200182016040528015612a3e578160200160208202803683370190505b5060408051600080825260208201818152828401918252606083019093529399929850965094509092509050565b60006060806060806000612ab588888080601f0160208091040260200160405190810160405280939291908181526020018383808284376000920191909152506136e992505050565b604080516001808252818301909252919350909150602080830190803683370190505092507f000000000000000000000000000000000000000000000000000000000000000083600081518110612b0857fe5b6001600160a01b03929092166020928302919091018201526040805160018082528183019092529182810190803683370190505091508082600081518110612b4c57fe5b602090810291909101810191909152604080516000808252928101838152818301909252919a919950975092955090935090915050565b6000606080606080600080612bcd89898080601f0160208091040260200160405190810160405280939291908181526020018383808284376000920191909152506120d292505050565b604080516001808252818301909252929550909350909150602080830190803683370190505093508184600081518110612c0357fe5b6001600160a01b03929092166020928302919091018201526040805160018082528183019092529182810190803683370190505092508083600081518110612c4757fe5b602090810291909101810191909152604080516000808252928101838152818301909252919b919a5098509396509194509192505050565b60006060806060806000806000612ccb8a8a8080601f0160208091040260200160405190810160405280939291908181526020018383808284376000920191909152506120d292505050565b925092509250612cdb8383613f08565b604080516001808252818301909252929950909750602080830190803683370190505094507f000000000000000000000000000000000000000000000000000000000000000085600081518110612d2e57fe5b6001600160a01b03929092166020928302919091018201526040805160018082528183019092529182810190803683370190505093508084600081518110612d7257fe5b602002602001018181525050600297505050509295509295909350565b60006060806060806000806000612ddb8a8a8080601f0160208091040260200160405190810160405280939291908181526020018383808284376000920191909152506120d292505050565b925092509250612deb8383613f08565b604080516001808252818301909252929950909750602080830190803683370190505094507f000000000000000000000000000000000000000000000000000000000000000085600081518110612d2e57fe5b6000606080606080600080600080612e8b8b8b8080601f0160208091040260200160405190810160405280939291908181526020018383808284376000920191909152506132c892505050565b6040805160018082528183019092529498509296509094509250602080830190803683370190505097507f000000000000000000000000000000000000000000000000000000000000000088600081518110612ee357fe5b6001600160a01b03929092166020928302919091018201526040805160018082528183019092529182810190803683370190505096508387600081518110612f2757fe5b602002602001018181525050612f3e838383614139565b60029d999c50979a509850959695505050505050565b60006060806060806000612f9d88888080601f01602080910402602001604051908101604052809392919081815260200183838082843760009201919091525061281592505050565b604080516001808252818301909252919250602080830190803683370190505094507f000000000000000000000000000000000000000000000000000000000000000085600081518110612fed57fe5b6001600160a01b0392909216602092830291909101820152604080516001808252818301909252918281019080368337019050509350808460008151811061303157fe5b6020908102919091010152604080516001808252818301909252908160200160208202803683370190505092507f00000000000000000000000000000000000000000000000000000000000000008360008151811061308c57fe5b6001600160a01b039290921660209283029190910182015260408051600180825281830190925291828101908036833701905050915080826000815181106130d057fe5b60200260200101818152505060029550509295509295909350565b6000606080606080600061313488888080601f01602080910402602001604051908101604052809392919081815260200183838082843760009201919091525061281592505050565b604080516001808252818301909252919250602080830190803683370190505094507f00000000000000000000000000000000000000000000000000000000000000008560008151811061318457fe5b6001600160a01b039290921660209283029190910182015260408051600180825281830190925291828101908036833701905050935080846000815181106131c857fe5b6020908102919091010152604080516001808252818301909252908160200160208202803683370190505092507f00000000000000000000000000000000000000000000000000000000000000008360008151811061308c57fe5b60006060806060806000806000806132708b8b8080601f0160208091040260200160405190810160405280939291908181526020018383808284376000920191909152506132c892505050565b6040805160018082528183019092529498509296509094509250602080830190803683370190505097507f000000000000000000000000000000000000000000000000000000000000000088600081518110612ee357fe5b6000806000808480602001905160808110156132e357600080fd5b5080516020820151604083015160609093015191989097509195509350915050565b80156134e357821561343a577f00000000000000000000000000000000000000000000000000000000000000006001600160a01b0316631a4d01d2856000866040518463ffffffff1660e01b81526004018084815260200183600f0b81526020018281526020019350505050602060405180830381600087803b15801561338b57600080fd5b505af115801561339f573d6000803e3d6000fd5b505050506040513d60208110156133b557600080fd5b505060408051630d0e30db60e41b815290516001600160a01b037f0000000000000000000000000000000000000000000000000000000000000000169163d0e30db09130319160048082019260009290919082900301818588803b15801561341c57600080fd5b505af1158015613430573d6000803e3d6000fd5b50505050506134de565b60408051630d2680e960e11b815260048101869052600160248201526044810184905290516001600160a01b037f00000000000000000000000000000000000000000000000000000000000000001691631a4d01d29160648083019260209291908290030181600087803b1580156134b157600080fd5b505af11580156134c5573d6000803e3d6000fd5b505050506040513d60208110156134db57600080fd5b50505b61363d565b7f00000000000000000000000000000000000000000000000000000000000000006001600160a01b0316635b36389c856040518060400160405280878152602001868152506040518363ffffffff1660e01b81526004018083815260200182600260200280838360005b8381101561356557818101518382015260200161354d565b50505050905001925050506040805180830381600087803b15801561358957600080fd5b505af115801561359d573d6000803e3d6000fd5b505050506040513d601f19601f8201168201806040525060408110156135c257600080fd5b505060408051630d0e30db60e41b815290516001600160a01b037f0000000000000000000000000000000000000000000000000000000000000000169163d0e30db09130319160048082019260009290919082900301818588803b15801561362957600080fd5b505af1158015611196573d6000803e3d6000fd5b50505050565b7f00000000000000000000000000000000000000000000000000000000000000006001600160a01b03166327f18ae383836040518363ffffffff1660e01b815260040180836001600160a01b03168152602001826001600160a01b0316815260200192505050600060405180830381600087803b1580156136c357600080fd5b505af11580156136d7573d6000803e3d6000fd5b505050506136e582826143bd565b5050565b60008082806020019051604081101561370157600080fd5b5080516020909101519092509050915091565b6060613769826040518060400160405280602081526020017f5361666545524332303a206c6f772d6c6576656c2063616c6c206661696c6564815250856001600160a01b03166120b99092919063ffffffff16565b8051909150156120b45780806020019051602081101561378857600080fd5b50516120b45760405162461bcd60e51b815260040180806020018281038252602a815260200180614c17602a913960400191505060405180910390fd5b6060824710156138065760405162461bcd60e51b8152600401808060200182810382526026815260200180614b2c6026913960400191505060405180910390fd5b61380f8561440c565b613860576040805162461bcd60e51b815260206004820152601d60248201527f416464726573733a2063616c6c20746f206e6f6e2d636f6e7472616374000000604482015290519081900360640190fd5b60006060866001600160a01b031685876040518082805190602001908083835b6020831061389f5780518252601f199092019160209182019101613880565b6001836020036101000a03801982511681845116808217855250505050505090500191505060006040518083038185875af1925050503d8060008114613901576040519150601f19603f3d011682016040523d82523d6000602084013e613906565b606091505b5091509150613916828286614412565b979650505050505050565b604080516001600160a01b038416602482015260448082018490528251808303909101815260649091019091526020810180516001600160e01b031663a9059cbb60e01b1790526120b4908490613714565b6060806139808484613643565b61398984613e77565b915061399583836144b6565b90505b9250929050565b6060806139ab84613e77565b91506060825167ffffffffffffffff811180156139c757600080fd5b506040519080825280602002602001820160405280156139f1578160200160208202803683370190505b50905060005b8351811015613aad57838181518110613a0c57fe5b60200260200101516001600160a01b03166370a08231866040518263ffffffff1660e01b815260040180826001600160a01b0316815260200191505060206040518083038186803b158015613a6057600080fd5b505afa158015613a74573d6000803e3d6000fd5b505050506040513d6020811015613a8a57600080fd5b50518251839083908110613a9a57fe5b60209081029190910101526001016139f7565b50613ab88585613643565b613ac3848483614613565b9150509250929050565b613b0c81600081518110613add57fe5b60200260200101517f000000000000000000000000000000000000000000000000000000000000000085613cae565b7f00000000000000000000000000000000000000000000000000000000000000006001600160a01b03166338ed173984848488613b4761476a565b6040518663ffffffff1660e01b81526004018086815260200185815260200180602001846001600160a01b03168152602001838152602001828103825285818151815260200191508051906020019060200280838360005b83811015613bb7578181015183820152602001613b9f565b505050509050019650505050505050600060405180830381600087803b158015613be057600080fd5b505af1158015613bf4573d6000803e3d6000fd5b505050506040513d6000823e601f3d908101601f191682016040526020811015613c1d57600080fd5b8101908080516040519392919084600160201b821115613c3c57600080fd5b908301906020820185811115613c5157600080fd5b82518660208202830111600160201b82111715613c6d57600080fd5b82525081516020918201928201910280838360005b83811015613c9a578181015183820152602001613c82565b505050509050016040525050505050505050565b60408051636eb1769f60e11b81523060048201526001600160a01b0384811660248301529151839286169163dd62ed3e916044808301926020929190829003018186803b158015613cfe57600080fd5b505afa158015613d12573d6000803e3d6000fd5b505050506040513d6020811015613d2857600080fd5b505110156120b4576120b46001600160a01b03841683600019611fa1565b606080828060200190516040811015613d5e57600080fd5b8101908080516040519392919084600160201b821115613d7d57600080fd5b908301906020820185811115613d9257600080fd5b82518660208202830111600160201b82111715613dae57600080fd5b82525081516020918201928201910280838360005b83811015613ddb578181015183820152602001613dc3565b5050505090500160405260200180516040519392919084600160201b821115613e0357600080fd5b908301906020820185811115613e1857600080fd5b82518660208202830111600160201b82111715613e3457600080fd5b82525081516020918201928201910280838360005b83811015613e61578181015183820152602001613e49565b5050505090500160405250505091509150915091565b6060613eac7f0000000000000000000000000000000000000000000000000000000000000000613ea684614771565b90614900565b92915050565b6000805b8351811015613efe57838181518110613ecb57fe5b60200260200101516001600160a01b0316836001600160a01b03161415613ef6576001915050613eac565b600101613eb6565b5060009392505050565b606080600084118015613f1b5750600083115b15614015576040805160028082526060820183529091602083019080368337019050509150613f48611431565b82600081518110613f5557fe5b60200260200101906001600160a01b031690816001600160a01b0316815250507f000000000000000000000000000000000000000000000000000000000000000082600181518110613fa357fe5b6001600160a01b03929092166020928302919091018201526040805160028082526060820183529092909190830190803683370190505090508381600081518110613fea57fe5b602002602001018181525050828160018151811061400457fe5b602002602001018181525050613998565b8315614094576040805160018082528183019092529060208083019080368337019050509150614043611431565b8260008151811061405057fe5b6001600160a01b0392909216602092830291909101820152604080516001808252818301909252918281019080368337019050509050838160008151811061400457fe5b60408051600180825281830190925290602080830190803683370190505091507f0000000000000000000000000000000000000000000000000000000000000000826000815181106140e257fe5b6001600160a01b0392909216602092830291909101820152604080516001808252818301909252918281019080368337019050509050828160008151811061412657fe5b6020026020010181815250509250929050565b60608082156142c557604080516001808252818301909252906020808301908036833750506040805160018082528183019092529294509050602080830190803683370190505090508461423357600084116141c65760405162461bcd60e51b8152600401808060200182810382526046815260200180614bd16046913960600191505060405180910390fd5b7f0000000000000000000000000000000000000000000000000000000000000000826000815181106141f457fe5b60200260200101906001600160a01b031690816001600160a01b031681525050838160008151811061422257fe5b6020026020010181815250506142c0565b83156142705760405162461bcd60e51b815260040180806020018281038252604d815260200180614b84604d913960600191505060405180910390fd5b614278611431565b8260008151811061428557fe5b60200260200101906001600160a01b031690816001600160a01b03168152505084816000815181106142b357fe5b6020026020010181815250505b61252c565b60408051600280825260608201835290916020830190803683370190505091506142ed611431565b826000815181106142fa57fe5b60200260200101906001600160a01b031690816001600160a01b0316815250507f00000000000000000000000000000000000000000000000000000000000000008260018151811061434857fe5b6001600160a01b0392909216602092830291909101820152604080516002808252606082018352909290919083019080368337019050509050848160008151811061438f57fe5b60200260200101818152505083816001815181106143a957fe5b602002602001018181525050935093915050565b816001600160a01b03166384e9bd7e826040518263ffffffff1660e01b815260040180826001600160a01b03168152602001915050600060405180830381600087803b15801561287a57600080fd5b3b151590565b606083156144215750816120cb565b8251156144315782518084602001fd5b8160405162461bcd60e51b81526004018080602001828103825283818151815260200191508051906020019080838360005b8381101561447b578181015183820152602001614463565b50505050905090810190601f1680156144a85780820380516001836020036101000a031916815260200191505b509250505060405180910390fd5b6060815167ffffffffffffffff811180156144d057600080fd5b506040519080825280602002602001820160405280156144fa578160200160208202803683370190505b50905060005b825181101561460c57600083828151811061451757fe5b60200260200101519050806001600160a01b03166370a08231866040518263ffffffff1660e01b815260040180826001600160a01b0316815260200191505060206040518083038186803b15801561456e57600080fd5b505afa158015614582573d6000803e3d6000fd5b505050506040513d602081101561459857600080fd5b505183518490849081106145a857fe5b60200260200101818152505060008383815181106145c257fe5b602002602001015111156146035761460385308585815181106145e157fe5b6020026020010151846001600160a01b0316614922909392919063ffffffff16565b50600101614500565b5092915050565b6060825167ffffffffffffffff8111801561462d57600080fd5b50604051908082528060200260200182016040528015614657578160200160208202803683370190505b50905060005b835181101561476257600084828151811061467457fe5b6020026020010151905061471484838151811061468d57fe5b6020026020010151826001600160a01b03166370a08231896040518263ffffffff1660e01b815260040180826001600160a01b0316815260200191505060206040518083038186803b1580156146e257600080fd5b505afa1580156146f6573d6000803e3d6000fd5b505050506040513d602081101561470c57600080fd5b50519061497c565b83838151811061472057fe5b602002602001018181525050600083838151811061473a57fe5b602002602001015111156147595761475986308585815181106145e157fe5b5060010161465d565b509392505050565b6001420190565b604080516008808252610120820190925260609182919060208201610100803683370190505090506000805b6008811015614868576000856001600160a01b03166354c49fe9836040518263ffffffff1660e01b81526004018082815260200191505060206040518083038186803b1580156147ec57600080fd5b505afa158015614800573d6000803e3d6000fd5b505050506040513d602081101561481657600080fd5b505190506001600160a01b03811615614859578084838151811061483657fe5b6001600160a01b039092166020928302919091019091015260019092019161485f565b50614868565b5060010161479d565b508067ffffffffffffffff8111801561488057600080fd5b506040519080825280602002602001820160405280156148aa578160200160208202803683370190505b50925060005b818110156148f8578281815181106148c457fe5b60200260200101518482815181106148d857fe5b6001600160a01b03909216602092830291909101909101526001016148b0565b505050919050565b606061490c8383613eb2565b15614918575081613eac565b6120cb83836149d9565b604080516001600160a01b0380861660248301528416604482015260648082018490528251808303909101815260849091019091526020810180516001600160e01b03166323b872dd60e01b17905261363d908590613714565b6000828211156149d3576040805162461bcd60e51b815260206004820152601e60248201527f536166654d6174683a207375627472616374696f6e206f766572666c6f770000604482015290519081900360640190fd5b50900390565b6060825160010167ffffffffffffffff811180156149f657600080fd5b50604051908082528060200260200182016040528015614a20578160200160208202803683370190505b50905060005b8351811015614a6f57838181518110614a3b57fe5b6020026020010151828281518110614a4f57fe5b6001600160a01b0390921660209283029190910190910152600101614a26565b508181845181518110614a7e57fe5b60200260200101906001600160a01b031690816001600160a01b0316815250509291505056fe5f5f7061727365417373657473466f72417070726f76654173736574733a20556e657175616c206172726179735f5f7061727365417373657473466f72417070726f76654173736574733a20496e76616c69642072657761726420746f6b656e7061727365417373657473466f724d6574686f643a205f73656c6563746f7220696e76616c6964416464726573733a20696e73756666696369656e742062616c616e636520666f722063616c6c4f6e6c792074686520496e746567726174696f6e4d616e616765722063616e2063616c6c20746869732066756e6374696f6e5f5f7061727365496e636f6d696e67417373657473466f72526564656d7074696f6e43616c6c733a20546f6f206d616e79206d696e20617373657420616d6f756e7473207370656369666965645f5f7061727365496e636f6d696e67417373657473466f72526564656d7074696f6e43616c6c733a204e6f206d696e20617373657420616d6f756e74207370656369666965645361666545524332303a204552433230206f7065726174696f6e20646964206e6f7420737563636565645361666545524332303a20617070726f76652066726f6d206e6f6e2d7a65726f20746f206e6f6e2d7a65726f20616c6c6f77616e6365a2646970667358221220a4be39bd031562708e1fdf4dc434f40a5b7c03e85454f944d0d1697218e2cbe264736f6c634300060c0033416464726573733a20696e73756666696369656e742062616c616e636520666f722063616c6c5361666545524332303a204552433230206f7065726174696f6e20646964206e6f7420737563636565645361666545524332303a20617070726f76652066726f6d206e6f6e2d7a65726f20746f206e6f6e2d7a65726f20616c6c6f77616e6365",
  "devdoc": {
    "author": "Enzyme Council <security@enzyme.finance>",
    "details": "Rewards tokens are not included as spend assets or incoming assets for claimRewards() or claimRewardsAndReinvest(). Rationale: - rewards tokens can be claimed to the vault outside of the IntegrationManager, so no need to enforce policy management or emit an event - rewards tokens can be outside of the asset universe, e.g., $LDO, in which case they cannot be tracked This adapter will need to be re-deployed if UniswapV2 low liquidity becomes a concern for rewards tokens when using claimRewardsAndReinvest().",
    "kind": "dev",
    "methods": {
      "approveAssets(address,bytes,bytes)": {
        "details": "No logic necessary. Exists only to grant adapter with necessary approvals from the vault, which takes place in the IntegrationManager."
      },
      "claimRewards(address,bytes,bytes)": {
        "params": {
          "_vaultProxy": "The VaultProxy of the calling fund"
        }
      },
      "claimRewardsAndReinvest(address,bytes,bytes)": {
        "details": "Requires the adapter to be granted an allowance of each reward token by the vault. For supported assets (e.g., CRV), this must be done via the `approveAssets()` function in this adapter. For unsupported assets, this must be done via `ComptrollerProxy.vaultCallOnContract()`. The `useFullBalances` option indicates whether to use only the newly claimed balances of rewards tokens, or whether to use the full balances of these assets in the vault.",
        "params": {
          "_encodedCallArgs": "Encoded order parameters",
          "_vaultProxy": "The VaultProxy of the calling fund"
        }
      },
      "claimRewardsAndSwap(address,bytes,bytes)": {
        "details": "Requires the adapter to be granted an allowance of each reward token by the vault. For supported assets (e.g., CRV), this must be done via the `approveAssets()` function in this adapter. For unsupported assets, this must be done via `ComptrollerProxy.vaultCallOnContract()`. The `useFullBalances` option indicates whether to use only the newly claimed balances of rewards tokens, or whether to use the full balances of these assets in the vault.",
        "params": {
          "_encodedCallArgs": "Encoded order parameters",
          "_vaultProxy": "The VaultProxy of the calling fund"
        }
      },
      "getCurveGaugeV2RewardsHandlerCrvToken()": {
        "returns": {
          "crvToken_": "The `CURVE_GAUGE_V2_REWARDS_HANDLER_CRV_TOKEN` variable value"
        }
      },
      "getCurveGaugeV2RewardsHandlerMinter()": {
        "returns": {
          "minter_": "The `CURVE_GAUGE_V2_REWARDS_HANDLER_MINTER` variable value"
        }
      },
      "getCurveStethLiquidityPool()": {
        "returns": {
          "pool_": "The `CURVE_STETH_LIQUIDITY_POOL` variable value"
        }
      },
      "getCurveStethLiquidityWethToken()": {
        "returns": {
          "wethToken_": "The `CURVE_STETH_LIQUIDITY_WETH_TOKEN` variable value"
        }
      },
      "getIntegrationManager()": {
        "returns": {
          "integrationManager_": "The `INTEGRATION_MANAGER` variable value"
        }
      },
      "getLiquidityGaugeToken()": {
        "returns": {
          "liquidityGaugeToken_": "The `LIQUIDITY_GAUGE_TOKEN` variable value"
        }
      },
      "getLpToken()": {
        "returns": {
          "lpToken_": "The `LP_TOKEN` variable value"
        }
      },
      "getStethToken()": {
        "returns": {
          "stethToken_": "The `STETH_TOKEN` variable value"
        }
      },
      "getUniswapV2Router2()": {
        "returns": {
          "router_": "The `UNISWAP_V2_ROUTER2` variable value"
        }
      },
      "identifier()": {
        "returns": {
          "identifier_": "The identifer string"
        }
      },
      "lend(address,bytes,bytes)": {
        "params": {
          "_encodedAssetTransferArgs": "Encoded args for expected assets to spend and receive",
          "_encodedCallArgs": "Encoded order parameters",
          "_vaultProxy": "The VaultProxy of the calling fund"
        }
      },
      "lendAndStake(address,bytes,bytes)": {
        "params": {
          "_encodedAssetTransferArgs": "Encoded args for expected assets to spend and receive",
          "_encodedCallArgs": "Encoded order parameters",
          "_vaultProxy": "The VaultProxy of the calling fund"
        }
      },
      "parseAssetsForMethod(bytes4,bytes)": {
        "params": {
          "_encodedCallArgs": "The encoded parameters for the callOnIntegration",
          "_selector": "The function selector for the callOnIntegration"
        },
        "returns": {
          "incomingAssets_": "The assets to receive in the call",
          "minIncomingAssetAmounts_": "The min asset amounts to receive in the call",
          "spendAssetAmounts_": "The max asset amounts to spend in the call",
          "spendAssetsHandleType_": "A type that dictates how to handle granting the adapter access to spend assets (`None` by default)",
          "spendAssets_": "The assets to spend in the call"
        }
      },
      "redeem(address,bytes,bytes)": {
        "params": {
          "_encodedAssetTransferArgs": "Encoded args for expected assets to spend and receive",
          "_encodedCallArgs": "Encoded order parameters",
          "_vaultProxy": "The VaultProxy of the calling fund"
        }
      },
      "stake(address,bytes,bytes)": {
        "params": {
          "_encodedAssetTransferArgs": "Encoded args for expected assets to spend and receive",
          "_encodedCallArgs": "Encoded order parameters",
          "_vaultProxy": "The VaultProxy of the calling fund"
        }
      },
      "unstake(address,bytes,bytes)": {
        "params": {
          "_encodedAssetTransferArgs": "Encoded args for expected assets to spend and receive",
          "_encodedCallArgs": "Encoded order parameters",
          "_vaultProxy": "The VaultProxy of the calling fund"
        }
      },
      "unstakeAndRedeem(address,bytes,bytes)": {
        "params": {
          "_encodedAssetTransferArgs": "Encoded args for expected assets to spend and receive",
          "_encodedCallArgs": "Encoded order parameters",
          "_vaultProxy": "The VaultProxy of the calling fund"
        }
      }
    },
    "title": "CurveLiquidityStethAdapter Contract",
    "version": 1
  },
  "userdoc": {
    "kind": "user",
    "methods": {
      "approveAssets(address,bytes,bytes)": {
        "notice": "Approves assets from the vault to be used by this contract."
      },
      "claimRewards(address,bytes,bytes)": {
        "notice": "Claims rewards from the Curve Minter as well as pool-specific rewards"
      },
      "claimRewardsAndReinvest(address,bytes,bytes)": {
        "notice": "Claims rewards and then compounds the rewards tokens back into the staked LP token"
      },
      "claimRewardsAndSwap(address,bytes,bytes)": {
        "notice": "Claims rewards and then swaps the rewards tokens to the specified asset via UniswapV2"
      },
      "getCurveGaugeV2RewardsHandlerCrvToken()": {
        "notice": "Gets the `CURVE_GAUGE_V2_REWARDS_HANDLER_CRV_TOKEN` variable"
      },
      "getCurveGaugeV2RewardsHandlerMinter()": {
        "notice": "Gets the `CURVE_GAUGE_V2_REWARDS_HANDLER_MINTER` variable"
      },
      "getCurveStethLiquidityPool()": {
        "notice": "Gets the `CURVE_STETH_LIQUIDITY_POOL` variable"
      },
      "getCurveStethLiquidityWethToken()": {
        "notice": "Gets the `CURVE_STETH_LIQUIDITY_WETH_TOKEN` variable"
      },
      "getIntegrationManager()": {
        "notice": "Gets the `INTEGRATION_MANAGER` variable"
      },
      "getLiquidityGaugeToken()": {
        "notice": "Gets the `LIQUIDITY_GAUGE_TOKEN` variable"
      },
      "getLpToken()": {
        "notice": "Gets the `LP_TOKEN` variable"
      },
      "getStethToken()": {
        "notice": "Gets the `STETH_TOKEN` variable"
      },
      "getUniswapV2Router2()": {
        "notice": "Gets the `UNISWAP_V2_ROUTER2` variable"
      },
      "identifier()": {
        "notice": "Provides a constant string identifier for an adapter"
      },
      "lend(address,bytes,bytes)": {
        "notice": "Lends assets for steth LP tokens"
      },
      "lendAndStake(address,bytes,bytes)": {
        "notice": "Lends assets for steth LP tokens, then stakes the received LP tokens"
      },
      "parseAssetsForMethod(bytes4,bytes)": {
        "notice": "Parses the expected assets to receive from a call on integration"
      },
      "redeem(address,bytes,bytes)": {
        "notice": "Redeems steth LP tokens"
      },
      "stake(address,bytes,bytes)": {
        "notice": "Stakes steth LP tokens"
      },
      "unstake(address,bytes,bytes)": {
        "notice": "Unstakes steth LP tokens"
      },
      "unstakeAndRedeem(address,bytes,bytes)": {
        "notice": "Unstakes steth LP tokens, then redeems them"
      }
    },
    "notice": "Adapter for liquidity provision in Curve's steth pool (https://www.curve.fi/steth)",
    "version": 1
  },
  "storageLayout": {
    "storage": [],
    "types": null
  }
}