{
  "address": "0xa7711DD0fcB6aE997f89E4b13B1A6db00Ac78844",
  "abi": [
    {
      "inputs": [
        {
          "internalType": "address",
          "name": "_integrationManager",
          "type": "address"
        },
        {
          "internalType": "address",
          "name": "_liquidityGaugeToken",
          "type": "address"
        },
        {
          "internalType": "address",
          "name": "_lpToken",
          "type": "address"
        },
        {
          "internalType": "address",
          "name": "_minter",
          "type": "address"
        },
        {
          "internalType": "address",
          "name": "_pool",
          "type": "address"
        },
        {
          "internalType": "address",
          "name": "_crvToken",
          "type": "address"
        },
        {
          "internalType": "address",
          "name": "_eursToken",
          "type": "address"
        },
        {
          "internalType": "address",
          "name": "_seurToken",
          "type": "address"
        }
      ],
      "stateMutability": "nonpayable",
      "type": "constructor"
    },
    {
      "inputs": [],
      "name": "ADD_TRACKED_ASSETS_SELECTOR",
      "outputs": [
        {
          "internalType": "bytes4",
          "name": "",
          "type": "bytes4"
        }
      ],
      "stateMutability": "view",
      "type": "function"
    },
    {
      "inputs": [],
      "name": "APPROVE_ASSETS_SELECTOR",
      "outputs": [
        {
          "internalType": "bytes4",
          "name": "",
          "type": "bytes4"
        }
      ],
      "stateMutability": "view",
      "type": "function"
    },
    {
      "inputs": [],
      "name": "CLAIM_REWARDS_AND_REINVEST_SELECTOR",
      "outputs": [
        {
          "internalType": "bytes4",
          "name": "",
          "type": "bytes4"
        }
      ],
      "stateMutability": "view",
      "type": "function"
    },
    {
      "inputs": [],
      "name": "CLAIM_REWARDS_AND_SWAP_SELECTOR",
      "outputs": [
        {
          "internalType": "bytes4",
          "name": "",
          "type": "bytes4"
        }
      ],
      "stateMutability": "view",
      "type": "function"
    },
    {
      "inputs": [],
      "name": "CLAIM_REWARDS_SELECTOR",
      "outputs": [
        {
          "internalType": "bytes4",
          "name": "",
          "type": "bytes4"
        }
      ],
      "stateMutability": "view",
      "type": "function"
    },
    {
      "inputs": [],
      "name": "LEND_AND_STAKE_SELECTOR",
      "outputs": [
        {
          "internalType": "bytes4",
          "name": "",
          "type": "bytes4"
        }
      ],
      "stateMutability": "view",
      "type": "function"
    },
    {
      "inputs": [],
      "name": "LEND_SELECTOR",
      "outputs": [
        {
          "internalType": "bytes4",
          "name": "",
          "type": "bytes4"
        }
      ],
      "stateMutability": "view",
      "type": "function"
    },
    {
      "inputs": [],
      "name": "REDEEM_SELECTOR",
      "outputs": [
        {
          "internalType": "bytes4",
          "name": "",
          "type": "bytes4"
        }
      ],
      "stateMutability": "view",
      "type": "function"
    },
    {
      "inputs": [],
      "name": "REMOVE_TRACKED_ASSETS_SELECTOR",
      "outputs": [
        {
          "internalType": "bytes4",
          "name": "",
          "type": "bytes4"
        }
      ],
      "stateMutability": "view",
      "type": "function"
    },
    {
      "inputs": [],
      "name": "STAKE_SELECTOR",
      "outputs": [
        {
          "internalType": "bytes4",
          "name": "",
          "type": "bytes4"
        }
      ],
      "stateMutability": "view",
      "type": "function"
    },
    {
      "inputs": [],
      "name": "TAKE_ORDER_SELECTOR",
      "outputs": [
        {
          "internalType": "bytes4",
          "name": "",
          "type": "bytes4"
        }
      ],
      "stateMutability": "view",
      "type": "function"
    },
    {
      "inputs": [],
      "name": "UNSTAKE_AND_REDEEM_SELECTOR",
      "outputs": [
        {
          "internalType": "bytes4",
          "name": "",
          "type": "bytes4"
        }
      ],
      "stateMutability": "view",
      "type": "function"
    },
    {
      "inputs": [],
      "name": "UNSTAKE_SELECTOR",
      "outputs": [
        {
          "internalType": "bytes4",
          "name": "",
          "type": "bytes4"
        }
      ],
      "stateMutability": "view",
      "type": "function"
    },
    {
      "inputs": [
        {
          "internalType": "address",
          "name": "_vaultProxy",
          "type": "address"
        },
        {
          "internalType": "bytes",
          "name": "",
          "type": "bytes"
        },
        {
          "internalType": "bytes",
          "name": "",
          "type": "bytes"
        }
      ],
      "name": "claimRewards",
      "outputs": [],
      "stateMutability": "nonpayable",
      "type": "function"
    },
    {
      "inputs": [],
      "name": "getAdapterDeployTimestamp",
      "outputs": [
        {
          "internalType": "uint256",
          "name": "",
          "type": "uint256"
        }
      ],
      "stateMutability": "view",
      "type": "function"
    },
    {
      "inputs": [],
      "name": "getCurveEursLiquidityPool",
      "outputs": [
        {
          "internalType": "address",
          "name": "pool_",
          "type": "address"
        }
      ],
      "stateMutability": "view",
      "type": "function"
    },
    {
      "inputs": [],
      "name": "getCurveGaugeV2RewardsHandlerCrvToken",
      "outputs": [
        {
          "internalType": "address",
          "name": "crvToken_",
          "type": "address"
        }
      ],
      "stateMutability": "view",
      "type": "function"
    },
    {
      "inputs": [],
      "name": "getCurveGaugeV2RewardsHandlerMinter",
      "outputs": [
        {
          "internalType": "address",
          "name": "minter_",
          "type": "address"
        }
      ],
      "stateMutability": "view",
      "type": "function"
    },
    {
      "inputs": [],
      "name": "getEursToken",
      "outputs": [
        {
          "internalType": "address",
          "name": "eursToken_",
          "type": "address"
        }
      ],
      "stateMutability": "view",
      "type": "function"
    },
    {
      "inputs": [],
      "name": "getIntegrationManager",
      "outputs": [
        {
          "internalType": "address",
          "name": "integrationManager_",
          "type": "address"
        }
      ],
      "stateMutability": "view",
      "type": "function"
    },
    {
      "inputs": [],
      "name": "getLiquidityGaugeToken",
      "outputs": [
        {
          "internalType": "address",
          "name": "liquidityGaugeToken_",
          "type": "address"
        }
      ],
      "stateMutability": "view",
      "type": "function"
    },
    {
      "inputs": [],
      "name": "getLpToken",
      "outputs": [
        {
          "internalType": "address",
          "name": "lpToken_",
          "type": "address"
        }
      ],
      "stateMutability": "view",
      "type": "function"
    },
    {
      "inputs": [],
      "name": "getSeurToken",
      "outputs": [
        {
          "internalType": "address",
          "name": "seurToken_",
          "type": "address"
        }
      ],
      "stateMutability": "view",
      "type": "function"
    },
    {
      "inputs": [],
      "name": "identifier",
      "outputs": [
        {
          "internalType": "string",
          "name": "identifier_",
          "type": "string"
        }
      ],
      "stateMutability": "pure",
      "type": "function"
    },
    {
      "inputs": [
        {
          "internalType": "address",
          "name": "_vaultProxy",
          "type": "address"
        },
        {
          "internalType": "bytes",
          "name": "_encodedCallArgs",
          "type": "bytes"
        },
        {
          "internalType": "bytes",
          "name": "_encodedAssetTransferArgs",
          "type": "bytes"
        }
      ],
      "name": "lend",
      "outputs": [],
      "stateMutability": "nonpayable",
      "type": "function"
    },
    {
      "inputs": [
        {
          "internalType": "address",
          "name": "_vaultProxy",
          "type": "address"
        },
        {
          "internalType": "bytes",
          "name": "_encodedCallArgs",
          "type": "bytes"
        },
        {
          "internalType": "bytes",
          "name": "_encodedAssetTransferArgs",
          "type": "bytes"
        }
      ],
      "name": "lendAndStake",
      "outputs": [],
      "stateMutability": "nonpayable",
      "type": "function"
    },
    {
      "inputs": [
        {
          "internalType": "bytes4",
          "name": "_selector",
          "type": "bytes4"
        },
        {
          "internalType": "bytes",
          "name": "_encodedCallArgs",
          "type": "bytes"
        }
      ],
      "name": "parseAssetsForMethod",
      "outputs": [
        {
          "internalType": "enum IIntegrationManager.SpendAssetsHandleType",
          "name": "spendAssetsHandleType_",
          "type": "uint8"
        },
        {
          "internalType": "address[]",
          "name": "spendAssets_",
          "type": "address[]"
        },
        {
          "internalType": "uint256[]",
          "name": "spendAssetAmounts_",
          "type": "uint256[]"
        },
        {
          "internalType": "address[]",
          "name": "incomingAssets_",
          "type": "address[]"
        },
        {
          "internalType": "uint256[]",
          "name": "minIncomingAssetAmounts_",
          "type": "uint256[]"
        }
      ],
      "stateMutability": "view",
      "type": "function"
    },
    {
      "inputs": [
        {
          "internalType": "address",
          "name": "_vaultProxy",
          "type": "address"
        },
        {
          "internalType": "bytes",
          "name": "_encodedCallArgs",
          "type": "bytes"
        },
        {
          "internalType": "bytes",
          "name": "_encodedAssetTransferArgs",
          "type": "bytes"
        }
      ],
      "name": "redeem",
      "outputs": [],
      "stateMutability": "nonpayable",
      "type": "function"
    },
    {
      "inputs": [
        {
          "internalType": "address",
          "name": "_vaultProxy",
          "type": "address"
        },
        {
          "internalType": "bytes",
          "name": "_encodedCallArgs",
          "type": "bytes"
        },
        {
          "internalType": "bytes",
          "name": "_encodedAssetTransferArgs",
          "type": "bytes"
        }
      ],
      "name": "stake",
      "outputs": [],
      "stateMutability": "nonpayable",
      "type": "function"
    },
    {
      "inputs": [
        {
          "internalType": "address",
          "name": "_vaultProxy",
          "type": "address"
        },
        {
          "internalType": "bytes",
          "name": "_encodedCallArgs",
          "type": "bytes"
        },
        {
          "internalType": "bytes",
          "name": "_encodedAssetTransferArgs",
          "type": "bytes"
        }
      ],
      "name": "unstake",
      "outputs": [],
      "stateMutability": "nonpayable",
      "type": "function"
    },
    {
      "inputs": [
        {
          "internalType": "address",
          "name": "_vaultProxy",
          "type": "address"
        },
        {
          "internalType": "bytes",
          "name": "_encodedCallArgs",
          "type": "bytes"
        },
        {
          "internalType": "bytes",
          "name": "_encodedAssetTransferArgs",
          "type": "bytes"
        }
      ],
      "name": "unstakeAndRedeem",
      "outputs": [],
      "stateMutability": "nonpayable",
      "type": "function"
    }
  ],
  "transactionHash": "0x1f4c2e997de8ad1490c0bd0f575b22c0d3cb14d21f5dc47a0210d7dc0088157d",
  "args": [
    "0x4B37f5DCA5FB2D5548e9EcEe9f98d9Ac95f60774",
    "0x90Bb609649E0451E5aD952683D64BD2d1f245840",
    "0x194eBd173F6cDacE046C53eACcE9B953F28411d1",
    "0xd061D61a4d941c39E5453435B6345Dc261C2fcE0",
    "0x0Ce6a5fF5217e38315f87032CF90686C96627CAA",
    "0xd533a949740bb3306d119cc777fa900ba034cd52",
    "0xdb25f211ab05b1c97d595516f45794528a807ad8",
    "0xd71ecff9342a5ced620049e616c5035f1db98620"
  ],
  "linkedData": {
    "type": "ADAPTER"
  },
  "solcInputHash": "34b1516e615d6cbcdbaf9542624efee9",
  "bytecode": "0x6101a06040523480156200001257600080fd5b50604051620035b5380380620035b583398181016040526101008110156200003957600080fd5b508051602080830151604084015160608086015160808088015160a0808a015160c0808c015160e09c8d01516001600160601b03198d8a1b81169097524290945282881b861690915285871b8516909b529482901b90921661010052969794969395919491849083908390620000c9906001600160a01b038416908590600019906200166c62000155821b17901c565b620000f083600019836001600160a01b03166200015560201b6200166c179092919060201c565b505050606082811b6001600160601b03199081166101205288821b81166101405287821b8116610160529082901b1661018052620001476001600160a01b0387168860001962000155602090811b6200166c17901c565b505050505050505062000568565b801580620001df575060408051636eb1769f60e11b81523060048201526001600160a01b03848116602483015291519185169163dd62ed3e91604480820192602092909190829003018186803b158015620001af57600080fd5b505afa158015620001c4573d6000803e3d6000fd5b505050506040513d6020811015620001db57600080fd5b5051155b6200021c5760405162461bcd60e51b81526004018080602001828103825260368152602001806200357f6036913960400191505060405180910390fd5b604080516001600160a01b038416602482015260448082018490528251808303909101815260649091019091526020810180516001600160e01b0390811663095ea7b360e01b17909152620002749185916200027916565b505050565b6060620002d5826040518060400160405280602081526020017f5361666545524332303a206c6f772d6c6576656c2063616c6c206661696c6564815250856001600160a01b03166200033560201b62001784179092919060201c565b8051909150156200027457808060200190516020811015620002f657600080fd5b5051620002745760405162461bcd60e51b815260040180806020018281038252602a81526020018062003555602a913960400191505060405180910390fd5b606062000346848460008562000350565b90505b9392505050565b606082471015620003935760405162461bcd60e51b81526004018080602001828103825260268152602001806200352f6026913960400191505060405180910390fd5b6200039e85620004b8565b620003f0576040805162461bcd60e51b815260206004820152601d60248201527f416464726573733a2063616c6c20746f206e6f6e2d636f6e7472616374000000604482015290519081900360640190fd5b60006060866001600160a01b031685876040518082805190602001908083835b60208310620004315780518252601f19909201916020918201910162000410565b6001836020036101000a03801982511681845116808217855250505050505090500191505060006040518083038185875af1925050503d806000811462000495576040519150601f19603f3d011682016040523d82523d6000602084013e6200049a565b606091505b509092509050620004ad828286620004be565b979650505050505050565b3b151590565b60608315620004cf57508162000349565b825115620004e05782518084602001fd5b8160405162461bcd60e51b81526004018080602001828103825283818151815260200191508051906020019080838360005b838110156200052c57818101518382015260200162000512565b50505050905090810190601f1680156200055a5780820380516001836020036101000a031916815260200191505b509250505060405180910390fd5b60805160601c60a05160c05160601c60e05160601c6101005160601c6101205160601c6101405160601c6101605160601c6101805160601c612f0b62000624600039806112e152508061113b525080610f9e525080610c1d52508061129952806117d35280612242528061231b528061239752508061150a528061247c525080610def5250806112bd525080610ae95280610c6e5280610eac5280611168528061133252806113b152806114e6528061157f5250612f0b6000f3fe608060405234801561001057600080fd5b50600436106101e55760003560e01c80638214f5a41161010f578063c29fa9dd116100a2578063f003eb8511610071578063f003eb85146109d4578063f0753994146109dc578063f7d882b5146109e4578063fa7dd04d146109ec576101e5565b8063c29fa9dd146108ee578063e27a06b5146109bc578063e4d90478146109c4578063e7c45690146109cc576101e5565b8063a96de76b116100de578063a96de76b146107f6578063a9fad30a14610810578063b23228cf14610818578063b9dfbacc14610820576101e5565b80638214f5a4146107105780638334eb9914610718578063863e5ad0146107e6578063a1c52b1c146107ee576101e5565b80633ffc15911161018757806368e306771161015657806368e30677146104095780637240b225146104d757806376cc7ac6146104df5780637998a1c414610693576101e5565b80633ffc1591146103e957806340da225d146103f157806340f8cfcf146103f95780635ca62b3c14610401576101e5565b80631f0a882f116101c35780631f0a882f146102e7578063257cb1a31461030b57806329fa046e14610313578063332d709f146103e1576101e5565b8063080456c1146101ea578063099f75151461020f578063131461c0146102df575b600080fd5b6101f2610aba565b604080516001600160e01b03199092168252519081900360200190f35b6102dd6004803603606081101561022557600080fd5b6001600160a01b038235169190810190604081016020820135600160201b81111561024f57600080fd5b82018360208201111561026157600080fd5b803590602001918460018302840111600160201b8311171561028257600080fd5b919390929091602081019035600160201b81111561029f57600080fd5b8201836020820111156102b157600080fd5b803590602001918460018302840111600160201b831117156102d257600080fd5b509092509050610ade565b005b6101f2610bf7565b6102ef610c1b565b604080516001600160a01b039092168252519081900360200190f35b6101f2610c3f565b6102dd6004803603606081101561032957600080fd5b6001600160a01b038235169190810190604081016020820135600160201b81111561035357600080fd5b82018360208201111561036557600080fd5b803590602001918460018302840111600160201b8311171561038657600080fd5b919390929091602081019035600160201b8111156103a357600080fd5b8201836020820111156103b557600080fd5b803590602001918460018302840111600160201b831117156103d657600080fd5b509092509050610c63565b6102ef610ded565b6101f2610e11565b6101f2610e35565b6101f2610e59565b6101f2610e7d565b6102dd6004803603606081101561041f57600080fd5b6001600160a01b038235169190810190604081016020820135600160201b81111561044957600080fd5b82018360208201111561045b57600080fd5b803590602001918460018302840111600160201b8311171561047c57600080fd5b919390929091602081019035600160201b81111561049957600080fd5b8201836020820111156104ab57600080fd5b803590602001918460018302840111600160201b831117156104cc57600080fd5b509092509050610ea1565b6102ef610f9c565b61055e600480360360408110156104f557600080fd5b6001600160e01b03198235169190810190604081016020820135600160201b81111561052057600080fd5b82018360208201111561053257600080fd5b803590602001918460018302840111600160201b8311171561055357600080fd5b509092509050610fc0565b6040518086600381111561056e57fe5b815260200180602001806020018060200180602001858103855289818151815260200191508051906020019060200280838360005b838110156105bb5781810151838201526020016105a3565b50505050905001858103845288818151815260200191508051906020019060200280838360005b838110156105fa5781810151838201526020016105e2565b50505050905001858103835287818151815260200191508051906020019060200280838360005b83811015610639578181015183820152602001610621565b50505050905001858103825286818151815260200191508051906020019060200280838360005b83811015610678578181015183820152602001610660565b50505050905001995050505050505050505060405180910390f35b61069b61110b565b6040805160208082528351818301528351919283929083019185019080838360005b838110156106d55781810151838201526020016106bd565b50505050905090810190601f1680156107025780820380516001836020036101000a031916815260200191505b509250505060405180910390f35b6102ef611139565b6102dd6004803603606081101561072e57600080fd5b6001600160a01b038235169190810190604081016020820135600160201b81111561075857600080fd5b82018360208201111561076a57600080fd5b803590602001918460018302840111600160201b8311171561078b57600080fd5b919390929091602081019035600160201b8111156107a857600080fd5b8201836020820111156107ba57600080fd5b803590602001918460018302840111600160201b831117156107db57600080fd5b50909250905061115d565b6101f2611273565b6102ef611297565b6107fe6112bb565b60408051918252519081900360200190f35b6102ef6112df565b6101f2611303565b6102dd6004803603606081101561083657600080fd5b6001600160a01b038235169190810190604081016020820135600160201b81111561086057600080fd5b82018360208201111561087257600080fd5b803590602001918460018302840111600160201b8311171561089357600080fd5b919390929091602081019035600160201b8111156108b057600080fd5b8201836020820111156108c257600080fd5b803590602001918460018302840111600160201b831117156108e357600080fd5b509092509050611327565b6102dd6004803603606081101561090457600080fd5b6001600160a01b038235169190810190604081016020820135600160201b81111561092e57600080fd5b82018360208201111561094057600080fd5b803590602001918460018302840111600160201b8311171561096157600080fd5b919390929091602081019035600160201b81111561097e57600080fd5b82018360208201111561099057600080fd5b803590602001918460018302840111600160201b831117156109b157600080fd5b5090925090506113a6565b6101f261149c565b6101f26114c0565b6102ef6114e4565b6102ef611508565b6101f261152c565b6101f2611550565b6102dd60048036036060811015610a0257600080fd5b6001600160a01b038235169190810190604081016020820135600160201b811115610a2c57600080fd5b820183602082011115610a3e57600080fd5b803590602001918460018302840111600160201b83111715610a5f57600080fd5b919390929091602081019035600160201b811115610a7c57600080fd5b820183602082011115610a8e57600080fd5b803590602001918460018302840111600160201b83111715610aaf57600080fd5b509092509050611574565b7f8334eb99be0145865eba9889fca2ee920288090caefff4cc776038e20ad9259a81565b336001600160a01b037f00000000000000000000000000000000000000000000000000000000000000001614610b455760405162461bcd60e51b8152600401808060200182810382526032815260200180612db16032913960400191505060405180910390fd5b8482828080601f0160208091040260200160405190810160405280939291908181526020018383808284376000920182905250604080516020601f8c018190048102820181019092528a8152919450849350839250610bbf91908b908b908190840183828082843760009201919091525061179d92505050565b925092509250610bd08383836117d1565b5050506060610bde826118a2565b9350505050610bed8382611a6a565b5050505050505050565b7f29fa046e79524c3c5ac4c01df692c35e217802b2b13b21121b76cf0ef02b138c81565b7f000000000000000000000000000000000000000000000000000000000000000090565b7f099f75155f0e997bf83a7993a71d5e7e7540bd386fe1e84643a09ce6b412521981565b336001600160a01b037f00000000000000000000000000000000000000000000000000000000000000001614610cca5760405162461bcd60e51b8152600401808060200182810382526032815260200180612db16032913960400191505060405180910390fd5b8482828080601f0160208091040260200160405190810160405280939291908181526020018383808284376000920182905250604080516020601f8c018190048102820181019092528a8152919450849350839250610d4491908b908b908190840183828082843760009201919091525061179d92505050565b925092509250610d558383836117d1565b610bd0610d60610f9c565b610d68611139565b610d70611139565b6001600160a01b03166370a08231306040518263ffffffff1660e01b815260040180826001600160a01b0316815260200191505060206040518083038186803b158015610dbc57600080fd5b505afa158015610dd0573d6000803e3d6000fd5b505050506040513d6020811015610de657600080fd5b5051611b46565b7f000000000000000000000000000000000000000000000000000000000000000090565b7ffa7dd04da627f433da73c4355ead9c75682a67a8fc84d3f6170ef0922f402d2481565b7fb9dfbaccbe5cd2a84fdcf1d15f23ef25d23086f5afbaa99516065ed4a5bbc7a381565b7ff658eb804cc1da8af5599b584aaf3d55407a3c721c42641a6a5270e963d782c381565b7fdfd5ee0f6067928bf85a7c4430811282840bc99332dda3dab462c02bf95b67cc81565b336001600160a01b037f00000000000000000000000000000000000000000000000000000000000000001614610f085760405162461bcd60e51b8152600401808060200182810382526032815260200180612db16032913960400191505060405180910390fd5b8482828080601f016020809104026020016040519081016040528093929190818152602001838380828437600092019190915250610f919250610f4d9150610f9c9050565b610f8c88888080601f016020809104026020016040519081016040528093929190818152602001838380828437600092019190915250611bbc92505050565b611bdb565b6060610bde826118a2565b7f000000000000000000000000000000000000000000000000000000000000000090565b600060608080806001600160e01b03198816632e77eeb360e21b1415610ff757610fe8611c3d565b94509450945094509450611100565b6001600160e01b0319881663099f751560e01b141561101a57610fe88787611c9d565b6001600160e01b031988166314fd023760e11b141561103d57610fe88787611d94565b6001600160e01b0319881663c29fa9dd60e01b141561106057610fe88787611e1d565b6001600160e01b0319881663fa7dd04d60e01b141561108357610fe88787611f1a565b6001600160e01b031988166368e3067760e01b14156110a657610fe8878761207f565b6001600160e01b03198816638334eb9960e01b14156110c957610fe88787612178565b60405162461bcd60e51b8152600401808060200182810382526027815260200180612d646027913960400191505060405180910390fd5b939792965093509350565b60408051808201909152601481527343555256455f4c49515549444954595f4555525360601b602082015290565b7f000000000000000000000000000000000000000000000000000000000000000090565b336001600160a01b037f000000000000000000000000000000000000000000000000000000000000000016146111c45760405162461bcd60e51b8152600401808060200182810382526032815260200180612db16032913960400191505060405180910390fd5b8482828080601f0160208091040260200160405190810160405280939291908181526020018383808284376000920182905250604080516020601f8c018190048102820181019092528a8152919450849350839250829161123f918c908c90819084018382808284376000920191909152506121f792505050565b9350935093509350611258611252610f9c565b85611bdb565b61126484848484612234565b505050506060610bde826118a2565b7f03e38a2bd7063d45c897edeafc330e71657502dd86434d3c37a489caf116af6981565b7f000000000000000000000000000000000000000000000000000000000000000090565b7f000000000000000000000000000000000000000000000000000000000000000090565b7f000000000000000000000000000000000000000000000000000000000000000090565b7f68e30677f607df46e87da13e15b637784cfa62374b653f35ab43d10361a2f83081565b336001600160a01b037f0000000000000000000000000000000000000000000000000000000000000000161461138e5760405162461bcd60e51b8152600401808060200182810382526032815260200180612db16032913960400191505060405180910390fd5b61139f611399610f9c565b8661247a565b5050505050565b336001600160a01b037f0000000000000000000000000000000000000000000000000000000000000000161461140d5760405162461bcd60e51b8152600401808060200182810382526032815260200180612db16032913960400191505060405180910390fd5b8482828080601f0160208091040260200160405190810160405280939291908181526020018383808284376000920182905250604080516020601f8c018190048102820181019092528a81529194508493508392508291611488918c908c90819084018382808284376000920191909152506121f792505050565b935093509350935061126484848484612234565b7f848f3a590fb2f9795d1a275009c54c26c53833277c96b90e0ddd01753a1d590681565b7f3377e18acf9e83665eacd6af109261424fca32a298e2fc2e6095ba563fb8390e81565b7f000000000000000000000000000000000000000000000000000000000000000090565b7f000000000000000000000000000000000000000000000000000000000000000090565b7f1d51f49b5273d9ddbb643dc349fab8d36dbb470209c2ea71033bea49dd311c2781565b7fc29fa9dde84204c2908778afd0613d802d31cf046179b88f6d2b4a4e507ea2d581565b336001600160a01b037f000000000000000000000000000000000000000000000000000000000000000016146115db5760405162461bcd60e51b8152600401808060200182810382526032815260200180612db16032913960400191505060405180910390fd5b8482828080601f016020809104026020016040519081016040528093929190818152602001838380828437600092019190915250610f9192506116209150610f9c9050565b611628611139565b61166789898080601f016020809104026020016040519081016040528093929190818152602001838380828437600092019190915250611bbc92505050565b611b46565b8015806116f2575060408051636eb1769f60e11b81523060048201526001600160a01b03848116602483015291519185169163dd62ed3e91604480820192602092909190829003018186803b1580156116c457600080fd5b505afa1580156116d8573d6000803e3d6000fd5b505050506040513d60208110156116ee57600080fd5b5051155b61172d5760405162461bcd60e51b8152600401808060200182810382526036815260200180612ea06036913960400191505060405180910390fd5b604080516001600160a01b038416602482015260448082018490528251808303909101815260649091019091526020810180516001600160e01b031663095ea7b360e01b17905261177f908490612520565b505050565b606061179384846000856125d1565b90505b9392505050565b60008060008380602001905160608110156117b757600080fd5b508051602082015160409092015190969195509350915050565b7f00000000000000000000000000000000000000000000000000000000000000006001600160a01b0316630b4c7e4d604051806040016040528086815260200185815250836040518363ffffffff1660e01b81526004018083600260200280838360005b8381101561184d578181015183820152602001611835565b5050505090500182815260200192505050602060405180830381600087803b15801561187857600080fd5b505af115801561188c573d6000803e3d6000fd5b505050506040513d602081101561139f57600080fd5b600060608060608480602001905160808110156118be57600080fd5b815160208301805160405192949293830192919084600160201b8211156118e457600080fd5b9083019060208201858111156118f957600080fd5b82518660208202830111600160201b8211171561191557600080fd5b82525081516020918201928201910280838360005b8381101561194257818101518382015260200161192a565b5050505090500160405260200180516040519392919084600160201b82111561196a57600080fd5b90830190602082018581111561197f57600080fd5b82518660208202830111600160201b8211171561199b57600080fd5b82525081516020918201928201910280838360005b838110156119c85781810151838201526020016119b0565b5050505090500160405260200180516040519392919084600160201b8211156119f057600080fd5b908301906020820185811115611a0557600080fd5b82518660208202830111600160201b82111715611a2157600080fd5b82525081516020918201928201910280838360005b83811015611a4e578181015183820152602001611a36565b5050505090500160405250505093509350935093509193509193565b60005b815181101561177f576000828281518110611a8457fe5b60200260200101516001600160a01b03166370a08231306040518263ffffffff1660e01b815260040180826001600160a01b0316815260200191505060206040518083038186803b158015611ad857600080fd5b505afa158015611aec573d6000803e3d6000fd5b505050506040513d6020811015611b0257600080fd5b505190508015611b3d57611b3d8482858581518110611b1d57fe5b60200260200101516001600160a01b031661272d9092919063ffffffff16565b50600101611a6d565b611b5182848361277f565b60408051636e553f6560e01b81526004810183905230602482015290516001600160a01b03851691636e553f6591604480830192600092919082900301818387803b158015611b9f57600080fd5b505af1158015611bb3573d6000803e3d6000fd5b50505050505050565b6000818060200190516020811015611bd357600080fd5b505192915050565b816001600160a01b0316632e1a7d4d826040518263ffffffff1660e01b815260040180828152602001915050600060405180830381600087803b158015611c2157600080fd5b505af1158015611c35573d6000803e3d6000fd5b505050505050565b600060608080808480604051908082528060200260200182016040528015611c6f578160200160208202803683370190505b5060408051600080825260208201818152828401918252606083019093529399929850965094509092509050565b60006060806060806000806000611ce98a8a8080601f01602080910402602001604051908101604052809392919081815260200183838082843760009201919091525061179d92505050565b925092509250611cf98383612817565b60408051600180825281830190925292995090975060208083019080368337019050509450611d26611139565b85600081518110611d3357fe5b6001600160a01b03929092166020928302919091018201526040805160018082528183019092529182810190803683370190505093508084600081518110611d7757fe5b602002602001018181525050600297505050509295509295909350565b60006060806060806000806000611de08a8a8080601f01602080910402602001604051908101604052809392919081815260200183838082843760009201919091525061179d92505050565b925092509250611df08383612817565b60408051600180825281830190925292995090975060208083019080368337019050509450611d26610f9c565b6000606080606080600080600080611e6a8b8b8080601f0160208091040260200160405190810160405280939291908181526020018383808284376000920191909152506121f792505050565b604080516001808252818301909252949850929650909450925060208083019080368337019050509750611e9c611139565b88600081518110611ea957fe5b6001600160a01b03929092166020928302919091018201526040805160018082528183019092529182810190803683370190505096508387600081518110611eed57fe5b602002602001018181525050611f04838383612a17565b60029d999c50979a509850959695505050505050565b60006060806060806000611f6388888080601f016020809104026020016040519081016040528093929190818152602001838380828437600092019190915250611bbc92505050565b60408051600180825281830190925291925060208083019080368337019050509450611f8d611139565b85600081518110611f9a57fe5b6001600160a01b03929092166020928302919091018201526040805160018082528183019092529182810190803683370190505093508084600081518110611fde57fe5b602090810291909101015260408051600180825281830190925290816020016020820280368337019050509250612013610f9c565b8360008151811061202057fe5b6001600160a01b0392909216602092830291909101820152604080516001808252818301909252918281019080368337019050509150808260008151811061206457fe5b60200260200101818152505060029550509295509295909350565b600060608060608060006120c888888080601f016020809104026020016040519081016040528093929190818152602001838380828437600092019190915250611bbc92505050565b604080516001808252818301909252919250602080830190803683370190505094506120f2610f9c565b856000815181106120ff57fe5b6001600160a01b0392909216602092830291909101820152604080516001808252818301909252918281019080368337019050509350808460008151811061214357fe5b602090810291909101015260408051600180825281830190925290816020016020820280368337019050509250612013611139565b60006060806060806000806000806121c58b8b8080601f0160208091040260200160405190810160405280939291908181526020018383808284376000920191909152506121f792505050565b604080516001808252818301909252949850929650909450925060208083019080368337019050509750611e9c610f9c565b60008060008084806020019051608081101561221257600080fd5b5080516020820151604083015160609093015191989097509195509350915050565b80156123955782156122ec577f00000000000000000000000000000000000000000000000000000000000000006001600160a01b0316631a4d01d2856000866040518463ffffffff1660e01b81526004018084815260200183600f0b81526020018281526020019350505050602060405180830381600087803b1580156122ba57600080fd5b505af11580156122ce573d6000803e3d6000fd5b505050506040513d60208110156122e457600080fd5b506123909050565b60408051630d2680e960e11b815260048101869052600160248201526044810184905290516001600160a01b037f00000000000000000000000000000000000000000000000000000000000000001691631a4d01d29160648083019260209291908290030181600087803b15801561236357600080fd5b505af1158015612377573d6000803e3d6000fd5b505050506040513d602081101561238d57600080fd5b50505b612474565b7f00000000000000000000000000000000000000000000000000000000000000006001600160a01b0316635b36389c856040518060400160405280878152602001868152506040518363ffffffff1660e01b81526004018083815260200182600260200280838360005b838110156124175781810151838201526020016123ff565b50505050905001925050506040805180830381600087803b15801561243b57600080fd5b505af115801561244f573d6000803e3d6000fd5b505050506040513d601f19601f820116820180604052506040811015611c3557600080fd5b50505050565b7f00000000000000000000000000000000000000000000000000000000000000006001600160a01b03166327f18ae383836040518363ffffffff1660e01b815260040180836001600160a01b03168152602001826001600160a01b0316815260200192505050600060405180830381600087803b1580156124fa57600080fd5b505af115801561250e573d6000803e3d6000fd5b5050505061251c8282612c6a565b5050565b6060612575826040518060400160405280602081526020017f5361666545524332303a206c6f772d6c6576656c2063616c6c206661696c6564815250856001600160a01b03166117849092919063ffffffff16565b80519091501561177f5780806020019051602081101561259457600080fd5b505161177f5760405162461bcd60e51b815260040180806020018281038252602a815260200180612e76602a913960400191505060405180910390fd5b6060824710156126125760405162461bcd60e51b8152600401808060200182810382526026815260200180612d8b6026913960400191505060405180910390fd5b61261b85612cb9565b61266c576040805162461bcd60e51b815260206004820152601d60248201527f416464726573733a2063616c6c20746f206e6f6e2d636f6e7472616374000000604482015290519081900360640190fd5b60006060866001600160a01b031685876040518082805190602001908083835b602083106126ab5780518252601f19909201916020918201910161268c565b6001836020036101000a03801982511681845116808217855250505050505090500191505060006040518083038185875af1925050503d806000811461270d576040519150601f19603f3d011682016040523d82523d6000602084013e612712565b606091505b5091509150612722828286612cbf565b979650505050505050565b604080516001600160a01b038416602482015260448082018490528251808303909101815260649091019091526020810180516001600160e01b031663a9059cbb60e01b17905261177f908490612520565b60408051636eb1769f60e11b81523060048201526001600160a01b0384811660248301529151839286169163dd62ed3e916044808301926020929190829003018186803b1580156127cf57600080fd5b505afa1580156127e3573d6000803e3d6000fd5b505050506040513d60208110156127f957600080fd5b5051101561177f5761177f6001600160a01b0384168360001961166c565b60608060008411801561282a5750600083115b1561290b576040805160028082526060820183529091602083019080368337019050509150612857610c1b565b8260008151811061286457fe5b60200260200101906001600160a01b031690816001600160a01b03168152505061288c6112df565b8260018151811061289957fe5b6001600160a01b039290921660209283029190910182015260408051600280825260608201835290929091908301908036833701905050905083816000815181106128e057fe5b60200260200101818152505082816001815181106128fa57fe5b602002602001018181525050612a10565b831561298a576040805160018082528183019092529060208083019080368337019050509150612939610c1b565b8260008151811061294657fe5b6001600160a01b039290921660209283029190910182015260408051600180825281830190925291828101908036833701905050905083816000815181106128fa57fe5b60408051600180825281830190925290602080830190803683370190505091506129b26112df565b826000815181106129bf57fe5b6001600160a01b03929092166020928302919091018201526040805160018082528183019092529182810190803683370190505090508281600081518110612a0357fe5b6020026020010181815250505b9250929050565b6060808215612b8a576040805160018082528183019092529060208083019080368337505060408051600180825281830190925292945090506020808301908036833701905050905084612af85760008411612aa45760405162461bcd60e51b8152600401808060200182810382526046815260200180612e306046913960600191505060405180910390fd5b612aac6112df565b82600081518110612ab957fe5b60200260200101906001600160a01b031690816001600160a01b0316815250508381600081518110612ae757fe5b602002602001018181525050612b85565b8315612b355760405162461bcd60e51b815260040180806020018281038252604d815260200180612de3604d913960600191505060405180910390fd5b612b3d610c1b565b82600081518110612b4a57fe5b60200260200101906001600160a01b031690816001600160a01b0316815250508481600081518110612b7857fe5b6020026020010181815250505b612c62565b6040805160028082526060820183529091602083019080368337019050509150612bb2610c1b565b82600081518110612bbf57fe5b60200260200101906001600160a01b031690816001600160a01b031681525050612be76112df565b82600181518110612bf457fe5b6001600160a01b03929092166020928302919091018201526040805160028082526060820183529092909190830190803683370190505090508481600081518110612c3b57fe5b6020026020010181815250508381600181518110612c5557fe5b6020026020010181815250505b935093915050565b816001600160a01b03166384e9bd7e826040518263ffffffff1660e01b815260040180826001600160a01b03168152602001915050600060405180830381600087803b158015611c2157600080fd5b3b151590565b60608315612cce575081611796565b825115612cde5782518084602001fd5b8160405162461bcd60e51b81526004018080602001828103825283818151815260200191508051906020019080838360005b83811015612d28578181015183820152602001612d10565b50505050905090810190601f168015612d555780820380516001836020036101000a031916815260200191505b509250505060405180910390fdfe7061727365417373657473466f724d6574686f643a205f73656c6563746f7220696e76616c6964416464726573733a20696e73756666696369656e742062616c616e636520666f722063616c6c4f6e6c792074686520496e746567726174696f6e4d616e616765722063616e2063616c6c20746869732066756e6374696f6e5f5f7061727365496e636f6d696e67417373657473466f72526564656d7074696f6e43616c6c733a20546f6f206d616e79206d696e20617373657420616d6f756e7473207370656369666965645f5f7061727365496e636f6d696e67417373657473466f72526564656d7074696f6e43616c6c733a204e6f206d696e20617373657420616d6f756e74207370656369666965645361666545524332303a204552433230206f7065726174696f6e20646964206e6f7420737563636565645361666545524332303a20617070726f76652066726f6d206e6f6e2d7a65726f20746f206e6f6e2d7a65726f20616c6c6f77616e6365a2646970667358221220d525df9a18e7d3e329cec5957e13b0db1b5ee1a10651aec5c3be87c12db6a9b464736f6c634300060c0033416464726573733a20696e73756666696369656e742062616c616e636520666f722063616c6c5361666545524332303a204552433230206f7065726174696f6e20646964206e6f7420737563636565645361666545524332303a20617070726f76652066726f6d206e6f6e2d7a65726f20746f206e6f6e2d7a65726f20616c6c6f77616e6365",
  "devdoc": {
    "author": "Enzyme Council <security@enzyme.finance>",
    "details": "Rewards tokens are not included as spend assets or incoming assets for claimRewards() Rationale: - rewards tokens can be claimed to the vault outside of the IntegrationManager, so no need to enforce policy management or emit an event - rewards tokens can be outside of the asset universe, in which case they cannot be tracked",
    "kind": "dev",
    "methods": {
      "claimRewards(address,bytes,bytes)": {
        "params": {
          "_vaultProxy": "The VaultProxy of the calling fund"
        }
      },
      "getCurveEursLiquidityPool()": {
        "returns": {
          "pool_": "The `CURVE_EURS_LIQUIDITY_POOL` variable value"
        }
      },
      "getCurveGaugeV2RewardsHandlerCrvToken()": {
        "returns": {
          "crvToken_": "The `CURVE_GAUGE_V2_REWARDS_HANDLER_CRV_TOKEN` variable value"
        }
      },
      "getCurveGaugeV2RewardsHandlerMinter()": {
        "returns": {
          "minter_": "The `CURVE_GAUGE_V2_REWARDS_HANDLER_MINTER` variable value"
        }
      },
      "getEursToken()": {
        "returns": {
          "eursToken_": "The `EURS_TOKEN` variable value"
        }
      },
      "getIntegrationManager()": {
        "returns": {
          "integrationManager_": "The `INTEGRATION_MANAGER` variable value"
        }
      },
      "getLiquidityGaugeToken()": {
        "returns": {
          "liquidityGaugeToken_": "The `LIQUIDITY_GAUGE_TOKEN` variable value"
        }
      },
      "getLpToken()": {
        "returns": {
          "lpToken_": "The `LP_TOKEN` variable value"
        }
      },
      "getSeurToken()": {
        "returns": {
          "seurToken_": "The `SEUR_TOKEN` variable value"
        }
      },
      "identifier()": {
        "returns": {
          "identifier_": "The identifer string"
        }
      },
      "lend(address,bytes,bytes)": {
        "params": {
          "_encodedAssetTransferArgs": "Encoded args for expected assets to spend and receive",
          "_encodedCallArgs": "Encoded order parameters",
          "_vaultProxy": "The VaultProxy of the calling fund"
        }
      },
      "lendAndStake(address,bytes,bytes)": {
        "params": {
          "_encodedAssetTransferArgs": "Encoded args for expected assets to spend and receive",
          "_encodedCallArgs": "Encoded order parameters",
          "_vaultProxy": "The VaultProxy of the calling fund"
        }
      },
      "parseAssetsForMethod(bytes4,bytes)": {
        "params": {
          "_encodedCallArgs": "The encoded parameters for the callOnIntegration",
          "_selector": "The function selector for the callOnIntegration"
        },
        "returns": {
          "incomingAssets_": "The assets to receive in the call",
          "minIncomingAssetAmounts_": "The min asset amounts to receive in the call",
          "spendAssetAmounts_": "The max asset amounts to spend in the call",
          "spendAssetsHandleType_": "A type that dictates how to handle granting the adapter access to spend assets (`None` by default)",
          "spendAssets_": "The assets to spend in the call"
        }
      },
      "redeem(address,bytes,bytes)": {
        "params": {
          "_encodedAssetTransferArgs": "Encoded args for expected assets to spend and receive",
          "_encodedCallArgs": "Encoded order parameters",
          "_vaultProxy": "The VaultProxy of the calling fund"
        }
      },
      "stake(address,bytes,bytes)": {
        "params": {
          "_encodedAssetTransferArgs": "Encoded args for expected assets to spend and receive",
          "_encodedCallArgs": "Encoded order parameters",
          "_vaultProxy": "The VaultProxy of the calling fund"
        }
      },
      "unstake(address,bytes,bytes)": {
        "params": {
          "_encodedAssetTransferArgs": "Encoded args for expected assets to spend and receive",
          "_encodedCallArgs": "Encoded order parameters",
          "_vaultProxy": "The VaultProxy of the calling fund"
        }
      },
      "unstakeAndRedeem(address,bytes,bytes)": {
        "params": {
          "_encodedAssetTransferArgs": "Encoded args for expected assets to spend and receive",
          "_encodedCallArgs": "Encoded order parameters",
          "_vaultProxy": "The VaultProxy of the calling fund"
        }
      }
    },
    "title": "CurveLiquidityEursAdapter Contract",
    "version": 1
  },
  "userdoc": {
    "kind": "user",
    "methods": {
      "claimRewards(address,bytes,bytes)": {
        "notice": "Claims rewards from the Curve Minter as well as pool-specific rewards"
      },
      "getCurveEursLiquidityPool()": {
        "notice": "Gets the `CURVE_EURS_LIQUIDITY_POOL` variable"
      },
      "getCurveGaugeV2RewardsHandlerCrvToken()": {
        "notice": "Gets the `CURVE_GAUGE_V2_REWARDS_HANDLER_CRV_TOKEN` variable"
      },
      "getCurveGaugeV2RewardsHandlerMinter()": {
        "notice": "Gets the `CURVE_GAUGE_V2_REWARDS_HANDLER_MINTER` variable"
      },
      "getEursToken()": {
        "notice": "Gets the `EURS_TOKEN` variable"
      },
      "getIntegrationManager()": {
        "notice": "Gets the `INTEGRATION_MANAGER` variable"
      },
      "getLiquidityGaugeToken()": {
        "notice": "Gets the `LIQUIDITY_GAUGE_TOKEN` variable"
      },
      "getLpToken()": {
        "notice": "Gets the `LP_TOKEN` variable"
      },
      "getSeurToken()": {
        "notice": "Gets the `SEUR_TOKEN` variable"
      },
      "identifier()": {
        "notice": "Provides a constant string identifier for an adapter"
      },
      "lend(address,bytes,bytes)": {
        "notice": "Lends assets for eurs LP tokens"
      },
      "lendAndStake(address,bytes,bytes)": {
        "notice": "Lends assets for eurs LP tokens, then stakes the received LP tokens"
      },
      "parseAssetsForMethod(bytes4,bytes)": {
        "notice": "Parses the expected assets to receive from a call on integration"
      },
      "redeem(address,bytes,bytes)": {
        "notice": "Redeems eurs LP tokens"
      },
      "stake(address,bytes,bytes)": {
        "notice": "Stakes eurs LP tokens"
      },
      "unstake(address,bytes,bytes)": {
        "notice": "Unstakes eurs LP tokens"
      },
      "unstakeAndRedeem(address,bytes,bytes)": {
        "notice": "Unstakes eurs LP tokens, then redeems them"
      }
    },
    "notice": "Adapter for liquidity provision in Curve's eurs pool (https://www.curve.fi/eurs)",
    "version": 1
  },
  "storageLayout": {
    "storage": [],
    "types": null
  }
}