{
  "address": "0xa8cf8dA9d66A88923f2aee88A9397868A8721762",
  "abi": [
    {
      "inputs": [
        {
          "internalType": "address",
          "name": "_integrationManager",
          "type": "address"
        },
        {
          "internalType": "address",
          "name": "_addressProvider",
          "type": "address"
        },
        {
          "internalType": "address",
          "name": "_wethToken",
          "type": "address"
        }
      ],
      "stateMutability": "nonpayable",
      "type": "constructor"
    },
    {
      "inputs": [],
      "name": "ADD_TRACKED_ASSETS_SELECTOR",
      "outputs": [
        {
          "internalType": "bytes4",
          "name": "",
          "type": "bytes4"
        }
      ],
      "stateMutability": "view",
      "type": "function"
    },
    {
      "inputs": [],
      "name": "APPROVE_ASSETS_SELECTOR",
      "outputs": [
        {
          "internalType": "bytes4",
          "name": "",
          "type": "bytes4"
        }
      ],
      "stateMutability": "view",
      "type": "function"
    },
    {
      "inputs": [],
      "name": "CLAIM_REWARDS_AND_REINVEST_SELECTOR",
      "outputs": [
        {
          "internalType": "bytes4",
          "name": "",
          "type": "bytes4"
        }
      ],
      "stateMutability": "view",
      "type": "function"
    },
    {
      "inputs": [],
      "name": "CLAIM_REWARDS_AND_SWAP_SELECTOR",
      "outputs": [
        {
          "internalType": "bytes4",
          "name": "",
          "type": "bytes4"
        }
      ],
      "stateMutability": "view",
      "type": "function"
    },
    {
      "inputs": [],
      "name": "CLAIM_REWARDS_SELECTOR",
      "outputs": [
        {
          "internalType": "bytes4",
          "name": "",
          "type": "bytes4"
        }
      ],
      "stateMutability": "view",
      "type": "function"
    },
    {
      "inputs": [],
      "name": "LEND_AND_STAKE_SELECTOR",
      "outputs": [
        {
          "internalType": "bytes4",
          "name": "",
          "type": "bytes4"
        }
      ],
      "stateMutability": "view",
      "type": "function"
    },
    {
      "inputs": [],
      "name": "LEND_SELECTOR",
      "outputs": [
        {
          "internalType": "bytes4",
          "name": "",
          "type": "bytes4"
        }
      ],
      "stateMutability": "view",
      "type": "function"
    },
    {
      "inputs": [],
      "name": "REDEEM_SELECTOR",
      "outputs": [
        {
          "internalType": "bytes4",
          "name": "",
          "type": "bytes4"
        }
      ],
      "stateMutability": "view",
      "type": "function"
    },
    {
      "inputs": [],
      "name": "REMOVE_TRACKED_ASSETS_SELECTOR",
      "outputs": [
        {
          "internalType": "bytes4",
          "name": "",
          "type": "bytes4"
        }
      ],
      "stateMutability": "view",
      "type": "function"
    },
    {
      "inputs": [],
      "name": "STAKE_SELECTOR",
      "outputs": [
        {
          "internalType": "bytes4",
          "name": "",
          "type": "bytes4"
        }
      ],
      "stateMutability": "view",
      "type": "function"
    },
    {
      "inputs": [],
      "name": "TAKE_ORDER_SELECTOR",
      "outputs": [
        {
          "internalType": "bytes4",
          "name": "",
          "type": "bytes4"
        }
      ],
      "stateMutability": "view",
      "type": "function"
    },
    {
      "inputs": [],
      "name": "UNSTAKE_AND_REDEEM_SELECTOR",
      "outputs": [
        {
          "internalType": "bytes4",
          "name": "",
          "type": "bytes4"
        }
      ],
      "stateMutability": "view",
      "type": "function"
    },
    {
      "inputs": [],
      "name": "UNSTAKE_SELECTOR",
      "outputs": [
        {
          "internalType": "bytes4",
          "name": "",
          "type": "bytes4"
        }
      ],
      "stateMutability": "view",
      "type": "function"
    },
    {
      "inputs": [],
      "name": "getAdapterDeployTimestamp",
      "outputs": [
        {
          "internalType": "uint256",
          "name": "",
          "type": "uint256"
        }
      ],
      "stateMutability": "view",
      "type": "function"
    },
    {
      "inputs": [],
      "name": "getAddressProvider",
      "outputs": [
        {
          "internalType": "address",
          "name": "addressProvider_",
          "type": "address"
        }
      ],
      "stateMutability": "view",
      "type": "function"
    },
    {
      "inputs": [],
      "name": "getIntegrationManager",
      "outputs": [
        {
          "internalType": "address",
          "name": "integrationManager_",
          "type": "address"
        }
      ],
      "stateMutability": "view",
      "type": "function"
    },
    {
      "inputs": [],
      "name": "getWethToken",
      "outputs": [
        {
          "internalType": "address",
          "name": "wethToken_",
          "type": "address"
        }
      ],
      "stateMutability": "view",
      "type": "function"
    },
    {
      "inputs": [],
      "name": "identifier",
      "outputs": [
        {
          "internalType": "string",
          "name": "identifier_",
          "type": "string"
        }
      ],
      "stateMutability": "pure",
      "type": "function"
    },
    {
      "inputs": [
        {
          "internalType": "bytes4",
          "name": "_selector",
          "type": "bytes4"
        },
        {
          "internalType": "bytes",
          "name": "_encodedCallArgs",
          "type": "bytes"
        }
      ],
      "name": "parseAssetsForMethod",
      "outputs": [
        {
          "internalType": "enum IIntegrationManager.SpendAssetsHandleType",
          "name": "spendAssetsHandleType_",
          "type": "uint8"
        },
        {
          "internalType": "address[]",
          "name": "spendAssets_",
          "type": "address[]"
        },
        {
          "internalType": "uint256[]",
          "name": "spendAssetAmounts_",
          "type": "uint256[]"
        },
        {
          "internalType": "address[]",
          "name": "incomingAssets_",
          "type": "address[]"
        },
        {
          "internalType": "uint256[]",
          "name": "minIncomingAssetAmounts_",
          "type": "uint256[]"
        }
      ],
      "stateMutability": "view",
      "type": "function"
    },
    {
      "inputs": [
        {
          "internalType": "address",
          "name": "_vaultProxy",
          "type": "address"
        },
        {
          "internalType": "bytes",
          "name": "_encodedCallArgs",
          "type": "bytes"
        },
        {
          "internalType": "bytes",
          "name": "",
          "type": "bytes"
        }
      ],
      "name": "takeOrder",
      "outputs": [],
      "stateMutability": "nonpayable",
      "type": "function"
    },
    {
      "stateMutability": "payable",
      "type": "receive"
    }
  ],
  "transactionHash": "0x1d25f66f969b330083c1c6f5c2b2198bc1878a0cb20606e77ffbb17621be79a9",
  "args": [
    "0x4B37f5DCA5FB2D5548e9EcEe9f98d9Ac95f60774",
    "0x0000000022D53366457F9d5E68Ec105046FC4383",
    "0xc02aaa39b223fe8d0a0e5c4f27ead9083c756cc2"
  ],
  "linkedData": {
    "type": "ADAPTER"
  },
  "solcInputHash": "34b1516e615d6cbcdbaf9542624efee9",
  "bytecode": "0x61010060405234801561001157600080fd5b506040516116f13803806116f18339818101604052606081101561003457600080fd5b50805160208201516040909201516001600160601b0319606092831b81166080524260a05292821b831660c052901b1660e05260805160601c60a05160c05160601c60e05160601c6116296100c8600039806108505280610c495280610c835280610db85280610ebe5280610f345250806106c95280610bdf525080610ae35250806106185280610b7352506116296000f3fe6080604052600436106101235760003560e01c80637998a1c4116100a0578063e4d9047811610064578063e4d90478146105a4578063e7c45690146105b9578063f0753994146105ce578063f7d882b5146105e3578063f8c68934146105f85761012a565b80637998a1c4146104b4578063863e5ad01461053e578063a96de76b14610553578063b23228cf1461057a578063e27a06b51461058f5761012a565b806340da225d116100e757806340da225d1461028157806340f8cfcf146102965780634c252f91146102ab5780635ca62b3c146102dc57806376cc7ac6146102f15761012a565b806303e38a2b1461012f578063080456c114610210578063131461c014610242578063257cb1a3146102575780633ffc15911461026c5761012a565b3661012a57005b600080fd5b34801561013b57600080fd5b5061020e6004803603606081101561015257600080fd5b6001600160a01b03823516919081019060408101602082013564010000000081111561017d57600080fd5b82018360208201111561018f57600080fd5b803590602001918460018302840111640100000000831117156101b157600080fd5b9193909290916020810190356401000000008111156101cf57600080fd5b8201836020820111156101e157600080fd5b8035906020019184600183028401116401000000008311171561020357600080fd5b50909250905061060d565b005b34801561021c57600080fd5b50610225610776565b604080516001600160e01b03199092168252519081900360200190f35b34801561024e57600080fd5b5061022561079a565b34801561026357600080fd5b506102256107be565b34801561027857600080fd5b506102256107e2565b34801561028d57600080fd5b50610225610806565b3480156102a257600080fd5b5061022561082a565b3480156102b757600080fd5b506102c061084e565b604080516001600160a01b039092168252519081900360200190f35b3480156102e857600080fd5b50610225610872565b3480156102fd57600080fd5b5061037f6004803603604081101561031457600080fd5b6001600160e01b0319823516919081019060408101602082013564010000000081111561034057600080fd5b82018360208201111561035257600080fd5b8035906020019184600183028401116401000000008311171561037457600080fd5b509092509050610896565b6040518086600381111561038f57fe5b815260200180602001806020018060200180602001858103855289818151815260200191508051906020019060200280838360005b838110156103dc5781810151838201526020016103c4565b50505050905001858103845288818151815260200191508051906020019060200280838360005b8381101561041b578181015183820152602001610403565b50505050905001858103835287818151815260200191508051906020019060200280838360005b8381101561045a578181015183820152602001610442565b50505050905001858103825286818151815260200191508051906020019060200280838360005b83811015610499578181015183820152602001610481565b50505050905001995050505050505050505060405180910390f35b3480156104c057600080fd5b506104c9610a95565b6040805160208082528351818301528351919283929083019185019080838360005b838110156105035781810151838201526020016104eb565b50505050905090810190601f1680156105305780820380516001836020036101000a031916815260200191505b509250505060405180910390f35b34801561054a57600080fd5b50610225610abd565b34801561055f57600080fd5b50610568610ae1565b60408051918252519081900360200190f35b34801561058657600080fd5b50610225610b05565b34801561059b57600080fd5b50610225610b29565b3480156105b057600080fd5b50610225610b4d565b3480156105c557600080fd5b506102c0610b71565b3480156105da57600080fd5b50610225610b95565b3480156105ef57600080fd5b50610225610bb9565b34801561060457600080fd5b506102c0610bdd565b336001600160a01b037f000000000000000000000000000000000000000000000000000000000000000016146106745760405162461bcd60e51b81526004018080602001828103825260328152602001806115346032913960400191505060405180910390fd5b60008060008060006106bb89898080601f016020809104026020016040519081016040528093929190818152602001838380828437600092019190915250610c0192505050565b9450945094509450945060007f00000000000000000000000000000000000000000000000000000000000000006001600160a01b031663493f4f7460026040518263ffffffff1660e01b81526004018082815260200191505060206040518083038186803b15801561072c57600080fd5b505afa158015610740573d6000803e3d6000fd5b505050506040513d602081101561075657600080fd5b505190506107698b828888888888610c47565b5050505050505050505050565b7f8334eb99be0145865eba9889fca2ee920288090caefff4cc776038e20ad9259a81565b7f29fa046e79524c3c5ac4c01df692c35e217802b2b13b21121b76cf0ef02b138c81565b7f099f75155f0e997bf83a7993a71d5e7e7540bd386fe1e84643a09ce6b412521981565b7ffa7dd04da627f433da73c4355ead9c75682a67a8fc84d3f6170ef0922f402d2481565b7fb9dfbaccbe5cd2a84fdcf1d15f23ef25d23086f5afbaa99516065ed4a5bbc7a381565b7ff658eb804cc1da8af5599b584aaf3d55407a3c721c42641a6a5270e963d782c381565b7f000000000000000000000000000000000000000000000000000000000000000090565b7fdfd5ee0f6067928bf85a7c4430811282840bc99332dda3dab462c02bf95b67cc81565b600060608080806001600160e01b031988166303e38a2b60e01b146108ec5760405162461bcd60e51b81526004018080602001828103825260278152602001806114e76027913960400191505060405180910390fd5b60008060008060006109338c8c8080601f016020809104026020016040519081016040528093929190818152602001838380828437600092019190915250610c0192505050565b9398509196509450925090506001600160a01b0385166109845760405162461bcd60e51b815260040180806020018281038252602e815260200180611566602e913960400191505060405180910390fd5b604080516001808252818301909252906020808301908036833701905050985083896000815181106109b257fe5b6001600160a01b039290921660209283029190910182015260408051600180825281830190925291828101908036833701905050975082886000815181106109f657fe5b6020908102919091010152604080516001808252818301909252908160200160208202803683370190505096508187600081518110610a3157fe5b6001600160a01b03929092166020928302919091018201526040805160018082528183019092529182810190803683370190505095508086600081518110610a7557fe5b602002602001018181525050600299505050505050939792965093509350565b60408051808201909152600e81526d43555256455f45584348414e474560901b602082015290565b7f03e38a2bd7063d45c897edeafc330e71657502dd86434d3c37a489caf116af6981565b7f000000000000000000000000000000000000000000000000000000000000000090565b7f68e30677f607df46e87da13e15b637784cfa62374b653f35ab43d10361a2f83081565b7f848f3a590fb2f9795d1a275009c54c26c53833277c96b90e0ddd01753a1d590681565b7f3377e18acf9e83665eacd6af109261424fca32a298e2fc2e6095ba563fb8390e81565b7f000000000000000000000000000000000000000000000000000000000000000090565b7f1d51f49b5273d9ddbb643dc349fab8d36dbb470209c2ea71033bea49dd311c2781565b7fc29fa9dde84204c2908778afd0613d802d31cf046179b88f6d2b4a4e507ea2d581565b7f000000000000000000000000000000000000000000000000000000000000000090565b60008060008060008580602001905160a0811015610c1e57600080fd5b508051602082015160408301516060840151608090940151929a91995097509195509350915050565b7f00000000000000000000000000000000000000000000000000000000000000006001600160a01b0316846001600160a01b03161415610db6577f00000000000000000000000000000000000000000000000000000000000000006001600160a01b0316632e1a7d4d846040518263ffffffff1660e01b815260040180828152602001915050600060405180830381600087803b158015610ce757600080fd5b505af1158015610cfb573d6000803e3d6000fd5b505060408051631a4c1ca360e01b81526001600160a01b03898116600483015273eeeeeeeeeeeeeeeeeeeeeeeeeeeeeeeeeeeeeeee6024830152868116604483015260648201889052608482018690528b811660a48301529151918a169350631a4c1ca39250869160c480830192602092919082900301818588803b158015610d8357600080fd5b505af1158015610d97573d6000803e3d6000fd5b50505050506040513d6020811015610dae57600080fd5b5061100f9050565b7f00000000000000000000000000000000000000000000000000000000000000006001600160a01b0316826001600160a01b03161415610f6557610dfb848785611018565b60408051631a4c1ca360e01b81526001600160a01b038781166004830152868116602483015273eeeeeeeeeeeeeeeeeeeeeeeeeeeeeeeeeeeeeeee604483015260648201869052608482018490523060a4830152915191881691631a4c1ca39160c4808201926020929091908290030181600087803b158015610e7d57600080fd5b505af1158015610e91573d6000803e3d6000fd5b505050506040513d6020811015610ea757600080fd5b505060408051630d0e30db60e41b815290513031917f00000000000000000000000000000000000000000000000000000000000000006001600160a01b03169163d0e30db0918491600480830192600092919082900301818588803b158015610f0f57600080fd5b505af1158015610f23573d6000803e3d6000fd5b50610f5f9350506001600160a01b037f00000000000000000000000000000000000000000000000000000000000000001691508a9050836110b5565b5061100f565b610f70848785611018565b60408051631a4c1ca360e01b81526001600160a01b03878116600483015286811660248301528481166044830152606482018690526084820184905289811660a4830152915191881691631a4c1ca39160c4808201926020929091908290030181600087803b158015610fe257600080fd5b505af1158015610ff6573d6000803e3d6000fd5b505050506040513d602081101561100c57600080fd5b50505b50505050505050565b60408051636eb1769f60e11b81523060048201526001600160a01b0384811660248301529151839286169163dd62ed3e916044808301926020929190829003018186803b15801561106857600080fd5b505afa15801561107c573d6000803e3d6000fd5b505050506040513d602081101561109257600080fd5b505110156110b0576110b06001600160a01b03841683600019611107565b505050565b604080516001600160a01b038416602482015260448082018490528251808303909101815260649091019091526020810180516001600160e01b031663a9059cbb60e01b1790526110b0908490611216565b80158061118d575060408051636eb1769f60e11b81523060048201526001600160a01b03848116602483015291519185169163dd62ed3e91604480820192602092909190829003018186803b15801561115f57600080fd5b505afa158015611173573d6000803e3d6000fd5b505050506040513d602081101561118957600080fd5b5051155b6111c85760405162461bcd60e51b81526004018080602001828103825260368152602001806115be6036913960400191505060405180910390fd5b604080516001600160a01b038416602482015260448082018490528251808303909101815260649091019091526020810180516001600160e01b031663095ea7b360e01b1790526110b09084905b606061126b826040518060400160405280602081526020017f5361666545524332303a206c6f772d6c6576656c2063616c6c206661696c6564815250856001600160a01b03166112c79092919063ffffffff16565b8051909150156110b05780806020019051602081101561128a57600080fd5b50516110b05760405162461bcd60e51b815260040180806020018281038252602a815260200180611594602a913960400191505060405180910390fd5b60606112d684846000856112e0565b90505b9392505050565b6060824710156113215760405162461bcd60e51b815260040180806020018281038252602681526020018061150e6026913960400191505060405180910390fd5b61132a8561143c565b61137b576040805162461bcd60e51b815260206004820152601d60248201527f416464726573733a2063616c6c20746f206e6f6e2d636f6e7472616374000000604482015290519081900360640190fd5b60006060866001600160a01b031685876040518082805190602001908083835b602083106113ba5780518252601f19909201916020918201910161139b565b6001836020036101000a03801982511681845116808217855250505050505090500191505060006040518083038185875af1925050503d806000811461141c576040519150601f19603f3d011682016040523d82523d6000602084013e611421565b606091505b5091509150611431828286611442565b979650505050505050565b3b151590565b606083156114515750816112d9565b8251156114615782518084602001fd5b8160405162461bcd60e51b81526004018080602001828103825283818151815260200191508051906020019080838360005b838110156114ab578181015183820152602001611493565b50505050905090810190601f1680156114d85780820380516001836020036101000a031916815260200191505b509250505060405180910390fdfe7061727365417373657473466f724d6574686f643a205f73656c6563746f7220696e76616c6964416464726573733a20696e73756666696369656e742062616c616e636520666f722063616c6c4f6e6c792074686520496e746567726174696f6e4d616e616765722063616e2063616c6c20746869732066756e6374696f6e7061727365417373657473466f724d6574686f643a204e6f20706f6f6c20616464726573732070726f76696465645361666545524332303a204552433230206f7065726174696f6e20646964206e6f7420737563636565645361666545524332303a20617070726f76652066726f6d206e6f6e2d7a65726f20746f206e6f6e2d7a65726f20616c6c6f77616e6365a264697066735822122058d897695fe936b5115ec5221ab1a68a8a1b5b35a718f197f6a293070bb8ad1f64736f6c634300060c0033",
  "devdoc": {
    "author": "Enzyme Council <security@enzyme.finance>",
    "kind": "dev",
    "methods": {
      "getAddressProvider()": {
        "returns": {
          "addressProvider_": "The `ADDRESS_PROVIDER` variable value"
        }
      },
      "getIntegrationManager()": {
        "returns": {
          "integrationManager_": "The `INTEGRATION_MANAGER` variable value"
        }
      },
      "getWethToken()": {
        "returns": {
          "wethToken_": "The `WETH_TOKEN` variable value"
        }
      },
      "identifier()": {
        "returns": {
          "identifier_": "The identifer string"
        }
      },
      "parseAssetsForMethod(bytes4,bytes)": {
        "params": {
          "_encodedCallArgs": "The encoded parameters for the callOnIntegration",
          "_selector": "The function selector for the callOnIntegration"
        },
        "returns": {
          "incomingAssets_": "The assets to receive in the call",
          "minIncomingAssetAmounts_": "The min asset amounts to receive in the call",
          "spendAssetAmounts_": "The max asset amounts to spend in the call",
          "spendAssetsHandleType_": "A type that dictates how to handle granting the adapter access to spend assets (`None` by default)",
          "spendAssets_": "The assets to spend in the call"
        }
      },
      "takeOrder(address,bytes,bytes)": {
        "params": {
          "_encodedCallArgs": "Encoded order parameters",
          "_vaultProxy": "The VaultProxy of the calling fund"
        }
      }
    },
    "title": "CurveExchangeAdapter Contract",
    "version": 1
  },
  "userdoc": {
    "kind": "user",
    "methods": {
      "getAddressProvider()": {
        "notice": "Gets the `ADDRESS_PROVIDER` variable"
      },
      "getIntegrationManager()": {
        "notice": "Gets the `INTEGRATION_MANAGER` variable"
      },
      "getWethToken()": {
        "notice": "Gets the `WETH_TOKEN` variable"
      },
      "identifier()": {
        "notice": "Provides a constant string identifier for an adapter"
      },
      "parseAssetsForMethod(bytes4,bytes)": {
        "notice": "Parses the expected assets to receive from a call on integration"
      },
      "takeOrder(address,bytes,bytes)": {
        "notice": "Trades assets on Curve"
      }
    },
    "notice": "Adapter for swapping assets on Curve <https://www.curve.fi/>",
    "version": 1
  },
  "storageLayout": {
    "storage": [],
    "types": null
  }
}