{
  "address": "0xe819b666c7Cccec2e51806862bBB58615dcd84fA",
  "abi": [
    {
      "inputs": [
        {
          "internalType": "address",
          "name": "_buybackVault",
          "type": "address"
        }
      ],
      "stateMutability": "nonpayable",
      "type": "constructor"
    },
    {
      "anonymous": false,
      "inputs": [
        {
          "indexed": true,
          "internalType": "address",
          "name": "newBuybackVault",
          "type": "address"
        }
      ],
      "name": "BuybackVaultSet",
      "type": "event"
    },
    {
      "anonymous": false,
      "inputs": [
        {
          "indexed": false,
          "internalType": "address",
          "name": "prevFundDeployer",
          "type": "address"
        },
        {
          "indexed": false,
          "internalType": "address",
          "name": "nextFundDeployer",
          "type": "address"
        }
      ],
      "name": "CurrentFundDeployerSet",
      "type": "event"
    },
    {
      "anonymous": false,
      "inputs": [
        {
          "indexed": true,
          "internalType": "address",
          "name": "vaultProxy",
          "type": "address"
        },
        {
          "indexed": true,
          "internalType": "address",
          "name": "prevFundDeployer",
          "type": "address"
        },
        {
          "indexed": true,
          "internalType": "address",
          "name": "nextFundDeployer",
          "type": "address"
        },
        {
          "indexed": false,
          "internalType": "address",
          "name": "nextVaultAccessor",
          "type": "address"
        },
        {
          "indexed": false,
          "internalType": "address",
          "name": "nextVaultLib",
          "type": "address"
        },
        {
          "indexed": false,
          "internalType": "uint256",
          "name": "executableTimestamp",
          "type": "uint256"
        }
      ],
      "name": "MigrationCancelled",
      "type": "event"
    },
    {
      "anonymous": false,
      "inputs": [
        {
          "indexed": true,
          "internalType": "address",
          "name": "vaultProxy",
          "type": "address"
        },
        {
          "indexed": true,
          "internalType": "address",
          "name": "prevFundDeployer",
          "type": "address"
        },
        {
          "indexed": true,
          "internalType": "address",
          "name": "nextFundDeployer",
          "type": "address"
        },
        {
          "indexed": false,
          "internalType": "address",
          "name": "nextVaultAccessor",
          "type": "address"
        },
        {
          "indexed": false,
          "internalType": "address",
          "name": "nextVaultLib",
          "type": "address"
        },
        {
          "indexed": false,
          "internalType": "uint256",
          "name": "executableTimestamp",
          "type": "uint256"
        }
      ],
      "name": "MigrationExecuted",
      "type": "event"
    },
    {
      "anonymous": false,
      "inputs": [
        {
          "indexed": false,
          "internalType": "bytes",
          "name": "failureReturnData",
          "type": "bytes"
        },
        {
          "indexed": true,
          "internalType": "address",
          "name": "vaultProxy",
          "type": "address"
        },
        {
          "indexed": true,
          "internalType": "address",
          "name": "prevFundDeployer",
          "type": "address"
        },
        {
          "indexed": true,
          "internalType": "address",
          "name": "nextFundDeployer",
          "type": "address"
        },
        {
          "indexed": false,
          "internalType": "address",
          "name": "nextVaultAccessor",
          "type": "address"
        },
        {
          "indexed": false,
          "internalType": "address",
          "name": "nextVaultLib",
          "type": "address"
        }
      ],
      "name": "MigrationInCancelHookFailed",
      "type": "event"
    },
    {
      "anonymous": false,
      "inputs": [
        {
          "indexed": false,
          "internalType": "bytes",
          "name": "failureReturnData",
          "type": "bytes"
        },
        {
          "indexed": false,
          "internalType": "enum IMigrationHookHandler.MigrationOutHook",
          "name": "hook",
          "type": "uint8"
        },
        {
          "indexed": true,
          "internalType": "address",
          "name": "vaultProxy",
          "type": "address"
        },
        {
          "indexed": true,
          "internalType": "address",
          "name": "prevFundDeployer",
          "type": "address"
        },
        {
          "indexed": true,
          "internalType": "address",
          "name": "nextFundDeployer",
          "type": "address"
        },
        {
          "indexed": false,
          "internalType": "address",
          "name": "nextVaultAccessor",
          "type": "address"
        },
        {
          "indexed": false,
          "internalType": "address",
          "name": "nextVaultLib",
          "type": "address"
        }
      ],
      "name": "MigrationOutHookFailed",
      "type": "event"
    },
    {
      "anonymous": false,
      "inputs": [
        {
          "indexed": true,
          "internalType": "address",
          "name": "vaultProxy",
          "type": "address"
        },
        {
          "indexed": true,
          "internalType": "address",
          "name": "prevFundDeployer",
          "type": "address"
        },
        {
          "indexed": true,
          "internalType": "address",
          "name": "nextFundDeployer",
          "type": "address"
        },
        {
          "indexed": false,
          "internalType": "address",
          "name": "nextVaultAccessor",
          "type": "address"
        },
        {
          "indexed": false,
          "internalType": "address",
          "name": "nextVaultLib",
          "type": "address"
        },
        {
          "indexed": false,
          "internalType": "uint256",
          "name": "executableTimestamp",
          "type": "uint256"
        }
      ],
      "name": "MigrationSignaled",
      "type": "event"
    },
    {
      "anonymous": false,
      "inputs": [
        {
          "indexed": false,
          "internalType": "uint256",
          "name": "prevTimelock",
          "type": "uint256"
        },
        {
          "indexed": false,
          "internalType": "uint256",
          "name": "nextTimelock",
          "type": "uint256"
        }
      ],
      "name": "MigrationTimelockSet",
      "type": "event"
    },
    {
      "anonymous": false,
      "inputs": [
        {
          "indexed": true,
          "internalType": "address",
          "name": "nominatedOwner",
          "type": "address"
        }
      ],
      "name": "NominatedOwnerRemoved",
      "type": "event"
    },
    {
      "anonymous": false,
      "inputs": [
        {
          "indexed": true,
          "internalType": "address",
          "name": "nominatedOwner",
          "type": "address"
        }
      ],
      "name": "NominatedOwnerSet",
      "type": "event"
    },
    {
      "anonymous": false,
      "inputs": [
        {
          "indexed": true,
          "internalType": "address",
          "name": "prevOwner",
          "type": "address"
        },
        {
          "indexed": true,
          "internalType": "address",
          "name": "nextOwner",
          "type": "address"
        }
      ],
      "name": "OwnershipTransferred",
      "type": "event"
    },
    {
      "anonymous": false,
      "inputs": [
        {
          "indexed": false,
          "internalType": "string",
          "name": "_nextSymbol",
          "type": "string"
        }
      ],
      "name": "SharesTokenSymbolSet",
      "type": "event"
    },
    {
      "anonymous": false,
      "inputs": [
        {
          "indexed": true,
          "internalType": "address",
          "name": "fundDeployer",
          "type": "address"
        },
        {
          "indexed": true,
          "internalType": "address",
          "name": "owner",
          "type": "address"
        },
        {
          "indexed": false,
          "internalType": "address",
          "name": "vaultProxy",
          "type": "address"
        },
        {
          "indexed": true,
          "internalType": "address",
          "name": "vaultLib",
          "type": "address"
        },
        {
          "indexed": false,
          "internalType": "address",
          "name": "vaultAccessor",
          "type": "address"
        },
        {
          "indexed": false,
          "internalType": "string",
          "name": "fundName",
          "type": "string"
        }
      ],
      "name": "VaultProxyDeployed",
      "type": "event"
    },
    {
      "inputs": [
        {
          "internalType": "address",
          "name": "_vaultProxy",
          "type": "address"
        },
        {
          "internalType": "bool",
          "name": "_bypassFailure",
          "type": "bool"
        }
      ],
      "name": "cancelMigration",
      "outputs": [],
      "stateMutability": "nonpayable",
      "type": "function"
    },
    {
      "inputs": [],
      "name": "claimOwnership",
      "outputs": [],
      "stateMutability": "nonpayable",
      "type": "function"
    },
    {
      "inputs": [
        {
          "internalType": "address",
          "name": "_vaultLib",
          "type": "address"
        },
        {
          "internalType": "address",
          "name": "_owner",
          "type": "address"
        },
        {
          "internalType": "address",
          "name": "_vaultAccessor",
          "type": "address"
        },
        {
          "internalType": "string",
          "name": "_fundName",
          "type": "string"
        }
      ],
      "name": "deployVaultProxy",
      "outputs": [
        {
          "internalType": "address",
          "name": "vaultProxy_",
          "type": "address"
        }
      ],
      "stateMutability": "nonpayable",
      "type": "function"
    },
    {
      "inputs": [
        {
          "internalType": "address",
          "name": "_vaultProxy",
          "type": "address"
        },
        {
          "internalType": "bool",
          "name": "_bypassFailure",
          "type": "bool"
        }
      ],
      "name": "executeMigration",
      "outputs": [],
      "stateMutability": "nonpayable",
      "type": "function"
    },
    {
      "inputs": [],
      "name": "getBuybackVault",
      "outputs": [
        {
          "internalType": "address",
          "name": "",
          "type": "address"
        }
      ],
      "stateMutability": "view",
      "type": "function"
    },
    {
      "inputs": [],
      "name": "getCurrentFundDeployer",
      "outputs": [
        {
          "internalType": "address",
          "name": "currentFundDeployer_",
          "type": "address"
        }
      ],
      "stateMutability": "view",
      "type": "function"
    },
    {
      "inputs": [
        {
          "internalType": "address",
          "name": "_vaultProxy",
          "type": "address"
        }
      ],
      "name": "getFundDeployerForVaultProxy",
      "outputs": [
        {
          "internalType": "address",
          "name": "fundDeployer_",
          "type": "address"
        }
      ],
      "stateMutability": "view",
      "type": "function"
    },
    {
      "inputs": [
        {
          "internalType": "address",
          "name": "_vaultProxy",
          "type": "address"
        }
      ],
      "name": "getMigrationRequestDetailsForVaultProxy",
      "outputs": [
        {
          "internalType": "address",
          "name": "nextFundDeployer_",
          "type": "address"
        },
        {
          "internalType": "address",
          "name": "nextVaultAccessor_",
          "type": "address"
        },
        {
          "internalType": "address",
          "name": "nextVaultLib_",
          "type": "address"
        },
        {
          "internalType": "uint256",
          "name": "executableTimestamp_",
          "type": "uint256"
        }
      ],
      "stateMutability": "view",
      "type": "function"
    },
    {
      "inputs": [],
      "name": "getMigrationTimelock",
      "outputs": [
        {
          "internalType": "uint256",
          "name": "migrationTimelock_",
          "type": "uint256"
        }
      ],
      "stateMutability": "view",
      "type": "function"
    },
    {
      "inputs": [],
      "name": "getNominatedOwner",
      "outputs": [
        {
          "internalType": "address",
          "name": "nominatedOwner_",
          "type": "address"
        }
      ],
      "stateMutability": "view",
      "type": "function"
    },
    {
      "inputs": [],
      "name": "getOwner",
      "outputs": [
        {
          "internalType": "address",
          "name": "owner_",
          "type": "address"
        }
      ],
      "stateMutability": "view",
      "type": "function"
    },
    {
      "inputs": [],
      "name": "getSharesTokenSymbol",
      "outputs": [
        {
          "internalType": "string",
          "name": "sharesTokenSymbol_",
          "type": "string"
        }
      ],
      "stateMutability": "view",
      "type": "function"
    },
    {
      "inputs": [
        {
          "internalType": "address",
          "name": "_vaultProxy",
          "type": "address"
        }
      ],
      "name": "getTimelockRemainingForMigrationRequest",
      "outputs": [
        {
          "internalType": "uint256",
          "name": "secondsRemaining_",
          "type": "uint256"
        }
      ],
      "stateMutability": "view",
      "type": "function"
    },
    {
      "inputs": [
        {
          "internalType": "address",
          "name": "_vaultProxy",
          "type": "address"
        }
      ],
      "name": "hasExecutableMigrationRequest",
      "outputs": [
        {
          "internalType": "bool",
          "name": "hasExecutableRequest_",
          "type": "bool"
        }
      ],
      "stateMutability": "view",
      "type": "function"
    },
    {
      "inputs": [
        {
          "internalType": "address",
          "name": "_vaultProxy",
          "type": "address"
        }
      ],
      "name": "hasMigrationRequest",
      "outputs": [
        {
          "internalType": "bool",
          "name": "hasMigrationRequest_",
          "type": "bool"
        }
      ],
      "stateMutability": "view",
      "type": "function"
    },
    {
      "inputs": [],
      "name": "removeNominatedOwner",
      "outputs": [],
      "stateMutability": "nonpayable",
      "type": "function"
    },
    {
      "inputs": [
        {
          "internalType": "address",
          "name": "_newVault",
          "type": "address"
        }
      ],
      "name": "setBuybackVault",
      "outputs": [],
      "stateMutability": "nonpayable",
      "type": "function"
    },
    {
      "inputs": [
        {
          "internalType": "address",
          "name": "_nextFundDeployer",
          "type": "address"
        }
      ],
      "name": "setCurrentFundDeployer",
      "outputs": [],
      "stateMutability": "nonpayable",
      "type": "function"
    },
    {
      "inputs": [
        {
          "internalType": "uint256",
          "name": "_nextTimelock",
          "type": "uint256"
        }
      ],
      "name": "setMigrationTimelock",
      "outputs": [],
      "stateMutability": "nonpayable",
      "type": "function"
    },
    {
      "inputs": [
        {
          "internalType": "address",
          "name": "_nextNominatedOwner",
          "type": "address"
        }
      ],
      "name": "setNominatedOwner",
      "outputs": [],
      "stateMutability": "nonpayable",
      "type": "function"
    },
    {
      "inputs": [
        {
          "internalType": "string",
          "name": "_nextSymbol",
          "type": "string"
        }
      ],
      "name": "setSharesTokenSymbol",
      "outputs": [],
      "stateMutability": "nonpayable",
      "type": "function"
    },
    {
      "inputs": [
        {
          "internalType": "address",
          "name": "_vaultProxy",
          "type": "address"
        },
        {
          "internalType": "address",
          "name": "_nextVaultAccessor",
          "type": "address"
        },
        {
          "internalType": "address",
          "name": "_nextVaultLib",
          "type": "address"
        },
        {
          "internalType": "bool",
          "name": "_bypassFailure",
          "type": "bool"
        }
      ],
      "name": "signalMigration",
      "outputs": [],
      "stateMutability": "nonpayable",
      "type": "function"
    }
  ],
  "transactionHash": "0x16eebab0f8b2687722ecccc2e65c997b902ebce56703fe7643075839c1055cfd",
  "args": [
    "0x1910EE81d212Dc84A0Ad10BC36F159587bbe0da3"
  ],
  "solcInputHash": "34b1516e615d6cbcdbaf9542624efee9",
  "bytecode": "0x60806040523480156200001157600080fd5b5060405162002c5438038062002c54833981810160405260208110156200003757600080fd5b50516202a3006004908155600280546001600160a01b0319163317905560408051808201909152818152632922292360e11b602091909101908152620000819160059190620000a8565b50600380546001600160a01b0319166001600160a01b039290921691909117905562000144565b828054600181600116156101000203166002900490600052602060002090601f016020900481019282601f10620000eb57805160ff19168380011785556200011b565b828001600101855582156200011b579182015b828111156200011b578251825591602001919060010190620000fe565b50620001299291506200012d565b5090565b5b808211156200012957600081556001016200012e565b612b0080620001546000396000f3fe60806040523480156200001157600080fd5b5060043610620001605760003560e01c806377a8c62411620000c9578063893d20e81162000087578063893d20e8146200046e57806397af705014620004785780639c9d48da14620004a1578063b47b060014620004d2578063d0449d3d1462000554578063d15f9b9c146200057d5762000160565b806377a8c62414620003aa5780637862505c14620003d35780637c77b2ed14620003fc5780637dad9fc814620004065780638156eecf14620004645762000160565b80633d7c74f811620001235780633d7c74f814620002915780634e71e0c814620002ba57806366231cea14620002c45780636b59efa31462000301578063728e17a0146200030b578063757bc0dd14620003345762000160565b80631df419f7146200016557806322a0c08b1462000187578063288b6a36146200023a5780632fa0c161146200024457806338b3eb1b1462000260575b600080fd5b62000185600480360360208110156200017d57600080fd5b5035620005be565b005b6200021e600480360360808110156200019f57600080fd5b6001600160a01b0382358116926020810135821692604082013590921691810190608081016060820135640100000000811115620001dc57600080fd5b820183602082011115620001ef57600080fd5b803590602001918460018302840111640100000000831117156200021257600080fd5b50909250905062000691565b604080516001600160a01b039092168252519081900360200190f35b6200021e62000972565b6200024e62000981565b60408051918252519081900360200190f35b62000185600480360360408110156200027857600080fd5b506001600160a01b038135169060200135151562000987565b6200021e60048036036020811015620002a957600080fd5b50356001600160a01b031662000cd9565b6200018562000cfa565b620002ed60048036036020811015620002dc57600080fd5b50356001600160a01b031662000da3565b604080519115158252519081900360200190f35b6200021e62000dd6565b62000185600480360360208110156200032357600080fd5b50356001600160a01b031662000de5565b62000185600480360360208110156200034c57600080fd5b8101906020810181356401000000008111156200036857600080fd5b8201836020820111156200037b57600080fd5b803590602001918460018302840111640100000000831117156200039e57600080fd5b50909250905062000f5f565b6200024e60048036036020811015620003c257600080fd5b50356001600160a01b03166200101d565b6200018560048036036020811015620003eb57600080fd5b50356001600160a01b031662001066565b6200021e620010fb565b6200042f600480360360208110156200041e57600080fd5b50356001600160a01b03166200110a565b604080516001600160a01b03958616815293851660208501529190931682820152606082019290925290519081900360800190f35b62000185620011a2565b6200021e6200127e565b62000185600480360360208110156200049057600080fd5b50356001600160a01b03166200128d565b6200018560048036036040811015620004b957600080fd5b506001600160a01b038135169060200135151562001418565b620004dc62001661565b6040805160208082528351818301528351919283929083019185019080838360005b8381101562000518578181015183820152602001620004fe565b50505050905090810190601f168015620005465780820380516001836020036101000a031916815260200191505b509250505060405180910390f35b620002ed600480360360208110156200056c57600080fd5b50356001600160a01b0316620016fb565b62000185600480360360808110156200059557600080fd5b506001600160a01b0381358116916020810135821691604082013516906060013515156200171b565b6002546001600160a01b03163314620006095760405162461bcd60e51b815260040180806020018281038252602e8152602001806200279c602e913960400191505060405180910390fd5b600454818114156200064d5760405162461bcd60e51b815260040180806020018281038252603b81526020018062002a90603b913960400191505060405180910390fd5b6004829055604080518281526020810184905281517f481ce28a1145a5d9b59e2d1d7eba33bc3350124def8fdc91032238d343ad5361929181900390910190a15050565b600080546001600160a01b03163314620006dd5760405162461bcd60e51b8152600401808060200182810382526034815260200180620026166034913960400191505060405180910390fd5b620006e88462001969565b620007255760405162461bcd60e51b815260040180806020018281038252602d815260200180620027fb602d913960400191505060405180910390fd5b6060635c9a6d3760e01b8686868660405160240180856001600160a01b03168152602001846001600160a01b0316815260200180602001828103825284848281815260200192508082843760008382015260408051601f909201601f1990811690940182810390940182529283526020810180516001600160e01b03166001600160e01b0319909b169a909a17909952505196975087968e9650620007d1955093506200218392505050565b8080602001836001600160a01b03168152602001828103825284818151815260200191508051906020019080838360005b838110156200081c57818101518382015260200162000802565b50505050905090810190601f1680156200084a5780820380516001836020036101000a031916815260200191505b509350505050604051809103906000f0801580156200086d573d6000803e3d6000fd5b5091506200087b8262001969565b620008b85760405162461bcd60e51b815260040180806020018281038252602c8152602001806200285e602c913960400191505060405180910390fd5b6001600160a01b0380831660008181526006602090815260409182902080546001600160a01b031916339081179091558251938452898516918401919091526060918301828152918301879052928a811692908a169184917fa50560b448ad796ef60adfeffe1c19ed34daf94c2aa6905d0e209017dbc19f589188918c918c918c9160808201848480828437600083820152604051601f909101601f191690920182900397509095505050505050a4505095945050505050565b6001546001600160a01b031690565b60045490565b6200099162002191565b506001600160a01b03808316600090815260076020908152604091829020825160808101845281548516808252600183015486169382019390935260028201549094169284019290925260039091015460608301528062000a245760405162461bcd60e51b815260040180806020018281038252603d81526020018062002a53603d913960400191505060405180910390fd5b336001600160a01b0382161462000a6d5760405162461bcd60e51b8152600401808060200182810382526045815260200180620029286045913960600191505060405180910390fd5b6000546001600160a01b0382811691161462000abb5760405162461bcd60e51b815260040180806020018281038252604f8152602001806200274d604f913960600191505060405180910390fd5b60608201514281111562000b015760405162461bcd60e51b8152600401808060200182810382526038815260200180620028b56038913960400191505060405180910390fd5b6001600160a01b0380861660009081526006602090815260409182902054908601519186015192169162000b3c600289858886868d6200196f565b876001600160a01b0316634140d607826040518263ffffffff1660e01b815260040180826001600160a01b03168152602001915050600060405180830381600087803b15801562000b8c57600080fd5b505af115801562000ba1573d6000803e3d6000fd5b50505050876001600160a01b031663ab9253ac836040518263ffffffff1660e01b815260040180826001600160a01b03168152602001915050600060405180830381600087803b15801562000bf557600080fd5b505af115801562000c0a573d6000803e3d6000fd5b5050506001600160a01b03808a1660009081526006602090815260408083208054948b166001600160a01b0319958616179055600790915281208054831681556001810180548416905560028101805490931690925560039182015562000c78915089858886868d6200196f565b604080516001600160a01b038481168252838116602083015281830187905291518288169286811692908c16917fad6fb3d36e2cda148dfd43203c1a40c0da9a9baa662ae9d6c3b0c3e4a9d6a6359181900360600190a45050505050505050565b6001600160a01b03808216600090815260066020526040902054165b919050565b6001546001600160a01b031633811462000d465760405162461bcd60e51b815260040180806020018281038252603e815260200180620029a8603e913960400191505060405180910390fd5b600180546001600160a01b0319908116909155600280546001600160a01b0384811693821684179092556040519116919082907f8be0079c531659141344cd1fd0a4f28419497f9722a3daafe3b4186f6b6457e090600090a35050565b6001600160a01b038116600090815260076020526040812060030154801580159062000dcf5750804210155b9392505050565b6003546001600160a01b031690565b6002546001600160a01b0316331462000e305760405162461bcd60e51b815260040180806020018281038252602e8152602001806200279c602e913960400191505060405180910390fd5b6001600160a01b03811662000e775760405162461bcd60e51b8152600401808060200182810382526036815260200180620028286036913960400191505060405180910390fd5b6002546001600160a01b038281169116141562000ec65760405162461bcd60e51b815260040180806020018281038252603b815260200180620028ed603b913960400191505060405180910390fd5b6001546001600160a01b038281169116141562000f155760405162461bcd60e51b815260040180806020018281038252603b8152602001806200296d603b913960400191505060405180910390fd5b600180546001600160a01b0319166001600160a01b0383169081179091556040517f132c19de901bb4ed8403c34734b6c841d5dc57745824da452a52433519ea5abf90600090a250565b6002546001600160a01b0316331462000faa5760405162461bcd60e51b815260040180806020018281038252602e8152602001806200279c602e913960400191505060405180910390fd5b62000fb860058383620021b8565b507ff0115712c23b609855a28d7b8963c6d16d732ae388b11e5d4ec6d5eae4ad8698828260405180806020018281038252848482818152602001925080828437600083820152604051601f909101601f19169092018290039550909350505050a15050565b6001600160a01b038116600090815260076020526040812060030154806200104a57600091505062000cf5565b8042106200105d57600091505062000cf5565b42900392915050565b6002546001600160a01b03163314620010b15760405162461bcd60e51b815260040180806020018281038252602e8152602001806200279c602e913960400191505060405180910390fd5b600380546001600160a01b0319166001600160a01b0383169081179091556040517f49e94f33a5714648c99c03d3c96612ffea74b1df6b5cefe68ed97448187ad07c90600090a250565b6000546001600160a01b031690565b6000806000806200111a62002191565b506001600160a01b03808616600090815260076020908152604091829020825160808101845281548516815260018201548516928101929092526002810154909316918101919091526003909101546060820181905215620011995780600001518160200151826040015183606001519450945094509450506200119b565b505b9193509193565b6002546001600160a01b03163314620011ed5760405162461bcd60e51b815260040180806020018281038252602e8152602001806200279c602e913960400191505060405180910390fd5b6001546001600160a01b031680620012375760405162461bcd60e51b8152600401808060200182810382526031815260200180620027ca6031913960400191505060405180910390fd5b600180546001600160a01b03191690556040516001600160a01b038216907fe4136584a5e8bb85d66301f3ce8b11cc2e5a8bea3979f10ea2451353849acc4790600090a250565b6002546001600160a01b031690565b6002546001600160a01b03163314620012d85760405162461bcd60e51b815260040180806020018281038252602e8152602001806200279c602e913960400191505060405180910390fd5b6001600160a01b0381166200131f5760405162461bcd60e51b8152600401808060200182810382526039815260200180620026ee6039913960400191505060405180910390fd5b6200132a8162001969565b620013675760405162461bcd60e51b815260040180806020018281038252603681526020018062002a1d6036913960400191505060405180910390fd5b6000546001600160a01b03908116908216811415620013b85760405162461bcd60e51b81526004018080602001828103825260488152602001806200267a6048913960600191505060405180910390fd5b600080546001600160a01b0319166001600160a01b03848116918217909255604080519284168352602083019190915280517f44cf34a26ccbaa8a20e6098a1278e28682572ec9921eb43d8dab274a503e92f59281900390910190a15050565b6200142262002191565b506001600160a01b038083166000908152600760209081526040918290208251608081018452815485168082526001830154861693820193909352600282015490941692840192909252600390910154606083015280620014b55760405162461bcd60e51b815260040180806020018281038252602c815260200180620026c2602c913960400191505060405180910390fd5b336001600160a01b03821614806200153e575060408051633ef03e7560e11b815233600482015290516001600160a01b03861691637de07cea916024808301926020929190829003018186803b1580156200150f57600080fd5b505afa15801562001524573d6000803e3d6000fd5b505050506040513d60208110156200153b57600080fd5b50515b6200157b5760405162461bcd60e51b8152600401808060200182810382526026815260200180620027276026913960400191505060405180910390fd5b6001600160a01b0380851660009081526006602090815260408083205486830151878301516060890151600790955292852080546001600160a01b03199081168255600182018054821690556002820180549091169055600301949094559093169290620015f0600489868887878d6200196f565b6200160088858786868c62001d08565b604080516001600160a01b038581168252848116602083015281830184905291518288169287811692908c16917f9851a8f232c380eb2c1065756776e37d85d4fe0c8cb4005b0d72c749bfef923e9181900360600190a45050505050505050565b60058054604080516020601f6002600019610100600188161502019095169490940493840181900481028201810190925282815260609390929091830182828015620016f15780601f10620016c557610100808354040283529160200191620016f1565b820191906000526020600020905b815481529060010190602001808311620016d357829003601f168201915b5050505050905090565b6001600160a01b0316600090815260076020526040902060030154151590565b6000546001600160a01b03163314620017665760405162461bcd60e51b8152600401808060200182810382526034815260200180620026166034913960400191505060405180910390fd5b620017718362001969565b620017ae5760405162461bcd60e51b81526004018080602001828103825260308152602001806200264a6030913960400191505060405180910390fd5b6001600160a01b038085166000908152600660205260409020541680620018075760405162461bcd60e51b815260040180806020018281038252602b8152602001806200288a602b913960400191505060405180910390fd5b336001600160a01b038216811415620018525760405162461bcd60e51b8152600401808060200182810382526037815260200180620029e66037913960400191505060405180910390fd5b6200186460008784848989896200196f565b600454604080516080810182526001600160a01b038085168252888116602080840191825289831684860190815242909601606085018181528d85166000908152600790935295909120935184549084166001600160a01b03199182161785559151600180860180549286169285169290921790915595516002850180549190941692169190911790915591516003909101559062001909908885858a8a8a6200196f565b604080516001600160a01b038881168252878116602083015281830184905291518285169286811692908b16917fb519c42fdb88f83f098814813f2ebff14fbf14f3e68b054e5a98834c69d54bfb9181900360600190a450505050505050565b3b151590565b60006060866001600160a01b0316633f84c12c60e01b8a8a898989604051602401808660048111156200199e57fe5b8152602001856001600160a01b03168152602001846001600160a01b03168152602001836001600160a01b03168152602001826001600160a01b0316815260200195505050505050604051602081830303815290604052906001600160e01b0319166020820180516001600160e01b0383818316178352505050506040518082805190602001908083835b6020831062001a4a5780518252601f19909201916020918201910162001a29565b6001836020036101000a0380198251168184511680821785525050505050509050019150506000604051808303816000865af19150503d806000811462001aae576040519150601f19603f3d011682016040523d82523d6000602084013e62001ab3565b606091505b50915091508162001cfd578262001aca8a62001fd8565b826040516020018083805190602001908083835b6020831062001aff5780518252601f19909201916020918201910162001ade565b51815160209384036101000a600019018019909216911617905285519190930192850191508083835b6020831062001b495780518252601f19909201916020918201910162001b28565b6001836020036101000a038019825116818451168082178552505050505050905001925050506040516020818303038152906040529062001c0b5760405162461bcd60e51b81526004018080602001828103825283818151815260200191508051906020019080838360005b8381101562001bcf57818101518382015260200162001bb5565b50505050905090810190601f16801562001bfd5780820380516001836020036101000a031916815260200191505b509250505060405180910390fd5b50856001600160a01b0316876001600160a01b0316896001600160a01b03167fbf0ae6830883bd89855f2e7b17a2924b5de0b2b3d4a8834d7c2c0d5dc53447db848d8a8a604051808060200185600481111562001c6457fe5b8152602001846001600160a01b03168152602001836001600160a01b03168152602001828103825286818151815260200191508051906020019080838360005b8381101562001cbe57818101518382015260200162001ca4565b50505050905090810190601f16801562001cec5780820380516001836020036101000a031916815260200191505b509550505050505060405180910390a45b505050505050505050565b604080516001600160a01b038881166024830152878116604483015285811660648301528481166084808401919091528351808403909101815260a490920183526020820180516001600160e01b031663df369ba760e01b17815292518251600094606094938a169392918291908083835b6020831062001d9b5780518252601f19909201916020918201910162001d7a565b6001836020036101000a0380198251168184511680821785525050505050509050019150506000604051808303816000865af19150503d806000811462001dff576040519150601f19603f3d011682016040523d82523d6000602084013e62001e04565b606091505b50915091508162001fce57828160405160200180807f4d6967726174696f6e4f757443616e63656c486f6f6b3a20000000000000000081525060180182805190602001908083835b6020831062001e6d5780518252601f19909201916020918201910162001e4c565b6001836020036101000a0380198251168184511680821785525050505050509050019150506040516020818303038152906040529062001ef05760405162461bcd60e51b815260206004820181815283516024840152835190928392604490910191908501908083836000831562001bcf57818101518382015260200162001bb5565b50856001600160a01b0316876001600160a01b0316896001600160a01b03167f7c79070aa51adb676fb9c8d0f7a1f841ff9cf514444b37c95297ed1c52547b328489896040518080602001846001600160a01b03168152602001836001600160a01b03168152602001828103825285818151815260200191508051906020019080838360005b8381101562001f9057818101518382015260200162001f76565b50505050905090810190601f16801562001fbe5780820380516001836020036101000a031916815260200191505b5094505050505060405180910390a45b5050505050505050565b6060600082600481111562001fe957fe5b14156200202b575060408051808201909152601c81527f4d6967726174696f6e4f7574486f6f6b2e5072655369676e616c3a2000000000602082015262000cf5565b60018260048111156200203a57fe5b14156200207c575060408051808201909152601d81527f4d6967726174696f6e4f7574486f6f6b2e506f73745369676e616c3a20000000602082015262000cf5565b60028260048111156200208b57fe5b1415620020cd575060408051808201909152601d81527f4d6967726174696f6e4f7574486f6f6b2e5072654d6967726174653a20000000602082015262000cf5565b6003826004811115620020dc57fe5b14156200211e575060408051808201909152601e81527f4d6967726174696f6e4f7574486f6f6b2e506f73744d6967726174653a200000602082015262000cf5565b60048260048111156200212d57fe5b14156200216f575060408051808201909152601d81527f4d6967726174696f6e4f7574486f6f6b2e506f737443616e63656c3a20000000602082015262000cf5565b505060408051602081019091526000815290565b6103c1806200225583390190565b60408051608081018252600080825260208201819052918101829052606081019190915290565b828054600181600116156101000203166002900490600052602060002090601f016020900481019282601f10620021fb5782800160ff198235161785556200222b565b828001600101855582156200222b579182015b828111156200222b5782358255916020019190600101906200220e565b50620022399291506200223d565b5090565b5b808211156200223957600081556001016200223e56fe608060405234801561001057600080fd5b506040516103c13803806103c18339818101604052604081101561003357600080fd5b810190808051604051939291908464010000000082111561005357600080fd5b90830190602082018581111561006857600080fd5b825164010000000081118282018810171561008257600080fd5b82525081516020918201929091019080838360005b838110156100af578181015183820152602001610097565b50505050905090810190601f1680156100dc5780820380516001836020036101000a031916815260200191505b5060408181526020928301516352d1902d60e01b835290519094506001600160a01b03851693506352d1902d92600480840193919291829003018186803b15801561012657600080fd5b505afa15801561013a573d6000803e3d6000fd5b505050506040513d602081101561015057600080fd5b50517f540571591e920d31b4eb3f49354acdc29e7943d36df58734e8727d88e251a524146101af5760405162461bcd60e51b815260040180806020018281038252602581526020018061039c6025913960400191505060405180910390fd5b807f360894a13ba1a3210667c828492db98dca3e2076cc3735a920a3ca505d382bbc5560006060826001600160a01b0316846040518082805190602001908083835b602083106102105780518252601f1990920191602091820191016101f1565b6001836020036101000a038019825116818451168082178552505050505050905001915050600060405180830381855af49150503d8060008114610270576040519150601f19603f3d011682016040523d82523d6000602084013e610275565b606091505b50915091508181906103055760405162461bcd60e51b81526004018080602001828103825283818151815260200191508051906020019080838360005b838110156102ca5781810151838201526020016102b2565b50505050905090810190601f1680156102f75780820380516001836020036101000a031916815260200191505b509250505060405180910390fd5b50505050506084806103186000396000f3fe60806040527f360894a13ba1a3210667c828492db98dca3e2076cc3735a920a3ca505d382bbc543660008037600080366000846127105a03f43d806000803e818015604957816000f35b816000fdfea26469706673582212201cbde889c4935442518ca5aa3dc4b7440e3282618fe6a968de0897722454bb6464736f6c634300060c0033636f6e7374727563746f723a205f7661756c744c6962206e6f7420636f6d70617469626c654f6e6c79207468652063757272656e742046756e644465706c6f7965722063616e2063616c6c20746869732066756e6374696f6e7369676e616c4d6967726174696f6e3a204e6f6e2d636f6e7472616374205f6e6578745661756c744163636573736f7273657443757272656e7446756e644465706c6f7965723a205f6e65787446756e644465706c6f79657220697320616c72656164792063757272656e7446756e644465706c6f79657263616e63656c4d6967726174696f6e3a204e6f206d6967726174696f6e20726571756573742065786973747373657443757272656e7446756e644465706c6f7965723a205f6e65787446756e644465706c6f7965722063616e6e6f7420626520656d70747963616e63656c4d6967726174696f6e3a204e6f7420616e20616c6c6f7765642063616c6c6572657865637574654d6967726174696f6e3a20546865207461726765742046756e644465706c6f796572206973206e6f206c6f6e676572207468652063757272656e742046756e644465706c6f7965724f6e6c792074686520636f6e7472616374206f776e65722063616e2063616c6c20746869732066756e6374696f6e72656d6f76654e6f6d696e617465644f776e65723a205468657265206973206e6f206e6f6d696e61746564206f776e65726465706c6f795661756c7450726f78793a204e6f6e2d636f6e7472616374205f7661756c744163636573736f727365744e6f6d696e617465644f776e65723a205f6e6578744e6f6d696e617465644f776e65722063616e6e6f7420626520656d7074796465706c6f795661756c7450726f78793a204e6f20636f6465206174206e6577207661756c742070726f78797369676e616c4d6967726174696f6e3a205f7661756c7450726f787920646f6573206e6f74206578697374657865637574654d6967726174696f6e3a20546865206d6967726174696f6e2074696d656c6f636b20686173206e6f7420656c61707365647365744e6f6d696e617465644f776e65723a205f6e6578744e6f6d696e617465644f776e657220697320616c726561647920746865206f776e6572657865637574654d6967726174696f6e3a204f6e6c7920746865207461726765742046756e644465706c6f7965722063616e2063616c6c20746869732066756e6374696f6e7365744e6f6d696e617465644f776e65723a205f6e6578744e6f6d696e617465644f776e657220697320616c7265616479206e6f6d696e61746564636c61696d4f776e6572736869703a204f6e6c7920746865206e6f6d696e617465644f776e65722063616e2063616c6c20746869732066756e6374696f6e7369676e616c4d6967726174696f6e3a2043616e206f6e6c79206d69677261746520746f2061206e65772046756e644465706c6f79657273657443757272656e7446756e644465706c6f7965723a204e6f6e2d636f6e7472616374205f6e65787446756e644465706c6f796572657865637574654d6967726174696f6e3a204e6f206d6967726174696f6e20726571756573742065786973747320666f72205f7661756c7450726f78797365744d6967726174696f6e54696d656c6f636b3a205f6e65787454696d656c6f636b206973207468652063757272656e742074696d656c6f636ba2646970667358221220843259ae6c5e3c46aab92cc7b814e8d03b1d0a1a0d0010338cbc9b06b309c91c64736f6c634300060c0033",
  "devdoc": {
    "author": "Enzyme Council <security@enzyme.finance>",
    "details": "DO NOT EDIT CONTRACT",
    "kind": "dev",
    "methods": {
      "cancelMigration(address,bool)": {
        "details": "Because this function must also be callable by a permissioned migrator, it has an extra migration hook to the nextFundDeployer for the case where cancelMigration() is called directly (rather than via the nextFundDeployer).",
        "params": {
          "_bypassFailure": "True if a failure in either migration hook should be ignored",
          "_vaultProxy": "The VaultProxy contract for which to cancel the migration request"
        }
      },
      "deployVaultProxy(address,address,address,string)": {
        "details": "Input validation should be handled by the VaultProxy during deployment",
        "params": {
          "_fundName": "The name of the fund",
          "_owner": "The account to set as the VaultProxy's owner",
          "_vaultAccessor": "The account to set as the VaultProxy's permissioned accessor",
          "_vaultLib": "The VaultLib library with which to instantiate the VaultProxy"
        }
      },
      "executeMigration(address,bool)": {
        "params": {
          "_bypassFailure": "True if a failure in either migration hook should be ignored",
          "_vaultProxy": "The VaultProxy contract for which to execute the migration request"
        }
      },
      "getCurrentFundDeployer()": {
        "returns": {
          "currentFundDeployer_": "The current FundDeployer contract address"
        }
      },
      "getFundDeployerForVaultProxy(address)": {
        "params": {
          "_vaultProxy": "The VaultProxy instance"
        },
        "returns": {
          "fundDeployer_": "The FundDeployer contract address"
        }
      },
      "getMigrationRequestDetailsForVaultProxy(address)": {
        "params": {
          "_vaultProxy": "The VaultProxy instance"
        },
        "returns": {
          "executableTimestamp_": "The timestamp at which the migration request can be executed",
          "nextFundDeployer_": "The FundDeployer contract address from which the migration request was made",
          "nextVaultAccessor_": "The account that will be the next `accessor` on the VaultProxy",
          "nextVaultLib_": "The next VaultLib library contract address to set on the VaultProxy"
        }
      },
      "getMigrationTimelock()": {
        "returns": {
          "migrationTimelock_": "The timelock value (in seconds)"
        }
      },
      "getNominatedOwner()": {
        "returns": {
          "nominatedOwner_": "The account that is nominated to be the owner"
        }
      },
      "getOwner()": {
        "returns": {
          "owner_": "The account that is the owner"
        }
      },
      "getSharesTokenSymbol()": {
        "returns": {
          "sharesTokenSymbol_": "The `symbol` value"
        }
      },
      "getTimelockRemainingForMigrationRequest(address)": {
        "params": {
          "_vaultProxy": "The VaultProxy instance"
        },
        "returns": {
          "secondsRemaining_": "The number of seconds remaining on the timelock"
        }
      },
      "hasExecutableMigrationRequest(address)": {
        "params": {
          "_vaultProxy": "The VaultProxy instance"
        },
        "returns": {
          "hasExecutableRequest_": "True if a migration request exists and is executable"
        }
      },
      "hasMigrationRequest(address)": {
        "params": {
          "_vaultProxy": "The VaultProxy instance"
        },
        "returns": {
          "hasMigrationRequest_": "True if a migration request exists"
        }
      },
      "setCurrentFundDeployer(address)": {
        "params": {
          "_nextFundDeployer": "The address of the FundDeployer contract"
        }
      },
      "setMigrationTimelock(uint256)": {
        "params": {
          "_nextTimelock": "The number of seconds for the new timelock"
        }
      },
      "setNominatedOwner(address)": {
        "details": "Does not prohibit overwriting the current nominatedOwner",
        "params": {
          "_nextNominatedOwner": "The account to nominate"
        }
      },
      "setSharesTokenSymbol(string)": {
        "params": {
          "_nextSymbol": "The symbol value to set"
        }
      },
      "signalMigration(address,address,address,bool)": {
        "params": {
          "_bypassFailure": "True if a failure in either migration hook should be ignored",
          "_nextVaultAccessor": "The account that will be the next `accessor` on the VaultProxy",
          "_nextVaultLib": "The next VaultLib library contract address to set on the VaultProxy",
          "_vaultProxy": "The VaultProxy contract for which to signal migration"
        }
      }
    },
    "title": "Dispatcher Contract",
    "version": 1
  },
  "userdoc": {
    "kind": "user",
    "methods": {
      "cancelMigration(address,bool)": {
        "notice": "Cancels a pending migration request"
      },
      "claimOwnership()": {
        "notice": "Claim ownership of the contract"
      },
      "deployVaultProxy(address,address,address,string)": {
        "notice": "Deploys a VaultProxy"
      },
      "executeMigration(address,bool)": {
        "notice": "Executes a pending migration request"
      },
      "getCurrentFundDeployer()": {
        "notice": "Gets the current FundDeployer that is allowed to deploy and migrate funds"
      },
      "getFundDeployerForVaultProxy(address)": {
        "notice": "Gets the FundDeployer with which a given VaultProxy is associated"
      },
      "getMigrationRequestDetailsForVaultProxy(address)": {
        "notice": "Gets the details of a pending migration request for a given VaultProxy"
      },
      "getMigrationTimelock()": {
        "notice": "Gets the amount of time that must pass between signaling and executing a migration"
      },
      "getNominatedOwner()": {
        "notice": "Gets the account that is nominated to be the next owner of this contract"
      },
      "getOwner()": {
        "notice": "Gets the owner of this contract"
      },
      "getSharesTokenSymbol()": {
        "notice": "Gets the shares token `symbol` value for use in VaultProxy instances"
      },
      "getTimelockRemainingForMigrationRequest(address)": {
        "notice": "Gets the time remaining until the migration request of a given VaultProxy can be executed"
      },
      "hasExecutableMigrationRequest(address)": {
        "notice": "Checks whether a migration request that is executable exists for a given VaultProxy"
      },
      "hasMigrationRequest(address)": {
        "notice": "Checks whether a migration request exists for a given VaultProxy"
      },
      "removeNominatedOwner()": {
        "notice": "Revoke the nomination of a new contract owner"
      },
      "setCurrentFundDeployer(address)": {
        "notice": "Set a new FundDeployer for use within the contract"
      },
      "setMigrationTimelock(uint256)": {
        "notice": "Sets a new migration timelock"
      },
      "setNominatedOwner(address)": {
        "notice": "Nominate a new contract owner"
      },
      "setSharesTokenSymbol(string)": {
        "notice": "Sets a new `symbol` value for VaultProxy instances"
      },
      "signalMigration(address,address,address,bool)": {
        "notice": "Signals a migration by creating a migration request"
      }
    },
    "notice": "The top-level contract linking multiple releases. It handles the deployment of new VaultProxy instances, and the regulation of fund migration from a previous release to the current one. It can also be referred to for access-control based on this contract's owner.",
    "version": 1
  },
  "storageLayout": {
    "storage": [
      {
        "astId": 8203,
        "contract": "contracts/persistent/dispatcher/Dispatcher.sol:Dispatcher",
        "label": "currentFundDeployer",
        "offset": 0,
        "slot": "0",
        "type": "t_address"
      },
      {
        "astId": 8205,
        "contract": "contracts/persistent/dispatcher/Dispatcher.sol:Dispatcher",
        "label": "nominatedOwner",
        "offset": 0,
        "slot": "1",
        "type": "t_address"
      },
      {
        "astId": 8207,
        "contract": "contracts/persistent/dispatcher/Dispatcher.sol:Dispatcher",
        "label": "owner",
        "offset": 0,
        "slot": "2",
        "type": "t_address"
      },
      {
        "astId": 8209,
        "contract": "contracts/persistent/dispatcher/Dispatcher.sol:Dispatcher",
        "label": "buybackVault",
        "offset": 0,
        "slot": "3",
        "type": "t_address"
      },
      {
        "astId": 8211,
        "contract": "contracts/persistent/dispatcher/Dispatcher.sol:Dispatcher",
        "label": "migrationTimelock",
        "offset": 0,
        "slot": "4",
        "type": "t_uint256"
      },
      {
        "astId": 8213,
        "contract": "contracts/persistent/dispatcher/Dispatcher.sol:Dispatcher",
        "label": "sharesTokenSymbol",
        "offset": 0,
        "slot": "5",
        "type": "t_string_storage"
      },
      {
        "astId": 8217,
        "contract": "contracts/persistent/dispatcher/Dispatcher.sol:Dispatcher",
        "label": "vaultProxyToFundDeployer",
        "offset": 0,
        "slot": "6",
        "type": "t_mapping(t_address,t_address)"
      },
      {
        "astId": 8221,
        "contract": "contracts/persistent/dispatcher/Dispatcher.sol:Dispatcher",
        "label": "vaultProxyToMigrationRequest",
        "offset": 0,
        "slot": "7",
        "type": "t_mapping(t_address,t_struct(MigrationRequest)8201_storage)"
      }
    ],
    "types": {
      "t_address": {
        "encoding": "inplace",
        "label": "address",
        "numberOfBytes": "20"
      },
      "t_mapping(t_address,t_address)": {
        "encoding": "mapping",
        "key": "t_address",
        "label": "mapping(address => address)",
        "numberOfBytes": "32",
        "value": "t_address"
      },
      "t_mapping(t_address,t_struct(MigrationRequest)8201_storage)": {
        "encoding": "mapping",
        "key": "t_address",
        "label": "mapping(address => struct Dispatcher.MigrationRequest)",
        "numberOfBytes": "32",
        "value": "t_struct(MigrationRequest)8201_storage"
      },
      "t_string_storage": {
        "encoding": "bytes",
        "label": "string",
        "numberOfBytes": "32"
      },
      "t_struct(MigrationRequest)8201_storage": {
        "encoding": "inplace",
        "label": "struct Dispatcher.MigrationRequest",
        "members": [
          {
            "astId": 8194,
            "contract": "contracts/persistent/dispatcher/Dispatcher.sol:Dispatcher",
            "label": "nextFundDeployer",
            "offset": 0,
            "slot": "0",
            "type": "t_address"
          },
          {
            "astId": 8196,
            "contract": "contracts/persistent/dispatcher/Dispatcher.sol:Dispatcher",
            "label": "nextVaultAccessor",
            "offset": 0,
            "slot": "1",
            "type": "t_address"
          },
          {
            "astId": 8198,
            "contract": "contracts/persistent/dispatcher/Dispatcher.sol:Dispatcher",
            "label": "nextVaultLib",
            "offset": 0,
            "slot": "2",
            "type": "t_address"
          },
          {
            "astId": 8200,
            "contract": "contracts/persistent/dispatcher/Dispatcher.sol:Dispatcher",
            "label": "executableTimestamp",
            "offset": 0,
            "slot": "3",
            "type": "t_uint256"
          }
        ],
        "numberOfBytes": "128"
      },
      "t_uint256": {
        "encoding": "inplace",
        "label": "uint256",
        "numberOfBytes": "32"
      }
    }
  }
}