{
  "address": "0x492Ba86AEF75c137B6a0249fb81abdf6c9542aE9",
  "abi": [
    {
      "inputs": [
        {
          "internalType": "address",
          "name": "_feeManager",
          "type": "address"
        }
      ],
      "stateMutability": "nonpayable",
      "type": "constructor"
    },
    {
      "anonymous": false,
      "inputs": [
        {
          "indexed": true,
          "internalType": "address",
          "name": "comptrollerProxy",
          "type": "address"
        },
        {
          "indexed": false,
          "internalType": "uint256",
          "name": "rate",
          "type": "uint256"
        }
      ],
      "name": "FundSettingsAdded",
      "type": "event"
    },
    {
      "anonymous": false,
      "inputs": [
        {
          "indexed": true,
          "internalType": "address",
          "name": "payer",
          "type": "address"
        }
      ],
      "name": "PayerWhitelistAdded",
      "type": "event"
    },
    {
      "anonymous": false,
      "inputs": [
        {
          "indexed": true,
          "internalType": "address",
          "name": "payer",
          "type": "address"
        }
      ],
      "name": "PayerWhitelistRemoved",
      "type": "event"
    },
    {
      "anonymous": false,
      "inputs": [
        {
          "indexed": true,
          "internalType": "address",
          "name": "comptrollerProxy",
          "type": "address"
        },
        {
          "indexed": true,
          "internalType": "address",
          "name": "payer",
          "type": "address"
        },
        {
          "indexed": false,
          "internalType": "uint256",
          "name": "sharesQuantity",
          "type": "uint256"
        }
      ],
      "name": "Settled",
      "type": "event"
    },
    {
      "inputs": [
        {
          "internalType": "address",
          "name": "",
          "type": "address"
        },
        {
          "internalType": "address",
          "name": "",
          "type": "address"
        }
      ],
      "name": "activateForFund",
      "outputs": [],
      "stateMutability": "nonpayable",
      "type": "function"
    },
    {
      "inputs": [
        {
          "internalType": "address",
          "name": "_comptrollerProxy",
          "type": "address"
        },
        {
          "internalType": "bytes",
          "name": "_settingsData",
          "type": "bytes"
        }
      ],
      "name": "addFundSettings",
      "outputs": [],
      "stateMutability": "nonpayable",
      "type": "function"
    },
    {
      "inputs": [
        {
          "internalType": "address",
          "name": "_payer",
          "type": "address"
        }
      ],
      "name": "addPayerWhitelist",
      "outputs": [],
      "stateMutability": "nonpayable",
      "type": "function"
    },
    {
      "inputs": [],
      "name": "getFeeActivationTimestamp",
      "outputs": [
        {
          "internalType": "uint256",
          "name": "",
          "type": "uint256"
        }
      ],
      "stateMutability": "view",
      "type": "function"
    },
    {
      "inputs": [],
      "name": "getFeeManager",
      "outputs": [
        {
          "internalType": "address",
          "name": "feeManager_",
          "type": "address"
        }
      ],
      "stateMutability": "view",
      "type": "function"
    },
    {
      "inputs": [
        {
          "internalType": "address",
          "name": "_comptrollerProxy",
          "type": "address"
        }
      ],
      "name": "getRateForFund",
      "outputs": [
        {
          "internalType": "uint256",
          "name": "rate_",
          "type": "uint256"
        }
      ],
      "stateMutability": "view",
      "type": "function"
    },
    {
      "inputs": [],
      "name": "getSettlementType",
      "outputs": [
        {
          "internalType": "enum IFeeManager.SettlementType",
          "name": "settlementType_",
          "type": "uint8"
        }
      ],
      "stateMutability": "view",
      "type": "function"
    },
    {
      "inputs": [],
      "name": "identifier",
      "outputs": [
        {
          "internalType": "string",
          "name": "identifier_",
          "type": "string"
        }
      ],
      "stateMutability": "pure",
      "type": "function"
    },
    {
      "inputs": [],
      "name": "implementedHooks",
      "outputs": [
        {
          "internalType": "enum IFeeManager.FeeHook[]",
          "name": "implementedHooksForSettle_",
          "type": "uint8[]"
        },
        {
          "internalType": "enum IFeeManager.FeeHook[]",
          "name": "implementedHooksForUpdate_",
          "type": "uint8[]"
        },
        {
          "internalType": "bool",
          "name": "usesGavOnSettle_",
          "type": "bool"
        },
        {
          "internalType": "bool",
          "name": "usesGavOnUpdate_",
          "type": "bool"
        }
      ],
      "stateMutability": "view",
      "type": "function"
    },
    {
      "inputs": [
        {
          "internalType": "address",
          "name": "_payer",
          "type": "address"
        }
      ],
      "name": "isPayerWhitelisted",
      "outputs": [
        {
          "internalType": "bool",
          "name": "",
          "type": "bool"
        }
      ],
      "stateMutability": "view",
      "type": "function"
    },
    {
      "inputs": [
        {
          "internalType": "address",
          "name": "",
          "type": "address"
        },
        {
          "internalType": "address",
          "name": "",
          "type": "address"
        }
      ],
      "name": "payout",
      "outputs": [
        {
          "internalType": "bool",
          "name": "",
          "type": "bool"
        }
      ],
      "stateMutability": "nonpayable",
      "type": "function"
    },
    {
      "inputs": [
        {
          "internalType": "address",
          "name": "_payer",
          "type": "address"
        }
      ],
      "name": "removePayerWhitelist",
      "outputs": [],
      "stateMutability": "nonpayable",
      "type": "function"
    },
    {
      "inputs": [
        {
          "internalType": "address",
          "name": "_comptrollerProxy",
          "type": "address"
        },
        {
          "internalType": "address",
          "name": "",
          "type": "address"
        },
        {
          "internalType": "enum IFeeManager.FeeHook",
          "name": "",
          "type": "uint8"
        },
        {
          "internalType": "bytes",
          "name": "_settlementData",
          "type": "bytes"
        },
        {
          "internalType": "uint256",
          "name": "",
          "type": "uint256"
        }
      ],
      "name": "settle",
      "outputs": [
        {
          "internalType": "enum IFeeManager.SettlementType",
          "name": "settlementType_",
          "type": "uint8"
        },
        {
          "internalType": "address",
          "name": "payer_",
          "type": "address"
        },
        {
          "internalType": "uint256",
          "name": "sharesDue_",
          "type": "uint256"
        }
      ],
      "stateMutability": "nonpayable",
      "type": "function"
    },
    {
      "inputs": [
        {
          "internalType": "address",
          "name": "",
          "type": "address"
        },
        {
          "internalType": "address",
          "name": "",
          "type": "address"
        },
        {
          "internalType": "enum IFeeManager.FeeHook",
          "name": "",
          "type": "uint8"
        },
        {
          "internalType": "bytes",
          "name": "",
          "type": "bytes"
        },
        {
          "internalType": "uint256",
          "name": "",
          "type": "uint256"
        }
      ],
      "name": "update",
      "outputs": [],
      "stateMutability": "nonpayable",
      "type": "function"
    }
  ],
  "transactionHash": "0x625f01359f52eb41afea4759b48bdd20fbd9b397be2fd8053bed9dc8448c1ce4",
  "args": [
    "0x0546043FFf4533A8EEA5279034e1bF6362ec20D1"
  ],
  "linkedData": {
    "type": "FEE",
    "FEE_buybackWhitelist": true
  },
  "solcInputHash": "34b1516e615d6cbcdbaf9542624efee9",
  "bytecode": "0x60e060405234801561001057600080fd5b50604051610d89380380610d898339818101604052602081101561003357600080fd5b50516001600160601b0319606082901b166080524260a0819052600360f81b60c0526001600160a01b03909116906003610cea61009f6000398061084a528061095b525080610a2f52508061059752806106d1528061088552806109885280610ad35250610cea6000f3fe608060405234801561001057600080fd5b50600436106100ea5760003560e01c80637998a1c41161008c5780639a786662116100665780639a78666214610461578063b78b481314610469578063cbf54bb214610497578063f2d638261461054a576100ea565b80637998a1c4146103955780637bdd5b1d146104125780639714574c1461043b576100ea565b80633146d058116100c85780633146d0581461023e5780633eecc2bf1461026c57806341892d7e146102a45780636a29d94e1461036f576100ea565b80630b065be0146100ef5780630f5f6b4f14610129578063233faf5f146101ab575b600080fd5b6101156004803603602081101561010557600080fd5b50356001600160a01b031661056e565b604080519115158252519081900360200190f35b6101a96004803603604081101561013f57600080fd5b6001600160a01b03823516919081019060408101602082013564010000000081111561016a57600080fd5b82018360208201111561017c57600080fd5b8035906020019184600183028401116401000000008311171561019e57600080fd5b50909250905061058c565b005b6101a9600480360360a08110156101c157600080fd5b6001600160a01b03823581169260208101359091169160ff60408301351691908101906080810160608201356401000000008111156101ff57600080fd5b82018360208201111561021157600080fd5b8035906020019184600183028401116401000000008311171561023357600080fd5b91935091503561069b565b6101a96004803603604081101561025457600080fd5b506001600160a01b03813581169160200135166106a3565b6102926004803603602081101561028257600080fd5b50356001600160a01b03166106a7565b60408051918252519081900360200190f35b610337600480360360a08110156102ba57600080fd5b6001600160a01b03823581169260208101359091169160ff60408301351691908101906080810160608201356401000000008111156102f857600080fd5b82018360208201111561030a57600080fd5b8035906020019184600183028401116401000000008311171561032c57600080fd5b9193509150356106c2565b6040518084600681111561034757fe5b8152602001836001600160a01b03168152602001828152602001935050505060405180910390f35b6101a96004803603602081101561038557600080fd5b50356001600160a01b031661087a565b61039d61092d565b6040805160208082528351818301528351919283929083019185019080838360005b838110156103d75781810151838201526020016103bf565b50505050905090810190601f1680156104045780820380516001836020036101000a031916815260200191505b509250505060405180910390f35b61041a610959565b6040518082600681111561042a57fe5b815260200191505060405180910390f35b6101a96004803603602081101561045157600080fd5b50356001600160a01b031661097d565b610292610a2d565b6101156004803603604081101561047f57600080fd5b506001600160a01b0381358116916020013516610a51565b61049f610a5a565b60405180806020018060200185151581526020018415158152602001838103835287818151815260200191508051906020019060200280838360005b838110156104f35781810151838201526020016104db565b50505050905001838103825286818151815260200191508051906020019060200280838360005b8381101561053257818101518382015260200161051a565b50505050905001965050505050505060405180910390f35b610552610ad1565b604080516001600160a01b039092168252519081900360200190f35b6001600160a01b031660009081526020819052604090205460ff1690565b336001600160a01b037f000000000000000000000000000000000000000000000000000000000000000016146105f35760405162461bcd60e51b8152600401808060200182810382526025815260200180610c4b6025913960400191505060405180910390fd5b60008282602081101561060557600080fd5b50359050806106455760405162461bcd60e51b8152600401808060200182810382526024815260200180610c916024913960400191505060405180910390fd5b6001600160a01b038416600081815260016020908152604091829020849055815184815291517f90b7d1516011c1da1279f3ae0ed052b1416e7c373d4ec40cf515aa53c5f839df9281900390910190a250505050565b505050505050565b5050565b6001600160a01b031660009081526001602052604090205490565b60008080336001600160a01b037f0000000000000000000000000000000000000000000000000000000000000000161461072d5760405162461bcd60e51b8152600401808060200182810382526025815260200180610c4b6025913960400191505060405180910390fd5b600061076e87878080601f016020809104026020016040519081016040528093929190818152602001838380828437600092019190915250610af592505050565b6001600160a01b03831660009081526020819052604090205492955092505060ff16156107a65760008060009350935093505061086e565b6001600160a01b038a166000908152600160205260409020546107e46107d4670de0b6b3a764000083610b29565b6107de8484610b8a565b90610be3565b9250826107fd576000806000945094509450505061086e565b836001600160a01b03168b6001600160a01b03167f7e79a2206061184e05985ae0578dec52f817756a441996f984cdc817efc25a68856040518082815260200191505060405180910390a37f0000000000000000000000000000000000000000000000000000000000000000945050505b96509650969350505050565b336001600160a01b037f000000000000000000000000000000000000000000000000000000000000000016146108e15760405162461bcd60e51b8152600401808060200182810382526025815260200180610c4b6025913960400191505060405180910390fd5b6001600160a01b038116600081815260208190526040808220805460ff19166001179055517faa0e9100f973660a79dca7e4920e97aa3d552337b468b83ef5f54bc2f823530d9190a250565b60408051808201909152601281527122a72a2920a721a2afa920aa22afa12aa92760711b602082015290565b7f000000000000000000000000000000000000000000000000000000000000000090565b336001600160a01b037f000000000000000000000000000000000000000000000000000000000000000016146109e45760405162461bcd60e51b8152600401808060200182810382526025815260200180610c4b6025913960400191505060405180910390fd5b6001600160a01b038116600081815260208190526040808220805460ff19169055517fd51e82eaff33a5c5fb421b48653be389552281a56dda3ba08b32b1e5985511a09190a250565b7f000000000000000000000000000000000000000000000000000000000000000090565b60005b92915050565b604080516001808252818301909252606091829160009182919060208083019080368337019050509350600384600081518110610a9357fe5b60200260200101906005811115610aa657fe5b90816005811115610ab357fe5b90525050604080516000808252602082019092529394909250829150565b7f000000000000000000000000000000000000000000000000000000000000000090565b6000806000838060200190516060811015610b0f57600080fd5b508051602082015160409092015190969195509350915050565b600082820183811015610b83576040805162461bcd60e51b815260206004820152601b60248201527f536166654d6174683a206164646974696f6e206f766572666c6f770000000000604482015290519081900360640190fd5b9392505050565b600082610b9957506000610a54565b82820282848281610ba657fe5b0414610b835760405162461bcd60e51b8152600401808060200182810382526021815260200180610c706021913960400191505060405180910390fd5b6000808211610c39576040805162461bcd60e51b815260206004820152601a60248201527f536166654d6174683a206469766973696f6e206279207a65726f000000000000604482015290519081900360640190fd5b818381610c4257fe5b04939250505056fe4f6e6c7920746865204665654d616e6765722063616e206d616b6520746869732063616c6c536166654d6174683a206d756c7469706c69636174696f6e206f766572666c6f7761646446756e6453657474696e67733a204665652072617465206d757374206265203e30a26469706673582212203f750da4917fb380495c42fd717168416d74e8bb464d40e5b9ad3b3f515c99b464736f6c634300060c0033",
  "devdoc": {
    "author": "Enzyme Council <security@enzyme.finance>",
    "kind": "dev",
    "methods": {
      "activateForFund(address,address)": {
        "details": "Unimplemented by default, may be overrode."
      },
      "addFundSettings(address,bytes)": {
        "params": {
          "_comptrollerProxy": "The ComptrollerProxy of the fund",
          "_settingsData": "Encoded settings to apply to the policy for a fund"
        }
      },
      "getFeeManager()": {
        "returns": {
          "feeManager_": "The `FEE_MANAGER` variable value"
        }
      },
      "getRateForFund(address)": {
        "params": {
          "_comptrollerProxy": "The ComptrollerProxy contract for the fund"
        },
        "returns": {
          "rate_": "The `rate` variable value"
        }
      },
      "getSettlementType()": {
        "returns": {
          "settlementType_": "The `SETTLEMENT_TYPE` variable value"
        }
      },
      "identifier()": {
        "returns": {
          "identifier_": "The identifier string"
        }
      },
      "implementedHooks()": {
        "details": "Used only during fee registration",
        "returns": {
          "implementedHooksForSettle_": "The hooks during which settle() is implemented",
          "implementedHooksForUpdate_": "The hooks during which update() is implemented",
          "usesGavOnSettle_": "True if GAV is used during the settle() implementation",
          "usesGavOnUpdate_": "True if GAV is used during the update() implementation"
        }
      },
      "payout(address,address)": {
        "details": "Returns false by default, can be overridden by fee"
      },
      "settle(address,address,uint8,bytes,uint256)": {
        "params": {
          "_comptrollerProxy": "The ComptrollerProxy of the fund",
          "_settlementData": "Encoded args to use in calculating the settlement"
        },
        "returns": {
          "payer_": "The payer of shares due",
          "settlementType_": "The type of settlement",
          "sharesDue_": "The amount of shares due"
        }
      },
      "update(address,address,uint8,bytes,uint256)": {
        "details": "Unimplemented by default, can be overridden by fee"
      }
    },
    "title": "EntranceRateBurnFee Contract",
    "version": 1
  },
  "userdoc": {
    "kind": "user",
    "methods": {
      "activateForFund(address,address)": {
        "notice": "Allows Fee to run logic during fund activation"
      },
      "addFundSettings(address,bytes)": {
        "notice": "Add the fee settings for a fund"
      },
      "getFeeManager()": {
        "notice": "Gets the `FEE_MANAGER` variable"
      },
      "getRateForFund(address)": {
        "notice": "Gets the `rate` variable for a fund"
      },
      "getSettlementType()": {
        "notice": "Gets the `SETTLEMENT_TYPE` variable"
      },
      "identifier()": {
        "notice": "Provides a constant string identifier for a fee"
      },
      "implementedHooks()": {
        "notice": "Gets the hooks that are implemented by the fee"
      },
      "payout(address,address)": {
        "notice": "Runs payout logic for a fee that utilizes shares outstanding as its settlement type"
      },
      "settle(address,address,uint8,bytes,uint256)": {
        "notice": "Settles the fee"
      },
      "update(address,address,uint8,bytes,uint256)": {
        "notice": "Update fee state after all settlement has occurred during a given fee hook"
      }
    },
    "notice": "An EntranceRateFee that burns the fee shares",
    "version": 1
  },
  "storageLayout": {
    "storage": [
      {
        "astId": 18344,
        "contract": "contracts/release/extensions/fee-manager/fees/EntranceRateBurnFee.sol:EntranceRateBurnFee",
        "label": "payerWhitelist",
        "offset": 0,
        "slot": "0",
        "type": "t_mapping(t_address,t_bool)"
      },
      {
        "astId": 18100,
        "contract": "contracts/release/extensions/fee-manager/fees/EntranceRateBurnFee.sol:EntranceRateBurnFee",
        "label": "comptrollerProxyToRate",
        "offset": 0,
        "slot": "1",
        "type": "t_mapping(t_address,t_uint256)"
      }
    ],
    "types": {
      "t_address": {
        "encoding": "inplace",
        "label": "address",
        "numberOfBytes": "20"
      },
      "t_bool": {
        "encoding": "inplace",
        "label": "bool",
        "numberOfBytes": "1"
      },
      "t_mapping(t_address,t_bool)": {
        "encoding": "mapping",
        "key": "t_address",
        "label": "mapping(address => bool)",
        "numberOfBytes": "32",
        "value": "t_bool"
      },
      "t_mapping(t_address,t_uint256)": {
        "encoding": "mapping",
        "key": "t_address",
        "label": "mapping(address => uint256)",
        "numberOfBytes": "32",
        "value": "t_uint256"
      },
      "t_uint256": {
        "encoding": "inplace",
        "label": "uint256",
        "numberOfBytes": "32"
      }
    }
  }
}