{
  "address": "0x217912B16c8A00C2D9F2fDFCA94127ca37cFe948",
  "abi": [
    {
      "inputs": [
        {
          "internalType": "address",
          "name": "_dispatcher",
          "type": "address"
        },
        {
          "internalType": "address",
          "name": "_vaultLib",
          "type": "address"
        },
        {
          "internalType": "address[]",
          "name": "_vaultCallContracts",
          "type": "address[]"
        },
        {
          "internalType": "bytes4[]",
          "name": "_vaultCallSelectors",
          "type": "bytes4[]"
        }
      ],
      "stateMutability": "nonpayable",
      "type": "constructor"
    },
    {
      "anonymous": false,
      "inputs": [
        {
          "indexed": false,
          "internalType": "address",
          "name": "comptrollerLib",
          "type": "address"
        }
      ],
      "name": "ComptrollerLibSet",
      "type": "event"
    },
    {
      "anonymous": false,
      "inputs": [
        {
          "indexed": true,
          "internalType": "address",
          "name": "creator",
          "type": "address"
        },
        {
          "indexed": false,
          "internalType": "address",
          "name": "comptrollerProxy",
          "type": "address"
        },
        {
          "indexed": true,
          "internalType": "address",
          "name": "denominationAsset",
          "type": "address"
        },
        {
          "indexed": false,
          "internalType": "uint256",
          "name": "sharesActionTimelock",
          "type": "uint256"
        },
        {
          "indexed": false,
          "internalType": "bytes",
          "name": "feeManagerConfigData",
          "type": "bytes"
        },
        {
          "indexed": false,
          "internalType": "bytes",
          "name": "policyManagerConfigData",
          "type": "bytes"
        },
        {
          "indexed": true,
          "internalType": "bool",
          "name": "forMigration",
          "type": "bool"
        }
      ],
      "name": "ComptrollerProxyDeployed",
      "type": "event"
    },
    {
      "anonymous": false,
      "inputs": [
        {
          "indexed": true,
          "internalType": "address",
          "name": "creator",
          "type": "address"
        },
        {
          "indexed": false,
          "internalType": "address",
          "name": "comptrollerProxy",
          "type": "address"
        },
        {
          "indexed": false,
          "internalType": "address",
          "name": "vaultProxy",
          "type": "address"
        },
        {
          "indexed": true,
          "internalType": "address",
          "name": "fundOwner",
          "type": "address"
        },
        {
          "indexed": false,
          "internalType": "string",
          "name": "fundName",
          "type": "string"
        },
        {
          "indexed": true,
          "internalType": "address",
          "name": "denominationAsset",
          "type": "address"
        },
        {
          "indexed": false,
          "internalType": "uint256",
          "name": "sharesActionTimelock",
          "type": "uint256"
        },
        {
          "indexed": false,
          "internalType": "bytes",
          "name": "feeManagerConfigData",
          "type": "bytes"
        },
        {
          "indexed": false,
          "internalType": "bytes",
          "name": "policyManagerConfigData",
          "type": "bytes"
        }
      ],
      "name": "NewFundCreated",
      "type": "event"
    },
    {
      "anonymous": false,
      "inputs": [
        {
          "indexed": true,
          "internalType": "enum IFundDeployer.ReleaseStatus",
          "name": "prevStatus",
          "type": "uint8"
        },
        {
          "indexed": true,
          "internalType": "enum IFundDeployer.ReleaseStatus",
          "name": "nextStatus",
          "type": "uint8"
        }
      ],
      "name": "ReleaseStatusSet",
      "type": "event"
    },
    {
      "anonymous": false,
      "inputs": [
        {
          "indexed": true,
          "internalType": "address",
          "name": "contractAddress",
          "type": "address"
        },
        {
          "indexed": false,
          "internalType": "bytes4",
          "name": "selector",
          "type": "bytes4"
        }
      ],
      "name": "VaultCallDeregistered",
      "type": "event"
    },
    {
      "anonymous": false,
      "inputs": [
        {
          "indexed": true,
          "internalType": "address",
          "name": "contractAddress",
          "type": "address"
        },
        {
          "indexed": false,
          "internalType": "bytes4",
          "name": "selector",
          "type": "bytes4"
        }
      ],
      "name": "VaultCallRegistered",
      "type": "event"
    },
    {
      "inputs": [
        {
          "internalType": "address",
          "name": "_vaultProxy",
          "type": "address"
        }
      ],
      "name": "cancelMigration",
      "outputs": [],
      "stateMutability": "nonpayable",
      "type": "function"
    },
    {
      "inputs": [
        {
          "internalType": "address",
          "name": "_vaultProxy",
          "type": "address"
        }
      ],
      "name": "cancelMigrationEmergency",
      "outputs": [],
      "stateMutability": "nonpayable",
      "type": "function"
    },
    {
      "inputs": [
        {
          "internalType": "address",
          "name": "_denominationAsset",
          "type": "address"
        },
        {
          "internalType": "uint256",
          "name": "_sharesActionTimelock",
          "type": "uint256"
        },
        {
          "internalType": "bytes",
          "name": "_feeManagerConfigData",
          "type": "bytes"
        },
        {
          "internalType": "bytes",
          "name": "_policyManagerConfigData",
          "type": "bytes"
        }
      ],
      "name": "createMigratedFundConfig",
      "outputs": [
        {
          "internalType": "address",
          "name": "comptrollerProxy_",
          "type": "address"
        }
      ],
      "stateMutability": "nonpayable",
      "type": "function"
    },
    {
      "inputs": [
        {
          "internalType": "address",
          "name": "_fundOwner",
          "type": "address"
        },
        {
          "internalType": "string",
          "name": "_fundName",
          "type": "string"
        },
        {
          "internalType": "address",
          "name": "_denominationAsset",
          "type": "address"
        },
        {
          "internalType": "uint256",
          "name": "_sharesActionTimelock",
          "type": "uint256"
        },
        {
          "internalType": "bytes",
          "name": "_feeManagerConfigData",
          "type": "bytes"
        },
        {
          "internalType": "bytes",
          "name": "_policyManagerConfigData",
          "type": "bytes"
        }
      ],
      "name": "createNewFund",
      "outputs": [
        {
          "internalType": "address",
          "name": "comptrollerProxy_",
          "type": "address"
        },
        {
          "internalType": "address",
          "name": "vaultProxy_",
          "type": "address"
        }
      ],
      "stateMutability": "nonpayable",
      "type": "function"
    },
    {
      "inputs": [
        {
          "internalType": "address[]",
          "name": "_contracts",
          "type": "address[]"
        },
        {
          "internalType": "bytes4[]",
          "name": "_selectors",
          "type": "bytes4[]"
        }
      ],
      "name": "deregisterVaultCalls",
      "outputs": [],
      "stateMutability": "nonpayable",
      "type": "function"
    },
    {
      "inputs": [
        {
          "internalType": "address",
          "name": "_vaultProxy",
          "type": "address"
        }
      ],
      "name": "executeMigration",
      "outputs": [],
      "stateMutability": "nonpayable",
      "type": "function"
    },
    {
      "inputs": [
        {
          "internalType": "address",
          "name": "_vaultProxy",
          "type": "address"
        }
      ],
      "name": "executeMigrationEmergency",
      "outputs": [],
      "stateMutability": "nonpayable",
      "type": "function"
    },
    {
      "inputs": [],
      "name": "getBuybackVault",
      "outputs": [
        {
          "internalType": "address",
          "name": "",
          "type": "address"
        }
      ],
      "stateMutability": "view",
      "type": "function"
    },
    {
      "inputs": [],
      "name": "getComptrollerLib",
      "outputs": [
        {
          "internalType": "address",
          "name": "comptrollerLib_",
          "type": "address"
        }
      ],
      "stateMutability": "view",
      "type": "function"
    },
    {
      "inputs": [],
      "name": "getCreator",
      "outputs": [
        {
          "internalType": "address",
          "name": "creator_",
          "type": "address"
        }
      ],
      "stateMutability": "view",
      "type": "function"
    },
    {
      "inputs": [],
      "name": "getDispatcher",
      "outputs": [
        {
          "internalType": "address",
          "name": "dispatcher_",
          "type": "address"
        }
      ],
      "stateMutability": "view",
      "type": "function"
    },
    {
      "inputs": [],
      "name": "getOwner",
      "outputs": [
        {
          "internalType": "address",
          "name": "owner_",
          "type": "address"
        }
      ],
      "stateMutability": "view",
      "type": "function"
    },
    {
      "inputs": [
        {
          "internalType": "address",
          "name": "_comptrollerProxy",
          "type": "address"
        }
      ],
      "name": "getPendingComptrollerProxyCreator",
      "outputs": [
        {
          "internalType": "address",
          "name": "pendingComptrollerProxyCreator_",
          "type": "address"
        }
      ],
      "stateMutability": "view",
      "type": "function"
    },
    {
      "inputs": [],
      "name": "getReleaseStatus",
      "outputs": [
        {
          "internalType": "enum IFundDeployer.ReleaseStatus",
          "name": "status_",
          "type": "uint8"
        }
      ],
      "stateMutability": "view",
      "type": "function"
    },
    {
      "inputs": [],
      "name": "getVaultLib",
      "outputs": [
        {
          "internalType": "address",
          "name": "vaultLib_",
          "type": "address"
        }
      ],
      "stateMutability": "view",
      "type": "function"
    },
    {
      "inputs": [
        {
          "internalType": "address",
          "name": "",
          "type": "address"
        },
        {
          "internalType": "address",
          "name": "",
          "type": "address"
        },
        {
          "internalType": "address",
          "name": "",
          "type": "address"
        },
        {
          "internalType": "address",
          "name": "",
          "type": "address"
        }
      ],
      "name": "invokeMigrationInCancelHook",
      "outputs": [],
      "stateMutability": "nonpayable",
      "type": "function"
    },
    {
      "inputs": [
        {
          "internalType": "enum IMigrationHookHandler.MigrationOutHook",
          "name": "_hook",
          "type": "uint8"
        },
        {
          "internalType": "address",
          "name": "_vaultProxy",
          "type": "address"
        },
        {
          "internalType": "address",
          "name": "",
          "type": "address"
        },
        {
          "internalType": "address",
          "name": "",
          "type": "address"
        },
        {
          "internalType": "address",
          "name": "",
          "type": "address"
        }
      ],
      "name": "invokeMigrationOutHook",
      "outputs": [],
      "stateMutability": "nonpayable",
      "type": "function"
    },
    {
      "inputs": [
        {
          "internalType": "address",
          "name": "_contract",
          "type": "address"
        },
        {
          "internalType": "bytes4",
          "name": "_selector",
          "type": "bytes4"
        }
      ],
      "name": "isRegisteredVaultCall",
      "outputs": [
        {
          "internalType": "bool",
          "name": "isRegistered_",
          "type": "bool"
        }
      ],
      "stateMutability": "view",
      "type": "function"
    },
    {
      "inputs": [
        {
          "internalType": "address[]",
          "name": "_contracts",
          "type": "address[]"
        },
        {
          "internalType": "bytes4[]",
          "name": "_selectors",
          "type": "bytes4[]"
        }
      ],
      "name": "registerVaultCalls",
      "outputs": [],
      "stateMutability": "nonpayable",
      "type": "function"
    },
    {
      "inputs": [
        {
          "internalType": "address",
          "name": "_comptrollerLib",
          "type": "address"
        }
      ],
      "name": "setComptrollerLib",
      "outputs": [],
      "stateMutability": "nonpayable",
      "type": "function"
    },
    {
      "inputs": [
        {
          "internalType": "enum IFundDeployer.ReleaseStatus",
          "name": "_nextStatus",
          "type": "uint8"
        }
      ],
      "name": "setReleaseStatus",
      "outputs": [],
      "stateMutability": "nonpayable",
      "type": "function"
    },
    {
      "inputs": [
        {
          "internalType": "address",
          "name": "_vaultProxy",
          "type": "address"
        },
        {
          "internalType": "address",
          "name": "_comptrollerProxy",
          "type": "address"
        }
      ],
      "name": "signalMigration",
      "outputs": [],
      "stateMutability": "nonpayable",
      "type": "function"
    },
    {
      "inputs": [
        {
          "internalType": "address",
          "name": "_vaultProxy",
          "type": "address"
        },
        {
          "internalType": "address",
          "name": "_comptrollerProxy",
          "type": "address"
        }
      ],
      "name": "signalMigrationEmergency",
      "outputs": [],
      "stateMutability": "nonpayable",
      "type": "function"
    }
  ],
  "transactionHash": "0xcb0d8e3ef326538a5f0976476f9fab866f2d786fed990af62a19c87ca15a7fe6",
  "args": [
    "0xe819b666c7Cccec2e51806862bBB58615dcd84fA",
    "0xc184A20c52b5fB08EDb21beA4FF4Dd0c2Eb440Cb",
    [
      "0x15fd6e554874B9e70F832Ed37f231Ac5E142362f",
      "0xd061D61a4d941c39E5453435B6345Dc261C2fcE0",
      "0xd061D61a4d941c39E5453435B6345Dc261C2fcE0",
      "0xd061D61a4d941c39E5453435B6345Dc261C2fcE0"
    ],
    [
      "0x447fbc63",
      "0x6a627842",
      "0xa51e1904",
      "0xdd289d60"
    ]
  ],
  "solcInputHash": "34b1516e615d6cbcdbaf9542624efee9",
  "bytecode": "0x60e06040523480156200001157600080fd5b506040516200332d3803806200332d83398101604081905262000034916200035a565b81511562000048576200004882826200006f565b505033606090811b6080526001600160601b031992811b831660a0521b1660c05262000573565b80518251146200009c5760405162461bcd60e51b81526004016200009390620004c5565b60405180910390fd5b60005b82518110156200020157620000e3838281518110620000ba57fe5b6020026020010151838381518110620000cf57fe5b60200260200101516200020660201b60201c565b15620001035760405162461bcd60e51b81526004016200009390620004b3565b60018060008584815181106200011557fe5b60200260200101516001600160a01b03166001600160a01b0316815260200190815260200160002060008484815181106200014c57fe5b60200260200101516001600160e01b0319166001600160e01b031916815260200190815260200160002060006101000a81548160ff0219169083151502179055508281815181106200019a57fe5b60200260200101516001600160a01b03167f355d4742de92efa1dcd9085b88ede27d7cfda96747ea062a59010a992c8af150838381518110620001d957fe5b6020026020010151604051620001f09190620004a3565b60405180910390a26001016200009f565b505050565b6001600160a01b03821660009081526001602090815260408083206001600160e01b03198516845290915290205460ff165b92915050565b805162000238816200054e565b600082601f8301126200025d57600080fd5b8151620002746200026e82620004fe565b620004d7565b915081818352602084019350602081019050838560208402820111156200029a57600080fd5b60005b83811015620002ca5781620002b388826200023e565b84525060209283019291909101906001016200029d565b5050505092915050565b600082601f830112620002e657600080fd5b8151620002f76200026e82620004fe565b915081818352602084019350602081019050838560208402820111156200031d57600080fd5b60005b83811015620002ca57816200033688826200034d565b845250602092830192919091019060010162000320565b8051620002388162000568565b600080600080608085870312156200037157600080fd5b60006200037f87876200023e565b945050602062000392878288016200023e565b93505060408501516001600160401b03811115620003af57600080fd5b620003bd878288016200024b565b92505060608501516001600160401b03811115620003da57600080fd5b620003e887828801620002d4565b91505092959194509250565b620003ff8162000535565b82525050565b600062000414602d836200051f565b7f5f5f72656769737465725661756c7443616c6c733a2043616c6c20616c72656181526c191e481c9959da5cdd195c9959609a1b602082015260400192915050565b6000620004656029836200051f565b7f5f5f72656769737465725661756c7443616c6c733a20556e6576656e20696e7081526875742061727261797360b81b602082015260400192915050565b60208101620002388284620003f4565b60208082528101620002388162000405565b60208082528101620002388162000456565b6040518181016001600160401b0381118282101715620004f657600080fd5b604052919050565b60006001600160401b038211156200051557600080fd5b5060209081020190565b90815260200190565b6000620002388262000542565b6001600160e01b03191690565b6001600160a01b031690565b620005598162000528565b81146200056557600080fd5b50565b620005598162000535565b60805160601c60a05160601c60c05160601c612d52620005db60003980610920528061153c52806117ae5250806107f852806109465280610a455280610d015280610f0e5280611195528061150a528061178052508061043b5280610a1e5250612d526000f3fe60806040523480156200001157600080fd5b50600436106200016c5760003560e01c806393a2ecd911620000d5578063d2456de11162000087578063d2456de114620002d3578063da29fcfe14620002ea578063dc7720531462000301578063df369ba71462000327578063ebb3d589146200033e578063f0bb66ac1462000348576200016c565b806393a2ecd914620002545780639eb2c7b2146200025e578063a08d967d1462000275578063a5fede1d146200028c578063c108b47d14620002a5578063c166f9ea14620002bc576200016c565b806351dfdb48116200012f57806351dfdb4814620001f1578063682cea1914620002085780636b59efa314620002125780636f022ac4146200021c57806378ed22931462000233578063893d20e8146200024a576200016c565b80630d2fcd7614620001715780630ee2cb10146200018a5780630fe6972b14620001ac57806328eb9ca514620001c35780633f84c12c14620001da575b600080fd5b620001886200018236600462001a14565b6200036f565b005b6200019462000439565b604051620001a3919062002535565b60405180910390f35b62000188620001bd36600462001d2b565b6200045e565b62000188620001d436600462001e64565b62000686565b62000188620001eb36600462001de4565b620007d2565b620001886200020236600462001a14565b6200090e565b620001946200091e565b6200019462000942565b620001886200022d36600462001a14565b620009de565b620001886200024436600462001a14565b620009eb565b62000194620009f8565b6200019462000a9d565b620001886200026f36600462001a14565b62000aac565b620001946200028636600462001a14565b62000ab9565b6200029662000ada565b604051620001a3919062002772565b62000194620002b636600462001c87565b62000aea565b62000188620002cd36600462001a5e565b62000bd5565b62000188620002e436600462001a5e565b62000be7565b62000188620002fb36600462001d2b565b62000bf5565b620003186200031236600462001b65565b62000cc7565b604051620001a3919062002705565b620001886200033836600462001a9d565b62000cc1565b6200019462000cff565b6200035f6200035936600462001b9a565b62000d23565b604051620001a392919062002555565b62000379620009f8565b6001600160a01b0316336001600160a01b031614620003b55760405162461bcd60e51b8152600401620003ac9062002800565b60405180910390fd5b6000546001600160a01b031615620003e15760405162461bcd60e51b8152600401620003ac9062002782565b600080546001600160a01b0319166001600160a01b0383161790556040517f38e37d5fdf60e4358769c3b616594ad451626b1e023c65eaa1062116feadacf8906200042e90839062002535565b60405180910390a150565b7f00000000000000000000000000000000000000000000000000000000000000005b90565b62000468620009f8565b6001600160a01b0316336001600160a01b0316146200049b5760405162461bcd60e51b8152600401620003ac9062002800565b82620004bb5760405162461bcd60e51b8152600401620003ac9062002890565b828114620004dd5760405162461bcd60e51b8152600401620003ac90620028b4565b60005b838110156200067f5762000535858583818110620004fa57fe5b905060200201602081019062000511919062001a14565b8484848181106200051e57fe5b905060200201602081019062000312919062001dc3565b620005545760405162461bcd60e51b8152600401620003ac9062002812565b6000600160008787858181106200056757fe5b90506020020160208101906200057e919062001a14565b6001600160a01b03166001600160a01b031681526020019081526020016000206000858585818110620005ad57fe5b9050602002016020810190620005c4919062001dc3565b6001600160e01b03191681526020810191909152604001600020805460ff1916911515919091179055848482818110620005fa57fe5b905060200201602081019062000611919062001a14565b6001600160a01b03167f04a77425d9eba3b1260e976806c0cdefae7f41bb1106222790dd45e863ceaf978484848181106200064857fe5b90506020020160208101906200065f919062001dc3565b6040516200066e919062002715565b60405180910390a2600101620004e0565b5050505050565b62000690620009f8565b6001600160a01b0316336001600160a01b031614620006c35760405162461bcd60e51b8152600401620003ac90620027ee565b6000816002811115620006d257fe5b1415620006f35760405162461bcd60e51b8152600401620003ac90620028c6565b6000546001600160a01b03166200071e5760405162461bcd60e51b8152600401620003ac90620027dc565b600054600160a01b900460ff168060028111156200073857fe5b8260028111156200074557fe5b1415620007665760405162461bcd60e51b8152600401620003ac90620028a2565b6000805483919060ff60a01b1916600160a01b8360028111156200078657fe5b02179055508160028111156200079857fe5b816002811115620007a557fe5b6040517ffaab041807e925180f5d7036a295923ff66f30f9d7957c96b898d16b0e90b7d890600090a35050565b6002856004811115620007e157fe5b14620007ed576200067f565b336001600160a01b037f00000000000000000000000000000000000000000000000000000000000000001614620008385760405162461bcd60e51b8152600401620003ac9062002836565b6000846001600160a01b0316635a53e3486040518163ffffffff1660e01b815260040160206040518083038186803b1580156200087457600080fd5b505afa15801562000889573d6000803e3d6000fd5b505050506040513d601f19601f82011682018060405250810190620008af919062001a3d565b9050806001600160a01b0316632b68b9c66040518163ffffffff1660e01b8152600401600060405180830381600087803b158015620008ed57600080fd5b505af115801562000902573d6000803e3d6000fd5b50505050505050505050565b6200091b81600062000e21565b50565b7f000000000000000000000000000000000000000000000000000000000000000090565b60007f00000000000000000000000000000000000000000000000000000000000000006001600160a01b0316636b59efa36040518163ffffffff1660e01b815260040160206040518083038186803b1580156200099e57600080fd5b505afa158015620009b3573d6000803e3d6000fd5b505050506040513d601f19601f82011682018060405250810190620009d9919062001a3d565b905090565b6200091b816000620010a0565b6200091b81600162000e21565b600080600054600160a01b900460ff16600281111562000a1457fe5b141562000a4357507f00000000000000000000000000000000000000000000000000000000000000006200045b565b7f00000000000000000000000000000000000000000000000000000000000000006001600160a01b031663893d20e86040518163ffffffff1660e01b815260040160206040518083038186803b1580156200099e57600080fd5b6000546001600160a01b031690565b6200091b816001620010a0565b6001600160a01b03808216600090815260026020526040902054165b919050565b600054600160a01b900460ff1690565b60006001600054600160a01b900460ff16600281111562000b0757fe5b1462000b275760405162461bcd60e51b8152600401620003ac90620027a6565b62000ba1878787878080601f01602080910402602001604051908101604052809392919081815260200183838082843760009201919091525050604080516020601f8b0181900481028201810190925289815292508991508890819084018382808284376000920191909152506001925062001207915050565b6001600160a01b038116600090815260026020526040902080546001600160a01b0319163317905590509695505050505050565b62000be382826001620013d7565b5050565b62000be382826000620013d7565b62000bff620009f8565b6001600160a01b0316336001600160a01b03161462000c325760405162461bcd60e51b8152600401620003ac9062002800565b8262000c525760405162461bcd60e51b8152600401620003ac906200286c565b62000cc184848080602002602001604051908101604052809392919081815260200183836020028082843760009201919091525050604080516020808802828101820190935287825290935087925086918291850190849080828437600092019190915250620015a292505050565b50505050565b6001600160a01b03821660009081526001602090815260408083206001600160e01b03198516845290915290205460ff165b92915050565b7f000000000000000000000000000000000000000000000000000000000000000090565b6000806001600054600160a01b900460ff16600281111562000d4157fe5b1462000d615760405162461bcd60e51b8152600401620003ac90620027a6565b62000e0f8b8b8b8080601f01602080910402602001604051908101604052809392919081815260200183838082843760009201919091525050604080516020601f8d018190048102820181019092528b81528e93508d9250908c908c908190840183828082843760009201919091525050604080516020601f8e018190048102820181019092528c815292508c91508b90819084018382808284376000920191909152506200172a92505050565b91509150995099975050505050505050565b6001600054600160a01b900460ff16600281111562000e3c57fe5b1462000e5c5760405162461bcd60e51b8152600401620003ac90620027a6565b604051633ef03e7560e11b815282906001600160a01b03821690637de07cea9062000e8c90339060040162002545565b60206040518083038186803b15801562000ea557600080fd5b505afa15801562000eba573d6000803e3d6000fd5b505050506040513d601f19601f8201168201806040525081019062000ee0919062001da2565b62000eff5760405162461bcd60e51b8152600401620003ac9062002824565b604051630fb5b3f960e31b81527f0000000000000000000000000000000000000000000000000000000000000000906000906001600160a01b03831690637dad9fc89062000f5290889060040162002535565b60806040518083038186803b15801562000f6b57600080fd5b505afa15801562000f80573d6000803e3d6000fd5b505050506040513d601f19601f8201168201806040525081019062000fa6919062001b07565b50506040516338b3eb1b60e01b81529092506001600160a01b03841691506338b3eb1b9062000fdc90889088906004016200267e565b600060405180830381600087803b15801562000ff757600080fd5b505af11580156200100c573d6000803e3d6000fd5b50506040516382d3a1dd60e01b81526001600160a01b03841692506382d3a1dd9150620010419088906001906004016200267e565b600060405180830381600087803b1580156200105c57600080fd5b505af115801562001071573d6000803e3d6000fd5b505050506001600160a01b0316600090815260026020526040902080546001600160a01b031916905550505050565b6001600054600160a01b900460ff166002811115620010bb57fe5b14620010db5760405162461bcd60e51b8152600401620003ac90620027a6565b604051633ef03e7560e11b815282906001600160a01b03821690637de07cea906200110b90339060040162002545565b60206040518083038186803b1580156200112457600080fd5b505afa15801562001139573d6000803e3d6000fd5b505050506040513d601f19601f820116820180604052508101906200115f919062001da2565b6200117e5760405162461bcd60e51b8152600401620003ac9062002824565b604051634e4ea46d60e11b81526001600160a01b037f00000000000000000000000000000000000000000000000000000000000000001690639c9d48da90620011ce90869086906004016200267e565b600060405180830381600087803b158015620011e957600080fd5b505af1158015620011fe573d6000803e3d6000fd5b50505050505050565b60006001600160a01b038616620012325760405162461bcd60e51b8152600401620003ac9062002848565b606063399ae72460e01b8787604051602401620012519291906200269d565b60408051601f198184030181529181526020820180516001600160e01b03166001600160e01b031990941693909317909252600054915190925082916001600160a01b031690620012a2906200190d565b620012af92919062002725565b604051809103906000f080158015620012cc573d6000803e3d6000fd5b509150620012da8262001907565b620012f95760405162461bcd60e51b8152600401620003ac906200287e565b6000855111806200130b575060008451115b1562001376576040516396aed58760e01b81526001600160a01b038316906396aed5879062001341908890889060040162002749565b600060405180830381600087803b1580156200135c57600080fd5b505af115801562001371573d6000803e3d6000fd5b505050505b821515876001600160a01b0316336001600160a01b03167f0e6310be2c106224ea5db41e7f599982b85c8524b0e7cd0c4fb88e2ac46554b5858a8a8a604051620013c49493929190620026bc565b60405180910390a4505b95945050505050565b6001600054600160a01b900460ff166002811115620013f257fe5b14620014125760405162461bcd60e51b8152600401620003ac90620027a6565b6001600160a01b038281166000908152600260205260409020548391163314620014505760405162461bcd60e51b8152600401620003ac90620027ca565b604051633ef03e7560e11b815284906001600160a01b03821690637de07cea906200148090339060040162002545565b60206040518083038186803b1580156200149957600080fd5b505afa158015620014ae573d6000803e3d6000fd5b505050506040513d601f19601f82011682018060405250810190620014d4919062001da2565b620014f35760405162461bcd60e51b8152600401620003ac9062002824565b604051633457e6e760e21b81526001600160a01b037f0000000000000000000000000000000000000000000000000000000000000000169063d15f9b9c906200156790889088907f00000000000000000000000000000000000000000000000000000000000000009089906004016200257b565b600060405180830381600087803b1580156200158257600080fd5b505af115801562001597573d6000803e3d6000fd5b505050505050505050565b8051825114620015c65760405162461bcd60e51b8152600401620003ac906200285a565b60005b8251811015620017255762001607838281518110620015e457fe5b6020026020010151838381518110620015f957fe5b602002602001015162000cc7565b15620016275760405162461bcd60e51b8152600401620003ac90620027b8565b60018060008584815181106200163957fe5b60200260200101516001600160a01b03166001600160a01b0316815260200190815260200160002060008484815181106200167057fe5b60200260200101516001600160e01b0319166001600160e01b031916815260200190815260200160002060006101000a81548160ff021916908315150217905550828181518110620016be57fe5b60200260200101516001600160a01b03167f355d4742de92efa1dcd9085b88ede27d7cfda96747ea062a59010a992c8af150838381518110620016fd57fe5b602002602001015160405162001714919062002715565b60405180910390a2600101620015c9565b505050565b6000806001600160a01b038816620017565760405162461bcd60e51b8152600401620003ac9062002794565b6200176686868686600062001207565b6040516322a0c08b60e01b81529092506001600160a01b037f000000000000000000000000000000000000000000000000000000000000000016906322a0c08b90620017dd907f0000000000000000000000000000000000000000000000000000000000000000908c9087908d90600401620025b8565b602060405180830381600087803b158015620017f857600080fd5b505af11580156200180d573d6000803e3d6000fd5b505050506040513d601f19601f8201168201806040525081019062001833919062001a3d565b6040516382d3a1dd60e01b81529091506001600160a01b038316906382d3a1dd90620018679084906000906004016200267e565b600060405180830381600087803b1580156200188257600080fd5b505af115801562001897573d6000803e3d6000fd5b50505050856001600160a01b0316886001600160a01b0316336001600160a01b03167f38d3196918721ec4627522d424d47f608e3f0f7e7a8f8abe5369150f7fc4b2a585858c8b8b8b604051620018f49695949392919062002604565b60405180910390a4965096945050505050565b3b151590565b61034180620029dc83390190565b803562000cf98162002987565b805162000cf98162002987565b60008083601f8401126200194857600080fd5b50813567ffffffffffffffff8111156200196157600080fd5b6020830191508360208202830111156200197a57600080fd5b9250929050565b805162000cf9816200299e565b803562000cf981620029a9565b60008083601f840112620019ae57600080fd5b50813567ffffffffffffffff811115620019c757600080fd5b6020830191508360018202830111156200197a57600080fd5b803562000cf981620029b4565b803562000cf981620029c2565b803562000cf981620029d0565b805162000cf981620029d0565b60006020828403121562001a2757600080fd5b600062001a3584846200191b565b949350505050565b60006020828403121562001a5057600080fd5b600062001a35848462001928565b6000806040838503121562001a7257600080fd5b600062001a8085856200191b565b925050602062001a93858286016200191b565b9150509250929050565b6000806000806080858703121562001ab457600080fd5b600062001ac287876200191b565b945050602062001ad5878288016200191b565b935050604062001ae8878288016200191b565b925050606062001afb878288016200191b565b91505092959194509250565b6000806000806080858703121562001b1e57600080fd5b600062001b2c878762001928565b945050602062001b3f8782880162001928565b935050604062001b528782880162001928565b925050606062001afb8782880162001a07565b6000806040838503121562001b7957600080fd5b600062001b8785856200191b565b925050602062001a93858286016200198e565b600080600080600080600080600060c08a8c03121562001bb957600080fd5b600062001bc78c8c6200191b565b99505060208a013567ffffffffffffffff81111562001be557600080fd5b62001bf38c828d016200199b565b9850985050604062001c088c828d016200191b565b965050606062001c1b8c828d01620019fa565b95505060808a013567ffffffffffffffff81111562001c3957600080fd5b62001c478c828d016200199b565b945094505060a08a013567ffffffffffffffff81111562001c6757600080fd5b62001c758c828d016200199b565b92509250509295985092959850929598565b6000806000806000806080878903121562001ca157600080fd5b600062001caf89896200191b565b965050602062001cc289828a01620019fa565b955050604087013567ffffffffffffffff81111562001ce057600080fd5b62001cee89828a016200199b565b9450945050606087013567ffffffffffffffff81111562001d0e57600080fd5b62001d1c89828a016200199b565b92509250509295509295509295565b6000806000806040858703121562001d4257600080fd5b843567ffffffffffffffff81111562001d5a57600080fd5b62001d688782880162001935565b9450945050602085013567ffffffffffffffff81111562001d8857600080fd5b62001d968782880162001935565b95989497509550505050565b60006020828403121562001db557600080fd5b600062001a35848462001981565b60006020828403121562001dd657600080fd5b600062001a3584846200198e565b600080600080600060a0868803121562001dfd57600080fd5b600062001e0b8888620019e0565b955050602062001e1e888289016200191b565b945050604062001e31888289016200191b565b935050606062001e44888289016200191b565b925050608062001e57888289016200191b565b9150509295509295909350565b60006020828403121562001e7757600080fd5b600062001a358484620019ed565b62001e90816200291c565b82525050565b62001e9081620028e5565b62001e9081620028f2565b62001e9081620028f7565b600062001ec482620028d8565b62001ed08185620028dc565b935062001ee281856020860162002943565b62001eed8162002972565b9093019392505050565b62001e908162002929565b600062001f11603283620028dc565b7f736574436f6d7074726f6c6c65724c69623a20546869732076616c75652063618152716e206f6e6c7920626520736574206f6e636560701b602082015260400192915050565b600062001f67602783620028dc565b7f5f5f6372656174654e657746756e643a205f6f776e65722063616e6e6f7420628152666520656d70747960c81b602082015260400192915050565b600062001fb2601383620028dc565b7252656c65617365206973206e6f74204c69766560681b815260200192915050565b600062001fe3602d83620028dc565b7f5f5f72656769737465725661756c7443616c6c733a2043616c6c20616c72656181526c191e481c9959da5cdd195c9959609a1b602082015260400192915050565b600062002034603883620028dc565b7f4f6e6c792074686520436f6d7074726f6c6c657250726f78792063726561746f81527f722063616e2063616c6c20746869732066756e6374696f6e0000000000000000602082015260400192915050565b600062002095604c83620028dc565b7f73657452656c656173655374617475733a2043616e206f6e6c7920736574207481527f68652072656c6561736520737461747573207768656e20636f6d7074726f6c6c60208201526b195c931a58881a5cc81cd95d60a21b604082015260600192915050565b60006200210b603783620028dc565b7f73657452656c656173655374617475733a204f6e6c7920746865206f776e657281527f2063616e2063616c6c20746869732066756e6374696f6e000000000000000000602082015260400192915050565b60006200216c602e83620028dc565b7f4f6e6c792074686520636f6e7472616374206f776e65722063616e2063616c6c81526d103a3434b990333ab731ba34b7b760911b602082015260400192915050565b6000620021be602983620028dc565b7f646572656769737465725661756c7443616c6c733a2043616c6c206e6f7420728152681959da5cdd195c995960ba1b602082015260400192915050565b60006200220b603383620028dc565b7f4f6e6c792061207065726d697373696f6e6564206d69677261746f722063616e8152721031b0b636103a3434b990333ab731ba34b7b760691b602082015260400192915050565b600062002262603d83620028dc565b7f706f73744d6967726174654f726967696e486f6f6b3a204f6e6c79204469737081527f6174636865722063616e2063616c6c20746869732066756e6374696f6e000000602082015260400192915050565b6000620022c3603c83620028dc565b7f5f5f6465706c6f79436f6d7074726f6c6c657250726f78793a205f64656e6f6d81527f696e6174696f6e41737365742063616e6e6f7420626520656d70747900000000602082015260400192915050565b600062002324602983620028dc565b7f5f5f72656769737465725661756c7443616c6c733a20556e6576656e20696e7081526875742061727261797360b81b602082015260400192915050565b600062002371602483620028dc565b7f72656769737465725661756c7443616c6c733a20456d707479205f636f6e74728152636163747360e01b602082015260400192915050565b6000620023b9601a83620028dc565b7f4e6f20636f6465206174206e657720436f6d7074726f6c6c6572000000000000815260200192915050565b6000620023f4602683620028dc565b7f646572656769737465725661756c7443616c6c733a20456d707479205f636f6e81526574726163747360d01b602082015260400192915050565b60006200243e603383620028dc565b7f73657452656c656173655374617475733a205f6e657874537461747573206973815272207468652063757272656e742073746174757360681b602082015260400192915050565b600062002495602983620028dc565b7f646572656769737465725661756c7443616c6c733a20556e6576656e20696e7081526875742061727261797360b81b602082015260400192915050565b6000620024e2603383620028dc565b7f73657452656c656173655374617475733a2043616e6e6f742072657475726e20815272746f205072654c61756e63682073746174757360681b602082015260400192915050565b62001e90816200045b565b6020810162000cf9828462001e96565b6020810162000cf9828462001e85565b6040810162002565828562001e96565b62002574602083018462001e96565b9392505050565b608081016200258b828762001e96565b6200259a602083018662001e96565b620025a9604083018562001e96565b620013ce606083018462001ea1565b60808101620025c8828762001e96565b620025d7602083018662001e96565b620025e6604083018562001e96565b8181036060830152620025fa818462001eb7565b9695505050505050565b60c0810162002614828962001e96565b62002623602083018862001e96565b818103604083015262002637818762001eb7565b90506200264860608301866200252a565b81810360808301526200265c818562001eb7565b905081810360a083015262002672818462001eb7565b98975050505050505050565b604081016200268e828562001e96565b62002574602083018462001ea1565b60408101620026ad828562001e96565b6200257460208301846200252a565b60808101620026cc828762001e96565b620026db60208301866200252a565b8181036040830152620026ef818562001eb7565b90508181036060830152620025fa818462001eb7565b6020810162000cf9828462001ea1565b6020810162000cf9828462001eac565b6040808252810162002738818562001eb7565b905062002574602083018462001e96565b604080825281016200275c818562001eb7565b9050818103602083015262001a35818462001eb7565b6020810162000cf9828462001ef7565b6020808252810162000cf98162001f02565b6020808252810162000cf98162001f58565b6020808252810162000cf98162001fa3565b6020808252810162000cf98162001fd4565b6020808252810162000cf98162002025565b6020808252810162000cf98162002086565b6020808252810162000cf981620020fc565b6020808252810162000cf9816200215d565b6020808252810162000cf981620021af565b6020808252810162000cf981620021fc565b6020808252810162000cf98162002253565b6020808252810162000cf981620022b4565b6020808252810162000cf98162002315565b6020808252810162000cf98162002362565b6020808252810162000cf981620023aa565b6020808252810162000cf981620023e5565b6020808252810162000cf9816200242f565b6020808252810162000cf98162002486565b6020808252810162000cf981620024d3565b5190565b90815260200190565b600062000cf98262002910565b151590565b6001600160e01b03191690565b8062000ad5816200297c565b6001600160a01b031690565b600062000cf98262002936565b600062000cf98262002904565b600062000cf982620028e5565b60005b838110156200296057818101518382015260200162002946565b8381111562000cc15750506000910152565b601f01601f191690565b600381106200091b57fe5b6200299281620028e5565b81146200091b57600080fd5b6200299281620028f2565b6200299281620028f7565b600581106200091b57600080fd5b600381106200091b57600080fd5b62002992816200045b56fe608060405234801561001057600080fd5b506040516103413803806103418339818101604052604081101561003357600080fd5b810190808051604051939291908464010000000082111561005357600080fd5b90830190602082018581111561006857600080fd5b825164010000000081118282018810171561008257600080fd5b82525081516020918201929091019080838360005b838110156100af578181015183820152602001610097565b50505050905090810190601f1680156100dc5780820380516001836020036101000a031916815260200191505b50604052602001805190602001909291905050508181807f360894a13ba1a3210667c828492db98dca3e2076cc3735a920a3ca505d382bbc5560006060826001600160a01b0316846040518082805190602001908083835b602083106101535780518252601f199092019160209182019101610134565b6001836020036101000a038019825116818451168082178552505050505050905001915050600060405180830381855af49150503d80600081146101b3576040519150601f19603f3d011682016040523d82523d6000602084013e6101b8565b606091505b50915091508181906102485760405162461bcd60e51b81526004018080602001828103825283818151815260200191508051906020019080838360005b8381101561020d5781810151838201526020016101f5565b50505050905090810190601f16801561023a5780820380516001836020036101000a031916815260200191505b509250505060405180910390fd5b5050505050505060e48061025d6000396000f3fe608060405260043610601c5760003560e01c806352d1902d146066575b7f360894a13ba1a3210667c828492db98dca3e2076cc3735a920a3ca505d382bbc543660008037600080366000846127105a03f43d806000803e818015606157816000f35b816000fd5b348015607157600080fd5b506078608a565b60408051918252519081900360200190f35b7f21fa940e90e7b403677d11d4c1f1dec6f27160a63d73534769071769d4694ef59056fea264697066735822122004499a7e36d90733bbad8ea6ea733882bbcc6ea1d0b582968990ab14c2b8b8af64736f6c634300060c0033a264697066735822122012400ca7b8f63ea4510e7ff139d81eb9823cd5bc4ef77140dcdacadd7b2d992f64736f6c634300060c0033",
  "devdoc": {
    "author": "Enzyme Council <security@enzyme.finance>",
    "kind": "dev",
    "methods": {
      "cancelMigration(address)": {
        "params": {
          "_vaultProxy": "The VaultProxy for which to cancel migration"
        }
      },
      "cancelMigrationEmergency(address)": {
        "params": {
          "_vaultProxy": "The VaultProxy for which to cancel migration"
        }
      },
      "createMigratedFundConfig(address,uint256,bytes,bytes)": {
        "params": {
          "_denominationAsset": "The contract address of the denomination asset for the fund",
          "_feeManagerConfigData": "Bytes data for the fees to be enabled for the fund",
          "_policyManagerConfigData": "Bytes data for the policies to be enabled for the fund",
          "_sharesActionTimelock": "The minimum number of seconds between any two \"shares actions\" (buying or selling shares) by the same user"
        },
        "returns": {
          "comptrollerProxy_": "The address of the ComptrollerProxy deployed during this action"
        }
      },
      "createNewFund(address,string,address,uint256,bytes,bytes)": {
        "params": {
          "_denominationAsset": "The contract address of the denomination asset for the fund",
          "_feeManagerConfigData": "Bytes data for the fees to be enabled for the fund",
          "_fundName": "The name of the fund",
          "_fundOwner": "The address of the owner for the fund",
          "_policyManagerConfigData": "Bytes data for the policies to be enabled for the fund",
          "_sharesActionTimelock": "The minimum number of seconds between any two \"shares actions\" (buying or selling shares) by the same user"
        },
        "returns": {
          "comptrollerProxy_": "The address of the ComptrollerProxy deployed during this action"
        }
      },
      "deregisterVaultCalls(address[],bytes4[])": {
        "params": {
          "_contracts": "The contracts of the calls to de-register",
          "_selectors": "The selectors of the calls to de-register"
        }
      },
      "executeMigration(address)": {
        "params": {
          "_vaultProxy": "The VaultProxy for which to execute the migration"
        }
      },
      "executeMigrationEmergency(address)": {
        "params": {
          "_vaultProxy": "The VaultProxy for which to execute the migration"
        }
      },
      "getComptrollerLib()": {
        "returns": {
          "comptrollerLib_": "The `comptrollerLib` variable value"
        }
      },
      "getCreator()": {
        "returns": {
          "creator_": "The `CREATOR` variable value"
        }
      },
      "getDispatcher()": {
        "returns": {
          "dispatcher_": "The `DISPATCHER` variable value"
        }
      },
      "getOwner()": {
        "details": "Dynamically gets the owner based on the Protocol status. The owner is initially the contract's deployer, for convenience in setting up configuration. Ownership is claimed when the owner of the Dispatcher contract (the Enzyme Council) sets the releaseStatus to `Live`.",
        "returns": {
          "owner_": "The contract owner address"
        }
      },
      "getPendingComptrollerProxyCreator(address)": {
        "returns": {
          "pendingComptrollerProxyCreator_": "The pending ComptrollerProxy creator"
        }
      },
      "getReleaseStatus()": {
        "returns": {
          "status_": "The `releaseStatus` variable value"
        }
      },
      "getVaultLib()": {
        "returns": {
          "vaultLib_": "The `VAULT_LIB` variable value"
        }
      },
      "invokeMigrationInCancelHook(address,address,address,address)": {
        "details": "Unimplemented"
      },
      "invokeMigrationOutHook(uint8,address,address,address,address)": {
        "params": {
          "_vaultProxy": "The VaultProxy being migrated"
        }
      },
      "isRegisteredVaultCall(address,bytes4)": {
        "params": {
          "_contract": "The contract of the call to check",
          "_selector": "The selector of the call to check"
        },
        "returns": {
          "isRegistered_": "True if the call is registered"
        }
      },
      "registerVaultCalls(address[],bytes4[])": {
        "params": {
          "_contracts": "The contracts of the calls to register",
          "_selectors": "The selectors of the calls to register"
        }
      },
      "setComptrollerLib(address)": {
        "details": "Can only be set once",
        "params": {
          "_comptrollerLib": "The ComptrollerLib contract address"
        }
      },
      "setReleaseStatus(uint8)": {
        "params": {
          "_nextStatus": "The next status state to set"
        }
      },
      "signalMigration(address,address)": {
        "params": {
          "_comptrollerProxy": "The ComptrollerProxy for which to signal the migration",
          "_vaultProxy": "The VaultProxy for which to signal the migration"
        }
      },
      "signalMigrationEmergency(address,address)": {
        "params": {
          "_comptrollerProxy": "The ComptrollerProxy for which to signal the migration",
          "_vaultProxy": "The VaultProxy for which to signal the migration"
        }
      }
    },
    "title": "FundDeployer Contract",
    "version": 1
  },
  "userdoc": {
    "kind": "user",
    "methods": {
      "cancelMigration(address)": {
        "notice": "Cancels fund migration"
      },
      "cancelMigrationEmergency(address)": {
        "notice": "Cancels fund migration, bypassing any failures. Should be used in an emergency only."
      },
      "createMigratedFundConfig(address,uint256,bytes,bytes)": {
        "notice": "Creates a fully-configured ComptrollerProxy, to which a fund from a previous release can migrate in a subsequent step"
      },
      "createNewFund(address,string,address,uint256,bytes,bytes)": {
        "notice": "Creates a new fund"
      },
      "deregisterVaultCalls(address[],bytes4[])": {
        "notice": "De-registers allowed arbitrary contract calls that can be sent from the VaultProxy"
      },
      "executeMigration(address)": {
        "notice": "Executes fund migration"
      },
      "executeMigrationEmergency(address)": {
        "notice": "Executes fund migration, bypassing any failures. Should be used in an emergency only."
      },
      "getComptrollerLib()": {
        "notice": "Gets the `comptrollerLib` variable value"
      },
      "getCreator()": {
        "notice": "Gets the `CREATOR` variable value"
      },
      "getDispatcher()": {
        "notice": "Gets the `DISPATCHER` variable value"
      },
      "getOwner()": {
        "notice": "Gets the current owner of the contract"
      },
      "getPendingComptrollerProxyCreator(address)": {
        "notice": "Gets the creator of a pending ComptrollerProxy"
      },
      "getReleaseStatus()": {
        "notice": "Gets the `releaseStatus` variable value"
      },
      "getVaultLib()": {
        "notice": "Gets the `VAULT_LIB` variable value"
      },
      "invokeMigrationOutHook(uint8,address,address,address,address)": {
        "notice": "Allows \"hooking into\" specific moments in the migration pipeline to execute arbitrary logic during a migration out of this release"
      },
      "isRegisteredVaultCall(address,bytes4)": {
        "notice": "Checks if a contract call is registered"
      },
      "registerVaultCalls(address[],bytes4[])": {
        "notice": "Registers allowed arbitrary contract calls that can be sent from the VaultProxy"
      },
      "setComptrollerLib(address)": {
        "notice": "Sets the comptrollerLib"
      },
      "setReleaseStatus(uint8)": {
        "notice": "Sets the status of the protocol to a new state"
      },
      "signalMigration(address,address)": {
        "notice": "Signal a fund migration"
      },
      "signalMigrationEmergency(address,address)": {
        "notice": "Signal a fund migration, bypassing any failures. Should be used in an emergency only."
      }
    },
    "notice": "The top-level contract of the release. It primarily coordinates fund deployment and fund migration, but it is also deferred to for contract access control and for allowed calls that can be made with a fund's VaultProxy as the msg.sender.",
    "version": 1
  },
  "storageLayout": {
    "storage": [
      {
        "astId": 10501,
        "contract": "contracts/release/core/fund-deployer/FundDeployer.sol:FundDeployer",
        "label": "comptrollerLib",
        "offset": 0,
        "slot": "0",
        "type": "t_address"
      },
      {
        "astId": 10503,
        "contract": "contracts/release/core/fund-deployer/FundDeployer.sol:FundDeployer",
        "label": "releaseStatus",
        "offset": 20,
        "slot": "0",
        "type": "t_enum(ReleaseStatus)11464"
      },
      {
        "astId": 10509,
        "contract": "contracts/release/core/fund-deployer/FundDeployer.sol:FundDeployer",
        "label": "contractToSelectorToIsRegisteredVaultCall",
        "offset": 0,
        "slot": "1",
        "type": "t_mapping(t_address,t_mapping(t_bytes4,t_bool))"
      },
      {
        "astId": 10513,
        "contract": "contracts/release/core/fund-deployer/FundDeployer.sol:FundDeployer",
        "label": "pendingComptrollerProxyToCreator",
        "offset": 0,
        "slot": "2",
        "type": "t_mapping(t_address,t_address)"
      }
    ],
    "types": {
      "t_address": {
        "encoding": "inplace",
        "label": "address",
        "numberOfBytes": "20"
      },
      "t_bool": {
        "encoding": "inplace",
        "label": "bool",
        "numberOfBytes": "1"
      },
      "t_bytes4": {
        "encoding": "inplace",
        "label": "bytes4",
        "numberOfBytes": "4"
      },
      "t_enum(ReleaseStatus)11464": {
        "encoding": "inplace",
        "label": "enum IFundDeployer.ReleaseStatus",
        "numberOfBytes": "1"
      },
      "t_mapping(t_address,t_address)": {
        "encoding": "mapping",
        "key": "t_address",
        "label": "mapping(address => address)",
        "numberOfBytes": "32",
        "value": "t_address"
      },
      "t_mapping(t_address,t_mapping(t_bytes4,t_bool))": {
        "encoding": "mapping",
        "key": "t_address",
        "label": "mapping(address => mapping(bytes4 => bool))",
        "numberOfBytes": "32",
        "value": "t_mapping(t_bytes4,t_bool)"
      },
      "t_mapping(t_bytes4,t_bool)": {
        "encoding": "mapping",
        "key": "t_bytes4",
        "label": "mapping(bytes4 => bool)",
        "numberOfBytes": "32",
        "value": "t_bool"
      }
    }
  }
}