{
  "address": "0x040Ce9d2a8F2Ff1b210790cED9dB8c3A6D023941",
  "abi": [
    {
      "inputs": [
        {
          "internalType": "address",
          "name": "_fundDeployer",
          "type": "address"
        }
      ],
      "stateMutability": "nonpayable",
      "type": "constructor"
    },
    {
      "anonymous": false,
      "inputs": [
        {
          "indexed": true,
          "internalType": "address",
          "name": "derivative",
          "type": "address"
        },
        {
          "indexed": true,
          "internalType": "address",
          "name": "underlying",
          "type": "address"
        }
      ],
      "name": "DerivativeAdded",
      "type": "event"
    },
    {
      "anonymous": false,
      "inputs": [
        {
          "indexed": true,
          "internalType": "address",
          "name": "derivative",
          "type": "address"
        }
      ],
      "name": "DerivativeRemoved",
      "type": "event"
    },
    {
      "inputs": [
        {
          "internalType": "address[]",
          "name": "_derivatives",
          "type": "address[]"
        },
        {
          "internalType": "address[]",
          "name": "_underlyings",
          "type": "address[]"
        }
      ],
      "name": "addDerivatives",
      "outputs": [],
      "stateMutability": "nonpayable",
      "type": "function"
    },
    {
      "inputs": [
        {
          "internalType": "address",
          "name": "_derivative",
          "type": "address"
        },
        {
          "internalType": "uint256",
          "name": "_derivativeAmount",
          "type": "uint256"
        }
      ],
      "name": "calcUnderlyingValues",
      "outputs": [
        {
          "internalType": "address[]",
          "name": "underlyings_",
          "type": "address[]"
        },
        {
          "internalType": "uint256[]",
          "name": "underlyingAmounts_",
          "type": "uint256[]"
        }
      ],
      "stateMutability": "nonpayable",
      "type": "function"
    },
    {
      "inputs": [],
      "name": "getDerivativePriceFeedDeployTimestamp",
      "outputs": [
        {
          "internalType": "uint256",
          "name": "",
          "type": "uint256"
        }
      ],
      "stateMutability": "view",
      "type": "function"
    },
    {
      "inputs": [],
      "name": "getFundDeployer",
      "outputs": [
        {
          "internalType": "address",
          "name": "fundDeployer_",
          "type": "address"
        }
      ],
      "stateMutability": "view",
      "type": "function"
    },
    {
      "inputs": [],
      "name": "getOwner",
      "outputs": [
        {
          "internalType": "address",
          "name": "owner_",
          "type": "address"
        }
      ],
      "stateMutability": "view",
      "type": "function"
    },
    {
      "inputs": [
        {
          "internalType": "address",
          "name": "_derivative",
          "type": "address"
        }
      ],
      "name": "getUnderlyingForDerivative",
      "outputs": [
        {
          "internalType": "address",
          "name": "underlying_",
          "type": "address"
        }
      ],
      "stateMutability": "view",
      "type": "function"
    },
    {
      "inputs": [
        {
          "internalType": "address",
          "name": "_asset",
          "type": "address"
        }
      ],
      "name": "isSupportedAsset",
      "outputs": [
        {
          "internalType": "bool",
          "name": "isSupported_",
          "type": "bool"
        }
      ],
      "stateMutability": "view",
      "type": "function"
    },
    {
      "inputs": [
        {
          "internalType": "address[]",
          "name": "_derivatives",
          "type": "address[]"
        }
      ],
      "name": "removeDerivatives",
      "outputs": [],
      "stateMutability": "nonpayable",
      "type": "function"
    }
  ],
  "transactionHash": "0xcb701fd63187244830bbc4afe4d78834ba2d4fb0dadef8981d5c258fcc6886cd",
  "args": [
    "0x217912B16c8A00C2D9F2fDFCA94127ca37cFe948"
  ],
  "solcInputHash": "34b1516e615d6cbcdbaf9542624efee9",
  "bytecode": "0x60c060405234801561001057600080fd5b50604051610edb380380610edb8339818101604052602081101561003357600080fd5b50516001600160601b031960609190911b166080524260a05260805160601c60a051610e6461007760003980610b5b5250806108d55280610b1a5250610e646000f3fe608060405234801561001057600080fd5b50600436106100885760003560e01c80638f72b1361161005b5780638f72b136146102c557806397c0ac87146103685780639be918e614610370578063ba4906b8146103aa57610088565b806339cbb63c1461008d57806366adb867146101b6578063727212f6146101f8578063893d20e8146102bd575b600080fd5b6101b4600480360360408110156100a357600080fd5b8101906020810181356401000000008111156100be57600080fd5b8201836020820111156100d057600080fd5b803590602001918460208302840111640100000000831117156100f257600080fd5b919080806020026020016040519081016040528093929190818152602001838360200280828437600092019190915250929594936020810193503591505064010000000081111561014257600080fd5b82018360208201111561015457600080fd5b8035906020019184602083028401116401000000008311171561017657600080fd5b9190808060200260200160405190810160405280939291908181526020018383602002808284376000920191909152509295506103c4945050505050565b005b6101dc600480360360208110156101cc57600080fd5b50356001600160a01b0316610731565b604080516001600160a01b039092168252519081900360200190f35b6102246004803603604081101561020e57600080fd5b506001600160a01b03813516906020013561074f565b604051808060200180602001838103835285818151815260200191508051906020019060200280838360005b83811015610268578181015183820152602001610250565b50505050905001838103825284818151815260200191508051906020019060200280838360005b838110156102a757818101518382015260200161028f565b5050505090500194505050505060405180910390f35b6101dc6108d1565b6101b4600480360360208110156102db57600080fd5b8101906020810181356401000000008111156102f657600080fd5b82018360208201111561030857600080fd5b8035906020019184602083028401116401000000008311171561032a57600080fd5b91908080602002602001604051908101604052809392919081815260200183836020028082843760009201919091525092955061095d945050505050565b6101dc610b18565b6103966004803603602081101561038657600080fd5b50356001600160a01b0316610b3c565b604080519115158252519081900360200190f35b6103b2610b59565b60408051918252519081900360200190f35b6103cc6108d1565b6001600160a01b0316336001600160a01b03161461041b5760405162461bcd60e51b8152600401808060200182810382526049815260200180610d206049913960600191505060405180910390fd5b600082511161045b5760405162461bcd60e51b8152600401808060200182810382526022815260200180610de16022913960400191505060405180910390fd5b80518251146104b1576040805162461bcd60e51b815260206004820152601e60248201527f61646444657269766174697665733a20556e657175616c206172726179730000604482015290519081900360640190fd5b60005b825181101561072c5760006001600160a01b03168382815181106104d457fe5b60200260200101516001600160a01b03161415610538576040805162461bcd60e51b815260206004820181905260248201527f61646444657269766174697665733a20456d7074792064657269766174697665604482015290519081900360640190fd5b60006001600160a01b031682828151811061054f57fe5b60200260200101516001600160a01b031614156105b3576040805162461bcd60e51b815260206004820181905260248201527f61646444657269766174697665733a20456d70747920756e6465726c79696e67604482015290519081900360640190fd5b60006001600160a01b03166105da8483815181106105cd57fe5b6020026020010151610731565b6001600160a01b03161461061f5760405162461bcd60e51b8152600401808060200182810382526021815260200180610d696021913960400191505060405180910390fd5b61064f83828151811061062e57fe5b602002602001015183838151811061064257fe5b6020026020010151610b7d565b81818151811061065b57fe5b602002602001015160008085848151811061067257fe5b60200260200101516001600160a01b03166001600160a01b0316815260200190815260200160002060006101000a8154816001600160a01b0302191690836001600160a01b031602179055508181815181106106ca57fe5b60200260200101516001600160a01b03168382815181106106e757fe5b60200260200101516001600160a01b03167faa4ae250fb435bb4b31ed0b95822bc179fc6c5dd0c727c3ffe08d444025efd9860405160405180910390a36001016104b4565b505050565b6001600160a01b039081166000908152602081905260409020541690565b6040805160018082528183019092526060918291906020808301908036833701905050915061077d84610731565b8260008151811061078a57fe5b60200260200101906001600160a01b031690816001600160a01b03168152505060006001600160a01b0316826000815181106107c257fe5b60200260200101516001600160a01b031614156108105760405162461bcd60e51b815260040180806020018281038252602c815260200180610e03602c913960400191505060405180910390fd5b60408051600180825281830190925290602080830190803683370190505090506108b1670de0b6b3a76400006108ab866001600160a01b0316637ff9b5966040518163ffffffff1660e01b815260040160206040518083038186803b15801561087857600080fd5b505afa15801561088c573d6000803e3d6000fd5b505050506040513d60208110156108a257600080fd5b50518690610c31565b90610c93565b816000815181106108be57fe5b6020026020010181815250509250929050565b60007f00000000000000000000000000000000000000000000000000000000000000006001600160a01b031663893d20e86040518163ffffffff1660e01b815260040160206040518083038186803b15801561092c57600080fd5b505afa158015610940573d6000803e3d6000fd5b505050506040513d602081101561095657600080fd5b5051905090565b6109656108d1565b6001600160a01b0316336001600160a01b0316146109b45760405162461bcd60e51b8152600401808060200182810382526049815260200180610d206049913960600191505060405180910390fd5b60008151116109f45760405162461bcd60e51b8152600401808060200182810382526025815260200180610cfb6025913960400191505060405180910390fd5b60005b8151811015610b145760006001600160a01b0316610a1a8383815181106105cd57fe5b6001600160a01b03161415610a76576040805162461bcd60e51b815260206004820181905260248201527f72656d6f766544657269766174697665733a2056616c7565206e6f7420736574604482015290519081900360640190fd5b600080838381518110610a8557fe5b60200260200101516001600160a01b03166001600160a01b0316815260200190815260200160002060006101000a8154906001600160a01b030219169055818181518110610acf57fe5b60200260200101516001600160a01b03167fc15eb25d807b570f4567baf6e97c7b26d58a7d0512dc85e8db15375a056b860460405160405180910390a26001016109f7565b5050565b7f000000000000000000000000000000000000000000000000000000000000000090565b600080610b4883610731565b6001600160a01b0316141592915050565b7f000000000000000000000000000000000000000000000000000000000000000090565b806001600160a01b0316826001600160a01b031663fc0c546a6040518163ffffffff1660e01b815260040160206040518083038186803b158015610bc057600080fd5b505afa158015610bd4573d6000803e3d6000fd5b505050506040513d6020811015610bea57600080fd5b50516001600160a01b031614610b145760405162461bcd60e51b8152600401808060200182810382526036815260200180610d8a6036913960400191505060405180910390fd5b600082610c4057506000610c8d565b82820282848281610c4d57fe5b0414610c8a5760405162461bcd60e51b8152600401808060200182810382526021815260200180610dc06021913960400191505060405180910390fd5b90505b92915050565b6000808211610ce9576040805162461bcd60e51b815260206004820152601a60248201527f536166654d6174683a206469766973696f6e206279207a65726f000000000000604482015290519081900360640190fd5b818381610cf257fe5b04939250505056fe72656d6f766544657269766174697665733a20456d707479205f64657269766174697665736f6e6c7946756e644465706c6f7965724f776e65723a204f6e6c79207468652046756e644465706c6f796572206f776e65722063616e2063616c6c20746869732066756e6374696f6e61646444657269766174697665733a2056616c756520616c7265616479207365745f5f76616c6964617465446572697661746976653a20496e76616c696420756e6465726c79696e6720666f722049646c65546f6b656e536166654d6174683a206d756c7469706c69636174696f6e206f766572666c6f7761646444657269766174697665733a20456d707479205f646572697661746976657363616c63556e6465726c79696e6756616c7565733a20556e737570706f727465642064657269766174697665a2646970667358221220a87257eaac8206eea96b1fcb25b8df4099cd30030ab6412eafdcf57ca4f6fb0b64736f6c634300060c0033",
  "devdoc": {
    "author": "Enzyme Council <security@enzyme.finance>",
    "kind": "dev",
    "methods": {
      "addDerivatives(address[],address[])": {
        "params": {
          "_derivatives": "The derivatives to add",
          "_underlyings": "The corresponding underlyings to add"
        }
      },
      "calcUnderlyingValues(address,uint256)": {
        "params": {
          "_derivative": "The derivative to convert",
          "_derivativeAmount": "The amount of the derivative to convert"
        },
        "returns": {
          "underlyingAmounts_": "The amount of each underlying asset for the equivalent derivative amount",
          "underlyings_": "The underlying assets for the _derivative"
        }
      },
      "getFundDeployer()": {
        "returns": {
          "fundDeployer_": "The `FUND_DEPLOYER` variable value"
        }
      },
      "getOwner()": {
        "details": "Ownership is deferred to the owner of the FundDeployer contract",
        "returns": {
          "owner_": "The owner"
        }
      },
      "getUnderlyingForDerivative(address)": {
        "params": {
          "_derivative": "The derivative for which to get the underlying asset"
        },
        "returns": {
          "underlying_": "The underlying asset"
        }
      },
      "isSupportedAsset(address)": {
        "params": {
          "_asset": "The asset to check"
        },
        "returns": {
          "isSupported_": "True if the asset is supported"
        }
      },
      "removeDerivatives(address[])": {
        "params": {
          "_derivatives": "The derivatives to remove"
        }
      }
    },
    "title": "IdlePriceFeed Contract",
    "version": 1
  },
  "userdoc": {
    "kind": "user",
    "methods": {
      "addDerivatives(address[],address[])": {
        "notice": "Adds derivatives with corresponding underlyings to the price feed"
      },
      "calcUnderlyingValues(address,uint256)": {
        "notice": "Converts a given amount of a derivative to its underlying asset values"
      },
      "getFundDeployer()": {
        "notice": "Gets the `FUND_DEPLOYER` variable"
      },
      "getOwner()": {
        "notice": "Gets the owner of this contract"
      },
      "getUnderlyingForDerivative(address)": {
        "notice": "Gets the underlying asset for a given derivative"
      },
      "isSupportedAsset(address)": {
        "notice": "Checks if an asset is supported by the price feed"
      },
      "removeDerivatives(address[])": {
        "notice": "Removes derivatives from the price feed"
      }
    },
    "notice": "Price source oracle for IdleTokens",
    "version": 1
  },
  "storageLayout": {
    "storage": [
      {
        "astId": 43446,
        "contract": "contracts/release/infrastructure/price-feeds/derivatives/feeds/IdlePriceFeed.sol:IdlePriceFeed",
        "label": "derivativeToUnderlying",
        "offset": 0,
        "slot": "0",
        "type": "t_mapping(t_address,t_address)"
      }
    ],
    "types": {
      "t_address": {
        "encoding": "inplace",
        "label": "address",
        "numberOfBytes": "20"
      },
      "t_mapping(t_address,t_address)": {
        "encoding": "mapping",
        "key": "t_address",
        "label": "mapping(address => address)",
        "numberOfBytes": "32",
        "value": "t_address"
      }
    }
  }
}