{
  "address": "0x5c628660E2E641c91FC1A57BA4BD1F561385729B",
  "abi": [
    {
      "inputs": [
        {
          "internalType": "address",
          "name": "_integrationManager",
          "type": "address"
        },
        {
          "internalType": "address",
          "name": "_idlePriceFeed",
          "type": "address"
        },
        {
          "internalType": "address",
          "name": "_wethToken",
          "type": "address"
        },
        {
          "internalType": "address",
          "name": "_uniswapV2Router2",
          "type": "address"
        }
      ],
      "stateMutability": "nonpayable",
      "type": "constructor"
    },
    {
      "inputs": [],
      "name": "ADD_TRACKED_ASSETS_SELECTOR",
      "outputs": [
        {
          "internalType": "bytes4",
          "name": "",
          "type": "bytes4"
        }
      ],
      "stateMutability": "view",
      "type": "function"
    },
    {
      "inputs": [],
      "name": "APPROVE_ASSETS_SELECTOR",
      "outputs": [
        {
          "internalType": "bytes4",
          "name": "",
          "type": "bytes4"
        }
      ],
      "stateMutability": "view",
      "type": "function"
    },
    {
      "inputs": [],
      "name": "CLAIM_REWARDS_AND_REINVEST_SELECTOR",
      "outputs": [
        {
          "internalType": "bytes4",
          "name": "",
          "type": "bytes4"
        }
      ],
      "stateMutability": "view",
      "type": "function"
    },
    {
      "inputs": [],
      "name": "CLAIM_REWARDS_AND_SWAP_SELECTOR",
      "outputs": [
        {
          "internalType": "bytes4",
          "name": "",
          "type": "bytes4"
        }
      ],
      "stateMutability": "view",
      "type": "function"
    },
    {
      "inputs": [],
      "name": "CLAIM_REWARDS_SELECTOR",
      "outputs": [
        {
          "internalType": "bytes4",
          "name": "",
          "type": "bytes4"
        }
      ],
      "stateMutability": "view",
      "type": "function"
    },
    {
      "inputs": [],
      "name": "LEND_AND_STAKE_SELECTOR",
      "outputs": [
        {
          "internalType": "bytes4",
          "name": "",
          "type": "bytes4"
        }
      ],
      "stateMutability": "view",
      "type": "function"
    },
    {
      "inputs": [],
      "name": "LEND_SELECTOR",
      "outputs": [
        {
          "internalType": "bytes4",
          "name": "",
          "type": "bytes4"
        }
      ],
      "stateMutability": "view",
      "type": "function"
    },
    {
      "inputs": [],
      "name": "REDEEM_SELECTOR",
      "outputs": [
        {
          "internalType": "bytes4",
          "name": "",
          "type": "bytes4"
        }
      ],
      "stateMutability": "view",
      "type": "function"
    },
    {
      "inputs": [],
      "name": "REMOVE_TRACKED_ASSETS_SELECTOR",
      "outputs": [
        {
          "internalType": "bytes4",
          "name": "",
          "type": "bytes4"
        }
      ],
      "stateMutability": "view",
      "type": "function"
    },
    {
      "inputs": [],
      "name": "STAKE_SELECTOR",
      "outputs": [
        {
          "internalType": "bytes4",
          "name": "",
          "type": "bytes4"
        }
      ],
      "stateMutability": "view",
      "type": "function"
    },
    {
      "inputs": [],
      "name": "TAKE_ORDER_SELECTOR",
      "outputs": [
        {
          "internalType": "bytes4",
          "name": "",
          "type": "bytes4"
        }
      ],
      "stateMutability": "view",
      "type": "function"
    },
    {
      "inputs": [],
      "name": "UNSTAKE_AND_REDEEM_SELECTOR",
      "outputs": [
        {
          "internalType": "bytes4",
          "name": "",
          "type": "bytes4"
        }
      ],
      "stateMutability": "view",
      "type": "function"
    },
    {
      "inputs": [],
      "name": "UNSTAKE_SELECTOR",
      "outputs": [
        {
          "internalType": "bytes4",
          "name": "",
          "type": "bytes4"
        }
      ],
      "stateMutability": "view",
      "type": "function"
    },
    {
      "inputs": [
        {
          "internalType": "address",
          "name": "",
          "type": "address"
        },
        {
          "internalType": "bytes",
          "name": "",
          "type": "bytes"
        },
        {
          "internalType": "bytes",
          "name": "",
          "type": "bytes"
        }
      ],
      "name": "approveAssets",
      "outputs": [],
      "stateMutability": "nonpayable",
      "type": "function"
    },
    {
      "inputs": [
        {
          "internalType": "address",
          "name": "_vaultProxy",
          "type": "address"
        },
        {
          "internalType": "bytes",
          "name": "_encodedCallArgs",
          "type": "bytes"
        },
        {
          "internalType": "bytes",
          "name": "_encodedAssetTransferArgs",
          "type": "bytes"
        }
      ],
      "name": "claimRewards",
      "outputs": [],
      "stateMutability": "nonpayable",
      "type": "function"
    },
    {
      "inputs": [
        {
          "internalType": "address",
          "name": "_vaultProxy",
          "type": "address"
        },
        {
          "internalType": "bytes",
          "name": "_encodedCallArgs",
          "type": "bytes"
        },
        {
          "internalType": "bytes",
          "name": "_encodedAssetTransferArgs",
          "type": "bytes"
        }
      ],
      "name": "claimRewardsAndReinvest",
      "outputs": [],
      "stateMutability": "nonpayable",
      "type": "function"
    },
    {
      "inputs": [
        {
          "internalType": "address",
          "name": "_vaultProxy",
          "type": "address"
        },
        {
          "internalType": "bytes",
          "name": "_encodedCallArgs",
          "type": "bytes"
        },
        {
          "internalType": "bytes",
          "name": "_encodedAssetTransferArgs",
          "type": "bytes"
        }
      ],
      "name": "claimRewardsAndSwap",
      "outputs": [],
      "stateMutability": "nonpayable",
      "type": "function"
    },
    {
      "inputs": [],
      "name": "getAdapterDeployTimestamp",
      "outputs": [
        {
          "internalType": "uint256",
          "name": "",
          "type": "uint256"
        }
      ],
      "stateMutability": "view",
      "type": "function"
    },
    {
      "inputs": [],
      "name": "getIdlePriceFeed",
      "outputs": [
        {
          "internalType": "address",
          "name": "idlePriceFeed_",
          "type": "address"
        }
      ],
      "stateMutability": "view",
      "type": "function"
    },
    {
      "inputs": [],
      "name": "getIntegrationManager",
      "outputs": [
        {
          "internalType": "address",
          "name": "integrationManager_",
          "type": "address"
        }
      ],
      "stateMutability": "view",
      "type": "function"
    },
    {
      "inputs": [],
      "name": "getUniswapV2Router2",
      "outputs": [
        {
          "internalType": "address",
          "name": "router_",
          "type": "address"
        }
      ],
      "stateMutability": "view",
      "type": "function"
    },
    {
      "inputs": [],
      "name": "getWethToken",
      "outputs": [
        {
          "internalType": "address",
          "name": "wethToken_",
          "type": "address"
        }
      ],
      "stateMutability": "view",
      "type": "function"
    },
    {
      "inputs": [],
      "name": "identifier",
      "outputs": [
        {
          "internalType": "string",
          "name": "identifier_",
          "type": "string"
        }
      ],
      "stateMutability": "pure",
      "type": "function"
    },
    {
      "inputs": [
        {
          "internalType": "address",
          "name": "_vaultProxy",
          "type": "address"
        },
        {
          "internalType": "bytes",
          "name": "",
          "type": "bytes"
        },
        {
          "internalType": "bytes",
          "name": "_encodedAssetTransferArgs",
          "type": "bytes"
        }
      ],
      "name": "lend",
      "outputs": [],
      "stateMutability": "nonpayable",
      "type": "function"
    },
    {
      "inputs": [
        {
          "internalType": "bytes4",
          "name": "_selector",
          "type": "bytes4"
        },
        {
          "internalType": "bytes",
          "name": "_encodedCallArgs",
          "type": "bytes"
        }
      ],
      "name": "parseAssetsForMethod",
      "outputs": [
        {
          "internalType": "enum IIntegrationManager.SpendAssetsHandleType",
          "name": "spendAssetsHandleType_",
          "type": "uint8"
        },
        {
          "internalType": "address[]",
          "name": "spendAssets_",
          "type": "address[]"
        },
        {
          "internalType": "uint256[]",
          "name": "spendAssetAmounts_",
          "type": "uint256[]"
        },
        {
          "internalType": "address[]",
          "name": "incomingAssets_",
          "type": "address[]"
        },
        {
          "internalType": "uint256[]",
          "name": "minIncomingAssetAmounts_",
          "type": "uint256[]"
        }
      ],
      "stateMutability": "view",
      "type": "function"
    },
    {
      "inputs": [
        {
          "internalType": "address",
          "name": "_vaultProxy",
          "type": "address"
        },
        {
          "internalType": "bytes",
          "name": "_encodedCallArgs",
          "type": "bytes"
        },
        {
          "internalType": "bytes",
          "name": "_encodedAssetTransferArgs",
          "type": "bytes"
        }
      ],
      "name": "redeem",
      "outputs": [],
      "stateMutability": "nonpayable",
      "type": "function"
    }
  ],
  "transactionHash": "0x334d984d1a71f87b97faa16a4005a6321106d2052e140f86edea764df49adec5",
  "args": [
    "0x4B37f5DCA5FB2D5548e9EcEe9f98d9Ac95f60774",
    "0x040Ce9d2a8F2Ff1b210790cED9dB8c3A6D023941",
    "0xc02aaa39b223fe8d0a0e5c4f27ead9083c756cc2",
    "0x7a250d5630B4cF539739dF2C5dAcb4c659F2488D"
  ],
  "linkedData": {
    "type": "ADAPTER"
  },
  "solcInputHash": "34b1516e615d6cbcdbaf9542624efee9",
  "bytecode": "0x61012060405234801561001157600080fd5b5060405161378b38038061378b8339818101604052608081101561003457600080fd5b508051602082015160408301516060938401516001600160601b031993851b84166080524260a052841b831660c05290831b821660e05290911b166101005260805160601c60a05160c05160601c60e05160601c6101005160601c61369b6100f060003980610c195280610cf5528061130f525080610ea9528061276b52508061119c5280612b625280612b89525080610ecd5250806109a45280610b205280610f1e528061102752806111c9528061141c525061369b6000f3fe608060405234801561001057600080fd5b506004361061018e5760003560e01c8063863e5ad0116100de578063d1ded40811610097578063e4d9047811610071578063e4d9047814610955578063e7c456901461095d578063f075399414610965578063f7d882b51461096d5761018e565b8063d1ded40814610877578063dfd5ee0f1461087f578063e27a06b51461094d5761018e565b8063863e5ad0146106a9578063a21f9a2c146106b1578063a96de76b146106b9578063b23228cf146106d3578063b9dfbacc146106db578063c29fa9dd146107a95761018e565b80633ffc15911161014b5780634c252f91116101255780634c252f911461044c5780635ca62b3c1461047057806376cc7ac6146104785780637998a1c41461062c5761018e565b80633ffc15911461043457806340da225d1461043c57806340f8cfcf146104445761018e565b8063080456c114610193578063099f7515146101b8578063131461c0146102885780631d51f49b14610290578063257cb1a31461035e5780633377e18a14610366575b600080fd5b61019b610975565b604080516001600160e01b03199092168252519081900360200190f35b610286600480360360608110156101ce57600080fd5b6001600160a01b038235169190810190604081016020820135600160201b8111156101f857600080fd5b82018360208201111561020a57600080fd5b803590602001918460018302840111600160201b8311171561022b57600080fd5b919390929091602081019035600160201b81111561024857600080fd5b82018360208201111561025a57600080fd5b803590602001918460018302840111600160201b8311171561027b57600080fd5b509092509050610999565b005b61019b610af1565b610286600480360360608110156102a657600080fd5b6001600160a01b038235169190810190604081016020820135600160201b8111156102d057600080fd5b8201836020820111156102e257600080fd5b803590602001918460018302840111600160201b8311171561030357600080fd5b919390929091602081019035600160201b81111561032057600080fd5b82018360208201111561033257600080fd5b803590602001918460018302840111600160201b8311171561035357600080fd5b509092509050610b15565b61019b610c5c565b6102866004803603606081101561037c57600080fd5b6001600160a01b038235169190810190604081016020820135600160201b8111156103a657600080fd5b8201836020820111156103b857600080fd5b803590602001918460018302840111600160201b831117156103d957600080fd5b919390929091602081019035600160201b8111156103f657600080fd5b82018360208201111561040857600080fd5b803590602001918460018302840111600160201b8311171561042957600080fd5b509092509050610c80565b61019b610c87565b61019b610cab565b61019b610ccf565b610454610cf3565b604080516001600160a01b039092168252519081900360200190f35b61019b610d17565b6104f76004803603604081101561048e57600080fd5b6001600160e01b03198235169190810190604081016020820135600160201b8111156104b957600080fd5b8201836020820111156104cb57600080fd5b803590602001918460018302840111600160201b831117156104ec57600080fd5b509092509050610d3b565b6040518086600381111561050757fe5b815260200180602001806020018060200180602001858103855289818151815260200191508051906020019060200280838360005b8381101561055457818101518382015260200161053c565b50505050905001858103845288818151815260200191508051906020019060200280838360005b8381101561059357818101518382015260200161057b565b50505050905001858103835287818151815260200191508051906020019060200280838360005b838110156105d25781810151838201526020016105ba565b50505050905001858103825286818151815260200191508051906020019060200280838360005b838110156106115781810151838201526020016105f9565b50505050905001995050505050505050505060405180910390f35b610634610e65565b6040805160208082528351818301528351919283929083019185019080838360005b8381101561066e578181015183820152602001610656565b50505050905090810190601f16801561069b5780820380516001836020036101000a031916815260200191505b509250505060405180910390f35b61019b610e83565b610454610ea7565b6106c1610ecb565b60408051918252519081900360200190f35b61019b610eef565b610286600480360360608110156106f157600080fd5b6001600160a01b038235169190810190604081016020820135600160201b81111561071b57600080fd5b82018360208201111561072d57600080fd5b803590602001918460018302840111600160201b8311171561074e57600080fd5b919390929091602081019035600160201b81111561076b57600080fd5b82018360208201111561077d57600080fd5b803590602001918460018302840111600160201b8311171561079e57600080fd5b509092509050610f13565b610286600480360360608110156107bf57600080fd5b6001600160a01b038235169190810190604081016020820135600160201b8111156107e957600080fd5b8201836020820111156107fb57600080fd5b803590602001918460018302840111600160201b8311171561081c57600080fd5b919390929091602081019035600160201b81111561083957600080fd5b82018360208201111561084b57600080fd5b803590602001918460018302840111600160201b8311171561086c57600080fd5b50909250905061101c565b61045461119a565b6102866004803603606081101561089557600080fd5b6001600160a01b038235169190810190604081016020820135600160201b8111156108bf57600080fd5b8201836020820111156108d157600080fd5b803590602001918460018302840111600160201b831117156108f257600080fd5b919390929091602081019035600160201b81111561090f57600080fd5b82018360208201111561092157600080fd5b803590602001918460018302840111600160201b8311171561094257600080fd5b5090925090506111be565b61019b6113d2565b61019b6113f6565b61045461141a565b61019b61143e565b61019b611462565b7f8334eb99be0145865eba9889fca2ee920288090caefff4cc776038e20ad9259a81565b336001600160a01b037f00000000000000000000000000000000000000000000000000000000000000001614610a005760405162461bcd60e51b81526004018080602001828103825260328152602001806134d86032913960400191505060405180910390fd5b8482828080601f01602080910402602001604051908101604052809392919081815260200183838082843760009201919091525050604080516020601f8801819004810282018101909252868152606093508392508291610a7c9190899089908190840183828082843760009201919091525061148692505050565b93509350935050610aca81600081518110610a9357fe5b602002602001015184600081518110610aa857fe5b602002602001015184600081518110610abd57fe5b602002602001015161164e565b5050506060610ad882611486565b9350505050610ae783826116ed565b5050505050505050565b7f29fa046e79524c3c5ac4c01df692c35e217802b2b13b21121b76cf0ef02b138c81565b336001600160a01b037f00000000000000000000000000000000000000000000000000000000000000001614610b7c5760405162461bcd60e51b81526004018080602001828103825260328152602001806134d86032913960400191505060405180910390fd5b8482828080601f0160208091040260200160405190810160405280939291908181526020018383808284376000920182905250604080516020601f8c018190048102820181019092528a8152919450849350839250610bf691908b908b90819084018382808284376000920191909152506117ce92505050565b9450509350935050606080610c0c8c8685611814565b91509150610c3d8c8383877f0000000000000000000000000000000000000000000000000000000000000000611854565b50505050506060610c4d82611486565b5050915050610ae783826116ed565b7f099f75155f0e997bf83a7993a71d5e7e7540bd386fe1e84643a09ce6b412521981565b5050505050565b7ffa7dd04da627f433da73c4355ead9c75682a67a8fc84d3f6170ef0922f402d2481565b7fb9dfbaccbe5cd2a84fdcf1d15f23ef25d23086f5afbaa99516065ed4a5bbc7a381565b7ff658eb804cc1da8af5599b584aaf3d55407a3c721c42641a6a5270e963d782c381565b7f000000000000000000000000000000000000000000000000000000000000000090565b7fdfd5ee0f6067928bf85a7c4430811282840bc99332dda3dab462c02bf95b67cc81565b600060608080806001600160e01b031988166319bbf0c560e11b1415610d7457610d658787611ac8565b94509450945094509450610e5a565b6001600160e01b03198816632e77eeb360e21b1415610d9757610d658787611c9f565b6001600160e01b0319881663dfd5ee0f60e01b1415610dba57610d658787611d5a565b6001600160e01b03198816631d51f49b60e01b1415610ddd57610d658787611e4b565b6001600160e01b0319881663099f751560e01b1415610e0057610d658787611f9a565b6001600160e01b0319881663c29fa9dd60e01b1415610e2357610d65878761212f565b60405162461bcd60e51b815260040180806020018281038252602781526020018061348b6027913960400191505060405180910390fd5b939792965093509350565b60408051808201909152600481526349444c4560e01b602082015290565b7f03e38a2bd7063d45c897edeafc330e71657502dd86434d3c37a489caf116af6981565b7f000000000000000000000000000000000000000000000000000000000000000090565b7f000000000000000000000000000000000000000000000000000000000000000090565b7f68e30677f607df46e87da13e15b637784cfa62374b653f35ab43d10361a2f83081565b336001600160a01b037f00000000000000000000000000000000000000000000000000000000000000001614610f7a5760405162461bcd60e51b81526004018080602001828103825260328152602001806134d86032913960400191505060405180910390fd5b8482828080601f0160208091040260200160405190810160405280939291908181526020018383808284376000920182905250604080516020601f8c018190048102820181019092528a8152919450610ff19350909150899089908190840183828082843760009201919091525061228092505050565b915050610ffd816122ab565b61100f8861100a8361231c565b612524565b50506060610c4d82611486565b336001600160a01b037f000000000000000000000000000000000000000000000000000000000000000016146110835760405162461bcd60e51b81526004018080602001828103825260328152602001806134d86032913960400191505060405180910390fd5b8482828080601f0160208091040260200160405190810160405280939291908181526020018383808284376000920182905250604080516020601f8c018190048102820181019092528a81529194506110fa9350909150899089908190840183828082843760009201919091525061268092505050565b5050905061118081826001600160a01b03166370a08231306040518263ffffffff1660e01b815260040180826001600160a01b0316815260200191505060206040518083038186803b15801561114f57600080fd5b505afa158015611163573d6000803e3d6000fd5b505050506040513d602081101561117957600080fd5b50516126b4565b61118d8861100a8361231c565b50506060610ad882611486565b7f000000000000000000000000000000000000000000000000000000000000000090565b336001600160a01b037f000000000000000000000000000000000000000000000000000000000000000016146112255760405162461bcd60e51b81526004018080602001828103825260328152602001806134d86032913960400191505060405180910390fd5b8482828080601f0160208091040260200160405190810160405280939291908181526020018383808284376000920182905250604080516020601f8c018190048102820181019092528a815291945084935061129c92508a908a908190840183828082843760009201919091525061272a92505050565b93505092505060006112ad83612767565b90506001600160a01b0381166112f45760405162461bcd60e51b815260040180806020018281038252602e81526020018061350a602e913960400191505060405180910390fd5b6060806113028c8686611814565b91509150611333308383867f0000000000000000000000000000000000000000000000000000000000000000611854565b6000836001600160a01b03166370a08231306040518263ffffffff1660e01b815260040180826001600160a01b0316815260200191505060206040518083038186803b15801561138257600080fd5b505afa158015611396573d6000803e3d6000fd5b505050506040513d60208110156113ac57600080fd5b5051905080156113c1576113c186858361164e565b5050505050506060610c4d82611486565b7f848f3a590fb2f9795d1a275009c54c26c53833277c96b90e0ddd01753a1d590681565b7f3377e18acf9e83665eacd6af109261424fca32a298e2fc2e6095ba563fb8390e81565b7f000000000000000000000000000000000000000000000000000000000000000090565b7f1d51f49b5273d9ddbb643dc349fab8d36dbb470209c2ea71033bea49dd311c2781565b7fc29fa9dde84204c2908778afd0613d802d31cf046179b88f6d2b4a4e507ea2d581565b600060608060608480602001905160808110156114a257600080fd5b815160208301805160405192949293830192919084600160201b8211156114c857600080fd5b9083019060208201858111156114dd57600080fd5b82518660208202830111600160201b821117156114f957600080fd5b82525081516020918201928201910280838360005b8381101561152657818101518382015260200161150e565b5050505090500160405260200180516040519392919084600160201b82111561154e57600080fd5b90830190602082018581111561156357600080fd5b82518660208202830111600160201b8211171561157f57600080fd5b82525081516020918201928201910280838360005b838110156115ac578181015183820152602001611594565b5050505090500160405260200180516040519392919084600160201b8211156115d457600080fd5b9083019060208201858111156115e957600080fd5b82518660208202830111600160201b8211171561160557600080fd5b82525081516020918201928201910280838360005b8381101561163257818101518382015260200161161a565b5050505090500160405250505093509350935093509193509193565b611659828483612808565b60408051632befabbf60e01b81526004810183905260016024820152731ad1fc9964c551f456238dd88d6a38344b5319d7604482015290516001600160a01b03851691632befabbf9160648083019260209291908290030181600087803b1580156116c357600080fd5b505af11580156116d7573d6000803e3d6000fd5b505050506040513d6020811015610c8057600080fd5b60005b81518110156117c957600082828151811061170757fe5b60200260200101516001600160a01b03166370a08231306040518263ffffffff1660e01b815260040180826001600160a01b0316815260200191505060206040518083038186803b15801561175b57600080fd5b505afa15801561176f573d6000803e3d6000fd5b505050506040513d602081101561178557600080fd5b5051905080156117c0576117c084828585815181106117a057fe5b60200260200101516001600160a01b03166128a09092919063ffffffff16565b506001016116f0565b505050565b60008060008060008580602001905160a08110156117eb57600080fd5b508051602082015160408301516060840151608090940151929a91995097509195509350915050565b606080611820846122ab565b6118298461231c565b9150821561183d5761183b85836128f2565b505b816118483084612a48565b91509150935093915050565b60006001600160a01b038216158061187d5750826001600160a01b0316826001600160a01b0316145b905060005b8551811015611abf5784818151811061189757fe5b6020026020010151600014806118d2575060006001600160a01b03168682815181106118bf57fe5b60200260200101516001600160a01b0316145b806119015750836001600160a01b03168682815181106118ee57fe5b60200260200101516001600160a01b0316145b1561190b57611ab7565b6060828061193d5750836001600160a01b031687838151811061192a57fe5b60200260200101516001600160a01b0316145b156119d657604080516002808252606082018352909160208301908036833701905050905086828151811061196e57fe5b60200260200101518160008151811061198357fe5b60200260200101906001600160a01b031690816001600160a01b03168152505084816001815181106119b157fe5b60200260200101906001600160a01b031690816001600160a01b031681525050611a95565b604080516003808252608082019092529060208201606080368337019050509050868281518110611a0357fe5b602002602001015181600081518110611a1857fe5b60200260200101906001600160a01b031690816001600160a01b0316815250508381600181518110611a4657fe5b60200260200101906001600160a01b031690816001600160a01b0316815250508481600281518110611a7457fe5b60200260200101906001600160a01b031690816001600160a01b0316815250505b611ab588878481518110611aa557fe5b6020026020010151600184612b48565b505b600101611882565b50505050505050565b60006060806060806000611b1188888080601f016020809104026020016040519081016040528093929190818152602001838380828437600092019190915250612d2992505050565b909650945090506000611b2382612767565b6001600160a01b03161415611b695760405162461bcd60e51b81526004018080602001828103825260348152602001806135d26034913960400191505060405180910390fd5b8351855114611ba95760405162461bcd60e51b815260040180806020018281038252602d815260200180613400602d913960400191505060405180910390fd5b6060611bb48261231c565b905060005b8651811015611c47576000868281518110611bd057fe5b60200260200101511115611c3f57611c04878281518110611bed57fe5b602002602001015183612e6790919063ffffffff16565b611c3f5760405162461bcd60e51b81526004018080602001828103825260338152602001806134586033913960400191505060405180910390fd5b600101611bb9565b50600186866000805b50604051908082528060200260200182016040528015611c7a578160200160208202803683370190505b50604080516000815260208101909152939d929c50909a509850909650945050505050565b6000606080606080600080611ce989898080601f01602080910402602001604051908101604052809392919081815260200183838082843760009201919091525061228092505050565b90925090506000611cf982612767565b6001600160a01b03161415611d3f5760405162461bcd60e51b81526004018080602001828103825260338152602001806135386033913960400191505060405180910390fd5b611d498282612ebd565b909650945060028686600080611c50565b60006060806060806000806000611da68a8a8080601f01602080910402602001604051908101604052809392919081815260200183838082843760009201919091525061272a92505050565b50925092509250611db78383612ebd565b604080516001808252818301909252929950909750602080830190803683370190505094508185600081518110611dea57fe5b6001600160a01b03929092166020928302919091018201526040805160018082528183019092529182810190803683370190505093508084600081518110611e2e57fe5b602002602001018181525050600297505050509295509295909350565b6000606080606080600080600080611e988b8b8080601f0160208091040260200160405190810160405280939291908181526020018383808284376000920191909152506117ce92505050565b50935093509350935060006001600160a01b0316611eb584612767565b6001600160a01b03161415611efb5760405162461bcd60e51b815260040180806020018281038252603a815260200180613598603a913960400191505060405180910390fd5b611f058484612ebd565b604080516001808252818301909252929a50909850602080830190803683370190505095508186600081518110611f3857fe5b6001600160a01b03929092166020928302919091018201526040805160018082528183019092529182810190803683370190505094508085600081518110611f7c57fe5b60200260200101818152505060029850505050509295509295909350565b60006060806060806000806000611fe68a8a8080601f01602080910402602001604051908101604052809392919081815260200183838082843760009201919091525061268092505050565b9250925092506000611ff784612767565b90506001600160a01b03811661203e5760405162461bcd60e51b815260040180806020018281038252602b81526020018061342d602b913960400191505060405180910390fd5b6040805160018082528183019092529060208083019080368337019050509750808860008151811061206c57fe5b6001600160a01b039290921660209283029190910182015260408051600180825281830190925291828101908036833701905050965082876000815181106120b057fe5b60209081029190910101526040805160018082528183019092529081602001602082028036833701905050955083866000815181106120eb57fe5b6001600160a01b03929092166020928302919091018201526040805160018082528183019092529182810190803683370190505094508185600081518110611f7c57fe5b6000606080606080600080600061217b8a8a8080601f01602080910402602001604051908101604052809392919081815260200183838082843760009201919091525061268092505050565b925092509250600061218c84612767565b90506001600160a01b0381166121d35760405162461bcd60e51b815260040180806020018281038252602d81526020018061356b602d913960400191505060405180910390fd5b6040805160018082528183019092529060208083019080368337019050509750838860008151811061220157fe5b6001600160a01b0392909216602092830291909101820152604080516001808252818301909252918281019080368337019050509650828760008151811061224557fe5b60209081029190910101526040805160018082528183019092529081602001602082028036833701905050955080866000815181106120eb57fe5b60008082806020019051604081101561229857600080fd5b5080516020909101519092509050915091565b806001600160a01b0316638b30b51660006040518263ffffffff1660e01b815260040180828152602001915050602060405180830381600087803b1580156122f257600080fd5b505af1158015612306573d6000803e3d6000fd5b505050506040513d60208110156117c957600080fd5b604080516350b28af760e01b8152600060048201819052915160609284926001600160a01b038416926350b28af792602480840193919291829003018186803b15801561236857600080fd5b505afa15801561237c573d6000803e3d6000fd5b505050506040513d6000823e601f3d908101601f1916820160405260208110156123a557600080fd5b8101908080516040519392919084600160201b8211156123c457600080fd5b9083019060208201858111156123d957600080fd5b82518660208202830111600160201b821117156123f557600080fd5b82525081516020918201928201910280838360005b8381101561242257818101518382015260200161240a565b505050509050016040525050505167ffffffffffffffff8111801561244657600080fd5b50604051908082528060200260200182016040528015612470578160200160208202803683370190505b50915060005b825181101561251d57816001600160a01b031663746daa4e826040518263ffffffff1660e01b81526004018082815260200191505060206040518083038186803b1580156124c357600080fd5b505afa1580156124d7573d6000803e3d6000fd5b505050506040513d60208110156124ed57600080fd5b505183518490839081106124fd57fe5b6001600160a01b0390921660209283029190910190910152600101612476565b5050919050565b6060815167ffffffffffffffff8111801561253e57600080fd5b50604051908082528060200260200182016040528015612568578160200160208202803683370190505b50905060005b825181101561267857600083828151811061258557fe5b60200260200101519050806001600160a01b03166370a08231306040518263ffffffff1660e01b815260040180826001600160a01b0316815260200191505060206040518083038186803b1580156125dc57600080fd5b505afa1580156125f0573d6000803e3d6000fd5b505050506040513d602081101561260657600080fd5b5051835184908490811061261657fe5b602002602001018181525050600083838151811061263057fe5b6020026020010151111561266f5761266f8584848151811061264e57fe5b6020026020010151836001600160a01b03166128a09092919063ffffffff16565b5060010161256e565b505b92915050565b600080600083806020019051606081101561269a57600080fd5b508051602082015160409092015190969195509350915050565b816001600160a01b0316638b30b516826040518263ffffffff1660e01b815260040180828152602001915050602060405180830381600087803b1580156126fa57600080fd5b505af115801561270e573d6000803e3d6000fd5b505050506040513d602081101561272457600080fd5b50505050565b60008060008084806020019051608081101561274557600080fd5b5080516020820151604083015160609093015191989097509195509350915050565b60007f00000000000000000000000000000000000000000000000000000000000000006001600160a01b03166366adb867836040518263ffffffff1660e01b815260040180826001600160a01b0316815260200191505060206040518083038186803b1580156127d657600080fd5b505afa1580156127ea573d6000803e3d6000fd5b505050506040513d602081101561280057600080fd5b505192915050565b60408051636eb1769f60e11b81523060048201526001600160a01b0384811660248301529151839286169163dd62ed3e916044808301926020929190829003018186803b15801561285857600080fd5b505afa15801561286c573d6000803e3d6000fd5b505050506040513d602081101561288257600080fd5b505110156117c9576117c96001600160a01b03841683600019612fbf565b604080516001600160a01b038416602482015260448082018490528251808303909101815260649091019091526020810180516001600160e01b031663a9059cbb60e01b1790526117c99084906130ce565b6060815167ffffffffffffffff8111801561290c57600080fd5b50604051908082528060200260200182016040528015612936578160200160208202803683370190505b50905060005b825181101561267857600083828151811061295357fe5b60200260200101519050806001600160a01b03166370a08231866040518263ffffffff1660e01b815260040180826001600160a01b0316815260200191505060206040518083038186803b1580156129aa57600080fd5b505afa1580156129be573d6000803e3d6000fd5b505050506040513d60208110156129d457600080fd5b505183518490849081106129e457fe5b60200260200101818152505060008383815181106129fe57fe5b60200260200101511115612a3f57612a3f8530858581518110612a1d57fe5b6020026020010151846001600160a01b031661317f909392919063ffffffff16565b5060010161293c565b6060815167ffffffffffffffff81118015612a6257600080fd5b50604051908082528060200260200182016040528015612a8c578160200160208202803683370190505b50905060005b825181101561267857828181518110612aa757fe5b60200260200101516001600160a01b03166370a08231856040518263ffffffff1660e01b815260040180826001600160a01b0316815260200191505060206040518083038186803b158015612afb57600080fd5b505afa158015612b0f573d6000803e3d6000fd5b505050506040513d6020811015612b2557600080fd5b50518251839083908110612b3557fe5b6020908102919091010152600101612a92565b612b8781600081518110612b5857fe5b60200260200101517f000000000000000000000000000000000000000000000000000000000000000085612808565b7f00000000000000000000000000000000000000000000000000000000000000006001600160a01b03166338ed173984848488612bc26131d9565b6040518663ffffffff1660e01b81526004018086815260200185815260200180602001846001600160a01b03168152602001838152602001828103825285818151815260200191508051906020019060200280838360005b83811015612c32578181015183820152602001612c1a565b505050509050019650505050505050600060405180830381600087803b158015612c5b57600080fd5b505af1158015612c6f573d6000803e3d6000fd5b505050506040513d6000823e601f3d908101601f191682016040526020811015612c9857600080fd5b8101908080516040519392919084600160201b821115612cb757600080fd5b908301906020820185811115612ccc57600080fd5b82518660208202830111600160201b82111715612ce857600080fd5b82525081516020918201928201910280838360005b83811015612d15578181015183820152602001612cfd565b505050509050016040525050505050505050565b6000606080838060200190516060811015612d4357600080fd5b815160208301805160405192949293830192919084600160201b821115612d6957600080fd5b908301906020820185811115612d7e57600080fd5b82518660208202830111600160201b82111715612d9a57600080fd5b82525081516020918201928201910280838360005b83811015612dc7578181015183820152602001612daf565b5050505090500160405260200180516040519392919084600160201b821115612def57600080fd5b908301906020820185811115612e0457600080fd5b82518660208202830111600160201b82111715612e2057600080fd5b82525081516020918201928201910280838360005b83811015612e4d578181015183820152602001612e35565b505050509050016040525050509250925092509193909250565b6000805b8351811015612eb357838181518110612e8057fe5b60200260200101516001600160a01b0316836001600160a01b03161415612eab57600191505061267a565b600101612e6b565b5060009392505050565b604080516001808252818301909252606091829190602080830190803683370190505091508282600081518110612ef057fe5b6001600160a01b0392909216602092830291909101820152604080516001808252818301909252918281019080368337019050509050826001600160a01b03166370a08231856040518263ffffffff1660e01b815260040180826001600160a01b0316815260200191505060206040518083038186803b158015612f7357600080fd5b505afa158015612f87573d6000803e3d6000fd5b505050506040513d6020811015612f9d57600080fd5b505181518290600090612fac57fe5b6020026020010181815250509250929050565b801580613045575060408051636eb1769f60e11b81523060048201526001600160a01b03848116602483015291519185169163dd62ed3e91604480820192602092909190829003018186803b15801561301757600080fd5b505afa15801561302b573d6000803e3d6000fd5b505050506040513d602081101561304157600080fd5b5051155b6130805760405162461bcd60e51b81526004018080602001828103825260368152602001806136306036913960400191505060405180910390fd5b604080516001600160a01b038416602482015260448082018490528251808303909101815260649091019091526020810180516001600160e01b031663095ea7b360e01b1790526117c99084905b6060613123826040518060400160405280602081526020017f5361666545524332303a206c6f772d6c6576656c2063616c6c206661696c6564815250856001600160a01b03166131e09092919063ffffffff16565b8051909150156117c95780806020019051602081101561314257600080fd5b50516117c95760405162461bcd60e51b815260040180806020018281038252602a815260200180613606602a913960400191505060405180910390fd5b604080516001600160a01b0380861660248301528416604482015260648082018490528251808303909101815260849091019091526020810180516001600160e01b03166323b872dd60e01b1790526127249085906130ce565b6001420190565b60606131ef84846000856131f9565b90505b9392505050565b60608247101561323a5760405162461bcd60e51b81526004018080602001828103825260268152602001806134b26026913960400191505060405180910390fd5b61324385613355565b613294576040805162461bcd60e51b815260206004820152601d60248201527f416464726573733a2063616c6c20746f206e6f6e2d636f6e7472616374000000604482015290519081900360640190fd5b60006060866001600160a01b031685876040518082805190602001908083835b602083106132d35780518252601f1990920191602091820191016132b4565b6001836020036101000a03801982511681845116808217855250505050505090500191505060006040518083038185875af1925050503d8060008114613335576040519150601f19603f3d011682016040523d82523d6000602084013e61333a565b606091505b509150915061334a82828661335b565b979650505050505050565b3b151590565b6060831561336a5750816131f2565b82511561337a5782518084602001fd5b8160405162461bcd60e51b81526004018080602001828103825283818151815260200191508051906020019080838360005b838110156133c45781810151838201526020016133ac565b50505050905090810190601f1680156133f15780820380516001836020036101000a031916815260200191505b509250505060405180910390fdfe5f5f7061727365417373657473466f72417070726f76654173736574733a20556e657175616c206172726179735f5f7061727365417373657473466f724c656e643a20556e737570706f727465642069646c65546f6b656e5f5f7061727365417373657473466f72417070726f76654173736574733a20496e76616c69642072657761726420746f6b656e7061727365417373657473466f724d6574686f643a205f73656c6563746f7220696e76616c6964416464726573733a20696e73756666696369656e742062616c616e636520666f722063616c6c4f6e6c792074686520496e746567726174696f6e4d616e616765722063616e2063616c6c20746869732066756e6374696f6e636c61696d52657761726473416e645265696e766573743a20556e737570706f727465642069646c65546f6b656e5f5f7061727365417373657473466f72436c61696d526577617264733a20556e737570706f727465642069646c65546f6b656e5f5f7061727365417373657473466f7252656465656d3a20556e737570706f727465642069646c65546f6b656e5f5f7061727365417373657473466f72436c61696d52657761726473416e64537761703a20556e737570706f727465642069646c65546f6b656e5f5f7061727365417373657473466f72417070726f76654173736574733a20556e737570706f727465642069646c65546f6b656e5361666545524332303a204552433230206f7065726174696f6e20646964206e6f7420737563636565645361666545524332303a20617070726f76652066726f6d206e6f6e2d7a65726f20746f206e6f6e2d7a65726f20616c6c6f77616e6365a26469706673582212205103a413ecfe7577670ca48d9347827b0b661924fa99f2b5ef5de5dc4005c22f64736f6c634300060c0033",
  "devdoc": {
    "author": "Enzyme Council <security@enzyme.finance>",
    "details": "There are some idiosyncrasies of reward accrual and claiming in IdleTokens that are handled by this adapter: - Rewards accrue to the IdleToken holder, but the accrued amount is passed to the recipient of a transfer. - Claiming rewards cannot be done on behalf of a holder, but must be done directly. - Claiming rewards occurs automatically upon redeeming, but there are situations when it is difficult to know whether to expect incoming rewards (e.g., after a user mints idleTokens and then redeems before any other user has interacted with the protocol, then getGovTokensAmounts() will return 0 balances). Because of this difficulty - and in keeping with how other adapters treat claimed rewards - this adapter does not report claimed rewards as incomingAssets.",
    "kind": "dev",
    "methods": {
      "approveAssets(address,bytes,bytes)": {
        "details": "No logic necessary. Exists only to grant adapter with necessary approvals from the vault, which takes place in the IntegrationManager."
      },
      "claimRewards(address,bytes,bytes)": {
        "params": {
          "_encodedAssetTransferArgs": "Encoded args for expected assets to spend and receive",
          "_encodedCallArgs": "The encoded parameters for the callOnIntegration",
          "_vaultProxy": "The VaultProxy of the calling fund"
        }
      },
      "claimRewardsAndReinvest(address,bytes,bytes)": {
        "details": "The `useFullBalances` option indicates whether to use only the newly claimed balances of rewards tokens, or whether to use the full balances of these assets in the vault. If full asset balances are to be used, then this requires the adapter to be granted an allowance of each reward token by the vault. For supported assets (e.g., COMP), this must be done via the `approveAssets()` function in this adapter. For unsupported assets (e.g., IDLE), this must be done via `ComptrollerProxy.vaultCallOnContract()`, if allowed.",
        "params": {
          "_encodedAssetTransferArgs": "Encoded args for expected assets to spend and receive",
          "_encodedCallArgs": "Encoded order parameters",
          "_vaultProxy": "The VaultProxy of the calling fund"
        }
      },
      "claimRewardsAndSwap(address,bytes,bytes)": {
        "details": "The `useFullBalances` option indicates whether to use only the newly claimed balances of rewards tokens, or whether to use the full balances of these assets in the vault. If full asset balances are to be used, then this requires the adapter to be granted an allowance of each reward token by the vault. For supported assets (e.g., COMP), this must be done via the `approveAssets()` function in this adapter. For unsupported assets (e.g., IDLE), this must be done via `ComptrollerProxy.vaultCallOnContract()`, if allowed.",
        "params": {
          "_encodedAssetTransferArgs": "Encoded args for expected assets to spend and receive",
          "_encodedCallArgs": "Encoded order parameters",
          "_vaultProxy": "The VaultProxy of the calling fund"
        }
      },
      "getIdlePriceFeed()": {
        "returns": {
          "idlePriceFeed_": "The `IDLE_PRICE_FEED` variable value"
        }
      },
      "getIntegrationManager()": {
        "returns": {
          "integrationManager_": "The `INTEGRATION_MANAGER` variable value"
        }
      },
      "getUniswapV2Router2()": {
        "returns": {
          "router_": "The `UNISWAP_V2_ROUTER2` variable value"
        }
      },
      "getWethToken()": {
        "returns": {
          "wethToken_": "The `WETH_TOKEN` variable value"
        }
      },
      "identifier()": {
        "returns": {
          "identifier_": "An identifier string"
        }
      },
      "lend(address,bytes,bytes)": {
        "params": {
          "_encodedAssetTransferArgs": "Encoded args for expected assets to spend and receive",
          "_vaultProxy": "The VaultProxy of the calling fund"
        }
      },
      "parseAssetsForMethod(bytes4,bytes)": {
        "params": {
          "_encodedCallArgs": "The encoded parameters for the callOnIntegration",
          "_selector": "The function selector for the callOnIntegration"
        },
        "returns": {
          "incomingAssets_": "The assets to receive in the call",
          "minIncomingAssetAmounts_": "The min asset amounts to receive in the call",
          "spendAssetAmounts_": "The max asset amounts to spend in the call",
          "spendAssetsHandleType_": "A type that dictates how to handle granting the adapter access to spend assets (`None` by default)",
          "spendAssets_": "The assets to spend in the call"
        }
      },
      "redeem(address,bytes,bytes)": {
        "details": "This will also pay out any due gov token rewards. We use the full IdleToken balance of the current contract rather than the user input for the corner case of a prior balance existing in the current contract, which would throw off the per-user avg price of the IdleToken used by Idle, and would leave the initial token balance in the current contract post-tx.",
        "params": {
          "_encodedAssetTransferArgs": "Encoded args for expected assets to spend and receive",
          "_encodedCallArgs": "The encoded parameters for the callOnIntegration",
          "_vaultProxy": "The VaultProxy of the calling fund"
        }
      }
    },
    "title": "IdleAdapter Contract",
    "version": 1
  },
  "userdoc": {
    "kind": "user",
    "methods": {
      "approveAssets(address,bytes,bytes)": {
        "notice": "Approves assets from the vault to be used by this contract."
      },
      "claimRewards(address,bytes,bytes)": {
        "notice": "Claims rewards for a givenIdleToken"
      },
      "claimRewardsAndReinvest(address,bytes,bytes)": {
        "notice": "Claims rewards and then compounds the rewards tokens back into the idleToken"
      },
      "claimRewardsAndSwap(address,bytes,bytes)": {
        "notice": "Claims rewards and then swaps the rewards tokens to the specified asset via UniswapV2"
      },
      "getIdlePriceFeed()": {
        "notice": "Gets the `IDLE_PRICE_FEED` variable"
      },
      "getIntegrationManager()": {
        "notice": "Gets the `INTEGRATION_MANAGER` variable"
      },
      "getUniswapV2Router2()": {
        "notice": "Gets the `UNISWAP_V2_ROUTER2` variable"
      },
      "getWethToken()": {
        "notice": "Gets the `WETH_TOKEN` variable"
      },
      "identifier()": {
        "notice": "Provides a constant string identifier for an adapter"
      },
      "lend(address,bytes,bytes)": {
        "notice": "Lends an amount of a token for idleToken"
      },
      "parseAssetsForMethod(bytes4,bytes)": {
        "notice": "Parses the expected assets to receive from a call on integration"
      },
      "redeem(address,bytes,bytes)": {
        "notice": "Redeems an amount of idleToken for its underlying asset"
      }
    },
    "notice": "Adapter for Idle Lending <https://idle.finance/>",
    "version": 1
  },
  "storageLayout": {
    "storage": [],
    "types": null
  }
}