{
  "address": "0x4B37f5DCA5FB2D5548e9EcEe9f98d9Ac95f60774",
  "abi": [
    {
      "inputs": [
        {
          "internalType": "address",
          "name": "_fundDeployer",
          "type": "address"
        },
        {
          "internalType": "address",
          "name": "_policyManager",
          "type": "address"
        },
        {
          "internalType": "address",
          "name": "_derivativePriceFeed",
          "type": "address"
        },
        {
          "internalType": "address",
          "name": "_primitivePriceFeed",
          "type": "address"
        }
      ],
      "stateMutability": "nonpayable",
      "type": "constructor"
    },
    {
      "anonymous": false,
      "inputs": [
        {
          "indexed": true,
          "internalType": "address",
          "name": "adapter",
          "type": "address"
        },
        {
          "indexed": true,
          "internalType": "string",
          "name": "identifier",
          "type": "string"
        }
      ],
      "name": "AdapterDeregistered",
      "type": "event"
    },
    {
      "anonymous": false,
      "inputs": [
        {
          "indexed": true,
          "internalType": "address",
          "name": "adapter",
          "type": "address"
        },
        {
          "indexed": true,
          "internalType": "string",
          "name": "identifier",
          "type": "string"
        }
      ],
      "name": "AdapterRegistered",
      "type": "event"
    },
    {
      "anonymous": false,
      "inputs": [
        {
          "indexed": true,
          "internalType": "address",
          "name": "comptrollerProxy",
          "type": "address"
        },
        {
          "indexed": true,
          "internalType": "address",
          "name": "account",
          "type": "address"
        }
      ],
      "name": "AuthUserAddedForFund",
      "type": "event"
    },
    {
      "anonymous": false,
      "inputs": [
        {
          "indexed": true,
          "internalType": "address",
          "name": "comptrollerProxy",
          "type": "address"
        },
        {
          "indexed": true,
          "internalType": "address",
          "name": "account",
          "type": "address"
        }
      ],
      "name": "AuthUserRemovedForFund",
      "type": "event"
    },
    {
      "anonymous": false,
      "inputs": [
        {
          "indexed": true,
          "internalType": "address",
          "name": "comptrollerProxy",
          "type": "address"
        },
        {
          "indexed": false,
          "internalType": "address",
          "name": "vaultProxy",
          "type": "address"
        },
        {
          "indexed": false,
          "internalType": "address",
          "name": "caller",
          "type": "address"
        },
        {
          "indexed": true,
          "internalType": "address",
          "name": "adapter",
          "type": "address"
        },
        {
          "indexed": true,
          "internalType": "bytes4",
          "name": "selector",
          "type": "bytes4"
        },
        {
          "indexed": false,
          "internalType": "bytes",
          "name": "integrationData",
          "type": "bytes"
        },
        {
          "indexed": false,
          "internalType": "address[]",
          "name": "incomingAssets",
          "type": "address[]"
        },
        {
          "indexed": false,
          "internalType": "uint256[]",
          "name": "incomingAssetAmounts",
          "type": "uint256[]"
        },
        {
          "indexed": false,
          "internalType": "address[]",
          "name": "outgoingAssets",
          "type": "address[]"
        },
        {
          "indexed": false,
          "internalType": "uint256[]",
          "name": "outgoingAssetAmounts",
          "type": "uint256[]"
        }
      ],
      "name": "CallOnIntegrationExecutedForFund",
      "type": "event"
    },
    {
      "inputs": [
        {
          "internalType": "bool",
          "name": "",
          "type": "bool"
        }
      ],
      "name": "activateForFund",
      "outputs": [],
      "stateMutability": "nonpayable",
      "type": "function"
    },
    {
      "inputs": [
        {
          "internalType": "address",
          "name": "_adapter",
          "type": "address"
        }
      ],
      "name": "adapterIsRegistered",
      "outputs": [
        {
          "internalType": "bool",
          "name": "isRegistered_",
          "type": "bool"
        }
      ],
      "stateMutability": "view",
      "type": "function"
    },
    {
      "inputs": [
        {
          "internalType": "address",
          "name": "_comptrollerProxy",
          "type": "address"
        },
        {
          "internalType": "address",
          "name": "_who",
          "type": "address"
        }
      ],
      "name": "addAuthUserForFund",
      "outputs": [],
      "stateMutability": "nonpayable",
      "type": "function"
    },
    {
      "inputs": [],
      "name": "deactivateForFund",
      "outputs": [],
      "stateMutability": "nonpayable",
      "type": "function"
    },
    {
      "inputs": [
        {
          "internalType": "address[]",
          "name": "_adapters",
          "type": "address[]"
        }
      ],
      "name": "deregisterAdapters",
      "outputs": [],
      "stateMutability": "nonpayable",
      "type": "function"
    },
    {
      "inputs": [],
      "name": "getDerivativePriceFeed",
      "outputs": [
        {
          "internalType": "address",
          "name": "derivativePriceFeed_",
          "type": "address"
        }
      ],
      "stateMutability": "view",
      "type": "function"
    },
    {
      "inputs": [],
      "name": "getExtensionDeployTimestamp",
      "outputs": [
        {
          "internalType": "uint256",
          "name": "",
          "type": "uint256"
        }
      ],
      "stateMutability": "view",
      "type": "function"
    },
    {
      "inputs": [],
      "name": "getFundDeployer",
      "outputs": [
        {
          "internalType": "address",
          "name": "fundDeployer_",
          "type": "address"
        }
      ],
      "stateMutability": "view",
      "type": "function"
    },
    {
      "inputs": [],
      "name": "getOwner",
      "outputs": [
        {
          "internalType": "address",
          "name": "owner_",
          "type": "address"
        }
      ],
      "stateMutability": "view",
      "type": "function"
    },
    {
      "inputs": [],
      "name": "getPolicyManager",
      "outputs": [
        {
          "internalType": "address",
          "name": "policyManager_",
          "type": "address"
        }
      ],
      "stateMutability": "view",
      "type": "function"
    },
    {
      "inputs": [],
      "name": "getPrimitivePriceFeed",
      "outputs": [
        {
          "internalType": "address",
          "name": "primitivePriceFeed_",
          "type": "address"
        }
      ],
      "stateMutability": "view",
      "type": "function"
    },
    {
      "inputs": [],
      "name": "getRegisteredAdapters",
      "outputs": [
        {
          "internalType": "address[]",
          "name": "registeredAdaptersArray_",
          "type": "address[]"
        }
      ],
      "stateMutability": "view",
      "type": "function"
    },
    {
      "inputs": [
        {
          "internalType": "address",
          "name": "_comptrollerProxy",
          "type": "address"
        }
      ],
      "name": "getVaultProxyForFund",
      "outputs": [
        {
          "internalType": "address",
          "name": "vaultProxy_",
          "type": "address"
        }
      ],
      "stateMutability": "view",
      "type": "function"
    },
    {
      "inputs": [
        {
          "internalType": "address",
          "name": "_comptrollerProxy",
          "type": "address"
        },
        {
          "internalType": "address",
          "name": "_who",
          "type": "address"
        }
      ],
      "name": "isAuthUserForFund",
      "outputs": [
        {
          "internalType": "bool",
          "name": "isAuthUser_",
          "type": "bool"
        }
      ],
      "stateMutability": "view",
      "type": "function"
    },
    {
      "inputs": [
        {
          "internalType": "address",
          "name": "_caller",
          "type": "address"
        },
        {
          "internalType": "uint256",
          "name": "_actionId",
          "type": "uint256"
        },
        {
          "internalType": "bytes",
          "name": "_callArgs",
          "type": "bytes"
        }
      ],
      "name": "receiveCallFromComptroller",
      "outputs": [],
      "stateMutability": "nonpayable",
      "type": "function"
    },
    {
      "inputs": [
        {
          "internalType": "address[]",
          "name": "_adapters",
          "type": "address[]"
        }
      ],
      "name": "registerAdapters",
      "outputs": [],
      "stateMutability": "nonpayable",
      "type": "function"
    },
    {
      "inputs": [
        {
          "internalType": "address",
          "name": "_comptrollerProxy",
          "type": "address"
        },
        {
          "internalType": "address",
          "name": "_who",
          "type": "address"
        }
      ],
      "name": "removeAuthUserForFund",
      "outputs": [],
      "stateMutability": "nonpayable",
      "type": "function"
    },
    {
      "inputs": [
        {
          "internalType": "bytes",
          "name": "",
          "type": "bytes"
        }
      ],
      "name": "setConfigForFund",
      "outputs": [],
      "stateMutability": "nonpayable",
      "type": "function"
    }
  ],
  "transactionHash": "0xdcd38e71ff148b59179d4e1a125cde9b97156a2a28fcfac5259d110e76b407f6",
  "args": [
    "0x217912B16c8A00C2D9F2fDFCA94127ca37cFe948",
    "0x73A064974e0B97c251fDc0c0E627F2518dfAeBEd",
    "0x5642D3380320aC106816b921c998758D61a224f2",
    "0x05993fB3AF1E99b09Fe0352982b38FBAC4f5CC1D"
  ],
  "solcInputHash": "34b1516e615d6cbcdbaf9542624efee9",
  "bytecode": "0x61012060405234801561001157600080fd5b506040516144b73803806144b78339818101604052608081101561003457600080fd5b50805160208201516040830151606093840151426080526001600160601b031993851b841660a05290841b831660c05290831b821660e05290911b166101005260805160a05160601c60c05160601c60e05160601c6101005160601c6143df6100d86000398061077152806121ac525080610f7b5280611b275280611d5e52508061072c528061224b5250806108175280610c2c52508061100852506143df6000f3fe608060405234801561001057600080fd5b50600436106101165760003560e01c806389cbe1d0116100a2578063bd8e959a11610071578063bd8e959a14610401578063d44ad6cb14610409578063e6c41ec914610411578063e87e9cf51461043f578063ecbed1001461045957610116565b806389cbe1d0146102af578063972b3de11461031d57806397c0ac871461038b578063a7f3b0a41461039357610116565b806349be72f3116100e957806349be72f31461022c578063501cc76114610234578063742695311461026257806380d5706314610288578063893d20e8146102a757610116565b80631bee801e1461011b57806321121528146101a05780632d98a99b146101e25780634679034614610206575b600080fd5b61019e6004803603606081101561013157600080fd5b6001600160a01b0382351691602081013591810190606081016040820135600160201b81111561016057600080fd5b82018360208201111561017257600080fd5b803590602001918460018302840111600160201b8311171561019357600080fd5b5090925090506104b1565b005b6101ce600480360360408110156101b657600080fd5b506001600160a01b0381358116916020013516610666565b604080519115158252519081900360200190f35b6101ea61072a565b604080516001600160a01b039092168252519081900360200190f35b6101ea6004803603602081101561021c57600080fd5b50356001600160a01b031661074e565b6101ea61076f565b61019e6004803603604081101561024a57600080fd5b506001600160a01b0381358116916020013516610793565b6101ce6004803603602081101561027857600080fd5b50356001600160a01b03166107f9565b61019e6004803603602081101561029e57600080fd5b50351515610806565b6101ea610813565b61019e600480360360208110156102c557600080fd5b810190602081018135600160201b8111156102df57600080fd5b8201836020820111156102f157600080fd5b803590602001918460018302840111600160201b8311171561031257600080fd5b50909250905061080f565b61019e6004803603602081101561033357600080fd5b810190602081018135600160201b81111561034d57600080fd5b82018360208201111561035f57600080fd5b803590602001918460208302840111600160201b8311171561038057600080fd5b50909250905061089f565b6101ea610c2a565b61019e600480360360208110156103a957600080fd5b810190602081018135600160201b8111156103c357600080fd5b8201836020820111156103d557600080fd5b803590602001918460208302840111600160201b831117156103f657600080fd5b509092509050610c4e565b61019e610f5a565b6101ea610f79565b61019e6004803603604081101561042757600080fd5b506001600160a01b0381358116916020013516610f9d565b610447611006565b60408051918252519081900360200190f35b61046161102a565b60408051602080825283518183015283519192839290830191858101910280838360005b8381101561049d578181015183820152602001610485565b505050509050019250505060405180910390f35b336000908152602081905260409020546001600160a01b0316806105065760405162461bcd60e51b815260040180806020018281038252602e815260200180613dc6602e913960400191505060405180910390fd5b6105103386610666565b61054b5760405162461bcd60e51b81526004018080602001828103825260328152602001806143786032913960400191505060405180910390fd5b8361059657610591858285858080601f0160208091040260200160405190810160405280939291908181526020018383808284376000920191909152506110c092505050565b61065f565b83600114156105df576105918184848080601f01602080910402602001604051908101604052809392919081815260200183838082843760009201919091525061112192505050565b8360021415610628576105918184848080601f01602080910402602001604051908101604052809392919081815260200183838082843760009201919091525061131a92505050565b60405162461bcd60e51b815260040180806020018281038252602d815260200180613ff2602d913960400191505060405180910390fd5b5050505050565b6001600160a01b03808316600090815260036020908152604080832093851683529290529081205460ff168061072157506001600160a01b0380841660009081526020818152604091829020548251631127a41d60e31b8152925193169263893d20e8926004808201939291829003018186803b1580156106e657600080fd5b505afa1580156106fa573d6000803e3d6000fd5b505050506040513d602081101561071057600080fd5b50516001600160a01b038381169116145b90505b92915050565b7f000000000000000000000000000000000000000000000000000000000000000090565b6001600160a01b03808216600090815260208190526040902054165b919050565b7f000000000000000000000000000000000000000000000000000000000000000090565b61079f82826000611583565b6001600160a01b03808316600081815260036020908152604080832094861680845294909152808220805460ff19169055517fba8783abf5207a89d51b58dcb44670608cf37909d412fca4e5a1639b09d741589190a35050565b60006107246001836117c3565b61080f336117d8565b5050565b60007f00000000000000000000000000000000000000000000000000000000000000006001600160a01b031663893d20e86040518163ffffffff1660e01b815260040160206040518083038186803b15801561086e57600080fd5b505afa158015610882573d6000803e3d6000fd5b505050506040513d602081101561089857600080fd5b5051905090565b6108a7610813565b6001600160a01b0316336001600160a01b0316146108f65760405162461bcd60e51b8152600401808060200182810382526049815260200180613ef16049913960600191505060405180910390fd5b806109325760405162461bcd60e51b815260040180806020018281038252602b815260200180613fc7602b913960400191505060405180910390fd5b60005b81811015610c2557600083838381811061094b57fe5b905060200201356001600160a01b03166001600160a01b031614156109a15760405162461bcd60e51b8152600401808060200182810382526029815260200180613ec86029913960400191505060405180910390fd5b6109c58383838181106109b057fe5b905060200201356001600160a01b03166107f9565b15610a015760405162461bcd60e51b815260040180806020018281038252602c815260200180614188602c913960400191505060405180910390fd5b610a30838383818110610a1057fe5b905060200201356001600160a01b031660016119bd90919063ffffffff16565b50828282818110610a3d57fe5b905060200201356001600160a01b03166001600160a01b0316637998a1c46040518163ffffffff1660e01b815260040160006040518083038186803b158015610a8557600080fd5b505afa158015610a99573d6000803e3d6000fd5b505050506040513d6000823e601f3d908101601f191682016040526020811015610ac257600080fd5b8101908080516040519392919084600160201b821115610ae157600080fd5b908301906020820185811115610af657600080fd5b8251600160201b811182820188101715610b0f57600080fd5b82525081516020918201929091019080838360005b83811015610b3c578181015183820152602001610b24565b50505050905090810190601f168015610b695780820380516001836020036101000a031916815260200191505b506040525050506040518082805190602001908083835b60208310610b9f5780518252601f199092019160209182019101610b80565b6001836020036101000a0380198251168184511680821785525050505050509050019150506040518091039020838383818110610bd857fe5b905060200201356001600160a01b03166001600160a01b03167f1e4247fdab5708a9838dfa7049b607d56751d7e44584c555c3ca8883b992806560405160405180910390a3600101610935565b505050565b7f000000000000000000000000000000000000000000000000000000000000000090565b610c56610813565b6001600160a01b0316336001600160a01b031614610ca55760405162461bcd60e51b8152600401808060200182810382526049815260200180613ef16049913960600191505060405180910390fd5b80610ce15760405162461bcd60e51b815260040180806020018281038252602d815260200180613f66602d913960400191505060405180910390fd5b60005b81811015610c2557610cfb8383838181106109b057fe5b610d365760405162461bcd60e51b815260040180806020018281038252602d81526020018061427a602d913960400191505060405180910390fd5b610d65838383818110610d4557fe5b905060200201356001600160a01b031660016119d290919063ffffffff16565b50828282818110610d7257fe5b905060200201356001600160a01b03166001600160a01b0316637998a1c46040518163ffffffff1660e01b815260040160006040518083038186803b158015610dba57600080fd5b505afa158015610dce573d6000803e3d6000fd5b505050506040513d6000823e601f3d908101601f191682016040526020811015610df757600080fd5b8101908080516040519392919084600160201b821115610e1657600080fd5b908301906020820185811115610e2b57600080fd5b8251600160201b811182820188101715610e4457600080fd5b82525081516020918201929091019080838360005b83811015610e71578181015183820152602001610e59565b50505050905090810190601f168015610e9e5780820380516001836020036101000a031916815260200191505b506040525050506040518082805190602001908083835b60208310610ed45780518252601f199092019160209182019101610eb5565b6001836020036101000a0380198251168184511680821785525050505050509050019150506040518091039020838383818110610f0d57fe5b905060200201356001600160a01b03166001600160a01b03167f82e6bc7d4d025a3153d55a40772ee04910b5eb018594e8e4747755898c12bcf460405160405180910390a3600101610ce4565b33600090815260208190526040902080546001600160a01b0319169055565b7f000000000000000000000000000000000000000000000000000000000000000090565b610fa982826001611583565b6001600160a01b03808316600081815260036020908152604080832094861680845294909152808220805460ff19166001179055517f7f92357681033cc9a5f4128ee1e66a08f1589a20b741353202780c556791c1279190a35050565b7f000000000000000000000000000000000000000000000000000000000000000090565b606061103660016119e7565b67ffffffffffffffff8111801561104c57600080fd5b50604051908082528060200260200182016040528015611076578160200160208202803683370190505b50905060005b81518110156110bc576110906001826119f2565b82828151811061109c57fe5b6001600160a01b039092166020928302919091019091015260010161107c565b5090565b60008060606110ce846119fe565b9250925092506110de8383611ade565b6060806060806110ee8989611c01565b9350935093509350611104878786868686611d5c565b611115898b89898989898989611faf565b50505050505050505050565b606081806020019051602081101561113857600080fd5b8101908080516040519392919084600160201b82111561115757600080fd5b90830190602082018581111561116c57600080fd5b82518660208202830111600160201b8211171561118857600080fd5b82525081516020918201928201910280838360005b838110156111b557818101518382015260200161119d565b50505050905001604052505050905060005b8151811015611314576111ec8282815181106111df57fe5b60200260200101516121a8565b6112275760405162461bcd60e51b81526004018080602001828103825260308152602001806143166030913960400191505060405180910390fd5b81818151811061123357fe5b60200260200101516001600160a01b03166370a08231856040518263ffffffff1660e01b815260040180826001600160a01b0316815260200191505060206040518083038186803b15801561128757600080fd5b505afa15801561129b573d6000803e3d6000fd5b505050506040513d60208110156112b157600080fd5b5051156112ef5760405162461bcd60e51b8152600401808060200182810382526032815260200180613df46032913960400191505060405180910390fd5b61130c338383815181106112ff57fe5b60200260200101516122e8565b6001016111c7565b50505050565b606081806020019051602081101561133157600080fd5b8101908080516040519392919084600160201b82111561135057600080fd5b90830190602082018581111561136557600080fd5b82518660208202830111600160201b8211171561138157600080fd5b82525081516020918201928201910280838360005b838110156113ae578181015183820152602001611396565b5050505090500160405250505090506000336001600160a01b031663e269c3d66040518163ffffffff1660e01b815260040160206040518083038186803b1580156113f857600080fd5b505afa15801561140c573d6000803e3d6000fd5b505050506040513d602081101561142257600080fd5b5051905060005b825181101561065f57816001600160a01b031683828151811061144857fe5b60200260200101516001600160a01b031614156114965760405162461bcd60e51b81526004018080602001828103825260428152602001806142386042913960600191505060405180910390fd5b8281815181106114a257fe5b60200260200101516001600160a01b03166370a08231866040518263ffffffff1660e01b815260040180826001600160a01b0316815260200191505060206040518083038186803b1580156114f657600080fd5b505afa15801561150a573d6000803e3d6000fd5b505050506040513d602081101561152057600080fd5b50511561155e5760405162461bcd60e51b81526004018080602001828103825260358152602001806141266035913960400191505060405180910390fd5b61157b3384838151811061156e57fe5b60200260200101516123ba565b600101611429565b6001600160a01b03838116600090815260208190526040902054166115d95760405162461bcd60e51b81526004018080602001828103825260328152602001806141b46032913960400191505060405180910390fd5b6001600160a01b03808416600090815260208181526040808320548151631127a41d60e31b815291519394169263893d20e892600480840193919291829003018186803b15801561162957600080fd5b505afa15801561163d573d6000803e3d6000fd5b505050506040513d602081101561165357600080fd5b50519050336001600160a01b0382161461169e5760405162461bcd60e51b8152600401808060200182810382526041815260200180613e876041913960600191505060405180910390fd5b806001600160a01b0316836001600160a01b031614156116ef5760405162461bcd60e51b8152600401808060200182810382526034815260200180613f936034913960400191505060405180910390fd5b811561175f576001600160a01b0380851660009081526003602090815260408083209387168352929052205460ff161561175a5760405162461bcd60e51b815260040180806020018281038252603c8152602001806140ea603c913960400191505060405180910390fd5b611314565b6001600160a01b0380851660009081526003602090815260408083209387168352929052205460ff166113145760405162461bcd60e51b8152600401808060200182810382526038815260200180613e4f6038913960400191505060405180910390fd5b6000610721836001600160a01b038416612405565b6001600160a01b03818116600090815260208190526040812054909116156118315760405162461bcd60e51b8152600401808060200182810382526025815260200180613d516025913960400191505060405180910390fd5b816001600160a01b031663c98091876040518163ffffffff1660e01b815260040160206040518083038186803b15801561186a57600080fd5b505afa15801561187e573d6000803e3d6000fd5b505050506040513d602081101561189457600080fd5b505190506001600160a01b0381166118dd5760405162461bcd60e51b815260040180806020018281038252602c815260200180613f3a602c913960400191505060405180910390fd5b806001600160a01b0316635a53e3486040518163ffffffff1660e01b815260040160206040518083038186803b15801561191657600080fd5b505afa15801561192a573d6000803e3d6000fd5b505050506040513d602081101561194057600080fd5b50516001600160a01b0383811691161461198b5760405162461bcd60e51b81526004018080602001828103825260358152602001806140b56035913960400191505060405180910390fd5b6001600160a01b03918216600090815260208190526040902080546001600160a01b0319169282169290921790915590565b6000610721836001600160a01b03841661241d565b6000610721836001600160a01b038416612467565b60006107248261252d565b60006107218383612531565b6000806060838060200190516060811015611a1857600080fd5b81516020830151604080850180519151939592948301929184600160201b821115611a4257600080fd5b908301906020820185811115611a5757600080fd5b8251600160201b811182820188101715611a7057600080fd5b82525081516020918201929091019080838360005b83811015611a9d578181015183820152602001611a85565b50505050905090810190601f168015611aca5780820380516001836020036101000a031916815260200191505b506040525050509250925092509193909250565b604080516001600160a01b0384811660208301526001600160e01b03198416828401528251808303840181526060830193849052630442bad560e01b90935233606483018181527f000000000000000000000000000000000000000000000000000000000000000090921693630442bad593919260049260840183815260200180602001828103825283818151815260200191508051906020019080838360005b83811015611b97578181015183820152602001611b7f565b50505050905090810190601f168015611bc45780820380516001836020036101000a031916815260200191505b50945050505050600060405180830381600087803b158015611be557600080fd5b505af1158015611bf9573d6000803e3d6000fd5b505050505050565b606080606080606080606060006060806060611c1d8d8d612595565b9650965096509650965096509650611d328d8d8686868c60405160200180856003811115611c4757fe5b8152602001806020018060200180602001848103845287818151815260200191508051906020019060200280838360005b83811015611c90578181015183820152602001611c78565b50505050905001848103835286818151815260200191508051906020019060200280838360005b83811015611ccf578181015183820152602001611cb7565b50505050905001848103825285818151815260200191508051906020019060200280838360005b83811015611d0e578181015183820152602001611cf6565b50505050905001975050505050505050604051602081830303815290604052612f6b565b611d428d888888888888886131db565b929d50909b50995097505050505050505092959194509250565b7f00000000000000000000000000000000000000000000000000000000000000006001600160a01b0316630442bad533600589898989898960405160200180876001600160a01b03168152602001866001600160e01b031916815260200180602001806020018060200180602001858103855289818151815260200191508051906020019060200280838360005b83811015611e02578181015183820152602001611dea565b50505050905001858103845288818151815260200191508051906020019060200280838360005b83811015611e41578181015183820152602001611e29565b50505050905001858103835287818151815260200191508051906020019060200280838360005b83811015611e80578181015183820152602001611e68565b50505050905001858103825286818151815260200191508051906020019060200280838360005b83811015611ebf578181015183820152602001611ea7565b505050509050019a50505050505050505050506040516020818303038152906040526040518463ffffffff1660e01b815260040180846001600160a01b03168152602001836005811115611f0f57fe5b815260200180602001828103825283818151815260200191508051906020019080838360005b83811015611f4d578181015183820152602001611f35565b50505050905090810190601f168015611f7a5780820380516001836020036101000a031916815260200191505b50945050505050600060405180830381600087803b158015611f9b57600080fd5b505af1158015611115573d6000803e3d6000fd5b856001600160e01b031916876001600160a01b0316336001600160a01b03167f72a42ea24876d542424742125bf664f755114a3dbf2b409ab609100c4d4612368c8c8a8a8a8a8a60405180886001600160a01b03168152602001876001600160a01b03168152602001806020018060200180602001806020018060200186810386528b818151815260200191508051906020019080838360005b83811015612061578181015183820152602001612049565b50505050905090810190601f16801561208e5780820380516001836020036101000a031916815260200191505b5086810385528a5181528a51602091820191808d01910280838360005b838110156120c35781810151838201526020016120ab565b50505050905001868103845289818151815260200191508051906020019060200280838360005b838110156121025781810151838201526020016120ea565b50505050905001868103835288818151815260200191508051906020019060200280838360005b83811015612141578181015183820152602001612129565b50505050905001868103825287818151815260200191508051906020019060200280838360005b83811015612180578181015183820152602001612168565b505050509050019c5050505050505050505050505060405180910390a4505050505050505050565b60007f00000000000000000000000000000000000000000000000000000000000000006001600160a01b0316639be918e6836040518263ffffffff1660e01b815260040180826001600160a01b0316815260200191505060206040518083038186803b15801561221757600080fd5b505afa15801561222b573d6000803e3d6000fd5b505050506040513d602081101561224157600080fd5b50518061072457507f00000000000000000000000000000000000000000000000000000000000000006001600160a01b0316639be918e6836040518263ffffffff1660e01b815260040180826001600160a01b0316815260200191505060206040518083038186803b1580156122b657600080fd5b505afa1580156122ca573d6000803e3d6000fd5b505050506040513d60208110156122e057600080fd5b505192915050565b604080516001600160a01b0383811660208084019190915283518084039091018152828401938490526310acd06d60e01b9093528416916310acd06d916006919060440180835b815260200180602001828103825283818151815260200191508051906020019080838360005b8381101561236d578181015183820152602001612355565b50505050905090810190601f16801561239a5780820380516001836020036101000a031916815260200191505b509350505050600060405180830381600087803b158015611be557600080fd5b604080516001600160a01b0383811660208084019190915283518084039091018152828401938490526310acd06d60e01b9093528416916310acd06d9160079190604401808361232f565b60009081526001919091016020526040902054151590565b60006124298383612405565b61245f57508154600181810184556000848152602080822090930184905584548482528286019093526040902091909155610724565b506000610724565b60008181526001830160205260408120548015612523578354600019808301919081019060009087908390811061249a57fe5b90600052602060002001549050808760000184815481106124b757fe5b6000918252602080832090910192909255828152600189810190925260409020908401905586548790806124e757fe5b60019003818190600052602060002001600090559055866001016000878152602001908152602001600020600090556001945050505050610724565b6000915050610724565b5490565b815460009082106125735760405162461bcd60e51b8152600401808060200182810382526022815260200180613d2f6022913960400191505060405180910390fd5b82600001828154811061258257fe5b9060005260206000200154905092915050565b60608060606000606080606060008060606125af8b6119fe565b9250925092506125be836107f9565b6125f95760405162461bcd60e51b815260040180806020018281038252602c81526020018061420c602c913960400191505060405180910390fd5b60408051633b663d6360e11b81526001600160e01b0319841660048201908152602482019283528351604483015283516001600160a01b038716936376cc7ac6938793879390929160640190602085019080838360005b83811015612668578181015183820152602001612650565b50505050905090810190601f1680156126955780820380516001836020036101000a031916815260200191505b50935050505060006040518083038186803b1580156126b357600080fd5b505afa1580156126c7573d6000803e3d6000fd5b505050506040513d6000823e601f3d908101601f1916820160405260a08110156126f057600080fd5b815160208301805160405192949293830192919084600160201b82111561271657600080fd5b90830190602082018581111561272b57600080fd5b82518660208202830111600160201b8211171561274757600080fd5b82525081516020918201928201910280838360005b8381101561277457818101518382015260200161275c565b5050505090500160405260200180516040519392919084600160201b82111561279c57600080fd5b9083019060208201858111156127b157600080fd5b82518660208202830111600160201b821117156127cd57600080fd5b82525081516020918201928201910280838360005b838110156127fa5781810151838201526020016127e2565b5050505090500160405260200180516040519392919084600160201b82111561282257600080fd5b90830190602082018581111561283757600080fd5b82518660208202830111600160201b8211171561285357600080fd5b82525081516020918201928201910280838360005b83811015612880578181015183820152602001612868565b5050505090500160405260200180516040519392919084600160201b8211156128a857600080fd5b9083019060208201858111156128bd57600080fd5b82518660208202830111600160201b821117156128d957600080fd5b82525081516020918201928201910280838360005b838110156129065781810151838201526020016128ee565b50505050905001604052505050809c50819e50829950839a50849b50505050505084518651146129675760405162461bcd60e51b815260040180806020018281038252602c815260200180614089602c913960400191505060405180910390fd5b87518a51146129a75760405162461bcd60e51b815260040180806020018281038252602f8152602001806142a7602f913960400191505060405180910390fd5b6129b08661321f565b6129eb5760405162461bcd60e51b81526004018080602001828103825260268152602001806141e66026913960400191505060405180910390fd5b6129f48a61321f565b612a2f5760405162461bcd60e51b8152600401808060200182810382526029815260200180613e266029913960400191505060405180910390fd5b89518c9067ffffffffffffffff81118015612a4957600080fd5b50604051908082528060200260200182016040528015612a73578160200160208202803683370190505b50995060005b8b51811015612cc35760006001600160a01b03168c8281518110612a9957fe5b60200260200101516001600160a01b03161415612ae75760405162461bcd60e51b815260040180806020018281038252602d81526020018061401f602d913960400191505060405180910390fd5b60008a8281518110612af557fe5b602002602001015111612b395760405162461bcd60e51b81526004018080602001828103825260328152602001806143466032913960400191505060405180910390fd5b612b488c82815181106111df57fe5b612b835760405162461bcd60e51b815260040180806020018281038252602e815260200180613d98602e913960400191505060405180910390fd5b816001600160a01b031663797ed3398d8381518110612b9e57fe5b60200260200101516040518263ffffffff1660e01b815260040180826001600160a01b0316815260200191505060206040518083038186803b158015612be357600080fd5b505afa158015612bf7573d6000803e3d6000fd5b505050506040513d6020811015612c0d57600080fd5b505115612cbb578b8181518110612c2057fe5b60200260200101516001600160a01b03166370a082318f6040518263ffffffff1660e01b815260040180826001600160a01b0316815260200191505060206040518083038186803b158015612c7457600080fd5b505afa158015612c88573d6000803e3d6000fd5b505050506040513d6020811015612c9e57600080fd5b50518b518c9083908110612cae57fe5b6020026020010181815250505b600101612a79565b50865167ffffffffffffffff81118015612cdc57600080fd5b50604051908082528060200260200182016040528015612d06578160200160208202803683370190505b50945060005b8751811015612f5a5760006001600160a01b0316888281518110612d2c57fe5b60200260200101516001600160a01b03161415612d7a5760405162461bcd60e51b8152600401808060200182810382526022815260200180613d766022913960400191505060405180910390fd5b6000878281518110612d8857fe5b602002602001015111612dcc5760405162461bcd60e51b815260040180806020018281038252602d81526020018061415b602d913960400191505060405180910390fd5b612df2888281518110612ddb57fe5b60200260200101518d6132b390919063ffffffff16565b612e9d57878181518110612e0257fe5b60200260200101516001600160a01b03166370a082318f6040518263ffffffff1660e01b815260040180826001600160a01b0316815260200191505060206040518083038186803b158015612e5657600080fd5b505afa158015612e6a573d6000803e3d6000fd5b505050506040513d6020811015612e8057600080fd5b50518651879083908110612e9057fe5b6020026020010181815250505b6001896003811115612eab57fe5b1415612ee857612ee333898381518110612ec157fe5b6020026020010151878a8581518110612ed657fe5b6020026020010151613309565b612f52565b6002896003811115612ef657fe5b1415612f2e57612ee333898381518110612f0c57fe5b6020026020010151878a8581518110612f2157fe5b6020026020010151613405565b6003896003811115612f3c57fe5b1415612f5257612f523389838151811061156e57fe5b600101612d0c565b505050505092959891949750929550565b6000806060612f79856119fe565b92509250925060006060846001600160a01b03168489858960405160240180846001600160a01b031681526020018060200180602001838103835285818151815260200191508051906020019080838360005b83811015612fe4578181015183820152602001612fcc565b50505050905090810190601f1680156130115780820380516001836020036101000a031916815260200191505b50838103825284518152845160209182019186019080838360005b8381101561304457818101518382015260200161302c565b50505050905090810190601f1680156130715780820380516001836020036101000a031916815260200191505b5060408051601f198184030181529181526020820180516001600160e01b03166001600160e01b0319909a16999099178952518151919890975087965094509250829150849050835b602083106130d95780518252601f1990920191602091820191016130ba565b6001836020036101000a0380198251168184511680821785525050505050509050019150506000604051808303816000865af19150503d806000811461313b576040519150601f19603f3d011682016040523d82523d6000602084013e613140565b606091505b50915091508181906131d05760405162461bcd60e51b81526004018080602001828103825283818151815260200191508051906020019080838360005b8381101561319557818101518382015260200161317d565b50505050905090810190601f1680156131c25780820380516001836020036101000a031916815260200191505b509250505060405180910390fd5b505050505050505050565b6060806060806060806131f18e8b8b8b8b61345c565b929650909450925090506132098e8e8e8e86866139b5565b9096509450505098509850985098945050505050565b600060018251116132325750600161076a565b815160005b818110156132a957600181015b828110156132a05784818151811061325857fe5b60200260200101516001600160a01b031685838151811061327557fe5b60200260200101516001600160a01b03161415613298576000935050505061076a565b600101613244565b50600101613237565b5060019392505050565b6000805b83518110156132ff578381815181106132cc57fe5b60200260200101516001600160a01b0316836001600160a01b031614156132f7576001915050610724565b6001016132b7565b5060009392505050565b604080516001600160a01b0385811660208301528481168284015260608083018590528351808403909101815260808301938490526310acd06d60e01b9093528616916310acd06d916004919060840180835b815260200180602001828103825283818151815260200191508051906020019080838360005b8381101561339a578181015183820152602001613382565b50505050905090810190601f1680156133c75780820380516001836020036101000a031916815260200191505b509350505050600060405180830381600087803b1580156133e757600080fd5b505af11580156133fb573d6000803e3d6000fd5b5050505050505050565b604080516001600160a01b0385811660208301528481168284015260608083018590528351808403909101815260808301938490526310acd06d60e01b9093528616916310acd06d9160059190608401808361335c565b6060806060806060875167ffffffffffffffff8111801561347c57600080fd5b506040519080825280602002602001820160405280156134a6578160200160208202803683370190505b50905060008060005b8a518110156135a3578881815181106134c457fe5b6020026020010151600014156134d95761359b565b60038c60038111156134e757fe5b14156134f85760019092019161359b565b6135158d8c838151811061350857fe5b6020026020010151613bf5565b84828151811061352157fe5b60200260200101818152505088818151811061353957fe5b602002602001015184828151811061354d57fe5b602002602001015110156135665760019092019161359b565b88818151811061357257fe5b602002602001015184828151811061358657fe5b6020026020010151111561359b576001909101905b6001016134af565b508167ffffffffffffffff811180156135bb57600080fd5b506040519080825280602002602001820160405280156135e5578160200160208202803683370190505b5096508167ffffffffffffffff811180156135ff57600080fd5b50604051908082528060200260200182016040528015613629578160200160208202803683370190505b5095508067ffffffffffffffff8111801561364357600080fd5b5060405190808252806020026020018201604052801561366d578160200160208202803683370190505b5094508067ffffffffffffffff8111801561368757600080fd5b506040519080825280602002602001820160405280156136b1578160200160208202803683370190505b50935060008060005b8c518110156139a3578a81815181106136cf57fe5b6020026020010151600014156136e45761399b565b60038e60038111156136f257fe5b141561376e578c818151811061370457fe5b60200260200101518a848151811061371857fe5b60200260200101906001600160a01b031690816001600160a01b0316815250508a818151811061374457fe5b602002602001015189848151811061375857fe5b602090810291909101015260019092019161399b565b8a818151811061377a57fe5b602002602001015186828151811061378e57fe5b602002602001015110156138f3578581815181106137a857fe5b6020026020010151600014156137f9576137c8338e838151811061156e57fe5b8a81815181106137d457fe5b60200260200101518984815181106137e857fe5b60200260200101818152505061384b565b61383286828151811061380857fe5b60200260200101518c838151811061381c57fe5b6020026020010151613c7790919063ffffffff16565b89848151811061383e57fe5b6020026020010181815250505b8b818151811061385757fe5b602002602001015189848151811061386b57fe5b602002602001015111156138b05760405162461bcd60e51b815260040180806020018281038252603d81526020018061404c603d913960400191505060405180910390fd5b8c81815181106138bc57fe5b60200260200101518a84815181106138d057fe5b6001600160a01b039092166020928302919091019091015260019092019161399b565b8a81815181106138ff57fe5b602002602001015186828151811061391357fe5b6020026020010151111561399b576139448b828151811061393057fe5b602002602001015187838151811061381c57fe5b87838151811061395057fe5b6020026020010181815250508c818151811061396857fe5b602002602001015188838151811061397c57fe5b6001600160a01b03909216602092830291909101909101526001909101905b6001016136ba565b50505050505095509550955095915050565b60608060006139cf85518951613cd490919063ffffffff16565b90508067ffffffffffffffff811180156139e857600080fd5b50604051908082528060200260200182016040528015613a12578160200160208202803683370190505b5092508067ffffffffffffffff81118015613a2c57600080fd5b50604051908082528060200260200182016040528015613a56578160200160208202803683370190505b50915060005b8851811015613b59576000613a94898381518110613a7657fe5b6020026020010151613a8e8d8d868151811061350857fe5b90613c77565b9050878281518110613aa257fe5b6020026020010151811015613ae85760405162461bcd60e51b81526004018080602001828103825260408152602001806142d66040913960400191505060405180910390fd5b613af8338b84815181106112ff57fe5b898281518110613b0457fe5b6020026020010151858381518110613b1857fe5b60200260200101906001600160a01b031690816001600160a01b03168152505080848381518110613b4557fe5b602090810291909101015250600101613a5c565b50845115613be957875160005b8651811015613be657868181518110613b7b57fe5b6020026020010151858381518110613b8f57fe5b60200260200101906001600160a01b031690816001600160a01b031681525050858181518110613bbb57fe5b6020026020010151848381518110613bcf57fe5b602090810291909101015260019182019101613b66565b50505b50965096945050505050565b6000816001600160a01b03166370a08231846040518263ffffffff1660e01b815260040180826001600160a01b0316815260200191505060206040518083038186803b158015613c4457600080fd5b505afa158015613c58573d6000803e3d6000fd5b505050506040513d6020811015613c6e57600080fd5b50519392505050565b600082821115613cce576040805162461bcd60e51b815260206004820152601e60248201527f536166654d6174683a207375627472616374696f6e206f766572666c6f770000604482015290519081900360640190fd5b50900390565b600082820183811015610721576040805162461bcd60e51b815260206004820152601b60248201527f536166654d6174683a206164646974696f6e206f766572666c6f770000000000604482015290519081900360640190fdfe456e756d657261626c655365743a20696e646578206f7574206f6620626f756e64735f5f73657456616c6964617465645661756c7450726f78793a20416c7265616479207365745f5f70726550726f63657373436f493a20456d707479207370656e642061737365745f5f70726550726f63657373436f493a204e6f6e2d72656365697661626c6520696e636f6d696e672061737365747265636569766543616c6c46726f6d436f6d7074726f6c6c65723a2046756e64206973206e6f74206163746976655f5f6164645a65726f42616c616e6365547261636b65644173736574733a2042616c616e6365206973206e6f74207a65726f5f5f70726550726f63657373436f493a204475706c696361746520696e636f6d696e672061737365745f5f76616c696461746553657441757468557365723a204163636f756e74206973206e6f7420616e20617574686f72697a656420757365725f5f76616c696461746553657441757468557365723a204f6e6c79207468652066756e64206f776e65722063616e2063616c6c20746869732066756e6374696f6e726567697374657241646170746572733a20416461707465722063616e6e6f7420626520656d7074796f6e6c7946756e644465706c6f7965724f776e65723a204f6e6c79207468652046756e644465706c6f796572206f776e65722063616e2063616c6c20746869732066756e6374696f6e5f5f73657456616c6964617465645661756c7450726f78793a204d697373696e67207661756c7450726f78796465726567697374657241646170746572733a205f61646170746572732063616e6e6f7420626520656d7074795f5f76616c696461746553657441757468557365723a2043616e6e6f742073657420666f72207468652066756e64206f776e6572726567697374657241646170746572733a205f61646170746572732063616e6e6f7420626520656d7074797265636569766543616c6c46726f6d436f6d7074726f6c6c65723a20496e76616c6964205f616374696f6e49645f5f70726550726f63657373436f493a20456d70747920696e636f6d696e6720617373657420616464726573735f5f7265636f6e63696c65436f495370656e644173736574733a205370656e7420616d6f756e742067726561746572207468616e2065787065637465645f5f70726550726f63657373436f493a205370656e64206173736574732061727261797320756e657175616c5f5f73657456616c6964617465645661756c7450726f78793a204e6f7420746865205661756c7450726f7879206163636573736f725f5f76616c696461746553657441757468557365723a204163636f756e7420697320616c726561647920616e20617574686f72697a656420757365725f5f72656d6f76655a65726f42616c616e6365547261636b65644173736574733a2042616c616e6365206973206e6f74207a65726f5f5f70726550726f63657373436f493a20456d707479206d6178207370656e6420617373657420616d6f756e74726567697374657241646170746572733a204164617074657220616c726561647920726567697374657265645f5f76616c696461746553657441757468557365723a2046756e6420686173206e6f74206265656e206163746976617465645f5f70726550726f63657373436f493a204475706c6963617465207370656e6420617373657463616c6c4f6e496e746567726174696f6e3a2041646170746572206973206e6f7420726567697374657265645f5f72656d6f76655a65726f42616c616e6365547261636b65644173736574733a2043616e6e6f742072656d6f76652064656e6f6d696e6174696f6e2061737365746465726567697374657241646170746572733a2041646170746572206973206e6f7420726567697374657265645f5f70726550726f63657373436f493a20496e636f6d696e67206173736574732061727261797320756e657175616c5f5f7265636f6e63696c65436f494173736574733a20526563656976656420696e636f6d696e67206173736574206c657373207468616e2065787065637465645f5f6164645a65726f42616c616e6365547261636b65644173736574733a20556e737570706f727465642061737365745f5f70726550726f63657373436f493a206d696e496e636f6d696e674173736574416d6f756e74206d757374206265203e307265636569766543616c6c46726f6d436f6d7074726f6c6c65723a204e6f7420616e20617574686f72697a65642075736572a264697066735822122022b9528c2e5c704c1f84e0920ee20d9142e8c675a357515a2d43fa6a53f8e81764736f6c634300060c0033",
  "devdoc": {
    "author": "Enzyme Council <security@enzyme.finance>",
    "kind": "dev",
    "methods": {
      "adapterIsRegistered(address)": {
        "params": {
          "_adapter": "The adapter to check"
        },
        "returns": {
          "isRegistered_": "True if the adapter is registered"
        }
      },
      "addAuthUserForFund(address,address)": {
        "params": {
          "_comptrollerProxy": "The ComptrollerProxy of the fund",
          "_who": "The user to authorize"
        }
      },
      "deregisterAdapters(address[])": {
        "params": {
          "_adapters": "Addresses of adapters to be deregistered"
        }
      },
      "getDerivativePriceFeed()": {
        "returns": {
          "derivativePriceFeed_": "The `DERIVATIVE_PRICE_FEED` variable value"
        }
      },
      "getFundDeployer()": {
        "returns": {
          "fundDeployer_": "The `FUND_DEPLOYER` variable value"
        }
      },
      "getOwner()": {
        "details": "Ownership is deferred to the owner of the FundDeployer contract",
        "returns": {
          "owner_": "The owner"
        }
      },
      "getPolicyManager()": {
        "returns": {
          "policyManager_": "The `POLICY_MANAGER` variable value"
        }
      },
      "getPrimitivePriceFeed()": {
        "returns": {
          "primitivePriceFeed_": "The `PRIMITIVE_PRICE_FEED` variable value"
        }
      },
      "getRegisteredAdapters()": {
        "returns": {
          "registeredAdaptersArray_": "A list of all registered integration adapters"
        }
      },
      "getVaultProxyForFund(address)": {
        "params": {
          "_comptrollerProxy": "The ComptrollerProxy of the fund"
        },
        "returns": {
          "vaultProxy_": "The VaultProxy of the fund"
        }
      },
      "isAuthUserForFund(address,address)": {
        "params": {
          "_comptrollerProxy": "The ComptrollerProxy of the fund",
          "_who": "The account to check"
        },
        "returns": {
          "isAuthUser_": "True if the account is an authorized user or the fund owner"
        }
      },
      "receiveCallFromComptroller(address,uint256,bytes)": {
        "params": {
          "_actionId": "An ID representing the desired action",
          "_callArgs": "The encoded args for the action",
          "_caller": "The user who called for this action"
        }
      },
      "registerAdapters(address[])": {
        "params": {
          "_adapters": "Addresses of adapters to be registered"
        }
      },
      "removeAuthUserForFund(address,address)": {
        "params": {
          "_comptrollerProxy": "The ComptrollerProxy of the fund",
          "_who": "The authorized user to remove"
        }
      },
      "setConfigForFund(bytes)": {
        "details": "Unimplemented by default, may be overridden."
      }
    },
    "title": "IntegrationManager",
    "version": 1
  },
  "userdoc": {
    "kind": "user",
    "methods": {
      "activateForFund(bool)": {
        "notice": "Activates the extension by storing the VaultProxy"
      },
      "adapterIsRegistered(address)": {
        "notice": "Checks if an integration adapter is registered"
      },
      "addAuthUserForFund(address,address)": {
        "notice": "Authorizes a user to act on behalf of a fund via the IntegrationManager"
      },
      "deactivateForFund()": {
        "notice": "Deactivate the extension by destroying storage"
      },
      "deregisterAdapters(address[])": {
        "notice": "Remove integration adapters from the list of registered adapters"
      },
      "getDerivativePriceFeed()": {
        "notice": "Gets the `DERIVATIVE_PRICE_FEED` variable"
      },
      "getFundDeployer()": {
        "notice": "Gets the `FUND_DEPLOYER` variable"
      },
      "getOwner()": {
        "notice": "Gets the owner of this contract"
      },
      "getPolicyManager()": {
        "notice": "Gets the `POLICY_MANAGER` variable"
      },
      "getPrimitivePriceFeed()": {
        "notice": "Gets the `PRIMITIVE_PRICE_FEED` variable"
      },
      "getRegisteredAdapters()": {
        "notice": "Gets all registered integration adapters"
      },
      "getVaultProxyForFund(address)": {
        "notice": "Gets the verified VaultProxy for a given ComptrollerProxy"
      },
      "isAuthUserForFund(address,address)": {
        "notice": "Checks whether an account is an authorized IntegrationManager user for a given fund"
      },
      "receiveCallFromComptroller(address,uint256,bytes)": {
        "notice": "Receives a dispatched `callOnExtension` from a fund's ComptrollerProxy"
      },
      "registerAdapters(address[])": {
        "notice": "Add integration adapters to the list of registered adapters"
      },
      "removeAuthUserForFund(address,address)": {
        "notice": "Removes an authorized user from the IntegrationManager for the given fund"
      },
      "setConfigForFund(bytes)": {
        "notice": "Allows extension to run logic during fund configuration"
      }
    },
    "notice": "Extension to handle DeFi integration actions for funds",
    "version": 1
  },
  "storageLayout": {
    "storage": [
      {
        "astId": 39659,
        "contract": "contracts/release/extensions/integration-manager/IntegrationManager.sol:IntegrationManager",
        "label": "comptrollerProxyToVaultProxy",
        "offset": 0,
        "slot": "0",
        "type": "t_mapping(t_address,t_address)"
      },
      {
        "astId": 18662,
        "contract": "contracts/release/extensions/integration-manager/IntegrationManager.sol:IntegrationManager",
        "label": "registeredAdapters",
        "offset": 0,
        "slot": "1",
        "type": "t_struct(AddressSet)2091_storage"
      },
      {
        "astId": 18668,
        "contract": "contracts/release/extensions/integration-manager/IntegrationManager.sol:IntegrationManager",
        "label": "comptrollerProxyToAcctToIsAuthUser",
        "offset": 0,
        "slot": "3",
        "type": "t_mapping(t_address,t_mapping(t_address,t_bool))"
      }
    ],
    "types": {
      "t_address": {
        "encoding": "inplace",
        "label": "address",
        "numberOfBytes": "20"
      },
      "t_array(t_bytes32)dyn_storage": {
        "base": "t_bytes32",
        "encoding": "dynamic_array",
        "label": "bytes32[]",
        "numberOfBytes": "32"
      },
      "t_bool": {
        "encoding": "inplace",
        "label": "bool",
        "numberOfBytes": "1"
      },
      "t_bytes32": {
        "encoding": "inplace",
        "label": "bytes32",
        "numberOfBytes": "32"
      },
      "t_mapping(t_address,t_address)": {
        "encoding": "mapping",
        "key": "t_address",
        "label": "mapping(address => address)",
        "numberOfBytes": "32",
        "value": "t_address"
      },
      "t_mapping(t_address,t_bool)": {
        "encoding": "mapping",
        "key": "t_address",
        "label": "mapping(address => bool)",
        "numberOfBytes": "32",
        "value": "t_bool"
      },
      "t_mapping(t_address,t_mapping(t_address,t_bool))": {
        "encoding": "mapping",
        "key": "t_address",
        "label": "mapping(address => mapping(address => bool))",
        "numberOfBytes": "32",
        "value": "t_mapping(t_address,t_bool)"
      },
      "t_mapping(t_bytes32,t_uint256)": {
        "encoding": "mapping",
        "key": "t_bytes32",
        "label": "mapping(bytes32 => uint256)",
        "numberOfBytes": "32",
        "value": "t_uint256"
      },
      "t_struct(AddressSet)2091_storage": {
        "encoding": "inplace",
        "label": "struct EnumerableSet.AddressSet",
        "members": [
          {
            "astId": 2090,
            "contract": "contracts/release/extensions/integration-manager/IntegrationManager.sol:IntegrationManager",
            "label": "_inner",
            "offset": 0,
            "slot": "0",
            "type": "t_struct(Set)1826_storage"
          }
        ],
        "numberOfBytes": "64"
      },
      "t_struct(Set)1826_storage": {
        "encoding": "inplace",
        "label": "struct EnumerableSet.Set",
        "members": [
          {
            "astId": 1821,
            "contract": "contracts/release/extensions/integration-manager/IntegrationManager.sol:IntegrationManager",
            "label": "_values",
            "offset": 0,
            "slot": "0",
            "type": "t_array(t_bytes32)dyn_storage"
          },
          {
            "astId": 1825,
            "contract": "contracts/release/extensions/integration-manager/IntegrationManager.sol:IntegrationManager",
            "label": "_indexes",
            "offset": 0,
            "slot": "1",
            "type": "t_mapping(t_bytes32,t_uint256)"
          }
        ],
        "numberOfBytes": "64"
      },
      "t_uint256": {
        "encoding": "inplace",
        "label": "uint256",
        "numberOfBytes": "32"
      }
    }
  }
}