{
  "address": "0xED4B446aFa4c441eaB4fcA1Bd4EFE650D32F68C5",
  "abi": [
    {
      "inputs": [
        {
          "internalType": "address",
          "name": "_policyManager",
          "type": "address"
        }
      ],
      "stateMutability": "nonpayable",
      "type": "constructor"
    },
    {
      "anonymous": false,
      "inputs": [
        {
          "indexed": true,
          "internalType": "address",
          "name": "comptrollerProxy",
          "type": "address"
        },
        {
          "indexed": false,
          "internalType": "address[]",
          "name": "items",
          "type": "address[]"
        }
      ],
      "name": "AddressesAdded",
      "type": "event"
    },
    {
      "anonymous": false,
      "inputs": [
        {
          "indexed": true,
          "internalType": "address",
          "name": "comptrollerProxy",
          "type": "address"
        },
        {
          "indexed": false,
          "internalType": "address[]",
          "name": "items",
          "type": "address[]"
        }
      ],
      "name": "AddressesRemoved",
      "type": "event"
    },
    {
      "inputs": [
        {
          "internalType": "address",
          "name": "",
          "type": "address"
        },
        {
          "internalType": "address",
          "name": "",
          "type": "address"
        }
      ],
      "name": "activateForFund",
      "outputs": [],
      "stateMutability": "nonpayable",
      "type": "function"
    },
    {
      "inputs": [
        {
          "internalType": "address",
          "name": "_comptrollerProxy",
          "type": "address"
        },
        {
          "internalType": "bytes",
          "name": "_encodedSettings",
          "type": "bytes"
        }
      ],
      "name": "addFundSettings",
      "outputs": [],
      "stateMutability": "nonpayable",
      "type": "function"
    },
    {
      "inputs": [
        {
          "internalType": "address",
          "name": "_comptrollerProxy",
          "type": "address"
        }
      ],
      "name": "getList",
      "outputs": [
        {
          "internalType": "address[]",
          "name": "list_",
          "type": "address[]"
        }
      ],
      "stateMutability": "view",
      "type": "function"
    },
    {
      "inputs": [],
      "name": "getPolicyDeployTimestamp",
      "outputs": [
        {
          "internalType": "uint256",
          "name": "",
          "type": "uint256"
        }
      ],
      "stateMutability": "view",
      "type": "function"
    },
    {
      "inputs": [],
      "name": "getPolicyManager",
      "outputs": [
        {
          "internalType": "address",
          "name": "policyManager_",
          "type": "address"
        }
      ],
      "stateMutability": "view",
      "type": "function"
    },
    {
      "inputs": [],
      "name": "identifier",
      "outputs": [
        {
          "internalType": "string",
          "name": "identifier_",
          "type": "string"
        }
      ],
      "stateMutability": "pure",
      "type": "function"
    },
    {
      "inputs": [],
      "name": "implementedHooks",
      "outputs": [
        {
          "internalType": "enum IPolicyManager.PolicyHook[]",
          "name": "implementedHooks_",
          "type": "uint8[]"
        }
      ],
      "stateMutability": "view",
      "type": "function"
    },
    {
      "inputs": [
        {
          "internalType": "address",
          "name": "_comptrollerProxy",
          "type": "address"
        },
        {
          "internalType": "address",
          "name": "_item",
          "type": "address"
        }
      ],
      "name": "isInList",
      "outputs": [
        {
          "internalType": "bool",
          "name": "isInList_",
          "type": "bool"
        }
      ],
      "stateMutability": "view",
      "type": "function"
    },
    {
      "inputs": [
        {
          "internalType": "address",
          "name": "_comptrollerProxy",
          "type": "address"
        },
        {
          "internalType": "address",
          "name": "_investor",
          "type": "address"
        }
      ],
      "name": "passesRule",
      "outputs": [
        {
          "internalType": "bool",
          "name": "isValid_",
          "type": "bool"
        }
      ],
      "stateMutability": "view",
      "type": "function"
    },
    {
      "inputs": [
        {
          "internalType": "address",
          "name": "_comptrollerProxy",
          "type": "address"
        },
        {
          "internalType": "address",
          "name": "",
          "type": "address"
        },
        {
          "internalType": "bytes",
          "name": "_encodedSettings",
          "type": "bytes"
        }
      ],
      "name": "updateFundSettings",
      "outputs": [],
      "stateMutability": "nonpayable",
      "type": "function"
    },
    {
      "inputs": [
        {
          "internalType": "address",
          "name": "_comptrollerProxy",
          "type": "address"
        },
        {
          "internalType": "address",
          "name": "",
          "type": "address"
        },
        {
          "internalType": "enum IPolicyManager.PolicyHook",
          "name": "",
          "type": "uint8"
        },
        {
          "internalType": "bytes",
          "name": "_encodedArgs",
          "type": "bytes"
        }
      ],
      "name": "validateRule",
      "outputs": [
        {
          "internalType": "bool",
          "name": "isValid_",
          "type": "bool"
        }
      ],
      "stateMutability": "nonpayable",
      "type": "function"
    }
  ],
  "transactionHash": "0x7591732727fbbcda4b655056008c3217d46abd17a454eea86fa0657576e76bdf",
  "args": [
    "0x73A064974e0B97c251fDc0c0E627F2518dfAeBEd"
  ],
  "linkedData": {
    "type": "POLICY"
  },
  "solcInputHash": "34b1516e615d6cbcdbaf9542624efee9",
  "bytecode": "0x60c060405234801561001057600080fd5b50604051610f50380380610f508339818101604052602081101561003357600080fd5b50516001600160601b031960609190911b166080524260a05260805160601c60a051610ed461007c600039806104cb52508061042852806105af52806106b65250610ed46000f3fe608060405234801561001057600080fd5b50600436106100a95760003560e01c80637998a1c4116100715780637998a1c4146102495780638945f190146102c6578063b67cb40c1461034d578063cbf54bb21461037b578063d44ad6cb146103d3578063ef00e37a146103f7576100a9565b80630f5f6b4f146100ae57806310587e951461012e5780633146d0581461014857806335595704146101765780635b8f1c5a146101b8575b600080fd5b61012c600480360360408110156100c457600080fd5b6001600160a01b038235169190810190604081016020820135600160201b8111156100ee57600080fd5b82018360208201111561010057600080fd5b803590602001918460018302840111600160201b8311171561012157600080fd5b50909250905061041d565b005b6101366104c9565b60408051918252519081900360200190f35b61012c6004803603604081101561015e57600080fd5b506001600160a01b03813581169160200135166104ed565b6101a46004803603604081101561018c57600080fd5b506001600160a01b03813581169160200135166104f1565b604080519115158252519081900360200190f35b6101a4600480360360808110156101ce57600080fd5b6001600160a01b03823581169260208101359091169160ff6040830135169190810190608081016060820135600160201b81111561020b57600080fd5b82018360208201111561021d57600080fd5b803590602001918460018302840111600160201b8311171561023e57600080fd5b50909250905061051c565b610251610578565b6040805160208082528351818301528351919283929083019185019080838360005b8381101561028b578181015183820152602001610273565b50505050905090810190601f1680156102b85780820380516001836020036101000a031916815260200191505b509250505060405180910390f35b61012c600480360360608110156102dc57600080fd5b6001600160a01b038235811692602081013590911691810190606081016040820135600160201b81111561030f57600080fd5b82018360208201111561032157600080fd5b803590602001918460018302840111600160201b8311171561034257600080fd5b5090925090506105a4565b6101a46004803603604081101561036357600080fd5b506001600160a01b0381358116916020013516610651565b61038361065d565b60408051602080825283518183015283519192839290830191858101910280838360005b838110156103bf5781810151838201526020016103a7565b505050509050019250505060405180910390f35b6103db6106b4565b604080516001600160a01b039092168252519081900360200190f35b6103836004803603602081101561040d57600080fd5b50356001600160a01b03166106d8565b336001600160a01b037f000000000000000000000000000000000000000000000000000000000000000016146104845760405162461bcd60e51b8152600401808060200182810382526029815260200180610e546029913960400191505060405180910390fd5b6104c48383838080601f01602080910402602001604051908101604052809392919081815260200183838082843760009201919091525061079f92505050565b505050565b7f000000000000000000000000000000000000000000000000000000000000000090565b5050565b6001600160a01b038216600090815260208190526040812061051390836108f0565b90505b92915050565b60008061055e84848080601f01602080910402602001604051908101604052809392919081815260200183838082843760009201919091525061090592505050565b505050905061056d8782610651565b979650505050505050565b6040805180820190915260128152711253959154d513d497d5d2125511531254d560721b602082015290565b336001600160a01b037f0000000000000000000000000000000000000000000000000000000000000000161461060b5760405162461bcd60e51b8152600401808060200182810382526029815260200180610e546029913960400191505060405180910390fd5b61064b8483838080601f01602080910402602001604051908101604052809392919081815260200183838082843760009201919091525061079f92505050565b50505050565b600061051383836104f1565b6040805160018082528183019092526060916020808301908036833701905050905060018160008151811061068e57fe5b602002602001019060058111156106a157fe5b908160058111156106ae57fe5b90525090565b7f000000000000000000000000000000000000000000000000000000000000000090565b6001600160a01b03811660009081526020819052604090206060906106fc90610942565b67ffffffffffffffff8111801561071257600080fd5b5060405190808252806020026020018201604052801561073c578160200160208202803683370190505b50905060005b8151811015610799576001600160a01b038316600090815260208190526040902061076d908261094d565b82828151811061077957fe5b6001600160a01b0390921660209283029190910190910152600101610742565b50919050565b6060808280602001905160408110156107b757600080fd5b8101908080516040519392919084600160201b8211156107d657600080fd5b9083019060208201858111156107eb57600080fd5b82518660208202830111600160201b8211171561080757600080fd5b82525081516020918201928201910280838360005b8381101561083457818101518382015260200161081c565b5050505090500160405260200180516040519392919084600160201b82111561085c57600080fd5b90830190602082018581111561087157600080fd5b82518660208202830111600160201b8211171561088d57600080fd5b82525081516020918201928201910280838360005b838110156108ba5781810151838201526020016108a2565b50505050905001604052505050915091506000825111156108df576108df8483610959565b80511561064b5761064b8482610ab5565b6000610513836001600160a01b038416610bf5565b60008060008084806020019051608081101561092057600080fd5b5080516020820151604083015160609093015191989097509195509350915050565b600061051682610c0d565b60006105138383610c11565b60008151116109995760405162461bcd60e51b8152600401808060200182810382526022815260200180610e7d6022913960400191505060405180910390fd5b60005b8151811015610a31576109ee8282815181106109b457fe5b6020026020010151600080866001600160a01b03166001600160a01b03168152602001908152602001600020610c7590919063ffffffff16565b610a295760405162461bcd60e51b815260040180806020018281038252602b815260200180610dd2602b913960400191505060405180910390fd5b60010161099c565b50816001600160a01b03167fe3754690adb33d1fe0511f97e82086f6097babaea494124a0196a61a949ef2cf826040518080602001828103825283818151815260200191508051906020019060200280838360005b83811015610a9e578181015183820152602001610a86565b505050509050019250505060405180910390a25050565b6000815111610af55760405162461bcd60e51b8152600401808060200182810382526027815260200180610dfd6027913960400191505060405180910390fd5b60005b8151811015610b8d57610b4a828281518110610b1057fe5b6020026020010151600080866001600160a01b03166001600160a01b03168152602001908152602001600020610c8a90919063ffffffff16565b610b855760405162461bcd60e51b8152600401808060200182810382526030815260200180610e246030913960400191505060405180910390fd5b600101610af8565b5060408051602080825283518183015283516001600160a01b038616937ffa28b09abbaa834d4ec77cdfd905fdabcc5cd7cea3a0794093404be865f749e293869390928392830191808601910280838360008315610a9e578181015183820152602001610a86565b60009081526001919091016020526040902054151590565b5490565b81546000908210610c535760405162461bcd60e51b8152600401808060200182810382526022815260200180610db06022913960400191505060405180910390fd5b826000018281548110610c6257fe5b9060005260206000200154905092915050565b6000610513836001600160a01b038416610c9f565b6000610513836001600160a01b038416610ce9565b6000610cab8383610bf5565b610ce157508154600181810184556000848152602080822090930184905584548482528286019093526040902091909155610516565b506000610516565b60008181526001830160205260408120548015610da55783546000198083019190810190600090879083908110610d1c57fe5b9060005260206000200154905080876000018481548110610d3957fe5b600091825260208083209091019290925582815260018981019092526040902090840190558654879080610d6957fe5b60019003818190600052602060002001600090559055866001016000878152602001908152602001600020600090556001945050505050610516565b600091505061051656fe456e756d657261626c655365743a20696e646578206f7574206f6620626f756e64735f5f616464546f4c6973743a204164647265737320616c72656164792065786973747320696e206c6973745f5f72656d6f766546726f6d4c6973743a204e6f206164647265737365732070726f76696465645f5f72656d6f766546726f6d4c6973743a204164647265737320646f6573206e6f7420657869737420696e206c6973744f6e6c792074686520506f6c6963794d616e616765722063616e206d616b6520746869732063616c6c5f5f616464546f4c6973743a204e6f206164647265737365732070726f7669646564a2646970667358221220280bbab40749794704ee54c4cd1e6383f2e405c148200b5e5195700866a9d01264736f6c634300060c0033",
  "devdoc": {
    "author": "Enzyme Council <security@enzyme.finance>",
    "kind": "dev",
    "methods": {
      "activateForFund(address,address)": {
        "details": "Unimplemented by default, can be overridden by the policy"
      },
      "addFundSettings(address,bytes)": {
        "params": {
          "_comptrollerProxy": "The fund's ComptrollerProxy address",
          "_encodedSettings": "Encoded settings to apply to a fund"
        }
      },
      "getList(address)": {
        "params": {
          "_comptrollerProxy": "The fund's ComptrollerProxy address"
        },
        "returns": {
          "list_": "The addresses in the fund's list"
        }
      },
      "getPolicyManager()": {
        "returns": {
          "policyManager_": "The `POLICY_MANAGER` variable value"
        }
      },
      "identifier()": {
        "returns": {
          "identifier_": "The identifer string"
        }
      },
      "implementedHooks()": {
        "returns": {
          "implementedHooks_": "The implemented PolicyHooks"
        }
      },
      "isInList(address,address)": {
        "params": {
          "_comptrollerProxy": "The fund's ComptrollerProxy address",
          "_item": "The address to check against the list"
        },
        "returns": {
          "isInList_": "True if the address is in the list"
        }
      },
      "passesRule(address,address)": {
        "params": {
          "_comptrollerProxy": "The fund's ComptrollerProxy address",
          "_investor": "The investor for which to check the rule"
        },
        "returns": {
          "isValid_": "True if the rule passes"
        }
      },
      "updateFundSettings(address,address,bytes)": {
        "params": {
          "_comptrollerProxy": "The fund's ComptrollerProxy address",
          "_encodedSettings": "Encoded settings to apply to a fund"
        }
      },
      "validateRule(address,address,uint8,bytes)": {
        "params": {
          "_comptrollerProxy": "The fund's ComptrollerProxy address",
          "_encodedArgs": "Encoded args with which to validate the rule"
        },
        "returns": {
          "isValid_": "True if the rule passes"
        }
      }
    },
    "title": "InvestorWhitelist Contract",
    "version": 1
  },
  "userdoc": {
    "kind": "user",
    "methods": {
      "activateForFund(address,address)": {
        "notice": "Validates and initializes a policy as necessary prior to fund activation"
      },
      "addFundSettings(address,bytes)": {
        "notice": "Adds the initial policy settings for a fund"
      },
      "getList(address)": {
        "notice": "Get all addresses in a fund's list"
      },
      "getPolicyManager()": {
        "notice": "Gets the `POLICY_MANAGER` variable value"
      },
      "identifier()": {
        "notice": "Provides a constant string identifier for a policy"
      },
      "implementedHooks()": {
        "notice": "Gets the implemented PolicyHooks for a policy"
      },
      "isInList(address,address)": {
        "notice": "Check if an address is in a fund's list"
      },
      "passesRule(address,address)": {
        "notice": "Checks whether a particular condition passes the rule for a particular fund"
      },
      "updateFundSettings(address,address,bytes)": {
        "notice": "Updates the policy settings for a fund"
      },
      "validateRule(address,address,uint8,bytes)": {
        "notice": "Apply the rule with the specified parameters of a PolicyHook"
      }
    },
    "notice": "A policy that only allows a configurable whitelist of investors to buy shares in a fund",
    "version": 1
  },
  "storageLayout": {
    "storage": [
      {
        "astId": 39402,
        "contract": "contracts/release/extensions/policy-manager/policies/buy-shares/InvestorWhitelist.sol:InvestorWhitelist",
        "label": "comptrollerProxyToList",
        "offset": 0,
        "slot": "0",
        "type": "t_mapping(t_address,t_struct(AddressSet)2091_storage)"
      }
    ],
    "types": {
      "t_address": {
        "encoding": "inplace",
        "label": "address",
        "numberOfBytes": "20"
      },
      "t_array(t_bytes32)dyn_storage": {
        "base": "t_bytes32",
        "encoding": "dynamic_array",
        "label": "bytes32[]",
        "numberOfBytes": "32"
      },
      "t_bytes32": {
        "encoding": "inplace",
        "label": "bytes32",
        "numberOfBytes": "32"
      },
      "t_mapping(t_address,t_struct(AddressSet)2091_storage)": {
        "encoding": "mapping",
        "key": "t_address",
        "label": "mapping(address => struct EnumerableSet.AddressSet)",
        "numberOfBytes": "32",
        "value": "t_struct(AddressSet)2091_storage"
      },
      "t_mapping(t_bytes32,t_uint256)": {
        "encoding": "mapping",
        "key": "t_bytes32",
        "label": "mapping(bytes32 => uint256)",
        "numberOfBytes": "32",
        "value": "t_uint256"
      },
      "t_struct(AddressSet)2091_storage": {
        "encoding": "inplace",
        "label": "struct EnumerableSet.AddressSet",
        "members": [
          {
            "astId": 2090,
            "contract": "contracts/release/extensions/policy-manager/policies/buy-shares/InvestorWhitelist.sol:InvestorWhitelist",
            "label": "_inner",
            "offset": 0,
            "slot": "0",
            "type": "t_struct(Set)1826_storage"
          }
        ],
        "numberOfBytes": "64"
      },
      "t_struct(Set)1826_storage": {
        "encoding": "inplace",
        "label": "struct EnumerableSet.Set",
        "members": [
          {
            "astId": 1821,
            "contract": "contracts/release/extensions/policy-manager/policies/buy-shares/InvestorWhitelist.sol:InvestorWhitelist",
            "label": "_values",
            "offset": 0,
            "slot": "0",
            "type": "t_array(t_bytes32)dyn_storage"
          },
          {
            "astId": 1825,
            "contract": "contracts/release/extensions/policy-manager/policies/buy-shares/InvestorWhitelist.sol:InvestorWhitelist",
            "label": "_indexes",
            "offset": 0,
            "slot": "1",
            "type": "t_mapping(t_bytes32,t_uint256)"
          }
        ],
        "numberOfBytes": "64"
      },
      "t_uint256": {
        "encoding": "inplace",
        "label": "uint256",
        "numberOfBytes": "32"
      }
    }
  }
}