{
  "address": "0x9a6221Fd6cFF0C42371d5bA20f887ae6353150fa",
  "abi": [
    {
      "inputs": [
        {
          "internalType": "address",
          "name": "_integrationManager",
          "type": "address"
        },
        {
          "internalType": "address",
          "name": "_exchange",
          "type": "address"
        },
        {
          "internalType": "address",
          "name": "_wethToken",
          "type": "address"
        }
      ],
      "stateMutability": "nonpayable",
      "type": "constructor"
    },
    {
      "inputs": [],
      "name": "ADD_TRACKED_ASSETS_SELECTOR",
      "outputs": [
        {
          "internalType": "bytes4",
          "name": "",
          "type": "bytes4"
        }
      ],
      "stateMutability": "view",
      "type": "function"
    },
    {
      "inputs": [],
      "name": "APPROVE_ASSETS_SELECTOR",
      "outputs": [
        {
          "internalType": "bytes4",
          "name": "",
          "type": "bytes4"
        }
      ],
      "stateMutability": "view",
      "type": "function"
    },
    {
      "inputs": [],
      "name": "CLAIM_REWARDS_AND_REINVEST_SELECTOR",
      "outputs": [
        {
          "internalType": "bytes4",
          "name": "",
          "type": "bytes4"
        }
      ],
      "stateMutability": "view",
      "type": "function"
    },
    {
      "inputs": [],
      "name": "CLAIM_REWARDS_AND_SWAP_SELECTOR",
      "outputs": [
        {
          "internalType": "bytes4",
          "name": "",
          "type": "bytes4"
        }
      ],
      "stateMutability": "view",
      "type": "function"
    },
    {
      "inputs": [],
      "name": "CLAIM_REWARDS_SELECTOR",
      "outputs": [
        {
          "internalType": "bytes4",
          "name": "",
          "type": "bytes4"
        }
      ],
      "stateMutability": "view",
      "type": "function"
    },
    {
      "inputs": [],
      "name": "LEND_AND_STAKE_SELECTOR",
      "outputs": [
        {
          "internalType": "bytes4",
          "name": "",
          "type": "bytes4"
        }
      ],
      "stateMutability": "view",
      "type": "function"
    },
    {
      "inputs": [],
      "name": "LEND_SELECTOR",
      "outputs": [
        {
          "internalType": "bytes4",
          "name": "",
          "type": "bytes4"
        }
      ],
      "stateMutability": "view",
      "type": "function"
    },
    {
      "inputs": [],
      "name": "REDEEM_SELECTOR",
      "outputs": [
        {
          "internalType": "bytes4",
          "name": "",
          "type": "bytes4"
        }
      ],
      "stateMutability": "view",
      "type": "function"
    },
    {
      "inputs": [],
      "name": "REMOVE_TRACKED_ASSETS_SELECTOR",
      "outputs": [
        {
          "internalType": "bytes4",
          "name": "",
          "type": "bytes4"
        }
      ],
      "stateMutability": "view",
      "type": "function"
    },
    {
      "inputs": [],
      "name": "STAKE_SELECTOR",
      "outputs": [
        {
          "internalType": "bytes4",
          "name": "",
          "type": "bytes4"
        }
      ],
      "stateMutability": "view",
      "type": "function"
    },
    {
      "inputs": [],
      "name": "TAKE_ORDER_SELECTOR",
      "outputs": [
        {
          "internalType": "bytes4",
          "name": "",
          "type": "bytes4"
        }
      ],
      "stateMutability": "view",
      "type": "function"
    },
    {
      "inputs": [],
      "name": "UNSTAKE_AND_REDEEM_SELECTOR",
      "outputs": [
        {
          "internalType": "bytes4",
          "name": "",
          "type": "bytes4"
        }
      ],
      "stateMutability": "view",
      "type": "function"
    },
    {
      "inputs": [],
      "name": "UNSTAKE_SELECTOR",
      "outputs": [
        {
          "internalType": "bytes4",
          "name": "",
          "type": "bytes4"
        }
      ],
      "stateMutability": "view",
      "type": "function"
    },
    {
      "inputs": [],
      "name": "getAdapterDeployTimestamp",
      "outputs": [
        {
          "internalType": "uint256",
          "name": "",
          "type": "uint256"
        }
      ],
      "stateMutability": "view",
      "type": "function"
    },
    {
      "inputs": [],
      "name": "getExchange",
      "outputs": [
        {
          "internalType": "address",
          "name": "exchange_",
          "type": "address"
        }
      ],
      "stateMutability": "view",
      "type": "function"
    },
    {
      "inputs": [],
      "name": "getIntegrationManager",
      "outputs": [
        {
          "internalType": "address",
          "name": "integrationManager_",
          "type": "address"
        }
      ],
      "stateMutability": "view",
      "type": "function"
    },
    {
      "inputs": [],
      "name": "getWethToken",
      "outputs": [
        {
          "internalType": "address",
          "name": "wethToken_",
          "type": "address"
        }
      ],
      "stateMutability": "view",
      "type": "function"
    },
    {
      "inputs": [],
      "name": "identifier",
      "outputs": [
        {
          "internalType": "string",
          "name": "identifier_",
          "type": "string"
        }
      ],
      "stateMutability": "pure",
      "type": "function"
    },
    {
      "inputs": [
        {
          "internalType": "bytes4",
          "name": "_selector",
          "type": "bytes4"
        },
        {
          "internalType": "bytes",
          "name": "_encodedCallArgs",
          "type": "bytes"
        }
      ],
      "name": "parseAssetsForMethod",
      "outputs": [
        {
          "internalType": "enum IIntegrationManager.SpendAssetsHandleType",
          "name": "spendAssetsHandleType_",
          "type": "uint8"
        },
        {
          "internalType": "address[]",
          "name": "spendAssets_",
          "type": "address[]"
        },
        {
          "internalType": "uint256[]",
          "name": "spendAssetAmounts_",
          "type": "uint256[]"
        },
        {
          "internalType": "address[]",
          "name": "incomingAssets_",
          "type": "address[]"
        },
        {
          "internalType": "uint256[]",
          "name": "minIncomingAssetAmounts_",
          "type": "uint256[]"
        }
      ],
      "stateMutability": "view",
      "type": "function"
    },
    {
      "inputs": [
        {
          "internalType": "address",
          "name": "_vaultProxy",
          "type": "address"
        },
        {
          "internalType": "bytes",
          "name": "_encodedCallArgs",
          "type": "bytes"
        },
        {
          "internalType": "bytes",
          "name": "_encodedAssetTransferArgs",
          "type": "bytes"
        }
      ],
      "name": "takeOrder",
      "outputs": [],
      "stateMutability": "nonpayable",
      "type": "function"
    },
    {
      "stateMutability": "payable",
      "type": "receive"
    }
  ],
  "transactionHash": "0xd2e29796db3dd956a0956365ba1fbcdd50823074322d68c50d7685b3a63fb151",
  "args": [
    "0x4B37f5DCA5FB2D5548e9EcEe9f98d9Ac95f60774",
    "0x9AAb3f75489902f3a48495025729a0AF77d4b11e",
    "0xc02aaa39b223fe8d0a0e5c4f27ead9083c756cc2"
  ],
  "linkedData": {
    "type": "ADAPTER"
  },
  "solcInputHash": "34b1516e615d6cbcdbaf9542624efee9",
  "bytecode": "0x61010060405234801561001157600080fd5b50604051611d60380380611d608339818101604052606081101561003457600080fd5b50805160208201516040909201516001600160601b0319606092831b81166080524260a05292821b831660c052901b1660e05260805160601c60a05160c05160601c60e05160601c611c896100d76000398061086752806108b15280610a00528061109552806112aa525080610dd2528061111352806111c052806111e752806113195280611340525080610cd65250806106125280610d665250611c896000f3fe6080604052600436106101235760003560e01c80637998a1c4116100a0578063e4d9047811610064578063e4d904781461059e578063e7c45690146105b3578063f0753994146105c8578063f7d882b5146105dd578063f807cd22146105f25761012a565b80637998a1c4146104ae578063863e5ad014610538578063a96de76b1461054d578063b23228cf14610574578063e27a06b5146105895761012a565b806340da225d116100e757806340da225d1461027d57806340f8cfcf146102925780634c252f91146102a75780635ca62b3c146102d857806376cc7ac6146102ed5761012a565b806303e38a2b1461012f578063080456c11461020c578063131461c01461023e578063257cb1a3146102535780633ffc1591146102685761012a565b3661012a57005b600080fd5b34801561013b57600080fd5b5061020a6004803603606081101561015257600080fd5b6001600160a01b038235169190810190604081016020820135600160201b81111561017c57600080fd5b82018360208201111561018e57600080fd5b803590602001918460018302840111600160201b831117156101af57600080fd5b919390929091602081019035600160201b8111156101cc57600080fd5b8201836020820111156101de57600080fd5b803590602001918460018302840111600160201b831117156101ff57600080fd5b509092509050610607565b005b34801561021857600080fd5b50610221610926565b604080516001600160e01b03199092168252519081900360200190f35b34801561024a57600080fd5b5061022161094a565b34801561025f57600080fd5b5061022161096e565b34801561027457600080fd5b50610221610992565b34801561028957600080fd5b506102216109b6565b34801561029e57600080fd5b506102216109da565b3480156102b357600080fd5b506102bc6109fe565b604080516001600160a01b039092168252519081900360200190f35b3480156102e457600080fd5b50610221610a22565b3480156102f957600080fd5b506103796004803603604081101561031057600080fd5b6001600160e01b03198235169190810190604081016020820135600160201b81111561033b57600080fd5b82018360208201111561034d57600080fd5b803590602001918460018302840111600160201b8311171561036e57600080fd5b509092509050610a46565b6040518086600381111561038957fe5b815260200180602001806020018060200180602001858103855289818151815260200191508051906020019060200280838360005b838110156103d65781810151838201526020016103be565b50505050905001858103845288818151815260200191508051906020019060200280838360005b838110156104155781810151838201526020016103fd565b50505050905001858103835287818151815260200191508051906020019060200280838360005b8381101561045457818101518382015260200161043c565b50505050905001858103825286818151815260200191508051906020019060200280838360005b8381101561049357818101518382015260200161047b565b50505050905001995050505050505050505060405180910390f35b3480156104ba57600080fd5b506104c3610c89565b6040805160208082528351818301528351919283929083019185019080838360005b838110156104fd5781810151838201526020016104e5565b50505050905090810190601f16801561052a5780820380516001836020036101000a031916815260200191505b509250505060405180910390f35b34801561054457600080fd5b50610221610cb0565b34801561055957600080fd5b50610562610cd4565b60408051918252519081900360200190f35b34801561058057600080fd5b50610221610cf8565b34801561059557600080fd5b50610221610d1c565b3480156105aa57600080fd5b50610221610d40565b3480156105bf57600080fd5b506102bc610d64565b3480156105d457600080fd5b50610221610d88565b3480156105e957600080fd5b50610221610dac565b3480156105fe57600080fd5b506102bc610dd0565b336001600160a01b037f0000000000000000000000000000000000000000000000000000000000000000161461066e5760405162461bcd60e51b8152600401808060200182810382526032815260200180611b1f6032913960400191505060405180910390fd5b8482828080601f0160208091040260200160405190810160405280939291908181526020018383808284376000920182905250925060609150819050806106b485610df4565b9296509094509250905060018460038111156106cc57fe5b141561072e5760005b835181101561072c5761072487308584815181106106ef57fe5b602002602001015187858151811061070357fe5b60200260200101516001600160a01b0316610fbc909392919063ffffffff16565b6001016106d5565b505b6000806000806107738e8e8080601f01602080910402602001604051908101604052809392919081815260200183838082843760009201919091525061101c92505050565b93509350935093506000610863836001600160a01b031663313ce5676040518163ffffffff1660e01b815260040160206040518083038186803b1580156107b957600080fd5b505afa1580156107cd573d6000803e3d6000fd5b505050506040513d60208110156107e357600080fd5b50516040805163313ce56760e01b8152905160ff9092169185916001600160a01b038a169163313ce56791600480820192602092909190829003018186803b15801561082e57600080fd5b505afa158015610842573d6000803e3d6000fd5b505050506040513d602081101561085857600080fd5b505160ff1687611059565b90507f00000000000000000000000000000000000000000000000000000000000000006001600160a01b0316836001600160a01b031614156108af576108aa858383611093565b610900565b7f00000000000000000000000000000000000000000000000000000000000000006001600160a01b0316856001600160a01b031614156108f4576108aa8383836111ba565b61090085848484611313565b505050505061090f8682611400565b6109198684611400565b5050505050505050505050565b7f8334eb99be0145865eba9889fca2ee920288090caefff4cc776038e20ad9259a81565b7f29fa046e79524c3c5ac4c01df692c35e217802b2b13b21121b76cf0ef02b138c81565b7f099f75155f0e997bf83a7993a71d5e7e7540bd386fe1e84643a09ce6b412521981565b7ffa7dd04da627f433da73c4355ead9c75682a67a8fc84d3f6170ef0922f402d2481565b7fb9dfbaccbe5cd2a84fdcf1d15f23ef25d23086f5afbaa99516065ed4a5bbc7a381565b7ff658eb804cc1da8af5599b584aaf3d55407a3c721c42641a6a5270e963d782c381565b7f000000000000000000000000000000000000000000000000000000000000000090565b7fdfd5ee0f6067928bf85a7c4430811282840bc99332dda3dab462c02bf95b67cc81565b600060608080806001600160e01b031988166303e38a2b60e01b14610a9c5760405162461bcd60e51b8152600401808060200182810382526027815260200180611ad26027913960400191505060405180910390fd5b600080600080610ae18b8b8080601f01602080910402602001604051908101604052809392919081815260200183838082843760009201919091525061101c92505050565b9350935093509350816001600160a01b0316846001600160a01b03161415610b3a5760405162461bcd60e51b815260040180806020018281038252604e815260200180611b51604e913960600191505060405180910390fd5b60008111610b795760405162461bcd60e51b8152600401808060200182810382526034815260200180611bc06034913960400191505060405180910390fd5b60408051600180825281830190925290602080830190803683370190505097508188600081518110610ba757fe5b6001600160a01b03929092166020928302919091018201526040805160018082528183019092529182810190803683370190505096508087600081518110610beb57fe5b6020908102919091010152604080516001808252818301909252908160200160208202803683370190505095508386600081518110610c2657fe5b6001600160a01b03929092166020928302919091018201526040805160018082528183019092529182810190803683370190505094508285600081518110610c6a57fe5b6020026020010181815250506002985050505050939792965093509350565b60408051808201909152600d81526c4b594245525f4e4554574f524b60981b602082015290565b7f03e38a2bd7063d45c897edeafc330e71657502dd86434d3c37a489caf116af6981565b7f000000000000000000000000000000000000000000000000000000000000000090565b7f68e30677f607df46e87da13e15b637784cfa62374b653f35ab43d10361a2f83081565b7f848f3a590fb2f9795d1a275009c54c26c53833277c96b90e0ddd01753a1d590681565b7f3377e18acf9e83665eacd6af109261424fca32a298e2fc2e6095ba563fb8390e81565b7f000000000000000000000000000000000000000000000000000000000000000090565b7f1d51f49b5273d9ddbb643dc349fab8d36dbb470209c2ea71033bea49dd311c2781565b7fc29fa9dde84204c2908778afd0613d802d31cf046179b88f6d2b4a4e507ea2d581565b7f000000000000000000000000000000000000000000000000000000000000000090565b60006060806060848060200190516080811015610e1057600080fd5b815160208301805160405192949293830192919084600160201b821115610e3657600080fd5b908301906020820185811115610e4b57600080fd5b82518660208202830111600160201b82111715610e6757600080fd5b82525081516020918201928201910280838360005b83811015610e94578181015183820152602001610e7c565b5050505090500160405260200180516040519392919084600160201b821115610ebc57600080fd5b908301906020820185811115610ed157600080fd5b82518660208202830111600160201b82111715610eed57600080fd5b82525081516020918201928201910280838360005b83811015610f1a578181015183820152602001610f02565b5050505090500160405260200180516040519392919084600160201b821115610f4257600080fd5b908301906020820185811115610f5757600080fd5b82518660208202830111600160201b82111715610f7357600080fd5b82525081516020918201928201910280838360005b83811015610fa0578181015183820152602001610f88565b5050505090500160405250505093509350935093509193509193565b604080516001600160a01b0380861660248301528416604482015260648082018490528251808303909101815260849091019091526020810180516001600160e01b03166323b872dd60e01b1790526110169085906114e1565b50505050565b60008060008084806020019051608081101561103757600080fd5b5080516020820151604083015160609093015191989097509195509350915050565b600061108a61106c85600a86900a611592565b61108461107a8860126115f4565b8590600a0a611592565b9061164e565b95945050505050565b7f00000000000000000000000000000000000000000000000000000000000000006001600160a01b0316632e1a7d4d836040518263ffffffff1660e01b815260040180828152602001915050600060405180830381600087803b1580156110f957600080fd5b505af115801561110d573d6000803e3d6000fd5b505050507f00000000000000000000000000000000000000000000000000000000000000006001600160a01b0316637a2a04568385846040518463ffffffff1660e01b815260040180836001600160a01b03168152602001828152602001925050506020604051808303818588803b15801561118857600080fd5b505af115801561119c573d6000803e3d6000fd5b50505050506040513d60208110156111b357600080fd5b5050505050565b6111e5837f0000000000000000000000000000000000000000000000000000000000000000846116b5565b7f00000000000000000000000000000000000000000000000000000000000000006001600160a01b0316633bba21dc8484846040518463ffffffff1660e01b815260040180846001600160a01b031681526020018381526020018281526020019350505050602060405180830381600087803b15801561126457600080fd5b505af1158015611278573d6000803e3d6000fd5b505050506040513d602081101561128e57600080fd5b505060408051630d0e30db60e41b815290516001600160a01b037f0000000000000000000000000000000000000000000000000000000000000000169163d0e30db09130319160048082019260009290919082900301818588803b1580156112f557600080fd5b505af1158015611309573d6000803e3d6000fd5b5050505050505050565b61133e837f0000000000000000000000000000000000000000000000000000000000000000846116b5565b7f00000000000000000000000000000000000000000000000000000000000000006001600160a01b0316637409e2eb848487856040518563ffffffff1660e01b815260040180856001600160a01b03168152602001848152602001836001600160a01b03168152602001828152602001945050505050602060405180830381600087803b1580156113ce57600080fd5b505af11580156113e2573d6000803e3d6000fd5b505050506040513d60208110156113f857600080fd5b505050505050565b60005b81518110156114dc57600082828151811061141a57fe5b60200260200101516001600160a01b03166370a08231306040518263ffffffff1660e01b815260040180826001600160a01b0316815260200191505060206040518083038186803b15801561146e57600080fd5b505afa158015611482573d6000803e3d6000fd5b505050506040513d602081101561149857600080fd5b5051905080156114d3576114d384828585815181106114b357fe5b60200260200101516001600160a01b031661174d9092919063ffffffff16565b50600101611403565b505050565b6060611536826040518060400160405280602081526020017f5361666545524332303a206c6f772d6c6576656c2063616c6c206661696c6564815250856001600160a01b031661179f9092919063ffffffff16565b8051909150156114dc5780806020019051602081101561155557600080fd5b50516114dc5760405162461bcd60e51b815260040180806020018281038252602a815260200180611bf4602a913960400191505060405180910390fd5b6000826115a1575060006115ee565b828202828482816115ae57fe5b04146115eb5760405162461bcd60e51b8152600401808060200182810382526021815260200180611b9f6021913960400191505060405180910390fd5b90505b92915050565b6000828201838110156115eb576040805162461bcd60e51b815260206004820152601b60248201527f536166654d6174683a206164646974696f6e206f766572666c6f770000000000604482015290519081900360640190fd5b60008082116116a4576040805162461bcd60e51b815260206004820152601a60248201527f536166654d6174683a206469766973696f6e206279207a65726f000000000000604482015290519081900360640190fd5b8183816116ad57fe5b049392505050565b60408051636eb1769f60e11b81523060048201526001600160a01b0384811660248301529151839286169163dd62ed3e916044808301926020929190829003018186803b15801561170557600080fd5b505afa158015611719573d6000803e3d6000fd5b505050506040513d602081101561172f57600080fd5b505110156114dc576114dc6001600160a01b038416836000196117b8565b604080516001600160a01b038416602482015260448082018490528251808303909101815260649091019091526020810180516001600160e01b031663a9059cbb60e01b1790526114dc9084906114e1565b60606117ae84846000856118cb565b90505b9392505050565b80158061183e575060408051636eb1769f60e11b81523060048201526001600160a01b03848116602483015291519185169163dd62ed3e91604480820192602092909190829003018186803b15801561181057600080fd5b505afa158015611824573d6000803e3d6000fd5b505050506040513d602081101561183a57600080fd5b5051155b6118795760405162461bcd60e51b8152600401808060200182810382526036815260200180611c1e6036913960400191505060405180910390fd5b604080516001600160a01b038416602482015260448082018490528251808303909101815260649091019091526020810180516001600160e01b031663095ea7b360e01b1790526114dc9084906114e1565b60608247101561190c5760405162461bcd60e51b8152600401808060200182810382526026815260200180611af96026913960400191505060405180910390fd5b61191585611a27565b611966576040805162461bcd60e51b815260206004820152601d60248201527f416464726573733a2063616c6c20746f206e6f6e2d636f6e7472616374000000604482015290519081900360640190fd5b60006060866001600160a01b031685876040518082805190602001908083835b602083106119a55780518252601f199092019160209182019101611986565b6001836020036101000a03801982511681845116808217855250505050505090500191505060006040518083038185875af1925050503d8060008114611a07576040519150601f19603f3d011682016040523d82523d6000602084013e611a0c565b606091505b5091509150611a1c828286611a2d565b979650505050505050565b3b151590565b60608315611a3c5750816117b1565b825115611a4c5782518084602001fd5b8160405162461bcd60e51b81526004018080602001828103825283818151815260200191508051906020019080838360005b83811015611a96578181015183820152602001611a7e565b50505050905090810190601f168015611ac35780820380516001836020036101000a031916815260200191505b509250505060405180910390fdfe7061727365417373657473466f724d6574686f643a205f73656c6563746f7220696e76616c6964416464726573733a20696e73756666696369656e742062616c616e636520666f722063616c6c4f6e6c792074686520496e746567726174696f6e4d616e616765722063616e2063616c6c20746869732066756e6374696f6e7061727365417373657473466f724d6574686f643a20696e636f6d696e67417373657420616e64206f7574676f696e6741737365742061737365742063616e6e6f74206265207468652073616d65536166654d6174683a206d756c7469706c69636174696f6e206f766572666c6f777061727365417373657473466f724d6574686f643a206f7574676f696e674173736574416d6f756e74206d757374206265203e305361666545524332303a204552433230206f7065726174696f6e20646964206e6f7420737563636565645361666545524332303a20617070726f76652066726f6d206e6f6e2d7a65726f20746f206e6f6e2d7a65726f20616c6c6f77616e6365a26469706673582212207f0f80813206b3952055d0b7899c31228fda61d600bf678e2dd3d9795f812b7f64736f6c634300060c0033",
  "devdoc": {
    "author": "Enzyme Council <security@enzyme.finance>",
    "kind": "dev",
    "methods": {
      "getExchange()": {
        "returns": {
          "exchange_": "The `EXCHANGE` variable value"
        }
      },
      "getIntegrationManager()": {
        "returns": {
          "integrationManager_": "The `INTEGRATION_MANAGER` variable value"
        }
      },
      "getWethToken()": {
        "returns": {
          "wethToken_": "The `WETH_TOKEN` variable value"
        }
      },
      "identifier()": {
        "returns": {
          "identifier_": "An identifier string"
        }
      },
      "parseAssetsForMethod(bytes4,bytes)": {
        "params": {
          "_encodedCallArgs": "The encoded parameters for the callOnIntegration",
          "_selector": "The function selector for the callOnIntegration"
        },
        "returns": {
          "incomingAssets_": "The assets to receive in the call",
          "minIncomingAssetAmounts_": "The min asset amounts to receive in the call",
          "spendAssetAmounts_": "The max asset amounts to spend in the call",
          "spendAssetsHandleType_": "A type that dictates how to handle granting the adapter access to spend assets (`None` by default)",
          "spendAssets_": "The assets to spend in the call"
        }
      },
      "takeOrder(address,bytes,bytes)": {
        "params": {
          "_encodedAssetTransferArgs": "Encoded args for expected assets to spend and receive",
          "_encodedCallArgs": "Encoded order parameters",
          "_vaultProxy": "The VaultProxy of the calling fund"
        }
      }
    },
    "title": "KyberAdapter Contract",
    "version": 1
  },
  "userdoc": {
    "kind": "user",
    "methods": {
      "getExchange()": {
        "notice": "Gets the `EXCHANGE` variable"
      },
      "getIntegrationManager()": {
        "notice": "Gets the `INTEGRATION_MANAGER` variable"
      },
      "getWethToken()": {
        "notice": "Gets the `WETH_TOKEN` variable"
      },
      "identifier()": {
        "notice": "Provides a constant string identifier for an adapter"
      },
      "parseAssetsForMethod(bytes4,bytes)": {
        "notice": "Parses the expected assets to receive from a call on integration"
      },
      "takeOrder(address,bytes,bytes)": {
        "notice": "Trades assets on Kyber"
      }
    },
    "notice": "Adapter for interacting with Kyber Network",
    "version": 1
  },
  "storageLayout": {
    "storage": [],
    "types": null
  }
}