{
  "address": "0x7b132c6FadF8EB36cCcda7D2E732FA0a8685ef22",
  "abi": [
    {
      "inputs": [
        {
          "internalType": "address",
          "name": "_steth",
          "type": "address"
        },
        {
          "internalType": "address",
          "name": "_weth",
          "type": "address"
        }
      ],
      "stateMutability": "nonpayable",
      "type": "constructor"
    },
    {
      "inputs": [
        {
          "internalType": "address",
          "name": "_derivative",
          "type": "address"
        },
        {
          "internalType": "uint256",
          "name": "_derivativeAmount",
          "type": "uint256"
        }
      ],
      "name": "calcUnderlyingValues",
      "outputs": [
        {
          "internalType": "address[]",
          "name": "underlyings_",
          "type": "address[]"
        },
        {
          "internalType": "uint256[]",
          "name": "underlyingAmounts_",
          "type": "uint256[]"
        }
      ],
      "stateMutability": "nonpayable",
      "type": "function"
    },
    {
      "inputs": [],
      "name": "getDerivative",
      "outputs": [
        {
          "internalType": "address",
          "name": "derivative_",
          "type": "address"
        }
      ],
      "stateMutability": "view",
      "type": "function"
    },
    {
      "inputs": [],
      "name": "getDerivativePriceFeedDeployTimestamp",
      "outputs": [
        {
          "internalType": "uint256",
          "name": "",
          "type": "uint256"
        }
      ],
      "stateMutability": "view",
      "type": "function"
    },
    {
      "inputs": [],
      "name": "getUnderlying",
      "outputs": [
        {
          "internalType": "address",
          "name": "underlying_",
          "type": "address"
        }
      ],
      "stateMutability": "view",
      "type": "function"
    },
    {
      "inputs": [
        {
          "internalType": "address",
          "name": "_asset",
          "type": "address"
        }
      ],
      "name": "isSupportedAsset",
      "outputs": [
        {
          "internalType": "bool",
          "name": "isSupported_",
          "type": "bool"
        }
      ],
      "stateMutability": "view",
      "type": "function"
    }
  ],
  "transactionHash": "0xdc355de459133d8e0fcf4a3a3196b5cafc99480a803831320d29d95534ccd984",
  "args": [
    "0xae7ab96520de3a18e5e111b5eaab095312d7fe84",
    "0xc02aaa39b223fe8d0a0e5c4f27ead9083c756cc2"
  ],
  "solcInputHash": "34b1516e615d6cbcdbaf9542624efee9",
  "bytecode": "0x60e060405234801561001057600080fd5b506040516105613803806105618339818101604052604081101561003357600080fd5b5080516020918201516040805163313ce56760e01b8152905192939192849284926001600160a01b0384169263313ce56792600480840193919291829003018186803b15801561008257600080fd5b505afa158015610096573d6000803e3d6000fd5b505050506040513d60208110156100ac57600080fd5b50516040805163313ce56760e01b8152905160ff909216916001600160a01b0385169163313ce567916004808301926020929190829003018186803b1580156100f457600080fd5b505afa158015610108573d6000803e3d6000fd5b505050506040513d602081101561011e57600080fd5b505160ff1614610175576040805162461bcd60e51b815260206004820152601d60248201527f636f6e7374727563746f723a20556e657175616c20646563696d616c73000000604482015290519081900360640190fd5b6001600160601b0319606092831b8116608052911b1660a05250504260c05260805160601c60a05160601c60c0516103916101d06000398061030952508061022e52806102b35250806101a352806102d752506103916000f3fe608060405234801561001057600080fd5b50600436106100575760003560e01c80636d4a681a1461005c578063727212f6146100805780639816f473146101455780639be918e61461014d578063ba4906b814610187575b600080fd5b6100646101a1565b604080516001600160a01b039092168252519081900360200190f35b6100ac6004803603604081101561009657600080fd5b506001600160a01b0381351690602001356101c5565b604051808060200180602001838103835285818151815260200191508051906020019060200280838360005b838110156100f05781810151838201526020016100d8565b50505050905001838103825284818151815260200191508051906020019060200280838360005b8381101561012f578181015183820152602001610117565b5050505090500194505050505060405180910390f35b6100646102b1565b6101736004803603602081101561016357600080fd5b50356001600160a01b03166102d5565b604080519115158252519081900360200190f35b61018f610307565b60408051918252519081900360200190f35b7f000000000000000000000000000000000000000000000000000000000000000090565b6060806101d1846102d5565b61020c5760405162461bcd60e51b815260040180806020018281038252603081526020018061032c6030913960400191505060405180910390fd5b60408051600180825281830190925290602080830190803683370190505091507f00000000000000000000000000000000000000000000000000000000000000008260008151811061025a57fe5b6001600160a01b0392909216602092830291909101820152604080516001808252818301909252918281019080368337019050509050828160008151811061029e57fe5b6020026020010181815250509250929050565b7f000000000000000000000000000000000000000000000000000000000000000090565b7f00000000000000000000000000000000000000000000000000000000000000006001600160a01b0390811691161490565b7f00000000000000000000000000000000000000000000000000000000000000009056fe63616c63556e6465726c79696e6756616c7565733a204e6f74206120737570706f727465642064657269766174697665a26469706673582212201a3e832bae90692df5c7583552d32de1070d3613a3e54e80bbabeed0148ac0bb64736f6c634300060c0033",
  "devdoc": {
    "author": "Enzyme Council <security@enzyme.finance>",
    "kind": "dev",
    "methods": {
      "calcUnderlyingValues(address,uint256)": {
        "params": {
          "_derivative": "The derivative to convert",
          "_derivativeAmount": "The amount of the derivative to convert"
        },
        "returns": {
          "underlyingAmounts_": "The amount of each underlying asset for the equivalent derivative amount",
          "underlyings_": "The underlying assets for the _derivative"
        }
      },
      "getDerivative()": {
        "returns": {
          "derivative_": "The `DERIVATIVE` variable value"
        }
      },
      "getUnderlying()": {
        "returns": {
          "underlying_": "The `UNDERLYING` variable value"
        }
      },
      "isSupportedAsset(address)": {
        "params": {
          "_asset": "The asset to check"
        },
        "returns": {
          "isSupported_": "True if the asset is supported"
        }
      }
    },
    "title": "LidoStethPriceFeed Contract",
    "version": 1
  },
  "userdoc": {
    "kind": "user",
    "methods": {
      "calcUnderlyingValues(address,uint256)": {
        "notice": "Converts a given amount of a derivative to its underlying asset values"
      },
      "getDerivative()": {
        "notice": "Gets the `DERIVATIVE` variable value"
      },
      "getUnderlying()": {
        "notice": "Gets the `UNDERLYING` variable value"
      },
      "isSupportedAsset(address)": {
        "notice": "Checks if an asset is supported by the price feed"
      }
    },
    "notice": "Price source oracle for Lido stETH, which maps 1:1 with ETH (https://lido.fi/)",
    "version": 1
  },
  "storageLayout": {
    "storage": [],
    "types": null
  }
}