{
  "address": "0x7ddDFa48F05f7ad43dcfde8B167Df0b1199DcFFa",
  "abi": [
    {
      "inputs": [
        {
          "internalType": "address",
          "name": "_policyManager",
          "type": "address"
        }
      ],
      "stateMutability": "nonpayable",
      "type": "constructor"
    },
    {
      "anonymous": false,
      "inputs": [
        {
          "indexed": true,
          "internalType": "address",
          "name": "comptrollerProxy",
          "type": "address"
        },
        {
          "indexed": false,
          "internalType": "uint256",
          "name": "minInvestmentAmount",
          "type": "uint256"
        },
        {
          "indexed": false,
          "internalType": "uint256",
          "name": "maxInvestmentAmount",
          "type": "uint256"
        }
      ],
      "name": "FundSettingsSet",
      "type": "event"
    },
    {
      "inputs": [
        {
          "internalType": "address",
          "name": "",
          "type": "address"
        },
        {
          "internalType": "address",
          "name": "",
          "type": "address"
        }
      ],
      "name": "activateForFund",
      "outputs": [],
      "stateMutability": "nonpayable",
      "type": "function"
    },
    {
      "inputs": [
        {
          "internalType": "address",
          "name": "_comptrollerProxy",
          "type": "address"
        },
        {
          "internalType": "bytes",
          "name": "_encodedSettings",
          "type": "bytes"
        }
      ],
      "name": "addFundSettings",
      "outputs": [],
      "stateMutability": "nonpayable",
      "type": "function"
    },
    {
      "inputs": [
        {
          "internalType": "address",
          "name": "_comptrollerProxy",
          "type": "address"
        }
      ],
      "name": "getFundSettings",
      "outputs": [
        {
          "components": [
            {
              "internalType": "uint256",
              "name": "minInvestmentAmount",
              "type": "uint256"
            },
            {
              "internalType": "uint256",
              "name": "maxInvestmentAmount",
              "type": "uint256"
            }
          ],
          "internalType": "struct MinMaxInvestment.FundSettings",
          "name": "fundSettings_",
          "type": "tuple"
        }
      ],
      "stateMutability": "view",
      "type": "function"
    },
    {
      "inputs": [],
      "name": "getPolicyDeployTimestamp",
      "outputs": [
        {
          "internalType": "uint256",
          "name": "",
          "type": "uint256"
        }
      ],
      "stateMutability": "view",
      "type": "function"
    },
    {
      "inputs": [],
      "name": "getPolicyManager",
      "outputs": [
        {
          "internalType": "address",
          "name": "policyManager_",
          "type": "address"
        }
      ],
      "stateMutability": "view",
      "type": "function"
    },
    {
      "inputs": [],
      "name": "identifier",
      "outputs": [
        {
          "internalType": "string",
          "name": "identifier_",
          "type": "string"
        }
      ],
      "stateMutability": "pure",
      "type": "function"
    },
    {
      "inputs": [],
      "name": "implementedHooks",
      "outputs": [
        {
          "internalType": "enum IPolicyManager.PolicyHook[]",
          "name": "implementedHooks_",
          "type": "uint8[]"
        }
      ],
      "stateMutability": "view",
      "type": "function"
    },
    {
      "inputs": [
        {
          "internalType": "address",
          "name": "_comptrollerProxy",
          "type": "address"
        },
        {
          "internalType": "uint256",
          "name": "_investmentAmount",
          "type": "uint256"
        }
      ],
      "name": "passesRule",
      "outputs": [
        {
          "internalType": "bool",
          "name": "isValid_",
          "type": "bool"
        }
      ],
      "stateMutability": "view",
      "type": "function"
    },
    {
      "inputs": [
        {
          "internalType": "address",
          "name": "_comptrollerProxy",
          "type": "address"
        },
        {
          "internalType": "address",
          "name": "",
          "type": "address"
        },
        {
          "internalType": "bytes",
          "name": "_encodedSettings",
          "type": "bytes"
        }
      ],
      "name": "updateFundSettings",
      "outputs": [],
      "stateMutability": "nonpayable",
      "type": "function"
    },
    {
      "inputs": [
        {
          "internalType": "address",
          "name": "_comptrollerProxy",
          "type": "address"
        },
        {
          "internalType": "address",
          "name": "",
          "type": "address"
        },
        {
          "internalType": "enum IPolicyManager.PolicyHook",
          "name": "",
          "type": "uint8"
        },
        {
          "internalType": "bytes",
          "name": "_encodedArgs",
          "type": "bytes"
        }
      ],
      "name": "validateRule",
      "outputs": [
        {
          "internalType": "bool",
          "name": "isValid_",
          "type": "bool"
        }
      ],
      "stateMutability": "nonpayable",
      "type": "function"
    }
  ],
  "transactionHash": "0x4b1a12ee1e16db8345d57884cb28e13f4c261220de50a1c3901df3e59ce06318",
  "args": [
    "0x73A064974e0B97c251fDc0c0E627F2518dfAeBEd"
  ],
  "linkedData": {
    "type": "POLICY"
  },
  "solcInputHash": "34b1516e615d6cbcdbaf9542624efee9",
  "bytecode": "0x60c060405234801561001057600080fd5b50604051610c47380380610c4783398101604081905261002f91610059565b60601b6001600160601b0319166080524260a0526100a7565b805161005381610090565b92915050565b60006020828403121561006b57600080fd5b60006100778484610048565b949350505050565b60006001600160a01b038216610053565b6100998161007f565b81146100a457600080fd5b50565b60805160601c60a051610b706100d760003980610226525080610199528061037852806104545250610b706000f3fe608060405234801561001057600080fd5b506004361061009e5760003560e01c80636e3a9982116100665780636e3a9982146101295780637998a1c41461013c5780638945f19014610151578063cbf54bb214610164578063d44ad6cb146101795761009e565b80630f5f6b4f146100a357806310587e95146100b85780633146d058146100d65780634fa4e54b146100e95780635b8f1c5a14610109575b600080fd5b6100b66100b1366004610786565b61018e565b005b6100c0610224565b6040516100cd9190610a5d565b60405180910390f35b6100b66100e4366004610666565b610248565b6100fc6100f73660046105df565b61024c565b6040516100cd9190610a4f565b61011c610117366004610708565b610289565b6040516100cd9190610a10565b61011c6101373660046107dc565b6102e5565b610144610341565b6040516100cd9190610a1e565b6100b661015f3660046106a0565b61036d565b61016c6103fb565b6040516100cd91906109f8565b610181610452565b6040516100cd91906109ea565b336001600160a01b037f000000000000000000000000000000000000000000000000000000000000000016146101df5760405162461bcd60e51b81526004016101d690610a2f565b60405180910390fd5b61021f8383838080601f01602080910402602001604051908101604052809392919081815260200183838082843760009201919091525061047692505050565b505050565b7f000000000000000000000000000000000000000000000000000000000000000090565b5050565b610254610545565b506001600160a01b0381166000908152602081815260409182902082518084019093528054835260010154908201525b919050565b6000806102cb84848080601f01602080910402602001604051908101604052809392919081815260200183838082843760009201919091525061051c92505050565b50509150506102da87826102e5565b979650505050505050565b6001600160a01b038216600090815260208190526040812080546001909101548161031657831115915061033b9050565b806103265750821015905061033b565b8184101580156103365750808411155b925050505b92915050565b60408051808201909152601281527113525397d3505617d253959154d51351539560721b602082015290565b336001600160a01b037f000000000000000000000000000000000000000000000000000000000000000016146103b55760405162461bcd60e51b81526004016101d690610a2f565b6103f58483838080601f01602080910402602001604051908101604052809392919081815260200183838082843760009201919091525061047692505050565b50505050565b6040805160018082528183019092526060916020808301908036833701905050905060018160008151811061042c57fe5b6020026020010190600581111561043f57fe5b9081600581111561044c57fe5b90525090565b7f000000000000000000000000000000000000000000000000000000000000000090565b6000808280602001905181019061048d919061080c565b91509150806000148061049f57508082105b6104bb5760405162461bcd60e51b81526004016101d690610a3f565b6001600160a01b03841660008181526020819052604090819020848155600101839055517fed112d6c0e84b6900209ce5a4c04541bc63a517e0160888c447ee70be47ce60f9061050e9085908590610a6b565b60405180910390a250505050565b600080600080848060200190518101906105369190610605565b93509350935093509193509193565b604051806040016040528060008152602001600081525090565b803561033b81610b10565b805161033b81610b10565b60008083601f84011261058757600080fd5b50813567ffffffffffffffff81111561059f57600080fd5b6020830191508360018202830111156105b757600080fd5b9250929050565b803561033b81610b24565b803561033b81610b31565b805161033b81610b31565b6000602082840312156105f157600080fd5b60006105fd848461055f565b949350505050565b6000806000806080858703121561061b57600080fd5b6000610627878761056a565b9450506020610638878288016105d4565b9350506040610649878288016105d4565b925050606061065a878288016105d4565b91505092959194509250565b6000806040838503121561067957600080fd5b6000610685858561055f565b92505060206106968582860161055f565b9150509250929050565b600080600080606085870312156106b657600080fd5b60006106c2878761055f565b94505060206106d38782880161055f565b935050604085013567ffffffffffffffff8111156106f057600080fd5b6106fc87828801610575565b95989497509550505050565b60008060008060006080868803121561072057600080fd5b600061072c888861055f565b955050602061073d8882890161055f565b945050604061074e888289016105be565b935050606086013567ffffffffffffffff81111561076b57600080fd5b61077788828901610575565b92509250509295509295909350565b60008060006040848603121561079b57600080fd5b60006107a7868661055f565b935050602084013567ffffffffffffffff8111156107c457600080fd5b6107d086828701610575565b92509250509250925092565b600080604083850312156107ef57600080fd5b60006107fb858561055f565b9250506020610696858286016105c9565b6000806040838503121561081f57600080fd5b600061082b85856105d4565b9250506020610696858286016105d4565b600061084883836108c1565b505060200190565b61085981610a99565b82525050565b600061086a82610a8c565b6108748185610a90565b935061087f83610a86565b8060005b838110156108ad578151610897888261083c565b97506108a283610a86565b925050600101610883565b509495945050505050565b61085981610aa4565b61085981610ac2565b60006108d582610a8c565b6108df8185610a90565b93506108ef818560208601610acd565b6108f881610af9565b9093019392505050565b600061090f602983610a90565b7f4f6e6c792074686520506f6c6963794d616e616765722063616e206d616b65208152681d1a1a5cc818d85b1b60ba1b602082015260400192915050565b600061095a604c83610a90565b7f5f5f73657446756e6453657474696e67733a206d696e496e766573746d656e7481527f416d6f756e74206d757374206265206c657373207468616e206d6178496e766560208201526b1cdd1b595b9d105b5bdd5b9d60a21b604082015260600192915050565b805160408301906109d284826109e1565b5060208201516103f560208501825b61085981610abf565b6020810161033b8284610850565b60208082528101610a09818461085f565b9392505050565b6020810161033b82846108b8565b60208082528101610a0981846108ca565b6020808252810161033b81610902565b6020808252810161033b8161094d565b6040810161033b82846109c1565b6020810161033b82846109e1565b60408101610a7982856109e1565b610a0960208301846109e1565b60200190565b5190565b90815260200190565b600061033b82610ab3565b151590565b8061028481610b03565b6001600160a01b031690565b90565b600061033b82610aa9565b60005b83811015610ae8578181015183820152602001610ad0565b838111156103f55750506000910152565b601f01601f191690565b60068110610b0d57fe5b50565b610b1981610a99565b8114610b0d57600080fd5b60068110610b0d57600080fd5b610b1981610abf56fea26469706673582212208f95e687e2beb5230a9e43b54368ad37a61ad5db7629904e475a7ce83c09057964736f6c634300060c0033",
  "devdoc": {
    "author": "Enzyme Council <security@enzyme.finance>",
    "kind": "dev",
    "methods": {
      "activateForFund(address,address)": {
        "details": "Unimplemented by default, can be overridden by the policy"
      },
      "addFundSettings(address,bytes)": {
        "params": {
          "_comptrollerProxy": "The fund's ComptrollerProxy address",
          "_encodedSettings": "Encoded settings to apply to a fund"
        }
      },
      "getFundSettings(address)": {
        "params": {
          "_comptrollerProxy": "The ComptrollerProxy of the fund"
        },
        "returns": {
          "fundSettings_": "The fund settings"
        }
      },
      "getPolicyManager()": {
        "returns": {
          "policyManager_": "The `POLICY_MANAGER` variable value"
        }
      },
      "identifier()": {
        "returns": {
          "identifier_": "The identifer string"
        }
      },
      "implementedHooks()": {
        "returns": {
          "implementedHooks_": "The implemented PolicyHooks"
        }
      },
      "passesRule(address,uint256)": {
        "params": {
          "_comptrollerProxy": "The fund's ComptrollerProxy address",
          "_investmentAmount": "The investment amount for which to check the rule"
        },
        "returns": {
          "isValid_": "True if the rule passes"
        }
      },
      "updateFundSettings(address,address,bytes)": {
        "params": {
          "_comptrollerProxy": "The fund's ComptrollerProxy address",
          "_encodedSettings": "Encoded settings to apply to a fund"
        }
      },
      "validateRule(address,address,uint8,bytes)": {
        "params": {
          "_comptrollerProxy": "The fund's ComptrollerProxy address",
          "_encodedArgs": "Encoded args with which to validate the rule"
        },
        "returns": {
          "isValid_": "True if the rule passes"
        }
      }
    },
    "title": "MinMaxInvestment Contract",
    "version": 1
  },
  "userdoc": {
    "kind": "user",
    "methods": {
      "activateForFund(address,address)": {
        "notice": "Validates and initializes a policy as necessary prior to fund activation"
      },
      "addFundSettings(address,bytes)": {
        "notice": "Adds the initial policy settings for a fund"
      },
      "getFundSettings(address)": {
        "notice": "Gets the min and max investment amount for a given fund"
      },
      "getPolicyManager()": {
        "notice": "Gets the `POLICY_MANAGER` variable value"
      },
      "identifier()": {
        "notice": "Provides a constant string identifier for a policy"
      },
      "implementedHooks()": {
        "notice": "Gets the implemented PolicyHooks for a policy"
      },
      "passesRule(address,uint256)": {
        "notice": "Checks whether a particular condition passes the rule for a particular fund"
      },
      "updateFundSettings(address,address,bytes)": {
        "notice": "Updates the policy settings for a fund"
      },
      "validateRule(address,address,uint8,bytes)": {
        "notice": "Apply the rule with the specified parameters of a PolicyHook"
      }
    },
    "notice": "A policy that restricts the amount of the fund's denomination asset that a user can send in a single call to buy shares in a fund",
    "version": 1
  },
  "storageLayout": {
    "storage": [
      {
        "astId": 37557,
        "contract": "contracts/release/extensions/policy-manager/policies/buy-shares/MinMaxInvestment.sol:MinMaxInvestment",
        "label": "comptrollerProxyToFundSettings",
        "offset": 0,
        "slot": "0",
        "type": "t_mapping(t_address,t_struct(FundSettings)37553_storage)"
      }
    ],
    "types": {
      "t_address": {
        "encoding": "inplace",
        "label": "address",
        "numberOfBytes": "20"
      },
      "t_mapping(t_address,t_struct(FundSettings)37553_storage)": {
        "encoding": "mapping",
        "key": "t_address",
        "label": "mapping(address => struct MinMaxInvestment.FundSettings)",
        "numberOfBytes": "32",
        "value": "t_struct(FundSettings)37553_storage"
      },
      "t_struct(FundSettings)37553_storage": {
        "encoding": "inplace",
        "label": "struct MinMaxInvestment.FundSettings",
        "members": [
          {
            "astId": 37550,
            "contract": "contracts/release/extensions/policy-manager/policies/buy-shares/MinMaxInvestment.sol:MinMaxInvestment",
            "label": "minInvestmentAmount",
            "offset": 0,
            "slot": "0",
            "type": "t_uint256"
          },
          {
            "astId": 37552,
            "contract": "contracts/release/extensions/policy-manager/policies/buy-shares/MinMaxInvestment.sol:MinMaxInvestment",
            "label": "maxInvestmentAmount",
            "offset": 0,
            "slot": "1",
            "type": "t_uint256"
          }
        ],
        "numberOfBytes": "64"
      },
      "t_uint256": {
        "encoding": "inplace",
        "label": "uint256",
        "numberOfBytes": "32"
      }
    }
  }
}