{
  "address": "0x7C3aF224b72B30868609De94aFA1675Ef95Ef7D8",
  "abi": [
    {
      "inputs": [
        {
          "internalType": "address",
          "name": "_integrationManager",
          "type": "address"
        },
        {
          "internalType": "address",
          "name": "_augustusSwapper",
          "type": "address"
        },
        {
          "internalType": "address",
          "name": "_tokenTransferProxy",
          "type": "address"
        }
      ],
      "stateMutability": "nonpayable",
      "type": "constructor"
    },
    {
      "inputs": [],
      "name": "ADD_TRACKED_ASSETS_SELECTOR",
      "outputs": [
        {
          "internalType": "bytes4",
          "name": "",
          "type": "bytes4"
        }
      ],
      "stateMutability": "view",
      "type": "function"
    },
    {
      "inputs": [],
      "name": "APPROVE_ASSETS_SELECTOR",
      "outputs": [
        {
          "internalType": "bytes4",
          "name": "",
          "type": "bytes4"
        }
      ],
      "stateMutability": "view",
      "type": "function"
    },
    {
      "inputs": [],
      "name": "CLAIM_REWARDS_AND_REINVEST_SELECTOR",
      "outputs": [
        {
          "internalType": "bytes4",
          "name": "",
          "type": "bytes4"
        }
      ],
      "stateMutability": "view",
      "type": "function"
    },
    {
      "inputs": [],
      "name": "CLAIM_REWARDS_AND_SWAP_SELECTOR",
      "outputs": [
        {
          "internalType": "bytes4",
          "name": "",
          "type": "bytes4"
        }
      ],
      "stateMutability": "view",
      "type": "function"
    },
    {
      "inputs": [],
      "name": "CLAIM_REWARDS_SELECTOR",
      "outputs": [
        {
          "internalType": "bytes4",
          "name": "",
          "type": "bytes4"
        }
      ],
      "stateMutability": "view",
      "type": "function"
    },
    {
      "inputs": [],
      "name": "LEND_AND_STAKE_SELECTOR",
      "outputs": [
        {
          "internalType": "bytes4",
          "name": "",
          "type": "bytes4"
        }
      ],
      "stateMutability": "view",
      "type": "function"
    },
    {
      "inputs": [],
      "name": "LEND_SELECTOR",
      "outputs": [
        {
          "internalType": "bytes4",
          "name": "",
          "type": "bytes4"
        }
      ],
      "stateMutability": "view",
      "type": "function"
    },
    {
      "inputs": [],
      "name": "REDEEM_SELECTOR",
      "outputs": [
        {
          "internalType": "bytes4",
          "name": "",
          "type": "bytes4"
        }
      ],
      "stateMutability": "view",
      "type": "function"
    },
    {
      "inputs": [],
      "name": "REMOVE_TRACKED_ASSETS_SELECTOR",
      "outputs": [
        {
          "internalType": "bytes4",
          "name": "",
          "type": "bytes4"
        }
      ],
      "stateMutability": "view",
      "type": "function"
    },
    {
      "inputs": [],
      "name": "STAKE_SELECTOR",
      "outputs": [
        {
          "internalType": "bytes4",
          "name": "",
          "type": "bytes4"
        }
      ],
      "stateMutability": "view",
      "type": "function"
    },
    {
      "inputs": [],
      "name": "TAKE_ORDER_SELECTOR",
      "outputs": [
        {
          "internalType": "bytes4",
          "name": "",
          "type": "bytes4"
        }
      ],
      "stateMutability": "view",
      "type": "function"
    },
    {
      "inputs": [],
      "name": "UNSTAKE_AND_REDEEM_SELECTOR",
      "outputs": [
        {
          "internalType": "bytes4",
          "name": "",
          "type": "bytes4"
        }
      ],
      "stateMutability": "view",
      "type": "function"
    },
    {
      "inputs": [],
      "name": "UNSTAKE_SELECTOR",
      "outputs": [
        {
          "internalType": "bytes4",
          "name": "",
          "type": "bytes4"
        }
      ],
      "stateMutability": "view",
      "type": "function"
    },
    {
      "inputs": [],
      "name": "getAdapterDeployTimestamp",
      "outputs": [
        {
          "internalType": "uint256",
          "name": "",
          "type": "uint256"
        }
      ],
      "stateMutability": "view",
      "type": "function"
    },
    {
      "inputs": [],
      "name": "getIntegrationManager",
      "outputs": [
        {
          "internalType": "address",
          "name": "integrationManager_",
          "type": "address"
        }
      ],
      "stateMutability": "view",
      "type": "function"
    },
    {
      "inputs": [],
      "name": "getParaSwapV4AugustusSwapper",
      "outputs": [
        {
          "internalType": "address",
          "name": "augustusSwapper_",
          "type": "address"
        }
      ],
      "stateMutability": "view",
      "type": "function"
    },
    {
      "inputs": [],
      "name": "getParaSwapV4TokenTransferProxy",
      "outputs": [
        {
          "internalType": "address",
          "name": "tokenTransferProxy_",
          "type": "address"
        }
      ],
      "stateMutability": "view",
      "type": "function"
    },
    {
      "inputs": [],
      "name": "identifier",
      "outputs": [
        {
          "internalType": "string",
          "name": "identifier_",
          "type": "string"
        }
      ],
      "stateMutability": "pure",
      "type": "function"
    },
    {
      "inputs": [
        {
          "internalType": "bytes4",
          "name": "_selector",
          "type": "bytes4"
        },
        {
          "internalType": "bytes",
          "name": "_encodedCallArgs",
          "type": "bytes"
        }
      ],
      "name": "parseAssetsForMethod",
      "outputs": [
        {
          "internalType": "enum IIntegrationManager.SpendAssetsHandleType",
          "name": "spendAssetsHandleType_",
          "type": "uint8"
        },
        {
          "internalType": "address[]",
          "name": "spendAssets_",
          "type": "address[]"
        },
        {
          "internalType": "uint256[]",
          "name": "spendAssetAmounts_",
          "type": "uint256[]"
        },
        {
          "internalType": "address[]",
          "name": "incomingAssets_",
          "type": "address[]"
        },
        {
          "internalType": "uint256[]",
          "name": "minIncomingAssetAmounts_",
          "type": "uint256[]"
        }
      ],
      "stateMutability": "view",
      "type": "function"
    },
    {
      "inputs": [
        {
          "internalType": "address",
          "name": "_vaultProxy",
          "type": "address"
        },
        {
          "internalType": "bytes",
          "name": "_encodedCallArgs",
          "type": "bytes"
        },
        {
          "internalType": "bytes",
          "name": "",
          "type": "bytes"
        }
      ],
      "name": "takeOrder",
      "outputs": [],
      "stateMutability": "nonpayable",
      "type": "function"
    }
  ],
  "transactionHash": "0xaac51a6a759b78fb1041b3a7206a62eab20cecd2c4c89600651f46c67289a5a5",
  "args": [
    "0x4B37f5DCA5FB2D5548e9EcEe9f98d9Ac95f60774",
    "0x1bD435F3C054b6e901B7b108a0ab7617C808677b",
    "0xb70Bc06D2c9Bf03b3373799606dc7d39346c06B3"
  ],
  "linkedData": {
    "type": "ADAPTER"
  },
  "solcInputHash": "34b1516e615d6cbcdbaf9542624efee9",
  "bytecode": "0x6101006040523480156200001257600080fd5b5060405162001a2338038062001a23833981016040819052620000359162000074565b6001600160601b0319606093841b81166080524260a05291831b821660c05290911b1660e052620000f4565b80516200006e81620000da565b92915050565b6000806000606084860312156200008a57600080fd5b600062000098868662000061565b9350506020620000ab8682870162000061565b9250506040620000be8682870162000061565b9150509250925092565b60006001600160a01b0382166200006e565b620000e581620000c8565b8114620000f157600080fd5b50565b60805160601c60a05160c05160601c60e05160601c6118e1620001426000398061067d52806107875250806103f1528061082552508061063552508061024252806106e952506118e16000f3fe608060405234801561001057600080fd5b506004361061012c5760003560e01c80637998a1c4116100ad578063e27a06b511610071578063e27a06b51461020f578063e4d9047814610217578063e7c456901461021f578063f075399414610227578063f7d882b51461022f5761012c565b80637998a1c4146101cd578063863e5ad0146101e2578063a96de76b146101ea578063b23228cf146101ff578063c7308c03146102075761012c565b806340da225d116100f457806340da225d1461017c57806340f8cfcf146101845780635ca62b3c1461018c5780635e21197a1461019457806376cc7ac6146101a95761012c565b806303e38a2b14610131578063080456c114610146578063131461c014610164578063257cb1a31461016c5780633ffc159114610174575b600080fd5b61014461013f366004610f12565b610237565b005b61014e6102f3565b60405161015b9190611677565b60405180910390f35b61014e610317565b61014e61033b565b61014e61035f565b61014e610383565b61014e6103a7565b61014e6103cb565b61019c6103ef565b60405161015b9190611633565b6101bc6101b7366004610fbf565b610413565b60405161015b959493929190611685565b6101d56105e9565b60405161015b91906116e1565b61014e61060f565b6101f2610633565b60405161015b9190611763565b61014e610657565b61019c61067b565b61014e61069f565b61014e6106c3565b61019c6106e7565b61014e61070b565b61014e61072f565b336001600160a01b037f000000000000000000000000000000000000000000000000000000000000000016146102885760405162461bcd60e51b815260040161027f90611712565b60405180910390fd5b60008060008060606102cf89898080601f01602080910402602001604051908101604052809392919081815260200183838082843760009201919091525061075392505050565b945094509450945094506102e7838387878e86610781565b50505050505050505050565b7f8334eb99be0145865eba9889fca2ee920288090caefff4cc776038e20ad9259a81565b7f29fa046e79524c3c5ac4c01df692c35e217802b2b13b21121b76cf0ef02b138c81565b7f099f75155f0e997bf83a7993a71d5e7e7540bd386fe1e84643a09ce6b412521981565b7ffa7dd04da627f433da73c4355ead9c75682a67a8fc84d3f6170ef0922f402d2481565b7fb9dfbaccbe5cd2a84fdcf1d15f23ef25d23086f5afbaa99516065ed4a5bbc7a381565b7ff658eb804cc1da8af5599b584aaf3d55407a3c721c42641a6a5270e963d782c381565b7fdfd5ee0f6067928bf85a7c4430811282840bc99332dda3dab462c02bf95b67cc81565b7f000000000000000000000000000000000000000000000000000000000000000090565b600060608080806001600160e01b031988166303e38a2b60e01b1461044a5760405162461bcd60e51b815260040161027f906116f2565b600080600060606104908b8b8080601f01602080910402602001604051908101604052809392919081815260200183838082843760009201919091525061075392505050565b945094509450509350600167ffffffffffffffff811180156104b157600080fd5b506040519080825280602002602001820160405280156104db578160200160208202803683370190505b50975082886000815181106104ec57fe5b6001600160a01b0392909216602092830291909101820152604080516001808252818301909252918281019080368337019050509650818760008151811061053057fe5b6020908102919091010152604080516001808252818301909252908160200160208202803683370190505095508060018251038151811061056d57fe5b6020026020010151600001518660008151811061058657fe5b6001600160a01b039290921660209283029190910182015260408051600180825281830190925291828101908036833701905050945083856000815181106105ca57fe5b6020026020010181815250506002985050505050939792965093509350565b60408051808201909152600c81526b1410549057d4d5d05417d58d60a21b602082015290565b7f03e38a2bd7063d45c897edeafc330e71657502dd86434d3c37a489caf116af6981565b7f000000000000000000000000000000000000000000000000000000000000000090565b7f68e30677f607df46e87da13e15b637784cfa62374b653f35ab43d10361a2f83081565b7f000000000000000000000000000000000000000000000000000000000000000090565b7f848f3a590fb2f9795d1a275009c54c26c53833277c96b90e0ddd01753a1d590681565b7f3377e18acf9e83665eacd6af109261424fca32a298e2fc2e6095ba563fb8390e81565b7f000000000000000000000000000000000000000000000000000000000000000090565b7f1d51f49b5273d9ddbb643dc349fab8d36dbb470209c2ea71033bea49dd311c2781565b7fc29fa9dde84204c2908778afd0613d802d31cf046179b88f6d2b4a4e507ea2d581565b60008060008060608580602001905181019061076f9190611033565b939a9299509097509550909350915050565b6107ac867f0000000000000000000000000000000000000000000000000000000000000000876108cb565b6107b4610c0d565b604051806101000160405280886001600160a01b03168152602001878152602001868152602001858152602001846001600160a01b0316815260200160405180604001604052806006815260200165656e7a796d6560d01b81525081526020016000151581526020018381525090507f00000000000000000000000000000000000000000000000000000000000000006001600160a01b0316638f00eccb826040518263ffffffff1660e01b815260040161086f9190611752565b602060405180830381600087803b15801561088957600080fd5b505af115801561089d573d6000803e3d6000fd5b505050506040513d601f19601f820116820180604052508101906108c19190611015565b5050505050505050565b604051636eb1769f60e11b815281906001600160a01b0385169063dd62ed3e906108fb9030908790600401611641565b60206040518083038186803b15801561091357600080fd5b505afa158015610927573d6000803e3d6000fd5b505050506040513d601f19601f8201168201806040525081019061094b9190611015565b1015610967576109676001600160a01b0384168360001961096c565b505050565b8015806109f45750604051636eb1769f60e11b81526001600160a01b0384169063dd62ed3e906109a29030908690600401611641565b60206040518083038186803b1580156109ba57600080fd5b505afa1580156109ce573d6000803e3d6000fd5b505050506040513d601f19601f820116820180604052508101906109f29190611015565b155b610a105760405162461bcd60e51b815260040161027f90611742565b6109678363095ea7b360e01b8484604051602401610a2f92919061165c565b60408051601f198184030181529190526020810180516001600160e01b03166001600160e01b0319909316929092179091526060610ab6826040518060400160405280602081526020017f5361666545524332303a206c6f772d6c6576656c2063616c6c206661696c6564815250856001600160a01b0316610af09092919063ffffffff16565b8051909150156109675780806020019051810190610ad49190610f99565b6109675760405162461bcd60e51b815260040161027f90611732565b6060610aff8484600085610b09565b90505b9392505050565b606082471015610b2b5760405162461bcd60e51b815260040161027f90611702565b610b3485610bca565b610b505760405162461bcd60e51b815260040161027f90611722565b60006060866001600160a01b03168587604051610b6d9190611627565b60006040518083038185875af1925050503d8060008114610baa576040519150601f19603f3d011682016040523d82523d6000602084013e610baf565b606091505b5091509150610bbf828286610bd4565b979650505050505050565b803b15155b919050565b60608315610be3575081610b02565b825115610bf35782518084602001fd5b8160405162461bcd60e51b815260040161027f91906116e1565b60405180610100016040528060006001600160a01b0316815260200160008152602001600081526020016000815260200160006001600160a01b0316815260200160608152602001600015158152602001606081525090565b8035610c718161187c565b92915050565b8051610c718161187c565b600082601f830112610c9357600080fd5b8151610ca6610ca182611798565b611771565b81815260209384019390925082018360005b83811015610ce45781518601610cce8882610df9565b8452506020928301929190910190600101610cb8565b5050505092915050565b600082601f830112610cff57600080fd5b8151610d0d610ca182611798565b81815260209384019390925082018360005b83811015610ce45781518601610d358882610e6c565b8452506020928301929190910190600101610d1f565b8051610c7181611890565b8035610c7181611899565b60008083601f840112610d7357600080fd5b50813567ffffffffffffffff811115610d8b57600080fd5b602083019150836001820283011115610da357600080fd5b9250929050565b600082601f830112610dbb57600080fd5b8151610dc9610ca1826117b9565b91508082526020830160208301858383011115610de557600080fd5b610df0838284611835565b50505092915050565b600060608284031215610e0b57600080fd5b610e156060611771565b90506000610e238484610c77565b8252506020610e3484848301610f07565b602083015250604082015167ffffffffffffffff811115610e5457600080fd5b610e6084828501610cee565b60408301525092915050565b600060a08284031215610e7e57600080fd5b610e8860a0611771565b90506000610e968484610c77565b8252506020610ea784848301610c77565b6020830152506040610ebb84828501610f07565b604083015250606082015167ffffffffffffffff811115610edb57600080fd5b610ee784828501610daa565b6060830152506080610efb84828501610f07565b60808301525092915050565b8051610c71816118a2565b600080600080600060608688031215610f2a57600080fd5b6000610f368888610c66565b955050602086013567ffffffffffffffff811115610f5357600080fd5b610f5f88828901610d61565b9450945050604086013567ffffffffffffffff811115610f7e57600080fd5b610f8a88828901610d61565b92509250509295509295909350565b600060208284031215610fab57600080fd5b6000610fb78484610d4b565b949350505050565b600080600060408486031215610fd457600080fd5b6000610fe08686610d56565b935050602084013567ffffffffffffffff811115610ffd57600080fd5b61100986828701610d61565b92509250509250925092565b60006020828403121561102757600080fd5b6000610fb78484610f07565b600080600080600060a0868803121561104b57600080fd5b60006110578888610f07565b955050602061106888828901610f07565b945050604061107988828901610c77565b935050606061108a88828901610f07565b925050608086015167ffffffffffffffff8111156110a757600080fd5b6110b388828901610c82565b9150509295509295909350565b60006110cc83836110f8565b505060200190565b6000610b0283836114c1565b6000610b028383611509565b60006110cc838361161e565b611101816117f4565b82525050565b6000611112826117e7565b61111c81856117eb565b9350611127836117e1565b8060005b8381101561115557815161113f88826110c0565b975061114a836117e1565b92505060010161112b565b509495945050505050565b600061116b826117e7565b61117581856117eb565b935083602082028501611187856117e1565b8060005b858110156111c157848403895281516111a485826110d4565b94506111af836117e1565b60209a909a019992505060010161118b565b5091979650505050505050565b60006111d9826117e7565b6111e381856117eb565b9350836020820285016111f5856117e1565b8060005b858110156111c1578484038952815161121285826110e0565b945061121d836117e1565b60209a909a01999250506001016111f9565b600061123a826117e7565b61124481856117eb565b935061124f836117e1565b8060005b8381101561115557815161126788826110ec565b9750611272836117e1565b925050600101611253565b611101816117ff565b61110181611804565b600061129a826117e7565b6112a481856117eb565b93506112b4818560208601611835565b6112bd81611865565b9093019392505050565b60006112d2826117e7565b6112dc8185610bcf565b93506112ec818560208601611835565b9290920192915050565b6111018161182a565b600061130c6027836117eb565b7f7061727365417373657473466f724d6574686f643a205f73656c6563746f72208152661a5b9d985b1a5960ca1b602082015260400192915050565b60006113556026836117eb565b7f416464726573733a20696e73756666696369656e742062616c616e636520666f8152651c8818d85b1b60d21b602082015260400192915050565b600061139d6032836117eb565b7f4f6e6c792074686520496e746567726174696f6e4d616e616765722063616e2081527131b0b636103a3434b990333ab731ba34b7b760711b602082015260400192915050565b60006113f1601d836117eb565b7f416464726573733a2063616c6c20746f206e6f6e2d636f6e7472616374000000815260200192915050565b600061142a602a836117eb565b7f5361666545524332303a204552433230206f7065726174696f6e20646964206e8152691bdd081cdd58d8d9595960b21b602082015260400192915050565b60006114766036836117eb565b7f5361666545524332303a20617070726f76652066726f6d206e6f6e2d7a65726f81527520746f206e6f6e2d7a65726f20616c6c6f77616e636560501b602082015260400192915050565b805160009060608401906114d585826110f8565b5060208301516114e8602086018261161e565b506040830151848203604086015261150082826111ce565b95945050505050565b805160009060a084019061151d85826110f8565b50602083015161153060208601826110f8565b506040830151611543604086018261161e565b506060830151848203606086015261155b828261128f565b9150506080830151611570608086018261161e565b509392505050565b805160009061010084019061158d85826110f8565b5060208301516115a0602086018261161e565b5060408301516115b3604086018261161e565b5060608301516115c6606086018261161e565b5060808301516115d960808601826110f8565b5060a083015184820360a08601526115f1828261128f565b91505060c083015161160660c086018261127d565b5060e083015184820360e08601526115008282611160565b61110181611827565b6000610b0282846112c7565b60208101610c7182846110f8565b6040810161164f82856110f8565b610b0260208301846110f8565b6040810161166a82856110f8565b610b02602083018461161e565b60208101610c718284611286565b60a0810161169382886112f6565b81810360208301526116a58187611107565b905081810360408301526116b9818661122f565b905081810360608301526116cd8185611107565b90508181036080830152610bbf818461122f565b60208082528101610b02818461128f565b60208082528101610c71816112ff565b60208082528101610c7181611348565b60208082528101610c7181611390565b60208082528101610c71816113e4565b60208082528101610c718161141d565b60208082528101610c7181611469565b60208082528101610b028184611578565b60208101610c71828461161e565b60405181810167ffffffffffffffff8111828210171561179057600080fd5b604052919050565b600067ffffffffffffffff8211156117af57600080fd5b5060209081020190565b600067ffffffffffffffff8211156117d057600080fd5b506020601f91909101601f19160190565b60200190565b5190565b90815260200190565b6000610c718261181b565b151590565b6001600160e01b03191690565b80610bcf8161186f565b6001600160a01b031690565b90565b6000610c7182611811565b60005b83811015611850578181015183820152602001611838565b8381111561185f576000848401525b50505050565b601f01601f191690565b6004811061187957fe5b50565b611885816117f4565b811461187957600080fd5b611885816117ff565b61188581611804565b6118858161182756fea264697066735822122050e6f3f86c100c79ec8b19df60a8c2baf02ba9811ea9f54c4d83e5c46ea0d4ea64736f6c634300060c0033",
  "devdoc": {
    "author": "Enzyme Council <security@enzyme.finance>",
    "details": "Does not allow any protocol that collects protocol fees in ETH, e.g., 0x v3",
    "kind": "dev",
    "methods": {
      "getIntegrationManager()": {
        "returns": {
          "integrationManager_": "The `INTEGRATION_MANAGER` variable value"
        }
      },
      "getParaSwapV4AugustusSwapper()": {
        "returns": {
          "augustusSwapper_": "The `PARA_SWAP_V4_AUGUSTUS_SWAPPER` variable value"
        }
      },
      "getParaSwapV4TokenTransferProxy()": {
        "returns": {
          "tokenTransferProxy_": "The `PARA_SWAP_V4_TOKEN_TRANSFER_PROXY` variable value"
        }
      },
      "identifier()": {
        "returns": {
          "identifier_": "An identifier string"
        }
      },
      "parseAssetsForMethod(bytes4,bytes)": {
        "params": {
          "_encodedCallArgs": "The encoded parameters for the callOnIntegration",
          "_selector": "The function selector for the callOnIntegration"
        },
        "returns": {
          "incomingAssets_": "The assets to receive in the call",
          "minIncomingAssetAmounts_": "The min asset amounts to receive in the call",
          "spendAssetAmounts_": "The max asset amounts to spend in the call",
          "spendAssetsHandleType_": "A type that dictates how to handle granting the adapter access to spend assets (`None` by default)",
          "spendAssets_": "The assets to spend in the call"
        }
      },
      "takeOrder(address,bytes,bytes)": {
        "details": "ParaSwap v4 completely uses entire outgoing asset balance and incoming asset is sent directly to the beneficiary (the _vaultProxy)",
        "params": {
          "_encodedCallArgs": "Encoded order parameters",
          "_vaultProxy": "The VaultProxy of the calling fund"
        }
      }
    },
    "title": "ParaSwapV4Adapter Contract",
    "version": 1
  },
  "userdoc": {
    "kind": "user",
    "methods": {
      "getIntegrationManager()": {
        "notice": "Gets the `INTEGRATION_MANAGER` variable"
      },
      "getParaSwapV4AugustusSwapper()": {
        "notice": "Gets the `PARA_SWAP_V4_AUGUSTUS_SWAPPER` variable"
      },
      "getParaSwapV4TokenTransferProxy()": {
        "notice": "Gets the `PARA_SWAP_V4_TOKEN_TRANSFER_PROXY` variable"
      },
      "identifier()": {
        "notice": "Provides a constant string identifier for an adapter"
      },
      "parseAssetsForMethod(bytes4,bytes)": {
        "notice": "Parses the expected assets to receive from a call on integration"
      },
      "takeOrder(address,bytes,bytes)": {
        "notice": "Trades assets on ParaSwap"
      }
    },
    "notice": "Adapter for interacting with ParaSwap (v4)",
    "version": 1
  },
  "storageLayout": {
    "storage": [],
    "types": null
  }
}