{
  "address": "0xB71028Dd29491C7544e379cCEcCae81351B64251",
  "abi": [
    {
      "inputs": [
        {
          "internalType": "address",
          "name": "_feeManager",
          "type": "address"
        },
        {
          "internalType": "address",
          "name": "_fundDeployer",
          "type": "address"
        },
        {
          "internalType": "address",
          "name": "_stakingDao",
          "type": "address"
        }
      ],
      "stateMutability": "nonpayable",
      "type": "constructor"
    },
    {
      "anonymous": false,
      "inputs": [
        {
          "indexed": true,
          "internalType": "address",
          "name": "payer",
          "type": "address"
        }
      ],
      "name": "PayerWhitelistAdded",
      "type": "event"
    },
    {
      "anonymous": false,
      "inputs": [
        {
          "indexed": true,
          "internalType": "address",
          "name": "payer",
          "type": "address"
        }
      ],
      "name": "PayerWhitelistRemoved",
      "type": "event"
    },
    {
      "anonymous": false,
      "inputs": [
        {
          "indexed": true,
          "internalType": "address",
          "name": "comptrollerProxy",
          "type": "address"
        },
        {
          "indexed": true,
          "internalType": "address",
          "name": "payer",
          "type": "address"
        },
        {
          "indexed": false,
          "internalType": "uint256",
          "name": "sharesQuantity",
          "type": "uint256"
        }
      ],
      "name": "Settled",
      "type": "event"
    },
    {
      "anonymous": false,
      "inputs": [
        {
          "indexed": true,
          "internalType": "address",
          "name": "newStakingDao",
          "type": "address"
        }
      ],
      "name": "StakingDaoUpdated",
      "type": "event"
    },
    {
      "inputs": [
        {
          "internalType": "address",
          "name": "",
          "type": "address"
        },
        {
          "internalType": "address",
          "name": "",
          "type": "address"
        }
      ],
      "name": "activateForFund",
      "outputs": [],
      "stateMutability": "nonpayable",
      "type": "function"
    },
    {
      "inputs": [
        {
          "internalType": "address",
          "name": "_comptrollerProxy",
          "type": "address"
        },
        {
          "internalType": "bytes",
          "name": "_settingsData",
          "type": "bytes"
        }
      ],
      "name": "addFundSettings",
      "outputs": [],
      "stateMutability": "nonpayable",
      "type": "function"
    },
    {
      "inputs": [
        {
          "internalType": "address",
          "name": "_payer",
          "type": "address"
        }
      ],
      "name": "addPayerWhitelist",
      "outputs": [],
      "stateMutability": "nonpayable",
      "type": "function"
    },
    {
      "inputs": [],
      "name": "getFeeActivationTimestamp",
      "outputs": [
        {
          "internalType": "uint256",
          "name": "",
          "type": "uint256"
        }
      ],
      "stateMutability": "view",
      "type": "function"
    },
    {
      "inputs": [],
      "name": "getFeeManager",
      "outputs": [
        {
          "internalType": "address",
          "name": "feeManager_",
          "type": "address"
        }
      ],
      "stateMutability": "view",
      "type": "function"
    },
    {
      "inputs": [],
      "name": "getFundDeployer",
      "outputs": [
        {
          "internalType": "address",
          "name": "fundDeployer_",
          "type": "address"
        }
      ],
      "stateMutability": "view",
      "type": "function"
    },
    {
      "inputs": [],
      "name": "getOwner",
      "outputs": [
        {
          "internalType": "address",
          "name": "owner_",
          "type": "address"
        }
      ],
      "stateMutability": "view",
      "type": "function"
    },
    {
      "inputs": [],
      "name": "getStakingDao",
      "outputs": [
        {
          "internalType": "address",
          "name": "",
          "type": "address"
        }
      ],
      "stateMutability": "view",
      "type": "function"
    },
    {
      "inputs": [],
      "name": "identifier",
      "outputs": [
        {
          "internalType": "string",
          "name": "identifier_",
          "type": "string"
        }
      ],
      "stateMutability": "pure",
      "type": "function"
    },
    {
      "inputs": [],
      "name": "implementedHooks",
      "outputs": [
        {
          "internalType": "enum IFeeManager.FeeHook[]",
          "name": "implementedHooksForSettle_",
          "type": "uint8[]"
        },
        {
          "internalType": "enum IFeeManager.FeeHook[]",
          "name": "implementedHooksForUpdate_",
          "type": "uint8[]"
        },
        {
          "internalType": "bool",
          "name": "usesGavOnSettle_",
          "type": "bool"
        },
        {
          "internalType": "bool",
          "name": "usesGavOnUpdate_",
          "type": "bool"
        }
      ],
      "stateMutability": "view",
      "type": "function"
    },
    {
      "inputs": [
        {
          "internalType": "address",
          "name": "_payer",
          "type": "address"
        }
      ],
      "name": "isPayerWhitelisted",
      "outputs": [
        {
          "internalType": "bool",
          "name": "",
          "type": "bool"
        }
      ],
      "stateMutability": "view",
      "type": "function"
    },
    {
      "inputs": [
        {
          "internalType": "address",
          "name": "",
          "type": "address"
        },
        {
          "internalType": "address",
          "name": "",
          "type": "address"
        }
      ],
      "name": "payout",
      "outputs": [
        {
          "internalType": "bool",
          "name": "",
          "type": "bool"
        }
      ],
      "stateMutability": "nonpayable",
      "type": "function"
    },
    {
      "inputs": [
        {
          "internalType": "address",
          "name": "_payer",
          "type": "address"
        }
      ],
      "name": "removePayerWhitelist",
      "outputs": [],
      "stateMutability": "nonpayable",
      "type": "function"
    },
    {
      "inputs": [
        {
          "internalType": "address",
          "name": "_comptrollerProxy",
          "type": "address"
        },
        {
          "internalType": "address",
          "name": "_vaultProxy",
          "type": "address"
        },
        {
          "internalType": "enum IFeeManager.FeeHook",
          "name": "",
          "type": "uint8"
        },
        {
          "internalType": "bytes",
          "name": "_settlementData",
          "type": "bytes"
        },
        {
          "internalType": "uint256",
          "name": "",
          "type": "uint256"
        }
      ],
      "name": "settle",
      "outputs": [
        {
          "internalType": "enum IFeeManager.SettlementType",
          "name": "settlementType_",
          "type": "uint8"
        },
        {
          "internalType": "address",
          "name": "payer_",
          "type": "address"
        },
        {
          "internalType": "uint256",
          "name": "sharesDue_",
          "type": "uint256"
        }
      ],
      "stateMutability": "nonpayable",
      "type": "function"
    },
    {
      "inputs": [
        {
          "internalType": "address",
          "name": "",
          "type": "address"
        },
        {
          "internalType": "address",
          "name": "",
          "type": "address"
        },
        {
          "internalType": "enum IFeeManager.FeeHook",
          "name": "",
          "type": "uint8"
        },
        {
          "internalType": "bytes",
          "name": "",
          "type": "bytes"
        },
        {
          "internalType": "uint256",
          "name": "",
          "type": "uint256"
        }
      ],
      "name": "update",
      "outputs": [],
      "stateMutability": "nonpayable",
      "type": "function"
    },
    {
      "inputs": [
        {
          "internalType": "address",
          "name": "_newStaking",
          "type": "address"
        }
      ],
      "name": "updateStakingDao",
      "outputs": [
        {
          "internalType": "address",
          "name": "",
          "type": "address"
        }
      ],
      "stateMutability": "nonpayable",
      "type": "function"
    }
  ],
  "transactionHash": "0xb0024ce89b54a781f083b5a330e34202d5534d5a566acf0fde56657de23e3126",
  "args": [
    "0x0546043FFf4533A8EEA5279034e1bF6362ec20D1",
    "0x217912B16c8A00C2D9F2fDFCA94127ca37cFe948",
    "0xd1239ebe4C1da18C919EB4b1aE61C2905E8B3a98"
  ],
  "linkedData": {
    "FEE_buybackWhitelist": true
  },
  "solcInputHash": "34b1516e615d6cbcdbaf9542624efee9",
  "bytecode": "0x60e060405234801561001057600080fd5b50604051610eb7380380610eb78339818101604052606081101561003357600080fd5b5080516020820151604090920151606082811b6001600160601b03199081166080524260a08190529185901b1660c052600180546001600160a01b0319166001600160a01b039384161790559181169216610df76100c060003980610a1c5280610b56525080610b7a52508061059c5280610618528061094a5280610aaf5280610c1e5250610df76000f3fe608060405234801561001057600080fd5b50600436106101005760003560e01c80637998a1c4116100975780639a786662116100665780639a78666214610470578063b78b48131461048a578063cbf54bb2146104b8578063f2d638261461056b57610100565b80637998a1c4146103bd578063893d20e81461043a5780639714574c1461044257806397c0ac871461046857610100565b806341892d7e116100d357806341892d7e146102825780635e058d0f1461034d5780636a1ddbb11461038f5780636a29d94e1461039757610100565b80630b065be0146101055780630f5f6b4f1461013f578063233faf5f146101c15780633146d05814610254575b600080fd5b61012b6004803603602081101561011b57600080fd5b50356001600160a01b0316610573565b604080519115158252519081900360200190f35b6101bf6004803603604081101561015557600080fd5b6001600160a01b03823516919081019060408101602082013564010000000081111561018057600080fd5b82018360208201111561019257600080fd5b803590602001918460018302840111640100000000831117156101b457600080fd5b509092509050610591565b005b6101bf600480360360a08110156101d757600080fd5b6001600160a01b03823581169260208101359091169160ff604083013516919081019060808101606082013564010000000081111561021557600080fd5b82018360208201111561022757600080fd5b8035906020019184600183028401116401000000008311171561024957600080fd5b9193509150356105fd565b6101bf6004803603604081101561026a57600080fd5b506001600160a01b0381358116916020013516610605565b610315600480360360a081101561029857600080fd5b6001600160a01b03823581169260208101359091169160ff60408301351691908101906080810160608201356401000000008111156102d657600080fd5b8201836020820111156102e857600080fd5b8035906020019184600183028401116401000000008311171561030a57600080fd5b919350915035610609565b6040518084600681111561032557fe5b8152602001836001600160a01b03168152602001828152602001935050505060405180910390f35b6103736004803603602081101561036357600080fd5b50356001600160a01b031661088b565b604080516001600160a01b039092168252519081900360200190f35b610373610930565b6101bf600480360360208110156103ad57600080fd5b50356001600160a01b031661093f565b6103c56109f2565b6040805160208082528351818301528351919283929083019185019080838360005b838110156103ff5781810151838201526020016103e7565b50505050905090810190601f16801561042c5780820380516001836020036101000a031916815260200191505b509250505060405180910390f35b610373610a18565b6101bf6004803603602081101561045857600080fd5b50356001600160a01b0316610aa4565b610373610b54565b610478610b78565b60408051918252519081900360200190f35b61012b600480360360408110156104a057600080fd5b506001600160a01b0381358116916020013516610b9c565b6104c0610ba5565b60405180806020018060200185151581526020018415158152602001838103835287818151815260200191508051906020019060200280838360005b838110156105145781810151838201526020016104fc565b50505050905001838103825286818151815260200191508051906020019060200280838360005b8381101561055357818101518382015260200161053b565b50505050905001965050505050505060405180910390f35b610373610c1c565b6001600160a01b031660009081526020819052604090205460ff1690565b336001600160a01b037f000000000000000000000000000000000000000000000000000000000000000016146105f85760405162461bcd60e51b8152600401808060200182810382526025815260200180610d7c6025913960400191505060405180910390fd5b505050565b505050505050565b5050565b60008080336001600160a01b037f000000000000000000000000000000000000000000000000000000000000000016146106745760405162461bcd60e51b8152600401808060200182810382526025815260200180610d7c6025913960400191505060405180910390fd5b60006106b587878080601f016020809104026020016040519081016040528093929190818152602001838380828437600092019190915250610c4092505050565b60015491945091506001600160a01b031615806106ea57506001600160a01b03831660009081526020819052604090205460ff165b156107005760008060009350935093505061087f565b60015460408051630f1d03b960e11b81526001600160a01b038c81166004830152868116602483015291516000939290921691631e3a077291604480820192602092909190829003018186803b15801561075957600080fd5b505afa15801561076d573d6000803e3d6000fd5b505050506040513d602081101561078357600080fd5b50516001546040805163331d19a960e01b815290519293506000926001600160a01b039092169163331d19a991600480820192602092909190829003018186803b1580156107d057600080fd5b505afa1580156107e4573d6000803e3d6000fd5b505050506040513d60208110156107fa57600080fd5b505190506108128161080c8585610c6b565b90610ccb565b93508361082c57600080600095509550955050505061087f565b846001600160a01b03168c6001600160a01b03167f7e79a2206061184e05985ae0578dec52f817756a441996f984cdc817efc25a68866040518082815260200191505060405180910390a3600695505050505b96509650969350505050565b6000610895610a18565b6001600160a01b0316336001600160a01b0316146108e45760405162461bcd60e51b8152600401808060200182810382526049815260200180610d336049913960600191505060405180910390fd5b600180546001600160a01b0319166001600160a01b0384169081179091556040517f82367bd1654c1f34ba80f85c5d9d167e60d6d52bef209a9c4f06688ab5bc7d3590600090a2919050565b6001546001600160a01b031690565b336001600160a01b037f000000000000000000000000000000000000000000000000000000000000000016146109a65760405162461bcd60e51b8152600401808060200182810382526025815260200180610d7c6025913960400191505060405180910390fd5b6001600160a01b038116600081815260208190526040808220805460ff19166001179055517faa0e9100f973660a79dca7e4920e97aa3d552337b468b83ef5f54bc2f823530d9190a250565b60408051808201909152600c81526b50524f544f434f4c5f46454560a01b602082015290565b60007f00000000000000000000000000000000000000000000000000000000000000006001600160a01b031663893d20e86040518163ffffffff1660e01b815260040160206040518083038186803b158015610a7357600080fd5b505afa158015610a87573d6000803e3d6000fd5b505050506040513d6020811015610a9d57600080fd5b5051905090565b336001600160a01b037f00000000000000000000000000000000000000000000000000000000000000001614610b0b5760405162461bcd60e51b8152600401808060200182810382526025815260200180610d7c6025913960400191505060405180910390fd5b6001600160a01b038116600081815260208190526040808220805460ff19169055517fd51e82eaff33a5c5fb421b48653be389552281a56dda3ba08b32b1e5985511a09190a250565b7f000000000000000000000000000000000000000000000000000000000000000090565b7f000000000000000000000000000000000000000000000000000000000000000090565b60005b92915050565b604080516001808252818301909252606091829160009182919060208083019080368337019050509350600584600081518110610bde57fe5b60200260200101906005811115610bf157fe5b90816005811115610bfe57fe5b90525050604080516000808252602082019092529394909250829150565b7f000000000000000000000000000000000000000000000000000000000000000090565b600080828060200190516040811015610c5857600080fd5b5080516020909101519092509050915091565b600082610c7a57506000610b9f565b82820282848281610c8757fe5b0414610cc45760405162461bcd60e51b8152600401808060200182810382526021815260200180610da16021913960400191505060405180910390fd5b9392505050565b6000808211610d21576040805162461bcd60e51b815260206004820152601a60248201527f536166654d6174683a206469766973696f6e206279207a65726f000000000000604482015290519081900360640190fd5b818381610d2a57fe5b04939250505056fe6f6e6c7946756e644465706c6f7965724f776e65723a204f6e6c79207468652046756e644465706c6f796572206f776e65722063616e2063616c6c20746869732066756e6374696f6e4f6e6c7920746865204665654d616e6765722063616e206d616b6520746869732063616c6c536166654d6174683a206d756c7469706c69636174696f6e206f766572666c6f77a2646970667358221220f31d092eb91adf16a4b4628fe06e8b5d84fce4bd40fcb2ceedf7f4f283bcf83f64736f6c634300060c0033",
  "devdoc": {
    "kind": "dev",
    "methods": {
      "activateForFund(address,address)": {
        "details": "Unimplemented by default, may be overrode."
      },
      "getFeeManager()": {
        "returns": {
          "feeManager_": "The `FEE_MANAGER` variable value"
        }
      },
      "getFundDeployer()": {
        "returns": {
          "fundDeployer_": "The `FUND_DEPLOYER` variable value"
        }
      },
      "getOwner()": {
        "details": "Ownership is deferred to the owner of the FundDeployer contract",
        "returns": {
          "owner_": "The owner"
        }
      },
      "payout(address,address)": {
        "details": "Returns false by default, can be overridden by fee"
      },
      "update(address,address,uint8,bytes,uint256)": {
        "details": "Unimplemented by default, can be overridden by fee"
      }
    },
    "version": 1
  },
  "userdoc": {
    "kind": "user",
    "methods": {
      "activateForFund(address,address)": {
        "notice": "Allows Fee to run logic during fund activation"
      },
      "getFeeManager()": {
        "notice": "Gets the `FEE_MANAGER` variable"
      },
      "getFundDeployer()": {
        "notice": "Gets the `FUND_DEPLOYER` variable"
      },
      "getOwner()": {
        "notice": "Gets the owner of this contract"
      },
      "payout(address,address)": {
        "notice": "Runs payout logic for a fee that utilizes shares outstanding as its settlement type"
      },
      "update(address,address,uint8,bytes,uint256)": {
        "notice": "Update fee state after all settlement has occurred during a given fee hook"
      }
    },
    "version": 1
  },
  "storageLayout": {
    "storage": [
      {
        "astId": 18344,
        "contract": "contracts/release/extensions/fee-manager/fees/ProtocolFee.sol:ProtocolFee",
        "label": "payerWhitelist",
        "offset": 0,
        "slot": "0",
        "type": "t_mapping(t_address,t_bool)"
      },
      {
        "astId": 17832,
        "contract": "contracts/release/extensions/fee-manager/fees/ProtocolFee.sol:ProtocolFee",
        "label": "STAKING_DAO",
        "offset": 0,
        "slot": "1",
        "type": "t_address"
      }
    ],
    "types": {
      "t_address": {
        "encoding": "inplace",
        "label": "address",
        "numberOfBytes": "20"
      },
      "t_bool": {
        "encoding": "inplace",
        "label": "bool",
        "numberOfBytes": "1"
      },
      "t_mapping(t_address,t_bool)": {
        "encoding": "mapping",
        "key": "t_address",
        "label": "mapping(address => bool)",
        "numberOfBytes": "32",
        "value": "t_bool"
      }
    }
  }
}