{
  "address": "0xf8BF8BC5eC5FE432634Cc7Ca73BD8f3Ad0D43632",
  "abi": [
    {
      "inputs": [
        {
          "internalType": "address",
          "name": "",
          "type": "address"
        },
        {
          "internalType": "uint256",
          "name": "",
          "type": "uint256"
        }
      ],
      "name": "calcUnderlyingValues",
      "outputs": [
        {
          "internalType": "address[]",
          "name": "",
          "type": "address[]"
        },
        {
          "internalType": "uint256[]",
          "name": "",
          "type": "uint256[]"
        }
      ],
      "stateMutability": "nonpayable",
      "type": "function"
    },
    {
      "inputs": [],
      "name": "getDerivativePriceFeedDeployTimestamp",
      "outputs": [
        {
          "internalType": "uint256",
          "name": "",
          "type": "uint256"
        }
      ],
      "stateMutability": "view",
      "type": "function"
    },
    {
      "inputs": [
        {
          "internalType": "address",
          "name": "",
          "type": "address"
        }
      ],
      "name": "isSupportedAsset",
      "outputs": [
        {
          "internalType": "bool",
          "name": "isSupported_",
          "type": "bool"
        }
      ],
      "stateMutability": "view",
      "type": "function"
    }
  ],
  "transactionHash": "0x4b7f2fdd05923ba3e99742ed12974a04588146f56b2cced9f729ca7ad53187fe",
  "args": [],
  "solcInputHash": "34b1516e615d6cbcdbaf9542624efee9",
  "bytecode": "0x60a060405234801561001057600080fd5b504260805260805161022161002f600039806101a152506102216000f3fe608060405234801561001057600080fd5b50600436106100415760003560e01c8063727212f6146100465780639be918e61461010b578063ba4906b814610145575b600080fd5b6100726004803603604081101561005c57600080fd5b506001600160a01b03813516906020013561015f565b604051808060200180602001838103835285818151815260200191508051906020019060200280838360005b838110156100b657818101518382015260200161009e565b50505050905001838103825284818151815260200191508051906020019060200280838360005b838110156100f55781810151838201526020016100dd565b5050505090500194505050505060405180910390f35b6101316004803603602081101561012157600080fd5b50356001600160a01b0316610199565b604080519115158252519081900360200190f35b61014d61019f565b60408051918252519081900360200190f35b60608060405162461bcd60e51b81526004018080602001828103825260288152602001806101c46028913960400191505060405180910390fd5b50600190565b7f00000000000000000000000000000000000000000000000000000000000000009056fe63616c63556e6465726c79696e6756616c7565733a20526576657274696e67507269636546656564a264697066735822122060f9c72ba03415888ed14c88d9edb87c013b45d0bf55975fd89e21f552d904a464736f6c634300060c0033",
  "devdoc": {
    "author": "Enzyme Council <security@enzyme.finance>",
    "details": "Used purely for extraordinary circumstances where we want to prevent value calculations, while allowing an asset to continue to be in the asset universe",
    "kind": "dev",
    "methods": {
      "isSupportedAsset(address)": {
        "returns": {
          "isSupported_": "True if the asset is a supported primitive"
        }
      }
    },
    "title": "RevertingPriceFeed Contract",
    "version": 1
  },
  "userdoc": {
    "kind": "user",
    "methods": {
      "calcUnderlyingValues(address,uint256)": {
        "notice": "Converts a given amount of a derivative to its underlying asset values"
      },
      "isSupportedAsset(address)": {
        "notice": "Checks whether an asset is a supported primitive of the price feed"
      }
    },
    "notice": "Price feed that always reverts on value conversion",
    "version": 1
  },
  "storageLayout": {
    "storage": [],
    "types": null
  }
}