{
  "address": "0x0A887f7eD35383F3B7732962CC7eB7967647bf9F",
  "abi": [
    {
      "inputs": [
        {
          "internalType": "address",
          "name": "_fundDeployer",
          "type": "address"
        },
        {
          "internalType": "address",
          "name": "_addressResolver",
          "type": "address"
        },
        {
          "internalType": "address",
          "name": "_sUSD",
          "type": "address"
        },
        {
          "internalType": "address[]",
          "name": "_synths",
          "type": "address[]"
        }
      ],
      "stateMutability": "nonpayable",
      "type": "constructor"
    },
    {
      "anonymous": false,
      "inputs": [
        {
          "indexed": true,
          "internalType": "address",
          "name": "synth",
          "type": "address"
        },
        {
          "indexed": false,
          "internalType": "bytes32",
          "name": "currencyKey",
          "type": "bytes32"
        }
      ],
      "name": "SynthAdded",
      "type": "event"
    },
    {
      "anonymous": false,
      "inputs": [
        {
          "indexed": true,
          "internalType": "address",
          "name": "synth",
          "type": "address"
        },
        {
          "indexed": false,
          "internalType": "bytes32",
          "name": "prevCurrencyKey",
          "type": "bytes32"
        },
        {
          "indexed": false,
          "internalType": "bytes32",
          "name": "nextCurrencyKey",
          "type": "bytes32"
        }
      ],
      "name": "SynthCurrencyKeyUpdated",
      "type": "event"
    },
    {
      "inputs": [
        {
          "internalType": "address[]",
          "name": "_synths",
          "type": "address[]"
        }
      ],
      "name": "addSynths",
      "outputs": [],
      "stateMutability": "nonpayable",
      "type": "function"
    },
    {
      "inputs": [
        {
          "internalType": "address",
          "name": "_derivative",
          "type": "address"
        },
        {
          "internalType": "uint256",
          "name": "_derivativeAmount",
          "type": "uint256"
        }
      ],
      "name": "calcUnderlyingValues",
      "outputs": [
        {
          "internalType": "address[]",
          "name": "underlyings_",
          "type": "address[]"
        },
        {
          "internalType": "uint256[]",
          "name": "underlyingAmounts_",
          "type": "uint256[]"
        }
      ],
      "stateMutability": "nonpayable",
      "type": "function"
    },
    {
      "inputs": [],
      "name": "getAddressResolver",
      "outputs": [
        {
          "internalType": "address",
          "name": "",
          "type": "address"
        }
      ],
      "stateMutability": "view",
      "type": "function"
    },
    {
      "inputs": [
        {
          "internalType": "address",
          "name": "_synth",
          "type": "address"
        }
      ],
      "name": "getCurrencyKeyForSynth",
      "outputs": [
        {
          "internalType": "bytes32",
          "name": "currencyKey_",
          "type": "bytes32"
        }
      ],
      "stateMutability": "view",
      "type": "function"
    },
    {
      "inputs": [
        {
          "internalType": "address[]",
          "name": "_synths",
          "type": "address[]"
        }
      ],
      "name": "getCurrencyKeysForSynths",
      "outputs": [
        {
          "internalType": "bytes32[]",
          "name": "currencyKeys_",
          "type": "bytes32[]"
        }
      ],
      "stateMutability": "view",
      "type": "function"
    },
    {
      "inputs": [],
      "name": "getDerivativePriceFeedDeployTimestamp",
      "outputs": [
        {
          "internalType": "uint256",
          "name": "",
          "type": "uint256"
        }
      ],
      "stateMutability": "view",
      "type": "function"
    },
    {
      "inputs": [],
      "name": "getFundDeployer",
      "outputs": [
        {
          "internalType": "address",
          "name": "fundDeployer_",
          "type": "address"
        }
      ],
      "stateMutability": "view",
      "type": "function"
    },
    {
      "inputs": [],
      "name": "getOwner",
      "outputs": [
        {
          "internalType": "address",
          "name": "owner_",
          "type": "address"
        }
      ],
      "stateMutability": "view",
      "type": "function"
    },
    {
      "inputs": [],
      "name": "getSUSD",
      "outputs": [
        {
          "internalType": "address",
          "name": "susd_",
          "type": "address"
        }
      ],
      "stateMutability": "view",
      "type": "function"
    },
    {
      "inputs": [
        {
          "internalType": "address",
          "name": "_asset",
          "type": "address"
        }
      ],
      "name": "isSupportedAsset",
      "outputs": [
        {
          "internalType": "bool",
          "name": "isSupported_",
          "type": "bool"
        }
      ],
      "stateMutability": "view",
      "type": "function"
    },
    {
      "inputs": [
        {
          "internalType": "address[]",
          "name": "_synths",
          "type": "address[]"
        }
      ],
      "name": "updateSynthCurrencyKeys",
      "outputs": [],
      "stateMutability": "nonpayable",
      "type": "function"
    }
  ],
  "transactionHash": "0xb6df1d776d9115af613132d24df976194ba037b605434f9f1b33f27f74837f27",
  "args": [
    "0xe819b666c7Cccec2e51806862bBB58615dcd84fA",
    "0x4E3b31eB0E5CB73641EE1E65E7dCEFe520bA3ef2",
    "0x57ab1ec28d129707052df4df418d58a2d46d5f51",
    [
      "0x176c674ee533c6139b0dc8b458d72a93dcb3e705",
      "0x8a8079c7149b8a1611e5c5d978dca3be16545f83",
      "0xafd870f32ce54efdbf677466b612bf8ad164454b",
      "0xd6014ea05bde904448b743833ddf07c3c7837481",
      "0x336213e1ddfc69f4701fc3f86f4ef4a160c1159d",
      "0x6345728b1cce16e6f8c509950b5c84fff88530d9",
      "0xcb98f42221b2c251a4e74a1609722ee09f0cc08e",
      "0x14d10003807ac60d07bb0ba82caeac8d2087c157",
      "0x46a97629c9c1f58de6ec18c7f536e7e6d6a6ecde",
      "0xf4eebdd0704021ef2a6bbe993fdf93030cd784b4",
      "0xd50c1746d835d2770dda3703b69187bffeb14126",
      "0xa9859874e1743a32409f75bb11549892138bba1e",
      "0x2d7ac061fc3db53c39fe1607fb8cec1b2c162b01",
      "0x79da1431150c9b82d2e5dfc1c68b33216846851e",
      "0xa5a5df41883cdc00c4ccc6e8097130535399d9a3",
      "0x0fed38108bdb8e62ef7b5680e8e0726e2f29e0de",
      "0xc5807183a9661a533cb08cbc297594a0b864dc12",
      "0x36a00ff9072570ef4b9292117850b8fe08d96cce",
      "0x4adf728e2df4945082cdd6053869f51278fae196",
      "0x27269b3e45a4d3e79a3d6bfee0c8fb13d0d711a6",
      "0x8deef89058090ac5655a99eeb451a4f9183d1678",
      "0x592244301cea952d6dab2fdc1fe6bd9e53917306",
      "0xcd39b5434a0a92cf47d1f567a7df84be356814f0",
      "0x7537aae01f3b218dae75e10d952473823f961b87",
      "0xd2df355c19471c8bd7d8a3aa27ff4e26a21b4076",
      "0xe36e2d3c7c34281fa3bc737950a68571736880a1",
      "0x9cf7e61853ea30a41b02169391b393b901eac457",
      "0xf48e200eaf9906362bb1442fca31e0835773b8b4",
      "0x36a2422a863d5b950882190ff5433e513413343a",
      "0x617aecb6137b5108d1e7d4918e3725c8cebdb848",
      "0xfe18be6b3bd88a2d2a7f928d00292e7a9963cfc6",
      "0xeabacd844a196d7faf3ce596edebf9900341b420",
      "0x0f83287ff768d1c1e17a42f44d644d7f22e8ee1d",
      "0xeb029507d3e043dd6c87f2917c4e82b902c35618",
      "0xd38aeb759891882e78e957c80656572503d8c1b1",
      "0xfe33ae95a9f0da8a845af33516edc240dcd711d6",
      "0xe1afe1fd76fd88f78cbf599ea1846231b8ba3b6b",
      "0x1715ac0743102bf5cd58efbb6cf2dc2685d967b6",
      "0x88c8cf3a212c0369698d13fe98fcb76620389841",
      "0x22602469d704bffb0936c7a7cfcd18f7aa269375",
      "0x5e74c9036fb86bd7ecdcb084a0673efc32ea31cb",
      "0xd71ecff9342a5ced620049e616c5035f1db98620",
      "0xf50b5e535f62a56a9bd2d8e2434204e726c027fa",
      "0x23348160d7f5aca21195df2b70f28fce2b0be9fc",
      "0x97fe22e7341a0cd8db6f6c021a24dc8f4dad855f",
      "0xc63b8ecce56ab9c46184ec6ab85e4771fea4c8ad",
      "0xf6b1c627e95bfc3c1b4c9b825a032ff0fbf3e07d",
      "0xbbc455cb4f1b9e4bfc4b73970d360c8f032efee6",
      "0xc14103c2141e842e228fbac594579e798616ce7a",
      "0x5a7e3c07604eb515c16b36cd51906a65f021f609",
      "0x757de3ac6b830a931ef178c6634c5c551773155c",
      "0x6d16cf3ec5f763d4d99cb0b0b110eefd93b11b56",
      "0xd31533e8d0f3df62060e94b3f1318137bb6e3525",
      "0x0352557b007a4aae1511c114409b932f06f9e2f4",
      "0xf2e08356588ec5cd9e437552da87c0076b4970b0",
      "0x918da91ccbc32b7a6a0cc4ecd5987bbab6e31e6d",
      "0x30635297e450b930f8693297eba160d9e6c8ebcf",
      "0x6a22e5e94388464181578aa7a6b869e00fe27846",
      "0x261efcdd24cea98652b9700800a13dfbca4103ff",
      "0x5299d6f7472dcc137d7f3c4bcfbbb514babf341a",
      "0xa2b0fde6d710e201d0d608e924a484d1a5fed57c",
      "0x2e59005c5c0f0a4d77cca82653d48b46322ee5cd",
      "0x992058b7db08f9734d84485bfbc243c4ee6954a7"
    ]
  ],
  "solcInputHash": "34b1516e615d6cbcdbaf9542624efee9",
  "bytecode": "0x6101006040523480156200001257600080fd5b506040516200147e3803806200147e833981810160405260808110156200003857600080fd5b8151602083015160408085015160608601805192519496939591949391820192846401000000008211156200006c57600080fd5b9083019060208201858111156200008257600080fd5b8251866020820283011164010000000082111715620000a057600080fd5b82525081516020918201928201910280838360005b83811015620000cf578181015183820152602001620000b5565b5050505060608a811b6001600160601b03199081166080524260a0528a821b811660c05289821b1660e05260019190930181815260408082019052929550919350909150506020808301908036833701905050905082816000815181106200013357fe5b6001600160a01b039092166020928302919091019091015262000156816200016c565b62000161826200016c565b505050505062000406565b60005b815181101562000321576000808383815181106200018957fe5b60200260200101516001600160a01b03166001600160a01b03168152602001908152602001600020546000801b1462000209576040805162461bcd60e51b815260206004820152601e60248201527f5f5f61646453796e7468733a2056616c756520616c7265616479207365740000604482015290519081900360640190fd5b6000620002308383815181106200021c57fe5b60200260200101516200032560201b60201c565b90508062000285576040805162461bcd60e51b815260206004820152601b60248201527f5f5f61646453796e7468733a204e6f2063757272656e63794b65790000000000604482015290519081900360640190fd5b806000808585815181106200029657fe5b60200260200101516001600160a01b03166001600160a01b0316815260200190815260200160002081905550828281518110620002cf57fe5b60200260200101516001600160a01b03167f61209fb9d54461f939ea62c8e068ffba9ade97587787c035e7e09d44ebab2cb8826040518082815260200191505060405180910390a2506001016200016f565b5050565b6000816001600160a01b031663d4b839926040518163ffffffff1660e01b815260040160206040518083038186803b1580156200036157600080fd5b505afa15801562000376573d6000803e3d6000fd5b505050506040513d60208110156200038d57600080fd5b50516040805163dbd06c8560e01b815290516001600160a01b039092169163dbd06c8591600480820192602092909190829003018186803b158015620003d257600080fd5b505afa158015620003e7573d6000803e3d6000fd5b505050506040513d6020811015620003fe57600080fd5b505192915050565b60805160601c60a05160c05160601c60e05160601c61102a62000454600039806104ff52806108225250806104b652806105ae525080610b0f5250806108485280610ad8525061102a6000f3fe608060405234801561001057600080fd5b50600436106100a95760003560e01c8063893d20e811610071578063893d20e8146102d15780638bc3981c146102d95780638d8c19851461034957806397c0ac87146103815780639be918e614610389578063ba4906b8146103c3576100a9565b806347a9b6db146100ae57806371c1c54914610120578063727212f6146101445780637827f4f61461020957806386eab215146102c9575b600080fd5b61011e600480360360208110156100c457600080fd5b8101906020810181356401000000008111156100df57600080fd5b8201836020820111156100f157600080fd5b8035906020019184602083028401116401000000008311171561011357600080fd5b5090925090506103cb565b005b6101286104b4565b604080516001600160a01b039092168252519081900360200190f35b6101706004803603604081101561015a57600080fd5b506001600160a01b0381351690602001356104d8565b604051808060200180602001838103835285818151815260200191508051906020019060200280838360005b838110156101b457818101518382015260200161019c565b50505050905001838103825284818151815260200191508051906020019060200280838360005b838110156101f35781810151838201526020016101db565b5050505090500194505050505060405180910390f35b6102796004803603602081101561021f57600080fd5b81019060208101813564010000000081111561023a57600080fd5b82018360208201111561024c57600080fd5b8035906020019184602083028401116401000000008311171561026e57600080fd5b509092509050610768565b60408051602080825283518183015283519192839290830191858101910280838360005b838110156102b557818101518382015260200161029d565b505050509050019250505060405180910390f35b610128610820565b610128610844565b61011e600480360360208110156102ef57600080fd5b81019060208101813564010000000081111561030a57600080fd5b82018360208201111561031c57600080fd5b8035906020019184602083028401116401000000008311171561033e57600080fd5b5090925090506108d0565b61036f6004803603602081101561035f57600080fd5b50356001600160a01b0316610abb565b60408051918252519081900360200190f35b610128610ad6565b6103af6004803603602081101561039f57600080fd5b50356001600160a01b0316610afa565b604080519115158252519081900360200190f35b61036f610b0d565b6103d3610844565b6001600160a01b0316336001600160a01b0316146104225760405162461bcd60e51b8152600401808060200182810382526049815260200180610efc6049913960600191505060405180910390fd5b80610474576040805162461bcd60e51b815260206004820152601860248201527f61646453796e7468733a20456d707479205f73796e7468730000000000000000604482015290519081900360640190fd5b6104b0828280806020026020016040519081016040528093929190818152602001838360200280828437600092019190915250610b3192505050565b5050565b7f000000000000000000000000000000000000000000000000000000000000000090565b604080516001808252818301909252606091829190602080830190803683370190505091507f00000000000000000000000000000000000000000000000000000000000000008260008151811061052b57fe5b6001600160a01b0392909216602092830291909101820152604080516001808252818301909252918281019080368337019050509050600061056c85610abb565b9050806105aa5760405162461bcd60e51b8152600401808060200182810382526032815260200180610e9f6032913960400191505060405180910390fd5b60007f00000000000000000000000000000000000000000000000000000000000000006001600160a01b031663dacb2d016040518163ffffffff1660e01b815260040180806c45786368616e6765526174657360981b815250602001806020018281038252602b815260200180610ed1602b913960400191505060206040518083038186803b15801561063c57600080fd5b505afa158015610650573d6000803e3d6000fd5b505050506040513d602081101561066657600080fd5b505160408051630c71cd2360e01b815260048101859052815192935060009283926001600160a01b03861692630c71cd239260248083019392829003018186803b1580156106b357600080fd5b505afa1580156106c7573d6000803e3d6000fd5b505050506040513d60408110156106dd57600080fd5b508051602090910151909250905080156107285760405162461bcd60e51b8152600401808060200182810382526033815260200180610f9c6033913960400191505060405180910390fd5b610744670de0b6b3a764000061073e8985610cd6565b90610d36565b8560008151811061075157fe5b602002602001018181525050505050509250929050565b60608167ffffffffffffffff8111801561078157600080fd5b506040519080825280602002602001820160405280156107ab578160200160208202803683370190505b50905060005b82811015610818576000808585848181106107c857fe5b905060200201356001600160a01b03166001600160a01b03166001600160a01b031681526020019081526020016000205482828151811061080557fe5b60209081029190910101526001016107b1565b505b92915050565b7f000000000000000000000000000000000000000000000000000000000000000090565b60007f00000000000000000000000000000000000000000000000000000000000000006001600160a01b031663893d20e86040518163ffffffff1660e01b815260040160206040518083038186803b15801561089f57600080fd5b505afa1580156108b3573d6000803e3d6000fd5b505050506040513d60208110156108c957600080fd5b5051905090565b8061090c5760405162461bcd60e51b8152600401808060200182810382526026815260200180610e796026913960400191505060405180910390fd5b60005b81811015610ab657600080600085858581811061092857fe5b905060200201356001600160a01b03166001600160a01b03166001600160a01b03168152602001908152602001600020549050806000801b141561099d5760405162461bcd60e51b8152600401808060200182810382526026815260200180610fcf6026913960400191505060405180910390fd5b60006109c38585858181106109ae57fe5b905060200201356001600160a01b0316610d9d565b905081811415610a045760405162461bcd60e51b8152600401808060200182810382526036815260200180610f456036913960400191505060405180910390fd5b80600080878787818110610a1457fe5b905060200201356001600160a01b03166001600160a01b03166001600160a01b0316815260200190815260200160002081905550848484818110610a5457fe5b905060200201356001600160a01b03166001600160a01b03167f55ae8b6fd923a02180a807d2eb1ef5bd50db0347ca1be7ab7f5f1680cb8301978383604051808381526020018281526020019250505060405180910390a2505060010161090f565b505050565b6001600160a01b031660009081526020819052604090205490565b7f000000000000000000000000000000000000000000000000000000000000000090565b6000610b0582610abb565b151592915050565b7f000000000000000000000000000000000000000000000000000000000000000090565b60005b81518110156104b057600080838381518110610b4c57fe5b60200260200101516001600160a01b03166001600160a01b03168152602001908152602001600020546000801b14610bcb576040805162461bcd60e51b815260206004820152601e60248201527f5f5f61646453796e7468733a2056616c756520616c7265616479207365740000604482015290519081900360640190fd5b6000610be9838381518110610bdc57fe5b6020026020010151610d9d565b905080610c3d576040805162461bcd60e51b815260206004820152601b60248201527f5f5f61646453796e7468733a204e6f2063757272656e63794b65790000000000604482015290519081900360640190fd5b80600080858581518110610c4d57fe5b60200260200101516001600160a01b03166001600160a01b0316815260200190815260200160002081905550828281518110610c8557fe5b60200260200101516001600160a01b03167f61209fb9d54461f939ea62c8e068ffba9ade97587787c035e7e09d44ebab2cb8826040518082815260200191505060405180910390a250600101610b34565b600082610ce55750600061081a565b82820282848281610cf257fe5b0414610d2f5760405162461bcd60e51b8152600401808060200182810382526021815260200180610f7b6021913960400191505060405180910390fd5b9392505050565b6000808211610d8c576040805162461bcd60e51b815260206004820152601a60248201527f536166654d6174683a206469766973696f6e206279207a65726f000000000000604482015290519081900360640190fd5b818381610d9557fe5b049392505050565b6000816001600160a01b031663d4b839926040518163ffffffff1660e01b815260040160206040518083038186803b158015610dd857600080fd5b505afa158015610dec573d6000803e3d6000fd5b505050506040513d6020811015610e0257600080fd5b50516040805163dbd06c8560e01b815290516001600160a01b039092169163dbd06c8591600480820192602092909190829003018186803b158015610e4657600080fd5b505afa158015610e5a573d6000803e3d6000fd5b505050506040513d6020811015610e7057600080fd5b50519291505056fe75706461746553796e746843757272656e63794b6579733a20456d707479205f73796e74687363616c63556e6465726c79696e6756616c7565733a205f64657269766174697665206973206e6f7420737570706f7274656463616c63556e6465726c79696e6756616c7565733a204d697373696e672045786368616e676552617465736f6e6c7946756e644465706c6f7965724f776e65723a204f6e6c79207468652046756e644465706c6f796572206f776e65722063616e2063616c6c20746869732066756e6374696f6e75706461746553796e746843757272656e63794b6579733a2053796e74682068617320636f72726563742063757272656e63794b6579536166654d6174683a206d756c7469706c69636174696f6e206f766572666c6f7763616c63556e6465726c79696e6756616c7565733a205f646572697661746976652072617465206973206e6f742076616c696475706461746553796e746843757272656e63794b6579733a2053796e7468206e6f7420736574a26469706673582212206b21117338cbc9e3256689b0418d96d825de108d86364fe7a49d79b4ed60d48564736f6c634300060c0033",
  "devdoc": {
    "author": "Enzyme Council <security@enzyme.finance>",
    "kind": "dev",
    "methods": {
      "addSynths(address[])": {
        "params": {
          "_synths": "Synths to add"
        }
      },
      "calcUnderlyingValues(address,uint256)": {
        "params": {
          "_derivative": "The derivative to convert",
          "_derivativeAmount": "The amount of the derivative to convert"
        },
        "returns": {
          "underlyingAmounts_": "The amount of each underlying asset for the equivalent derivative amount",
          "underlyings_": "The underlying assets for the _derivative"
        }
      },
      "getAddressResolver()": {
        "returns": {
          "_0": "addressResolver_ The `ADDRESS_RESOLVER` variable value"
        }
      },
      "getCurrencyKeyForSynth(address)": {
        "returns": {
          "currencyKey_": "The currencyKey value"
        }
      },
      "getCurrencyKeysForSynths(address[])": {
        "returns": {
          "currencyKeys_": "The currencyKey values"
        }
      },
      "getFundDeployer()": {
        "returns": {
          "fundDeployer_": "The `FUND_DEPLOYER` variable value"
        }
      },
      "getOwner()": {
        "details": "Ownership is deferred to the owner of the FundDeployer contract",
        "returns": {
          "owner_": "The owner"
        }
      },
      "getSUSD()": {
        "returns": {
          "susd_": "The `SUSD` variable value"
        }
      },
      "isSupportedAsset(address)": {
        "params": {
          "_asset": "The asset to check"
        },
        "returns": {
          "isSupported_": "True if the asset is a supported primitive"
        }
      },
      "updateSynthCurrencyKeys(address[])": {
        "details": "Anybody can call this function",
        "params": {
          "_synths": "Synths to update"
        }
      }
    },
    "title": "SynthetixPriceFeed Contract",
    "version": 1
  },
  "userdoc": {
    "kind": "user",
    "methods": {
      "addSynths(address[])": {
        "notice": "Adds Synths to the price feed"
      },
      "calcUnderlyingValues(address,uint256)": {
        "notice": "Converts a given amount of a derivative to its underlying asset values"
      },
      "getAddressResolver()": {
        "notice": "Gets the `ADDRESS_RESOLVER` variable"
      },
      "getCurrencyKeyForSynth(address)": {
        "notice": "Gets the currencyKey for a given Synth"
      },
      "getCurrencyKeysForSynths(address[])": {
        "notice": "Gets the currencyKey for multiple given Synths"
      },
      "getFundDeployer()": {
        "notice": "Gets the `FUND_DEPLOYER` variable"
      },
      "getOwner()": {
        "notice": "Gets the owner of this contract"
      },
      "getSUSD()": {
        "notice": "Gets the `SUSD` variable"
      },
      "isSupportedAsset(address)": {
        "notice": "Checks whether an asset is a supported primitive of the price feed"
      },
      "updateSynthCurrencyKeys(address[])": {
        "notice": "Updates the cached currencyKey value for specified Synths"
      }
    },
    "notice": "A price feed that uses Synthetix oracles as price sources",
    "version": 1
  },
  "storageLayout": {
    "storage": [
      {
        "astId": 41711,
        "contract": "contracts/release/infrastructure/price-feeds/derivatives/feeds/SynthetixPriceFeed.sol:SynthetixPriceFeed",
        "label": "synthToCurrencyKey",
        "offset": 0,
        "slot": "0",
        "type": "t_mapping(t_address,t_bytes32)"
      }
    ],
    "types": {
      "t_address": {
        "encoding": "inplace",
        "label": "address",
        "numberOfBytes": "20"
      },
      "t_bytes32": {
        "encoding": "inplace",
        "label": "bytes32",
        "numberOfBytes": "32"
      },
      "t_mapping(t_address,t_bytes32)": {
        "encoding": "mapping",
        "key": "t_address",
        "label": "mapping(address => bytes32)",
        "numberOfBytes": "32",
        "value": "t_bytes32"
      }
    }
  }
}