{
  "address": "0xC26b3601315af9f3DBc7939127BfAea7b37efE8D",
  "abi": [
    {
      "inputs": [
        {
          "internalType": "address",
          "name": "_fundDeployer",
          "type": "address"
        },
        {
          "internalType": "address",
          "name": "_derivativePriceFeed",
          "type": "address"
        },
        {
          "internalType": "address",
          "name": "_primitivePriceFeed",
          "type": "address"
        },
        {
          "internalType": "address",
          "name": "_valueInterpreter",
          "type": "address"
        },
        {
          "internalType": "address",
          "name": "_factory",
          "type": "address"
        },
        {
          "internalType": "address[]",
          "name": "_poolTokens",
          "type": "address[]"
        }
      ],
      "stateMutability": "nonpayable",
      "type": "constructor"
    },
    {
      "anonymous": false,
      "inputs": [
        {
          "indexed": true,
          "internalType": "address",
          "name": "poolToken",
          "type": "address"
        },
        {
          "indexed": false,
          "internalType": "address",
          "name": "token0",
          "type": "address"
        },
        {
          "indexed": false,
          "internalType": "address",
          "name": "token1",
          "type": "address"
        }
      ],
      "name": "PoolTokenAdded",
      "type": "event"
    },
    {
      "inputs": [
        {
          "internalType": "address[]",
          "name": "_poolTokens",
          "type": "address[]"
        }
      ],
      "name": "addPoolTokens",
      "outputs": [],
      "stateMutability": "nonpayable",
      "type": "function"
    },
    {
      "inputs": [
        {
          "internalType": "address",
          "name": "_derivative",
          "type": "address"
        },
        {
          "internalType": "uint256",
          "name": "_derivativeAmount",
          "type": "uint256"
        }
      ],
      "name": "calcUnderlyingValues",
      "outputs": [
        {
          "internalType": "address[]",
          "name": "underlyings_",
          "type": "address[]"
        },
        {
          "internalType": "uint256[]",
          "name": "underlyingAmounts_",
          "type": "uint256[]"
        }
      ],
      "stateMutability": "nonpayable",
      "type": "function"
    },
    {
      "inputs": [],
      "name": "getDerivativePriceFeed",
      "outputs": [
        {
          "internalType": "address",
          "name": "derivativePriceFeed_",
          "type": "address"
        }
      ],
      "stateMutability": "view",
      "type": "function"
    },
    {
      "inputs": [],
      "name": "getDerivativePriceFeedDeployTimestamp",
      "outputs": [
        {
          "internalType": "uint256",
          "name": "",
          "type": "uint256"
        }
      ],
      "stateMutability": "view",
      "type": "function"
    },
    {
      "inputs": [],
      "name": "getFactory",
      "outputs": [
        {
          "internalType": "address",
          "name": "factory_",
          "type": "address"
        }
      ],
      "stateMutability": "view",
      "type": "function"
    },
    {
      "inputs": [],
      "name": "getFundDeployer",
      "outputs": [
        {
          "internalType": "address",
          "name": "fundDeployer_",
          "type": "address"
        }
      ],
      "stateMutability": "view",
      "type": "function"
    },
    {
      "inputs": [],
      "name": "getOwner",
      "outputs": [
        {
          "internalType": "address",
          "name": "owner_",
          "type": "address"
        }
      ],
      "stateMutability": "view",
      "type": "function"
    },
    {
      "inputs": [
        {
          "internalType": "address",
          "name": "_poolToken",
          "type": "address"
        }
      ],
      "name": "getPoolTokenInfo",
      "outputs": [
        {
          "components": [
            {
              "internalType": "address",
              "name": "token0",
              "type": "address"
            },
            {
              "internalType": "address",
              "name": "token1",
              "type": "address"
            },
            {
              "internalType": "uint8",
              "name": "token0Decimals",
              "type": "uint8"
            },
            {
              "internalType": "uint8",
              "name": "token1Decimals",
              "type": "uint8"
            }
          ],
          "internalType": "struct UniswapV2PoolPriceFeed.PoolTokenInfo",
          "name": "poolTokenInfo_",
          "type": "tuple"
        }
      ],
      "stateMutability": "view",
      "type": "function"
    },
    {
      "inputs": [
        {
          "internalType": "address",
          "name": "_poolToken",
          "type": "address"
        }
      ],
      "name": "getPoolTokenUnderlyings",
      "outputs": [
        {
          "internalType": "address",
          "name": "token0_",
          "type": "address"
        },
        {
          "internalType": "address",
          "name": "token1_",
          "type": "address"
        }
      ],
      "stateMutability": "view",
      "type": "function"
    },
    {
      "inputs": [],
      "name": "getPrimitivePriceFeed",
      "outputs": [
        {
          "internalType": "address",
          "name": "primitivePriceFeed_",
          "type": "address"
        }
      ],
      "stateMutability": "view",
      "type": "function"
    },
    {
      "inputs": [],
      "name": "getValueInterpreter",
      "outputs": [
        {
          "internalType": "address",
          "name": "valueInterpreter_",
          "type": "address"
        }
      ],
      "stateMutability": "view",
      "type": "function"
    },
    {
      "inputs": [
        {
          "internalType": "address",
          "name": "_asset",
          "type": "address"
        }
      ],
      "name": "isSupportedAsset",
      "outputs": [
        {
          "internalType": "bool",
          "name": "isSupported_",
          "type": "bool"
        }
      ],
      "stateMutability": "view",
      "type": "function"
    }
  ],
  "transactionHash": "0xd6bbb88f75b4764a03b88836b6997643ab0990f1182cae7e6c7d1975dbaacbcf",
  "args": [
    "0x217912B16c8A00C2D9F2fDFCA94127ca37cFe948",
    "0x5642D3380320aC106816b921c998758D61a224f2",
    "0x05993fB3AF1E99b09Fe0352982b38FBAC4f5CC1D",
    "0xA0B9298aAe86f4BFdcB07cc6dCac40049bb8dFb0",
    "0x5C69bEe701ef814a2B6a3EDD4B1652CB9cc5aA6f",
    [
      "0x26aad2da94c59524ac0d93f6d6cbf9071d7086f2",
      "0xdfc14d2af169b0d36c4eff567ada9b2e0cae044f",
      "0xd3772a963790fede65646cfdae08734a17cd0f47",
      "0x9def9511fec79f83afcbffe4776b1d817dc775ae",
      "0xa70d458a4d9bc0e6571565faee18a48da5c0d593",
      "0xf421c3f2e695c2d4c0765379ccace8ade4a480d9",
      "0xb6909b960dbbe7392d405429eb2b3649752b4838",
      "0x3fd4cf9303c4bc9e13772618828712c8eac7dd2f",
      "0x524847c615639e76fe7d0fe0b16be8c4eac9cf3c",
      "0xa0abda1f980e03d7eadb78aed8fc1f2dd0fe83dd",
      "0xb9b752f7f4a4680eeb327ffe728f46666763a796",
      "0xcffdded873554f362ac02f8fb1f02e5ada10516f",
      "0x90704ac59e7e54632b0cc9d22573aecd7eb094ad",
      "0xae461ca67b15dc8dc81ce7615e0320da1a9ab8d5",
      "0xb20bd5d04be54f870d5c0d3ca85d82b34b836405",
      "0xa478c2975ab1ea89e8196811f51a7b7ade33eb11",
      "0x1273ad5d8f3596a7a39efdb5a4b8f82e8f003fc3",
      "0xa2107fa5b38d9bbd2c461d6edf11b11a50f6b974",
      "0x8878df9e1a7c87dcbf6d3999d997f262c05d8c70",
      "0x11b1f53204d03e5529f09eb3091939e4fd8c9cf3",
      "0xc2adda861f89bbb333c90c492cb837741916a225",
      "0xb784ced6994c928170b417bbd052a096c6fb17e2",
      "0xce2cc0513634cef3a7c9c257e294ef5e3092f185",
      "0x6c8b0dee9e90ea9f790da5daf6f5b20d23b39689",
      "0x9b533f1ceaa5ceb7e5b8994ef16499e47a66312d",
      "0x8bd1661da98ebdd3bd080f0be4e6d9be8ce9858c",
      "0x8979a3ef9d540480342ac0f56e9d4c88807b1cba",
      "0x6d57a53a45343187905aad6ad8ed532d105697c1",
      "0x43ae24960e5534731fc831386c07755a2dc33d47",
      "0xf80758ab42c3b07da84053fd88804bcb6baa4b5c",
      "0xce84867c3c02b05dc570d0135103d3fb9cc19433",
      "0xac317d14738a454ff20b191ba3504aa97173045b",
      "0x88d97d199b9ed37c29d846d00d443de980832a22",
      "0xd3d2e2692501a5c9ca623199d38826e513033a17",
      "0x3041cbd36888becc7bbcbc0045e3b1f144466f5f",
      "0xb4e16d0168e52d35cacd2c6185b44281ec28c9dc",
      "0x004375dff511095cc5a197a54140a24efef3a416",
      "0xbb2b8038a1640196fbe3e38816f3e67cba72d940",
      "0x3da1313ae46132a397d90d95b1424a9a7e3e0fce",
      "0xe56c60b5f9f7b5fc70de0eb79c6ee7d00efa2625",
      "0xf49c43ae0faf37217bdcb00df478cf793edd6687",
      "0x15ab0333985fd1e289adf4fbbe19261454776642",
      "0x448a0a42f55142971bb3ea45e64528d3e4114f9e",
      "0x0d4a11d5eeaac28ec3f61d100daf4d40471f1852",
      "0xc6f348dd3b91a56d117ec0071c1e9b83c0996de4",
      "0x23bff8ca20aac06efdf23cee3b8ae296a30dfd27",
      "0x2fdbadf3c4d5a8666bc06645b8358ab803996e28"
    ]
  ],
  "solcInputHash": "34b1516e615d6cbcdbaf9542624efee9",
  "bytecode": "0x6101406040523480156200001257600080fd5b50604051620028db380380620028db833981016040819052620000359162000862565b6001600160601b0319606087811b82166080524260a05286811b821660c05283811b821660e05285811b82166101005284901b16610120526200007a81868662000086565b50505050505062000b3e565b60005b8351811015620004a65760006001600160a01b0316848281518110620000ab57fe5b60200260200101516001600160a01b03161415620000e65760405162461bcd60e51b8152600401620000dd9062000a75565b60405180910390fd5b60006001600160a01b03166000808684815181106200010157fe5b6020908102919091018101516001600160a01b03908116835290820192909252604001600020541614620001495760405162461bcd60e51b8152600401620000dd9062000a63565b60008482815181106200015857fe5b602002602001015190506000816001600160a01b0316630dfe16816040518163ffffffff1660e01b815260040160206040518083038186803b1580156200019e57600080fd5b505afa158015620001b3573d6000803e3d6000fd5b505050506040513d601f19601f82011682018060405250810190620001d9919062000841565b90506000826001600160a01b031663d21220a76040518163ffffffff1660e01b815260040160206040518083038186803b1580156200021757600080fd5b505afa1580156200022c573d6000803e3d6000fd5b505050506040513d601f19601f8201168201806040525081019062000252919062000841565b90506200026286868484620004ac565b620002815760405162461bcd60e51b8152600401620000dd9062000a87565b6040518060800160405280836001600160a01b03168152602001826001600160a01b03168152602001836001600160a01b031663313ce5676040518163ffffffff1660e01b815260040160206040518083038186803b158015620002e457600080fd5b505afa158015620002f9573d6000803e3d6000fd5b505050506040513d601f19601f820116820180604052508101906200031f91906200092f565b60ff168152602001826001600160a01b031663313ce5676040518163ffffffff1660e01b815260040160206040518083038186803b1580156200036157600080fd5b505afa15801562000376573d6000803e3d6000fd5b505050506040513d601f19601f820116820180604052508101906200039c91906200092f565b60ff16815250600080898781518110620003b257fe5b6020908102919091018101516001600160a01b039081168352828201939093526040918201600020845181546001600160a01b03199081169186169190911782559185015160019091018054938601516060909601519390921693169290921760ff60a01b1916600160a01b60ff948516021760ff60a81b1916600160a81b939091169290920291909117905586518790859081106200044e57fe5b60200260200101516001600160a01b03167f2d64d749034284f79591001c60e51eeab7a396decc5296df21e417306e9d92bf83836040516200049292919062000a3d565b60405180910390a250505060010162000089565b50505050565b604051634df48c7360e11b8152600090859085906001600160a01b03821690639be918e690620004e190889060040162000a2d565b60206040518083038186803b158015620004fa57600080fd5b505afa1580156200050f573d6000803e3d6000fd5b505050506040513d601f19601f820116820180604052508101906200053591906200090e565b156200065e57604051634df48c7360e11b81526001600160a01b03821690639be918e6906200056990879060040162000a2d565b60206040518083038186803b1580156200058257600080fd5b505afa15801562000597573d6000803e3d6000fd5b505050506040513d601f19601f82011682018060405250810190620005bd91906200090e565b80620006465750604051634df48c7360e11b81526001600160a01b03831690639be918e690620005f290879060040162000a2d565b60206040518083038186803b1580156200060b57600080fd5b505afa15801562000620573d6000803e3d6000fd5b505050506040513d601f19601f820116820180604052508101906200064691906200090e565b15620006585760019250505062000783565b6200077c565b604051634df48c7360e11b81526001600160a01b03831690639be918e6906200068c90889060040162000a2d565b60206040518083038186803b158015620006a557600080fd5b505afa158015620006ba573d6000803e3d6000fd5b505050506040513d601f19601f82011682018060405250810190620006e091906200090e565b80156200076a5750604051634df48c7360e11b81526001600160a01b03821690639be918e6906200071690879060040162000a2d565b60206040518083038186803b1580156200072f57600080fd5b505afa15801562000744573d6000803e3d6000fd5b505050506040513d601f19601f820116820180604052508101906200076a91906200090e565b156200077c5760019250505062000783565b6000925050505b949350505050565b8051620007988162000b0e565b92915050565b600082601f830112620007b057600080fd5b8151620007c7620007c18262000ac0565b62000a99565b91508181835260208401935060208101905083856020840282011115620007ed57600080fd5b60005b838110156200081d57816200080688826200078b565b8452506020928301929190910190600101620007f0565b5050505092915050565b8051620007988162000b28565b8051620007988162000b33565b6000602082840312156200085457600080fd5b60006200078384846200078b565b60008060008060008060c087890312156200087c57600080fd5b60006200088a89896200078b565b96505060206200089d89828a016200078b565b9550506040620008b089828a016200078b565b9450506060620008c389828a016200078b565b9350506080620008d689828a016200078b565b92505060a08701516001600160401b03811115620008f357600080fd5b6200090189828a016200079e565b9150509295509295509295565b6000602082840312156200092157600080fd5b600062000783848462000827565b6000602082840312156200094257600080fd5b600062000783848462000834565b6200095b8162000aea565b82525050565b60006200097060228362000ae1565b7f5f5f616464506f6f6c546f6b656e733a2056616c756520616c72656164792073815261195d60f21b602082015260400192915050565b6000620009b660208362000ae1565b7f5f5f616464506f6f6c546f6b656e733a20456d70747920706f6f6c546f6b656e815260200192915050565b6000620009f160278362000ae1565b7f5f5f616464506f6f6c546f6b656e733a20556e737570706f7274656420706f6f81526636103a37b5b2b760c91b602082015260400192915050565b6020810162000798828462000950565b6040810162000a4d828562000950565b62000a5c602083018462000950565b9392505050565b60208082528101620007988162000961565b602080825281016200079881620009a7565b602080825281016200079881620009e2565b6040518181016001600160401b038111828210171562000ab857600080fd5b604052919050565b60006001600160401b0382111562000ad757600080fd5b5060209081020190565b90815260200190565b6000620007988262000afc565b151590565b6001600160a01b031690565b60ff1690565b62000b198162000aea565b811462000b2557600080fd5b50565b62000b198162000af7565b62000b198162000b08565b60805160601c60a05160c05160601c60e05160601c6101005160601c6101205160601c611d2162000bba6000398061053e5280610b415280610bf35250806102af52806102dd5280610a8452508061047d52806105625250806101d7528061028c525080610662525080610588528061061e5250611d216000f3fe608060405234801561001057600080fd5b50600436106100b45760003560e01c8063875fb4b311610071578063875fb4b31461015657806388cc58e41461015e578063893d20e81461016657806397c0ac871461016e5780639be918e614610176578063ba4906b814610196576100b4565b806301b453e5146100b95780632d98a99b146100e357806332db4ed5146100f857806349be72f31461010d57806367e0e07614610115578063727212f614610135575b600080fd5b6100cc6100c73660046115b9565b6101ab565b6040516100da929190611b28565b60405180910390f35b6100eb6101d5565b6040516100da9190611b1a565b61010b61010636600461162f565b6101f9565b005b6100eb6102db565b6101286101233660046115b9565b6102ff565b6040516100da9190611c3e565b6101486101433660046115f5565b610367565b6040516100da929190611b6b565b6100eb61053c565b6100eb610560565b6100eb610584565b6100eb61061c565b6101896101843660046115b9565b610640565b6040516100da9190611b90565b61019e610660565b6040516100da9190611c4c565b6001600160a01b039081166000908152602081905260409020805460019091015490821692911690565b7f000000000000000000000000000000000000000000000000000000000000000090565b610201610584565b6001600160a01b0316336001600160a01b03161461023a5760405162461bcd60e51b815260040161023190611bae565b60405180910390fd5b806102575760405162461bcd60e51b815260040161023190611c0e565b6102d78282808060200260200160405190810160405280939291908181526020018383602002808284376000920191909152507f000000000000000000000000000000000000000000000000000000000000000092507f000000000000000000000000000000000000000000000000000000000000000091506106849050565b5050565b7f000000000000000000000000000000000000000000000000000000000000000090565b6103076114f8565b506001600160a01b038082166000908152602081815260409182902082516080810184528154851681526001909101549384169181019190915260ff600160a01b8404811692820192909252600160a81b9092041660608201525b919050565b6060806103726114f8565b506001600160a01b038481166000908152602081815260409182902082516080810184528154851681526001909101549384168183015260ff600160a01b8504811682850152600160a81b909404909316606080850191909152825160028082529181018452929091830190803683370190505092508060000151836000815181106103fa57fe5b60200260200101906001600160a01b031690816001600160a01b03168152505080602001518360018151811061042c57fe5b60200260200101906001600160a01b031690816001600160a01b03168152505060008061047183600001518460200151856040015160ff16866060015160ff16610a7d565b915091506000806104a47f00000000000000000000000000000000000000000000000000000000000000008a8686610cab565b604080516002808252606082019092529294509092508160200160208202803683370190505095506104e8670de0b6b3a76400006104e28a85610cdb565b90610d1e565b866000815181106104f557fe5b6020908102919091010152610516670de0b6b3a76400006104e28a84610cdb565b8660018151811061052357fe5b60200260200101818152505050505050505b9250929050565b7f000000000000000000000000000000000000000000000000000000000000000090565b7f000000000000000000000000000000000000000000000000000000000000000090565b60007f00000000000000000000000000000000000000000000000000000000000000006001600160a01b031663893d20e86040518163ffffffff1660e01b815260040160206040518083038186803b1580156105df57600080fd5b505afa1580156105f3573d6000803e3d6000fd5b505050506040513d601f19601f8201168201806040525081019061061791906115d7565b905090565b7f000000000000000000000000000000000000000000000000000000000000000090565b6001600160a01b0390811660009081526020819052604090205416151590565b7f000000000000000000000000000000000000000000000000000000000000000090565b60005b8351811015610a775760006001600160a01b03168482815181106106a757fe5b60200260200101516001600160a01b031614156106d65760405162461bcd60e51b815260040161023190611c1e565b60006001600160a01b03166000808684815181106106f057fe5b6020908102919091018101516001600160a01b039081168352908201929092526040016000205416146107355760405162461bcd60e51b815260040161023190611b9e565b600084828151811061074357fe5b602002602001015190506000816001600160a01b0316630dfe16816040518163ffffffff1660e01b815260040160206040518083038186803b15801561078857600080fd5b505afa15801561079c573d6000803e3d6000fd5b505050506040513d601f19601f820116820180604052508101906107c091906115d7565b90506000826001600160a01b031663d21220a76040518163ffffffff1660e01b815260040160206040518083038186803b1580156107fd57600080fd5b505afa158015610811573d6000803e3d6000fd5b505050506040513d601f19601f8201168201806040525081019061083591906115d7565b905061084386868484610d50565b61085f5760405162461bcd60e51b815260040161023190611c2e565b6040518060800160405280836001600160a01b03168152602001826001600160a01b03168152602001836001600160a01b031663313ce5676040518163ffffffff1660e01b815260040160206040518083038186803b1580156108c157600080fd5b505afa1580156108d5573d6000803e3d6000fd5b505050506040513d601f19601f820116820180604052508101906108f9919061172a565b60ff168152602001826001600160a01b031663313ce5676040518163ffffffff1660e01b815260040160206040518083038186803b15801561093a57600080fd5b505afa15801561094e573d6000803e3d6000fd5b505050506040513d601f19601f82011682018060405250810190610972919061172a565b60ff1681525060008089878151811061098757fe5b6020908102919091018101516001600160a01b039081168352828201939093526040918201600020845181546001600160a01b03199081169186169190911782559185015160019091018054938601516060909601519390921693169290921760ff60a01b1916600160a01b60ff948516021760ff60a81b1916600160a81b93909116929092029190911790558651879085908110610a2257fe5b60200260200101516001600160a01b03167f2d64d749034284f79591001c60e51eeab7a396decc5296df21e417306e9d92bf8383604051610a64929190611b28565b60405180910390a2505050600101610687565b50505050565b60008060007f00000000000000000000000000000000000000000000000000000000000000006001600160a01b0316639be918e6886040518263ffffffff1660e01b8152600401610ace9190611b1a565b60206040518083038186803b158015610ae657600080fd5b505afa158015610afa573d6000803e3d6000fd5b505050506040513d601f19601f82011682018060405250810190610b1e9190611671565b15610bd557604051632633f08360e11b8152600a85900a92506001600160a01b037f00000000000000000000000000000000000000000000000000000000000000001690634c67e10690610b7a90899086908c90600401611b43565b6040805180830381600087803b158015610b9357600080fd5b505af1158015610ba7573d6000803e3d6000fd5b505050506040513d601f19601f82011682018060405250810190610bcb91906116fa565b9093509050610c83565b604051632633f08360e11b8152600a86900a93506001600160a01b037f00000000000000000000000000000000000000000000000000000000000000001690634c67e10690610c2c908a9087908b90600401611b43565b6040805180830381600087803b158015610c4557600080fd5b505af1158015610c59573d6000803e3d6000fd5b505050506040513d601f19601f82011682018060405250810190610c7d91906116fa565b90925090505b80610ca05760405162461bcd60e51b815260040161023190611bfe565b505b94509492505050565b600080600080610cbc878787611009565b91509150610ccc88888484611118565b93509350505094509492505050565b600082610cea57506000610d18565b82820282848281610cf757fe5b0414610d155760405162461bcd60e51b815260040161023190611bee565b90505b92915050565b6000808211610d3f5760405162461bcd60e51b815260040161023190611bde565b818381610d4857fe5b049392505050565b604051634df48c7360e11b8152600090859085906001600160a01b03821690639be918e690610d83908890600401611b1a565b60206040518083038186803b158015610d9b57600080fd5b505afa158015610daf573d6000803e3d6000fd5b505050506040513d601f19601f82011682018060405250810190610dd39190611671565b15610eeb57604051634df48c7360e11b81526001600160a01b03821690639be918e690610e04908790600401611b1a565b60206040518083038186803b158015610e1c57600080fd5b505afa158015610e30573d6000803e3d6000fd5b505050506040513d601f19601f82011682018060405250810190610e549190611671565b80610ed65750604051634df48c7360e11b81526001600160a01b03831690639be918e690610e86908790600401611b1a565b60206040518083038186803b158015610e9e57600080fd5b505afa158015610eb2573d6000803e3d6000fd5b505050506040513d601f19601f82011682018060405250810190610ed69190611671565b15610ee657600192505050611001565b610ffa565b604051634df48c7360e11b81526001600160a01b03831690639be918e690610f17908890600401611b1a565b60206040518083038186803b158015610f2f57600080fd5b505afa158015610f43573d6000803e3d6000fd5b505050506040513d601f19601f82011682018060405250810190610f679190611671565b8015610fea5750604051634df48c7360e11b81526001600160a01b03821690639be918e690610f9a908790600401611b1a565b60206040518083038186803b158015610fb257600080fd5b505afa158015610fc6573d6000803e3d6000fd5b505050506040513d601f19601f82011682018060405250810190610fea9190611671565b15610ffa57600192505050611001565b6000925050505b949350505050565b600080846001600160a01b0316630902f1ac6040518163ffffffff1660e01b815260040160606040518083038186803b15801561104557600080fd5b505afa158015611059573d6000803e3d6000fd5b505050506040513d601f19601f8201168201806040525081019061107d919061168f565b506001600160701b03918216935016905060008061109d86868686611345565b9150915080600014156110b1575050611110565b81156110e45760006110c4828686611410565b90506110d0858361145a565b94506110dc848261147f565b93505061110d565b60006110f1828587611410565b90506110fd848361145a565b9350611109858261147f565b9450505b50505b935093915050565b60008060008590506000816001600160a01b03166318160ddd6040518163ffffffff1660e01b815260040160206040518083038186803b15801561115b57600080fd5b505afa15801561116f573d6000803e3d6000fd5b505050506040513d601f19601f8201168201806040525081019061119391906116dc565b905060006001600160a01b0316886001600160a01b031663017e7e586040518163ffffffff1660e01b815260040160206040518083038186803b1580156111d957600080fd5b505afa1580156111ed573d6000803e3d6000fd5b505050506040513d601f19601f8201168201806040525081019061121191906115d7565b6001600160a01b031614611319576000826001600160a01b0316637464fc3d6040518163ffffffff1660e01b815260040160206040518083038186803b15801561125a57600080fd5b505afa15801561126e573d6000803e3d6000fd5b505050506040513d601f19601f8201168201806040525081019061129291906116dc565b905080156113175760006112ae6112a98989610cdb565b6114a7565b905060006112bb836114a7565b9050808211156113145760006112db6112d4848461147f565b8690610cdb565b905060006112f4836112ee866005610cdb565b9061145a565b905060006113028383610d1e565b905061130e878261145a565b96505050505b50505b505b61132f816104e288670de0b6b3a7640000610cdb565b610ccc826104e288670de0b6b3a7640000610cdb565b60008085611357846104e28789610cdb565b10915060008083156113a85761138d6112a9611375896103e5610cdb565b6104e26103e86113878d818d8d610cdb565b90610cdb565b91506113a16103e56104e2886103e8610cdb565b90506113e3565b6113cc6112a96113ba8a6103e5610cdb565b6104e26103e86113878c818d8d610cdb565b91506113e06103e56104e2876103e8610cdb565b90505b808210156113f957600080935093505050610ca2565b611403828261147f565b9250505094509492505050565b60008061141f856103e5610cdb565b9050600061142d8285610cdb565b90506000611441836112ee886103e8610cdb565b905061144d8282610d1e565b93505050505b9392505050565b600082820183811015610d155760405162461bcd60e51b815260040161023190611bbe565b6000828211156114a15760405162461bcd60e51b815260040161023190611bce565b50900390565b600060038211156114ea575080600160028204015b818110156114e4578091506002818285816114d357fe5b0401816114dc57fe5b0490506114bc565b50610362565b811561036257506001919050565b60408051608081018252600080825260208201819052918101829052606081019190915290565b8035610d1881611ca7565b8051610d1881611ca7565b60008083601f84011261154757600080fd5b50813567ffffffffffffffff81111561155f57600080fd5b60208301915083602082028301111561053557600080fd5b8051610d1881611cbe565b8051610d1881611cc7565b8035610d1881611cd0565b8051610d1881611cd0565b8051610d1881611cd9565b8051610d1881611ce2565b6000602082840312156115cb57600080fd5b6000611001848461151f565b6000602082840312156115e957600080fd5b6000611001848461152a565b6000806040838503121561160857600080fd5b6000611614858561151f565b92505060206116258582860161158d565b9150509250929050565b6000806020838503121561164257600080fd5b823567ffffffffffffffff81111561165957600080fd5b61166585828601611535565b92509250509250929050565b60006020828403121561168357600080fd5b60006110018484611577565b6000806000606084860312156116a457600080fd5b60006116b08686611582565b93505060206116c186828701611582565b92505060406116d2868287016115a3565b9150509250925092565b6000602082840312156116ee57600080fd5b60006110018484611598565b6000806040838503121561170d57600080fd5b60006117198585611598565b925050602061162585828601611577565b60006020828403121561173c57600080fd5b600061100184846115ae565b60006117548383611768565b505060200190565b60006117548383611b08565b61177181611c6d565b82525050565b600061178282611c60565b61178c8185611c64565b935061179783611c5a565b8060005b838110156117c55781516117af8882611748565b97506117ba83611c5a565b92505060010161179b565b509495945050505050565b60006117db82611c60565b6117e58185611c64565b93506117f083611c5a565b8060005b838110156117c5578151611808888261175c565b975061181383611c5a565b9250506001016117f4565b61177181611c78565b6000611834602283611c64565b7f5f5f616464506f6f6c546f6b656e733a2056616c756520616c72656164792073815261195d60f21b602082015260400192915050565b6000611878604983611c64565b7f6f6e6c7946756e644465706c6f7965724f776e65723a204f6e6c79207468652081527f46756e644465706c6f796572206f776e65722063616e2063616c6c207468697360208201526810333ab731ba34b7b760b91b604082015260600192915050565b60006118e9601b83611c64565b7f536166654d6174683a206164646974696f6e206f766572666c6f770000000000815260200192915050565b6000611922601e83611c64565b7f536166654d6174683a207375627472616374696f6e206f766572666c6f770000815260200192915050565b600061195b601a83611c64565b7f536166654d6174683a206469766973696f6e206279207a65726f000000000000815260200192915050565b6000611994602183611c64565b7f536166654d6174683a206d756c7469706c69636174696f6e206f766572666c6f8152607760f81b602082015260400192915050565b60006119d7601f83611c64565b7f5f5f63616c6354727573746564526174653a20496e76616c6964207261746500815260200192915050565b6000611a10602083611c64565b7f616464506f6f6c546f6b656e733a20456d707479205f706f6f6c546f6b656e73815260200192915050565b6000611a49602083611c64565b7f5f5f616464506f6f6c546f6b656e733a20456d70747920706f6f6c546f6b656e815260200192915050565b6000611a82602783611c64565b7f5f5f616464506f6f6c546f6b656e733a20556e737570706f7274656420706f6f81526636103a37b5b2b760c91b602082015260400192915050565b80516080830190611acf8482611768565b506020820151611ae26020850182611768565b506040820151611af56040850182611b11565b506060820151610a776060850182611b11565b61177181611c95565b61177181611ca1565b60208101610d188284611768565b60408101611b368285611768565b6114536020830184611768565b60608101611b518286611768565b611b5e6020830185611b08565b6110016040830184611768565b60408082528101611b7c8185611777565b9050818103602083015261100181846117d0565b60208101610d18828461181e565b60208082528101610d1881611827565b60208082528101610d188161186b565b60208082528101610d18816118dc565b60208082528101610d1881611915565b60208082528101610d188161194e565b60208082528101610d1881611987565b60208082528101610d18816119ca565b60208082528101610d1881611a03565b60208082528101610d1881611a3c565b60208082528101610d1881611a75565b60808101610d188284611abe565b60208101610d188284611b08565b60200190565b5190565b90815260200190565b6000610d1882611c89565b151590565b6001600160701b031690565b6001600160a01b031690565b90565b63ffffffff1690565b60ff1690565b611cb081611c6d565b8114611cbb57600080fd5b50565b611cb081611c78565b611cb081611c7d565b611cb081611c95565b611cb081611c98565b611cb081611ca156fea264697066735822122043ed7550827c32cddc52f73b43895c568e2a4c1ab1bb41fecfeae933e5b348b764736f6c634300060c0033",
  "devdoc": {
    "author": "Enzyme Council <security@enzyme.finance>",
    "kind": "dev",
    "methods": {
      "addPoolTokens(address[])": {
        "params": {
          "_poolTokens": "Uniswap pool tokens to add"
        }
      },
      "calcUnderlyingValues(address,uint256)": {
        "params": {
          "_derivative": "The derivative to convert",
          "_derivativeAmount": "The amount of the derivative to convert"
        },
        "returns": {
          "underlyingAmounts_": "The amount of each underlying asset for the equivalent derivative amount",
          "underlyings_": "The underlying assets for the _derivative"
        }
      },
      "getDerivativePriceFeed()": {
        "returns": {
          "derivativePriceFeed_": "The `DERIVATIVE_PRICE_FEED` variable value"
        }
      },
      "getFactory()": {
        "returns": {
          "factory_": "The `FACTORY` variable value"
        }
      },
      "getFundDeployer()": {
        "returns": {
          "fundDeployer_": "The `FUND_DEPLOYER` variable value"
        }
      },
      "getOwner()": {
        "details": "Ownership is deferred to the owner of the FundDeployer contract",
        "returns": {
          "owner_": "The owner"
        }
      },
      "getPoolTokenInfo(address)": {
        "params": {
          "_poolToken": "The pool token for which to get the `PoolTokenInfo`"
        },
        "returns": {
          "poolTokenInfo_": "The `PoolTokenInfo` value"
        }
      },
      "getPoolTokenUnderlyings(address)": {
        "params": {
          "_poolToken": "The pool token for which to get its underlyings"
        },
        "returns": {
          "token0_": "The UniswapV2Pair.token0 value",
          "token1_": "The UniswapV2Pair.token1 value"
        }
      },
      "getPrimitivePriceFeed()": {
        "returns": {
          "primitivePriceFeed_": "The `PRIMITIVE_PRICE_FEED` variable value"
        }
      },
      "getValueInterpreter()": {
        "returns": {
          "valueInterpreter_": "The `VALUE_INTERPRETER` variable value"
        }
      },
      "isSupportedAsset(address)": {
        "params": {
          "_asset": "The asset to check"
        },
        "returns": {
          "isSupported_": "True if the asset is supported"
        }
      }
    },
    "title": "UniswapV2PoolPriceFeed Contract",
    "version": 1
  },
  "userdoc": {
    "kind": "user",
    "methods": {
      "addPoolTokens(address[])": {
        "notice": "Adds Uniswap pool tokens to the price feed"
      },
      "calcUnderlyingValues(address,uint256)": {
        "notice": "Converts a given amount of a derivative to its underlying asset values"
      },
      "getDerivativePriceFeed()": {
        "notice": "Gets the `DERIVATIVE_PRICE_FEED` variable value"
      },
      "getFactory()": {
        "notice": "Gets the `FACTORY` variable value"
      },
      "getFundDeployer()": {
        "notice": "Gets the `FUND_DEPLOYER` variable"
      },
      "getOwner()": {
        "notice": "Gets the owner of this contract"
      },
      "getPoolTokenInfo(address)": {
        "notice": "Gets the `PoolTokenInfo` for a given pool token"
      },
      "getPoolTokenUnderlyings(address)": {
        "notice": "Gets the underlyings for a given pool token"
      },
      "getPrimitivePriceFeed()": {
        "notice": "Gets the `PRIMITIVE_PRICE_FEED` variable value"
      },
      "getValueInterpreter()": {
        "notice": "Gets the `VALUE_INTERPRETER` variable value"
      },
      "isSupportedAsset(address)": {
        "notice": "Checks if an asset is supported by the price feed"
      }
    },
    "notice": "Price feed for Uniswap lending pool tokens",
    "version": 1
  },
  "storageLayout": {
    "storage": [
      {
        "astId": 42179,
        "contract": "contracts/release/infrastructure/price-feeds/derivatives/feeds/UniswapV2PoolPriceFeed.sol:UniswapV2PoolPriceFeed",
        "label": "poolTokenToInfo",
        "offset": 0,
        "slot": "0",
        "type": "t_mapping(t_address,t_struct(PoolTokenInfo)42162_storage)"
      }
    ],
    "types": {
      "t_address": {
        "encoding": "inplace",
        "label": "address",
        "numberOfBytes": "20"
      },
      "t_mapping(t_address,t_struct(PoolTokenInfo)42162_storage)": {
        "encoding": "mapping",
        "key": "t_address",
        "label": "mapping(address => struct UniswapV2PoolPriceFeed.PoolTokenInfo)",
        "numberOfBytes": "32",
        "value": "t_struct(PoolTokenInfo)42162_storage"
      },
      "t_struct(PoolTokenInfo)42162_storage": {
        "encoding": "inplace",
        "label": "struct UniswapV2PoolPriceFeed.PoolTokenInfo",
        "members": [
          {
            "astId": 42155,
            "contract": "contracts/release/infrastructure/price-feeds/derivatives/feeds/UniswapV2PoolPriceFeed.sol:UniswapV2PoolPriceFeed",
            "label": "token0",
            "offset": 0,
            "slot": "0",
            "type": "t_address"
          },
          {
            "astId": 42157,
            "contract": "contracts/release/infrastructure/price-feeds/derivatives/feeds/UniswapV2PoolPriceFeed.sol:UniswapV2PoolPriceFeed",
            "label": "token1",
            "offset": 0,
            "slot": "1",
            "type": "t_address"
          },
          {
            "astId": 42159,
            "contract": "contracts/release/infrastructure/price-feeds/derivatives/feeds/UniswapV2PoolPriceFeed.sol:UniswapV2PoolPriceFeed",
            "label": "token0Decimals",
            "offset": 20,
            "slot": "1",
            "type": "t_uint8"
          },
          {
            "astId": 42161,
            "contract": "contracts/release/infrastructure/price-feeds/derivatives/feeds/UniswapV2PoolPriceFeed.sol:UniswapV2PoolPriceFeed",
            "label": "token1Decimals",
            "offset": 21,
            "slot": "1",
            "type": "t_uint8"
          }
        ],
        "numberOfBytes": "64"
      },
      "t_uint8": {
        "encoding": "inplace",
        "label": "uint8",
        "numberOfBytes": "1"
      }
    }
  }
}