{
  "address": "0xA0B9298aAe86f4BFdcB07cc6dCac40049bb8dFb0",
  "abi": [
    {
      "inputs": [
        {
          "internalType": "address",
          "name": "_primitivePriceFeed",
          "type": "address"
        },
        {
          "internalType": "address",
          "name": "_aggregatedDerivativePriceFeed",
          "type": "address"
        }
      ],
      "stateMutability": "nonpayable",
      "type": "constructor"
    },
    {
      "inputs": [
        {
          "internalType": "address",
          "name": "_baseAsset",
          "type": "address"
        },
        {
          "internalType": "uint256",
          "name": "_amount",
          "type": "uint256"
        },
        {
          "internalType": "address",
          "name": "_quoteAsset",
          "type": "address"
        }
      ],
      "name": "calcCanonicalAssetValue",
      "outputs": [
        {
          "internalType": "uint256",
          "name": "value_",
          "type": "uint256"
        },
        {
          "internalType": "bool",
          "name": "isValid_",
          "type": "bool"
        }
      ],
      "stateMutability": "nonpayable",
      "type": "function"
    },
    {
      "inputs": [
        {
          "internalType": "address[]",
          "name": "_baseAssets",
          "type": "address[]"
        },
        {
          "internalType": "uint256[]",
          "name": "_amounts",
          "type": "uint256[]"
        },
        {
          "internalType": "address",
          "name": "_quoteAsset",
          "type": "address"
        }
      ],
      "name": "calcCanonicalAssetsTotalValue",
      "outputs": [
        {
          "internalType": "uint256",
          "name": "value_",
          "type": "uint256"
        },
        {
          "internalType": "bool",
          "name": "isValid_",
          "type": "bool"
        }
      ],
      "stateMutability": "nonpayable",
      "type": "function"
    },
    {
      "inputs": [
        {
          "internalType": "address",
          "name": "_baseAsset",
          "type": "address"
        },
        {
          "internalType": "uint256",
          "name": "_amount",
          "type": "uint256"
        },
        {
          "internalType": "address",
          "name": "_quoteAsset",
          "type": "address"
        }
      ],
      "name": "calcLiveAssetValue",
      "outputs": [
        {
          "internalType": "uint256",
          "name": "value_",
          "type": "uint256"
        },
        {
          "internalType": "bool",
          "name": "isValid_",
          "type": "bool"
        }
      ],
      "stateMutability": "nonpayable",
      "type": "function"
    },
    {
      "inputs": [
        {
          "internalType": "address[]",
          "name": "_baseAssets",
          "type": "address[]"
        },
        {
          "internalType": "uint256[]",
          "name": "_amounts",
          "type": "uint256[]"
        },
        {
          "internalType": "address",
          "name": "_quoteAsset",
          "type": "address"
        }
      ],
      "name": "calcLiveAssetsTotalValue",
      "outputs": [
        {
          "internalType": "uint256",
          "name": "value_",
          "type": "uint256"
        },
        {
          "internalType": "bool",
          "name": "isValid_",
          "type": "bool"
        }
      ],
      "stateMutability": "nonpayable",
      "type": "function"
    },
    {
      "inputs": [],
      "name": "getAggregatedDerivativePriceFeed",
      "outputs": [
        {
          "internalType": "address",
          "name": "aggregatedDerivativePriceFeed_",
          "type": "address"
        }
      ],
      "stateMutability": "view",
      "type": "function"
    },
    {
      "inputs": [],
      "name": "getPrimitivePriceFeed",
      "outputs": [
        {
          "internalType": "address",
          "name": "primitivePriceFeed_",
          "type": "address"
        }
      ],
      "stateMutability": "view",
      "type": "function"
    },
    {
      "inputs": [],
      "name": "getValueInterpreterDeployTimestamp",
      "outputs": [
        {
          "internalType": "uint256",
          "name": "",
          "type": "uint256"
        }
      ],
      "stateMutability": "view",
      "type": "function"
    }
  ],
  "transactionHash": "0xdd4ae4100f0ba740b21694b78491205a5ad6f88d9612566f82a5c1987df3cb7a",
  "args": [
    "0x05993fB3AF1E99b09Fe0352982b38FBAC4f5CC1D",
    "0x5642D3380320aC106816b921c998758D61a224f2"
  ],
  "solcInputHash": "34b1516e615d6cbcdbaf9542624efee9",
  "bytecode": "0x60e060405234801561001057600080fd5b50604051610e4e380380610e4e8339818101604052604081101561003357600080fd5b5080516020909101516001600160601b0319606091821b811660805291901b1660a0524260c05260805160601c60a05160601c60c051610da96100a5600039806106bf5250806103445280610399528061057a528061071452806107e152508061048552806108665250610da96000f3fe608060405234801561001057600080fd5b506004361061007d5760003560e01c80637733db7d1161005b5780637733db7d146100fd578063ae3be7f414610133578063ae6f52ad146101fa578063e7a0b0d8146103285761007d565b806349be72f3146100825780634c67e106146100a65780635d880c7d146100f5575b600080fd5b61008a610342565b604080516001600160a01b039092168252519081900360200190f35b6100dc600480360360608110156100bc57600080fd5b506001600160a01b03813581169160208101359160409091013516610366565b6040805192835290151560208301528051918290030190f35b61008a610483565b6100dc6004803603606081101561011357600080fd5b506001600160a01b038135811691602081013591604090910135166104a7565b6100dc6004803603606081101561014957600080fd5b810190602081018135600160201b81111561016357600080fd5b82018360208201111561017557600080fd5b803590602001918460208302840111600160201b8311171561019657600080fd5b919390929091602081019035600160201b8111156101b357600080fd5b8201836020820111156101c557600080fd5b803590602001918460208302840111600160201b831117156101e657600080fd5b9193509150356001600160a01b03166104b5565b6100dc6004803603606081101561021057600080fd5b810190602081018135600160201b81111561022a57600080fd5b82018360208201111561023c57600080fd5b803590602001918460208302840111600160201b8311171561025d57600080fd5b9190808060200260200160405190810160405280939291908181526020018383602002808284376000920191909152509295949360208101935035915050600160201b8111156102ac57600080fd5b8201836020820111156102be57600080fd5b803590602001918460208302840111600160201b831117156102df57600080fd5b919080806020026020016040519081016040528093929190818152602001838360200280828437600092019190915250929550505090356001600160a01b031691506105359050565b6103306106bd565b60408051918252519081900360200190f35b7f000000000000000000000000000000000000000000000000000000000000000090565b600080826001600160a01b0316856001600160a01b03161480610387575083155b156103975750829050600161047b565b7f00000000000000000000000000000000000000000000000000000000000000006001600160a01b0316639be918e6846040518263ffffffff1660e01b815260040180826001600160a01b0316815260200191505060206040518083038186803b15801561040457600080fd5b505afa158015610418573d6000803e3d6000fd5b505050506040513d602081101561042e57600080fd5b505161046b5760405162461bcd60e51b8152600401808060200182810382526030815260200180610d446030913960400191505060405180910390fd5b6104768585856106e1565b915091505b935093915050565b7f000000000000000000000000000000000000000000000000000000000000000090565b600080610476858585610366565b60008061052787878080602002602001604051908101604052809392919081815260200183836020028082843760009201919091525050604080516020808b0282810182019093528a82529093508a925089918291850190849080828437600092019190915250889250610535915050565b915091509550959350505050565b60008083518551146105785760405162461bcd60e51b8152600401808060200182810382526035815260200180610cc26035913960400191505060405180910390fd5b7f00000000000000000000000000000000000000000000000000000000000000006001600160a01b0316639be918e6846040518263ffffffff1660e01b815260040180826001600160a01b0316815260200191505060206040518083038186803b1580156105e557600080fd5b505afa1580156105f9573d6000803e3d6000fd5b505050506040513d602081101561060f57600080fd5b505161064c5760405162461bcd60e51b8152600401808060200182810382526036815260200180610c5f6036913960400191505060405180910390fd5b50600160005b85518110156106b45760008061068f88848151811061066d57fe5b602002602001015188858151811061068157fe5b6020026020010151886106e1565b909250905061069e858361095b565b9450806106aa57600093505b5050600101610652565b50935093915050565b7f000000000000000000000000000000000000000000000000000000000000000090565b600080826001600160a01b0316856001600160a01b03161480610702575083155b156107125750829050600161047b565b7f00000000000000000000000000000000000000000000000000000000000000006001600160a01b0316639be918e6866040518263ffffffff1660e01b815260040180826001600160a01b0316815260200191505060206040518083038186803b15801561077f57600080fd5b505afa158015610793573d6000803e3d6000fd5b505050506040513d60208110156107a957600080fd5b5051156108625760408051630372a91f60e31b81526001600160a01b03878116600483015260248201879052858116604483015282517f000000000000000000000000000000000000000000000000000000000000000090911692631b9548f89260648082019391829003018186803b15801561082557600080fd5b505afa158015610839573d6000803e3d6000fd5b505050506040513d604081101561084f57600080fd5b508051602090910151909250905061047b565b60007f00000000000000000000000000000000000000000000000000000000000000006001600160a01b03166368e81c6d876040518263ffffffff1660e01b815260040180826001600160a01b0316815260200191505060206040518083038186803b1580156108d157600080fd5b505afa1580156108e5573d6000803e3d6000fd5b505050506040513d60208110156108fb57600080fd5b505190506001600160a01b038116156109245761091a818787876109bc565b925092505061047b565b60405162461bcd60e51b8152600401808060200182810382526028815260200180610d1c6028913960400191505060405180910390fd5b6000828201838110156109b5576040805162461bcd60e51b815260206004820152601b60248201527f536166654d6174683a206164646974696f6e206f766572666c6f770000000000604482015290519081900360640190fd5b9392505050565b600080606080876001600160a01b031663727212f688886040518363ffffffff1660e01b815260040180836001600160a01b0316815260200182815260200192505050600060405180830381600087803b158015610a1957600080fd5b505af1158015610a2d573d6000803e3d6000fd5b505050506040513d6000823e601f3d908101601f191682016040908152811015610a5657600080fd5b8101908080516040519392919084600160201b821115610a7557600080fd5b908301906020820185811115610a8a57600080fd5b82518660208202830111600160201b82111715610aa657600080fd5b82525081516020918201928201910280838360005b83811015610ad3578181015183820152602001610abb565b5050505090500160405260200180516040519392919084600160201b821115610afb57600080fd5b908301906020820185811115610b1057600080fd5b82518660208202830111600160201b82111715610b2c57600080fd5b82525081516020918201928201910280838360005b83811015610b59578181015183820152602001610b41565b50505050905001604052505050915091506000825111610baa5760405162461bcd60e51b8152600401808060200182810382526025815260200180610cf76025913960400191505060405180910390fd5b8051825114610bea5760405162461bcd60e51b815260040180806020018281038252602d815260200180610c95602d913960400191505060405180910390fd5b6001925060005b8251811015610c5257600080610c2e858481518110610c0c57fe5b6020026020010151858581518110610c2057fe5b60200260200101518a6106e1565b9150915080610c3c57600095505b610c46878361095b565b96505050600101610bf1565b5050509450949250505056fe63616c6343616e6f6e6963616c417373657473546f74616c56616c75653a20556e737570706f72746564205f71756f746541737365745f5f63616c634465726976617469766556616c75653a2041727261797320756e657175616c206c656e6774687363616c6343616e6f6e6963616c417373657473546f74616c56616c75653a2041727261797320756e657175616c206c656e677468735f5f63616c634465726976617469766556616c75653a204e6f20756e6465726c79696e67735f5f63616c63417373657456616c75653a20556e737570706f72746564205f62617365417373657463616c6343616e6f6e6963616c417373657456616c75653a20556e737570706f72746564205f71756f74654173736574a264697066735822122004d5ba862cd2802bf74432e25c4cff12217ae17e59fb77f21045bc2dd227028964736f6c634300060c0033",
  "devdoc": {
    "author": "Enzyme Council <security@enzyme.finance>",
    "details": "This contract contains several \"live\" value calculations, which for this release are simply aliases to their \"canonical\" value counterparts since the only primitive price feed (Chainlink) is immutable in this contract and only has one type of value. Including the \"live\" versions of functions only serves as a placeholder for infrastructural components and plugins (e.g., policies) to explicitly define the types of values that they should (and will) be using in a future release.",
    "kind": "dev",
    "methods": {
      "calcCanonicalAssetValue(address,uint256,address)": {
        "details": "Does not alter protocol state, but not a view because calls to price feeds can potentially update third party state",
        "params": {
          "_amount": "The amount of the _baseAsset to convert",
          "_baseAsset": "The asset from which to convert",
          "_quoteAsset": "The asset to which to convert"
        },
        "returns": {
          "isValid_": "True if the price feed rates used to derive value are all valid",
          "value_": "The equivalent quantity in the _quoteAsset"
        }
      },
      "calcCanonicalAssetsTotalValue(address[],uint256[],address)": {
        "details": "Does not alter protocol state, but not a view because calls to price feeds can potentially update third party state",
        "params": {
          "_amounts": "The amounts of the _baseAssets to convert",
          "_baseAssets": "The assets to convert",
          "_quoteAsset": "The asset to which to convert"
        },
        "returns": {
          "isValid_": "True if the price feed rates used to derive value are all valid",
          "value_": "The sum value of _baseAssets, denominated in the _quoteAsset"
        }
      },
      "getAggregatedDerivativePriceFeed()": {
        "returns": {
          "aggregatedDerivativePriceFeed_": "The `AGGREGATED_DERIVATIVE_PRICE_FEED` variable value"
        }
      },
      "getPrimitivePriceFeed()": {
        "returns": {
          "primitivePriceFeed_": "The `PRIMITIVE_PRICE_FEED` variable value"
        }
      }
    },
    "title": "ValueInterpreter Contract",
    "version": 1
  },
  "userdoc": {
    "kind": "user",
    "methods": {
      "calcCanonicalAssetValue(address,uint256,address)": {
        "notice": "Calculates the value of a given amount of one asset in terms of another asset"
      },
      "calcCanonicalAssetsTotalValue(address[],uint256[],address)": {
        "notice": "Calculates the total value of given amounts of assets in a single quote asset"
      },
      "calcLiveAssetValue(address,uint256,address)": {
        "notice": "An alias of calcCanonicalAssetValue"
      },
      "calcLiveAssetsTotalValue(address[],uint256[],address)": {
        "notice": "An alias of calcCanonicalAssetsTotalValue"
      },
      "getAggregatedDerivativePriceFeed()": {
        "notice": "Gets the `AGGREGATED_DERIVATIVE_PRICE_FEED` variable"
      },
      "getPrimitivePriceFeed()": {
        "notice": "Gets the `PRIMITIVE_PRICE_FEED` variable"
      }
    },
    "notice": "Interprets price feeds to provide covert value between asset pairs",
    "version": 1
  },
  "storageLayout": {
    "storage": [],
    "types": null
  }
}