{
  "address": "0x94841425485917067Cef962c5308704b9d2dB076",
  "abi": [
    {
      "inputs": [
        {
          "internalType": "address",
          "name": "_wdgld",
          "type": "address"
        },
        {
          "internalType": "address",
          "name": "_weth",
          "type": "address"
        },
        {
          "internalType": "address",
          "name": "_ethAggregator",
          "type": "address"
        },
        {
          "internalType": "address",
          "name": "_xauAggregator",
          "type": "address"
        }
      ],
      "stateMutability": "nonpayable",
      "type": "constructor"
    },
    {
      "inputs": [
        {
          "internalType": "address",
          "name": "_derivative",
          "type": "address"
        },
        {
          "internalType": "uint256",
          "name": "_derivativeAmount",
          "type": "uint256"
        }
      ],
      "name": "calcUnderlyingValues",
      "outputs": [
        {
          "internalType": "address[]",
          "name": "underlyings_",
          "type": "address[]"
        },
        {
          "internalType": "uint256[]",
          "name": "underlyingAmounts_",
          "type": "uint256[]"
        }
      ],
      "stateMutability": "nonpayable",
      "type": "function"
    },
    {
      "inputs": [],
      "name": "calcWdgldToXauRate",
      "outputs": [
        {
          "internalType": "uint256",
          "name": "wdgldToXauRate_",
          "type": "uint256"
        }
      ],
      "stateMutability": "view",
      "type": "function"
    },
    {
      "inputs": [],
      "name": "getDerivativePriceFeedDeployTimestamp",
      "outputs": [
        {
          "internalType": "uint256",
          "name": "",
          "type": "uint256"
        }
      ],
      "stateMutability": "view",
      "type": "function"
    },
    {
      "inputs": [],
      "name": "getEthAggregator",
      "outputs": [
        {
          "internalType": "address",
          "name": "ethAggregatorAddress_",
          "type": "address"
        }
      ],
      "stateMutability": "view",
      "type": "function"
    },
    {
      "inputs": [],
      "name": "getWdgld",
      "outputs": [
        {
          "internalType": "address",
          "name": "wdgld_",
          "type": "address"
        }
      ],
      "stateMutability": "view",
      "type": "function"
    },
    {
      "inputs": [],
      "name": "getWeth",
      "outputs": [
        {
          "internalType": "address",
          "name": "weth_",
          "type": "address"
        }
      ],
      "stateMutability": "view",
      "type": "function"
    },
    {
      "inputs": [],
      "name": "getXauAggregator",
      "outputs": [
        {
          "internalType": "address",
          "name": "xauAggregatorAddress_",
          "type": "address"
        }
      ],
      "stateMutability": "view",
      "type": "function"
    },
    {
      "inputs": [
        {
          "internalType": "address",
          "name": "_asset",
          "type": "address"
        }
      ],
      "name": "isSupportedAsset",
      "outputs": [
        {
          "internalType": "bool",
          "name": "isSupported_",
          "type": "bool"
        }
      ],
      "stateMutability": "view",
      "type": "function"
    }
  ],
  "transactionHash": "0xc0fe41cf7b8fbab242d4ddbe9cf76d7c3639dfdf92076a620281d217c711df39",
  "args": [
    "0x123151402076fc819B7564510989e475c9cD93CA",
    "0xc02aaa39b223fe8d0a0e5c4f27ead9083c756cc2",
    "0x5f4eC3Df9cbd43714FE2740f5E3616155c5b8419",
    "0x214eD9Da11D2fbe465a6fc601a91E62EbEc1a0D6"
  ],
  "solcInputHash": "34b1516e615d6cbcdbaf9542624efee9",
  "bytecode": "0x61012060405234801561001157600080fd5b506040516108f53803806108f58339818101604052608081101561003457600080fd5b50805160208201516040830151606093840151426080526001600160601b031993851b841660e05291841b831661010052831b821660c05290911b1660a05260805160a05160601c60c05160601c60e05160601c6101005160601c6108236100d2600039806101ec528061029b5250806104bc52806105205250806103a45280610576525080610210528061030152508061055252506108236000f3fe608060405234801561001057600080fd5b50600436106100885760003560e01c80639921eddd1161005b5780639921eddd146101865780639be918e6146101a0578063ba4906b8146101da578063c8e850ff146101e257610088565b8063107c279f1461008d5780631aeb88db146100b1578063727212f6146100b957806383eb692d1461017e575b600080fd5b6100956101ea565b604080516001600160a01b039092168252519081900360200190f35b61009561020e565b6100e5600480360360408110156100cf57600080fd5b506001600160a01b038135169060200135610232565b604051808060200180602001838103835285818151815260200191508051906020019060200280838360005b83811015610129578181015183820152602001610111565b50505050905001838103825284818151815260200191508051906020019060200280838360005b83811015610168578181015183820152602001610150565b5050505090500194505050505060405180910390f35b6100956104ba565b61018e6104de565b60408051918252519081900360200190f35b6101c6600480360360208110156101b657600080fd5b50356001600160a01b031661051e565b604080519115158252519081900360200190f35b61018e610550565b610095610574565b7f000000000000000000000000000000000000000000000000000000000000000090565b7f000000000000000000000000000000000000000000000000000000000000000090565b60608061023e8461051e565b6102795760405162461bcd60e51b815260040180806020018281038252602d81526020018061077e602d913960400191505060405180910390fd5b60408051600180825281830190925290602080830190803683370190505091507f0000000000000000000000000000000000000000000000000000000000000000826000815181106102c757fe5b6001600160a01b039290921660209283029190910182015260408051600180825281830190925291828101908036833701905050905060007f00000000000000000000000000000000000000000000000000000000000000006001600160a01b03166350d25bcd6040518163ffffffff1660e01b815260040160206040518083038186803b15801561035857600080fd5b505afa15801561036c573d6000803e3d6000fd5b505050506040513d602081101561038257600080fd5b5051604080516350d25bcd60e01b815290519192506000916001600160a01b037f000000000000000000000000000000000000000000000000000000000000000016916350d25bcd916004808301926020929190829003018186803b1580156103ea57600080fd5b505afa1580156103fe573d6000803e3d6000fd5b505050506040513d602081101561041457600080fd5b505190506000821380156104285750600081135b6104635760405162461bcd60e51b81526004018080602001828103825260228152602001806107cc6022913960400191505060405180910390fd5b600061046d6104de565b905061049767016345785d8a000061049184818761048b8c88610598565b90610598565b906105fa565b846000815181106104a457fe5b6020026020010181815250505050509250929050565b7f000000000000000000000000000000000000000000000000000000000000000090565b6000610519600a6104916b033b2c4b10aa53505c46aecd6105076170808342635d807660610661565b6b033b2e3c9fd0803ce80000006106be565b905090565b7f00000000000000000000000000000000000000000000000000000000000000006001600160a01b0390811691161490565b7f000000000000000000000000000000000000000000000000000000000000000090565b7f000000000000000000000000000000000000000000000000000000000000000090565b6000826105a7575060006105f4565b828202828482816105b457fe5b04146105f15760405162461bcd60e51b81526004018080602001828103825260218152602001806107ab6021913960400191505060405180910390fd5b90505b92915050565b6000808211610650576040805162461bcd60e51b815260206004820152601a60248201527f536166654d6174683a206469766973696f6e206279207a65726f000000000000604482015290519081900360640190fd5b81838161065957fe5b049392505050565b6000828211156106b8576040805162461bcd60e51b815260206004820152601e60248201527f536166654d6174683a207375627472616374696f6e206f766572666c6f770000604482015290519081900360640190fd5b50900390565b600083801561075f576001841680156106d9578592506106dd565b8392505b50600283046002850494505b841561075957858602868782041461070057600080fd5b8181018181101561071057600080fd5b8581049750600287061561074c57878502858982041415891515161561073557600080fd5b8381018181101561074557600080fd5b8790049550505b50506002850494506106e9565b50610775565b83801561076f5760009250610773565b8392505b505b50939250505056fe63616c63556e6465726c79696e6756616c7565733a204f6e6c79205744474c4420697320737570706f72746564536166654d6174683a206d756c7469706c69636174696f6e206f766572666c6f7763616c63556e6465726c79696e6756616c7565733a207261746520696e76616c6964a26469706673582212201dedda31123a99ecd5fc37ec6f990b60fd8bbe79064f3d05f43610db973b36d664736f6c634300060c0033",
  "devdoc": {
    "author": "Enzyme Council <security@enzyme.finance>",
    "kind": "dev",
    "methods": {
      "calcUnderlyingValues(address,uint256)": {
        "params": {
          "_derivative": "The derivative to convert",
          "_derivativeAmount": "The amount of the derivative to convert"
        },
        "returns": {
          "underlyingAmounts_": "The amount of each underlying asset for the equivalent derivative amount",
          "underlyings_": "The underlying assets for the _derivative"
        }
      },
      "calcWdgldToXauRate()": {
        "details": "Full formula available <https://dgld.ch/assets/documents/dgld-whitepaper.pdf>",
        "returns": {
          "wdgldToXauRate_": "The current rate of WDGLD to XAU"
        }
      },
      "getEthAggregator()": {
        "returns": {
          "ethAggregatorAddress_": "The `ETH_AGGREGATOR` address"
        }
      },
      "getWdgld()": {
        "returns": {
          "wdgld_": "The `WDGLD` token address"
        }
      },
      "getWeth()": {
        "returns": {
          "weth_": "The `WETH` token address"
        }
      },
      "getXauAggregator()": {
        "returns": {
          "xauAggregatorAddress_": "The `XAU_AGGREGATOR` address"
        }
      },
      "isSupportedAsset(address)": {
        "params": {
          "_asset": "The asset to check"
        },
        "returns": {
          "isSupported_": "True if supported"
        }
      }
    },
    "title": "WdgldPriceFeed Contract",
    "version": 1
  },
  "userdoc": {
    "kind": "user",
    "methods": {
      "calcUnderlyingValues(address,uint256)": {
        "notice": "Converts a given amount of a derivative to its underlying asset values"
      },
      "calcWdgldToXauRate()": {
        "notice": "Calculates the rate of WDGLD to XAU."
      },
      "getEthAggregator()": {
        "notice": "Gets the `ETH_AGGREGATOR` address"
      },
      "getWdgld()": {
        "notice": "Gets the `WDGLD` token address"
      },
      "getWeth()": {
        "notice": "Gets the `WETH` token address"
      },
      "getXauAggregator()": {
        "notice": "Gets the `XAU_AGGREGATOR` address"
      },
      "isSupportedAsset(address)": {
        "notice": "Checks if an asset is supported by this price feed"
      }
    },
    "notice": "Price source oracle for WDGLD <https://dgld.ch/>",
    "version": 1
  },
  "storageLayout": {
    "storage": [],
    "types": null
  }
}