{
  "address": "0xCe0e9a5F4DbDf83E5E212E1E8340b946Ae249c79",
  "abi": [
    {
      "inputs": [
        {
          "internalType": "address",
          "name": "_fundDeployer",
          "type": "address"
        },
        {
          "internalType": "address",
          "name": "_yearnVaultV2Registry",
          "type": "address"
        }
      ],
      "stateMutability": "nonpayable",
      "type": "constructor"
    },
    {
      "anonymous": false,
      "inputs": [
        {
          "indexed": true,
          "internalType": "address",
          "name": "derivative",
          "type": "address"
        },
        {
          "indexed": true,
          "internalType": "address",
          "name": "underlying",
          "type": "address"
        }
      ],
      "name": "DerivativeAdded",
      "type": "event"
    },
    {
      "anonymous": false,
      "inputs": [
        {
          "indexed": true,
          "internalType": "address",
          "name": "derivative",
          "type": "address"
        }
      ],
      "name": "DerivativeRemoved",
      "type": "event"
    },
    {
      "inputs": [
        {
          "internalType": "address[]",
          "name": "_derivatives",
          "type": "address[]"
        },
        {
          "internalType": "address[]",
          "name": "_underlyings",
          "type": "address[]"
        }
      ],
      "name": "addDerivatives",
      "outputs": [],
      "stateMutability": "nonpayable",
      "type": "function"
    },
    {
      "inputs": [
        {
          "internalType": "address",
          "name": "_derivative",
          "type": "address"
        },
        {
          "internalType": "uint256",
          "name": "_derivativeAmount",
          "type": "uint256"
        }
      ],
      "name": "calcUnderlyingValues",
      "outputs": [
        {
          "internalType": "address[]",
          "name": "underlyings_",
          "type": "address[]"
        },
        {
          "internalType": "uint256[]",
          "name": "underlyingAmounts_",
          "type": "uint256[]"
        }
      ],
      "stateMutability": "nonpayable",
      "type": "function"
    },
    {
      "inputs": [],
      "name": "getDerivativePriceFeedDeployTimestamp",
      "outputs": [
        {
          "internalType": "uint256",
          "name": "",
          "type": "uint256"
        }
      ],
      "stateMutability": "view",
      "type": "function"
    },
    {
      "inputs": [],
      "name": "getFundDeployer",
      "outputs": [
        {
          "internalType": "address",
          "name": "fundDeployer_",
          "type": "address"
        }
      ],
      "stateMutability": "view",
      "type": "function"
    },
    {
      "inputs": [],
      "name": "getOwner",
      "outputs": [
        {
          "internalType": "address",
          "name": "owner_",
          "type": "address"
        }
      ],
      "stateMutability": "view",
      "type": "function"
    },
    {
      "inputs": [
        {
          "internalType": "address",
          "name": "_derivative",
          "type": "address"
        }
      ],
      "name": "getUnderlyingForDerivative",
      "outputs": [
        {
          "internalType": "address",
          "name": "underlying_",
          "type": "address"
        }
      ],
      "stateMutability": "view",
      "type": "function"
    },
    {
      "inputs": [],
      "name": "getYearnVaultV2Registry",
      "outputs": [
        {
          "internalType": "address",
          "name": "yearnVaultV2Registry_",
          "type": "address"
        }
      ],
      "stateMutability": "view",
      "type": "function"
    },
    {
      "inputs": [
        {
          "internalType": "address",
          "name": "_asset",
          "type": "address"
        }
      ],
      "name": "isSupportedAsset",
      "outputs": [
        {
          "internalType": "bool",
          "name": "isSupported_",
          "type": "bool"
        }
      ],
      "stateMutability": "view",
      "type": "function"
    },
    {
      "inputs": [
        {
          "internalType": "address[]",
          "name": "_derivatives",
          "type": "address[]"
        }
      ],
      "name": "removeDerivatives",
      "outputs": [],
      "stateMutability": "nonpayable",
      "type": "function"
    }
  ],
  "transactionHash": "0x2b1edb6068c13e96475e88a8f8238ffcd2ed5de318a28ee451218cef57f71cf9",
  "args": [
    "0x217912B16c8A00C2D9F2fDFCA94127ca37cFe948",
    "0x50c1a2eA0a861A967D9d0FFE2AE4012c2E053804"
  ],
  "solcInputHash": "34b1516e615d6cbcdbaf9542624efee9",
  "bytecode": "0x60e060405234801561001057600080fd5b506040516111a03803806111a08339818101604052604081101561003357600080fd5b5080516020909101516001600160601b0319606092831b81166080524260a052911b1660c05260805160601c60a05160c05160601c61111061009060003980610bbf525080610c005250806109565280610b9b52506111106000f3fe608060405234801561001057600080fd5b50600436106100935760003560e01c80638f72b136116100665780638f72b136146102d057806397c0ac8714610373578063981dc8e41461037b5780639be918e614610383578063ba4906b8146103bd57610093565b806339cbb63c1461009857806366adb867146101c1578063727212f614610203578063893d20e8146102c8575b600080fd5b6101bf600480360360408110156100ae57600080fd5b8101906020810181356401000000008111156100c957600080fd5b8201836020820111156100db57600080fd5b803590602001918460208302840111640100000000831117156100fd57600080fd5b919080806020026020016040519081016040528093929190818152602001838360200280828437600092019190915250929594936020810193503591505064010000000081111561014d57600080fd5b82018360208201111561015f57600080fd5b8035906020019184602083028401116401000000008311171561018157600080fd5b9190808060200260200160405190810160405280939291908181526020018383602002808284376000920191909152509295506103d7945050505050565b005b6101e7600480360360208110156101d757600080fd5b50356001600160a01b0316610744565b604080516001600160a01b039092168252519081900360200190f35b61022f6004803603604081101561021957600080fd5b506001600160a01b038135169060200135610762565b604051808060200180602001838103835285818151815260200191508051906020019060200280838360005b8381101561027357818101518382015260200161025b565b50505050905001838103825284818151815260200191508051906020019060200280838360005b838110156102b257818101518382015260200161029a565b5050505090500194505050505060405180910390f35b6101e7610952565b6101bf600480360360208110156102e657600080fd5b81019060208101813564010000000081111561030157600080fd5b82018360208201111561031357600080fd5b8035906020019184602083028401116401000000008311171561033557600080fd5b9190808060200260200160405190810160405280939291908181526020018383602002808284376000920191909152509295506109de945050505050565b6101e7610b99565b6101e7610bbd565b6103a96004803603602081101561039957600080fd5b50356001600160a01b0316610be1565b604080519115158252519081900360200190f35b6103c5610bfe565b60408051918252519081900360200190f35b6103df610952565b6001600160a01b0316336001600160a01b03161461042e5760405162461bcd60e51b81526004018080602001828103825260498152602001806110026049913960600191505060405180910390fd5b600082511161046e5760405162461bcd60e51b815260040180806020018281038252602281526020018061108d6022913960400191505060405180910390fd5b80518251146104c4576040805162461bcd60e51b815260206004820152601e60248201527f61646444657269766174697665733a20556e657175616c206172726179730000604482015290519081900360640190fd5b60005b825181101561073f5760006001600160a01b03168382815181106104e757fe5b60200260200101516001600160a01b0316141561054b576040805162461bcd60e51b815260206004820181905260248201527f61646444657269766174697665733a20456d7074792064657269766174697665604482015290519081900360640190fd5b60006001600160a01b031682828151811061056257fe5b60200260200101516001600160a01b031614156105c6576040805162461bcd60e51b815260206004820181905260248201527f61646444657269766174697665733a20456d70747920756e6465726c79696e67604482015290519081900360640190fd5b60006001600160a01b03166105ed8483815181106105e057fe5b6020026020010151610744565b6001600160a01b0316146106325760405162461bcd60e51b815260040180806020018281038252602181526020018061104b6021913960400191505060405180910390fd5b61066283828151811061064157fe5b602002602001015183838151811061065557fe5b6020026020010151610c22565b81818151811061066e57fe5b602002602001015160008085848151811061068557fe5b60200260200101516001600160a01b03166001600160a01b0316815260200190815260200160002060006101000a8154816001600160a01b0302191690836001600160a01b031602179055508181815181106106dd57fe5b60200260200101516001600160a01b03168382815181106106fa57fe5b60200260200101516001600160a01b03167faa4ae250fb435bb4b31ed0b95822bc179fc6c5dd0c727c3ffe08d444025efd9860405160405180910390a36001016104c7565b505050565b6001600160a01b039081166000908152602081905260409020541690565b6040805160018082528183019092526060918291906020808301908036833701905050915061079084610744565b8260008151811061079d57fe5b60200260200101906001600160a01b031690816001600160a01b03168152505060006001600160a01b0316826000815181106107d557fe5b60200260200101516001600160a01b031614156108235760405162461bcd60e51b815260040180806020018281038252602c8152602001806110af602c913960400191505060405180910390fd5b6040805160018082528183019092529060208083019080368337019050509050610932846001600160a01b031663313ce5676040518163ffffffff1660e01b815260040160206040518083038186803b15801561087f57600080fd5b505afa158015610893573d6000803e3d6000fd5b505050506040513d60208110156108a957600080fd5b505160408051634ca9858360e11b8152905160ff909216600a0a9161092c916001600160a01b038916916399530b0691600480820192602092909190829003018186803b1580156108f957600080fd5b505afa15801561090d573d6000803e3d6000fd5b505050506040513d602081101561092357600080fd5b50518690610eb6565b90610f18565b8160008151811061093f57fe5b6020026020010181815250509250929050565b60007f00000000000000000000000000000000000000000000000000000000000000006001600160a01b031663893d20e86040518163ffffffff1660e01b815260040160206040518083038186803b1580156109ad57600080fd5b505afa1580156109c1573d6000803e3d6000fd5b505050506040513d60208110156109d757600080fd5b5051905090565b6109e6610952565b6001600160a01b0316336001600160a01b031614610a355760405162461bcd60e51b81526004018080602001828103825260498152602001806110026049913960600191505060405180910390fd5b6000815111610a755760405162461bcd60e51b8152600401808060200182810382526025815260200180610fdd6025913960400191505060405180910390fd5b60005b8151811015610b955760006001600160a01b0316610a9b8383815181106105e057fe5b6001600160a01b03161415610af7576040805162461bcd60e51b815260206004820181905260248201527f72656d6f766544657269766174697665733a2056616c7565206e6f7420736574604482015290519081900360640190fd5b600080838381518110610b0657fe5b60200260200101516001600160a01b03166001600160a01b0316815260200190815260200160002060006101000a8154906001600160a01b030219169055818181518110610b5057fe5b60200260200101516001600160a01b03167fc15eb25d807b570f4567baf6e97c7b26d58a7d0512dc85e8db15375a056b860460405160405180910390a2600101610a78565b5050565b7f000000000000000000000000000000000000000000000000000000000000000090565b7f000000000000000000000000000000000000000000000000000000000000000090565b600080610bed83610744565b6001600160a01b0316141592915050565b7f000000000000000000000000000000000000000000000000000000000000000090565b600080610c2d610bbd565b905060005b816001600160a01b031663f9c7bba5856040518263ffffffff1660e01b815260040180826001600160a01b0316815260200191505060206040518083038186803b158015610c7f57600080fd5b505afa158015610c93573d6000803e3d6000fd5b505050506040513d6020811015610ca957600080fd5b5051811015610d5d57846001600160a01b0316826001600160a01b0316637bbfc69e86846040518363ffffffff1660e01b815260040180836001600160a01b031681526020018281526020019250505060206040518083038186803b158015610d1157600080fd5b505afa158015610d25573d6000803e3d6000fd5b505050506040513d6020811015610d3b57600080fd5b50516001600160a01b03161415610d555760019250610d5d565b600101610c32565b5081610d9a5760405162461bcd60e51b8152600401808060200182810382526033815260200180610faa6033913960400191505060405180910390fd5b826001600160a01b031663313ce5676040518163ffffffff1660e01b815260040160206040518083038186803b158015610dd357600080fd5b505afa158015610de7573d6000803e3d6000fd5b505050506040513d6020811015610dfd57600080fd5b50516040805163313ce56760e01b8152905160ff909216916001600160a01b0387169163313ce567916004808301926020929190829003018186803b158015610e4557600080fd5b505afa158015610e59573d6000803e3d6000fd5b505050506040513d6020811015610e6f57600080fd5b505160ff1614610eb05760405162461bcd60e51b815260040180806020018281038252602a815260200180610f80602a913960400191505060405180910390fd5b50505050565b600082610ec557506000610f12565b82820282848281610ed257fe5b0414610f0f5760405162461bcd60e51b815260040180806020018281038252602181526020018061106c6021913960400191505060405180910390fd5b90505b92915050565b6000808211610f6e576040805162461bcd60e51b815260206004820152601a60248201527f536166654d6174683a206469766973696f6e206279207a65726f000000000000604482015290519081900360640190fd5b818381610f7757fe5b04939250505056fe5f5f76616c6964617465446572697661746976653a20496e636f6e677275656e7420646563696d616c735f5f76616c6964617465446572697661746976653a20496e76616c696420795661756c7420666f7220756e6465726c79696e6772656d6f766544657269766174697665733a20456d707479205f64657269766174697665736f6e6c7946756e644465706c6f7965724f776e65723a204f6e6c79207468652046756e644465706c6f796572206f776e65722063616e2063616c6c20746869732066756e6374696f6e61646444657269766174697665733a2056616c756520616c726561647920736574536166654d6174683a206d756c7469706c69636174696f6e206f766572666c6f7761646444657269766174697665733a20456d707479205f646572697661746976657363616c63556e6465726c79696e6756616c7565733a20556e737570706f727465642064657269766174697665a26469706673582212205248bb2628e1d43b65694a03eb5bba93e322f86f97ba8a2652d08c080b8a88fd64736f6c634300060c0033",
  "devdoc": {
    "author": "Enzyme Council <security@enzyme.finance>",
    "kind": "dev",
    "methods": {
      "addDerivatives(address[],address[])": {
        "params": {
          "_derivatives": "The derivatives to add",
          "_underlyings": "The corresponding underlyings to add"
        }
      },
      "calcUnderlyingValues(address,uint256)": {
        "params": {
          "_derivative": "The derivative to convert",
          "_derivativeAmount": "The amount of the derivative to convert"
        },
        "returns": {
          "underlyingAmounts_": "The amount of each underlying asset for the equivalent derivative amount",
          "underlyings_": "The underlying assets for the _derivative"
        }
      },
      "getFundDeployer()": {
        "returns": {
          "fundDeployer_": "The `FUND_DEPLOYER` variable value"
        }
      },
      "getOwner()": {
        "details": "Ownership is deferred to the owner of the FundDeployer contract",
        "returns": {
          "owner_": "The owner"
        }
      },
      "getUnderlyingForDerivative(address)": {
        "params": {
          "_derivative": "The derivative for which to get the underlying asset"
        },
        "returns": {
          "underlying_": "The underlying asset"
        }
      },
      "getYearnVaultV2Registry()": {
        "returns": {
          "yearnVaultV2Registry_": "The `YEARN_VAULT_V2_REGISTRY` variable value"
        }
      },
      "isSupportedAsset(address)": {
        "params": {
          "_asset": "The asset to check"
        },
        "returns": {
          "isSupported_": "True if the asset is supported"
        }
      },
      "removeDerivatives(address[])": {
        "params": {
          "_derivatives": "The derivatives to remove"
        }
      }
    },
    "title": "YearnVaultV2PriceFeed Contract",
    "version": 1
  },
  "userdoc": {
    "kind": "user",
    "methods": {
      "addDerivatives(address[],address[])": {
        "notice": "Adds derivatives with corresponding underlyings to the price feed"
      },
      "calcUnderlyingValues(address,uint256)": {
        "notice": "Converts a given amount of a derivative to its underlying asset values"
      },
      "getFundDeployer()": {
        "notice": "Gets the `FUND_DEPLOYER` variable"
      },
      "getOwner()": {
        "notice": "Gets the owner of this contract"
      },
      "getUnderlyingForDerivative(address)": {
        "notice": "Gets the underlying asset for a given derivative"
      },
      "getYearnVaultV2Registry()": {
        "notice": "Gets the `YEARN_VAULT_V2_REGISTRY` variable"
      },
      "isSupportedAsset(address)": {
        "notice": "Checks if an asset is supported by the price feed"
      },
      "removeDerivatives(address[])": {
        "notice": "Removes derivatives from the price feed"
      }
    },
    "notice": "Price source oracle for Yearn Vault V2 shares",
    "version": 1
  },
  "storageLayout": {
    "storage": [
      {
        "astId": 43446,
        "contract": "contracts/release/infrastructure/price-feeds/derivatives/feeds/YearnVaultV2PriceFeed.sol:YearnVaultV2PriceFeed",
        "label": "derivativeToUnderlying",
        "offset": 0,
        "slot": "0",
        "type": "t_mapping(t_address,t_address)"
      }
    ],
    "types": {
      "t_address": {
        "encoding": "inplace",
        "label": "address",
        "numberOfBytes": "20"
      },
      "t_mapping(t_address,t_address)": {
        "encoding": "mapping",
        "key": "t_address",
        "label": "mapping(address => address)",
        "numberOfBytes": "32",
        "value": "t_address"
      }
    }
  }
}