{
  "address": "0x4493F5C5875a1D1A3e524344571aC39CDE61D23B",
  "abi": [
    {
      "inputs": [
        {
          "internalType": "address",
          "name": "_integrationManager",
          "type": "address"
        },
        {
          "internalType": "address",
          "name": "_exchange",
          "type": "address"
        },
        {
          "internalType": "address",
          "name": "_fundDeployer",
          "type": "address"
        },
        {
          "internalType": "address[]",
          "name": "_allowedMakers",
          "type": "address[]"
        }
      ],
      "stateMutability": "nonpayable",
      "type": "constructor"
    },
    {
      "anonymous": false,
      "inputs": [
        {
          "indexed": true,
          "internalType": "address",
          "name": "account",
          "type": "address"
        }
      ],
      "name": "AllowedMakerAdded",
      "type": "event"
    },
    {
      "anonymous": false,
      "inputs": [
        {
          "indexed": true,
          "internalType": "address",
          "name": "account",
          "type": "address"
        }
      ],
      "name": "AllowedMakerRemoved",
      "type": "event"
    },
    {
      "inputs": [],
      "name": "ADD_TRACKED_ASSETS_SELECTOR",
      "outputs": [
        {
          "internalType": "bytes4",
          "name": "",
          "type": "bytes4"
        }
      ],
      "stateMutability": "view",
      "type": "function"
    },
    {
      "inputs": [],
      "name": "APPROVE_ASSETS_SELECTOR",
      "outputs": [
        {
          "internalType": "bytes4",
          "name": "",
          "type": "bytes4"
        }
      ],
      "stateMutability": "view",
      "type": "function"
    },
    {
      "inputs": [],
      "name": "CLAIM_REWARDS_AND_REINVEST_SELECTOR",
      "outputs": [
        {
          "internalType": "bytes4",
          "name": "",
          "type": "bytes4"
        }
      ],
      "stateMutability": "view",
      "type": "function"
    },
    {
      "inputs": [],
      "name": "CLAIM_REWARDS_AND_SWAP_SELECTOR",
      "outputs": [
        {
          "internalType": "bytes4",
          "name": "",
          "type": "bytes4"
        }
      ],
      "stateMutability": "view",
      "type": "function"
    },
    {
      "inputs": [],
      "name": "CLAIM_REWARDS_SELECTOR",
      "outputs": [
        {
          "internalType": "bytes4",
          "name": "",
          "type": "bytes4"
        }
      ],
      "stateMutability": "view",
      "type": "function"
    },
    {
      "inputs": [],
      "name": "LEND_AND_STAKE_SELECTOR",
      "outputs": [
        {
          "internalType": "bytes4",
          "name": "",
          "type": "bytes4"
        }
      ],
      "stateMutability": "view",
      "type": "function"
    },
    {
      "inputs": [],
      "name": "LEND_SELECTOR",
      "outputs": [
        {
          "internalType": "bytes4",
          "name": "",
          "type": "bytes4"
        }
      ],
      "stateMutability": "view",
      "type": "function"
    },
    {
      "inputs": [],
      "name": "REDEEM_SELECTOR",
      "outputs": [
        {
          "internalType": "bytes4",
          "name": "",
          "type": "bytes4"
        }
      ],
      "stateMutability": "view",
      "type": "function"
    },
    {
      "inputs": [],
      "name": "REMOVE_TRACKED_ASSETS_SELECTOR",
      "outputs": [
        {
          "internalType": "bytes4",
          "name": "",
          "type": "bytes4"
        }
      ],
      "stateMutability": "view",
      "type": "function"
    },
    {
      "inputs": [],
      "name": "STAKE_SELECTOR",
      "outputs": [
        {
          "internalType": "bytes4",
          "name": "",
          "type": "bytes4"
        }
      ],
      "stateMutability": "view",
      "type": "function"
    },
    {
      "inputs": [],
      "name": "TAKE_ORDER_SELECTOR",
      "outputs": [
        {
          "internalType": "bytes4",
          "name": "",
          "type": "bytes4"
        }
      ],
      "stateMutability": "view",
      "type": "function"
    },
    {
      "inputs": [],
      "name": "UNSTAKE_AND_REDEEM_SELECTOR",
      "outputs": [
        {
          "internalType": "bytes4",
          "name": "",
          "type": "bytes4"
        }
      ],
      "stateMutability": "view",
      "type": "function"
    },
    {
      "inputs": [],
      "name": "UNSTAKE_SELECTOR",
      "outputs": [
        {
          "internalType": "bytes4",
          "name": "",
          "type": "bytes4"
        }
      ],
      "stateMutability": "view",
      "type": "function"
    },
    {
      "inputs": [
        {
          "internalType": "address[]",
          "name": "_accountsToAdd",
          "type": "address[]"
        }
      ],
      "name": "addAllowedMakers",
      "outputs": [],
      "stateMutability": "nonpayable",
      "type": "function"
    },
    {
      "inputs": [],
      "name": "getAdapterDeployTimestamp",
      "outputs": [
        {
          "internalType": "uint256",
          "name": "",
          "type": "uint256"
        }
      ],
      "stateMutability": "view",
      "type": "function"
    },
    {
      "inputs": [],
      "name": "getExchange",
      "outputs": [
        {
          "internalType": "address",
          "name": "exchange_",
          "type": "address"
        }
      ],
      "stateMutability": "view",
      "type": "function"
    },
    {
      "inputs": [],
      "name": "getFundDeployer",
      "outputs": [
        {
          "internalType": "address",
          "name": "fundDeployer_",
          "type": "address"
        }
      ],
      "stateMutability": "view",
      "type": "function"
    },
    {
      "inputs": [],
      "name": "getIntegrationManager",
      "outputs": [
        {
          "internalType": "address",
          "name": "integrationManager_",
          "type": "address"
        }
      ],
      "stateMutability": "view",
      "type": "function"
    },
    {
      "inputs": [],
      "name": "getOwner",
      "outputs": [
        {
          "internalType": "address",
          "name": "owner_",
          "type": "address"
        }
      ],
      "stateMutability": "view",
      "type": "function"
    },
    {
      "inputs": [],
      "name": "identifier",
      "outputs": [
        {
          "internalType": "string",
          "name": "identifier_",
          "type": "string"
        }
      ],
      "stateMutability": "pure",
      "type": "function"
    },
    {
      "inputs": [
        {
          "internalType": "address",
          "name": "_who",
          "type": "address"
        }
      ],
      "name": "isAllowedMaker",
      "outputs": [
        {
          "internalType": "bool",
          "name": "isAllowedMaker_",
          "type": "bool"
        }
      ],
      "stateMutability": "view",
      "type": "function"
    },
    {
      "inputs": [
        {
          "internalType": "bytes4",
          "name": "_selector",
          "type": "bytes4"
        },
        {
          "internalType": "bytes",
          "name": "_encodedCallArgs",
          "type": "bytes"
        }
      ],
      "name": "parseAssetsForMethod",
      "outputs": [
        {
          "internalType": "enum IIntegrationManager.SpendAssetsHandleType",
          "name": "spendAssetsHandleType_",
          "type": "uint8"
        },
        {
          "internalType": "address[]",
          "name": "spendAssets_",
          "type": "address[]"
        },
        {
          "internalType": "uint256[]",
          "name": "spendAssetAmounts_",
          "type": "uint256[]"
        },
        {
          "internalType": "address[]",
          "name": "incomingAssets_",
          "type": "address[]"
        },
        {
          "internalType": "uint256[]",
          "name": "minIncomingAssetAmounts_",
          "type": "uint256[]"
        }
      ],
      "stateMutability": "view",
      "type": "function"
    },
    {
      "inputs": [
        {
          "internalType": "address[]",
          "name": "_accountsToRemove",
          "type": "address[]"
        }
      ],
      "name": "removeAllowedMakers",
      "outputs": [],
      "stateMutability": "nonpayable",
      "type": "function"
    },
    {
      "inputs": [
        {
          "internalType": "address",
          "name": "_vaultProxy",
          "type": "address"
        },
        {
          "internalType": "bytes",
          "name": "_encodedCallArgs",
          "type": "bytes"
        },
        {
          "internalType": "bytes",
          "name": "_encodedAssetTransferArgs",
          "type": "bytes"
        }
      ],
      "name": "takeOrder",
      "outputs": [],
      "stateMutability": "nonpayable",
      "type": "function"
    }
  ],
  "transactionHash": "0x39dba1b90f0811a3649036c5271a634f390487418dc987e59f4b320e4a0fa2d0",
  "args": [
    "0x4B37f5DCA5FB2D5548e9EcEe9f98d9Ac95f60774",
    "0x080bf510fcbf18b91105470639e9561022937712",
    "0x217912B16c8A00C2D9F2fDFCA94127ca37cFe948",
    [
      "0x56178a0d5F301bAf6CF3e1Cd53d9863437345Bf9",
      "0xe0238DA09Cab56B3066F26F98657DccE801c16B9"
    ]
  ],
  "linkedData": {
    "type": "ADAPTER"
  },
  "solcInputHash": "34b1516e615d6cbcdbaf9542624efee9",
  "bytecode": "0x6101006040523480156200001257600080fd5b50604051620030c3380380620030c3833981016040819052620000359162000259565b6001600160601b0319606085811b82166080524260a05283811b821660c05284901b1660e0528051156200006e576200006e8162000078565b5050505062000411565b6000815111620000a55760405162461bcd60e51b81526004016200009c9062000370565b60405180910390fd5b60005b81518110156200019b57620000d7828281518110620000c357fe5b60200260200101516200019f60201b60201c565b15620000f75760405162461bcd60e51b81526004016200009c9062000382565b60016000808484815181106200010957fe5b60200260200101516001600160a01b03166001600160a01b0316815260200190815260200160002060006101000a81548160ff0219169083151502179055508181815181106200015557fe5b60200260200101516001600160a01b03167f2e1c3b07a83c6d2606a67771e6dd5c25722baac28ecf38e8056fb820d88536a860405160405180910390a2600101620000a8565b5050565b6001600160a01b031660009081526020819052604090205460ff1690565b8051620001ca81620003f7565b92915050565b600082601f830112620001e257600080fd5b8151620001f9620001f382620003bb565b62000394565b915081818352602084019350602081019050838560208402820111156200021f57600080fd5b60005b838110156200024f5781620002388882620001bd565b845250602092830192919091019060010162000222565b5050505092915050565b600080600080608085870312156200027057600080fd5b60006200027e8787620001bd565b94505060206200029187828801620001bd565b9350506040620002a487828801620001bd565b92505060608501516001600160401b03811115620002c157600080fd5b620002cf87828801620001d0565b91505092959194509250565b6000620002ea602883620003dc565b7f5f5f616464416c6c6f7765644d616b6572733a20456d707479205f6163636f758152671b9d1cd51bd0591960c21b602082015260400192915050565b600062000336602583620003dc565b7f5f5f616464416c6c6f7765644d616b6572733a2056616c756520616c726561648152641e481cd95d60da1b602082015260400192915050565b60208082528101620001ca81620002db565b60208082528101620001ca8162000327565b6040518181016001600160401b0381118282101715620003b357600080fd5b604052919050565b60006001600160401b03821115620003d257600080fd5b5060209081020190565b90815260200190565b60006001600160a01b038216620001ca565b6200040281620003e5565b81146200040e57600080fd5b50565b60805160601c60a05160c05160601c60e05160601c612c556200046e6000398061044f528061053852806109025280611003528061129b525080610cfc5280610d92525080610db65250806102bc5280610f975250612c556000f3fe608060405234801561001057600080fd5b50600436106101585760003560e01c8063893d20e8116100c3578063e4d904781161007c578063e4d9047814610269578063e7c4569014610271578063f075399414610279578063f7d882b514610281578063f807cd2214610289578063ff7ede371461029157610158565b8063893d20e81461021457806397c0ac8714610229578063a96de76b14610231578063b23228cf14610246578063c960260d1461024e578063e27a06b51461026157610158565b806340f8cfcf1161011557806340f8cfcf146101b05780634ce13fb0146101b85780635ca62b3c146101cb57806376cc7ac6146101d35780637998a1c4146101f7578063863e5ad01461020c57610158565b806303e38a2b1461015d578063080456c114610172578063131461c014610190578063257cb1a3146101985780633ffc1591146101a057806340da225d146101a8575b600080fd5b61017061016b366004611dbd565b6102b1565b005b61017a6105ec565b60405161018791906128f7565b60405180910390f35b61017a610610565b61017a610634565b61017a610658565b61017a61067c565b61017a6106a0565b6101706101c6366004611ed4565b6106c4565b61017a61073c565b6101e66101e1366004611f33565b610760565b604051610187959493929190612905565b6101ff610cb0565b6040516101879190612961565b61017a610cd4565b61021c610cf8565b604051610187919061287d565b61021c610d90565b610239610db4565b6040516101879190612ab4565b61017a610dd8565b61017061025c366004611ed4565b610dfc565b61017a610f4d565b61017a610f71565b61021c610f95565b61017a610fb9565b61017a610fdd565b61021c611001565b6102a461029f366004611d81565b611025565b60405161018791906128e9565b336001600160a01b037f000000000000000000000000000000000000000000000000000000000000000016146103025760405162461bcd60e51b81526004016102f990612a02565b60405180910390fd5b8482828080601f01602080910402602001604051908101604052809392919081815260200183838082843760009201829052509250606091508190508061034885611047565b92965090945092509050600184600381111561036057fe5b14156103c25760005b83518110156103c0576103b8873085848151811061038357fe5b602002602001015187858151811061039757fe5b60200260200101516001600160a01b0316611071909392919063ffffffff16565b600101610369565b505b606060006104058c8c8080601f0160208091040260200160405190810160405280939291908181526020018383808284376000920191909152506110cf92505050565b9150915061041161190d565b61041a836110f0565b905061044161042d82610160015161126a565b61043b836101600151611271565b84611327565b60e0810151156105135760607f00000000000000000000000000000000000000000000000000000000000000006001600160a01b031663db123b1a6040518163ffffffff1660e01b815260040160006040518083038186803b1580156104a657600080fd5b505afa1580156104ba573d6000803e3d6000fd5b505050506040513d6000823e601f3d908101601f191682016040526104e29190810190611f88565b90506105116104f08261126a565b6104f983611271565b61050c8560a001518660e00151886113c3565b611327565b505b606061051e846113e1565b60405163b4be83d560e01b81529094506001600160a01b037f000000000000000000000000000000000000000000000000000000000000000016935063b4be83d592506105749150859087908690600401612a82565b608060405180830381600087803b15801561058e57600080fd5b505af11580156105a2573d6000803e3d6000fd5b505050506040513d601f19601f820116820180604052508101906105c691906120a6565b50505050506105d5868261140f565b6105df868461140f565b5050505050505050505050565b7f8334eb99be0145865eba9889fca2ee920288090caefff4cc776038e20ad9259a81565b7f29fa046e79524c3c5ac4c01df692c35e217802b2b13b21121b76cf0ef02b138c81565b7f099f75155f0e997bf83a7993a71d5e7e7540bd386fe1e84643a09ce6b412521981565b7ffa7dd04da627f433da73c4355ead9c75682a67a8fc84d3f6170ef0922f402d2481565b7fb9dfbaccbe5cd2a84fdcf1d15f23ef25d23086f5afbaa99516065ed4a5bbc7a381565b7ff658eb804cc1da8af5599b584aaf3d55407a3c721c42641a6a5270e963d782c381565b6106cc610cf8565b6001600160a01b0316336001600160a01b0316146106fc5760405162461bcd60e51b81526004016102f990612982565b6107388282808060200260200160405190810160405280939291908181526020018383602002808284376000920191909152506114ee92505050565b5050565b7fdfd5ee0f6067928bf85a7c4430811282840bc99332dda3dab462c02bf95b67cc81565b600060608080806001600160e01b031988166303e38a2b60e01b146107975760405162461bcd60e51b81526004016102f9906129b2565b606060006107da89898080601f0160208091040260200160405190810160405280939291908181526020018383808284376000920191909152506110cf92505050565b915091506107e661190d565b6107ef836110f0565b90506107fe8160000151611025565b61081a5760405162461bcd60e51b81526004016102f990612a72565b8060a0015182111561083e5760405162461bcd60e51b81526004016102f9906129d2565b600061084e82610140015161126a565b9050600061086083610160015161126a565b60408051600180825281830190925291925060208083019080368337019050509650818760008151811061089057fe5b6001600160a01b03929092166020928302919091018201526040805160018082528183019092529182810190803683370190505095506108d98360a001518460800151866113c3565b866000815181106108e657fe5b602090810291909101015260e083015115610c1d57600061099a7f00000000000000000000000000000000000000000000000000000000000000006001600160a01b031663db123b1a6040518163ffffffff1660e01b815260040160006040518083038186803b15801561095957600080fd5b505afa15801561096d573d6000803e3d6000fd5b505050506040513d6000823e601f3d908101601f191682016040526109959190810190611f88565b61126a565b905060006109b18560a001518660e00151886113c3565b9050836001600160a01b0316826001600160a01b03161415610ab75784608001518560e00151106109f45760405162461bcd60e51b81526004016102f9906129f2565b6040805160018082528183019092529060208083019080368337019050509a50828b600081518110610a2257fe5b6001600160a01b0392909216602092830291909101820152604080516001808252818301909252918281019080368337019050509950858a600081518110610a6657fe5b602002602001018181525050610a998189600081518110610a8357fe5b60200260200101516115f590919063ffffffff16565b88600081518110610aa657fe5b602002602001018181525050610c16565b826001600160a01b0316826001600160a01b03161415610b4c576040805160018082528183019092529060208083019080368337019050509a50828b600081518110610aff57fe5b6001600160a01b0392909216602092830291909101820152604080516001808252818301909252918281019080368337019050509950610b3f8682611622565b8a600081518110610aa657fe5b6040805160028082526060820183529091602083019080368337019050509a50828b600081518110610b7a57fe5b60200260200101906001600160a01b031690816001600160a01b031681525050818b600181518110610ba857fe5b6001600160a01b0392909216602092830291909101820152604080516002808252606082018352909290919083019080368337019050509950858a600081518110610bef57fe5b602002602001018181525050808a600181518110610c0957fe5b6020026020010181815250505b5050610c9c565b60408051600180825281830190925290602080830190803683370190505098508089600081518110610c4b57fe5b6001600160a01b03929092166020928302919091018201526040805160018082528183019092529182810190803683370190505097508388600081518110610c8f57fe5b6020026020010181815250505b600299505050505050939792965093509350565b60408051808201909152600a8152692d22a927afa2ac2fab1960b11b602082015290565b7f03e38a2bd7063d45c897edeafc330e71657502dd86434d3c37a489caf116af6981565b60007f00000000000000000000000000000000000000000000000000000000000000006001600160a01b031663893d20e86040518163ffffffff1660e01b815260040160206040518083038186803b158015610d5357600080fd5b505afa158015610d67573d6000803e3d6000fd5b505050506040513d601f19601f82011682018060405250810190610d8b9190611d9f565b905090565b7f000000000000000000000000000000000000000000000000000000000000000090565b7f000000000000000000000000000000000000000000000000000000000000000090565b7f68e30677f607df46e87da13e15b637784cfa62374b653f35ab43d10361a2f83081565b610e04610cf8565b6001600160a01b0316336001600160a01b031614610e345760405162461bcd60e51b81526004016102f990612982565b80610e515760405162461bcd60e51b81526004016102f990612972565b60005b81811015610f4857610e80838383818110610e6b57fe5b905060200201602081019061029f9190611d81565b610e9c5760405162461bcd60e51b81526004016102f990612a62565b6000806000858585818110610ead57fe5b9050602002016020810190610ec29190611d81565b6001600160a01b031681526020810191909152604001600020805460ff1916911515919091179055828282818110610ef657fe5b9050602002016020810190610f0b9190611d81565b6001600160a01b03167f20bc817441764d1758bec8956a90bf0ba498c8c4098524577f7c068d3c9f8c3660405160405180910390a2600101610e54565b505050565b7f848f3a590fb2f9795d1a275009c54c26c53833277c96b90e0ddd01753a1d590681565b7f3377e18acf9e83665eacd6af109261424fca32a298e2fc2e6095ba563fb8390e81565b7f000000000000000000000000000000000000000000000000000000000000000090565b7f1d51f49b5273d9ddbb643dc349fab8d36dbb470209c2ea71033bea49dd311c2781565b7fc29fa9dde84204c2908778afd0613d802d31cf046179b88f6d2b4a4e507ea2d581565b7f000000000000000000000000000000000000000000000000000000000000000090565b6001600160a01b03811660009081526020819052604090205460ff165b919050565b6000606080606084806020019051810190611062919061200c565b93509350935093509193509193565b6110c9846323b872dd60e01b858585604051602401611092939291906128a6565b60408051601f198184030181529190526020810180516001600160e01b03166001600160e01b031990931692909217909152611647565b50505050565b60606000828060200190518101906110e79190611fbc565b91509150915091565b6110f861190d565b611100611992565b6111086119b0565b6111106119ce565b611119856113e1565b509250925092506040518061018001604052808460006004811061113957fe5b60200201516001600160a01b031681526020018460016004811061115957fe5b60200201516001600160a01b031681526020018460026004811061117957fe5b60200201516001600160a01b031681526020018460036004811061119957fe5b60200201516001600160a01b03168152602001836000600681106111b957fe5b60200201518152602001836001600681106111d057fe5b60200201518152602001836002600681106111e757fe5b60200201518152602001836003600681106111fe57fe5b602002015181526020018360046006811061121557fe5b602002015181526020018360056006811061122c57fe5b602002015181526020018260006002811061124357fe5b602002015181526020018260016002811061125a57fe5b6020020151905295945050505050565b6024015190565b6020810151604051630c0e082160e31b81526000916001600160e01b031916906001600160a01b037f000000000000000000000000000000000000000000000000000000000000000016906360704108906112d09084906004016128f7565b60206040518083038186803b1580156112e857600080fd5b505afa1580156112fc573d6000803e3d6000fd5b505050506040513d601f19601f820116820180604052508101906113209190611d9f565b9392505050565b604051636eb1769f60e11b815281906001600160a01b0385169063dd62ed3e90611357903090879060040161288b565b60206040518083038186803b15801561136f57600080fd5b505afa158015611383573d6000803e3d6000fd5b505050506040513d601f19601f820116820180604052508101906113a791906120c4565b1015610f4857610f486001600160a01b038416836000196116d6565b60006113d9846113d38486611799565b906117d3565b949350505050565b6113e9611992565b6113f16119b0565b6113f96119ce565b6060848060200190518101906110629190611e42565b60005b8151811015610f4857600082828151811061142957fe5b60200260200101516001600160a01b03166370a08231306040518263ffffffff1660e01b815260040161145c919061287d565b60206040518083038186803b15801561147457600080fd5b505afa158015611488573d6000803e3d6000fd5b505050506040513d601f19601f820116820180604052508101906114ac91906120c4565b905080156114e5576114e584828585815181106114c557fe5b60200260200101516001600160a01b03166118059092919063ffffffff16565b50600101611412565b600081511161150f5760405162461bcd60e51b81526004016102f9906129a2565b60005b81518110156107385761153782828151811061152a57fe5b6020026020010151611025565b156115545760405162461bcd60e51b81526004016102f990612a32565b600160008084848151811061156557fe5b60200260200101516001600160a01b03166001600160a01b0316815260200190815260200160002060006101000a81548160ff0219169083151502179055508181815181106115b057fe5b60200260200101516001600160a01b03167f2e1c3b07a83c6d2606a67771e6dd5c25722baac28ecf38e8056fb820d88536a860405160405180910390a2600101611512565b6000828211156116175760405162461bcd60e51b81526004016102f9906129c2565b508082035b92915050565b6000828201838110156113205760405162461bcd60e51b81526004016102f990612992565b606061169c826040518060400160405280602081526020017f5361666545524332303a206c6f772d6c6576656c2063616c6c206661696c6564815250856001600160a01b03166118249092919063ffffffff16565b805190915015610f4857808060200190518101906116ba9190611f15565b610f485760405162461bcd60e51b81526004016102f990612a42565b80158061175e5750604051636eb1769f60e11b81526001600160a01b0384169063dd62ed3e9061170c903090869060040161288b565b60206040518083038186803b15801561172457600080fd5b505afa158015611738573d6000803e3d6000fd5b505050506040513d601f19601f8201168201806040525081019061175c91906120c4565b155b61177a5760405162461bcd60e51b81526004016102f990612a52565b610f488363095ea7b360e01b84846040516024016110929291906128ce565b6000826117a85750600061161c565b828202828482816117b557fe5b04146113205760405162461bcd60e51b81526004016102f990612a12565b60008082116117f45760405162461bcd60e51b81526004016102f9906129e2565b8183816117fd57fe5b049392505050565b610f488363a9059cbb60e01b84846040516024016110929291906128ce565b60606113d9848460008585611838856118ce565b6118545760405162461bcd60e51b81526004016102f990612a22565b60006060866001600160a01b031685876040516118719190612871565b60006040518083038185875af1925050503d80600081146118ae576040519150601f19603f3d011682016040523d82523d6000602084013e6118b3565b606091505b50915091506118c38282866118d4565b979650505050505050565b3b151590565b606083156118e3575081611320565b8251156118f35782518084602001fd5b8160405162461bcd60e51b81526004016102f99190612961565b60405180610180016040528060006001600160a01b0316815260200160006001600160a01b0316815260200160006001600160a01b0316815260200160006001600160a01b0316815260200160008152602001600081526020016000815260200160008152602001600081526020016000815260200160608152602001606081525090565b60405180608001604052806004906020820280368337509192915050565b6040518060c001604052806006906020820280368337509192915050565b60405180604001604052806002905b60608152602001906001900390816119dd5790505090565b803561161c81612be3565b805161161c81612be3565b600082601f830112611a1c57600080fd5b6004611a2f611a2a82612ae8565b612ac2565b91508183856020840282011115611a4557600080fd5b60005b83811015611a715781611a5b8882611a00565b8452506020928301929190910190600101611a48565b5050505092915050565b60008083601f840112611a8d57600080fd5b5081356001600160401b03811115611aa457600080fd5b602083019150836020820283011115611abc57600080fd5b9250929050565b600082601f830112611ad457600080fd5b8151611ae2611a2a82612b05565b91508181835260208401935060208101905083856020840282011115611b0757600080fd5b60005b83811015611a715781611b1d8882611a00565b8452506020928301929190910190600101611b0a565b600082601f830112611b4457600080fd5b6002611b52611a2a82612ae8565b9150818360005b83811015611a715781518601611b6f8882611cad565b8452506020928301929190910190600101611b59565b600082601f830112611b9657600080fd5b6006611ba4611a2a82612ae8565b91508183856020840282011115611bba57600080fd5b60005b83811015611a715781611bd08882611d76565b8452506020928301929190910190600101611bbd565b600082601f830112611bf757600080fd5b8151611c05611a2a82612b05565b91508181835260208401935060208101905083856020840282011115611c2a57600080fd5b60005b83811015611a715781611c408882611d76565b8452506020928301929190910190600101611c2d565b805161161c81612bf7565b803561161c81612c00565b60008083601f840112611c7e57600080fd5b5081356001600160401b03811115611c9557600080fd5b602083019150836001820283011115611abc57600080fd5b600082601f830112611cbe57600080fd5b8151611ccc611a2a82612b25565b91508082526020830160208301858383011115611ce857600080fd5b611cf3838284612ba0565b50505092915050565b805161161c81612c09565b600060808284031215611d1957600080fd5b611d236080612ac2565b90506000611d318484611d76565b8252506020611d4284848301611d76565b6020830152506040611d5684828501611d76565b6040830152506060611d6a84828501611d76565b60608301525092915050565b805161161c81612c16565b600060208284031215611d9357600080fd5b60006113d984846119f5565b600060208284031215611db157600080fd5b60006113d98484611a00565b600080600080600060608688031215611dd557600080fd5b6000611de188886119f5565b95505060208601356001600160401b03811115611dfd57600080fd5b611e0988828901611c6c565b945094505060408601356001600160401b03811115611e2757600080fd5b611e3388828901611c6c565b92509250509295509295909350565b6000806000806101808587031215611e5957600080fd5b6000611e658787611a0b565b9450506080611e7687828801611b85565b9350506101408501516001600160401b03811115611e9357600080fd5b611e9f87828801611b33565b9250506101608501516001600160401b03811115611ebc57600080fd5b611ec887828801611cad565b91505092959194509250565b60008060208385031215611ee757600080fd5b82356001600160401b03811115611efd57600080fd5b611f0985828601611a7b565b92509250509250929050565b600060208284031215611f2757600080fd5b60006113d98484611c56565b600080600060408486031215611f4857600080fd5b6000611f548686611c61565b93505060208401356001600160401b03811115611f7057600080fd5b611f7c86828701611c6c565b92509250509250925092565b600060208284031215611f9a57600080fd5b81516001600160401b03811115611fb057600080fd5b6113d984828501611cad565b60008060408385031215611fcf57600080fd5b82516001600160401b03811115611fe557600080fd5b611ff185828601611cad565b925050602061200285828601611d76565b9150509250929050565b6000806000806080858703121561202257600080fd5b600061202e8787611cfc565b94505060208501516001600160401b0381111561204a57600080fd5b61205687828801611ac3565b93505060408501516001600160401b0381111561207257600080fd5b61207e87828801611be6565b92505060608501516001600160401b0381111561209a57600080fd5b611ec887828801611ac3565b6000608082840312156120b857600080fd5b60006113d98484611d07565b6000602082840312156120d657600080fd5b60006113d98484611d76565b60006120ee8383612102565b505060200190565b60006120ee8383612868565b61210b81612b5f565b82525050565b600061211c82612b52565b6121268185612b56565b935061213183612b4c565b8060005b8381101561215f57815161214988826120e2565b975061215483612b4c565b925050600101612135565b509495945050505050565b600061217582612b52565b61217f8185612b56565b935061218a83612b4c565b8060005b8381101561215f5781516121a288826120f6565b97506121ad83612b4c565b92505060010161218e565b61210b81612b6a565b61210b81612b6f565b60006121d582612b52565b6121df8185612b56565b93506121ef818560208601612ba0565b6121f881612bcc565b9093019392505050565b600061220d82612b52565b6122178185611042565b9350612227818560208601612ba0565b9290920192915050565b61210b81612b95565b6000612247602c83612b56565b7f72656d6f7665416c6c6f7765644d616b6572733a20456d707479205f6163636f81526b756e7473546f52656d6f766560a01b602082015260400192915050565b6000612295604983612b56565b7f6f6e6c7946756e644465706c6f7965724f776e65723a204f6e6c79207468652081527f46756e644465706c6f796572206f776e65722063616e2063616c6c207468697360208201526810333ab731ba34b7b760b91b604082015260600192915050565b6000612306601b83612b56565b7f536166654d6174683a206164646974696f6e206f766572666c6f770000000000815260200192915050565b600061233f602883612b56565b7f5f5f616464416c6c6f7765644d616b6572733a20456d707479205f6163636f758152671b9d1cd51bd0591960c21b602082015260400192915050565b6000612389602783612b56565b7f7061727365417373657473466f724d6574686f643a205f73656c6563746f72208152661a5b9d985b1a5960ca1b602082015260400192915050565b60006123d2601e83612b56565b7f536166654d6174683a207375627472616374696f6e206f766572666c6f770000815260200192915050565b600061240b604483612b56565b7f7061727365417373657473466f724d6574686f643a2054616b6572206173736581527f742066696c6c20616d6f756e742067726561746572207468616e20617661696c60208201526361626c6560e01b604082015260600192915050565b6000612477601a83612b56565b7f536166654d6174683a206469766973696f6e206279207a65726f000000000000815260200192915050565b60006124b0603783612b56565b7f7061727365417373657473466f724d6574686f643a204665652067726561746581527f72207468616e206d616b65724173736574416d6f756e74000000000000000000602082015260400192915050565b600061250f603283612b56565b7f4f6e6c792074686520496e746567726174696f6e4d616e616765722063616e2081527131b0b636103a3434b990333ab731ba34b7b760711b602082015260400192915050565b6000612563602183612b56565b7f536166654d6174683a206d756c7469706c69636174696f6e206f766572666c6f8152607760f81b602082015260400192915050565b60006125a6601d83612b56565b7f416464726573733a2063616c6c20746f206e6f6e2d636f6e7472616374000000815260200192915050565b60006125df602583612b56565b7f5f5f616464416c6c6f7765644d616b6572733a2056616c756520616c726561648152641e481cd95d60da1b602082015260400192915050565b6000612626602a83612b56565b7f5361666545524332303a204552433230206f7065726174696f6e20646964206e8152691bdd081cdd58d8d9595960b21b602082015260400192915050565b6000612672603683612b56565b7f5361666545524332303a20617070726f76652066726f6d206e6f6e2d7a65726f81527520746f206e6f6e2d7a65726f20616c6c6f77616e636560501b602082015260400192915050565b60006126ca603483612b56565b7f72656d6f7665416c6c6f7765644d616b6572733a204163636f756e74206973208152733737ba1030b71030b63637bbb2b21036b0b5b2b960611b602082015260400192915050565b6000612720603083612b56565b7f7061727365417373657473466f724d6574686f643a204f72646572206d616b6581526f1c881a5cc81b9bdd08185b1b1bddd95960821b602082015260400192915050565b805160009061018084019061277a8582612102565b50602083015161278d6020860182612102565b5060408301516127a06040860182612102565b5060608301516127b36060860182612102565b5060808301516127c66080860182612868565b5060a08301516127d960a0860182612868565b5060c08301516127ec60c0860182612868565b5060e08301516127ff60e0860182612868565b50610100830151612814610100860182612868565b50610120830151612829610120860182612868565b5061014083015184820361014086015261284382826121ca565b91505061016083015184820361016086015261285f82826121ca565b95945050505050565b61210b81612b92565b60006113208284612202565b6020810161161c8284612102565b604081016128998285612102565b6113206020830184612102565b606081016128b48286612102565b6128c16020830185612102565b6113d96040830184612868565b604081016128dc8285612102565b6113206020830184612868565b6020810161161c82846121b8565b6020810161161c82846121c1565b60a081016129138288612231565b81810360208301526129258187612111565b90508181036040830152612939818661216a565b9050818103606083015261294d8185612111565b905081810360808301526118c3818461216a565b6020808252810161132081846121ca565b6020808252810161161c8161223a565b6020808252810161161c81612288565b6020808252810161161c816122f9565b6020808252810161161c81612332565b6020808252810161161c8161237c565b6020808252810161161c816123c5565b6020808252810161161c816123fe565b6020808252810161161c8161246a565b6020808252810161161c816124a3565b6020808252810161161c81612502565b6020808252810161161c81612556565b6020808252810161161c81612599565b6020808252810161161c816125d2565b6020808252810161161c81612619565b6020808252810161161c81612665565b6020808252810161161c816126bd565b6020808252810161161c81612713565b60608082528101612a938186612765565b9050612aa26020830185612868565b818103604083015261285f81846121ca565b6020810161161c8284612868565b6040518181016001600160401b0381118282101715612ae057600080fd5b604052919050565b60006001600160401b03821115612afe57600080fd5b5060200290565b60006001600160401b03821115612b1b57600080fd5b5060209081020190565b60006001600160401b03821115612b3b57600080fd5b506020601f91909101601f19160190565b60200190565b5190565b90815260200190565b600061161c82612b86565b151590565b6001600160e01b03191690565b8061104281612bd6565b6001600160a01b031690565b90565b600061161c82612b7c565b60005b83811015612bbb578181015183820152602001612ba3565b838111156110c95750506000910152565b601f01601f191690565b60048110612be057fe5b50565b612bec81612b5f565b8114612be057600080fd5b612bec81612b6a565b612bec81612b6f565b60048110612be057600080fd5b612bec81612b9256fea264697066735822122050fdaeee9df244f99150c7342ef55e53b5cf81fb08580c4090766ce24bcf183d64736f6c634300060c0033",
  "devdoc": {
    "author": "Enzyme Council <security@enzyme.finance>",
    "kind": "dev",
    "methods": {
      "addAllowedMakers(address[])": {
        "params": {
          "_accountsToAdd": "Accounts to add"
        }
      },
      "getExchange()": {
        "returns": {
          "exchange_": "The `EXCHANGE` variable value"
        }
      },
      "getFundDeployer()": {
        "returns": {
          "fundDeployer_": "The `FUND_DEPLOYER` variable value"
        }
      },
      "getIntegrationManager()": {
        "returns": {
          "integrationManager_": "The `INTEGRATION_MANAGER` variable value"
        }
      },
      "getOwner()": {
        "details": "Ownership is deferred to the owner of the FundDeployer contract",
        "returns": {
          "owner_": "The owner"
        }
      },
      "identifier()": {
        "returns": {
          "identifier_": "The identifer string"
        }
      },
      "isAllowedMaker(address)": {
        "params": {
          "_who": "The account to check"
        },
        "returns": {
          "isAllowedMaker_": "True if _who is an allowed maker"
        }
      },
      "parseAssetsForMethod(bytes4,bytes)": {
        "params": {
          "_encodedCallArgs": "The encoded parameters for the callOnIntegration",
          "_selector": "The function selector for the callOnIntegration"
        },
        "returns": {
          "incomingAssets_": "The assets to receive in the call",
          "minIncomingAssetAmounts_": "The min asset amounts to receive in the call",
          "spendAssetAmounts_": "The max asset amounts to spend in the call",
          "spendAssetsHandleType_": "A type that dictates how to handle granting the adapter access to spend assets (`None` by default)",
          "spendAssets_": "The assets to spend in the call"
        }
      },
      "removeAllowedMakers(address[])": {
        "params": {
          "_accountsToRemove": "Accounts to remove"
        }
      },
      "takeOrder(address,bytes,bytes)": {
        "params": {
          "_encodedAssetTransferArgs": "Encoded args for expected assets to spend and receive",
          "_encodedCallArgs": "Encoded order parameters",
          "_vaultProxy": "The VaultProxy of the calling fund"
        }
      }
    },
    "title": "ZeroExV2Adapter Contract",
    "version": 1
  },
  "userdoc": {
    "kind": "user",
    "methods": {
      "addAllowedMakers(address[])": {
        "notice": "Adds accounts to the list of allowed 0x order makers"
      },
      "getExchange()": {
        "notice": "Gets the `EXCHANGE` variable value"
      },
      "getFundDeployer()": {
        "notice": "Gets the `FUND_DEPLOYER` variable"
      },
      "getIntegrationManager()": {
        "notice": "Gets the `INTEGRATION_MANAGER` variable"
      },
      "getOwner()": {
        "notice": "Gets the owner of this contract"
      },
      "identifier()": {
        "notice": "Provides a constant string identifier for an adapter"
      },
      "isAllowedMaker(address)": {
        "notice": "Checks whether an account is an allowed maker of 0x orders"
      },
      "parseAssetsForMethod(bytes4,bytes)": {
        "notice": "Parses the expected assets to receive from a call on integration"
      },
      "removeAllowedMakers(address[])": {
        "notice": "Removes accounts from the list of allowed 0x order makers"
      },
      "takeOrder(address,bytes,bytes)": {
        "notice": "Take an order on 0x"
      }
    },
    "notice": "Adapter to 0xV2 Exchange Contract",
    "version": 1
  },
  "storageLayout": {
    "storage": [
      {
        "astId": 33252,
        "contract": "contracts/release/extensions/integration-manager/integrations/adapters/ZeroExV2Adapter.sol:ZeroExV2Adapter",
        "label": "makerToIsAllowed",
        "offset": 0,
        "slot": "0",
        "type": "t_mapping(t_address,t_bool)"
      }
    ],
    "types": {
      "t_address": {
        "encoding": "inplace",
        "label": "address",
        "numberOfBytes": "20"
      },
      "t_bool": {
        "encoding": "inplace",
        "label": "bool",
        "numberOfBytes": "1"
      },
      "t_mapping(t_address,t_bool)": {
        "encoding": "mapping",
        "key": "t_address",
        "label": "mapping(address => bool)",
        "numberOfBytes": "32",
        "value": "t_bool"
      }
    }
  }
}