{
  "address": "0xC79cF886A468a06e777075e6799C610bb2623835",
  "abi": [
    {
      "anonymous": false,
      "inputs": [
        {
          "indexed": true,
          "internalType": "address",
          "name": "requestOwner",
          "type": "address"
        },
        {
          "indexed": false,
          "internalType": "uint256",
          "name": "investmentAmount",
          "type": "uint256"
        },
        {
          "indexed": false,
          "internalType": "uint256",
          "name": "minSharesQuantity",
          "type": "uint256"
        }
      ],
      "name": "RequestCanceled",
      "type": "event"
    },
    {
      "anonymous": false,
      "inputs": [
        {
          "indexed": true,
          "internalType": "address",
          "name": "requestOwner",
          "type": "address"
        },
        {
          "indexed": false,
          "internalType": "uint256",
          "name": "investmentAmount",
          "type": "uint256"
        },
        {
          "indexed": false,
          "internalType": "uint256",
          "name": "minSharesQuantity",
          "type": "uint256"
        }
      ],
      "name": "RequestCreated",
      "type": "event"
    },
    {
      "anonymous": false,
      "inputs": [
        {
          "indexed": true,
          "internalType": "address",
          "name": "caller",
          "type": "address"
        },
        {
          "indexed": true,
          "internalType": "address",
          "name": "requestOwner",
          "type": "address"
        },
        {
          "indexed": false,
          "internalType": "uint256",
          "name": "investmentAmount",
          "type": "uint256"
        },
        {
          "indexed": false,
          "internalType": "uint256",
          "name": "minSharesQuantity",
          "type": "uint256"
        }
      ],
      "name": "RequestExecuted",
      "type": "event"
    },
    {
      "anonymous": false,
      "inputs": [
        {
          "indexed": true,
          "internalType": "address",
          "name": "account",
          "type": "address"
        }
      ],
      "name": "RequestExecutorAdded",
      "type": "event"
    },
    {
      "anonymous": false,
      "inputs": [
        {
          "indexed": true,
          "internalType": "address",
          "name": "account",
          "type": "address"
        }
      ],
      "name": "RequestExecutorRemoved",
      "type": "event"
    },
    {
      "inputs": [
        {
          "internalType": "address[]",
          "name": "_requestExecutors",
          "type": "address[]"
        }
      ],
      "name": "addRequestExecutors",
      "outputs": [],
      "stateMutability": "nonpayable",
      "type": "function"
    },
    {
      "inputs": [],
      "name": "cancelRequest",
      "outputs": [],
      "stateMutability": "nonpayable",
      "type": "function"
    },
    {
      "inputs": [
        {
          "internalType": "uint256",
          "name": "_investmentAmount",
          "type": "uint256"
        },
        {
          "internalType": "uint256",
          "name": "_minSharesQuantity",
          "type": "uint256"
        }
      ],
      "name": "createRequest",
      "outputs": [],
      "stateMutability": "nonpayable",
      "type": "function"
    },
    {
      "inputs": [
        {
          "internalType": "address[]",
          "name": "_requestOwners",
          "type": "address[]"
        }
      ],
      "name": "executeRequests",
      "outputs": [],
      "stateMutability": "nonpayable",
      "type": "function"
    },
    {
      "inputs": [],
      "name": "getComptrollerProxy",
      "outputs": [
        {
          "internalType": "address",
          "name": "comptrollerProxy_",
          "type": "address"
        }
      ],
      "stateMutability": "view",
      "type": "function"
    },
    {
      "inputs": [],
      "name": "getDenominationAsset",
      "outputs": [
        {
          "internalType": "address",
          "name": "denominationAsset_",
          "type": "address"
        }
      ],
      "stateMutability": "view",
      "type": "function"
    },
    {
      "inputs": [],
      "name": "getFundOwner",
      "outputs": [
        {
          "internalType": "address",
          "name": "fundOwner_",
          "type": "address"
        }
      ],
      "stateMutability": "view",
      "type": "function"
    },
    {
      "inputs": [
        {
          "internalType": "address",
          "name": "_requestOwner",
          "type": "address"
        }
      ],
      "name": "getSharesRequestInfoForOwner",
      "outputs": [
        {
          "components": [
            {
              "internalType": "uint256",
              "name": "investmentAmount",
              "type": "uint256"
            },
            {
              "internalType": "uint256",
              "name": "minSharesQuantity",
              "type": "uint256"
            }
          ],
          "internalType": "struct AuthUserExecutedSharesRequestorLib.RequestInfo",
          "name": "requestInfo_",
          "type": "tuple"
        }
      ],
      "stateMutability": "view",
      "type": "function"
    },
    {
      "inputs": [
        {
          "internalType": "address",
          "name": "_comptrollerProxy",
          "type": "address"
        }
      ],
      "name": "init",
      "outputs": [],
      "stateMutability": "nonpayable",
      "type": "function"
    },
    {
      "inputs": [
        {
          "internalType": "address",
          "name": "_who",
          "type": "address"
        }
      ],
      "name": "isRequestExecutor",
      "outputs": [
        {
          "internalType": "bool",
          "name": "isRequestExecutor_",
          "type": "bool"
        }
      ],
      "stateMutability": "view",
      "type": "function"
    },
    {
      "inputs": [
        {
          "internalType": "address[]",
          "name": "_requestExecutors",
          "type": "address[]"
        }
      ],
      "name": "removeRequestExecutors",
      "outputs": [],
      "stateMutability": "nonpayable",
      "type": "function"
    }
  ],
  "transactionHash": "0x06ddf6a4e5ec7693df101e436da425d3767ceeb6cbfaa7ccc08d6a9d029e35dd",
  "args": [],
  "solcInputHash": "a255b7352a771229d5d6ada28c33f53e",
  "bytecode": "0x608060405234801561001057600080fd5b50611e00806100206000396000f3fe608060405234801561001057600080fd5b50600436106100a95760003560e01c8063a587208511610071578063a58720851461011a578063e269c3d61461012d578063e5596e0b14610142578063e5ce964c1461014a578063e81e69f31461016a578063e95e966514610172576100a9565b806319ab453c146100ae5780632cbba7d3146100c357806363c6ded3146100ec578063851b16f5146100ff5780639f104a9214610107575b600080fd5b6100c16100bc366004611276565b610185565b005b6100d66100d1366004611276565b610370565b6040516100e39190611cd0565b60405180910390f35b6100c16100fa366004611365565b6103ab565b6100c16104be565b6100c16101153660046112b2565b610593565b6100c16101283660046112b2565b6106d7565b610135610856565b6040516100e39190611ad3565b610135610865565b61015d610158366004611276565b610874565b6040516100e39190611b81565b610135610892565b6100c16101803660046112b2565b6108a1565b6000546001600160a01b0316156101b75760405162461bcd60e51b81526004016101ae90611c40565b60405180910390fd5b600080546001600160a01b0319166001600160a01b03831690811790915560408051637134e1eb60e11b8152905183929163e269c3d6916004808301926020929190829003018186803b15801561020d57600080fd5b505afa158015610221573d6000803e3d6000fd5b505050506040513d601f19601f820116820180604052508101906102459190611294565b600160006101000a8154816001600160a01b0302191690836001600160a01b03160217905550806001600160a01b031663c98091876040518163ffffffff1660e01b815260040160206040518083038186803b1580156102a457600080fd5b505afa1580156102b8573d6000803e3d6000fd5b505050506040513d601f19601f820116820180604052508101906102dc9190611294565b6001600160a01b031663893d20e86040518163ffffffff1660e01b815260040160206040518083038186803b15801561031457600080fd5b505afa158015610328573d6000803e3d6000fd5b505050506040513d601f19601f8201168201806040525081019061034c9190611294565b600280546001600160a01b0319166001600160a01b03929092169190911790555050565b61037861115d565b506001600160a01b0316600090815260036020908152604091829020825180840190935280548352600101549082015290565b600082116103cb5760405162461bcd60e51b81526004016101ae90611be0565b33600090815260036020526040902054156103f85760405162461bcd60e51b81526004016101ae90611c60565b61040442610258610a7e565b33600090815260056020526040902054106104315760405162461bcd60e51b81526004016101ae90611c10565b6040805180820182528381526020808201848152336000818152600390935293909120915182555160019182015554610477916001600160a01b03909116903085610aab565b336001600160a01b03167f7920722cc1545f7b96cbc17d5dad10302e32f646bdb446d0a56fcce0438dd06483836040516104b2929190611cde565b60405180910390a25050565b6104c661115d565b503360009081526003602090815260409182902082518084019093528054808452600190910154918301919091526105105760405162461bcd60e51b81526004016101ae90611ba0565b3360008181526003602090815260408083208381556001908101849055600590925290912042905582519054610551926001600160a01b0390911691610b09565b8051602082015160405133927f77ee4dcb924053b0e6262c0e701fa62a15a48d35a9e0bf01d628edb1139d0d619261058892611cde565b60405180910390a250565b6002546001600160a01b031633146105bd5760405162461bcd60e51b81526004016101ae90611bd0565b806105da5760405162461bcd60e51b81526004016101ae90611cb0565b60005b818110156106d2576106098383838181106105f457fe5b90506020020160208101906101589190611276565b6106255760405162461bcd60e51b81526004016101ae90611c20565b60006004600085858581811061063757fe5b905060200201602081019061064c9190611276565b6001600160a01b031681526020810191909152604001600020805460ff191691151591909117905582828281811061068057fe5b90506020020160208101906106959190611276565b6001600160a01b03167faeabda8cc4494292c49f0098431ac74fcb49f6ace1575dd156dcfcf31411c46160405160405180910390a26001016105dd565b505050565b6002546001600160a01b031633146107015760405162461bcd60e51b81526004016101ae90611bd0565b8061071e5760405162461bcd60e51b81526004016101ae90611cc0565b60005b818110156106d2576107388383838181106105f457fe5b156107555760405162461bcd60e51b81526004016101ae90611c50565b6002546001600160a01b031683838381811061076d57fe5b90506020020160208101906107829190611276565b6001600160a01b031614156107a95760405162461bcd60e51b81526004016101ae90611bb0565b6001600460008585858181106107bb57fe5b90506020020160208101906107d09190611276565b6001600160a01b031681526020810191909152604001600020805460ff191691151591909117905582828281811061080457fe5b90506020020160208101906108199190611276565b6001600160a01b03167fa355236bf4ec3fce55192677eeb1e5f0cf1b609f95c7b29f633d29091603759f60405160405180910390a2600101610721565b6001546001600160a01b031690565b6002546001600160a01b031690565b6001600160a01b031660009081526004602052604090205460ff1690565b6000546001600160a01b031690565b6002546001600160a01b03163314806108be57506108be33610874565b6108da5760405162461bcd60e51b81526004016101ae90611c30565b806108f75760405162461bcd60e51b81526004016101ae90611c70565b6060806060600061093a868680806020026020016040519081016040528093929190818152602001838360200280828437600092019190915250610b2892505050565b600054600154604051636eb1769f60e11b815295995093975091955093506001600160a01b03908116929116908390829063dd62ed3e906109819030908790600401611ae1565b60206040518083038186803b15801561099957600080fd5b505afa1580156109ad573d6000803e3d6000fd5b505050506040513d601f19601f820116820180604052508101906109d19190611347565b10156109ed576109ed6001600160a01b03821683600019610ec8565b60405163f9f585dd60e01b81526001600160a01b0383169063f9f585dd90610a1d90899089908990600401611b3f565b600060405180830381600087803b158015610a3757600080fd5b505af1158015610a4b573d6000803e3d6000fd5b505050506040513d6000823e601f3d908101601f19168201604052610a7391908101906112f4565b505050505050505050565b600082821115610aa05760405162461bcd60e51b81526004016101ae90611bf0565b508082035b92915050565b610b03846323b872dd60e01b858585604051602401610acc93929190611afc565b60408051601f198184030181529190526020810180516001600160e01b03166001600160e01b031990931692909217909152610f8b565b50505050565b6106d28363a9059cbb60e01b8484604051602401610acc929190611b24565b6060806060600080855190506060865167ffffffffffffffff81118015610b4e57600080fd5b50604051908082528060200260200182016040528015610b78578160200160208202803683370190505b50905060005b8751811015610c075760036000898381518110610b9757fe5b60200260200101516001600160a01b03166001600160a01b0316815260200190815260200160002060000154828281518110610bcf57fe5b602002602001018181525050818181518110610be757fe5b602002602001015160001415610bff57600019909201915b600101610b7e565b508167ffffffffffffffff81118015610c1f57600080fd5b50604051908082528060200260200182016040528015610c49578160200160208202803683370190505b5095508167ffffffffffffffff81118015610c6357600080fd5b50604051908082528060200260200182016040528015610c8d578160200160208202803683370190505b5094508167ffffffffffffffff81118015610ca757600080fd5b50604051908082528060200260200182016040528015610cd1578160200160208202803683370190505b5093506000805b8851811015610ebd57828181518110610ced57fe5b602002602001015160001415610d0257610eb5565b888181518110610d0e57fe5b6020026020010151888381518110610d2257fe5b60200260200101906001600160a01b031690816001600160a01b031681525050828181518110610d4e57fe5b6020026020010151878381518110610d6257fe5b602002602001018181525050600360008a8381518110610d7e57fe5b60200260200101516001600160a01b03166001600160a01b0316815260200190815260200160002060010154868381518110610db657fe5b602002602001018181525050610de8838281518110610dd157fe5b60200260200101518661101a90919063ffffffff16565b9450600360008a8381518110610dfa57fe5b6020908102919091018101516001600160a01b031682528101919091526040016000908120818155600101558751889083908110610e3457fe5b60200260200101516001600160a01b0316336001600160a01b03167f2b26dea55dfec1fae4b96a729d54e1b4f72fb1d7db995a86bd469a1988a0290a898581518110610e7c57fe5b6020026020010151898681518110610e9057fe5b6020026020010151604051610ea6929190611cde565b60405180910390a36001909101905b600101610cd8565b505050509193509193565b801580610f505750604051636eb1769f60e11b81526001600160a01b0384169063dd62ed3e90610efe9030908690600401611ae1565b60206040518083038186803b158015610f1657600080fd5b505afa158015610f2a573d6000803e3d6000fd5b505050506040513d601f19601f82011682018060405250810190610f4e9190611347565b155b610f6c5760405162461bcd60e51b81526004016101ae90611ca0565b6106d28363095ea7b360e01b8484604051602401610acc929190611b24565b6060610fe0826040518060400160405280602081526020017f5361666545524332303a206c6f772d6c6576656c2063616c6c206661696c6564815250856001600160a01b03166110469092919063ffffffff16565b8051909150156106d25780806020019051810190610ffe9190611329565b6106d25760405162461bcd60e51b81526004016101ae90611c90565b60008282018381101561103f5760405162461bcd60e51b81526004016101ae90611bc0565b9392505050565b6060611055848460008561105d565b949350505050565b60608247101561107f5760405162461bcd60e51b81526004016101ae90611c00565b6110888561111e565b6110a45760405162461bcd60e51b81526004016101ae90611c80565b60006060866001600160a01b031685876040516110c19190611ac7565b60006040518083038185875af1925050503d80600081146110fe576040519150601f19603f3d011682016040523d82523d6000602084013e611103565b606091505b5091509150611113828286611124565b979650505050505050565b3b151590565b6060831561113357508161103f565b8251156111435782518084602001fd5b8160405162461bcd60e51b81526004016101ae9190611b8f565b604051806040016040528060008152602001600081525090565b8035610aa581611da1565b8051610aa581611da1565b60008083601f84011261119f57600080fd5b50813567ffffffffffffffff8111156111b757600080fd5b6020830191508360208202830111156111cf57600080fd5b9250929050565b600082601f8301126111e757600080fd5b81516111fa6111f582611d13565b611cec565b9150818183526020840193506020810190508385602084028201111561121f57600080fd5b60005b8381101561124b5781611235888261126b565b8452506020928301929190910190600101611222565b5050505092915050565b8051610aa581611db8565b8035610aa581611dc1565b8051610aa581611dc1565b60006020828403121561128857600080fd5b60006110558484611177565b6000602082840312156112a657600080fd5b60006110558484611182565b600080602083850312156112c557600080fd5b823567ffffffffffffffff8111156112dc57600080fd5b6112e88582860161118d565b92509250509250929050565b60006020828403121561130657600080fd5b815167ffffffffffffffff81111561131d57600080fd5b611055848285016111d6565b60006020828403121561133b57600080fd5b60006110558484611255565b60006020828403121561135957600080fd5b6000611055848461126b565b6000806040838503121561137857600080fd5b60006113848585611260565b925050602061139585828601611260565b9150509250929050565b60006113ab83836113bf565b505060200190565b60006113ab8383611abe565b6113c881611d4c565b82525050565b60006113d982611d3a565b6113e38185611d3e565b93506113ee83611d34565b8060005b8381101561141c578151611406888261139f565b975061141183611d34565b9250506001016113f2565b509495945050505050565b600061143282611d3a565b61143c8185611d3e565b935061144783611d34565b8060005b8381101561141c57815161145f88826113b3565b975061146a83611d34565b92505060010161144b565b6113c881611d57565b600061148982611d3a565b6114938185611d47565b93506114a3818560208601611d6b565b9290920192915050565b60006114b882611d3a565b6114c28185611d3e565b93506114d2818560208601611d6b565b6114db81611d97565b9093019392505050565b60006114f2602583611d3e565b7f63616e63656c526571756573743a205265717565737420646f6573206e6f7420815264195e1a5cdd60da1b602082015260400192915050565b6000611539603383611d3e565b7f616464526571756573744578656375746f72733a205468652066756e64206f778152721b995c8818d85b9b9bdd081899481859191959606a1b602082015260400192915050565b600061158e601b83611d3e565b7f536166654d6174683a206164646974696f6e206f766572666c6f770000000000815260200192915050565b60006115c7601883611d3e565b7f4f6e6c792066756e64206f776e65722063616c6c61626c650000000000000000815260200192915050565b6000611600602c83611d3e565b7f637265617465526571756573743a205f696e766573746d656e74416d6f756e7481526b0206d757374206265203e20360a41b602082015260400192915050565b600061164e601e83611d3e565b7f536166654d6174683a207375627472616374696f6e206f766572666c6f770000815260200192915050565b6000611687602683611d3e565b7f416464726573733a20696e73756666696369656e742062616c616e636520666f8152651c8818d85b1b60d21b602082015260400192915050565b60006116cf604883611d3e565b7f637265617465526571756573743a2043616e6e6f74206372656174652072657181527f7565737420647572696e672063616e63656c6c6174696f6e20636f6f6c646f776020820152671b881c195c9a5bd960c21b604082015260600192915050565b600061173f603983611d3e565b7f72656d6f7665526571756573744578656375746f72733a204163636f756e742081527f6973206e6f7420612072657175657374206578656375746f7200000000000000602082015260400192915050565b600061179e601f83611d3e565b7f6578656375746552657175657374733a20496e76616c69642063616c6c657200815260200192915050565b60006117d7601983611d3e565b7f696e69743a20416c726561647920696e697469616c697a656400000000000000815260200192915050565b6000611810602683611d3e565b7f616464526571756573744578656375746f72733a2056616c756520616c726561815265191e481cd95d60d21b602082015260400192915050565b6000611858605883611d3e565b7f637265617465526571756573743a205468652072657175657374206f776e657281527f2063616e206f6e6c7920637265617465206f6e6520726571756573742062656660208201527f6f7265206578656375746564206f722063616e63656c65640000000000000000604082015260600192915050565b60006118dd603083611d3e565b7f6578656375746552657175657374733a205f726571756573744f776e6572732081526f63616e206e6f7420626520656d70747960801b602082015260400192915050565b600061192f601d83611d3e565b7f416464726573733a2063616c6c20746f206e6f6e2d636f6e7472616374000000815260200192915050565b6000611968602a83611d3e565b7f5361666545524332303a204552433230206f7065726174696f6e20646964206e8152691bdd081cdd58d8d9595960b21b602082015260400192915050565b60006119b4603683611d3e565b7f5361666545524332303a20617070726f76652066726f6d206e6f6e2d7a65726f81527520746f206e6f6e2d7a65726f20616c6c6f77616e636560501b602082015260400192915050565b6000611a0c602f83611d3e565b7f72656d6f7665526571756573744578656375746f72733a20456d707479205f7281526e6571756573744578656375746f727360881b602082015260400192915050565b6000611a5d602c83611d3e565b7f616464526571756573744578656375746f72733a20456d707479205f7265717581526b6573744578656375746f727360a01b602082015260400192915050565b80516040830190611aaf8482611abe565b506020820151610b0360208501825b6113c881611d68565b600061103f828461147e565b60208101610aa582846113bf565b60408101611aef82856113bf565b61103f60208301846113bf565b60608101611b0a82866113bf565b611b1760208301856113bf565b6110556040830184611abe565b60408101611b3282856113bf565b61103f6020830184611abe565b60608082528101611b5081866113ce565b90508181036020830152611b648185611427565b90508181036040830152611b788184611427565b95945050505050565b60208101610aa58284611475565b6020808252810161103f81846114ad565b60208082528101610aa5816114e5565b60208082528101610aa58161152c565b60208082528101610aa581611581565b60208082528101610aa5816115ba565b60208082528101610aa5816115f3565b60208082528101610aa581611641565b60208082528101610aa58161167a565b60208082528101610aa5816116c2565b60208082528101610aa581611732565b60208082528101610aa581611791565b60208082528101610aa5816117ca565b60208082528101610aa581611803565b60208082528101610aa58161184b565b60208082528101610aa5816118d0565b60208082528101610aa581611922565b60208082528101610aa58161195b565b60208082528101610aa5816119a7565b60208082528101610aa5816119ff565b60208082528101610aa581611a50565b60408101610aa58284611a9e565b60408101611b328285611abe565b60405181810167ffffffffffffffff81118282101715611d0b57600080fd5b604052919050565b600067ffffffffffffffff821115611d2a57600080fd5b5060209081020190565b60200190565b5190565b90815260200190565b919050565b6000610aa582611d5c565b151590565b6001600160a01b031690565b90565b60005b83811015611d86578181015183820152602001611d6e565b83811115610b035750506000910152565b601f01601f191690565b611daa81611d4c565b8114611db557600080fd5b50565b611daa81611d57565b611daa81611d6856fea2646970667358221220a5902545ca0da97e2842530ae3aa75eb1e45c3a119ce63764ad5162d2ad0201864736f6c634300060c0033",
  "devdoc": {
    "author": "Enzyme Council <security@enzyme.finance>",
    "details": "This will not work with a `denominationAsset` that does not transfer the exact expected amount or has an elastic supply.",
    "kind": "dev",
    "methods": {
      "addRequestExecutors(address[])": {
        "params": {
          "_requestExecutors": "Accounts to add"
        }
      },
      "createRequest(uint256,uint256)": {
        "params": {
          "_investmentAmount": "The amount of the fund's denomination asset to use to buy shares",
          "_minSharesQuantity": "The minimum quantity of shares to buy with the _investmentAmount"
        }
      },
      "executeRequests(address[])": {
        "params": {
          "_requestOwners": "The owners of the pending shares requests"
        }
      },
      "getComptrollerProxy()": {
        "returns": {
          "comptrollerProxy_": "The `comptrollerProxy` variable value"
        }
      },
      "getDenominationAsset()": {
        "returns": {
          "denominationAsset_": "The `denominationAsset` variable value"
        }
      },
      "getFundOwner()": {
        "returns": {
          "fundOwner_": "The `fundOwner` variable value"
        }
      },
      "getSharesRequestInfoForOwner(address)": {
        "params": {
          "_requestOwner": "The address of the user that creates the request"
        },
        "returns": {
          "requestInfo_": "The request info created by the user"
        }
      },
      "init(address)": {
        "details": "Serves as a per-proxy pseudo-constructor"
      },
      "isRequestExecutor(address)": {
        "params": {
          "_who": "The account to check"
        },
        "returns": {
          "isRequestExecutor_": "True if _who is a request executor"
        }
      },
      "removeRequestExecutors(address[])": {
        "params": {
          "_requestExecutors": "Accounts to remove"
        }
      }
    },
    "title": "AuthUserExecutedSharesRequestorLib Contract",
    "version": 1
  },
  "userdoc": {
    "kind": "user",
    "methods": {
      "addRequestExecutors(address[])": {
        "notice": "Adds accounts to request executors"
      },
      "cancelRequest()": {
        "notice": "Cancels the shares request of the caller"
      },
      "createRequest(uint256,uint256)": {
        "notice": "Creates a shares request for the caller"
      },
      "executeRequests(address[])": {
        "notice": "Executes multiple shares requests"
      },
      "getComptrollerProxy()": {
        "notice": "Gets the value of `comptrollerProxy` variable"
      },
      "getDenominationAsset()": {
        "notice": "Gets the value of `denominationAsset` variable"
      },
      "getFundOwner()": {
        "notice": "Gets the value of `fundOwner` variable"
      },
      "getSharesRequestInfoForOwner(address)": {
        "notice": "Gets the request info of a user"
      },
      "init(address)": {
        "notice": "Initializes a proxy instance that uses this library"
      },
      "isRequestExecutor(address)": {
        "notice": "Checks whether an account is a request executor"
      },
      "removeRequestExecutors(address[])": {
        "notice": "Removes accounts from request executors"
      }
    },
    "notice": "Provides the logic for AuthUserExecutedSharesRequestorProxy instances, in which shares requests are manually executed by a permissioned user",
    "version": 1
  },
  "storageLayout": {
    "storage": [
      {
        "astId": 45375,
        "contract": "contracts/release/peripheral/shares-requestors/AuthUserExecutedSharesRequestorLib.sol:AuthUserExecutedSharesRequestorLib",
        "label": "comptrollerProxy",
        "offset": 0,
        "slot": "0",
        "type": "t_address"
      },
      {
        "astId": 45377,
        "contract": "contracts/release/peripheral/shares-requestors/AuthUserExecutedSharesRequestorLib.sol:AuthUserExecutedSharesRequestorLib",
        "label": "denominationAsset",
        "offset": 0,
        "slot": "1",
        "type": "t_address"
      },
      {
        "astId": 45379,
        "contract": "contracts/release/peripheral/shares-requestors/AuthUserExecutedSharesRequestorLib.sol:AuthUserExecutedSharesRequestorLib",
        "label": "fundOwner",
        "offset": 0,
        "slot": "2",
        "type": "t_address"
      },
      {
        "astId": 45383,
        "contract": "contracts/release/peripheral/shares-requestors/AuthUserExecutedSharesRequestorLib.sol:AuthUserExecutedSharesRequestorLib",
        "label": "ownerToRequestInfo",
        "offset": 0,
        "slot": "3",
        "type": "t_mapping(t_address,t_struct(RequestInfo)45370_storage)"
      },
      {
        "astId": 45387,
        "contract": "contracts/release/peripheral/shares-requestors/AuthUserExecutedSharesRequestorLib.sol:AuthUserExecutedSharesRequestorLib",
        "label": "acctToIsRequestExecutor",
        "offset": 0,
        "slot": "4",
        "type": "t_mapping(t_address,t_bool)"
      },
      {
        "astId": 45391,
        "contract": "contracts/release/peripheral/shares-requestors/AuthUserExecutedSharesRequestorLib.sol:AuthUserExecutedSharesRequestorLib",
        "label": "ownerToLastRequestCancellation",
        "offset": 0,
        "slot": "5",
        "type": "t_mapping(t_address,t_uint256)"
      }
    ],
    "types": {
      "t_address": {
        "encoding": "inplace",
        "label": "address",
        "numberOfBytes": "20"
      },
      "t_bool": {
        "encoding": "inplace",
        "label": "bool",
        "numberOfBytes": "1"
      },
      "t_mapping(t_address,t_bool)": {
        "encoding": "mapping",
        "key": "t_address",
        "label": "mapping(address => bool)",
        "numberOfBytes": "32",
        "value": "t_bool"
      },
      "t_mapping(t_address,t_struct(RequestInfo)45370_storage)": {
        "encoding": "mapping",
        "key": "t_address",
        "label": "mapping(address => struct AuthUserExecutedSharesRequestorLib.RequestInfo)",
        "numberOfBytes": "32",
        "value": "t_struct(RequestInfo)45370_storage"
      },
      "t_mapping(t_address,t_uint256)": {
        "encoding": "mapping",
        "key": "t_address",
        "label": "mapping(address => uint256)",
        "numberOfBytes": "32",
        "value": "t_uint256"
      },
      "t_struct(RequestInfo)45370_storage": {
        "encoding": "inplace",
        "label": "struct AuthUserExecutedSharesRequestorLib.RequestInfo",
        "members": [
          {
            "astId": 45367,
            "contract": "contracts/release/peripheral/shares-requestors/AuthUserExecutedSharesRequestorLib.sol:AuthUserExecutedSharesRequestorLib",
            "label": "investmentAmount",
            "offset": 0,
            "slot": "0",
            "type": "t_uint256"
          },
          {
            "astId": 45369,
            "contract": "contracts/release/peripheral/shares-requestors/AuthUserExecutedSharesRequestorLib.sol:AuthUserExecutedSharesRequestorLib",
            "label": "minSharesQuantity",
            "offset": 0,
            "slot": "1",
            "type": "t_uint256"
          }
        ],
        "numberOfBytes": "64"
      },
      "t_uint256": {
        "encoding": "inplace",
        "label": "uint256",
        "numberOfBytes": "32"
      }
    }
  }
}