{
  "address": "0x24fDD4a3287EF99F67D28533C98901A8c683Bace",
  "abi": [
    {
      "inputs": [
        {
          "internalType": "address",
          "name": "_fundDeployer",
          "type": "address"
        },
        {
          "internalType": "address",
          "name": "_wethToken",
          "type": "address"
        },
        {
          "internalType": "address",
          "name": "_ethUsdAggregator",
          "type": "address"
        },
        {
          "internalType": "address[]",
          "name": "_primitives",
          "type": "address[]"
        },
        {
          "internalType": "address[]",
          "name": "_aggregators",
          "type": "address[]"
        },
        {
          "internalType": "enum ChainlinkPriceFeed.RateAsset[]",
          "name": "_rateAssets",
          "type": "uint8[]"
        }
      ],
      "stateMutability": "nonpayable",
      "type": "constructor"
    },
    {
      "anonymous": false,
      "inputs": [
        {
          "indexed": false,
          "internalType": "address",
          "name": "prevEthUsdAggregator",
          "type": "address"
        },
        {
          "indexed": false,
          "internalType": "address",
          "name": "nextEthUsdAggregator",
          "type": "address"
        }
      ],
      "name": "EthUsdAggregatorSet",
      "type": "event"
    },
    {
      "anonymous": false,
      "inputs": [
        {
          "indexed": true,
          "internalType": "address",
          "name": "primitive",
          "type": "address"
        },
        {
          "indexed": false,
          "internalType": "address",
          "name": "aggregator",
          "type": "address"
        },
        {
          "indexed": false,
          "internalType": "enum ChainlinkPriceFeed.RateAsset",
          "name": "rateAsset",
          "type": "uint8"
        },
        {
          "indexed": false,
          "internalType": "uint256",
          "name": "unit",
          "type": "uint256"
        }
      ],
      "name": "PrimitiveAdded",
      "type": "event"
    },
    {
      "anonymous": false,
      "inputs": [
        {
          "indexed": true,
          "internalType": "address",
          "name": "primitive",
          "type": "address"
        }
      ],
      "name": "PrimitiveRemoved",
      "type": "event"
    },
    {
      "anonymous": false,
      "inputs": [
        {
          "indexed": true,
          "internalType": "address",
          "name": "primitive",
          "type": "address"
        },
        {
          "indexed": false,
          "internalType": "address",
          "name": "prevAggregator",
          "type": "address"
        },
        {
          "indexed": false,
          "internalType": "address",
          "name": "nextAggregator",
          "type": "address"
        }
      ],
      "name": "PrimitiveUpdated",
      "type": "event"
    },
    {
      "anonymous": false,
      "inputs": [
        {
          "indexed": true,
          "internalType": "address",
          "name": "primitive",
          "type": "address"
        }
      ],
      "name": "StalePrimitiveRemoved",
      "type": "event"
    },
    {
      "anonymous": false,
      "inputs": [
        {
          "indexed": false,
          "internalType": "uint256",
          "name": "prevStaleRateThreshold",
          "type": "uint256"
        },
        {
          "indexed": false,
          "internalType": "uint256",
          "name": "nextStaleRateThreshold",
          "type": "uint256"
        }
      ],
      "name": "StaleRateThresholdSet",
      "type": "event"
    },
    {
      "inputs": [
        {
          "internalType": "address[]",
          "name": "_primitives",
          "type": "address[]"
        },
        {
          "internalType": "address[]",
          "name": "_aggregators",
          "type": "address[]"
        },
        {
          "internalType": "enum ChainlinkPriceFeed.RateAsset[]",
          "name": "_rateAssets",
          "type": "uint8[]"
        }
      ],
      "name": "addPrimitives",
      "outputs": [],
      "stateMutability": "nonpayable",
      "type": "function"
    },
    {
      "inputs": [
        {
          "internalType": "address",
          "name": "_baseAsset",
          "type": "address"
        },
        {
          "internalType": "uint256",
          "name": "_baseAssetAmount",
          "type": "uint256"
        },
        {
          "internalType": "address",
          "name": "_quoteAsset",
          "type": "address"
        }
      ],
      "name": "calcCanonicalValue",
      "outputs": [
        {
          "internalType": "uint256",
          "name": "quoteAssetAmount_",
          "type": "uint256"
        },
        {
          "internalType": "bool",
          "name": "isValid_",
          "type": "bool"
        }
      ],
      "stateMutability": "view",
      "type": "function"
    },
    {
      "inputs": [
        {
          "internalType": "address",
          "name": "_baseAsset",
          "type": "address"
        },
        {
          "internalType": "uint256",
          "name": "_baseAssetAmount",
          "type": "uint256"
        },
        {
          "internalType": "address",
          "name": "_quoteAsset",
          "type": "address"
        }
      ],
      "name": "calcLiveValue",
      "outputs": [
        {
          "internalType": "uint256",
          "name": "quoteAssetAmount_",
          "type": "uint256"
        },
        {
          "internalType": "bool",
          "name": "isValid_",
          "type": "bool"
        }
      ],
      "stateMutability": "view",
      "type": "function"
    },
    {
      "inputs": [
        {
          "internalType": "address",
          "name": "_primitive",
          "type": "address"
        }
      ],
      "name": "getAggregatorInfoForPrimitive",
      "outputs": [
        {
          "components": [
            {
              "internalType": "address",
              "name": "aggregator",
              "type": "address"
            },
            {
              "internalType": "enum ChainlinkPriceFeed.RateAsset",
              "name": "rateAsset",
              "type": "uint8"
            }
          ],
          "internalType": "struct ChainlinkPriceFeed.AggregatorInfo",
          "name": "aggregatorInfo_",
          "type": "tuple"
        }
      ],
      "stateMutability": "view",
      "type": "function"
    },
    {
      "inputs": [],
      "name": "getEthUsdAggregator",
      "outputs": [
        {
          "internalType": "address",
          "name": "ethUsdAggregator_",
          "type": "address"
        }
      ],
      "stateMutability": "view",
      "type": "function"
    },
    {
      "inputs": [],
      "name": "getFundDeployer",
      "outputs": [
        {
          "internalType": "address",
          "name": "fundDeployer_",
          "type": "address"
        }
      ],
      "stateMutability": "view",
      "type": "function"
    },
    {
      "inputs": [],
      "name": "getOwner",
      "outputs": [
        {
          "internalType": "address",
          "name": "owner_",
          "type": "address"
        }
      ],
      "stateMutability": "view",
      "type": "function"
    },
    {
      "inputs": [
        {
          "internalType": "address",
          "name": "_primitive",
          "type": "address"
        }
      ],
      "name": "getRateAssetForPrimitive",
      "outputs": [
        {
          "internalType": "enum ChainlinkPriceFeed.RateAsset",
          "name": "rateAsset_",
          "type": "uint8"
        }
      ],
      "stateMutability": "view",
      "type": "function"
    },
    {
      "inputs": [],
      "name": "getStaleRateThreshold",
      "outputs": [
        {
          "internalType": "uint256",
          "name": "staleRateThreshold_",
          "type": "uint256"
        }
      ],
      "stateMutability": "view",
      "type": "function"
    },
    {
      "inputs": [
        {
          "internalType": "address",
          "name": "_primitive",
          "type": "address"
        }
      ],
      "name": "getUnitForPrimitive",
      "outputs": [
        {
          "internalType": "uint256",
          "name": "unit_",
          "type": "uint256"
        }
      ],
      "stateMutability": "view",
      "type": "function"
    },
    {
      "inputs": [],
      "name": "getWethToken",
      "outputs": [
        {
          "internalType": "address",
          "name": "wethToken_",
          "type": "address"
        }
      ],
      "stateMutability": "view",
      "type": "function"
    },
    {
      "inputs": [
        {
          "internalType": "address",
          "name": "_asset",
          "type": "address"
        }
      ],
      "name": "isSupportedAsset",
      "outputs": [
        {
          "internalType": "bool",
          "name": "isSupported_",
          "type": "bool"
        }
      ],
      "stateMutability": "view",
      "type": "function"
    },
    {
      "inputs": [
        {
          "internalType": "address",
          "name": "_aggregator",
          "type": "address"
        }
      ],
      "name": "rateIsStale",
      "outputs": [
        {
          "internalType": "bool",
          "name": "rateIsStale_",
          "type": "bool"
        }
      ],
      "stateMutability": "view",
      "type": "function"
    },
    {
      "inputs": [
        {
          "internalType": "address[]",
          "name": "_primitives",
          "type": "address[]"
        }
      ],
      "name": "removePrimitives",
      "outputs": [],
      "stateMutability": "nonpayable",
      "type": "function"
    },
    {
      "inputs": [
        {
          "internalType": "address[]",
          "name": "_primitives",
          "type": "address[]"
        }
      ],
      "name": "removeStalePrimitives",
      "outputs": [],
      "stateMutability": "nonpayable",
      "type": "function"
    },
    {
      "inputs": [
        {
          "internalType": "address",
          "name": "_nextEthUsdAggregator",
          "type": "address"
        }
      ],
      "name": "setEthUsdAggregator",
      "outputs": [],
      "stateMutability": "nonpayable",
      "type": "function"
    },
    {
      "inputs": [
        {
          "internalType": "uint256",
          "name": "_nextStaleRateThreshold",
          "type": "uint256"
        }
      ],
      "name": "setStaleRateThreshold",
      "outputs": [],
      "stateMutability": "nonpayable",
      "type": "function"
    },
    {
      "inputs": [
        {
          "internalType": "address[]",
          "name": "_primitives",
          "type": "address[]"
        },
        {
          "internalType": "address[]",
          "name": "_aggregators",
          "type": "address[]"
        }
      ],
      "name": "updatePrimitives",
      "outputs": [],
      "stateMutability": "nonpayable",
      "type": "function"
    }
  ],
  "transactionHash": "0x7957ef4d828617682771a983f50737ee5c517b3e7444abb5160fc90beff586b1",
  "args": [
    "0x4B68177FaCb5e04a1a82Fbd37a4F967a2F154DD5",
    "0xd0a1e359811322d97991e03f863a0c30c2cf029c",
    "0x9326bfa02add2366b30bacb125260af641031331",
    [
      "0x2e62eaaf0f490219be8ed376326e0516228bae89",
      "0x4674e9587925f9fb4d3a4cc5591029596280e00c",
      "0x88dd7a403a3d48625c9cb511ff47d1d6c25eb121",
      "0x23cb26e7bc6868452097e351e42d2a39c861b6bb",
      "0x0707de6ea02d4558fea1e0a96cad9003f8c1d384",
      "0x1dc1216b3d1803a0b5f7664b7756377f477614ab",
      "0x902aaefd695f2af5ccfa6a027051261976131d69",
      "0xd7f19f0d395e8c7d5368d74a81b774e2b822df25",
      "0x7c52405ada0bfbca32a81703862a03757fb702f7",
      "0xde016fea21895e5aca1112b95504f303500002b5",
      "0xd9436124f61685e63cd87370d1a9b32e79b75601",
      "0x56a7c6766b5e7a9e6bc704f7becc001f2755a713",
      "0x4c22d46c07ab880f94e8213e0256727af471a9f4",
      "0x190cece40aef39a2a15d8858cafa691f01a909c5",
      "0x86684577af5598b229a27c5774b658d303e2e044",
      "0xfac5cbefa43a877c675e8007a685e0d72ee1f109",
      "0x50e7615a526f715556c478749303c75571f1e6b5",
      "0x08adedfb5f473a7dffd05da2c0f33651553668a9",
      "0x3a854556f28f77dcc803538032ca64fdf42a0783",
      "0x8955cd6b7826a86e820f0774278d89b76db25c46"
    ],
    [
      "0x0e4fcec26c9f85c3d714370c98f43c4e02fc35ae",
      "0x8993ed705cdf5e84d0a3b754b5ee0e1783fcdf16",
      "0xbf7a18ea5de0501f7559144e702b29c55b055ccb",
      "0x9aa9da35dc44f93d90436bfe256f465f720c3ae5",
      "0x777a68032a88e5a84678a77af2cd65a7b3c0775a",
      "0xfadbe2ee798889f02d1d39edad98eff4c7fe95d4",
      "0xb8e8130d244cfd13a75d6b9aee029b1c33c808a7",
      "0x3af8c569ab77af5230596acf0e8c2f9351d24c38",
      "0x1b93d8e109cfedcbb3cc74ed761de286d5771511",
      "0x0b156192e04bad92b6c1c13cf8739d14d78d5701",
      "0xf1939bece7708382b5fb5e559f630cb8b39a10ee",
      "0x3a7e6117f2979eff81855de32819fbba48a63e9e",
      "0xf9a76ae7a1075fe7d646b06ff05bd48b9fa5582e",
      "0xb343e7a1af578fa35632435243d814e7497622f7",
      "0x17756515f112429471f86f98d5052acb6c47f6ee",
      "0x64eac61a2dfda2c3fa04eed49aa33d021aec8838",
      "0x0bf499444525a23e7bb61997539725ca2e928138",
      "0xf7904a295a029a3abdffb6f12755974a958c7c25",
      "0xc5d1b1deb2992738c0273408ac43e1e906086b6c",
      "0xbc3f28ccc21e9b5856e81e6372aff57307e2e883"
    ],
    [
      0,
      1,
      0,
      0,
      0,
      0,
      0,
      0,
      0,
      0,
      0,
      0,
      0,
      0,
      0,
      0,
      0,
      0,
      0,
      0
    ]
  ],
  "solcInputHash": "26687ac4dc1c3fba34b01344c51c7207",
  "bytecode": "0x60c06040523480156200001157600080fd5b5060405162003211380380620032118339810160408190526200003491620007bb565b6001600160601b0319606087811b821660805286901b1660a05262015f90600155620000608462000081565b82511562000075576200007583838362000123565b50505050505062000dc5565b6000546001600160a01b03908116908216811415620000bd5760405162461bcd60e51b8152600401620000b49062000c26565b60405180910390fd5b620000c88262000459565b600080546001600160a01b0319166001600160a01b0384161790556040517f98b60a60ba6130248e985ae4140dc3109d9c2980c7e435fed385e2756bc944619062000117908390859062000bae565b60405180910390a15050565b8151835114620001475760405162461bcd60e51b8152600401620000b49062000c92565b80518351146200016b5760405162461bcd60e51b8152600401620000b49062000c5c565b60005b8351811015620004535760006001600160a01b0316600260008684815181106200019457fe5b6020908102919091018101516001600160a01b03908116835290820192909252604001600020541614620001dc5760405162461bcd60e51b8152600401620000b49062000ca4565b6040518060400160405280848381518110620001f457fe5b60200260200101516001600160a01b031681526020018383815181106200021757fe5b602002602001015160018111156200022b57fe5b815250600260008684815181106200023f57fe5b6020908102919091018101516001600160a01b039081168352828201939093526040909101600020835181546001600160a01b0319169316929092178083559083015190829060ff60a01b1916600160a01b8360018111156200029e57fe5b0217905550905050620002f56040518060400160405280600c81526020016b0383934b6b4ba34bb32b99d160a51b815250858381518110620002dc57fe5b60200260200101516200054760201b62000dda1760201c565b60008482815181106200030457fe5b60200260200101516001600160a01b031663313ce5676040518163ffffffff1660e01b815260040160206040518083038186803b1580156200034557600080fd5b505afa1580156200035a573d6000803e3d6000fd5b505050506040513d601f19601f82011682018060405250810190620003809190620008c0565b60ff16600a0a905080600360008785815181106200039a57fe5b60200260200101516001600160a01b03166001600160a01b0316815260200190815260200160002081905550848281518110620003d357fe5b60200260200101516001600160a01b03167f742bdf00da3d8f16c0fab93ce38eb6a536a019c9e283888dd44c3a08c0148c028584815181106200041257fe5b60200260200101518585815181106200042757fe5b602002602001015184604051620004419392919062000bd4565b60405180910390a2506001016200016e565b50505050565b6001600160a01b038116620004825760405162461bcd60e51b8152600401620000b49062000c38565b6000816001600160a01b03166350d25bcd6040518163ffffffff1660e01b815260040160206040518083038186803b158015620004be57600080fd5b505afa158015620004d3573d6000803e3d6000fd5b505050506040513d601f19601f82011682018060405250810190620004f9919062000897565b13620005195760405162461bcd60e51b8152600401620000b49062000c80565b620005248162000598565b15620005445760405162461bcd60e51b8152600401620000b49062000c6e565b50565b6200059482826040516024016200056092919062000c02565b60408051601f198184030181529190526020810180516001600160e01b0390811663319af33360e01b179091526200063416565b5050565b6000620005b6600154426200065560201b62000e231790919060201c565b826001600160a01b0316638205bf6a6040518163ffffffff1660e01b815260040160206040518083038186803b158015620005f057600080fd5b505afa15801562000605573d6000803e3d6000fd5b505050506040513d601f19601f820116820180604052508101906200062b919062000897565b1090505b919050565b80516a636f6e736f6c652e6c6f67602083016000808483855afa5050505050565b6000828211156200067a5760405162461bcd60e51b8152600401620000b49062000c4a565b508082035b92915050565b80516200067f8162000d8a565b600082601f830112620006a457600080fd5b8151620006bb620006b58262000cdd565b62000cb6565b91508181835260208401935060208101905083856020840282011115620006e157600080fd5b60005b83811015620007115781620006fa888262000685565b8452506020928301929190910190600101620006e4565b5050505092915050565b600082601f8301126200072d57600080fd5b81516200073e620006b58262000cdd565b915081818352602084019350602081019050838560208402820111156200076457600080fd5b60005b838110156200071157816200077d888262000794565b845250602092830192919091019060010162000767565b80516200067f8162000da1565b80516200067f8162000daf565b80516200067f8162000dba565b60008060008060008060c08789031215620007d557600080fd5b6000620007e3898962000685565b9650506020620007f689828a0162000685565b95505060406200080989828a0162000685565b94505060608701516001600160401b038111156200082657600080fd5b6200083489828a0162000692565b93505060808701516001600160401b038111156200085157600080fd5b6200085f89828a0162000692565b92505060a08701516001600160401b038111156200087c57600080fd5b6200088a89828a016200071b565b9150509295509295509295565b600060208284031215620008aa57600080fd5b6000620008b88484620007a1565b949350505050565b600060208284031215620008d357600080fd5b6000620008b88484620007ae565b620008ec8162000d0b565b82525050565b620008ec8162000d39565b60006200090a8262000cfe565b62000916818562000d02565b93506200092881856020860162000d46565b620009338162000d75565b9093019392505050565b60006200094c60288362000d02565b7f5f5f73657445746855736441676772656761746f723a2056616c756520616c728152671958591e481cd95d60c21b602082015260400192915050565b60006200099860278362000d02565b7f5f5f76616c696461746541676772656761746f723a20456d707479205f6167678152663932b3b0ba37b960c91b602082015260400192915050565b6000620009e3601e8362000d02565b7f536166654d6174683a207375627472616374696f6e206f766572666c6f770000815260200192915050565b600062000a1e60428362000d02565b600080516020620031f183398151915281527f6976657320616e64205f72617465417373657473206172726179206c656e6774602082015261687360f01b604082015260600192915050565b600062000a7960298362000d02565b7f5f5f76616c696461746541676772656761746f723a205374616c6520726174658152680819195d1958dd195960ba1b602082015260400192915050565b600062000ac660268362000d02565b7f5f5f76616c696461746541676772656761746f723a204e6f20726174652064658152651d1958dd195960d21b602082015260400192915050565b600062000b1060438362000d02565b600080516020620031f183398151915281527f6976657320616e64205f61676772656761746f7273206172726179206c656e6760208201526274687360e81b604082015260600192915050565b600062000b6c60228362000d02565b7f5f5f6164645072696d6974697665733a2056616c756520616c72656164792073815261195d60f21b602082015260400192915050565b620008ec8162000d24565b6040810162000bbe8285620008e1565b62000bcd6020830184620008e1565b9392505050565b6060810162000be48286620008e1565b62000bf36020830185620008f2565b620008b8604083018462000ba3565b6040808252810162000c158185620008fd565b905062000bcd6020830184620008e1565b602080825281016200067f816200093d565b602080825281016200067f8162000989565b602080825281016200067f81620009d4565b602080825281016200067f8162000a0f565b602080825281016200067f8162000a6a565b602080825281016200067f8162000ab7565b602080825281016200067f8162000b01565b602080825281016200067f8162000b5d565b6040518181016001600160401b038111828210171562000cd557600080fd5b604052919050565b60006001600160401b0382111562000cf457600080fd5b5060209081020190565b5190565b90815260200190565b60006200067f8262000d27565b806200062f8162000d7f565b90565b6001600160a01b031690565b60ff1690565b60006200067f8262000d18565b60005b8381101562000d6357818101518382015260200162000d49565b83811115620004535750506000910152565b601f01601f191690565b600281106200054457fe5b62000d958162000d0b565b81146200054457600080fd5b600281106200054457600080fd5b62000d958162000d24565b62000d958162000d33565b60805160601c60a05160601c6123e962000e08600039806105b1528061067552806107b25280610d745280610e4f5250806106dc528061078c52506123e96000f3fe608060405234801561001057600080fd5b50600436106101165760003560e01c80638a275539116100a2578063a98acadc11610071578063a98acadc14610233578063b54fbdaa14610246578063cf0399c81461024e578063e106264f14610261578063e35e318e1461027457610116565b80638a275539146101f257806397c0ac87146102055780639be918e61461020d578063a8527ea81461022057610116565b80634c252f91116100e95780634c252f911461018d578063587fe0b2146101a257806374626f87146101c2578063787f2568146101ca578063893d20e8146101ea57610116565b806309157f951461011b578063149b83e6146101305780631b9548f81461014357806332d95e6c1461016d575b600080fd5b61012e6101293660046118dc565b610294565b005b61012e61013e36600461176b565b61033b565b61015661015136600461171e565b6104e5565b6040516101649291906122d0565b60405180910390f35b61018061017b3660046116da565b61054a565b60405161016491906122b4565b6101956105af565b60405161016491906120b7565b6101b56101b03660046116da565b6105d3565b6040516101649190612108565b610195610662565b6101dd6101d83660046116da565b610671565b60405161016491906122c2565b6101956106d8565b61015661020036600461171e565b610770565b61019561078a565b6101b561021b3660046116da565b6107ae565b61012e61022e3660046117ad565b61080f565b61012e6102413660046116da565b610a76565b6101dd610aba565b61012e61025c36600461181d565b610ac0565b61012e61026f36600461176b565b610bbb565b6102876102823660046116da565b610d70565b6040516101649190612116565b61029c6106d8565b6001600160a01b0316336001600160a01b0316146102d55760405162461bcd60e51b81526004016102cc90612174565b60405180910390fd5b600154818114156102f85760405162461bcd60e51b81526004016102cc90612244565b60018290556040517f97f8e271e60eea593a857fceac8dc84e2ebf697b2771f3ca4dabf8255ee55fde9061032f90839085906122eb565b60405180910390a15050565b806103585760405162461bcd60e51b81526004016102cc906121a4565b60005b818110156104e05760006002600085858581811061037557fe5b905060200201602081019061038a91906116da565b6001600160a01b039081168252602082019290925260400160002054169050806103c65760405162461bcd60e51b81526004016102cc90612184565b6103cf816105d3565b6103eb5760405162461bcd60e51b81526004016102cc90612214565b600260008585858181106103fb57fe5b905060200201602081019061041091906116da565b6001600160a01b031681526020810191909152604001600090812080546001600160a81b031916905560039085858581811061044857fe5b905060200201602081019061045d91906116da565b6001600160a01b03166001600160a01b031681526020019081526020016000206000905583838381811061048d57fe5b90506020020160208101906104a291906116da565b6001600160a01b03167ff4a60a74fb565dfd083c5755117b74c21251de3a0e0ed2c0e4f23461a413309060405160405180910390a25060010161035b565b505050565b60008060006104f386610e4b565b90506000811361050a576000809250925050610542565b600061051585610e4b565b90506000811361052d57600080935093505050610542565b61053a8787848885610f46565b909450925050505b935093915050565b610552611643565b6001600160a01b03828116600090815260026020908152604091829020825180840190935280549384168352919290830190600160a01b900460ff16600181111561059957fe5b60018111156105a457fe5b90525090505b919050565b7f000000000000000000000000000000000000000000000000000000000000000090565b60006105ea60015442610e2390919063ffffffff16565b826001600160a01b0316638205bf6a6040518163ffffffff1660e01b815260040160206040518083038186803b15801561062357600080fd5b505afa158015610637573d6000803e3d6000fd5b505050506040513d601f19601f8201168201806040525081019061065b91906118be565b1092915050565b6000546001600160a01b031690565b60007f00000000000000000000000000000000000000000000000000000000000000006001600160a01b0316826001600160a01b031614156106bc5750670de0b6b3a76400006105aa565b506001600160a01b031660009081526003602052604090205490565b60007f00000000000000000000000000000000000000000000000000000000000000006001600160a01b031663893d20e86040518163ffffffff1660e01b815260040160206040518083038186803b15801561073357600080fd5b505afa158015610747573d6000803e3d6000fd5b505050506040513d601f19601f8201168201806040525081019061076b9190611700565b905090565b60008061077e8585856104e5565b91509150935093915050565b7f000000000000000000000000000000000000000000000000000000000000000090565b60007f00000000000000000000000000000000000000000000000000000000000000006001600160a01b0316826001600160a01b0316148061080957506001600160a01b038281166000908152600260205260409020541615155b92915050565b6108176106d8565b6001600160a01b0316336001600160a01b0316146108475760405162461bcd60e51b81526004016102cc90612174565b826108645760405162461bcd60e51b81526004016102cc90612284565b8281146108835760405162461bcd60e51b81526004016102cc90612154565b60005b83811015610a6f576000600260008787858181106108a057fe5b90506020020160208101906108b591906116da565b6001600160a01b039081168252602082019290925260400160002054169050806108f15760405162461bcd60e51b81526004016102cc90612264565b806001600160a01b031684848481811061090757fe5b905060200201602081019061091c91906116da565b6001600160a01b031614156109435760405162461bcd60e51b81526004016102cc906121e4565b61096c84848481811061095257fe5b905060200201602081019061096791906116da565b6110af565b83838381811061097857fe5b905060200201602081019061098d91906116da565b6002600088888681811061099d57fe5b90506020020160208101906109b291906116da565b6001600160a01b039081168252602082019290925260400160002080546001600160a01b031916929091169190911790558585838181106109ef57fe5b9050602002016020810190610a0491906116da565b6001600160a01b03167fea132160c6ec74553a52c5ce52a096299236ff4da86ca7d4ef18da8b70b4559382868686818110610a3b57fe5b9050602002016020810190610a5091906116da565b604051610a5e9291906120c5565b60405180910390a250600101610886565b5050505050565b610a7e6106d8565b6001600160a01b0316336001600160a01b031614610aae5760405162461bcd60e51b81526004016102cc90612174565b610ab78161118b565b50565b60015490565b610ac86106d8565b6001600160a01b0316336001600160a01b031614610af85760405162461bcd60e51b81526004016102cc90612174565b84610b155760405162461bcd60e51b81526004016102cc906121b4565b610bb386868080602002602001604051908101604052809392919081815260200183836020028082843760009201919091525050604080516020808a028281018201909352898252909350899250889182918501908490808284376000920191909152505060408051602080890282810182019093528882529093508892508791829185019084908082843760009201919091525061121192505050565b505050505050565b610bc36106d8565b6001600160a01b0316336001600160a01b031614610bf35760405162461bcd60e51b81526004016102cc90612174565b80610c105760405162461bcd60e51b81526004016102cc906121f4565b60005b818110156104e0576000600281858585818110610c2c57fe5b9050602002016020810190610c4191906116da565b6001600160a01b039081168252602082019290925260400160002054161415610c7c5760405162461bcd60e51b81526004016102cc90612294565b60026000848484818110610c8c57fe5b9050602002016020810190610ca191906116da565b6001600160a01b031681526020810191909152604001600090812080546001600160a81b0319169055600390848484818110610cd957fe5b9050602002016020810190610cee91906116da565b6001600160a01b03166001600160a01b0316815260200190815260200160002060009055828282818110610d1e57fe5b9050602002016020810190610d3391906116da565b6001600160a01b03167fb100e8178a081ba9130260173ee2ebe0db3a6c3b6751a7801111ab3017df0e9760405160405180910390a2600101610c13565b60007f00000000000000000000000000000000000000000000000000000000000000006001600160a01b0316826001600160a01b03161415610db4575060006105aa565b506001600160a01b0316600090815260026020526040902054600160a01b900460ff1690565b610e1f8282604051602401610df0929190612124565b60408051601f198184030181529190526020810180516001600160e01b031663319af33360e01b17905261151d565b5050565b600082821115610e455760405162461bcd60e51b81526004016102cc906121c4565b50900390565b60007f00000000000000000000000000000000000000000000000000000000000000006001600160a01b0316826001600160a01b03161415610e965750670de0b6b3a76400006105aa565b6001600160a01b038083166000908152600260205260409020541680610ece5760405162461bcd60e51b81526004016102cc90612164565b806001600160a01b03166350d25bcd6040518163ffffffff1660e01b815260040160206040518083038186803b158015610f0757600080fd5b505afa158015610f1b573d6000803e3d6000fd5b505050506040513d601f19601f82011682018060405250810190610f3f91906118be565b9392505050565b6000806000610f5488610d70565b90506000610f6186610d70565b90506000610f6e8a610671565b90506000610f7b88610671565b9050826001811115610f8957fe5b846001811115610f9557fe5b1415610fb757610fa88a838b848b61153e565b600195509550505050506110a5565b60008060009054906101000a90046001600160a01b03166001600160a01b03166350d25bcd6040518163ffffffff1660e01b815260040160206040518083038186803b15801561100657600080fd5b505afa15801561101a573d6000803e3d6000fd5b505050506040513d601f19601f8201168201806040525081019061103e91906118be565b905060008113611059576000809650965050505050506110a5565b600085600181111561106757fe5b141561108b5761107b8b848c858c86611571565b60019650965050505050506110a5565b6110998b848c858c866115ac565b60019650965050505050505b9550959350505050565b6001600160a01b0381166110d55760405162461bcd60e51b81526004016102cc90612194565b6000816001600160a01b03166350d25bcd6040518163ffffffff1660e01b815260040160206040518083038186803b15801561111057600080fd5b505afa158015611124573d6000803e3d6000fd5b505050506040513d601f19601f8201168201806040525081019061114891906118be565b136111655760405162461bcd60e51b81526004016102cc90612254565b61116e816105d3565b15610ab75760405162461bcd60e51b81526004016102cc90612234565b6000546001600160a01b039081169082168114156111bb5760405162461bcd60e51b81526004016102cc90612144565b6111c4826110af565b600080546001600160a01b0319166001600160a01b0384161790556040517f98b60a60ba6130248e985ae4140dc3109d9c2980c7e435fed385e2756bc944619061032f90839085906120c5565b81518351146112325760405162461bcd60e51b81526004016102cc90612274565b80518351146112535760405162461bcd60e51b81526004016102cc90612204565b60005b83518110156115175760006001600160a01b03166002600086848151811061127a57fe5b6020908102919091018101516001600160a01b039081168352908201929092526040016000205416146112bf5760405162461bcd60e51b81526004016102cc906122a4565b60405180604001604052808483815181106112d657fe5b60200260200101516001600160a01b031681526020018383815181106112f857fe5b6020026020010151600181111561130b57fe5b8152506002600086848151811061131e57fe5b6020908102919091018101516001600160a01b039081168352828201939093526040909101600020835181546001600160a01b0319169316929092178083559083015190829060ff60a01b1916600160a01b83600181111561137c57fe5b02179055509050506113c56040518060400160405280600c81526020016b0383934b6b4ba34bb32b99d160a51b8152508583815181106113b857fe5b6020026020010151610dda565b60008482815181106113d357fe5b60200260200101516001600160a01b031663313ce5676040518163ffffffff1660e01b815260040160206040518083038186803b15801561141357600080fd5b505afa158015611427573d6000803e3d6000fd5b505050506040513d601f19601f8201168201806040525081019061144b91906118fa565b60ff16600a0a9050806003600087858151811061146457fe5b60200260200101516001600160a01b03166001600160a01b031681526020019081526020016000208190555084828151811061149c57fe5b60200260200101516001600160a01b03167f742bdf00da3d8f16c0fab93ce38eb6a536a019c9e283888dd44c3a08c0148c028584815181106114da57fe5b60200260200101518585815181106114ee57fe5b602002602001015184604051611506939291906120e0565b60405180910390a250600101611256565b50505050565b80516a636f6e736f6c652e6c6f67602083016000808483855afa5050505050565b600061156761154d86846115d7565b6115618561155b8a896115d7565b906115d7565b90611611565b9695505050505050565b60008061158e670de0b6b3a76400006115618561155b8c8b6115d7565b90506115a0846115618981858a6115d7565b98975050505050505050565b6000806115c1836115618761155b8c8b6115d7565b90506115a084611561898185670de0b6b3a76400005b6000826115e657506000610809565b828202828482816115f357fe5b0414610f3f5760405162461bcd60e51b81526004016102cc90612224565b60008082116116325760405162461bcd60e51b81526004016102cc906121d4565b81838161163b57fe5b049392505050565b604080518082019091526000808252602082015290565b80356108098161238d565b80516108098161238d565b60008083601f84011261168257600080fd5b50813567ffffffffffffffff81111561169a57600080fd5b6020830191508360208202830111156116b257600080fd5b9250929050565b8051610809816123a1565b8035610809816123a1565b8051610809816123aa565b6000602082840312156116ec57600080fd5b60006116f8848461165a565b949350505050565b60006020828403121561171257600080fd5b60006116f88484611665565b60008060006060848603121561173357600080fd5b600061173f868661165a565b9350506020611750868287016116c4565b92505060406117618682870161165a565b9150509250925092565b6000806020838503121561177e57600080fd5b823567ffffffffffffffff81111561179557600080fd5b6117a185828601611670565b92509250509250929050565b600080600080604085870312156117c357600080fd5b843567ffffffffffffffff8111156117da57600080fd5b6117e687828801611670565b9450945050602085013567ffffffffffffffff81111561180557600080fd5b61181187828801611670565b95989497509550505050565b6000806000806000806060878903121561183657600080fd5b863567ffffffffffffffff81111561184d57600080fd5b61185989828a01611670565b9650965050602087013567ffffffffffffffff81111561187857600080fd5b61188489828a01611670565b9450945050604087013567ffffffffffffffff8111156118a357600080fd5b6118af89828a01611670565b92509250509295509295509295565b6000602082840312156118d057600080fd5b60006116f884846116b9565b6000602082840312156118ee57600080fd5b60006116f884846116c4565b60006020828403121561190c57600080fd5b60006116f884846116cf565b61192181612313565b82525050565b6119218161231e565b61192181612342565b600061194482612306565b61194e818561230a565b935061195e81856020860161234d565b61196781612379565b9093019392505050565b600061197e60288361230a565b7f5f5f73657445746855736441676772656761746f723a2056616c756520616c728152671958591e481cd95d60c21b602082015260400192915050565b60006119c860448361230a565b7f7570646174655072696d6974697665733a20556e657175616c205f7072696d6981527f746976657320616e64205f61676772656761746f7273206172726179206c656e6020820152636774687360e01b604082015260600192915050565b6000611a34602d8361230a565b7f5f5f6765744c617465737452617465446174613a205072696d6974697665206481526c1bd95cc81b9bdd08195e1a5cdd609a1b602082015260400192915050565b6000611a8360498361230a565b7f6f6e6c7946756e644465706c6f7965724f776e65723a204f6e6c79207468652081527f46756e644465706c6f796572206f776e65722063616e2063616c6c207468697360208201526810333ab731ba34b7b760b91b604082015260600192915050565b6000611af460288361230a565b7f72656d6f76655374616c655072696d6974697665733a20496e76616c6964207081526772696d697469766560c01b602082015260400192915050565b6000611b3e60278361230a565b7f5f5f76616c696461746541676772656761746f723a20456d707479205f6167678152663932b3b0ba37b960c91b602082015260400192915050565b6000611b8760328361230a565b7f72656d6f76655374616c655072696d6974697665733a205f7072696d6974697681527165732063616e6e6f7420626520656d70747960701b602082015260400192915050565b6000611bdb602a8361230a565b7f6164645072696d6974697665733a205f7072696d6974697665732063616e6e6f8152697420626520656d70747960b01b602082015260400192915050565b6000611c27601e8361230a565b7f536166654d6174683a207375627472616374696f6e206f766572666c6f770000815260200192915050565b6000611c60601a8361230a565b7f536166654d6174683a206469766973696f6e206279207a65726f000000000000815260200192915050565b6000611c9960238361230a565b7f7570646174655072696d6974697665733a2056616c756520616c7265616479208152621cd95d60ea1b602082015260400192915050565b6000611cde602d8361230a565b7f72656d6f76655072696d6974697665733a205f7072696d69746976657320636181526c6e6e6f7420626520656d70747960981b602082015260400192915050565b6000611d2d60428361230a565b7f5f5f6164645072696d6974697665733a20556e657175616c205f7072696d697481527f6976657320616e64205f72617465417373657473206172726179206c656e6774602082015261687360f01b604082015260600192915050565b6000611d9760288361230a565b7f72656d6f76655374616c655072696d6974697665733a2052617465206973206e8152676f74207374616c6560c01b602082015260400192915050565b6000611de160218361230a565b7f536166654d6174683a206d756c7469706c69636174696f6e206f766572666c6f8152607760f81b602082015260400192915050565b6000611e2460298361230a565b7f5f5f76616c696461746541676772656761746f723a205374616c6520726174658152680819195d1958dd195960ba1b602082015260400192915050565b6000611e6f602a8361230a565b7f5f5f7365745374616c65526174655468726573686f6c643a2056616c756520618152691b1c9958591e481cd95d60b21b602082015260400192915050565b6000611ebb60268361230a565b7f5f5f76616c696461746541676772656761746f723a204e6f20726174652064658152651d1958dd195960d21b602082015260400192915050565b6000611f0360298361230a565b7f7570646174655072696d6974697665733a205072696d6974697665206e6f74208152681e595d08185919195960ba1b602082015260400192915050565b6000611f4e60438361230a565b7f5f5f6164645072696d6974697665733a20556e657175616c205f7072696d697481527f6976657320616e64205f61676772656761746f7273206172726179206c656e6760208201526274687360e81b604082015260600192915050565b6000611fb9602d8361230a565b7f7570646174655072696d6974697665733a205f7072696d69746976657320636181526c6e6e6f7420626520656d70747960981b602082015260400192915050565b600061200860298361230a565b7f72656d6f76655072696d6974697665733a205072696d6974697665206e6f74208152681e595d08185919195960ba1b602082015260400192915050565b600061205360228361230a565b7f5f5f6164645072696d6974697665733a2056616c756520616c72656164792073815261195d60f21b602082015260400192915050565b8051604083019061209b8482611918565b5060208201516115176020850182611930565b6119218161232d565b602081016108098284611918565b604081016120d38285611918565b610f3f6020830184611918565b606081016120ee8286611918565b6120fb6020830185611930565b6116f860408301846120ae565b602081016108098284611927565b602081016108098284611930565b604080825281016121358185611939565b9050610f3f6020830184611918565b6020808252810161080981611971565b60208082528101610809816119bb565b6020808252810161080981611a27565b6020808252810161080981611a76565b6020808252810161080981611ae7565b6020808252810161080981611b31565b6020808252810161080981611b7a565b6020808252810161080981611bce565b6020808252810161080981611c1a565b6020808252810161080981611c53565b6020808252810161080981611c8c565b6020808252810161080981611cd1565b6020808252810161080981611d20565b6020808252810161080981611d8a565b6020808252810161080981611dd4565b6020808252810161080981611e17565b6020808252810161080981611e62565b6020808252810161080981611eae565b6020808252810161080981611ef6565b6020808252810161080981611f41565b6020808252810161080981611fac565b6020808252810161080981611ffb565b6020808252810161080981612046565b60408101610809828461208a565b6020810161080982846120ae565b604081016122de82856120ae565b610f3f6020830184611927565b604081016122f982856120ae565b610f3f60208301846120ae565b5190565b90815260200190565b600061080982612330565b151590565b806105aa81612383565b90565b6001600160a01b031690565b60ff1690565b600061080982612323565b60005b83811015612368578181015183820152602001612350565b838111156115175750506000910152565b601f01601f191690565b60028110610ab757fe5b61239681612313565b8114610ab757600080fd5b6123968161232d565b6123968161233c56fea2646970667358221220e37bce0bb88fbcb2a30595584ee2e3ffe0c76e1a4c5d7bfe63e2c03637bfec9d64736f6c634300060c00335f5f6164645072696d6974697665733a20556e657175616c205f7072696d6974",
  "devdoc": {
    "author": "Enzyme Council <security@enzyme.finance>",
    "kind": "dev",
    "methods": {
      "addPrimitives(address[],address[],uint8[])": {
        "params": {
          "_aggregators": "The ordered aggregators corresponding to the list of _primitives",
          "_primitives": "The primitives to add",
          "_rateAssets": "The ordered rate assets corresponding to the list of _primitives"
        }
      },
      "calcCanonicalValue(address,uint256,address)": {
        "params": {
          "_baseAsset": "The base asset",
          "_baseAssetAmount": "The base asset amount to convert",
          "_quoteAsset": "The quote asset"
        },
        "returns": {
          "isValid_": "True if the rates used in calculations are deemed valid",
          "quoteAssetAmount_": "The equivalent quote asset amount"
        }
      },
      "calcLiveValue(address,uint256,address)": {
        "details": "Live and canonical values are the same for Chainlink",
        "params": {
          "_baseAsset": "The base asset",
          "_baseAssetAmount": "The base asset amount to convert",
          "_quoteAsset": "The quote asset"
        },
        "returns": {
          "isValid_": "True if the rates used in calculations are deemed valid",
          "quoteAssetAmount_": "The equivalent quote asset amount"
        }
      },
      "getAggregatorInfoForPrimitive(address)": {
        "params": {
          "_primitive": "The primitive asset for which to get the aggregatorInfo value"
        },
        "returns": {
          "aggregatorInfo_": "The aggregatorInfo value"
        }
      },
      "getEthUsdAggregator()": {
        "returns": {
          "ethUsdAggregator_": "The `ethUsdAggregator` variable value"
        }
      },
      "getFundDeployer()": {
        "returns": {
          "fundDeployer_": "The `FUND_DEPLOYER` variable value"
        }
      },
      "getOwner()": {
        "details": "Ownership is deferred to the owner of the FundDeployer contract",
        "returns": {
          "owner_": "The owner"
        }
      },
      "getRateAssetForPrimitive(address)": {
        "details": "This isn't strictly necessary as WETH_TOKEN will be undefined and thus the RateAsset will be the 0-position of the enum (i.e. ETH), but it makes the behavior more explicit",
        "returns": {
          "rateAsset_": "The rateAsset variable value"
        }
      },
      "getStaleRateThreshold()": {
        "returns": {
          "staleRateThreshold_": "The `staleRateThreshold` variable value"
        }
      },
      "getUnitForPrimitive(address)": {
        "returns": {
          "unit_": "The unit variable value"
        }
      },
      "getWethToken()": {
        "returns": {
          "wethToken_": "The `WETH_TOKEN` variable value"
        }
      },
      "isSupportedAsset(address)": {
        "params": {
          "_asset": "The asset to check"
        },
        "returns": {
          "isSupported_": "True if the asset is a supported primitive"
        }
      },
      "rateIsStale(address)": {
        "params": {
          "_aggregator": "The Chainlink aggregator of which to check staleness"
        },
        "returns": {
          "rateIsStale_": "True if the rate is considered stale"
        }
      },
      "removePrimitives(address[])": {
        "params": {
          "_primitives": "The primitives to remove"
        }
      },
      "removeStalePrimitives(address[])": {
        "details": "Callable by anybody",
        "params": {
          "_primitives": "The stale primitives to remove"
        }
      },
      "setEthUsdAggregator(address)": {
        "params": {
          "_nextEthUsdAggregator": "The `ehUsdAggregator` value to set"
        }
      },
      "setStaleRateThreshold(uint256)": {
        "params": {
          "_nextStaleRateThreshold": "The next `staleRateThreshold` value"
        }
      },
      "updatePrimitives(address[],address[])": {
        "params": {
          "_aggregators": "The ordered aggregators corresponding to the list of _primitives",
          "_primitives": "The primitives to update"
        }
      }
    },
    "title": "ChainlinkPriceFeed Contract",
    "version": 1
  },
  "userdoc": {
    "kind": "user",
    "methods": {
      "addPrimitives(address[],address[],uint8[])": {
        "notice": "Adds a list of primitives with the given aggregator and rateAsset values"
      },
      "calcCanonicalValue(address,uint256,address)": {
        "notice": "Calculates the value of a base asset in terms of a quote asset (using a canonical rate)"
      },
      "calcLiveValue(address,uint256,address)": {
        "notice": "Calculates the value of a base asset in terms of a quote asset (using a live rate)"
      },
      "getAggregatorInfoForPrimitive(address)": {
        "notice": "Gets the aggregatorInfo variable value for a primitive"
      },
      "getEthUsdAggregator()": {
        "notice": "Gets the `ethUsdAggregator` variable value"
      },
      "getFundDeployer()": {
        "notice": "Gets the `FUND_DEPLOYER` variable"
      },
      "getOwner()": {
        "notice": "Gets the owner of this contract"
      },
      "getRateAssetForPrimitive(address)": {
        "notice": "Gets the rateAsset variable value for a primitive"
      },
      "getStaleRateThreshold()": {
        "notice": "Gets the `staleRateThreshold` variable value"
      },
      "getUnitForPrimitive(address)": {
        "notice": "Gets the unit variable value for a primitive"
      },
      "getWethToken()": {
        "notice": "Gets the `WETH_TOKEN` variable value"
      },
      "isSupportedAsset(address)": {
        "notice": "Checks whether an asset is a supported primitive of the price feed"
      },
      "rateIsStale(address)": {
        "notice": "Checks whether the current rate is considered stale for the specified aggregator"
      },
      "removePrimitives(address[])": {
        "notice": "Removes a list of primitives from the feed"
      },
      "removeStalePrimitives(address[])": {
        "notice": "Removes stale primitives from the feed"
      },
      "setEthUsdAggregator(address)": {
        "notice": "Sets the `ehUsdAggregator` variable value"
      },
      "setStaleRateThreshold(uint256)": {
        "notice": "Sets the `staleRateThreshold` variable"
      },
      "updatePrimitives(address[],address[])": {
        "notice": "Updates the aggregators for given primitives"
      }
    },
    "notice": "A price feed that uses Chainlink oracles as price sources",
    "version": 1
  },
  "storageLayout": {
    "storage": [
      {
        "astId": 41590,
        "contract": "contracts/release/infrastructure/price-feeds/primitives/ChainlinkPriceFeed.sol:ChainlinkPriceFeed",
        "label": "ethUsdAggregator",
        "offset": 0,
        "slot": "0",
        "type": "t_address"
      },
      {
        "astId": 41592,
        "contract": "contracts/release/infrastructure/price-feeds/primitives/ChainlinkPriceFeed.sol:ChainlinkPriceFeed",
        "label": "staleRateThreshold",
        "offset": 0,
        "slot": "1",
        "type": "t_uint256"
      },
      {
        "astId": 41596,
        "contract": "contracts/release/infrastructure/price-feeds/primitives/ChainlinkPriceFeed.sol:ChainlinkPriceFeed",
        "label": "primitiveToAggregatorInfo",
        "offset": 0,
        "slot": "2",
        "type": "t_mapping(t_address,t_struct(AggregatorInfo)41581_storage)"
      },
      {
        "astId": 41600,
        "contract": "contracts/release/infrastructure/price-feeds/primitives/ChainlinkPriceFeed.sol:ChainlinkPriceFeed",
        "label": "primitiveToUnit",
        "offset": 0,
        "slot": "3",
        "type": "t_mapping(t_address,t_uint256)"
      }
    ],
    "types": {
      "t_address": {
        "encoding": "inplace",
        "label": "address",
        "numberOfBytes": "20"
      },
      "t_enum(RateAsset)41576": {
        "encoding": "inplace",
        "label": "enum ChainlinkPriceFeed.RateAsset",
        "numberOfBytes": "1"
      },
      "t_mapping(t_address,t_struct(AggregatorInfo)41581_storage)": {
        "encoding": "mapping",
        "key": "t_address",
        "label": "mapping(address => struct ChainlinkPriceFeed.AggregatorInfo)",
        "numberOfBytes": "32",
        "value": "t_struct(AggregatorInfo)41581_storage"
      },
      "t_mapping(t_address,t_uint256)": {
        "encoding": "mapping",
        "key": "t_address",
        "label": "mapping(address => uint256)",
        "numberOfBytes": "32",
        "value": "t_uint256"
      },
      "t_struct(AggregatorInfo)41581_storage": {
        "encoding": "inplace",
        "label": "struct ChainlinkPriceFeed.AggregatorInfo",
        "members": [
          {
            "astId": 41578,
            "contract": "contracts/release/infrastructure/price-feeds/primitives/ChainlinkPriceFeed.sol:ChainlinkPriceFeed",
            "label": "aggregator",
            "offset": 0,
            "slot": "0",
            "type": "t_address"
          },
          {
            "astId": 41580,
            "contract": "contracts/release/infrastructure/price-feeds/primitives/ChainlinkPriceFeed.sol:ChainlinkPriceFeed",
            "label": "rateAsset",
            "offset": 20,
            "slot": "0",
            "type": "t_enum(RateAsset)41576"
          }
        ],
        "numberOfBytes": "32"
      },
      "t_uint256": {
        "encoding": "inplace",
        "label": "uint256",
        "numberOfBytes": "32"
      }
    }
  }
}