{
  "address": "0x50381b32b9a1b91D2423d4773A2E02a855cb0c0d",
  "abi": [
    {
      "inputs": [
        {
          "internalType": "address",
          "name": "_dispatcher",
          "type": "address"
        },
        {
          "internalType": "address",
          "name": "_fundDeployer",
          "type": "address"
        },
        {
          "internalType": "address",
          "name": "_valueInterpreter",
          "type": "address"
        },
        {
          "internalType": "address",
          "name": "_feeManager",
          "type": "address"
        },
        {
          "internalType": "address",
          "name": "_integrationManager",
          "type": "address"
        },
        {
          "internalType": "address",
          "name": "_policyManager",
          "type": "address"
        },
        {
          "internalType": "address",
          "name": "_primitivePriceFeed",
          "type": "address"
        },
        {
          "internalType": "address",
          "name": "_synthetixPriceFeed",
          "type": "address"
        },
        {
          "internalType": "address",
          "name": "_synthetixAddressResolver",
          "type": "address"
        }
      ],
      "stateMutability": "nonpayable",
      "type": "constructor"
    },
    {
      "anonymous": false,
      "inputs": [
        {
          "indexed": false,
          "internalType": "uint256",
          "name": "sharesDue",
          "type": "uint256"
        }
      ],
      "name": "MigratedSharesDuePaid",
      "type": "event"
    },
    {
      "anonymous": false,
      "inputs": [
        {
          "indexed": true,
          "internalType": "bool",
          "name": "overridePause",
          "type": "bool"
        }
      ],
      "name": "OverridePauseSet",
      "type": "event"
    },
    {
      "anonymous": false,
      "inputs": [
        {
          "indexed": false,
          "internalType": "bytes",
          "name": "failureReturnData",
          "type": "bytes"
        },
        {
          "indexed": false,
          "internalType": "address",
          "name": "redeemer",
          "type": "address"
        },
        {
          "indexed": false,
          "internalType": "uint256",
          "name": "sharesQuantity",
          "type": "uint256"
        }
      ],
      "name": "PreRedeemSharesHookFailed",
      "type": "event"
    },
    {
      "anonymous": false,
      "inputs": [
        {
          "indexed": true,
          "internalType": "address",
          "name": "caller",
          "type": "address"
        },
        {
          "indexed": true,
          "internalType": "address",
          "name": "buyer",
          "type": "address"
        },
        {
          "indexed": false,
          "internalType": "uint256",
          "name": "investmentAmount",
          "type": "uint256"
        },
        {
          "indexed": false,
          "internalType": "uint256",
          "name": "sharesIssued",
          "type": "uint256"
        },
        {
          "indexed": false,
          "internalType": "uint256",
          "name": "sharesReceived",
          "type": "uint256"
        }
      ],
      "name": "SharesBought",
      "type": "event"
    },
    {
      "anonymous": false,
      "inputs": [
        {
          "indexed": true,
          "internalType": "address",
          "name": "redeemer",
          "type": "address"
        },
        {
          "indexed": false,
          "internalType": "uint256",
          "name": "sharesQuantity",
          "type": "uint256"
        },
        {
          "indexed": false,
          "internalType": "address[]",
          "name": "receivedAssets",
          "type": "address[]"
        },
        {
          "indexed": false,
          "internalType": "uint256[]",
          "name": "receivedAssetQuantities",
          "type": "uint256[]"
        }
      ],
      "name": "SharesRedeemed",
      "type": "event"
    },
    {
      "anonymous": false,
      "inputs": [
        {
          "indexed": false,
          "internalType": "address",
          "name": "vaultProxy",
          "type": "address"
        }
      ],
      "name": "VaultProxySet",
      "type": "event"
    },
    {
      "inputs": [
        {
          "internalType": "address",
          "name": "_vaultProxy",
          "type": "address"
        },
        {
          "internalType": "bool",
          "name": "_isMigration",
          "type": "bool"
        }
      ],
      "name": "activate",
      "outputs": [],
      "stateMutability": "nonpayable",
      "type": "function"
    },
    {
      "inputs": [
        {
          "internalType": "address[]",
          "name": "_buyers",
          "type": "address[]"
        },
        {
          "internalType": "uint256[]",
          "name": "_investmentAmounts",
          "type": "uint256[]"
        },
        {
          "internalType": "uint256[]",
          "name": "_minSharesQuantities",
          "type": "uint256[]"
        }
      ],
      "name": "buyShares",
      "outputs": [
        {
          "internalType": "uint256[]",
          "name": "sharesReceivedAmounts_",
          "type": "uint256[]"
        }
      ],
      "stateMutability": "nonpayable",
      "type": "function"
    },
    {
      "inputs": [
        {
          "internalType": "bool",
          "name": "_requireFinality",
          "type": "bool"
        }
      ],
      "name": "calcGav",
      "outputs": [
        {
          "internalType": "uint256",
          "name": "gav_",
          "type": "uint256"
        },
        {
          "internalType": "bool",
          "name": "isValid_",
          "type": "bool"
        }
      ],
      "stateMutability": "nonpayable",
      "type": "function"
    },
    {
      "inputs": [
        {
          "internalType": "bool",
          "name": "_requireFinality",
          "type": "bool"
        }
      ],
      "name": "calcGrossShareValue",
      "outputs": [
        {
          "internalType": "uint256",
          "name": "grossShareValue_",
          "type": "uint256"
        },
        {
          "internalType": "bool",
          "name": "isValid_",
          "type": "bool"
        }
      ],
      "stateMutability": "nonpayable",
      "type": "function"
    },
    {
      "inputs": [
        {
          "internalType": "address",
          "name": "_extension",
          "type": "address"
        },
        {
          "internalType": "uint256",
          "name": "_actionId",
          "type": "uint256"
        },
        {
          "internalType": "bytes",
          "name": "_callArgs",
          "type": "bytes"
        }
      ],
      "name": "callOnExtension",
      "outputs": [],
      "stateMutability": "nonpayable",
      "type": "function"
    },
    {
      "inputs": [
        {
          "internalType": "bytes",
          "name": "_feeManagerConfigData",
          "type": "bytes"
        },
        {
          "internalType": "bytes",
          "name": "_policyManagerConfigData",
          "type": "bytes"
        }
      ],
      "name": "configureExtensions",
      "outputs": [],
      "stateMutability": "nonpayable",
      "type": "function"
    },
    {
      "inputs": [],
      "name": "destruct",
      "outputs": [],
      "stateMutability": "nonpayable",
      "type": "function"
    },
    {
      "inputs": [],
      "name": "getDenominationAsset",
      "outputs": [
        {
          "internalType": "address",
          "name": "denominationAsset_",
          "type": "address"
        }
      ],
      "stateMutability": "view",
      "type": "function"
    },
    {
      "inputs": [],
      "name": "getLibRoutes",
      "outputs": [
        {
          "internalType": "address",
          "name": "dispatcher_",
          "type": "address"
        },
        {
          "internalType": "address",
          "name": "feeManager_",
          "type": "address"
        },
        {
          "internalType": "address",
          "name": "fundDeployer_",
          "type": "address"
        },
        {
          "internalType": "address",
          "name": "integrationManager_",
          "type": "address"
        },
        {
          "internalType": "address",
          "name": "policyManager_",
          "type": "address"
        },
        {
          "internalType": "address",
          "name": "primitivePriceFeed_",
          "type": "address"
        },
        {
          "internalType": "address",
          "name": "valueInterpreter_",
          "type": "address"
        }
      ],
      "stateMutability": "view",
      "type": "function"
    },
    {
      "inputs": [],
      "name": "getOverridePause",
      "outputs": [
        {
          "internalType": "bool",
          "name": "overridePause_",
          "type": "bool"
        }
      ],
      "stateMutability": "view",
      "type": "function"
    },
    {
      "inputs": [],
      "name": "getSharesActionTimelock",
      "outputs": [
        {
          "internalType": "uint256",
          "name": "sharesActionTimelock_",
          "type": "uint256"
        }
      ],
      "stateMutability": "view",
      "type": "function"
    },
    {
      "inputs": [],
      "name": "getSynthetixAddressResolver",
      "outputs": [
        {
          "internalType": "address",
          "name": "synthetixAddressResolver_",
          "type": "address"
        }
      ],
      "stateMutability": "view",
      "type": "function"
    },
    {
      "inputs": [],
      "name": "getSynthetixPriceFeed",
      "outputs": [
        {
          "internalType": "address",
          "name": "synthetixPriceFeed_",
          "type": "address"
        }
      ],
      "stateMutability": "view",
      "type": "function"
    },
    {
      "inputs": [],
      "name": "getVaultProxy",
      "outputs": [
        {
          "internalType": "address",
          "name": "vaultProxy_",
          "type": "address"
        }
      ],
      "stateMutability": "view",
      "type": "function"
    },
    {
      "inputs": [
        {
          "internalType": "address",
          "name": "_denominationAsset",
          "type": "address"
        },
        {
          "internalType": "uint256",
          "name": "_sharesActionTimelock",
          "type": "uint256"
        }
      ],
      "name": "init",
      "outputs": [],
      "stateMutability": "nonpayable",
      "type": "function"
    },
    {
      "inputs": [
        {
          "internalType": "enum IComptroller.VaultAction",
          "name": "_action",
          "type": "uint8"
        },
        {
          "internalType": "bytes",
          "name": "_actionData",
          "type": "bytes"
        }
      ],
      "name": "permissionedVaultAction",
      "outputs": [],
      "stateMutability": "nonpayable",
      "type": "function"
    },
    {
      "inputs": [],
      "name": "redeemShares",
      "outputs": [
        {
          "internalType": "address[]",
          "name": "payoutAssets_",
          "type": "address[]"
        },
        {
          "internalType": "uint256[]",
          "name": "payoutAmounts_",
          "type": "uint256[]"
        }
      ],
      "stateMutability": "nonpayable",
      "type": "function"
    },
    {
      "inputs": [
        {
          "internalType": "uint256",
          "name": "_sharesQuantity",
          "type": "uint256"
        },
        {
          "internalType": "address[]",
          "name": "_additionalAssets",
          "type": "address[]"
        },
        {
          "internalType": "address[]",
          "name": "_assetsToSkip",
          "type": "address[]"
        }
      ],
      "name": "redeemSharesDetailed",
      "outputs": [
        {
          "internalType": "address[]",
          "name": "payoutAssets_",
          "type": "address[]"
        },
        {
          "internalType": "uint256[]",
          "name": "payoutAmounts_",
          "type": "uint256[]"
        }
      ],
      "stateMutability": "nonpayable",
      "type": "function"
    },
    {
      "inputs": [
        {
          "internalType": "bool",
          "name": "_nextOverridePause",
          "type": "bool"
        }
      ],
      "name": "setOverridePause",
      "outputs": [],
      "stateMutability": "nonpayable",
      "type": "function"
    },
    {
      "inputs": [
        {
          "internalType": "address",
          "name": "_contract",
          "type": "address"
        },
        {
          "internalType": "bytes4",
          "name": "_selector",
          "type": "bytes4"
        },
        {
          "internalType": "bytes",
          "name": "_encodedArgs",
          "type": "bytes"
        }
      ],
      "name": "vaultCallOnContract",
      "outputs": [],
      "stateMutability": "nonpayable",
      "type": "function"
    }
  ],
  "transactionHash": "0x1c95b520dfb4c77933fb02b03285bff28ae4977e70a15dc4ae0b90bca8e02480",
  "args": [
    "0xeb85C242C8de456aD6b4104b351668aB96399615",
    "0x148a6FFbD7CCF8Ef7DB4dFD3103C4f197f3d46B2",
    "0x1f956E9D93ACa08907323Bf0878A1a87F96a8C65",
    "0xFDB42488D0A2F32693F3D87141806734ea7833b9",
    "0x35a9ed450d4b5a12e24Ff81df198C7e412Aa2745",
    "0x008DBE548c97D253c8161305883AE506f264c4fD",
    "0x2cC6D6915A9E9f340435b7AD8C2e916706b8FD59",
    "0xfE9bE5590f2BEEb56F76D1CEcf815E89b8C9020C",
    "0x93A5c5c7547832c8ebFcCAbc2157D43A9c5E68d4"
  ],
  "solcInputHash": "a255b7352a771229d5d6ada28c33f53e",
  "bytecode": "0x6101a060405234801561001157600080fd5b50604051620052ab380380620052ab833981810160405261012081101561003757600080fd5b5080516020820151604083015160608085015160808087015160a08089015160c0808b015160e0808d01516101009d8e01516001600160601b0319908b1b8116909852891b871690945299871b8516905293851b831690985294831b811690965292811b85166101205292831b84166101405290821b831661016052901b16610180526001805460ff60a01b1916600160a01b17905560805160601c60a05160601c60c05160601c60e05160601c6101005160601c6101205160601c6101405160601c6101605160601c6101805160601c6150c5620001e6600039806118c95280611cd7525080610bc2528061133e5280611595528061188752806135845280613b67528061456352806147fa525080610c9852806118a8525080610b4f5280610e3252806112be52806118665280612368525080610adc5280610e06528061123e52806114e25280611824528061243352806136ff5280613ce25280613f77528061443952806146cf525080611845528061192852806128bb5280613d6a5250806118035280611f2a5280612af65250806113c252806132d152508061148a528061337452506150c56000f3fe608060405234801561001057600080fd5b506004361061012c5760003560e01c806396aed587116100ad578063d6ca66ce11610071578063d6ca66ce14610575578063e269c3d6146105c8578063e572ced1146105d0578063f513c9261461065d578063f9f585dd1461067c5761012c565b806396aed58714610453578063b417061214610511578063b460481d14610549578063c0a4c0a314610551578063c98091871461056d5761012c565b80636487b384116100f45780636487b3841461027c57806382d3a1dd146103da5780638d064eae14610408578063944eb7b81461042c57806396471b081461044b5761012c565b806310acd06d146101315780632b68b9c6146101ab578063399ae724146101b357806339bf70d1146101df5780634da471b714610262575b600080fd5b6101a96004803603604081101561014757600080fd5b60ff8235169190810190604081016020820135600160201b81111561016b57600080fd5b82018360208201111561017d57600080fd5b803590602001918460018302840111600160201b8311171561019e57600080fd5b5090925090506107da565b005b6101a9610a50565b6101a9600480360360408110156101c957600080fd5b506001600160a01b038135169060200135610c38565b6101a9600480360360608110156101f557600080fd5b6001600160a01b0382351691602081013591810190606081016040820135600160201b81111561022457600080fd5b82018360208201111561023657600080fd5b803590602001918460018302840111600160201b8311171561025757600080fd5b509092509050610da6565b61026a610f58565b60408051918252519081900360200190f35b6103416004803603606081101561029257600080fd5b81359190810190604081016020820135600160201b8111156102b357600080fd5b8201836020820111156102c557600080fd5b803590602001918460208302840111600160201b831117156102e657600080fd5b919390929091602081019035600160201b81111561030357600080fd5b82018360208201111561031557600080fd5b803590602001918460208302840111600160201b8311171561033657600080fd5b509092509050610f5e565b604051808060200180602001838103835285818151815260200191508051906020019060200280838360005b8381101561038557818101518382015260200161036d565b50505050905001838103825284818151815260200191508051906020019060200280838360005b838110156103c45781810151838201526020016103ac565b5050505090500194505050505060405180910390f35b6101a9600480360360408110156103f057600080fd5b506001600160a01b0381351690602001351515610fde565b6104106113c0565b604080516001600160a01b039092168252519081900360200190f35b6101a96004803603602081101561044257600080fd5b503515156113e4565b610410611488565b6101a96004803603604081101561046957600080fd5b810190602081018135600160201b81111561048357600080fd5b82018360208201111561049557600080fd5b803590602001918460018302840111600160201b831117156104b657600080fd5b919390929091602081019035600160201b8111156104d357600080fd5b8201836020820111156104e557600080fd5b803590602001918460018302840111600160201b8311171561050657600080fd5b5090925090506114ac565b6105306004803603602081101561052757600080fd5b50351515611621565b6040805192835290151560208301528051918290030190f35b61034161173a565b6105596117e2565b604080519115158252519081900360200190f35b6104106117f2565b61057d611801565b604080516001600160a01b03988916815296881660208801529487168686015292861660608601529085166080850152841660a084015290921660c082015290519081900360e00190f35b6104106118f1565b6101a9600480360360608110156105e657600080fd5b6001600160a01b03823516916001600160e01b031960208201351691810190606081016040820135600160201b81111561061f57600080fd5b82018360208201111561063157600080fd5b803590602001918460018302840111600160201b8311171561065257600080fd5b509092509050611900565b6105306004803603602081101561067357600080fd5b50351515611b0a565b61078a6004803603606081101561069257600080fd5b810190602081018135600160201b8111156106ac57600080fd5b8201836020820111156106be57600080fd5b803590602001918460208302840111600160201b831117156106df57600080fd5b919390929091602081019035600160201b8111156106fc57600080fd5b82018360208201111561070e57600080fd5b803590602001918460208302840111600160201b8311171561072f57600080fd5b919390929091602081019035600160201b81111561074c57600080fd5b82018360208201111561075e57600080fd5b803590602001918460208302840111600160201b8311171561077f57600080fd5b509092509050611e22565b60408051602080825283518183015283519192839290830191858101910280838360005b838110156107c65781810151838201526020016107ae565b505050509050019250505060405180910390f35b6107e2612281565b6001546107f7906001600160a01b03166122ce565b610801338461231e565b600683600781111561080f57fe5b14156108595761085482828080601f01602080910402602001604051908101604052809392919081815260200183838082843760009201919091525061251c92505050565b610a4b565b600483600781111561086757fe5b14156108ac5761085482828080601f01602080910402602001604051908101604052809392919081815260200183838082843760009201919091525061258592505050565b60018360078111156108ba57fe5b14156108ff5761085482828080601f01602080910402602001604051908101604052809392919081815260200183838082843760009201919091525061261192505050565b600283600781111561090d57fe5b14156109525761085482828080601f0160208091040260200160405190810160405280939291908181526020018383808284376000920191909152506126a892505050565b600783600781111561096057fe5b14156109a55761085482828080601f01602080910402602001604051908101604052809392919081815260200183838082843760009201919091525061272292505050565b60038360078111156109b357fe5b14156109f85761085482828080601f0160208091040260200160405190810160405280939291908181526020018383808284376000920191909152506127a192505050565b6005836007811115610a0657fe5b1415610a4b57610a4b82828080601f01602080910402602001604051908101604052809392919081815260200183838082843760009201919091525061282d92505050565b505050565b610a59336128b9565b610a61612281565b610a6961293f565b6001805460ff60b01b1916600160b01b1790819055600160a01b900460ff1615610ada576040805162461bcd60e51b815260206004820181905260248201527f64657374727563743a204f6e6c792064656c65676174652063616c6c61626c65604482015290519081900360640190fd5b7f00000000000000000000000000000000000000000000000000000000000000006001600160a01b031663bd8e959a6040518163ffffffff1660e01b8152600401600060405180830381600087803b158015610b3557600080fd5b505af1158015610b49573d6000803e3d6000fd5b505050507f00000000000000000000000000000000000000000000000000000000000000006001600160a01b031663bd8e959a6040518163ffffffff1660e01b8152600401600060405180830381600087803b158015610ba857600080fd5b505af1158015610bbc573d6000803e3d6000fd5b505050507f00000000000000000000000000000000000000000000000000000000000000006001600160a01b031663bd8e959a6040518163ffffffff1660e01b8152600401600060405180830381600087803b158015610c1b57600080fd5b505af1158015610c2f573d6000803e3d6000fd5b50600092505050ff5b6000546001600160a01b031615610c96576040805162461bcd60e51b815260206004820152601960248201527f696e69743a20416c726561647920696e697469616c697a656400000000000000604482015290519081900360640190fd5b7f00000000000000000000000000000000000000000000000000000000000000006001600160a01b0316639be918e6836040518263ffffffff1660e01b815260040180826001600160a01b0316815260200191505060206040518083038186803b158015610d0357600080fd5b505afa158015610d17573d6000803e3d6000fd5b505050506040513d6020811015610d2d57600080fd5b5051610d80576040805162461bcd60e51b815260206004820152601c60248201527f696e69743a204261642064656e6f6d696e6174696f6e20617373657400000000604482015290519081900360640190fd5b600080546001600160a01b0319166001600160a01b039390931692909217909155600255565b610dae612281565b600154610dc3906001600160a01b03166122ce565b610dcb61299e565b6001805460ff60b81b1916600160b81b179055610de661293f565b6001805460ff60b01b1916600160b01b1790556001600160a01b038481167f0000000000000000000000000000000000000000000000000000000000000000919091161480610e6657507f00000000000000000000000000000000000000000000000000000000000000006001600160a01b0316846001600160a01b0316145b610ea15760405162461bcd60e51b8152600401808060200182810382526023815260200180614f7d6023913960400191505060405180910390fd5b836001600160a01b0316631bee801e338585856040518563ffffffff1660e01b815260040180856001600160a01b03168152602001848152602001806020018281038252848482818152602001925080828437600081840152601f19601f82011690508083019250505095505050505050600060405180830381600087803b158015610f2c57600080fd5b505af1158015610f40573d6000803e3d6000fd5b50506001805461ffff60b01b19169055505050505050565b60025490565b606080610fd0338888888080602002602001604051908101604052809392919081815260200183836020028082843760009201919091525050604080516020808c0282810182019093528b82529093508b92508a9182918501908490808284376000920191909152506129eb92505050565b915091509550959350505050565b610fe7336128b9565b600180546001600160a01b0384166001600160a01b0319909116811790915560408051918252517f5be181178e61e61e33f79c396c7194b8f3c80f77899da7bd96fe537411300bcb9181900360200190a180156111db576000826001600160a01b03166370a08231846040518263ffffffff1660e01b815260040180826001600160a01b0316815260200191505060206040518083038186803b15801561108d57600080fd5b505afa1580156110a1573d6000803e3d6000fd5b505050506040513d60208110156110b757600080fd5b5051905080156111d957826001600160a01b031663bfc77beb84856001600160a01b031663893d20e86040518163ffffffff1660e01b815260040160206040518083038186803b15801561110a57600080fd5b505afa15801561111e573d6000803e3d6000fd5b505050506040513d602081101561113457600080fd5b5051604080516001600160e01b031960e086901b1681526001600160a01b0393841660048201529290911660248301526044820185905251606480830192600092919082900301818387803b15801561118c57600080fd5b505af11580156111a0573d6000803e3d6000fd5b50506040805184815290517f8f9ec2c1cf1f95fcb5d89d3141949092850c5cfe04da4d9425dd840bf18cdc709350908190036020019150a15b505b60008054604080516327783b1760e11b81526001600160a01b039283166004820152905191851692634ef0762e9260248084019382900301818387803b15801561122457600080fd5b505af1158015611238573d6000803e3d6000fd5b505050507f00000000000000000000000000000000000000000000000000000000000000006001600160a01b03166380d57063826040518263ffffffff1660e01b8152600401808215158152602001915050600060405180830381600087803b1580156112a457600080fd5b505af11580156112b8573d6000803e3d6000fd5b505050507f00000000000000000000000000000000000000000000000000000000000000006001600160a01b03166380d57063826040518263ffffffff1660e01b8152600401808215158152602001915050600060405180830381600087803b15801561132457600080fd5b505af1158015611338573d6000803e3d6000fd5b505050507f00000000000000000000000000000000000000000000000000000000000000006001600160a01b03166380d57063826040518263ffffffff1660e01b8152600401808215158152602001915050600060405180830381600087803b1580156113a457600080fd5b505af11580156113b8573d6000803e3d6000fd5b505050505050565b7f000000000000000000000000000000000000000000000000000000000000000090565b6113ed336131c5565b600160159054906101000a900460ff161515811515141561143f5760405162461bcd60e51b81526004018080602001828103825260238152602001806150206023913960400191505060405180910390fd5b6001805460ff60a81b1916600160a81b831515908102919091179091556040517fb59eda3d5fc7c642cf9caba744cbb07fd462d0754170bac672351ddbf8cda9dc90600090a250565b7f000000000000000000000000000000000000000000000000000000000000000090565b6114b5336128b9565b82156115685760405163089cbe1d60e41b8152602060048201908152602482018590526001600160a01b037f000000000000000000000000000000000000000000000000000000000000000016916389cbe1d09187918791908190604401848480828437600081840152601f19601f8201169050808301925050509350505050600060405180830381600087803b15801561154f57600080fd5b505af1158015611563573d6000803e3d6000fd5b505050505b801561161b5760405163089cbe1d60e41b8152602060048201908152602482018390526001600160a01b037f000000000000000000000000000000000000000000000000000000000000000016916389cbe1d09185918591908190604401848480828437600081840152601f19601f8201169050808301925050509350505050600060405180830381600087803b15801561160257600080fd5b505af1158015611616573d6000803e3d6000fd5b505050505b50505050565b600080600061162f84611b0a565b809350819250505061173181600160009054906101000a90046001600160a01b03166001600160a01b03166318160ddd6040518163ffffffff1660e01b815260040160206040518083038186803b15801561168957600080fd5b505afa15801561169d573d6000803e3d6000fd5b505050506040513d60208110156116b357600080fd5b50516000546040805163313ce56760e01b815290516001600160a01b039092169163313ce56791600480820192602092909190829003018186803b1580156116fa57600080fd5b505afa15801561170e573d6000803e3d6000fd5b505050506040513d602081101561172457600080fd5b505160ff16600a0a61329e565b9250505b915091565b600154604080516370a0823160e01b81523360048201819052915160609384936117da9390926001600160a01b03909216916370a0823191602480820192602092909190829003018186803b15801561179257600080fd5b505afa1580156117a6573d6000803e3d6000fd5b505050506040513d60208110156117bc57600080fd5b505160408051600080825260208201908152818301909252906129eb565b915091509091565b600154600160a81b900460ff1690565b6001546001600160a01b031690565b7f00000000000000000000000000000000000000000000000000000000000000007f00000000000000000000000000000000000000000000000000000000000000007f00000000000000000000000000000000000000000000000000000000000000007f00000000000000000000000000000000000000000000000000000000000000007f00000000000000000000000000000000000000000000000000000000000000007f00000000000000000000000000000000000000000000000000000000000000007f000000000000000000000000000000000000000000000000000000000000000090919293949596565b6000546001600160a01b031690565b611908612281565b60015461191d906001600160a01b03166122ce565b611926336131c5565b7f00000000000000000000000000000000000000000000000000000000000000006001600160a01b031663dc77205385856040518363ffffffff1660e01b815260040180836001600160a01b03168152602001826001600160e01b03191681526020019250505060206040518083038186803b1580156119a557600080fd5b505afa1580156119b9573d6000803e3d6000fd5b505050506040513d60208110156119cf57600080fd5b5051611a0c5760405162461bcd60e51b8152600401808060200182810382526021815260200180614ef76021913960400191505060405180910390fd5b6001546040516001600160e01b03198516602082019081526001600160a01b039092169163a90cce4b9187918791879187916024018383808284378083019250505093505050506040516020818303038152906040526040518363ffffffff1660e01b815260040180836001600160a01b0316815260200180602001828103825283818151815260200191508051906020019080838360005b83811015611abd578181015183820152602001611aa5565b50505050905090810190601f168015611aea5780820380516001836020036101000a031916815260200191505b509350505050600060405180830381600087803b15801561160257600080fd5b6000806000600160009054906101000a90046001600160a01b031690506060816001600160a01b031663c4b973706040518163ffffffff1660e01b815260040160006040518083038186803b158015611b6257600080fd5b505afa158015611b76573d6000803e3d6000fd5b505050506040513d6000823e601f3d908101601f191682016040526020811015611b9f57600080fd5b8101908080516040519392919084600160201b821115611bbe57600080fd5b908301906020820185811115611bd357600080fd5b82518660208202830111600160201b82111715611bef57600080fd5b82525081516020918201928201910280838360005b83811015611c1c578181015183820152602001611c04565b505050509050016040525050509050805160001415611c445760006001935093505050611735565b6060815167ffffffffffffffff81118015611c5e57600080fd5b50604051908082528060200260200182016040528015611c88578160200160208202803683370190505b50905060005b8251811015611cd457611cb584848381518110611ca757fe5b6020026020010151896132cc565b828281518110611cc157fe5b6020908102919091010152600101611c8e565b507f00000000000000000000000000000000000000000000000000000000000000006001600160a01b031663ae6f52ad838360008054906101000a90046001600160a01b03166040518463ffffffff1660e01b8152600401808060200180602001846001600160a01b03168152602001838103835286818151815260200191508051906020019060200280838360005b83811015611d7c578181015183820152602001611d64565b50505050905001838103825285818151815260200191508051906020019060200280838360005b83811015611dbb578181015183820152602001611da3565b50505050905001955050505050506040805180830381600087803b158015611de257600080fd5b505af1158015611df6573d6000803e3d6000fd5b505050506040513d6040811015611e0c57600080fd5b5080516020909101519095509350505050915091565b6060611e2c612281565b611e3461299e565b6001805460ff60b81b1916600160b81b179055611e4f61293f565b6001805460ff60b01b1916600160b01b17905585611eb4576040805162461bcd60e51b815260206004820152601860248201527f6275795368617265733a20456d707479205f6275796572730000000000000000604482015290519081900360640190fd5b8584148015611ec257508582145b611f13576040805162461bcd60e51b815260206004820152601960248201527f6275795368617265733a20556e657175616c2061727261797300000000000000604482015290519081900360640190fd5b6001546001600160a01b0316611f28816122ce565b7f00000000000000000000000000000000000000000000000000000000000000006001600160a01b031663d0449d3d826040518263ffffffff1660e01b815260040180826001600160a01b0316815260200191505060206040518083038186803b158015611f9557600080fd5b505afa158015611fa9573d6000803e3d6000fd5b505050506040513d6020811015611fbf57600080fd5b505115612013576040805162461bcd60e51b815260206004820152601c60248201527f6275795368617265733a2050656e64696e67206d6967726174696f6e00000000604482015290519081900360640190fd5b6000806120206001611b0a565b915091508061206f576040805162461bcd60e51b8152602060048201526016602482015275313abca9b430b932b99d1024b73b30b634b21023a0ab60511b604482015290519081900360640190fd5b6120ae33898980806020026020016040519081016040528093929190818152602001838360200280828437600092019190915250879250613582915050565b60008060009054906101000a90046001600160a01b03169050600061217284866001600160a01b03166318160ddd6040518163ffffffff1660e01b815260040160206040518083038186803b15801561210657600080fd5b505afa15801561211a573d6000803e3d6000fd5b505050506040513d602081101561213057600080fd5b50516040805163313ce56760e01b815290516001600160a01b0387169163313ce567916004808301926020929190829003018186803b1580156116fa57600080fd5b90508a67ffffffffffffffff8111801561218b57600080fd5b506040519080825280602002602001820160405280156121b5578160200160208202803683370190505b50955060005b8b811015612258576122118d8d838181106121d257fe5b905060200201356001600160a01b03168c8c848181106121ee57fe5b905060200201358b8b8581811061220157fe5b9050602002013589868a8961384f565b87828151811061221d57fe5b60200260200101818152505061224e8b8b8381811061223857fe5b9050602002013586613b0290919063ffffffff16565b94506001016121bb565b50612264338786613b65565b50505050506001805461ffff60b01b191690559695505050505050565b612289613d64565b156122cc576040805162461bcd60e51b815260206004820152600e60248201526d119d5b99081a5cc81c185d5cd95960921b604482015290519081900360640190fd5b565b6001600160a01b03811661231b576040805162461bcd60e51b815260206004820152600f60248201526e46756e64206e6f742061637469766560881b604482015290519081900360640190fd5b50565b600154600160b01b900460ff166123665760405162461bcd60e51b8152600401808060200182810382526032815260200180614fc16032913960400191505060405180910390fd5b7f00000000000000000000000000000000000000000000000000000000000000006001600160a01b0316826001600160a01b031614156124315760048160078111156123ae57fe5b14806123c5575060068160078111156123c357fe5b145b806123db575060078160078111156123d957fe5b145b806123f1575060058160078111156123ef57fe5b145b61242c5760405162461bcd60e51b8152600401808060200182810382526041815260200180614f3c6041913960600191505060405180910390fd5b612518565b7f00000000000000000000000000000000000000000000000000000000000000006001600160a01b0316826001600160a01b031614156124e157600181600781111561247957fe5b14806124905750600281600781111561248e57fe5b145b806124a6575060038160078111156124a457fe5b145b61242c5760405162461bcd60e51b8152600401808060200182810382526039815260200180614e636039913960400191505060405180910390fd5b60405162461bcd60e51b8152600401808060200182810382526032815260200180614dfc6032913960400191505060405180910390fd5b5050565b600081806020019051602081101561253357600080fd5b5051600154604080516327783b1760e11b81526001600160a01b0380851660048301529151939450911691634ef0762e9160248082019260009290919082900301818387803b1580156113a457600080fd5b600080600083806020019051606081101561259f57600080fd5b508051602082015160409283015160015484516331bca92d60e21b81526001600160a01b0380861660048301528085166024830152604482018490529551949850929650909450929092169163c6f2a4b491606480830192600092919082900301818387803b15801561160257600080fd5b60008082806020019051604081101561262957600080fd5b50805160209091015160015460408051633b9e9f0160e21b81526001600160a01b038086166004830152602482018590529151949650929450169163ee7a7c049160448082019260009290919082900301818387803b15801561268b57600080fd5b505af115801561269f573d6000803e3d6000fd5b50505050505050565b6000808280602001905160408110156126c057600080fd5b508051602090910151600154604080516329460cc560e11b81526001600160a01b038086166004830152602482018590529151949650929450169163528c198a9160448082019260009290919082900301818387803b15801561268b57600080fd5b600081806020019051602081101561273957600080fd5b50516000549091506001600160a01b038083169116146125185760015460408051631c3efc4d60e21b81526001600160a01b038481166004830152915191909216916370fbf13491602480830192600092919082900301818387803b1580156113a457600080fd5b60008060008380602001905160608110156127bb57600080fd5b5080516020820151604092830151600154845163bfc77beb60e01b81526001600160a01b0380861660048301528085166024830152604482018490529551949850929650909450929092169163bfc77beb91606480830192600092919082900301818387803b15801561160257600080fd5b600080600083806020019051606081101561284757600080fd5b508051602082015160409283015160015484516312575d4f60e21b81526001600160a01b0380861660048301528085166024830152604482018490529551949850929650909450929092169163495d753c91606480830192600092919082900301818387803b15801561160257600080fd5b7f00000000000000000000000000000000000000000000000000000000000000006001600160a01b0316816001600160a01b03161461231b576040805162461bcd60e51b815260206004820152601a60248201527f4f6e6c792046756e644465706c6f7965722063616c6c61626c65000000000000604482015290519081900360640190fd5b600154600160b01b900460ff16156122cc576040805162461bcd60e51b815260206004820152601860248201527f5661756c7420616374696f6e2072652d656e7472616e63650000000000000000604482015290519081900360640190fd5b600154600160b81b900460ff16156122cc576040805162461bcd60e51b815260206004820152600b60248201526a52652d656e7472616e636560a81b604482015290519081900360640190fd5b6060806129f661299e565b6001805460ff60b81b1916600160b81b17905584612a455760405162461bcd60e51b815260040180806020018281038252602a815260200180614e9c602a913960400191505060405180910390fd5b612a4e84613e14565b612a895760405162461bcd60e51b8152600401808060200182810382526035815260200180614e2e6035913960400191505060405180910390fd5b612a9283613e14565b612acd5760405162461bcd60e51b8152600401808060200182810382526031815260200180614ec66031913960400191505060405180910390fd5b6001546040805163d0449d3d60e01b81526001600160a01b0392831660048201819052915191927f0000000000000000000000000000000000000000000000000000000000000000169163d0449d3d91602480820192602092909190829003018186803b158015612b3d57600080fd5b505afa158015612b51573d6000803e3d6000fd5b505050506040513d6020811015612b6757600080fd5b5051612b9257612b7687613eaa565b6001600160a01b03871660009081526003602052604090204290555b612b9a613d64565b612ba857612ba88787613f24565b604080516370a0823160e01b81526001600160a01b038981166004830152915183928316916370a08231916024808301926020929190829003018186803b158015612bf257600080fd5b505afa158015612c06573d6000803e3d6000fd5b505050506040513d6020811015612c1c57600080fd5b5051871115612c5c5760405162461bcd60e51b815260040180806020018281038252602381526020018061506d6023913960400191505060405180910390fd5b612d66826001600160a01b031663c4b973706040518163ffffffff1660e01b815260040160006040518083038186803b158015612c9857600080fd5b505afa158015612cac573d6000803e3d6000fd5b505050506040513d6000823e601f3d908101601f191682016040526020811015612cd557600080fd5b8101908080516040519392919084600160201b821115612cf457600080fd5b908301906020820185811115612d0957600080fd5b82518660208202830111600160201b82111715612d2557600080fd5b82525081516020918201928201910280838360005b83811015612d52578181015183820152602001612d3a565b505050509050016040525050508787614146565b93506000845111612dbe576040805162461bcd60e51b815260206004820181905260248201527f5f5f72656465656d5368617265733a204e6f207061796f757420617373657473604482015290519081900360640190fd5b6000816001600160a01b03166318160ddd6040518163ffffffff1660e01b815260040160206040518083038186803b158015612df957600080fd5b505afa158015612e0d573d6000803e3d6000fd5b505050506040513d6020811015612e2357600080fd5b505160408051633b9e9f0160e21b81526001600160a01b038c81166004830152602482018c905291519293509085169163ee7a7c049160448082019260009290919082900301818387803b158015612e7a57600080fd5b505af1158015612e8e573d6000803e3d6000fd5b50505050845167ffffffffffffffff81118015612eaa57600080fd5b50604051908082528060200260200182016040528015612ed4578160200160208202803683370190505b50600080549195506001600160a01b03909116905b86518110156130db576000612f1386898481518110612f0457fe5b602002602001015160016132cc565b9050838b1415612fe25780878381518110612f2a57fe5b602002602001018181525050826001600160a01b0316888381518110612f4c57fe5b60200260200101516001600160a01b031614612fdd57856001600160a01b03166370fbf134898481518110612f7d57fe5b60200260200101516040518263ffffffff1660e01b815260040180826001600160a01b03168152602001915050600060405180830381600087803b158015612fc457600080fd5b505af1158015612fd8573d6000803e3d6000fd5b505050505b61300f565b612ff684612ff0838e614338565b90614391565b87838151811061300257fe5b6020026020010181815250505b600087838151811061301d57fe5b602002602001015111156130d257856001600160a01b031663495d753c89848151811061304657fe5b60200260200101518e8a868151811061305b57fe5b60200260200101516040518463ffffffff1660e01b815260040180846001600160a01b03168152602001836001600160a01b031681526020018281526020019350505050600060405180830381600087803b1580156130b957600080fd5b505af11580156130cd573d6000803e3d6000fd5b505050505b50600101612ee9565b50896001600160a01b03167fce8be57c942668208b28e8687882422313992b50d7731f1467d6d5b881dee1058a8888604051808481526020018060200180602001838103835285818151815260200191508051906020019060200280838360005b8381101561315457818101518382015260200161313c565b50505050905001838103825284818151815260200191508051906020019060200280838360005b8381101561319357818101518382015260200161317b565b505050509050019550505050505060405180910390a2505050506001805460ff60b81b19169055909590945092505050565b600160009054906101000a90046001600160a01b03166001600160a01b031663893d20e86040518163ffffffff1660e01b815260040160206040518083038186803b15801561321357600080fd5b505afa158015613227573d6000803e3d6000fd5b505050506040513d602081101561323d57600080fd5b50516001600160a01b0382811691161461231b576040805162461bcd60e51b815260206004820152601860248201527f4f6e6c792066756e64206f776e65722063616c6c61626c650000000000000000604482015290519081900360640190fd5b6000826132ac5750806132c5565b6132c283612ff086670de0b6b3a7640000614338565b90505b9392505050565b6000807f00000000000000000000000000000000000000000000000000000000000000006001600160a01b0316638d8c1985856040518263ffffffff1660e01b815260040180826001600160a01b0316815260200191505060206040518083038186803b15801561333c57600080fd5b505afa158015613350573d6000803e3d6000fd5b505050506040513d602081101561336657600080fd5b5051905080156135005760007f00000000000000000000000000000000000000000000000000000000000000006001600160a01b031663dacb2d016040518163ffffffff1660e01b815260040180806822bc31b430b733b2b960b91b815250602001806020018281038252602d815260200180614ff3602d913960400191505060206040518083038186803b1580156133fe57600080fd5b505afa158015613412573d6000803e3d6000fd5b505050506040513d602081101561342857600080fd5b5051604080516306c5a00b60e21b81526001600160a01b03898116600483015260248201869052915192935090831691631b16802c916044808201926060929091908290030181600087803b15801561348057600080fd5b505af19250505080156134b457506040513d60608110156134a057600080fd5b508051602082015160409092015190919060015b6134fa5783156134f55760405162461bcd60e51b815260040180806020018281038252602f815260200180614dcd602f913960400191505060405180910390fd5b6134fe565b5050505b505b836001600160a01b03166370a08231866040518263ffffffff1660e01b815260040180826001600160a01b0316815260200191505060206040518083038186803b15801561354d57600080fd5b505afa158015613561573d6000803e3d6000fd5b505050506040513d602081101561357757600080fd5b505195945050505050565b7f00000000000000000000000000000000000000000000000000000000000000006001600160a01b0316630442bad530600086868660405160200180846001600160a01b0316815260200180602001838152602001828103825284818151815260200191508051906020019060200280838360005b8381101561360f5781810151838201526020016135f7565b505050509050019450505050506040516020818303038152906040526040518463ffffffff1660e01b815260040180846001600160a01b0316815260200183600581111561365957fe5b815260200180602001828103825283818151815260200191508051906020019080838360005b8381101561369757818101518382015260200161367f565b50505050905090810190601f1680156136c45780820380516001836020036101000a031916815260200191505b50945050505050600060405180830381600087803b1580156136e557600080fd5b505af11580156136f9573d6000803e3d6000fd5b505050507f00000000000000000000000000000000000000000000000000000000000000006001600160a01b0316637759c1646001858560405160200180836001600160a01b0316815260200180602001828103825283818151815260200191508051906020019060200280838360005b8381101561378257818101518382015260200161376a565b505050509050019350505050604051602081830303815290604052846040518463ffffffff1660e01b8152600401808460058111156137bd57fe5b815260200180602001838152602001828103825284818151815260200191508051906020019080838360005b838110156138015781810151838201526020016137e9565b50505050905090810190601f16801561382e5780820380516001836020036101000a031916815260200191505b50945050505050600060405180830381600087803b15801561268b57600080fd5b60008761385b81613eaa565b6000881161389a5760405162461bcd60e51b8152600401808060200182810382526024815260200180614f186024913960400191505060405180910390fd5b6138a6898989876143f8565b60006138be86612ff08b670de0b6b3a7640000614338565b90506000876001600160a01b03166370a082318c6040518263ffffffff1660e01b815260040180826001600160a01b0316815260200191505060206040518083038186803b15801561390f57600080fd5b505afa158015613923573d6000803e3d6000fd5b505050506040513d602081101561393957600080fd5b5051604080516329460cc560e11b81526001600160a01b038e81166004830152602482018690529151929350908a169163528c198a9160448082019260009290919082900301818387803b15801561399057600080fd5b505af11580156139a4573d6000803e3d6000fd5b506139be925050506001600160a01b038616338a8d614625565b6139ca8b8b848961467f565b613a4d81896001600160a01b03166370a082318e6040518263ffffffff1660e01b815260040180826001600160a01b0316815260200191505060206040518083038186803b158015613a1b57600080fd5b505afa158015613a2f573d6000803e3d6000fd5b505050506040513d6020811015613a4557600080fd5b5051906148db565b935088841015613a8e5760405162461bcd60e51b8152600401808060200182810382526031815260200180614d9c6031913960400191505060405180910390fd5b604080518b81526020810184905280820186905290516001600160a01b038d169133917f050bd6ef6b1b818f58ae43f028aa7318a580ca0c793eca2df0033c7ae63094589181900360600190a350506001600160a01b03166000908152600360205260409020429055979650505050505050565b600082820183811015613b5c576040805162461bcd60e51b815260206004820152601b60248201527f536166654d6174683a206164646974696f6e206f766572666c6f770000000000604482015290519081900360640190fd5b90505b92915050565b7f00000000000000000000000000000000000000000000000000000000000000006001600160a01b0316630442bad530600386868660405160200180846001600160a01b0316815260200180602001838152602001828103825284818151815260200191508051906020019060200280838360005b83811015613bf2578181015183820152602001613bda565b505050509050019450505050506040516020818303038152906040526040518463ffffffff1660e01b815260040180846001600160a01b03168152602001836005811115613c3c57fe5b815260200180602001828103825283818151815260200191508051906020019080838360005b83811015613c7a578181015183820152602001613c62565b50505050905090810190601f168015613ca75780820380516001836020036101000a031916815260200191505b50945050505050600060405180830381600087803b158015613cc857600080fd5b505af1158015613cdc573d6000803e3d6000fd5b505050507f00000000000000000000000000000000000000000000000000000000000000006001600160a01b0316637759c1646004858560405160200180836001600160a01b0316815260200180602001828103825283818151815260200191508051906020019060200280838360008381101561378257818101518382015260200161376a565b600060027f00000000000000000000000000000000000000000000000000000000000000006001600160a01b031663a5fede1d6040518163ffffffff1660e01b815260040160206040518083038186803b158015613dc157600080fd5b505afa158015613dd5573d6000803e3d6000fd5b505050506040513d6020811015613deb57600080fd5b50516002811115613df857fe5b148015613e0f5750600154600160a81b900460ff16155b905090565b60006001825111613e2757506001613ea5565b815160005b81811015613e9e57600181015b82811015613e9557848181518110613e4d57fe5b60200260200101516001600160a01b0316858381518110613e6a57fe5b60200260200101516001600160a01b03161415613e8d5760009350505050613ea5565b600101613e39565b50600101613e2c565b5060019150505b919050565b6002546001600160a01b038216600090815260036020526040902054613ed19042906148db565b101561231b576040805162461bcd60e51b815260206004820152601860248201527f53686172657320616374696f6e2074696d656c6f636b65640000000000000000604482015290519081900360640190fd5b613f2c61293f565b6001805460ff60b01b1916600160b01b179055604080516001600160a01b0384811660208301528183018490528251808303840181526060830193849052631dd6705960e21b9093527f00000000000000000000000000000000000000000000000000000000000000001691637759c16491600591906000906064018084815260200180602001838152602001828103825284818151815260200191508051906020019080838360005b83811015613fee578181015183820152602001613fd6565b50505050905090810190601f16801561401b5780820380516001836020036101000a031916815260200191505b50945050505050600060405180830381600087803b15801561403c57600080fd5b505af192505050801561404d575060015b614135573d80801561407b576040519150601f19603f3d011682016040523d82523d6000602084013e614080565b606091505b507fb3ea7e5141baf21804d12f5a635e83e0cb869c8b06b88648364769f85aa73fc28184846040518080602001846001600160a01b03168152602001838152602001828103825285818151815260200191508051906020019080838360005b838110156140f75781810151838201526020016140df565b50505050905090810190601f1680156141245780820380516001836020036101000a031916815260200191505b5094505050505060405180910390a1505b50506001805460ff60b01b19169055565b6060806141538584614938565b90508351600014156141665790506132c5565b6060845167ffffffffffffffff8111801561418057600080fd5b506040519080825280602002602001820160405280156141aa578160200160208202803683370190505b5090506000805b8651811015614211576141e08782815181106141c957fe5b602002602001015185614ac490919063ffffffff16565b6142095760018382815181106141f257fe5b911515602092830291909101909101526001909101905b6001016141b1565b5080614222578293505050506132c5565b825161422e9082613b02565b67ffffffffffffffff8111801561424457600080fd5b5060405190808252806020026020018201604052801561426e578160200160208202803683370190505b50935060005b83518110156142bd5783818151811061428957fe5b602002602001015185828151811061429d57fe5b6001600160a01b0390921660209283029190910190910152600101614274565b50825160005b875181101561432c578381815181106142d857fe5b602002602001015115614324578781815181106142f157fe5b602002602001015186838151811061430557fe5b6001600160a01b03909216602092830291909101909101526001909101905b6001016142c3565b50505050509392505050565b60008261434757506000613b5f565b8282028284828161435457fe5b0414613b5c5760405162461bcd60e51b8152600401808060200182810382526021815260200180614fa06021913960400191505060405180910390fd5b60008082116143e7576040805162461bcd60e51b815260206004820152601a60248201527f536166654d6174683a206469766973696f6e206279207a65726f000000000000604482015290519081900360640190fd5b8183816143f057fe5b049392505050565b604080516001600160a01b0386811660208301528183018690526060808301869052835180840390910181526080830193849052631dd6705960e21b9093527f00000000000000000000000000000000000000000000000000000000000000001691637759c164916002919085906084018084815260200180602001838152602001828103825284818151815260200191508051906020019080838360005b838110156144af578181015183820152602001614497565b50505050905090810190601f1680156144dc5780820380516001836020036101000a031916815260200191505b50945050505050600060405180830381600087803b1580156144fd57600080fd5b505af1158015614511573d6000803e3d6000fd5b5050604080516001600160a01b0388811660208301528183018890526060820187905260808083018790528351808403909101815260a0830193849052630442bad560e01b9093523060a483018181527f00000000000000000000000000000000000000000000000000000000000000009092169550630442bad594509260019290919060c40183815260200180602001828103825283818151815260200191508051906020019080838360005b838110156145d75781810151838201526020016145bf565b50505050905090810190601f1680156146045780820380516001836020036101000a031916815260200191505b50945050505050600060405180830381600087803b15801561160257600080fd5b604080516001600160a01b0380861660248301528416604482015260648082018490528251808303909101815260849091019091526020810180516001600160e01b03166323b872dd60e01b17905261161b908590614b1a565b600061468b8285613b02565b604080516001600160a01b0388811660208301528183018890526060808301889052835180840390910181526080830193849052631dd6705960e21b9093529293507f000000000000000000000000000000000000000000000000000000000000000090921691637759c1649160039185906084018084815260200180602001838152602001828103825284818151815260200191508051906020019080838360005b8381101561474657818101518382015260200161472e565b50505050905090810190601f1680156147735780820380516001836020036101000a031916815260200191505b50945050505050600060405180830381600087803b15801561479457600080fd5b505af11580156147a8573d6000803e3d6000fd5b5050604080516001600160a01b0389811660208301528183018990526060820188905260808083018790528351808403909101815260a0830193849052630442bad560e01b9093523060a483018181527f00000000000000000000000000000000000000000000000000000000000000009092169550630442bad594509260029290919060c40183815260200180602001828103825283818151815260200191508051906020019080838360005b8381101561486e578181015183820152602001614856565b50505050905090810190601f16801561489b5780820380516001836020036101000a031916815260200191505b50945050505050600060405180830381600087803b1580156148bc57600080fd5b505af11580156148d0573d6000803e3d6000fd5b505050505050505050565b600082821115614932576040805162461bcd60e51b815260206004820152601e60248201527f536166654d6174683a207375627472616374696f6e206f766572666c6f770000604482015290519081900360640190fd5b50900390565b606081516000141561494b575081613b5f565b6060835167ffffffffffffffff8111801561496557600080fd5b5060405190808252806020026020018201604052801561498f578160200160208202803683370190505b50845190915060005b85518110156149f1576149be858783815181106149b157fe5b6020026020010151614ac4565b156149e95760018382815181106149d157fe5b91151560209283029190910190910152600019909101905b600101614998565b508451811415614a0357849250614abc565b8015614abc578067ffffffffffffffff81118015614a2057600080fd5b50604051908082528060200260200182016040528015614a4a578160200160208202803683370190505b5092506000805b8651811015614ab957838181518110614a6657fe5b6020026020010151614ab157868181518110614a7e57fe5b6020026020010151858381518110614a9257fe5b6001600160a01b03909216602092830291909101909101526001909101905b600101614a51565b50505b505092915050565b6000805b8351811015614b1057838181518110614add57fe5b60200260200101516001600160a01b0316836001600160a01b03161415614b08576001915050613b5f565b600101614ac8565b5060009392505050565b6060614b6f826040518060400160405280602081526020017f5361666545524332303a206c6f772d6c6576656c2063616c6c206661696c6564815250856001600160a01b0316614bcb9092919063ffffffff16565b805190915015610a4b57808060200190516020811015614b8e57600080fd5b5051610a4b5760405162461bcd60e51b815260040180806020018281038252602a815260200180615043602a913960400191505060405180910390fd5b60606132c2848460008585614bdf85614cf1565b614c30576040805162461bcd60e51b815260206004820152601d60248201527f416464726573733a2063616c6c20746f206e6f6e2d636f6e7472616374000000604482015290519081900360640190fd5b60006060866001600160a01b031685876040518082805190602001908083835b60208310614c6f5780518252601f199092019160209182019101614c50565b6001836020036101000a03801982511681845116808217855250505050505090500191505060006040518083038185875af1925050503d8060008114614cd1576040519150601f19603f3d011682016040523d82523d6000602084013e614cd6565b606091505b5091509150614ce6828286614cf7565b979650505050505050565b3b151590565b60608315614d065750816132c5565b825115614d165782518084602001fd5b8160405162461bcd60e51b81526004018080602001828103825283818151815260200191508051906020019080838360005b83811015614d60578181015183820152602001614d48565b50505050905090810190601f168015614d8d5780820380516001836020036101000a031916815260200191505b509250505060405180910390fdfe5f5f6275795368617265733a20536861726573207265636569766564203c205f6d696e5368617265735175616e7469747966696e616c697a65416e64476574417373657442616c616e63653a2043616e6e6f7420736574746c652053796e74685f5f6173736572745065726d697373696f6e65645661756c74416374696f6e3a204e6f7420612076616c6964206163746f725f5f72656465656d5368617265733a205f6164646974696f6e616c41737365747320636f6e7461696e73206475706c6963617465735f5f6173736572745065726d697373696f6e65645661756c74416374696f6e3a204e6f742076616c696420666f72204665654d616e616765725f5f72656465656d5368617265733a205f7368617265735175616e74697479206d757374206265203e305f5f72656465656d5368617265733a205f617373657473546f536b697020636f6e7461696e73206475706c6963617465737661756c7443616c6c4f6e436f6e74726163743a20556e726567697374657265645f5f6275795368617265733a20456d707479205f696e766573746d656e74416d6f756e745f5f6173736572745065726d697373696f6e65645661756c74416374696f6e3a204e6f742076616c696420666f7220496e746567726174696f6e4d616e6167657263616c6c4f6e457874656e73696f6e3a205f657874656e73696f6e20696e76616c6964536166654d6174683a206d756c7469706c69636174696f6e206f766572666c6f775f5f6173736572745065726d697373696f6e65645661756c74416374696f6e3a204e6f20616374696f6e20616c6c6f77656466696e616c697a65416e64476574417373657442616c616e63653a204d697373696e672045786368616e6765727365744f7665727269646550617573653a2056616c756520616c7265616479207365745361666545524332303a204552433230206f7065726174696f6e20646964206e6f7420737563636565645f5f72656465656d5368617265733a20496e73756666696369656e7420736861726573a2646970667358221220ba8c9e0d3b51723e8fc3af39b025283e589ac3168da8d4ac81fe8c753b952ba064736f6c634300060c0033",
  "devdoc": {
    "author": "Enzyme Council <security@enzyme.finance>",
    "kind": "dev",
    "methods": {
      "activate(address,bool)": {
        "details": "No need to assert anything beyond FundDeployer access.",
        "params": {
          "_isMigration": "True if a migrated fund is being activated",
          "_vaultProxy": "The VaultProxy to attach to the fund"
        }
      },
      "buyShares(address[],uint256[],uint256[])": {
        "details": "Param arrays have indexes corresponding to individual __buyShares() orders.",
        "params": {
          "_buyers": "The accounts for which to buy shares",
          "_investmentAmounts": "The amounts of the fund's denomination asset with which to buy shares for the corresponding _buyers",
          "_minSharesQuantities": "The minimum quantities of shares to buy with the corresponding _investmentAmounts"
        },
        "returns": {
          "sharesReceivedAmounts_": "The actual amounts of shares received by the corresponding _buyers"
        }
      },
      "calcGav(bool)": {
        "params": {
          "_requireFinality": "True if all assets must have exact final balances settled"
        },
        "returns": {
          "gav_": "The fund GAV",
          "isValid_": "True if the conversion rates used to derive the GAV are all valid"
        }
      },
      "calcGrossShareValue(bool)": {
        "details": "Does not account for any fees outstanding.",
        "params": {
          "_requireFinality": "True if all assets must have exact final balances settled"
        },
        "returns": {
          "grossShareValue_": "The amount of the denomination asset per share",
          "isValid_": "True if the conversion rates to derive the value are all valid"
        }
      },
      "callOnExtension(address,uint256,bytes)": {
        "details": "Used to route arbitrary calls, so that msg.sender is the ComptrollerProxy (for access control). Uses a mutex of sorts that allows \"permissioned vault actions\" during calls originating from this function.",
        "params": {
          "_actionId": "An ID representing the action to take on the extension (see extension)",
          "_callArgs": "The encoded data for the call",
          "_extension": "The Extension contract to call (e.g., FeeManager)"
        }
      },
      "configureExtensions(bytes,bytes)": {
        "details": "No need to assert anything beyond FundDeployer access. Called atomically with init(), but after ComptrollerLib has been deployed, giving access to its state and interface",
        "params": {
          "_feeManagerConfigData": "Encoded config for fees to enable",
          "_policyManagerConfigData": "Encoded config for policies to enable"
        }
      },
      "destruct()": {
        "details": "No need to assert anything beyond FundDeployer access. Calling onlyNotPaused here rather than in the FundDeployer allows the owner to potentially override the pause and rescue unpaid fees."
      },
      "getDenominationAsset()": {
        "returns": {
          "denominationAsset_": "The `denominationAsset` variable value"
        }
      },
      "getLibRoutes()": {
        "returns": {
          "dispatcher_": "The `DISPATCHER` variable value",
          "feeManager_": "The `FEE_MANAGER` variable value",
          "fundDeployer_": "The `FUND_DEPLOYER` variable value",
          "integrationManager_": "The `INTEGRATION_MANAGER` variable value",
          "policyManager_": "The `POLICY_MANAGER` variable value",
          "primitivePriceFeed_": "The `PRIMITIVE_PRICE_FEED` variable value",
          "valueInterpreter_": "The `VALUE_INTERPRETER` variable value"
        }
      },
      "getOverridePause()": {
        "returns": {
          "overridePause_": "The `overridePause` variable value"
        }
      },
      "getSharesActionTimelock()": {
        "returns": {
          "sharesActionTimelock_": "The `sharesActionTimelock` variable value"
        }
      },
      "getSynthetixAddressResolver()": {
        "returns": {
          "synthetixAddressResolver_": "The `SYNTHETIX_ADDRESS_RESOLVER` variable value"
        }
      },
      "getSynthetixPriceFeed()": {
        "returns": {
          "synthetixPriceFeed_": "The `SYNTHETIX_PRICE_FEED` variable value"
        }
      },
      "getVaultProxy()": {
        "returns": {
          "vaultProxy_": "The `vaultProxy` variable value"
        }
      },
      "init(address,uint256)": {
        "details": "Pseudo-constructor per proxy. No need to assert access because this is called atomically on deployment, and once it's called, it cannot be called again.",
        "params": {
          "_denominationAsset": "The asset in which the fund's value should be denominated",
          "_sharesActionTimelock": "The minimum number of seconds between any two \"shares actions\" (buying or selling shares) by the same user"
        }
      },
      "permissionedVaultAction(uint8,bytes)": {
        "params": {
          "_action": "The enum representing the VaultAction to perform on the VaultProxy",
          "_actionData": "The call data for the action to perform"
        }
      },
      "redeemShares()": {
        "details": "See __redeemShares() for further detail",
        "returns": {
          "payoutAmounts_": "The amount of each asset paid out to the redeemer",
          "payoutAssets_": "The assets paid out to the redeemer"
        }
      },
      "redeemSharesDetailed(uint256,address[],address[])": {
        "details": "Any claim to passed _assetsToSkip will be forfeited entirely. This should generally only be exercised if a bad asset is causing redemption to fail.",
        "params": {
          "_additionalAssets": "Additional (non-tracked) assets to claim",
          "_assetsToSkip": "Tracked assets to forfeit",
          "_sharesQuantity": "The quantity of shares to redeem"
        },
        "returns": {
          "payoutAmounts_": "The amount of each asset paid out to the redeemer",
          "payoutAssets_": "The assets paid out to the redeemer"
        }
      },
      "setOverridePause(bool)": {
        "params": {
          "_nextOverridePause": "True if the pause should be overrode"
        }
      },
      "vaultCallOnContract(address,bytes4,bytes)": {
        "params": {
          "_contract": "The contract to call",
          "_encodedArgs": "The encoded arguments for the call",
          "_selector": "The selector to call"
        }
      }
    },
    "title": "ComptrollerLib Contract",
    "version": 1
  },
  "userdoc": {
    "kind": "user",
    "methods": {
      "activate(address,bool)": {
        "notice": "Activates the fund by attaching a VaultProxy and activating all Extensions"
      },
      "buyShares(address[],uint256[],uint256[])": {
        "notice": "Buys shares in the fund for multiple sets of criteria"
      },
      "calcGav(bool)": {
        "notice": "Calculates the gross asset value (GAV) of the fund"
      },
      "calcGrossShareValue(bool)": {
        "notice": "Calculates the gross value of 1 unit of shares in the fund's denomination asset"
      },
      "callOnExtension(address,uint256,bytes)": {
        "notice": "Calls a specified action on an Extension"
      },
      "configureExtensions(bytes,bytes)": {
        "notice": "Configure the extensions of a fund"
      },
      "destruct()": {
        "notice": "Remove the config for a fund"
      },
      "getDenominationAsset()": {
        "notice": "Gets the `denominationAsset` variable"
      },
      "getLibRoutes()": {
        "notice": "Gets the routes for the various contracts used by all funds"
      },
      "getOverridePause()": {
        "notice": "Gets the `overridePause` variable"
      },
      "getSharesActionTimelock()": {
        "notice": "Gets the `sharesActionTimelock` variable"
      },
      "getSynthetixAddressResolver()": {
        "notice": "Gets the `SYNTHETIX_ADDRESS_RESOLVER` variable"
      },
      "getSynthetixPriceFeed()": {
        "notice": "Gets the `SYNTHETIX_PRICE_FEED` variable"
      },
      "getVaultProxy()": {
        "notice": "Gets the `vaultProxy` variable"
      },
      "init(address,uint256)": {
        "notice": "Initializes a fund with its core config"
      },
      "permissionedVaultAction(uint8,bytes)": {
        "notice": "Makes a permissioned, state-changing call on the VaultProxy contract"
      },
      "redeemShares()": {
        "notice": "Redeem all of the sender's shares for a proportionate slice of the fund's assets"
      },
      "redeemSharesDetailed(uint256,address[],address[])": {
        "notice": "Redeem a specified quantity of the sender's shares for a proportionate slice of the fund's assets, optionally specifying additional assets and assets to skip."
      },
      "setOverridePause(bool)": {
        "notice": "Sets or unsets an override on a release-wide pause"
      },
      "vaultCallOnContract(address,bytes4,bytes)": {
        "notice": "Makes an arbitrary call with the VaultProxy contract as the sender"
      }
    },
    "notice": "The core logic library shared by all funds",
    "version": 1
  },
  "storageLayout": {
    "storage": [
      {
        "astId": 10276,
        "contract": "contracts/release/core/fund/comptroller/ComptrollerLib.sol:ComptrollerLib",
        "label": "denominationAsset",
        "offset": 0,
        "slot": "0",
        "type": "t_address"
      },
      {
        "astId": 10278,
        "contract": "contracts/release/core/fund/comptroller/ComptrollerLib.sol:ComptrollerLib",
        "label": "vaultProxy",
        "offset": 0,
        "slot": "1",
        "type": "t_address"
      },
      {
        "astId": 10280,
        "contract": "contracts/release/core/fund/comptroller/ComptrollerLib.sol:ComptrollerLib",
        "label": "isLib",
        "offset": 20,
        "slot": "1",
        "type": "t_bool"
      },
      {
        "astId": 10282,
        "contract": "contracts/release/core/fund/comptroller/ComptrollerLib.sol:ComptrollerLib",
        "label": "overridePause",
        "offset": 21,
        "slot": "1",
        "type": "t_bool"
      },
      {
        "astId": 10284,
        "contract": "contracts/release/core/fund/comptroller/ComptrollerLib.sol:ComptrollerLib",
        "label": "permissionedVaultActionAllowed",
        "offset": 22,
        "slot": "1",
        "type": "t_bool"
      },
      {
        "astId": 10286,
        "contract": "contracts/release/core/fund/comptroller/ComptrollerLib.sol:ComptrollerLib",
        "label": "reentranceLocked",
        "offset": 23,
        "slot": "1",
        "type": "t_bool"
      },
      {
        "astId": 10288,
        "contract": "contracts/release/core/fund/comptroller/ComptrollerLib.sol:ComptrollerLib",
        "label": "sharesActionTimelock",
        "offset": 0,
        "slot": "2",
        "type": "t_uint256"
      },
      {
        "astId": 10292,
        "contract": "contracts/release/core/fund/comptroller/ComptrollerLib.sol:ComptrollerLib",
        "label": "acctToLastSharesAction",
        "offset": 0,
        "slot": "3",
        "type": "t_mapping(t_address,t_uint256)"
      }
    ],
    "types": {
      "t_address": {
        "encoding": "inplace",
        "label": "address",
        "numberOfBytes": "20"
      },
      "t_bool": {
        "encoding": "inplace",
        "label": "bool",
        "numberOfBytes": "1"
      },
      "t_mapping(t_address,t_uint256)": {
        "encoding": "mapping",
        "key": "t_address",
        "label": "mapping(address => uint256)",
        "numberOfBytes": "32",
        "value": "t_uint256"
      },
      "t_uint256": {
        "encoding": "inplace",
        "label": "uint256",
        "numberOfBytes": "32"
      }
    }
  }
}