{
  "address": "0x14f1595fb49c681b2f722135ed112fb461fa351a",
  "abi": [
    {
      "inputs": [
        {
          "internalType": "address",
          "name": "_policyManager",
          "type": "address"
        }
      ],
      "stateMutability": "nonpayable",
      "type": "constructor"
    },
    {
      "anonymous": false,
      "inputs": [
        {
          "indexed": true,
          "internalType": "address",
          "name": "comptrollerProxy",
          "type": "address"
        },
        {
          "indexed": false,
          "internalType": "address[]",
          "name": "items",
          "type": "address[]"
        }
      ],
      "name": "AddressesAdded",
      "type": "event"
    },
    {
      "anonymous": false,
      "inputs": [
        {
          "indexed": true,
          "internalType": "address",
          "name": "comptrollerProxy",
          "type": "address"
        },
        {
          "indexed": false,
          "internalType": "address[]",
          "name": "items",
          "type": "address[]"
        }
      ],
      "name": "AddressesRemoved",
      "type": "event"
    },
    {
      "inputs": [
        {
          "internalType": "address",
          "name": "",
          "type": "address"
        },
        {
          "internalType": "address",
          "name": "",
          "type": "address"
        }
      ],
      "name": "activateForFund",
      "outputs": [],
      "stateMutability": "nonpayable",
      "type": "function"
    },
    {
      "inputs": [
        {
          "internalType": "address",
          "name": "_comptrollerProxy",
          "type": "address"
        },
        {
          "internalType": "bytes",
          "name": "_encodedSettings",
          "type": "bytes"
        }
      ],
      "name": "addFundSettings",
      "outputs": [],
      "stateMutability": "nonpayable",
      "type": "function"
    },
    {
      "inputs": [
        {
          "internalType": "address",
          "name": "_comptrollerProxy",
          "type": "address"
        }
      ],
      "name": "getList",
      "outputs": [
        {
          "internalType": "address[]",
          "name": "list_",
          "type": "address[]"
        }
      ],
      "stateMutability": "view",
      "type": "function"
    },
    {
      "inputs": [],
      "name": "getPolicyManager",
      "outputs": [
        {
          "internalType": "address",
          "name": "policyManager_",
          "type": "address"
        }
      ],
      "stateMutability": "view",
      "type": "function"
    },
    {
      "inputs": [],
      "name": "identifier",
      "outputs": [
        {
          "internalType": "string",
          "name": "identifier_",
          "type": "string"
        }
      ],
      "stateMutability": "pure",
      "type": "function"
    },
    {
      "inputs": [],
      "name": "implementedHooks",
      "outputs": [
        {
          "internalType": "enum IPolicyManager.PolicyHook[]",
          "name": "implementedHooks_",
          "type": "uint8[]"
        }
      ],
      "stateMutability": "view",
      "type": "function"
    },
    {
      "inputs": [
        {
          "internalType": "address",
          "name": "_comptrollerProxy",
          "type": "address"
        },
        {
          "internalType": "address",
          "name": "_item",
          "type": "address"
        }
      ],
      "name": "isInList",
      "outputs": [
        {
          "internalType": "bool",
          "name": "isInList_",
          "type": "bool"
        }
      ],
      "stateMutability": "view",
      "type": "function"
    },
    {
      "inputs": [
        {
          "internalType": "address",
          "name": "_comptrollerProxy",
          "type": "address"
        },
        {
          "internalType": "address",
          "name": "_investor",
          "type": "address"
        }
      ],
      "name": "passesRule",
      "outputs": [
        {
          "internalType": "bool",
          "name": "isValid_",
          "type": "bool"
        }
      ],
      "stateMutability": "view",
      "type": "function"
    },
    {
      "inputs": [
        {
          "internalType": "address",
          "name": "_comptrollerProxy",
          "type": "address"
        },
        {
          "internalType": "address",
          "name": "",
          "type": "address"
        },
        {
          "internalType": "bytes",
          "name": "_encodedSettings",
          "type": "bytes"
        }
      ],
      "name": "updateFundSettings",
      "outputs": [],
      "stateMutability": "nonpayable",
      "type": "function"
    },
    {
      "inputs": [
        {
          "internalType": "address",
          "name": "_comptrollerProxy",
          "type": "address"
        },
        {
          "internalType": "address",
          "name": "",
          "type": "address"
        },
        {
          "internalType": "enum IPolicyManager.PolicyHook",
          "name": "",
          "type": "uint8"
        },
        {
          "internalType": "bytes",
          "name": "_encodedArgs",
          "type": "bytes"
        }
      ],
      "name": "validateRule",
      "outputs": [
        {
          "internalType": "bool",
          "name": "isValid_",
          "type": "bool"
        }
      ],
      "stateMutability": "nonpayable",
      "type": "function"
    }
  ],
  "transactionHash": "0x1fa03a62f271f7788fe851e8e3cc40574dd4fc2ff91efef6067c01efde660fd6",
  "args": [
    "0x008DBE548c97D253c8161305883AE506f264c4fD"
  ],
  "linkedData": {
    "type": "POLICY"
  },
  "solcInputHash": "a255b7352a771229d5d6ada28c33f53e",
  "bytecode": "0x60a060405234801561001057600080fd5b50604051610efc380380610efc8339818101604052602081101561003357600080fd5b5051606081901b6001600160601b0319166080526001600160a01b0316610e8b610071600039806104035280610566528061066d5250610e8b6000f3fe608060405234801561001057600080fd5b506004361061009e5760003560e01c80638945f190116100665780638945f190146102a1578063b67cb40c14610328578063cbf54bb214610356578063d44ad6cb146103ae578063ef00e37a146103d25761009e565b80630f5f6b4f146100a35780633146d0581461012357806335595704146101515780635b8f1c5a146101935780637998a1c414610224575b600080fd5b610121600480360360408110156100b957600080fd5b6001600160a01b038235169190810190604081016020820135600160201b8111156100e357600080fd5b8201836020820111156100f557600080fd5b803590602001918460018302840111600160201b8311171561011657600080fd5b5090925090506103f8565b005b6101216004803603604081101561013957600080fd5b506001600160a01b03813581169160200135166104a4565b61017f6004803603604081101561016757600080fd5b506001600160a01b03813581169160200135166104a8565b604080519115158252519081900360200190f35b61017f600480360360808110156101a957600080fd5b6001600160a01b03823581169260208101359091169160ff6040830135169190810190608081016060820135600160201b8111156101e657600080fd5b8201836020820111156101f857600080fd5b803590602001918460018302840111600160201b8311171561021957600080fd5b5090925090506104d3565b61022c61052f565b6040805160208082528351818301528351919283929083019185019080838360005b8381101561026657818101518382015260200161024e565b50505050905090810190601f1680156102935780820380516001836020036101000a031916815260200191505b509250505060405180910390f35b610121600480360360608110156102b757600080fd5b6001600160a01b038235811692602081013590911691810190606081016040820135600160201b8111156102ea57600080fd5b8201836020820111156102fc57600080fd5b803590602001918460018302840111600160201b8311171561031d57600080fd5b50909250905061055b565b61017f6004803603604081101561033e57600080fd5b506001600160a01b0381358116916020013516610608565b61035e610614565b60408051602080825283518183015283519192839290830191858101910280838360005b8381101561039a578181015183820152602001610382565b505050509050019250505060405180910390f35b6103b661066b565b604080516001600160a01b039092168252519081900360200190f35b61035e600480360360208110156103e857600080fd5b50356001600160a01b031661068f565b336001600160a01b037f0000000000000000000000000000000000000000000000000000000000000000161461045f5760405162461bcd60e51b8152600401808060200182810382526029815260200180610e0b6029913960400191505060405180910390fd5b61049f8383838080601f01602080910402602001604051908101604052809392919081815260200183838082843760009201919091525061075692505050565b505050565b5050565b6001600160a01b03821660009081526020819052604081206104ca90836108a7565b90505b92915050565b60008061051584848080601f0160208091040260200160405190810160405280939291908181526020018383808284376000920191909152506108bc92505050565b50505090506105248782610608565b979650505050505050565b6040805180820190915260128152711253959154d513d497d5d2125511531254d560721b602082015290565b336001600160a01b037f000000000000000000000000000000000000000000000000000000000000000016146105c25760405162461bcd60e51b8152600401808060200182810382526029815260200180610e0b6029913960400191505060405180910390fd5b6106028483838080601f01602080910402602001604051908101604052809392919081815260200183838082843760009201919091525061075692505050565b50505050565b60006104ca83836104a8565b6040805160018082528183019092526060916020808301908036833701905050905060018160008151811061064557fe5b6020026020010190600581111561065857fe5b9081600581111561066557fe5b90525090565b7f000000000000000000000000000000000000000000000000000000000000000090565b6001600160a01b03811660009081526020819052604090206060906106b3906108f9565b67ffffffffffffffff811180156106c957600080fd5b506040519080825280602002602001820160405280156106f3578160200160208202803683370190505b50905060005b8151811015610750576001600160a01b03831660009081526020819052604090206107249082610904565b82828151811061073057fe5b6001600160a01b03909216602092830291909101909101526001016106f9565b50919050565b60608082806020019051604081101561076e57600080fd5b8101908080516040519392919084600160201b82111561078d57600080fd5b9083019060208201858111156107a257600080fd5b82518660208202830111600160201b821117156107be57600080fd5b82525081516020918201928201910280838360005b838110156107eb5781810151838201526020016107d3565b5050505090500160405260200180516040519392919084600160201b82111561081357600080fd5b90830190602082018581111561082857600080fd5b82518660208202830111600160201b8211171561084457600080fd5b82525081516020918201928201910280838360005b83811015610871578181015183820152602001610859565b5050505090500160405250505091509150600082511115610896576108968483610910565b805115610602576106028482610a6c565b60006104ca836001600160a01b038416610bac565b6000806000808480602001905160808110156108d757600080fd5b5080516020820151604083015160609093015191989097509195509350915050565b60006104cd82610bc4565b60006104ca8383610bc8565b60008151116109505760405162461bcd60e51b8152600401808060200182810382526022815260200180610e346022913960400191505060405180910390fd5b60005b81518110156109e8576109a582828151811061096b57fe5b6020026020010151600080866001600160a01b03166001600160a01b03168152602001908152602001600020610c2c90919063ffffffff16565b6109e05760405162461bcd60e51b815260040180806020018281038252602b815260200180610d89602b913960400191505060405180910390fd5b600101610953565b50816001600160a01b03167fe3754690adb33d1fe0511f97e82086f6097babaea494124a0196a61a949ef2cf826040518080602001828103825283818151815260200191508051906020019060200280838360005b83811015610a55578181015183820152602001610a3d565b505050509050019250505060405180910390a25050565b6000815111610aac5760405162461bcd60e51b8152600401808060200182810382526027815260200180610db46027913960400191505060405180910390fd5b60005b8151811015610b4457610b01828281518110610ac757fe5b6020026020010151600080866001600160a01b03166001600160a01b03168152602001908152602001600020610c4190919063ffffffff16565b610b3c5760405162461bcd60e51b8152600401808060200182810382526030815260200180610ddb6030913960400191505060405180910390fd5b600101610aaf565b5060408051602080825283518183015283516001600160a01b038616937ffa28b09abbaa834d4ec77cdfd905fdabcc5cd7cea3a0794093404be865f749e293869390928392830191808601910280838360008315610a55578181015183820152602001610a3d565b60009081526001919091016020526040902054151590565b5490565b81546000908210610c0a5760405162461bcd60e51b8152600401808060200182810382526022815260200180610d676022913960400191505060405180910390fd5b826000018281548110610c1957fe5b9060005260206000200154905092915050565b60006104ca836001600160a01b038416610c56565b60006104ca836001600160a01b038416610ca0565b6000610c628383610bac565b610c98575081546001818101845560008481526020808220909301849055845484825282860190935260409020919091556104cd565b5060006104cd565b60008181526001830160205260408120548015610d5c5783546000198083019190810190600090879083908110610cd357fe5b9060005260206000200154905080876000018481548110610cf057fe5b600091825260208083209091019290925582815260018981019092526040902090840190558654879080610d2057fe5b600190038181906000526020600020016000905590558660010160008781526020019081526020016000206000905560019450505050506104cd565b60009150506104cd56fe456e756d657261626c655365743a20696e646578206f7574206f6620626f756e64735f5f616464546f4c6973743a204164647265737320616c72656164792065786973747320696e206c6973745f5f72656d6f766546726f6d4c6973743a204e6f206164647265737365732070726f76696465645f5f72656d6f766546726f6d4c6973743a204164647265737320646f6573206e6f7420657869737420696e206c6973744f6e6c792074686520506f6c6963794d616e616765722063616e206d616b6520746869732063616c6c5f5f616464546f4c6973743a204e6f206164647265737365732070726f7669646564a26469706673582212201046a4c63831df988155c4043f109d15c951b914304f79ceda8552cab074b47464736f6c634300060c0033",
  "devdoc": {
    "author": "Enzyme Council <security@enzyme.finance>",
    "kind": "dev",
    "methods": {
      "activateForFund(address,address)": {
        "details": "Unimplemented by default, can be overridden by the policy"
      },
      "addFundSettings(address,bytes)": {
        "params": {
          "_comptrollerProxy": "The fund's ComptrollerProxy address",
          "_encodedSettings": "Encoded settings to apply to a fund"
        }
      },
      "getList(address)": {
        "params": {
          "_comptrollerProxy": "The fund's ComptrollerProxy address"
        },
        "returns": {
          "list_": "The addresses in the fund's list"
        }
      },
      "getPolicyManager()": {
        "returns": {
          "policyManager_": "The `POLICY_MANAGER` variable value"
        }
      },
      "identifier()": {
        "returns": {
          "identifier_": "The identifer string"
        }
      },
      "implementedHooks()": {
        "returns": {
          "implementedHooks_": "The implemented PolicyHooks"
        }
      },
      "isInList(address,address)": {
        "params": {
          "_comptrollerProxy": "The fund's ComptrollerProxy address",
          "_item": "The address to check against the list"
        },
        "returns": {
          "isInList_": "True if the address is in the list"
        }
      },
      "passesRule(address,address)": {
        "params": {
          "_comptrollerProxy": "The fund's ComptrollerProxy address",
          "_investor": "The investor for which to check the rule"
        },
        "returns": {
          "isValid_": "True if the rule passes"
        }
      },
      "updateFundSettings(address,address,bytes)": {
        "params": {
          "_comptrollerProxy": "The fund's ComptrollerProxy address",
          "_encodedSettings": "Encoded settings to apply to a fund"
        }
      },
      "validateRule(address,address,uint8,bytes)": {
        "params": {
          "_comptrollerProxy": "The fund's ComptrollerProxy address",
          "_encodedArgs": "Encoded args with which to validate the rule"
        },
        "returns": {
          "isValid_": "True if the rule passes"
        }
      }
    },
    "title": "InvestorWhitelist Contract",
    "version": 1
  },
  "userdoc": {
    "kind": "user",
    "methods": {
      "activateForFund(address,address)": {
        "notice": "Validates and initializes a policy as necessary prior to fund activation"
      },
      "addFundSettings(address,bytes)": {
        "notice": "Adds the initial policy settings for a fund"
      },
      "getList(address)": {
        "notice": "Get all addresses in a fund's list"
      },
      "getPolicyManager()": {
        "notice": "Gets the `POLICY_MANAGER` variable value"
      },
      "identifier()": {
        "notice": "Provides a constant string identifier for a policy"
      },
      "implementedHooks()": {
        "notice": "Gets the implemented PolicyHooks for a policy"
      },
      "isInList(address,address)": {
        "notice": "Check if an address is in a fund's list"
      },
      "passesRule(address,address)": {
        "notice": "Checks whether a particular condition passes the rule for a particular fund"
      },
      "updateFundSettings(address,address,bytes)": {
        "notice": "Updates the policy settings for a fund"
      },
      "validateRule(address,address,uint8,bytes)": {
        "notice": "Apply the rule with the specified parameters of a PolicyHook"
      }
    },
    "notice": "A policy that only allows a configurable whitelist of investors to buy shares in a fund",
    "version": 1
  },
  "storageLayout": {
    "storage": [
      {
        "astId": 37368,
        "contract": "contracts/release/extensions/policy-manager/policies/buy-shares/InvestorWhitelist.sol:InvestorWhitelist",
        "label": "comptrollerProxyToList",
        "offset": 0,
        "slot": "0",
        "type": "t_mapping(t_address,t_struct(AddressSet)2091_storage)"
      }
    ],
    "types": {
      "t_address": {
        "encoding": "inplace",
        "label": "address",
        "numberOfBytes": "20"
      },
      "t_array(t_bytes32)dyn_storage": {
        "base": "t_bytes32",
        "encoding": "dynamic_array",
        "label": "bytes32[]",
        "numberOfBytes": "32"
      },
      "t_bytes32": {
        "encoding": "inplace",
        "label": "bytes32",
        "numberOfBytes": "32"
      },
      "t_mapping(t_address,t_struct(AddressSet)2091_storage)": {
        "encoding": "mapping",
        "key": "t_address",
        "label": "mapping(address => struct EnumerableSet.AddressSet)",
        "numberOfBytes": "32",
        "value": "t_struct(AddressSet)2091_storage"
      },
      "t_mapping(t_bytes32,t_uint256)": {
        "encoding": "mapping",
        "key": "t_bytes32",
        "label": "mapping(bytes32 => uint256)",
        "numberOfBytes": "32",
        "value": "t_uint256"
      },
      "t_struct(AddressSet)2091_storage": {
        "encoding": "inplace",
        "label": "struct EnumerableSet.AddressSet",
        "members": [
          {
            "astId": 2090,
            "contract": "contracts/release/extensions/policy-manager/policies/buy-shares/InvestorWhitelist.sol:InvestorWhitelist",
            "label": "_inner",
            "offset": 0,
            "slot": "0",
            "type": "t_struct(Set)1826_storage"
          }
        ],
        "numberOfBytes": "64"
      },
      "t_struct(Set)1826_storage": {
        "encoding": "inplace",
        "label": "struct EnumerableSet.Set",
        "members": [
          {
            "astId": 1821,
            "contract": "contracts/release/extensions/policy-manager/policies/buy-shares/InvestorWhitelist.sol:InvestorWhitelist",
            "label": "_values",
            "offset": 0,
            "slot": "0",
            "type": "t_array(t_bytes32)dyn_storage"
          },
          {
            "astId": 1825,
            "contract": "contracts/release/extensions/policy-manager/policies/buy-shares/InvestorWhitelist.sol:InvestorWhitelist",
            "label": "_indexes",
            "offset": 0,
            "slot": "1",
            "type": "t_mapping(t_bytes32,t_uint256)"
          }
        ],
        "numberOfBytes": "64"
      },
      "t_uint256": {
        "encoding": "inplace",
        "label": "uint256",
        "numberOfBytes": "32"
      }
    }
  }
}