{
  "address": "0x900D14dbe9BaD3fCBae7A724E1A55026154a7B20",
  "abi": [
    {
      "inputs": [
        {
          "internalType": "address",
          "name": "_fundDeployer",
          "type": "address"
        },
        {
          "internalType": "address",
          "name": "_integrationManager",
          "type": "address"
        },
        {
          "internalType": "address",
          "name": "_valueInterpreter",
          "type": "address"
        },
        {
          "internalType": "address",
          "name": "_wethToken",
          "type": "address"
        }
      ],
      "stateMutability": "nonpayable",
      "type": "constructor"
    },
    {
      "anonymous": false,
      "inputs": [
        {
          "indexed": false,
          "internalType": "uint256",
          "name": "nextDustToleranceInWeth",
          "type": "uint256"
        }
      ],
      "name": "DustToleranceInWethSet",
      "type": "event"
    },
    {
      "inputs": [],
      "name": "ADD_TRACKED_ASSETS_SELECTOR",
      "outputs": [
        {
          "internalType": "bytes4",
          "name": "",
          "type": "bytes4"
        }
      ],
      "stateMutability": "view",
      "type": "function"
    },
    {
      "inputs": [],
      "name": "APPROVE_ASSETS_SELECTOR",
      "outputs": [
        {
          "internalType": "bytes4",
          "name": "",
          "type": "bytes4"
        }
      ],
      "stateMutability": "view",
      "type": "function"
    },
    {
      "inputs": [],
      "name": "CLAIM_REWARDS_AND_REINVEST_SELECTOR",
      "outputs": [
        {
          "internalType": "bytes4",
          "name": "",
          "type": "bytes4"
        }
      ],
      "stateMutability": "view",
      "type": "function"
    },
    {
      "inputs": [],
      "name": "CLAIM_REWARDS_AND_SWAP_SELECTOR",
      "outputs": [
        {
          "internalType": "bytes4",
          "name": "",
          "type": "bytes4"
        }
      ],
      "stateMutability": "view",
      "type": "function"
    },
    {
      "inputs": [],
      "name": "CLAIM_REWARDS_SELECTOR",
      "outputs": [
        {
          "internalType": "bytes4",
          "name": "",
          "type": "bytes4"
        }
      ],
      "stateMutability": "view",
      "type": "function"
    },
    {
      "inputs": [],
      "name": "LEND_AND_STAKE_SELECTOR",
      "outputs": [
        {
          "internalType": "bytes4",
          "name": "",
          "type": "bytes4"
        }
      ],
      "stateMutability": "view",
      "type": "function"
    },
    {
      "inputs": [],
      "name": "LEND_SELECTOR",
      "outputs": [
        {
          "internalType": "bytes4",
          "name": "",
          "type": "bytes4"
        }
      ],
      "stateMutability": "view",
      "type": "function"
    },
    {
      "inputs": [],
      "name": "REDEEM_SELECTOR",
      "outputs": [
        {
          "internalType": "bytes4",
          "name": "",
          "type": "bytes4"
        }
      ],
      "stateMutability": "view",
      "type": "function"
    },
    {
      "inputs": [],
      "name": "REMOVE_TRACKED_ASSETS_SELECTOR",
      "outputs": [
        {
          "internalType": "bytes4",
          "name": "",
          "type": "bytes4"
        }
      ],
      "stateMutability": "view",
      "type": "function"
    },
    {
      "inputs": [],
      "name": "STAKE_SELECTOR",
      "outputs": [
        {
          "internalType": "bytes4",
          "name": "",
          "type": "bytes4"
        }
      ],
      "stateMutability": "view",
      "type": "function"
    },
    {
      "inputs": [],
      "name": "TAKE_ORDER_SELECTOR",
      "outputs": [
        {
          "internalType": "bytes4",
          "name": "",
          "type": "bytes4"
        }
      ],
      "stateMutability": "view",
      "type": "function"
    },
    {
      "inputs": [],
      "name": "UNSTAKE_AND_REDEEM_SELECTOR",
      "outputs": [
        {
          "internalType": "bytes4",
          "name": "",
          "type": "bytes4"
        }
      ],
      "stateMutability": "view",
      "type": "function"
    },
    {
      "inputs": [],
      "name": "UNSTAKE_SELECTOR",
      "outputs": [
        {
          "internalType": "bytes4",
          "name": "",
          "type": "bytes4"
        }
      ],
      "stateMutability": "view",
      "type": "function"
    },
    {
      "inputs": [
        {
          "internalType": "address",
          "name": "",
          "type": "address"
        },
        {
          "internalType": "bytes",
          "name": "",
          "type": "bytes"
        },
        {
          "internalType": "bytes",
          "name": "",
          "type": "bytes"
        }
      ],
      "name": "addTrackedAssets",
      "outputs": [],
      "stateMutability": "view",
      "type": "function"
    },
    {
      "inputs": [],
      "name": "getDustToleranceInWeth",
      "outputs": [
        {
          "internalType": "uint256",
          "name": "dustToleranceInWeth_",
          "type": "uint256"
        }
      ],
      "stateMutability": "view",
      "type": "function"
    },
    {
      "inputs": [],
      "name": "getFundDeployer",
      "outputs": [
        {
          "internalType": "address",
          "name": "fundDeployer_",
          "type": "address"
        }
      ],
      "stateMutability": "view",
      "type": "function"
    },
    {
      "inputs": [],
      "name": "getIntegrationManager",
      "outputs": [
        {
          "internalType": "address",
          "name": "integrationManager_",
          "type": "address"
        }
      ],
      "stateMutability": "view",
      "type": "function"
    },
    {
      "inputs": [],
      "name": "getOwner",
      "outputs": [
        {
          "internalType": "address",
          "name": "owner_",
          "type": "address"
        }
      ],
      "stateMutability": "view",
      "type": "function"
    },
    {
      "inputs": [],
      "name": "getValueInterpreter",
      "outputs": [
        {
          "internalType": "address",
          "name": "valueInterpreter_",
          "type": "address"
        }
      ],
      "stateMutability": "view",
      "type": "function"
    },
    {
      "inputs": [],
      "name": "getWethToken",
      "outputs": [
        {
          "internalType": "address",
          "name": "wethToken_",
          "type": "address"
        }
      ],
      "stateMutability": "view",
      "type": "function"
    },
    {
      "inputs": [],
      "name": "identifier",
      "outputs": [
        {
          "internalType": "string",
          "name": "identifier_",
          "type": "string"
        }
      ],
      "stateMutability": "pure",
      "type": "function"
    },
    {
      "inputs": [
        {
          "internalType": "bytes4",
          "name": "_selector",
          "type": "bytes4"
        },
        {
          "internalType": "bytes",
          "name": "_encodedCallArgs",
          "type": "bytes"
        }
      ],
      "name": "parseAssetsForMethod",
      "outputs": [
        {
          "internalType": "enum IIntegrationManager.SpendAssetsHandleType",
          "name": "spendAssetsHandleType_",
          "type": "uint8"
        },
        {
          "internalType": "address[]",
          "name": "spendAssets_",
          "type": "address[]"
        },
        {
          "internalType": "uint256[]",
          "name": "spendAssetAmounts_",
          "type": "uint256[]"
        },
        {
          "internalType": "address[]",
          "name": "incomingAssets_",
          "type": "address[]"
        },
        {
          "internalType": "uint256[]",
          "name": "minIncomingAssetAmounts_",
          "type": "uint256[]"
        }
      ],
      "stateMutability": "view",
      "type": "function"
    },
    {
      "inputs": [
        {
          "internalType": "address",
          "name": "_vaultProxy",
          "type": "address"
        },
        {
          "internalType": "bytes",
          "name": "_encodedCallArgs",
          "type": "bytes"
        },
        {
          "internalType": "bytes",
          "name": "",
          "type": "bytes"
        }
      ],
      "name": "removeTrackedAssets",
      "outputs": [],
      "stateMutability": "nonpayable",
      "type": "function"
    },
    {
      "inputs": [
        {
          "internalType": "uint256",
          "name": "_nextDustToleranceInWeth",
          "type": "uint256"
        }
      ],
      "name": "setDustToleranceInWeth",
      "outputs": [],
      "stateMutability": "nonpayable",
      "type": "function"
    }
  ],
  "transactionHash": "0xbcdadbc3df60657c136412cf544eeb7f93d206e720ac82deb2b06fbbc8a27ff9",
  "args": [
    "0x148a6FFbD7CCF8Ef7DB4dFD3103C4f197f3d46B2",
    "0x35a9ed450d4b5a12e24Ff81df198C7e412Aa2745",
    "0x1f956E9D93ACa08907323Bf0878A1a87F96a8C65",
    "0xd0a1e359811322d97991e03f863a0c30c2cf029c"
  ],
  "linkedData": {
    "type": "ADAPTER"
  },
  "solcInputHash": "a255b7352a771229d5d6ada28c33f53e",
  "bytecode": "0x61010060405234801561001157600080fd5b5060405161108b38038061108b8339818101604052608081101561003457600080fd5b508051602082015160408301516060938401516001600160601b031992851b831660805292841b821660a052831b811660c052911b1660e052662386f26fc1000060005560805160601c60a05160601c60c05160601c60e05160601c610fc36100c8600039806107985280610d03525080610a2a5280610c07525080610a505280610ada525080610b6a5250610fc36000f3fe608060405234801561001057600080fd5b50600436106101585760003560e01c8063848f3a59116100c3578063e27a06b51161007c578063e27a06b514610536578063e4d904781461053e578063e7c4569014610546578063f07539941461054e578063f658eb8014610556578063f7d882b51461062457610158565b8063848f3a5914610440578063863e5ad01461050e578063875fb4b314610516578063893d20e81461051e57806397c0ac8714610526578063b23228cf1461052e57610158565b806340f8cfcf1161011557806340f8cfcf146101c15780634c252f91146101c957806358bfdfee146101ed5780635ca62b3c1461020757806376cc7ac61461020f5780637998a1c4146103c357610158565b8063080456c11461015d578063131461c014610182578063219ea7bf1461018a578063257cb1a3146101a95780633ffc1591146101b157806340da225d146101b9575b600080fd5b61016561062c565b604080516001600160e01b03199092168252519081900360200190f35b610165610650565b6101a7600480360360208110156101a057600080fd5b5035610674565b005b610165610706565b61016561072a565b61016561074e565b610165610772565b6101d1610796565b604080516001600160a01b039092168252519081900360200190f35b6101f56107ba565b60408051918252519081900360200190f35b6101656107c0565b61028e6004803603604081101561022557600080fd5b6001600160e01b03198235169190810190604081016020820135600160201b81111561025057600080fd5b82018360208201111561026257600080fd5b803590602001918460018302840111600160201b8311171561028357600080fd5b5090925090506107e4565b6040518086600381111561029e57fe5b815260200180602001806020018060200180602001858103855289818151815260200191508051906020019060200280838360005b838110156102eb5781810151838201526020016102d3565b50505050905001858103845288818151815260200191508051906020019060200280838360005b8381101561032a578181015183820152602001610312565b50505050905001858103835287818151815260200191508051906020019060200280838360005b83811015610369578181015183820152602001610351565b50505050905001858103825286818151815260200191508051906020019060200280838360005b838110156103a8578181015183820152602001610390565b50505050905001995050505050505050505060405180910390f35b6103cb6109d5565b6040805160208082528351818301528351919283929083019185019080838360005b838110156104055781810151838201526020016103ed565b50505050905090810190601f1680156104325780820380516001836020036101000a031916815260200191505b509250505060405180910390f35b6101a76004803603606081101561045657600080fd5b6001600160a01b038235169190810190604081016020820135600160201b81111561048057600080fd5b82018360208201111561049257600080fd5b803590602001918460018302840111600160201b831117156104b357600080fd5b919390929091602081019035600160201b8111156104d057600080fd5b8201836020820111156104e257600080fd5b803590602001918460018302840111600160201b8311171561050357600080fd5b5090925090506109fd565b610165610a04565b6101d1610a28565b6101d1610a4c565b6101d1610ad8565b610165610afc565b610165610b20565b610165610b44565b6101d1610b68565b610165610b8c565b6101a76004803603606081101561056c57600080fd5b6001600160a01b038235169190810190604081016020820135600160201b81111561059657600080fd5b8201836020820111156105a857600080fd5b803590602001918460018302840111600160201b831117156105c957600080fd5b919390929091602081019035600160201b8111156105e657600080fd5b8201836020820111156105f857600080fd5b803590602001918460018302840111600160201b8311171561061957600080fd5b509092509050610bb0565b610165610e26565b7f8334eb99be0145865eba9889fca2ee920288090caefff4cc776038e20ad9259a81565b7f29fa046e79524c3c5ac4c01df692c35e217802b2b13b21121b76cf0ef02b138c81565b61067c610a4c565b6001600160a01b0316336001600160a01b0316146106cb5760405162461bcd60e51b8152600401808060200182810382526049815260200180610ef36049913960600191505060405180910390fd5b60008190556040805182815290517ff02a8605888227ce9f14ab97539fc9aed32996f83d13befc980676da2549969b9181900360200190a150565b7f099f75155f0e997bf83a7993a71d5e7e7540bd386fe1e84643a09ce6b412521981565b7ffa7dd04da627f433da73c4355ead9c75682a67a8fc84d3f6170ef0922f402d2481565b7fb9dfbaccbe5cd2a84fdcf1d15f23ef25d23086f5afbaa99516065ed4a5bbc7a381565b7ff658eb804cc1da8af5599b584aaf3d55407a3c721c42641a6a5270e963d782c381565b7f000000000000000000000000000000000000000000000000000000000000000090565b60005490565b7fdfd5ee0f6067928bf85a7c4430811282840bc99332dda3dab462c02bf95b67cc81565b600060608080806001600160e01b0319881663848f3a5960e01b14156108bd5761084387878080601f016020809104026020016040519081016040528093929190818152602001838380828437600092019190915250610e4a92505050565b9150815167ffffffffffffffff8111801561085d57600080fd5b50604051908082528060200260200182016040528015610887578160200160208202803683370190505b50905060005b81518110156108b75760018282815181106108a457fe5b602090810291909101015260010161088d565b506109ca565b6001600160e01b031988166301ecb1d760e71b14156109935761091587878080601f016020809104026020016040519081016040528093929190818152602001838380828437600092019190915250610e4a92505050565b9350835167ffffffffffffffff8111801561092f57600080fd5b50604051908082528060200260200182016040528015610959578160200160208202803683370190505b50925060005b835181101561098957600184828151811061097657fe5b602090810291909101015260010161095f565b50600394506109ca565b60405162461bcd60e51b8152600401808060200182810382526027815260200180610f676027913960400191505060405180910390fd5b939792965093509350565b60408051808201909152600e81526d545241434b45445f41535345545360901b602082015290565b5050505050565b7f03e38a2bd7063d45c897edeafc330e71657502dd86434d3c37a489caf116af6981565b7f000000000000000000000000000000000000000000000000000000000000000090565b60007f00000000000000000000000000000000000000000000000000000000000000006001600160a01b031663893d20e86040518163ffffffff1660e01b815260040160206040518083038186803b158015610aa757600080fd5b505afa158015610abb573d6000803e3d6000fd5b505050506040513d6020811015610ad157600080fd5b5051905090565b7f000000000000000000000000000000000000000000000000000000000000000090565b7f68e30677f607df46e87da13e15b637784cfa62374b653f35ab43d10361a2f83081565b7f848f3a590fb2f9795d1a275009c54c26c53833277c96b90e0ddd01753a1d590681565b7f3377e18acf9e83665eacd6af109261424fca32a298e2fc2e6095ba563fb8390e81565b7f000000000000000000000000000000000000000000000000000000000000000090565b7f1d51f49b5273d9ddbb643dc349fab8d36dbb470209c2ea71033bea49dd311c2781565b6060610bf185858080601f016020809104026020016040519081016040528093929190818152602001838380828437600092019190915250610e4a92505050565b600080549192505b8251811015610e1c576000807f00000000000000000000000000000000000000000000000000000000000000006001600160a01b0316634c67e106868581518110610c4057fe5b6020026020010151878681518110610c5457fe5b60200260200101516001600160a01b03166370a082318e6040518263ffffffff1660e01b815260040180826001600160a01b0316815260200191505060206040518083038186803b158015610ca857600080fd5b505afa158015610cbc573d6000803e3d6000fd5b505050506040513d6020811015610cd257600080fd5b50516040805160e085901b6001600160e01b03191681526001600160a01b03938416600482015260248101929092527f000000000000000000000000000000000000000000000000000000000000000090921660448201528151606480830193928290030181600087803b158015610d4957600080fd5b505af1158015610d5d573d6000803e3d6000fd5b505050506040513d6040811015610d7357600080fd5b508051602090910151909250905080610dd3576040805162461bcd60e51b815260206004820181905260248201527f72656d6f7665547261636b65644173736574733a20496e76616c696420474156604482015290519081900360640190fd5b83821115610e125760405162461bcd60e51b815260040180806020018281038252602b815260200180610f3c602b913960400191505060405180910390fd5b5050600101610bf9565b5050505050505050565b7fc29fa9dde84204c2908778afd0613d802d31cf046179b88f6d2b4a4e507ea2d581565b6060818060200190516020811015610e6157600080fd5b8101908080516040519392919084600160201b821115610e8057600080fd5b908301906020820185811115610e9557600080fd5b82518660208202830111600160201b82111715610eb157600080fd5b82525081516020918201928201910280838360005b83811015610ede578181015183820152602001610ec6565b50505050905001604052505050905091905056fe6f6e6c7946756e644465706c6f7965724f776e65723a204f6e6c79207468652046756e644465706c6f796572206f776e65722063616e2063616c6c20746869732066756e6374696f6e72656d6f7665547261636b65644173736574733a20457863656564732064757374207468726573686f6c647061727365417373657473466f724d6574686f643a205f73656c6563746f7220696e76616c6964a26469706673582212208702606339e1a725e558a0e8c1ee51449e6b509ad7d1dc8f79dd7b99d27ab8d764736f6c634300060c0033",
  "devdoc": {
    "author": "Enzyme Council <security@enzyme.finance>",
    "kind": "dev",
    "methods": {
      "addTrackedAssets(address,bytes,bytes)": {
        "details": "No need to perform any validation or implement any logic"
      },
      "getDustToleranceInWeth()": {
        "returns": {
          "dustToleranceInWeth_": "The `dustToleranceInWeth` variable value"
        }
      },
      "getFundDeployer()": {
        "returns": {
          "fundDeployer_": "The `FUND_DEPLOYER` variable value"
        }
      },
      "getIntegrationManager()": {
        "returns": {
          "integrationManager_": "The `INTEGRATION_MANAGER` variable value"
        }
      },
      "getOwner()": {
        "details": "Ownership is deferred to the owner of the FundDeployer contract",
        "returns": {
          "owner_": "The owner"
        }
      },
      "getValueInterpreter()": {
        "returns": {
          "valueInterpreter_": "The `VALUE_INTERPRETER` variable value"
        }
      },
      "getWethToken()": {
        "returns": {
          "wethToken_": "The `WETH_TOKEN` variable value"
        }
      },
      "identifier()": {
        "returns": {
          "identifier_": "The identifer string"
        }
      },
      "parseAssetsForMethod(bytes4,bytes)": {
        "params": {
          "_encodedCallArgs": "The encoded parameters for the callOnIntegration",
          "_selector": "The function selector for the callOnIntegration"
        },
        "returns": {
          "incomingAssets_": "The assets to receive in the call",
          "minIncomingAssetAmounts_": "The min asset amounts to receive in the call",
          "spendAssetAmounts_": "The max asset amounts to spend in the call",
          "spendAssetsHandleType_": "A type that dictates how to handle granting the adapter access to spend assets (`None` by default)",
          "spendAssets_": "The assets to spend in the call"
        }
      },
      "removeTrackedAssets(address,bytes,bytes)": {
        "details": "No need to validate caller",
        "params": {
          "_encodedCallArgs": "Encoded order parameters",
          "_vaultProxy": "The VaultProxy of the calling fund"
        }
      },
      "setDustToleranceInWeth(uint256)": {
        "params": {
          "_nextDustToleranceInWeth": "The next dustToleranceInWeth value"
        }
      }
    },
    "title": "TrackedAssetsAdapter Contract",
    "version": 1
  },
  "userdoc": {
    "kind": "user",
    "methods": {
      "addTrackedAssets(address,bytes,bytes)": {
        "notice": "Add multiple assets to the Vault's list of tracked assets"
      },
      "getDustToleranceInWeth()": {
        "notice": "Gets the `dustToleranceInWeth` variable value"
      },
      "getFundDeployer()": {
        "notice": "Gets the `FUND_DEPLOYER` variable"
      },
      "getIntegrationManager()": {
        "notice": "Gets the `INTEGRATION_MANAGER` variable"
      },
      "getOwner()": {
        "notice": "Gets the owner of this contract"
      },
      "getValueInterpreter()": {
        "notice": "Gets the `VALUE_INTERPRETER` variable value"
      },
      "getWethToken()": {
        "notice": "Gets the `WETH_TOKEN` variable"
      },
      "identifier()": {
        "notice": "Provides a constant string identifier for an adapter"
      },
      "parseAssetsForMethod(bytes4,bytes)": {
        "notice": "Parses the expected assets to receive from a call on integration"
      },
      "removeTrackedAssets(address,bytes,bytes)": {
        "notice": "Removes multiple assets from the Vault's list of tracked assets"
      },
      "setDustToleranceInWeth(uint256)": {
        "notice": "Sets the dustToleranceInWeth variable value"
      }
    },
    "notice": "Adapter to add tracked assets to a fund (useful e.g. to handle token airdrops)",
    "version": 1
  },
  "storageLayout": {
    "storage": [
      {
        "astId": 29376,
        "contract": "contracts/release/extensions/integration-manager/integrations/adapters/TrackedAssetsAdapter.sol:TrackedAssetsAdapter",
        "label": "dustToleranceInWeth",
        "offset": 0,
        "slot": "0",
        "type": "t_uint256"
      }
    ],
    "types": {
      "t_uint256": {
        "encoding": "inplace",
        "label": "uint256",
        "numberOfBytes": "32"
      }
    }
  }
}