{
  "address": "0xCcdbB68F05665d69d0C7950746bBeBbDc1480A2f",
  "abi": [
    {
      "inputs": [
        {
          "internalType": "address",
          "name": "_integrationManager",
          "type": "address"
        },
        {
          "internalType": "address",
          "name": "_exchange",
          "type": "address"
        },
        {
          "internalType": "address",
          "name": "_fundDeployer",
          "type": "address"
        },
        {
          "internalType": "address[]",
          "name": "_allowedMakers",
          "type": "address[]"
        }
      ],
      "stateMutability": "nonpayable",
      "type": "constructor"
    },
    {
      "anonymous": false,
      "inputs": [
        {
          "indexed": true,
          "internalType": "address",
          "name": "account",
          "type": "address"
        }
      ],
      "name": "AllowedMakerAdded",
      "type": "event"
    },
    {
      "anonymous": false,
      "inputs": [
        {
          "indexed": true,
          "internalType": "address",
          "name": "account",
          "type": "address"
        }
      ],
      "name": "AllowedMakerRemoved",
      "type": "event"
    },
    {
      "inputs": [],
      "name": "ADD_TRACKED_ASSETS_SELECTOR",
      "outputs": [
        {
          "internalType": "bytes4",
          "name": "",
          "type": "bytes4"
        }
      ],
      "stateMutability": "view",
      "type": "function"
    },
    {
      "inputs": [],
      "name": "APPROVE_ASSETS_SELECTOR",
      "outputs": [
        {
          "internalType": "bytes4",
          "name": "",
          "type": "bytes4"
        }
      ],
      "stateMutability": "view",
      "type": "function"
    },
    {
      "inputs": [],
      "name": "CLAIM_REWARDS_AND_REINVEST_SELECTOR",
      "outputs": [
        {
          "internalType": "bytes4",
          "name": "",
          "type": "bytes4"
        }
      ],
      "stateMutability": "view",
      "type": "function"
    },
    {
      "inputs": [],
      "name": "CLAIM_REWARDS_AND_SWAP_SELECTOR",
      "outputs": [
        {
          "internalType": "bytes4",
          "name": "",
          "type": "bytes4"
        }
      ],
      "stateMutability": "view",
      "type": "function"
    },
    {
      "inputs": [],
      "name": "CLAIM_REWARDS_SELECTOR",
      "outputs": [
        {
          "internalType": "bytes4",
          "name": "",
          "type": "bytes4"
        }
      ],
      "stateMutability": "view",
      "type": "function"
    },
    {
      "inputs": [],
      "name": "LEND_AND_STAKE_SELECTOR",
      "outputs": [
        {
          "internalType": "bytes4",
          "name": "",
          "type": "bytes4"
        }
      ],
      "stateMutability": "view",
      "type": "function"
    },
    {
      "inputs": [],
      "name": "LEND_SELECTOR",
      "outputs": [
        {
          "internalType": "bytes4",
          "name": "",
          "type": "bytes4"
        }
      ],
      "stateMutability": "view",
      "type": "function"
    },
    {
      "inputs": [],
      "name": "REDEEM_SELECTOR",
      "outputs": [
        {
          "internalType": "bytes4",
          "name": "",
          "type": "bytes4"
        }
      ],
      "stateMutability": "view",
      "type": "function"
    },
    {
      "inputs": [],
      "name": "REMOVE_TRACKED_ASSETS_SELECTOR",
      "outputs": [
        {
          "internalType": "bytes4",
          "name": "",
          "type": "bytes4"
        }
      ],
      "stateMutability": "view",
      "type": "function"
    },
    {
      "inputs": [],
      "name": "STAKE_SELECTOR",
      "outputs": [
        {
          "internalType": "bytes4",
          "name": "",
          "type": "bytes4"
        }
      ],
      "stateMutability": "view",
      "type": "function"
    },
    {
      "inputs": [],
      "name": "TAKE_ORDER_SELECTOR",
      "outputs": [
        {
          "internalType": "bytes4",
          "name": "",
          "type": "bytes4"
        }
      ],
      "stateMutability": "view",
      "type": "function"
    },
    {
      "inputs": [],
      "name": "UNSTAKE_AND_REDEEM_SELECTOR",
      "outputs": [
        {
          "internalType": "bytes4",
          "name": "",
          "type": "bytes4"
        }
      ],
      "stateMutability": "view",
      "type": "function"
    },
    {
      "inputs": [],
      "name": "UNSTAKE_SELECTOR",
      "outputs": [
        {
          "internalType": "bytes4",
          "name": "",
          "type": "bytes4"
        }
      ],
      "stateMutability": "view",
      "type": "function"
    },
    {
      "inputs": [
        {
          "internalType": "address[]",
          "name": "_accountsToAdd",
          "type": "address[]"
        }
      ],
      "name": "addAllowedMakers",
      "outputs": [],
      "stateMutability": "nonpayable",
      "type": "function"
    },
    {
      "inputs": [],
      "name": "getExchange",
      "outputs": [
        {
          "internalType": "address",
          "name": "exchange_",
          "type": "address"
        }
      ],
      "stateMutability": "view",
      "type": "function"
    },
    {
      "inputs": [],
      "name": "getFundDeployer",
      "outputs": [
        {
          "internalType": "address",
          "name": "fundDeployer_",
          "type": "address"
        }
      ],
      "stateMutability": "view",
      "type": "function"
    },
    {
      "inputs": [],
      "name": "getIntegrationManager",
      "outputs": [
        {
          "internalType": "address",
          "name": "integrationManager_",
          "type": "address"
        }
      ],
      "stateMutability": "view",
      "type": "function"
    },
    {
      "inputs": [],
      "name": "getOwner",
      "outputs": [
        {
          "internalType": "address",
          "name": "owner_",
          "type": "address"
        }
      ],
      "stateMutability": "view",
      "type": "function"
    },
    {
      "inputs": [],
      "name": "identifier",
      "outputs": [
        {
          "internalType": "string",
          "name": "identifier_",
          "type": "string"
        }
      ],
      "stateMutability": "pure",
      "type": "function"
    },
    {
      "inputs": [
        {
          "internalType": "address",
          "name": "_who",
          "type": "address"
        }
      ],
      "name": "isAllowedMaker",
      "outputs": [
        {
          "internalType": "bool",
          "name": "isAllowedMaker_",
          "type": "bool"
        }
      ],
      "stateMutability": "view",
      "type": "function"
    },
    {
      "inputs": [
        {
          "internalType": "bytes4",
          "name": "_selector",
          "type": "bytes4"
        },
        {
          "internalType": "bytes",
          "name": "_encodedCallArgs",
          "type": "bytes"
        }
      ],
      "name": "parseAssetsForMethod",
      "outputs": [
        {
          "internalType": "enum IIntegrationManager.SpendAssetsHandleType",
          "name": "spendAssetsHandleType_",
          "type": "uint8"
        },
        {
          "internalType": "address[]",
          "name": "spendAssets_",
          "type": "address[]"
        },
        {
          "internalType": "uint256[]",
          "name": "spendAssetAmounts_",
          "type": "uint256[]"
        },
        {
          "internalType": "address[]",
          "name": "incomingAssets_",
          "type": "address[]"
        },
        {
          "internalType": "uint256[]",
          "name": "minIncomingAssetAmounts_",
          "type": "uint256[]"
        }
      ],
      "stateMutability": "view",
      "type": "function"
    },
    {
      "inputs": [
        {
          "internalType": "address[]",
          "name": "_accountsToRemove",
          "type": "address[]"
        }
      ],
      "name": "removeAllowedMakers",
      "outputs": [],
      "stateMutability": "nonpayable",
      "type": "function"
    },
    {
      "inputs": [
        {
          "internalType": "address",
          "name": "_vaultProxy",
          "type": "address"
        },
        {
          "internalType": "bytes",
          "name": "_encodedCallArgs",
          "type": "bytes"
        },
        {
          "internalType": "bytes",
          "name": "_encodedAssetTransferArgs",
          "type": "bytes"
        }
      ],
      "name": "takeOrder",
      "outputs": [],
      "stateMutability": "nonpayable",
      "type": "function"
    }
  ],
  "transactionHash": "0xfd15cc82c22cf96a1ed5d3863b1993ccbce338036ecdd02f4694554e7207e816",
  "args": [
    "0x35a9ed450d4b5a12e24Ff81df198C7e412Aa2745",
    "0x6Ffa4088e56986E25e65d73657C23D3A869EE570",
    "0x148a6FFbD7CCF8Ef7DB4dFD3103C4f197f3d46B2",
    []
  ],
  "linkedData": {
    "type": "ADAPTER"
  },
  "solcInputHash": "a255b7352a771229d5d6ada28c33f53e",
  "bytecode": "0x60e06040523480156200001157600080fd5b506040516200306338038062003063833981016040819052620000349162000254565b6001600160601b0319606085811b821660805283811b821660a05284901b1660c0528051156200006957620000698162000073565b505050506200040c565b6000815111620000a05760405162461bcd60e51b815260040162000097906200036b565b60405180910390fd5b60005b81518110156200019657620000d2828281518110620000be57fe5b60200260200101516200019a60201b60201c565b15620000f25760405162461bcd60e51b815260040162000097906200037d565b60016000808484815181106200010457fe5b60200260200101516001600160a01b03166001600160a01b0316815260200190815260200160002060006101000a81548160ff0219169083151502179055508181815181106200015057fe5b60200260200101516001600160a01b03167f2e1c3b07a83c6d2606a67771e6dd5c25722baac28ecf38e8056fb820d88536a860405160405180910390a2600101620000a3565b5050565b6001600160a01b031660009081526020819052604090205460ff1690565b8051620001c581620003f2565b92915050565b600082601f830112620001dd57600080fd5b8151620001f4620001ee82620003b6565b6200038f565b915081818352602084019350602081019050838560208402820111156200021a57600080fd5b60005b838110156200024a5781620002338882620001b8565b84525060209283019291909101906001016200021d565b5050505092915050565b600080600080608085870312156200026b57600080fd5b6000620002798787620001b8565b94505060206200028c87828801620001b8565b93505060406200029f87828801620001b8565b92505060608501516001600160401b03811115620002bc57600080fd5b620002ca87828801620001cb565b91505092959194509250565b6000620002e5602883620003d7565b7f5f5f616464416c6c6f7765644d616b6572733a20456d707479205f6163636f758152671b9d1cd51bd0591960c21b602082015260400192915050565b600062000331602583620003d7565b7f5f5f616464416c6c6f7765644d616b6572733a2056616c756520616c726561648152641e481cd95d60da1b602082015260400192915050565b60208082528101620001c581620002d6565b60208082528101620001c58162000322565b6040518181016001600160401b0381118282101715620003ae57600080fd5b604052919050565b60006001600160401b03821115620003cd57600080fd5b5060209081020190565b90815260200190565b60006001600160a01b038216620001c5565b620003fd81620003e0565b81146200040957600080fd5b50565b60805160601c60a05160601c60c05160601c612c03620004606000398061042f528061051852806108e25280610fbf5280611257525080610cdc5280610d7252508061029c5280610f535250612c036000f3fe608060405234801561001057600080fd5b506004361061014d5760003560e01c8063863e5ad0116100c3578063e4d904781161007c578063e4d9047814610249578063e7c4569014610251578063f075399414610259578063f7d882b514610261578063f807cd2214610269578063ff7ede37146102715761014d565b8063863e5ad014610201578063893d20e81461020957806397c0ac871461021e578063b23228cf14610226578063c960260d1461022e578063e27a06b5146102415761014d565b806340da225d1161011557806340da225d1461019d57806340f8cfcf146101a55780634ce13fb0146101ad5780635ca62b3c146101c057806376cc7ac6146101c85780637998a1c4146101ec5761014d565b806303e38a2b14610152578063080456c114610167578063131461c014610185578063257cb1a31461018d5780633ffc159114610195575b600080fd5b610165610160366004611d79565b610291565b005b61016f6105cc565b60405161017c91906128b3565b60405180910390f35b61016f6105f0565b61016f610614565b61016f610638565b61016f61065c565b61016f610680565b6101656101bb366004611e90565b6106a4565b61016f61071c565b6101db6101d6366004611eef565b610740565b60405161017c9594939291906128c1565b6101f4610c90565b60405161017c919061291d565b61016f610cb4565b610211610cd8565b60405161017c9190612839565b610211610d70565b61016f610d94565b61016561023c366004611e90565b610db8565b61016f610f09565b61016f610f2d565b610211610f51565b61016f610f75565b61016f610f99565b610211610fbd565b61028461027f366004611d3d565b610fe1565b60405161017c91906128a5565b336001600160a01b037f000000000000000000000000000000000000000000000000000000000000000016146102e25760405162461bcd60e51b81526004016102d9906129be565b60405180910390fd5b8482828080601f01602080910402602001604051908101604052809392919081815260200183838082843760009201829052509250606091508190508061032885611003565b92965090945092509050600184600381111561034057fe5b14156103a25760005b83518110156103a057610398873085848151811061036357fe5b602002602001015187858151811061037757fe5b60200260200101516001600160a01b031661102d909392919063ffffffff16565b600101610349565b505b606060006103e58c8c8080601f01602080910402602001604051908101604052809392919081815260200183838082843760009201919091525061108b92505050565b915091506103f16118c9565b6103fa836110ac565b905061042161040d826101600151611226565b61041b83610160015161122d565b846112e3565b60e0810151156104f35760607f00000000000000000000000000000000000000000000000000000000000000006001600160a01b031663db123b1a6040518163ffffffff1660e01b815260040160006040518083038186803b15801561048657600080fd5b505afa15801561049a573d6000803e3d6000fd5b505050506040513d6000823e601f3d908101601f191682016040526104c29190810190611f44565b90506104f16104d082611226565b6104d98361122d565b6104ec8560a001518660e001518861137f565b6112e3565b505b60606104fe8461139d565b60405163b4be83d560e01b81529094506001600160a01b037f000000000000000000000000000000000000000000000000000000000000000016935063b4be83d592506105549150859087908690600401612a3e565b608060405180830381600087803b15801561056e57600080fd5b505af1158015610582573d6000803e3d6000fd5b505050506040513d601f19601f820116820180604052508101906105a69190612062565b50505050506105b586826113cb565b6105bf86846113cb565b5050505050505050505050565b7f8334eb99be0145865eba9889fca2ee920288090caefff4cc776038e20ad9259a81565b7f29fa046e79524c3c5ac4c01df692c35e217802b2b13b21121b76cf0ef02b138c81565b7f099f75155f0e997bf83a7993a71d5e7e7540bd386fe1e84643a09ce6b412521981565b7ffa7dd04da627f433da73c4355ead9c75682a67a8fc84d3f6170ef0922f402d2481565b7fb9dfbaccbe5cd2a84fdcf1d15f23ef25d23086f5afbaa99516065ed4a5bbc7a381565b7ff658eb804cc1da8af5599b584aaf3d55407a3c721c42641a6a5270e963d782c381565b6106ac610cd8565b6001600160a01b0316336001600160a01b0316146106dc5760405162461bcd60e51b81526004016102d99061293e565b6107188282808060200260200160405190810160405280939291908181526020018383602002808284376000920191909152506114aa92505050565b5050565b7fdfd5ee0f6067928bf85a7c4430811282840bc99332dda3dab462c02bf95b67cc81565b600060608080806001600160e01b031988166303e38a2b60e01b146107775760405162461bcd60e51b81526004016102d99061296e565b606060006107ba89898080601f01602080910402602001604051908101604052809392919081815260200183838082843760009201919091525061108b92505050565b915091506107c66118c9565b6107cf836110ac565b90506107de8160000151610fe1565b6107fa5760405162461bcd60e51b81526004016102d990612a2e565b8060a0015182111561081e5760405162461bcd60e51b81526004016102d99061298e565b600061082e826101400151611226565b90506000610840836101600151611226565b60408051600180825281830190925291925060208083019080368337019050509650818760008151811061087057fe5b6001600160a01b03929092166020928302919091018201526040805160018082528183019092529182810190803683370190505095506108b98360a0015184608001518661137f565b866000815181106108c657fe5b602090810291909101015260e083015115610bfd57600061097a7f00000000000000000000000000000000000000000000000000000000000000006001600160a01b031663db123b1a6040518163ffffffff1660e01b815260040160006040518083038186803b15801561093957600080fd5b505afa15801561094d573d6000803e3d6000fd5b505050506040513d6000823e601f3d908101601f191682016040526109759190810190611f44565b611226565b905060006109918560a001518660e001518861137f565b9050836001600160a01b0316826001600160a01b03161415610a975784608001518560e00151106109d45760405162461bcd60e51b81526004016102d9906129ae565b6040805160018082528183019092529060208083019080368337019050509a50828b600081518110610a0257fe5b6001600160a01b0392909216602092830291909101820152604080516001808252818301909252918281019080368337019050509950858a600081518110610a4657fe5b602002602001018181525050610a798189600081518110610a6357fe5b60200260200101516115b190919063ffffffff16565b88600081518110610a8657fe5b602002602001018181525050610bf6565b826001600160a01b0316826001600160a01b03161415610b2c576040805160018082528183019092529060208083019080368337019050509a50828b600081518110610adf57fe5b6001600160a01b0392909216602092830291909101820152604080516001808252818301909252918281019080368337019050509950610b1f86826115de565b8a600081518110610a8657fe5b6040805160028082526060820183529091602083019080368337019050509a50828b600081518110610b5a57fe5b60200260200101906001600160a01b031690816001600160a01b031681525050818b600181518110610b8857fe5b6001600160a01b0392909216602092830291909101820152604080516002808252606082018352909290919083019080368337019050509950858a600081518110610bcf57fe5b602002602001018181525050808a600181518110610be957fe5b6020026020010181815250505b5050610c7c565b60408051600180825281830190925290602080830190803683370190505098508089600081518110610c2b57fe5b6001600160a01b03929092166020928302919091018201526040805160018082528183019092529182810190803683370190505097508388600081518110610c6f57fe5b6020026020010181815250505b600299505050505050939792965093509350565b60408051808201909152600a8152692d22a927afa2ac2fab1960b11b602082015290565b7f03e38a2bd7063d45c897edeafc330e71657502dd86434d3c37a489caf116af6981565b60007f00000000000000000000000000000000000000000000000000000000000000006001600160a01b031663893d20e86040518163ffffffff1660e01b815260040160206040518083038186803b158015610d3357600080fd5b505afa158015610d47573d6000803e3d6000fd5b505050506040513d601f19601f82011682018060405250810190610d6b9190611d5b565b905090565b7f000000000000000000000000000000000000000000000000000000000000000090565b7f68e30677f607df46e87da13e15b637784cfa62374b653f35ab43d10361a2f83081565b610dc0610cd8565b6001600160a01b0316336001600160a01b031614610df05760405162461bcd60e51b81526004016102d99061293e565b80610e0d5760405162461bcd60e51b81526004016102d99061292e565b60005b81811015610f0457610e3c838383818110610e2757fe5b905060200201602081019061027f9190611d3d565b610e585760405162461bcd60e51b81526004016102d990612a1e565b6000806000858585818110610e6957fe5b9050602002016020810190610e7e9190611d3d565b6001600160a01b031681526020810191909152604001600020805460ff1916911515919091179055828282818110610eb257fe5b9050602002016020810190610ec79190611d3d565b6001600160a01b03167f20bc817441764d1758bec8956a90bf0ba498c8c4098524577f7c068d3c9f8c3660405160405180910390a2600101610e10565b505050565b7f848f3a590fb2f9795d1a275009c54c26c53833277c96b90e0ddd01753a1d590681565b7f3377e18acf9e83665eacd6af109261424fca32a298e2fc2e6095ba563fb8390e81565b7f000000000000000000000000000000000000000000000000000000000000000090565b7f1d51f49b5273d9ddbb643dc349fab8d36dbb470209c2ea71033bea49dd311c2781565b7fc29fa9dde84204c2908778afd0613d802d31cf046179b88f6d2b4a4e507ea2d581565b7f000000000000000000000000000000000000000000000000000000000000000090565b6001600160a01b03811660009081526020819052604090205460ff165b919050565b600060608060608480602001905181019061101e9190611fc8565b93509350935093509193509193565b611085846323b872dd60e01b85858560405160240161104e93929190612862565b60408051601f198184030181529190526020810180516001600160e01b03166001600160e01b031990931692909217909152611603565b50505050565b60606000828060200190518101906110a39190611f78565b91509150915091565b6110b46118c9565b6110bc61194e565b6110c461196c565b6110cc61198a565b6110d58561139d565b50925092509250604051806101800160405280846000600481106110f557fe5b60200201516001600160a01b031681526020018460016004811061111557fe5b60200201516001600160a01b031681526020018460026004811061113557fe5b60200201516001600160a01b031681526020018460036004811061115557fe5b60200201516001600160a01b031681526020018360006006811061117557fe5b602002015181526020018360016006811061118c57fe5b60200201518152602001836002600681106111a357fe5b60200201518152602001836003600681106111ba57fe5b60200201518152602001836004600681106111d157fe5b60200201518152602001836005600681106111e857fe5b60200201518152602001826000600281106111ff57fe5b602002015181526020018260016002811061121657fe5b6020020151905295945050505050565b6024015190565b6020810151604051630c0e082160e31b81526000916001600160e01b031916906001600160a01b037f0000000000000000000000000000000000000000000000000000000000000000169063607041089061128c9084906004016128b3565b60206040518083038186803b1580156112a457600080fd5b505afa1580156112b8573d6000803e3d6000fd5b505050506040513d601f19601f820116820180604052508101906112dc9190611d5b565b9392505050565b604051636eb1769f60e11b815281906001600160a01b0385169063dd62ed3e906113139030908790600401612847565b60206040518083038186803b15801561132b57600080fd5b505afa15801561133f573d6000803e3d6000fd5b505050506040513d601f19601f820116820180604052508101906113639190612080565b1015610f0457610f046001600160a01b03841683600019611692565b60006113958461138f8486611755565b9061178f565b949350505050565b6113a561194e565b6113ad61196c565b6113b561198a565b60608480602001905181019061101e9190611dfe565b60005b8151811015610f045760008282815181106113e557fe5b60200260200101516001600160a01b03166370a08231306040518263ffffffff1660e01b81526004016114189190612839565b60206040518083038186803b15801561143057600080fd5b505afa158015611444573d6000803e3d6000fd5b505050506040513d601f19601f820116820180604052508101906114689190612080565b905080156114a1576114a1848285858151811061148157fe5b60200260200101516001600160a01b03166117c19092919063ffffffff16565b506001016113ce565b60008151116114cb5760405162461bcd60e51b81526004016102d99061295e565b60005b8151811015610718576114f38282815181106114e657fe5b6020026020010151610fe1565b156115105760405162461bcd60e51b81526004016102d9906129ee565b600160008084848151811061152157fe5b60200260200101516001600160a01b03166001600160a01b0316815260200190815260200160002060006101000a81548160ff02191690831515021790555081818151811061156c57fe5b60200260200101516001600160a01b03167f2e1c3b07a83c6d2606a67771e6dd5c25722baac28ecf38e8056fb820d88536a860405160405180910390a26001016114ce565b6000828211156115d35760405162461bcd60e51b81526004016102d99061297e565b508082035b92915050565b6000828201838110156112dc5760405162461bcd60e51b81526004016102d99061294e565b6060611658826040518060400160405280602081526020017f5361666545524332303a206c6f772d6c6576656c2063616c6c206661696c6564815250856001600160a01b03166117e09092919063ffffffff16565b805190915015610f0457808060200190518101906116769190611ed1565b610f045760405162461bcd60e51b81526004016102d9906129fe565b80158061171a5750604051636eb1769f60e11b81526001600160a01b0384169063dd62ed3e906116c89030908690600401612847565b60206040518083038186803b1580156116e057600080fd5b505afa1580156116f4573d6000803e3d6000fd5b505050506040513d601f19601f820116820180604052508101906117189190612080565b155b6117365760405162461bcd60e51b81526004016102d990612a0e565b610f048363095ea7b360e01b848460405160240161104e92919061288a565b600082611764575060006115d8565b8282028284828161177157fe5b04146112dc5760405162461bcd60e51b81526004016102d9906129ce565b60008082116117b05760405162461bcd60e51b81526004016102d99061299e565b8183816117b957fe5b049392505050565b610f048363a9059cbb60e01b848460405160240161104e92919061288a565b60606113958484600085856117f48561188a565b6118105760405162461bcd60e51b81526004016102d9906129de565b60006060866001600160a01b0316858760405161182d919061282d565b60006040518083038185875af1925050503d806000811461186a576040519150601f19603f3d011682016040523d82523d6000602084013e61186f565b606091505b509150915061187f828286611890565b979650505050505050565b3b151590565b6060831561189f5750816112dc565b8251156118af5782518084602001fd5b8160405162461bcd60e51b81526004016102d9919061291d565b60405180610180016040528060006001600160a01b0316815260200160006001600160a01b0316815260200160006001600160a01b0316815260200160006001600160a01b0316815260200160008152602001600081526020016000815260200160008152602001600081526020016000815260200160608152602001606081525090565b60405180608001604052806004906020820280368337509192915050565b6040518060c001604052806006906020820280368337509192915050565b60405180604001604052806002905b60608152602001906001900390816119995790505090565b80356115d881612b91565b80516115d881612b91565b600082601f8301126119d857600080fd5b60046119eb6119e682612a96565b612a70565b91508183856020840282011115611a0157600080fd5b60005b83811015611a2d5781611a1788826119bc565b8452506020928301929190910190600101611a04565b5050505092915050565b60008083601f840112611a4957600080fd5b5081356001600160401b03811115611a6057600080fd5b602083019150836020820283011115611a7857600080fd5b9250929050565b600082601f830112611a9057600080fd5b8151611a9e6119e682612ab3565b91508181835260208401935060208101905083856020840282011115611ac357600080fd5b60005b83811015611a2d5781611ad988826119bc565b8452506020928301929190910190600101611ac6565b600082601f830112611b0057600080fd5b6002611b0e6119e682612a96565b9150818360005b83811015611a2d5781518601611b2b8882611c69565b8452506020928301929190910190600101611b15565b600082601f830112611b5257600080fd5b6006611b606119e682612a96565b91508183856020840282011115611b7657600080fd5b60005b83811015611a2d5781611b8c8882611d32565b8452506020928301929190910190600101611b79565b600082601f830112611bb357600080fd5b8151611bc16119e682612ab3565b91508181835260208401935060208101905083856020840282011115611be657600080fd5b60005b83811015611a2d5781611bfc8882611d32565b8452506020928301929190910190600101611be9565b80516115d881612ba5565b80356115d881612bae565b60008083601f840112611c3a57600080fd5b5081356001600160401b03811115611c5157600080fd5b602083019150836001820283011115611a7857600080fd5b600082601f830112611c7a57600080fd5b8151611c886119e682612ad3565b91508082526020830160208301858383011115611ca457600080fd5b611caf838284612b4e565b50505092915050565b80516115d881612bb7565b600060808284031215611cd557600080fd5b611cdf6080612a70565b90506000611ced8484611d32565b8252506020611cfe84848301611d32565b6020830152506040611d1284828501611d32565b6040830152506060611d2684828501611d32565b60608301525092915050565b80516115d881612bc4565b600060208284031215611d4f57600080fd5b600061139584846119b1565b600060208284031215611d6d57600080fd5b600061139584846119bc565b600080600080600060608688031215611d9157600080fd5b6000611d9d88886119b1565b95505060208601356001600160401b03811115611db957600080fd5b611dc588828901611c28565b945094505060408601356001600160401b03811115611de357600080fd5b611def88828901611c28565b92509250509295509295909350565b6000806000806101808587031215611e1557600080fd5b6000611e2187876119c7565b9450506080611e3287828801611b41565b9350506101408501516001600160401b03811115611e4f57600080fd5b611e5b87828801611aef565b9250506101608501516001600160401b03811115611e7857600080fd5b611e8487828801611c69565b91505092959194509250565b60008060208385031215611ea357600080fd5b82356001600160401b03811115611eb957600080fd5b611ec585828601611a37565b92509250509250929050565b600060208284031215611ee357600080fd5b60006113958484611c12565b600080600060408486031215611f0457600080fd5b6000611f108686611c1d565b93505060208401356001600160401b03811115611f2c57600080fd5b611f3886828701611c28565b92509250509250925092565b600060208284031215611f5657600080fd5b81516001600160401b03811115611f6c57600080fd5b61139584828501611c69565b60008060408385031215611f8b57600080fd5b82516001600160401b03811115611fa157600080fd5b611fad85828601611c69565b9250506020611fbe85828601611d32565b9150509250929050565b60008060008060808587031215611fde57600080fd5b6000611fea8787611cb8565b94505060208501516001600160401b0381111561200657600080fd5b61201287828801611a7f565b93505060408501516001600160401b0381111561202e57600080fd5b61203a87828801611ba2565b92505060608501516001600160401b0381111561205657600080fd5b611e8487828801611a7f565b60006080828403121561207457600080fd5b60006113958484611cc3565b60006020828403121561209257600080fd5b60006113958484611d32565b60006120aa83836120be565b505060200190565b60006120aa8383612824565b6120c781612b0d565b82525050565b60006120d882612b00565b6120e28185612b04565b93506120ed83612afa565b8060005b8381101561211b578151612105888261209e565b975061211083612afa565b9250506001016120f1565b509495945050505050565b600061213182612b00565b61213b8185612b04565b935061214683612afa565b8060005b8381101561211b57815161215e88826120b2565b975061216983612afa565b92505060010161214a565b6120c781612b18565b6120c781612b1d565b600061219182612b00565b61219b8185612b04565b93506121ab818560208601612b4e565b6121b481612b7a565b9093019392505050565b60006121c982612b00565b6121d38185610ffe565b93506121e3818560208601612b4e565b9290920192915050565b6120c781612b43565b6000612203602c83612b04565b7f72656d6f7665416c6c6f7765644d616b6572733a20456d707479205f6163636f81526b756e7473546f52656d6f766560a01b602082015260400192915050565b6000612251604983612b04565b7f6f6e6c7946756e644465706c6f7965724f776e65723a204f6e6c79207468652081527f46756e644465706c6f796572206f776e65722063616e2063616c6c207468697360208201526810333ab731ba34b7b760b91b604082015260600192915050565b60006122c2601b83612b04565b7f536166654d6174683a206164646974696f6e206f766572666c6f770000000000815260200192915050565b60006122fb602883612b04565b7f5f5f616464416c6c6f7765644d616b6572733a20456d707479205f6163636f758152671b9d1cd51bd0591960c21b602082015260400192915050565b6000612345602783612b04565b7f7061727365417373657473466f724d6574686f643a205f73656c6563746f72208152661a5b9d985b1a5960ca1b602082015260400192915050565b600061238e601e83612b04565b7f536166654d6174683a207375627472616374696f6e206f766572666c6f770000815260200192915050565b60006123c7604483612b04565b7f7061727365417373657473466f724d6574686f643a2054616b6572206173736581527f742066696c6c20616d6f756e742067726561746572207468616e20617661696c60208201526361626c6560e01b604082015260600192915050565b6000612433601a83612b04565b7f536166654d6174683a206469766973696f6e206279207a65726f000000000000815260200192915050565b600061246c603783612b04565b7f7061727365417373657473466f724d6574686f643a204665652067726561746581527f72207468616e206d616b65724173736574416d6f756e74000000000000000000602082015260400192915050565b60006124cb603283612b04565b7f4f6e6c792074686520496e746567726174696f6e4d616e616765722063616e2081527131b0b636103a3434b990333ab731ba34b7b760711b602082015260400192915050565b600061251f602183612b04565b7f536166654d6174683a206d756c7469706c69636174696f6e206f766572666c6f8152607760f81b602082015260400192915050565b6000612562601d83612b04565b7f416464726573733a2063616c6c20746f206e6f6e2d636f6e7472616374000000815260200192915050565b600061259b602583612b04565b7f5f5f616464416c6c6f7765644d616b6572733a2056616c756520616c726561648152641e481cd95d60da1b602082015260400192915050565b60006125e2602a83612b04565b7f5361666545524332303a204552433230206f7065726174696f6e20646964206e8152691bdd081cdd58d8d9595960b21b602082015260400192915050565b600061262e603683612b04565b7f5361666545524332303a20617070726f76652066726f6d206e6f6e2d7a65726f81527520746f206e6f6e2d7a65726f20616c6c6f77616e636560501b602082015260400192915050565b6000612686603483612b04565b7f72656d6f7665416c6c6f7765644d616b6572733a204163636f756e74206973208152733737ba1030b71030b63637bbb2b21036b0b5b2b960611b602082015260400192915050565b60006126dc603083612b04565b7f7061727365417373657473466f724d6574686f643a204f72646572206d616b6581526f1c881a5cc81b9bdd08185b1b1bddd95960821b602082015260400192915050565b805160009061018084019061273685826120be565b50602083015161274960208601826120be565b50604083015161275c60408601826120be565b50606083015161276f60608601826120be565b5060808301516127826080860182612824565b5060a083015161279560a0860182612824565b5060c08301516127a860c0860182612824565b5060e08301516127bb60e0860182612824565b506101008301516127d0610100860182612824565b506101208301516127e5610120860182612824565b506101408301518482036101408601526127ff8282612186565b91505061016083015184820361016086015261281b8282612186565b95945050505050565b6120c781612b40565b60006112dc82846121be565b602081016115d882846120be565b6040810161285582856120be565b6112dc60208301846120be565b6060810161287082866120be565b61287d60208301856120be565b6113956040830184612824565b6040810161289882856120be565b6112dc6020830184612824565b602081016115d88284612174565b602081016115d8828461217d565b60a081016128cf82886121ed565b81810360208301526128e181876120cd565b905081810360408301526128f58186612126565b9050818103606083015261290981856120cd565b9050818103608083015261187f8184612126565b602080825281016112dc8184612186565b602080825281016115d8816121f6565b602080825281016115d881612244565b602080825281016115d8816122b5565b602080825281016115d8816122ee565b602080825281016115d881612338565b602080825281016115d881612381565b602080825281016115d8816123ba565b602080825281016115d881612426565b602080825281016115d88161245f565b602080825281016115d8816124be565b602080825281016115d881612512565b602080825281016115d881612555565b602080825281016115d88161258e565b602080825281016115d8816125d5565b602080825281016115d881612621565b602080825281016115d881612679565b602080825281016115d8816126cf565b60608082528101612a4f8186612721565b9050612a5e6020830185612824565b818103604083015261281b8184612186565b6040518181016001600160401b0381118282101715612a8e57600080fd5b604052919050565b60006001600160401b03821115612aac57600080fd5b5060200290565b60006001600160401b03821115612ac957600080fd5b5060209081020190565b60006001600160401b03821115612ae957600080fd5b506020601f91909101601f19160190565b60200190565b5190565b90815260200190565b60006115d882612b34565b151590565b6001600160e01b03191690565b80610ffe81612b84565b6001600160a01b031690565b90565b60006115d882612b2a565b60005b83811015612b69578181015183820152602001612b51565b838111156110855750506000910152565b601f01601f191690565b60048110612b8e57fe5b50565b612b9a81612b0d565b8114612b8e57600080fd5b612b9a81612b18565b612b9a81612b1d565b60048110612b8e57600080fd5b612b9a81612b4056fea2646970667358221220e2cc3d7a6160fd4fef2cc45ac0fe1217ca0737b8b9c307f80421326bdcd5a8cc64736f6c634300060c0033",
  "devdoc": {
    "author": "Enzyme Council <security@enzyme.finance>",
    "kind": "dev",
    "methods": {
      "addAllowedMakers(address[])": {
        "params": {
          "_accountsToAdd": "Accounts to add"
        }
      },
      "getExchange()": {
        "returns": {
          "exchange_": "The `EXCHANGE` variable value"
        }
      },
      "getFundDeployer()": {
        "returns": {
          "fundDeployer_": "The `FUND_DEPLOYER` variable value"
        }
      },
      "getIntegrationManager()": {
        "returns": {
          "integrationManager_": "The `INTEGRATION_MANAGER` variable value"
        }
      },
      "getOwner()": {
        "details": "Ownership is deferred to the owner of the FundDeployer contract",
        "returns": {
          "owner_": "The owner"
        }
      },
      "identifier()": {
        "returns": {
          "identifier_": "The identifer string"
        }
      },
      "isAllowedMaker(address)": {
        "params": {
          "_who": "The account to check"
        },
        "returns": {
          "isAllowedMaker_": "True if _who is an allowed maker"
        }
      },
      "parseAssetsForMethod(bytes4,bytes)": {
        "params": {
          "_encodedCallArgs": "The encoded parameters for the callOnIntegration",
          "_selector": "The function selector for the callOnIntegration"
        },
        "returns": {
          "incomingAssets_": "The assets to receive in the call",
          "minIncomingAssetAmounts_": "The min asset amounts to receive in the call",
          "spendAssetAmounts_": "The max asset amounts to spend in the call",
          "spendAssetsHandleType_": "A type that dictates how to handle granting the adapter access to spend assets (`None` by default)",
          "spendAssets_": "The assets to spend in the call"
        }
      },
      "removeAllowedMakers(address[])": {
        "params": {
          "_accountsToRemove": "Accounts to remove"
        }
      },
      "takeOrder(address,bytes,bytes)": {
        "params": {
          "_encodedAssetTransferArgs": "Encoded args for expected assets to spend and receive",
          "_encodedCallArgs": "Encoded order parameters",
          "_vaultProxy": "The VaultProxy of the calling fund"
        }
      }
    },
    "title": "ZeroExV2Adapter Contract",
    "version": 1
  },
  "userdoc": {
    "kind": "user",
    "methods": {
      "addAllowedMakers(address[])": {
        "notice": "Adds accounts to the list of allowed 0x order makers"
      },
      "getExchange()": {
        "notice": "Gets the `EXCHANGE` variable value"
      },
      "getFundDeployer()": {
        "notice": "Gets the `FUND_DEPLOYER` variable"
      },
      "getIntegrationManager()": {
        "notice": "Gets the `INTEGRATION_MANAGER` variable"
      },
      "getOwner()": {
        "notice": "Gets the owner of this contract"
      },
      "identifier()": {
        "notice": "Provides a constant string identifier for an adapter"
      },
      "isAllowedMaker(address)": {
        "notice": "Checks whether an account is an allowed maker of 0x orders"
      },
      "parseAssetsForMethod(bytes4,bytes)": {
        "notice": "Parses the expected assets to receive from a call on integration"
      },
      "removeAllowedMakers(address[])": {
        "notice": "Removes accounts from the list of allowed 0x order makers"
      },
      "takeOrder(address,bytes,bytes)": {
        "notice": "Take an order on 0x"
      }
    },
    "notice": "Adapter to 0xV2 Exchange Contract",
    "version": 1
  },
  "storageLayout": {
    "storage": [
      {
        "astId": 31233,
        "contract": "contracts/release/extensions/integration-manager/integrations/adapters/ZeroExV2Adapter.sol:ZeroExV2Adapter",
        "label": "makerToIsAllowed",
        "offset": 0,
        "slot": "0",
        "type": "t_mapping(t_address,t_bool)"
      }
    ],
    "types": {
      "t_address": {
        "encoding": "inplace",
        "label": "address",
        "numberOfBytes": "20"
      },
      "t_bool": {
        "encoding": "inplace",
        "label": "bool",
        "numberOfBytes": "1"
      },
      "t_mapping(t_address,t_bool)": {
        "encoding": "mapping",
        "key": "t_address",
        "label": "mapping(address => bool)",
        "numberOfBytes": "32",
        "value": "t_bool"
      }
    }
  }
}